:020000040000fa
:080000000002040000000000f2
:020000040000fa
:04000800de02000014
:020000040000fa
:04000c00de02000010
:020000040000fa
:04001000de0200000c
:020000040000fa
:04001400de02000008
:020000040000fa
:04001800de02000004
:020000040000fa
:04001c00de02000000
:020000040000fa
:04002000de020000fc
:020000040000fa
:04002400de020000f8
:020000040000fa
:04002800de020000f4
:020000040000fa
:04002c00de020000f0
:020000040000fa
:04003000de020000ec
:020000040000fa
:04003400b80200000e
:020000040000fa
:04003800de020000e4
:020000040000fa
:04003c00de020000e0
:020000040000fa
:04004000de020000dc
:020000040000fa
:04004400d6020000e0
:020000040000fa
:04004800de020000d4
:020000040000fa
:04004c00de020000d0
:020000040000fa
:04005000de020000cc
:020000040000fa
:040054009e120000f8
:020000040000fa
:04005800d6120000bc
:020000040000fa
:04005c00ca0e0000c8
:020000040000fa
:04006000de020000bc
:020000040000fa
:04006400de020000b8
:020000040000fa
:04006800de020000b4
:020000040000fa
:04006c00de020000b0
:020000040000fa
:04007000de020000ac
:020000040000fa
:04007400de020000a8
:020000040000fa
:04007800de020000a4
:020000040000fa
:04007c00de020000a0
:020000040000fa
:04008000de0200009c
:020000040000fa
:04008400de02000098
:020000040000fa
:04008800de02000094
:020000040000fa
:04008c00de02000090
:020000040000fa
:04009000de0200008c
:020000040000fa
:04009400de02000088
:020000040000fa
:04009800de02000084
:020000040000fa
:04009c00de02000080
:020000040000fa
:0400a00086140000c2
:020000040000fa
:0400a400be14000086
:020000040000fa
:0400a800de02000074
:020000040000fa
:0400ac00de02000070
:020000040000fa
:0400b000de0200006c
:020000040000fa
:0400b400de02000068
:020000040000fa
:0400b800de02000064
:020000040000fa
:0400bc00de02000060
:020000040000fa
:0400c000de0200005c
:020000040000fa
:0400c400de02000058
:020000040000fa
:0400c800de02000054
:020000040000fa
:0400cc00de02000050
:020000040000fa
:0400d000de0200004c
:020000040000fa
:0400d400de02000048
:020000040000fa
:0400d800de02000044
:020000040000fa
:0400dc00de02000040
:020000040000fa
:0400e000de0200003c
:020000040000fa
:0400e400de02000038
:020000040000fa
:0400e800de02000034
:020000040000fa
:0400ec00de02000030
:020000040000fa
:0400f000de0200002c
:020000040000fa
:0400f400de02000028
:020000040000fa
:0400f800de02000024
:020000040000fa
:0400fc00de02000020
:020000040000fa
:04010000de0200001b
:020000040000fa
:04010400de02000017
:020000040000fa
:04010800de02000013
:020000040000fa
:04010c00de0200000f
:020000040000fa
:04011000de0200000b
:020000040000fa
:04011400de02000007
:020000040000fa
:04011800de02000003
:020000040000fa
:04011c00de020000ff
:020000040000fa
:04012000de020000fb
:020000040000fa
:04012400de020000f7
:020000040000fa
:04012800de020000f3
:020000040000fa
:04012c00de020000ef
:020000040000fa
:04013000de020000eb
:020000040000fa
:04013400de020000e7
:020000040000fa
:04013800de020000e3
:020000040000fa
:04013c00de020000df
:020000040000fa
:04014000de020000db
:020000040000fa
:04014400de020000d7
:020000040000fa
:04014800de020000d3
:020000040000fa
:04014c00de020000cf
:020000040000fa
:04015000de020000cb
:020000040000fa
:04015400de020000c7
:020000040000fa
:04015800de020000c3
:020000040000fa
:04015c00de020000bf
:020000040000fa
:04016000de020000bb
:020000040000fa
:04016400de020000b7
:020000040000fa
:04020800de02000012
:020000040000fa
:04020c00de0200000e
:020000040000fa
:04021000de0200000a
:020000040000fa
:04021400de02000006
:020000040000fa
:04021800de02000002
:020000040000fa
:04021c00de020000fe
:020000040000fa
:04022000de020000fa
:020000040000fa
:04022400de020000f6
:020000040000fa
:04022800de020000f2
:020000040000fa
:04022c00de020000ee
:020000040000fa
:04023000de020000ea
:020000040000fa
:04023400de020000e6
:020000040000fa
:04023800de020000e2
:020000040000fa
:04023c00de020000de
:020000040000fa
:04024000de020000da
:020000040000fa
:04024400de020000d6
:020000040000fa
:04024800de020000d2
:020000040000fa
:04024c00de020000ce
:020000040000fa
:04025000de020000ca
:020000040000fa
:04025400de020000c6
:020000040000fa
:04025800de020000c2
:020000040000fa
:04025c00de020000be
:020000040000fa
:04026000de020000ba
:020000040000fa
:04026400de020000b6
:020000040000fa
:04026800de020000b2
:020000040000fa
:04026c00de020000ae
:020000040000fa
:04027000de020000aa
:020000040000fa
:04027400de020000a6
:020000040000fa
:04027800de020000a2
:020000040000fa
:04027c00de0200009e
:020000040000fa
:04028000de0200009a
:020000040000fa
:04028400de02000096
:020000040000fa
:04028800de02000092
:020000040000fa
:04028c00de0200008e
:020000040000fa
:04029000de0200008a
:020000040000fa
:04029400de02000086
:020000040000fa
:04029800de02000082
:020000040000fa
:04029c00de0200007e
:020000040000fa
:0402a000de0200007a
:020000040000fa
:0402a400de02000076
:020000040000fa
:0402a800de02000072
:020000040000fa
:0402ac00de0200006e
:020000040000fa
:0402b000de0200006a
:020000040000fa
:0402b400de02000066
:020000040000fa
:0402b800de02000062
:020000040000fa
:0402bc00de0200005e
:020000040000fa
:0402c000de0200005a
:020000040000fa
:0402c400de02000056
:020000040000fa
:0402c800de02000052
:020000040000fa
:0402cc00de0200004e
:020000040000fa
:0402d000de0200004a
:020000040000fa
:0402d400de02000046
:020000040000fa
:0402d800de02000042
:020000040000fa
:0402dc00de0200003e
:020000040000fa
:0402e000de0200003a
:020000040000fa
:0402e400de02000036
:020000040000fa
:0402e800de02000032
:020000040000fa
:0402ec00de0200002e
:020000040000fa
:0402f000de0200002a
:020000040000fa
:0402f400de02000026
:020000040000fa
:0402f800de02000022
:020000040000fa
:0402fc00de0200001e
:020000040000fa
:04030000de02000019
:020000040000fa
:04030400de02000015
:020000040000fa
:04030800de02000011
:020000040000fa
:04030c00de0200000d
:020000040000fa
:04031000de02000009
:020000040000fa
:04031400de02000005
:020000040000fa
:04031800de02000001
:020000040000fa
:04031c00de020000fd
:020000040000fa
:04032000de020000f9
:020000040000fa
:04032400de020000f5
:020000040000fa
:04032800de020000f1
:020000040000fa
:04032c00de020000ed
:020000040000fa
:04033000de020000e9
:020000040000fa
:04033400de020000e5
:020000040000fa
:04033800de020000e1
:020000040000fa
:04033c00de020000dd
:020000040000fa
:04034000de020000d9
:020000040000fa
:04034400de020000d5
:020000040000fa
:04034800de020000d1
:020000040000fa
:04034c00de020000cd
:020000040000fa
:04035000de020000c9
:020000040000fa
:04035400de020000c5
:020000040000fa
:04035800de020000c1
:020000040000fa
:04035c00de020000bd
:020000040000fa
:04036000de020000b9
:020000040000fa
:04036400de020000b5
:020000040000fa
:10040000ef0121000e7f24000e0188000000000093
:10041000000020000000e000020032000001200087
:10042000200288000c00070000722100010020005b
:1004300011000700000020000000e0000200320070
:100440000000020000000000ae17020000000000e3
:100450000040da000000fe004440a9000000200037
:100460000000e0000300320000002000a00188002e
:100470004440a80000000600910188008000780038
:100480000000eb0015003700e280400032a0b4000d
:100490009101ba00e280400032a0b4009102ba009b
:1004a000e280400032a0b4000002eb00472bde00e7
:1004b000f507b200602ce10004003a000059eb009f
:1004c0008301e900fdff3e00040037006128e100e0
:1004d000010032000082eb000b00070011c3ba00dc
:1004e0001101ba000604e00003003a000200e00037
:1004f000e5ff3a0000000600f607b200960188000a
:1005000082007800f5ff37003159ba008301e90015
:100510000c0032002159ba008301e90008003200c2
:100520000400e00003003a00e280400032a0b40082
:10053000f5ff370011d9ba008301e900faff3a004c
:100540008100e800e180400032a0b4000000060015
:1005500062120400000000006c12040000000000a1
:100560007612040000000000801204000000000069
:10057000801f78000000fa00b04280000000e80010
:10058000b0428800c04280000000e800c0428800fd
:10059000004080000000e800004088008460a9005e
:1005a0000080fa004f007800004006000000fa00ca
:1005b00084e0a9000080fa00004006000040da0054
:1005c0000000fe00889fbe0080047800407180001b
:1005d0000000e00004003a000e0007000084eb0079
:1005e0000000e00008003500487180000900e000cc
:1005f0000500320009004400060007000000e0008a
:1006000001003d000084eb00080078004f04be00ac
:1006100000000600800078000100e00003003a00be
:10062000a0e2200040718800000005000080eb007f
:10063000e2012100828f500002003e0041718800db
:100640000000eb000000060003f0a200889fbe003f
:100650008a9fbe008c1f7800f4000700fb00330067
:100660006450e1004f0032006420e100520032008b
:1006700003826c0007003b000905d0000306d00090
:10068000820f54000c065d000200390002003200a7
:1006900089017800030678008582550004003d003a
:1006a0000003fd008103fd008502ea008b85420006
:1006b000840f720002003b0060001000e080180010
:1006c0006011b8000005eb007a28e1000a0039004b
:1006d00006007800c75ddd00f707b200878075006f
:1006e0002d003700828171000a01780061056000e9
:1006f0008180d1000080d3008502e900f9ff3b0032
:10070000060440008784480002003b006004140097
:10071000e0841c000988a300070032008a81710070
:1007200082817100610164008904d1000884d300d2
:100730008b05e800170037000978a30013003a0082
:100740000b00e000130034008b05e90008044400ae
:1007500089844c000a4474000978a3000d003a0013
:100760000b00e000070034008b05e900080444009a
:1007700089844c0001003a000b0020000978a30096
:10078000f7ff32000001eb000200370082817100a8
:100790000a0178006a0007000cf0a70001f0a00031
:1007a000b30037006420e10002003a00838f6c0040
:1007b000b30033000801be000200be00ac003700e9
:1007c000889fbe008a9fbe008c1f7800970007009c
:1007d0009e00330003866c006450e1002e0032005e
:1007e0006420e100330032006150e1002f0032004c
:1007f0006120e1003100320085855500eb07b00033
:100800000900200008042000050037000804440007
:1008100089844c000a0031000603430087834b00a3
:100820000001530081815b00f8ff33000203be002a
:100830000800a0000804440089844c00f6ff390039
:10084000c639dd008301730001003200130020006f
:100850008904d1000884d3000998a3000500320060
:100860000800a7000300a0008904d1000884d30079
:100870008b05e8008904d1000884d3000001eb0057
:100880000281d2002e00070001f0a1000cf0a700a9
:1008900001f0a000760037006420e100780032000b
:1008a0000801be000200be00f7ff37006120e10032
:1008b000730032006000b800f3ff37000000200032
:1008c00001f82700f0ff37000001be0042000700da
:1008d0000470a70003f0a10003f8a30013003a007e
:1008e0006509b10010003200090035006928e100f7
:1008f0000200350001002800000005000000400053
:10090000818048008502e900fcff3a0000000600f3
:10091000f88f4200050035008100d1000080d3002f
:100920008502e800fcff3a00000006008000eb00b2
:10093000000005004f89de00820178008700370043
:1009400081002000618055000b003d000b0020005d
:1009500061fe2f000100e1001d0034008281710062
:10096000610164008904d1000884d3000000e8001c
:10097000faff3a007100200061006400030070007b
:10098000020060000900320061044400e0844c0071
:100990000988a500050032008b05e8006808e10021
:1009a00002003a008904d1000884d300f20f20002d
:1009b0000258e10005003d00c75ddd00f907b20007
:1009c0008980750008007800000006000bf82700f9
:1009d0008b00780000000500c70ade00f107b200b6
:1009e000f50fb20008003200e1cf420002003200f1
:1009f0000170a00024000500810f7000010032008a
:100a00000408050044000500810f700002003a0050
:100a1000140005008502e9000000400081c0480084
:100a2000fcff3b000170a000240005000004be0094
:100a3000e9ff07000003be000405be000200be007f
:100a4000e5ff0700844f7500000006000200be00ad
:100a50006450e100050036006420e1000200360029
:100a60000968a30001003a000800be000160a00070
:100a70004f0678004f05be004f04be000000060080
:100a8000f0ff2f00f1ff2700f9ff3700889fbe001d
:100a90008a9fbe008c1f7800e4ff0700ebff330045
:100aa00003866c006450e100240032006420e10001
:100ab000270032006150e100220032006120e10095
:100ac000210032008b854200eb07b1000134b800f1
:100ad000003ab8000804420089844a00013ab8008c
:100ae0000030b8008880400009014a00040033004b
:100af0000000400081804800020149008b05e900a8
:100b0000c909dd00830170000100320013002000dc
:100b1000c814de004814dd004709de001200b200f0
:100b2000c808de000884700085ff070001f0a100fe
:100b30000cf0a70001f0a000cdff37006120e1001c
:100b4000cfff32000801be000200be00f7ff3700f1
:100b50006150e100fcff3a00c9ff3700881f7800b0
:100b6000030478000300e00007003d00600010006f
:100b7000e080180060011900e081190002003b00cc
:100b800001f02d00030037000400070008f0a70063
:100b900001f0a0004f04780000000600889fbe000e
:100ba0008a9fbe00008270000402710004827100fe
:100bb000260032000004be000200be006011b80032
:100bc0006b092000950220000182cf000a00390045
:100bd0000541b1000082cf00070039000541b10096
:100be0000982cf00040039000541b1000882cf001e
:100bf000010039000541b1000542520012003200e7
:100c00000a003b0082817100610164008100d10013
:100c10000080d3008984d3000884d3008b05e800ca
:100c20000442e800f7ff3a000700370008044400d8
:100c300089844c0000004800818048008b05e90051
:100c40000442e900f9ff3a003dff07004f05be00ee
:100c50004f04be0000000600889fbe008a9fbe00b1
:100c60008c9fbe0081e12000c27080000200e00085
:100c70000b003a0064814000c27088001271880045
:100c8000a100980001718800214190000204a00099
:100c9000a2409800614190000204a000e240980048
:100ca000670440004244de004244dd0004718000dd
:100cb000a1e22000e9012100818454002d002000e0
:100cc000110009008d04d800800678000886e8002d
:100cd0000c0646008001eb000200370013002000e4
:100ce0000b027800a44090000108a300020032002b
:100cf0000a003700120a780014017800a240900020
:100d00000108a300fbff320088004200810f510060
:100d1000020039000800e00042003d009405780020
:100d20000b00a100848f5500edff3e00e18f5100c4
:100d3000eaff3a008d0f540002003600890f54007c
:100d4000140039006141b8006148b900b4ff2f00b8
:100d5000050020000000520081805a00800f5100e1
:100d6000818f590002003500640544000a003700f5
:100d7000a0e220001a0221000005550008054500e8
:100d8000110009000985d8000980b9000005780024
:100d9000010037000c0578000a00780009fe070002
:100da000e10f400005003a00640544000a007800a5
:100db00004fe0700e10f40002b003200117180009b
:100dc0008008780011718000e4814000214190008a
:100dd000830f5000020032000204a000010037001f
:100de0000204a100a2409800640555000a054000d5
:100df0000a0878001a71880081e12000010d78004e
:100e000012718000a24090000104a00021419800ce
:100e1000a04090000104a100214098008001eb0057
:100e2000afff370001718800810f510007003600c5
:100e30001101be0022718800337188009408780087
:100e40000041eb0001718000a24098000371800016
:100e5000030a7800a44090000104a00021429800f9
:100e600064004200010037000000eb004f06be00a6
:100e70004f05be004f04be00000006000000e00069
:100e8000080032006400500001718000810f5000a2
:100e90000100310000718800a04090000104a10011
:100ea0002140980000000600889fbe008a9fbe0077
:100eb0000004be000900e00007003a000000eb005b
:100ec0000800e0003600320008007800ebff070061
:100ed0000000eb00320037000800e00003003a0099
:100ee000090078005cff07002d0037006400540003
:100ef0009005780068f897000008a300020032000f
:100f000008007800ddff07000900780052ff0700a5
:100f1000800478000000eb000900e00020003200af
:100f2000888f54001b00320069bd970009055500e9
:100f300042d5de0088855500c2ddde000a0178005a
:100f40008b0f5500010036000b0178004211dd00c7
:100f5000880078000900780014000700888f54008a
:100f60000e0031004255dd000a854400880f55000f
:100f70000a0036000804550042c4de004244dd0089
:100f8000088444002071800031718000008cbe0014
:100f900002003700080078000100370009007800df
:100fa0004f05be004f04be0000000600800178001f
:100fb00002003700b15978000201e9000200e000a8
:100fc000fcff3a00000006008001780002003700b4
:100fd000815978000201e9000200e000fcff3a00bc
:040fe0000000060007
:020000040000fa
:100fe4000e00fa00000f780021479800324798005d
:100ff400434798003407980045079800560798001f
:10100400670798009e007800c1418800be409000a8
:1010140052832000014978003e019000424188003b
:10102400de009000614188006e01900072418800ea
:10103400ce009000514188002e4090000080fb00bb
:101044000000d1000040780037e8b700c0882000d5
:10105400d0418800ce409000c2832000014978002e
:101064003e28ef000080fa00000006000800fa00a5
:1010740020079800614798000040eb00004f78007b
:101084001f0037002e009000904078001147980010
:101094002e0090000000e8002007980080c0b300f4
:1010a40020479800130037001e4090001e4068003f
:1010b40061406000304798001e80fb000000d100b2
:1010c400004f78003e4090000004e000020032002f
:1010d400c0c8b3001e4f68001e4090000080fb0093
:1010e4000000d100104798002e4090000040e90015
:1010f400204798002e4090000004e000eaff3a00e8
:101104006e4090000080fb000000ea004f00de000b
:1011140000407800ee4090008140e900614798006b
:101124000004e000d7ff3a001e4078000080fa0077
:10113400000006000600fa004047980000518000b5
:1011440080407800d0418000c8ff07002047980005
:101154004141800060c0b3000100010041418000b2
:1011640050c8b30001000100414180004e4090008e
:10117400010001004141800035c8bf0001000100a9
:1011840041418000005180000040780001000100ce
:101194000000eb00000f7800070037004141800099
:1011a400d24180001e007800000041001040780009
:1011b400010001001e0fe800005180009e0f500046
:1011c400f6ff3c00414180002e40900001000100e8
:1011d4008041eb002e419000ce40900020a22000e0
:1011e400e001070011002000c08820008e010700e4
:1011f4000080fa00000006000c00fa00889fbe0080
:1012040033c8bf000004e0003b003a0060418000a6
:1012140000000100e40f50003700340009003700db
:10122400f04180000000e800f04188006041800047
:1012340000000100e40f500002003c000040eb00fd
:101244000f0137005041800000000100e64f5000bc
:10125400f3ff3a00504180000000010051c8b30080
:10126400814f500024003a005041800000000100ea
:1012740046e8b700504180000000010036e8b7009e
:10128400504180000000010033e8b7006184200071
:101294009140780035c8bf0080cf50001100320063
:1012a400104280000000e800104288000000eb00bb
:1012b400000f780003003700504180000000010057
:1012c4001e0fe80033c8bf000080fb000000e800e8
:1012d4009e0f5000f8ff3d003368ef000040eb0024
:1012e400e700370033c8bf000080fb000000e800bf
:1012f40058fe07008041880033c8bf000004e000a6
:10130400de00320032c8bf000004e0001b003a00d7
:101314000000000060418000000001000000e000c7
:10132400fcff34007041800000000100e14f4000e8
:1013340014003a000c0207003368ef003268ef0033
:1013440080418000ccfe0700abff0700cc003700d3
:101354008141800028832000184478000880fb0025
:10136400808440005041800000000100804c7800df
:101374000840e80032e8b70003003700000000002e
:1013840001003700000000006041800000000100ff
:101394000000e00005003200218320009140780025
:1013a40033c8bf0080cf5000e9ff360033c8bf0008
:1013b4008080fb0032c8bf000080fb000000e90011
:1013c400808f5000ad003a003183200091407800b6
:1013d4008041800025ff070034e8b7008141800088
:1013e40032c8bf000080fb000000e900008040001c
:1013f4009040780034c8bf0080cf500064003a00a9
:101404000000eb00100798002400370081418000a1
:101414001e009000008040009040780037c8bf0054
:1014240080cf500017003100814180001e009000e1
:101434000000e800008040001040780048e8b70051
:10144400814180001e0090000080e8000080400080
:101454001040780049e8b700c14180008241800013
:101464001e00900000004100104078000080fb0046
:1014740000004000008040004142800001087800e4
:1014840003003700204280000000e800204288006a
:101494001e009000630040001007980033c8bf008e
:1014a4008080fb001e009000808f5000d7ff3c001e
:1014b4003cc8bf000004e0002f00320000c0eb0075
:1014c4006047980010c0b3007047980081418000c5
:1014d40032c8bf000080fb000000e900008040002b
:1014e40010407800004f98006600470031c0b300f8
:1014f400defe0700404798004141800060c0b30011
:10150400010001004141800050c8b3000100010006
:101514004141800036c8bf00010001004141800004
:1015240035c8bf00010001004141800030c0b30054
:10153400010001004141800000c0eb0001000100f6
:101544004141800010c0b30001000100414180000e
:101554008241800032c8bf000080fb000000e90027
:10156400000041001040780001000100414180006a
:101574004e409000010001003368ef003268ef0034
:10158400804180003cfe070010c0b3003c003700df
:10159400004280000000e800004288003cc8bf0010
:1015a4000004e0002f00320000c0eb00104f980050
:1015b40020c0b300204f98008141800032c8bf0092
:1015c4000080fb000000e90000804000104078002b
:1015d400304f98006900470031c0b300a3fe0700f4
:1015e400504798004141800060c0b30001000100f1
:1015f4004141800050c8b300010001004141800016
:1016040036c8bf00010001004141800035c8bf0059
:10161400010001004141800030c0b300010001001d
:101624004141800000c0eb00010001004141800005
:1016340020c0b300010001004141800082418000cc
:1016440032c8bf000080fb000000e9000000410038
:101654001040780001000100414180005e4090008c
:10166400010001003368ef003268ef008041800020
:1016740001fe07000040eb00010037000040eb00d2
:101684004f04be000080fa00000006000400fa00c7
:10169400004f7800110798001e0190009e407800ca
:1016a400c0882000020007000080fa000000060045
:1016b4000600fa00000f78002147980022079800de
:1016c400ae009000414288001e007800a08891007e
:1016d400c0182000808f500035003c001e007800a8
:1016e400008891009e0078002e419000827078005e
:1016f4001e00780000889100011920005f00070097
:10170400800078001e007800018899001e0078008f
:10171400208891008000e8001e007800218899004c
:101724001e00780000889100828420001241780015
:101734009e007800827078001e0078000088910076
:10174400011920004d000700800078001e00780079
:10175400018899001e007800208891008000e8002c
:101764001e007800218899001e00780000889100ee
:1017740092842000124178009e00780082707800e4
:101784001e00780000889100011920003b0007002a
:10179400800078001e007800018899001e007800ff
:1017a400208891008000e8001e00780021889900bc
:1017b4000080fa00000006000400fa0010079800f8
:1017c4001e009000208891000000e0001100340009
:1017d4001e009000108891009e009000614f7800d8
:1017e4001e009000108891000119200023000700ba
:1017f400800078001e009000118899001e0090005f
:10180400208891008000e9001e0090002188990042
:10181400020037000040eb00004f78001e407800c3
:101824000080fa00000006000400fa00000f7800af
:10183400110798001e0078008000eb0021889900b1
:101844001e0078008000eb00018899001e007800db
:101854008000eb00118899001e0090000000e00059
:10186400040032001e007800021920008000eb0002
:10187400d4fd07000080fa00000006000600fa000c
:1018840010079800210798001e009000000fe80040
:101894002e0090009e007800808f500002003900d6
:1018a4000000eb00000f78001e0078000080fa00b2
:1018b400000006000400fa00204798000000eb0036
:1018c400000f7800110037001e00780000407800f7
:1018d4000041eb008040780020a220007400070043
:1018e400ae409000814f500007003a001e0078007f
:1018f4000040780022c0b3008040780020a220007d
:101904006b000700050037001e0fe8001e0078007a
:10191400e40f5000ecff340040c0b3000080fa0034
:10192400000006000000fa00f04180000080fa0088
:10193400000006000000fa00004280000080fa0067
:10194400000006000000fa00104280000080fa0047
:10195400000006000000fa00204280000080fa0027
:10196400000006000600fa00000f780021479800e6
:1019740032479800434798001e0078000008900002
:101984009e0078002e419000827078001e0078003e
:10199400000890008000e8001e007800010898000c
:1019a4001e007800000890009e0078003e419000e0
:1019b400827078001e007800000890008000e80023
:1019c4001e007800010898001e00780000089000ae
:1019d4009e0078004e419000827078001e007800ce
:1019e400000890008000e8001e00780001089800bc
:1019f4001e00780000089000ee0f50000300340031
:101a04001e0078008000eb00010898000080fa00b6
:101a1400000006000600fa001007980041479800ed
:101a2400524798004e409000e44f500002003600a8
:101a340040c0b300404798004e4090000040e8008a
:101a4400404798004e4090000080fb006300b900be
:101a540000007800000f78001e009000000890003d
:101a64009e0f500009003d001e00900000089000e9
:101a74001e0050006f0f40001e80e8009e00900082
:101a84005e41900082707800070037001e009000cd
:101a9400000890001e0050000080e8009e009000a6
:101aa4005e419000827078000080fa000000060019
:101ab4000600fa0010079800414798005247980022
:101ac4004e409000e44f50000200360040c0b30086
:101ad400404798005e409000e24f500002003600fc
:101ae40020c0b300504798004e4090000040e800ea
:101af400404798004e4090000080fb006300b9000e
:101b040000007800000f78001e009000000890008c
:101b14009e0f50000a003d001e0090000008900037
:101b24001e0050006f0f40005e4090000080fb00dc
:101b34001e0040009e0090006140780008003700bd
:101b44001e009000000890009e0050005e4090002f
:101b54000080fb00008040009e00900061407800ff
:101b64000080fa00000006000800fa00881f7800d0
:101b7400000000006041800000000100e30f5000fd
:101b8400fcff3400504180000000010040479800f1
:101b940050418000000001005047980050418000ef
:101ba40000000100604798005041800000000100df
:101bb400204798006400470031c0b3002bfd0700a4
:101bc40030479800ae4090003e40900080cf5000d7
:101bd40030003a000000eb00000f780029003700c5
:101be4001e007800004078000041eb00804078003f
:101bf40020a22000aeff07006183200091407800fe
:101c0400814f50001e003a006e4490001e00780080
:101c14000040780012c0b3008040780020a2200069
:101c2400a3ff0700804f540015003a005e40900067
:101c3400e14f500007003a001e0078000040780091
:101c440012c0b3008040780020a2200071ff07007a
:101c5400130037005e409000e24f500008003a0045
:101c64001e0078000040780022c0b3008040780055
:101c740020a2200067ff07000000000008003700d2
:101c84001e0fe8001e007800e40f5000d4ff34005b
:101c940003003700004280000000e8000042880092
:101ca4004f0478000080fa00000006000000fa00eb
:101cb400001980002023ef00001980002223ef0088
:101cc400001980002423ef00001980003223ef0064
:101cd40021a3a900001980000080a1000090a100a8
:101ce40000198800001980000050a0000060a000c6
:101cf4000070a000001988002143a8002063a900f7
:101d04001019800000d0a00000e0a00000f0a000a6
:101d1400101988002223a900101980000080a10056
:101d24000090a1001019880025e3a900f0c3b300b6
:101d340024e3b7004119800000fe2f0000806000fa
:101d44004019880028e3a900101980000020a10090
:101d54000030a1000040a1000050a100101988002b
:101d640000fc2f00601988002823ef00f0032000f6
:101d74008019880085a0a90095a0a80021e3a800e7
:101d84002003a9002023a8000080fa000000060018
:101d94003600f800809fbe00829fbe00849fbe0074
:101da400869fbe000000fa0002c8bf000004a20023
:101db4000004e00009003200304180000118800076
:101dc40000014000c0d62000000041000108780056
:101dd400304180000000e80030418800304180003c
:101de400e30f5000050034000028ef0010c0b300da
:101df40002e8b7002628ef0095a0a9003041800032
:101e0400c1842000000040000080400010007800e1
:101e1400004078007f4060000080fb007f0060008d
:101e24004219800001fe2f00810061000100700052
:101e3400401988002023a80085a0a90007000700f6
:101e44000080fa004f03be004f02be004f01be00e7
:101e54004f00be003600f900004006000200fa0000
:101e64000000eb00000f780040012000000f780014
:101e7400650037001e00e9008000400080d7200084
:101e840000804000900078001e00780000014000af
:101e940080d7200000004100010878001e00e900fe
:101ea4008000400080d7200000804000900078002f
:101eb4001e0078000001400080d72000000041008f
:101ec400010878001e00e9008000400080dc20004a
:101ed40000804000900078001e007800000140005f
:101ee40080dc200000004100010878001e00e900a9
:101ef4008000400000df2000008040009000780057
:101f04001e0078000001400000df200000004100b6
:101f1400010878001e0078008000400080d720006f
:101f24000080400010007800cf80de0080fa0700b7
:101f34000002be00a0408000b14080000001be004d
:101f44000400be00c0f90700a0408800b14088002a
:101f54001e0078008000400000da2000008040006d
:101f640010007800cf80de0071fa07000002be0086
:101f7400c0408000d14080000001be000400be00cb
:101f8400b1f90700c0408800d14088001e007800e5
:101f94008000400080dc20000080400010007800b9
:101fa400cf80de0062fa07000002be00e04080003d
:101fb400f14080000001be000400be00a2f9070049
:101fc400e0408800f14088001e0078008000400056
:101fd40000df20000080400010007800cf80de0089
:101fe40053fa07000002be00004180001141800046
:101ff4000001be000400be0093f907000041880000
:10200400114188001e0fe9001e007800e10f500006
:1020140098ff3c00606b8000c06b8800706b800090
:10202400c06b8800806b8000406e8800906b8000dd
:10203400806f8800c06b8000cf80de003cfa070010
:102044000002be00a0408000b14080000001be003c
:102054000400be007cf90700a0408800b14088005d
:10206400006d8000cf80de0031fa07000002be0060
:10207400c0408000d14080000001be000400be00ca
:1020840071f90700c0408800d1408800406e80008c
:10209400cf80de0026fa07000002be00e040800088
:1020a400f14080000001be000400be0066f9070094
:1020b400e0408800f1408800806f8000cf80de001f
:1020c4001bfa07000002be0000418000114180009d
:1020d4000001be000400be005bf907000041880057
:1020e40011418800a0408000b1408000020020001f
:1020f400031a2400b1f90700204088003140880009
:10210400c0408000d140800002002000031a240057
:10211400aaf907004040880051408800e040800050
:10212400f140800002002000031a2400a3f90700f4
:1021340060408800714088000041800011418000a7
:1021440002002000031a24009cf907008040880044
:10215400914088002040800031408000a2702d0012
:1021640033ca230048fa0700204088003140880021
:102174004040800051408000a2702d0033ca2300eb
:1021840041fa0700404088005140880060408000c8
:1021940071408000a2702d0033ca23003afa070070
:1021a4006040880071408800804080009140800039
:1021b400a2702d0033ca230033fa07008040880040
:1021c400914088000080fa00000006000200fa0036
:1021d400000f78001e007800e10f50000a00320062
:1021e400e10f500005003900e20f500009003200f1
:1021f400e30f50000a0032000c003700204080003a
:10220400314080000b003700404080005140800086
:1022140008003700604080007140800005003700ee
:1022240080408000914080000200370000002000c0
:1022340001f82b000080fa00000006000000fa00fc
:102244002002a900001180000010a1000020a100bc
:102254000011880020a2a9009003200040118800ea
:10226400101180000060a0000070a100101188000f
:10227400101180000060a1000070a10010118800fe
:102284008560a9008580a9009560a8009580a800b4
:1022940040a320000600070020b02000040007002f
:1022a40021e2a8002342a8000080fa0000000600f2
:1022b4000200fa00000f7800e20c20008000eb001e
:1022c4001e0078003ffb07000080fa0000000600b3
:1022d4000400fa00000f7800214798001e007800df
:1022e400e0a09000700c2000808f500012003c0091
:1022f4001e00780040a090009e0078002e419000bf
:10230400827078001e00780040a09000810c2000ac
:1023140055000700800078001e00780041a0980056
:102324001e00780060a090008000e8001e00780085
:1023340061a09800130037001e00780040a09000b0
:102344009e0078002e419000827078001e00780074
:1023540040a09000810c200043000700800078001a
:102364001e00780041a098001e00780050a0900044
:10237400810c20003c000700800078001e007800db
:1023840051a098000080fa00000006000400fa0042
:10239400100798001e00900060a090000000e0006c
:1023a400110034001e00900050a090009e00900088
:1023b400614f78001e00900050a09000810c200016
:1023c40029000700800078001e00900051a09800aa
:1023d4001e00900060a090008000e9001e009000a4
:1023e40061a09800020037000040eb00004f780025
:1023f4001e4078000080fa00000006000400fa0085
:10240400000f7800110798001e0078008000eb0090
:1024140061a098001e0078008000eb0041a09800a5
:102424001e0078008000eb0051a098001e00900070
:102434000000e000040032001e007800820c20003e
:102444008000eb00dffa07000080fa0000000600bd
:102454000200fa00000f78001e00780060a09000cf
:102464000080fa00000006000600fa001007980039
:10247400210798001e009000000fe8002e00900035
:102484009e007800808f5000020039000000eb00ad
:10249400000f78001e0078000080fa00000006009b
:1024a4000200fa00000f78001e00780050a090008f
:1024b4009e007800614078000080fa000000060069
:1024c4000000fa0040a32000f5ff07000080fa0096
:1024d400000006000000fa0040a32000dcff070013
:1024e4000080fa00000006000000fa0040a320006b
:1024f400a6ff07000080fa00000006000200fa00b0
:10250400004f78009e40780020b0200070ff070044
:102514005ec8bf000004e000050032005e68ef0002
:1025240020b0200099ff07000080fb0020118800e4
:102534000080fa00000006003600f800809fbe000c
:10254400829fbe00849fbe00869fbe000200fa00e8
:1025540010118000620060000000e0000100320001
:102564002222a90010118000610060000000e00038
:102574000500320030118000004f78009e40780042
:1025840040a3200052ff07008560a9000080fa00e4
:102594004f03be004f02be004f01be004f00be00fd
:1025a4003600f900004006003600f800809fbe00a7
:1025b400829fbe00849fbe00869fbe000000fa007a
:1025c40020b02000a2ff07000000e0000500340056
:1025d40020b020006dff07000080fb002011880060
:1025e4000200370010c0b3005ee8b7008580a90080
:1025f4000080fa004f03be004f02be004f01be0030
:102604004f00be003600f900004006000000fa004a
:102614003002a900801180000010a1000020a10058
:102624008011880030a2a90090032000c011880006
:10263400901180000060a0000070a100901188003b
:10264400901180000060a1000070a100901188002a
:1026540087c0a90087e0a90097c0a80097e0a80058
:1026640031e2a8003342a80000bd200004000700a6
:10267400e0c92000020007000080fa000000060004
:102684000200fa00000f7800e20c20008000eb004a
:102694001e0078004bfa07000080fa0000000600d4
:1026a4000400fa00000f7800214798001e0078000b
:1026b400e0a09000700c2000808f500012003c00bd
:1026c4001e00780040a090009e0078002e419000eb
:1026d400827078001e00780040a09000810c2000d9
:1026e40055000700800078001e00780041a0980083
:1026f4001e00780060a090008000e8001e007800b2
:1027040061a09800130037001e00780040a09000dc
:102714009e0078002e419000827078001e007800a0
:1027240040a09000810c2000430007008000780046
:102734001e00780041a098001e00780050a0900070
:10274400810c20003c000700800078001e00780007
:1027540051a098000080fa00000006000400fa006e
:10276400100798001e00900060a090000000e00098
:10277400110034001e00900050a090009e009000b4
:10278400614f78001e00900050a09000810c200042
:1027940029000700800078001e00900051a09800d6
:1027a4001e00900060a090008000e9001e009000d0
:1027b40061a09800020037000040eb00004f780051
:1027c4001e4078000080fa00000006000400fa00b1
:1027d400000f7800110798001e0078008000eb00bd
:1027e40061a098001e0078008000eb0041a09800d2
:1027f4001e0078008000eb0051a098001e0090009d
:102804000000e000040032001e007800820c20006a
:102814008000eb00ebf907000080fa0000000600de
:102824000200fa00000f78001e00780060a09000fb
:102834000080fa00000006000600fa001007980065
:10284400210798001e009000000fe8002e00900061
:102854009e007800808f5000020039000000eb00d9
:10286400000f78001e0078000080fa0000000600c7
:102874000200fa00000f78001e00780050a09000bb
:102884009e007800614078000080fa000000060095
:102894000000fa0000bd2000f5ff07000080fa00e8
:1028a400000006000000fa0000bd2000dcff070065
:1028b4000080fa00000006000000fa0000bd2000bd
:1028c400a6ff07000080fa00000006000200fa00dc
:1028d400004f78009e407800e0c9200070ff070098
:1028e40060c8bf000004e000050032006068ef002b
:1028f400e0c9200099ff07000080fb00a0118800b8
:102904000080fa00000006003600f800809fbe0038
:10291400829fbe00849fbe00869fbe000200fa0014
:1029240010118000620060000000e000010032002d
:102934002222a90010118000610060000000e00064
:1029440005003200b0118000004f78009e407800ee
:1029540000bd200052ff070087c0a9000080fa00d4
:102964004f03be004f02be004f01be004f00be0029
:102974003600f900004006003600f800809fbe00d3
:10298400829fbe00849fbe00869fbe000000fa00a6
:10299400e0c92000a2ff07000000e00005003400a9
:1029a400e0c920006dff07000080fb00a011880033
:1029b4000200370010c0b30060e8b70087e0a90048
:1029c4000080fa004f03be004f02be004f01be005c
:1029d4004f00be003600f900004006000000fa0077
:1029e40059000700213a800000fe2f00008060009b
:1029f400203a8800203a800000c0a10000d0a10045
:102a040000e0a100203a880060012000303a8800ec
:102a1400203a80000060a1000070a100203a8800e4
:102a24003200200080072000a10920003374200018
:102a3400804978008149780082497800103a800002
:102a4400000178000200a00060042000710520004d
:102a540023742000804978008149780082497800f5
:102a640000000000113a8000000027008080600010
:102a740000002300808f5000faff3a00000000009d
:102a8400113a800000022000008060000000e00095
:102a9400fbff320081e0a8000d00070083fc070063
:102aa40027262100c62621006527210004282100ad
:102ab4008041eb0022c0b30081c2b30040862000f5
:102ac40047f90700ddfd07000080fa00000006005a
:102ad4000000fa0005e1a9000421a90020088000f3
:102ae4000040a1000050a00020088800a02420007d
:102af400100888008460a9009460a80005e1a8007b
:102b04000080fa00000006000000fa001061a9002d
:102b140011e1a9001021a90010c1a90080088000ba
:102b24000040a0000050a000800888000053270047
:102b34006008880084e0a90094e0a80011e1a800de
:102b44000080fa00000006000000fa00c922a90073
:102b5400cb22a800d102a900d502a900d0c2a800a6
:102b6400d4c2a800c002a800c022a800c842a8007d
:102b7400d502a900113a8000f00b2000008160000a
:102b8400600420007105200023742000804978002f
:102b94008149780082497800b1368000f00f2e0018
:102ba400808060000030200001007000b036880092
:102bb4002135800000fe2f00008060006001b3001a
:102bc400203588004136800000fe2f000080600020
:102bd4005000b300403688003135800000fe2f00dd
:102be400008060007000b30030358800113a800026
:102bf4000004200001017000600420007105200021
:102c04002374200080497800814978008249780043
:102c14000080fa00000006000400fa001007980083
:102c24000000eb00000f78000400370000ca280001
:102c340001002000db0007001e0fe8001e009000ca
:102c44009e007800808f5000f8ff35000080fa0065
:102c5400000006000000fa005f00070066f90700a4
:102c64000004e0000a0032005ac8bf000004a200b9
:102c74000004e000060032005828ef0010c0b30042
:102c84005ae8b70010c0b30062e8b7001a00370072
:102c94005ac8bf000004e0000a00320062c8bf0046
:102ca4000004e00007003200c0428000e50f50003d
:102cb400040036005828ef006268ef00d502a8002f
:102cc4000d0037005ac8bf000004e0000a003200bb
:102cd400c0428000e50f50000700360062c8bf0004
:102ce4000004a2000004e000030032005828ef00b2
:102cf400030007005a68ef000080fa000000060095
:102d04000000fa00210020000040eb005ffa0700f9
:102d14000000eb002dfd0700eaf607000000780034
:102d24008000780010c0b30058fa0700100020009b
:102d340026fd0700e3f60700000078008000780015
:102d440020c0b30051fa0700200020001ffd070037
:102d5400dcf60700000078008000780030c0b30083
:102d64004afa0700e0428000800078000000e80092
:102d7400e042880040c0b30044fa0700e04280000b
:102d8400800078000000e800e042880050c0b300f2
:102d94003efa0700e0428000800078000000e8006e
:102da400e042880060c0b30038fa0700e0428000c7
:102db400800078000000e800e042880070c0b300a2
:102dc40032fa070010c0b300daf807005828ef0001
:102dd4000080fa00000006000000fa005ec8bf0090
:102de4000004e00013003200c0428000ea0f5000eb
:102df40010003600a1168000001020000080600042
:102e04000000e0000b0032005ac8bf000004a2001a
:102e14000004e0000700320062c8bf000004a20002
:102e24000004e00003003200d502a90010c0b30082
:0c2e340062e8b7000080fa000000060011
:020000040000fa
:102e400054080000060000000000000064080000b4
:102e5000d00100000000000028080000220000004f
:102e6000000000006c0d0000ac000000000000003d
:102e70000008000028000000000000004a080000d0
:102e80000a00000002000000010000000001000034
:102e90000300040000000000340a00009c01000050
:102ea000000000005e0800000200000002000000b8
:102eb00001000000d00b00009c0100000000000099
:102ec0006008000002000000020000000100000095
:102ed0005a08000004000000000000006208000022
:102ee000020000000200000001000000180e0000b7
:102ef0001000000000000000280e0000020000008a
:082f000000000000f017800042
:020000040000fa
:102f08000000fa00b1428000803e2000808f50000f
:102f18000e003600601680004900de006140600047
:102f28000004a200614060000080fb0061006000b6
:102f38004900dd0062168000f1df2f00810061008a
:102f480001007000601688005628ef000080fa0023
:102f5800000006000000fa009ffe0700cd22a8002e
:102f680003003700000000000100370000000000e7
:102f7800e3ff070036ff070002c8bf000004e000b7
:102f8800f8ff3200004080000000e000f7ff320048
:102f98000268ef0095a0a8000028ef00f4ff3700b2
:020000040000fa
:102fa800f03fb1000180b10006003500ee030900d2
:102fb80000000000403fb1000180b100fbff3d0070
:102fc8001000b000203fb00002003500008009006a
:082fd8000000000000000600eb
:020000040000fa
:042fe00000000000ed
:020000040000fa
:0200000401f009
:04000000ffff0000fe
:020000040000fa
:0200000401f009
:04000400ffff0000fa
:020000040000fa
:0200000401f009
:04000800ffff0000f6
:020000040000fa
:0200000401f009
:04000c008000000070
:020000040000fa
:0200000401f009
:0400100002000000ea
:020000040000fa
:0200000401f009
:040014005f00000089
:020000040000fa
:0200000401f009
:04001800f7000000ed
:020000040000fa
:0200000401f009
:04001c00dfff000002
:00000001FF
