:0400000050EF00F0CD
:100008004582FACF0DF0FBCF0EF0E9CF0FF0EACF23
:1000180010F0E1CF11F0E2CF12F0D9CF13F0DACF20
:1000280014F0F3CF15F0F4CF16F0F6CF17F0F7CFA2
:1000380018F0F8CF19F0F5CF1AF09DBA9EAA03D0A0
:10004800B5EC0BF00BD09DB89EA803D0DAEC0AF003
:1000580005D0F2BAF2A402D0C4EC0BF01AC0F5FF36
:1000680019C0F8FF18C0F7FF17C0F6FF16C0F4FF55
:1000780015C0F3FF14C0DAFF13C0D9FF12C0E2FFA6
:1000880011C0E1FF10C0EAFF0FC0E9FF0EC0FBFF7F
:100098000DC0FAFF4592110096EF09F04350D8A41D
:1000A800ABD001D80AD00500FA6E3050FD6E315041
:1000B800FE6EF850FF6EFA5012001EBE9DD01E5004
:1000C8001DE1050E1D5CD8B019D096D0264A272A06
:1000D80001D80AD00500FA6E3050FD6E3150FE6E20
:1000E800F850FF6EFA5012001EBE06D01E5006E1F0
:1000F800050E1D5CD8B002D0000E120001D80AD03F
:100108000500FA6E3450FD6E3550FE6EF850FF6EE5
:10011800FA501200060AD8A4D9D701D80AD0050087
:10012800FA6E3450FD6E3550FE6EF850FF6EFA5080
:100138001200850AD8A460D001D80AD00500FA6E4A
:100148003450FD6E3550FE6EF850FF6EFA501200B6
:10015800416E01D80AD00500FA6E3450FD6E355054
:10016800FE6EF850FF6EFA501200406E01D80AD0A9
:100178000500FA6E3450FD6E3550FE6EF850FF6E75
:10018800FA501200436E3F504118D8B435D00001E0
:10019800644B652B000E00019B6F000E9A6F0FD009
:1001A80001D80AD00500FA6E3450FD6E3550FE6E47
:1001B800F850FF6EFA50120000019A4B9B2B4350E7
:1001C80000018C6F8D6B010E00018C27000E8D23B2
:1001D80000019A5100018C5D00018D51800A0001D7
:1001E8008E6F00019B51800A00018E59D8B0D8D774
:1001F800000E436E000E12004350D8B4A2D24250F3
:10020800D8A443D001D80AD00500FA6E3050FD6E4C
:100218003150FE6EF850FF6EFA5012001EBEF2D733
:100228001E5003E11D04D8A0EDD701D80AD005005F
:10023800FA6E3250FD6E3350FE6EF850FF6EFA5073
:100248001200FF0AD8A421D061EC04F0000E436E1E
:10025800000E426E000E120001D80AD00500FA6E98
:100268003450FD6E3550FE6EF850FF6EFA50120095
:1002780000018C6F4250010D000EF324D96E020E5E
:10028800F420DA6E8CC0DFFF422A01D80AD00500BC
:10029800FA6E3050FD6E3150FE6EF850FF6EFA5017
:1002A80012001D501E10D8B404D04250435CD8B080
:1002B800D3D7435000018C6F8D6BFF0E00018E6FFA
:1002C800FF0E00018F6F42500001906F916B00018B
:1002D8008E510001902700018F51000191230001E8
:1002E8008C510001901905E100018D51000191190F
:1002F800D8A427D2000E1B6E020E1C6E43C01DF040
:100308007DEC0AF03D6EFF0E00018C6FFF0E0001C0
:100318008D6F425000018E6F8F6B00018C51000170
:100328008E2700018D5100018F23000E00018E25BC
:10033800D96E020E00018F21DA6E3D50DE18D8A466
:1003480039D1000E00019D6F000E9C6F5AD0000E2F
:1003580000019C25D96E020E00019D21DA6E3E50E7
:10036800DE5CD8B041D0010E00019C2500018C6FE5
:10037800000E00019D2100018D6F000E00018C25EB
:10038800D96E020E00018D21DA6EDF502A6E020E40
:1003980000019C2500018C6F000E00019D210001C9
:1003A8008D6F000E00018C25D96E020E00018D2183
:1003B800DA6EDF502B6E000E00019C25D96E020EFE
:1003C80000019D21DA6EDF5000018C6F00018C5115
:1003D800020DF3502C24D96EF4502D20DA6E2AC069
:1003E800DEFF2BC0DDFF03D00001664B672B030E39
:1003F80000019C2500019C6F000E00019D21000159
:100408009D6F435000018C6F8D6B00018C51000172
:100418009C5D00019D51800A00018E6F00018D5185
:10042800800A00018E59D8A092D73A50D8B4BCD0CF
:1004380000019269010E0001936FFF0E00018C6F9D
:10044800FF0E00018D6F425000018E6F8F6B00010F
:100458008C5100018E2700018D5100018F23000E61
:1004680000018E25D96E020E00018F21DA6EDF5051
:100478000001946F920E1B6E000E1C6E030E1D6E13
:100488007DEC0AF00001986F01D80BD00500FA6ED8
:100498003650FD6E3750FE6EF850FF6EFA50060E5D
:1004A800120001D80BD00500FA6E3650FD6E375099
:1004B800FE6EF850FF6EFA50850E120001D80BD070
:1004C8000500FA6E3650FD6E3750FE6EF850FF6E1E
:1004D800FA504050120001D80BD00500FA6E365081
:1004E800FD6E3750FE6EF850FF6EFA503F50120006
:1004F80001D80BD00500FA6E3650FD6E3750FE6EEF
:10050800F850FF6EFA50030E120001D80BD0050008
:10051800FA6E3650FD6E3750FE6EF850FF6EFA5088
:10052800FF0E120001D80BD00500FA6E3650FD6E92
:100538003750FE6EF850FF6EFA50010E120001D8C7
:1005480025D00500FA6E3650FD6E3750FE6EF85015
:10055800FF6EFA50FF0E00018C6FFF0E00018D6FC9
:10056800425000018E6F8F6B00018C5100018E2765
:1005780000018D5100018F23000E00018E25D96ED8
:10058800020E00018F21DA6EDF50120001D80CD064
:100598000500FA6E3650FD6E3750FE6EF850FF6E4D
:1005A800FA50000198511200000E436E000E426E80
:1005B800010E1200284A292A3A50D8B4BCD00001AA
:1005C8009569020E0001966FFF0E00018C6FFF0EF9
:1005D80000018D6F425000018E6F8F6B00018C51AE
:1005E80000018E2700018D5100018F23000E0001AC
:1005F8008E25D96E020E00018F21DA6EDF500001C0
:10060800976F950E1B6E000E1C6E030E1D6E7DEC13
:100618000AF00001996F01D80BD00500FA6E365028
:10062800FD6E3750FE6EF850FF6EFA50060E12003F
:1006380001D80BD00500FA6E3650FD6E3750FE6EAD
:10064800F850FF6EFA50850E120001D80BD0050045
:10065800FA6E3650FD6E3750FE6EF850FF6EFA5047
:100668004050120001D80BD00500FA6E3650FD6ECE
:100678003750FE6EF850FF6EFA503F50120001D806
:100688000BD00500FA6E3650FD6E3750FE6EF850EE
:10069800FF6EFA50030E120001D80BD00500FA6E57
:1006A8003650FD6E3750FE6EF850FF6EFA50FF0E52
:1006B800120001D80BD00500FA6E3650FD6E375087
:1006C800FE6EF850FF6EFA50020E120001D825D0C7
:1006D8000500FA6E3650FD6E3750FE6EF850FF6E0C
:1006E800FA50FF0E00018C6FFF0E00018D6F425013
:1006F80000018E6F8F6B00018C5100018E27000165
:100708008D5100018F23000E00018E25D96E020E37
:1007180000018F21DA6EDF50120001D80CD00500DD
:10072800FA6E3650FD6E3750FE6EF850FF6EFA5076
:10073800000199511200000E436E000E426E000E29
:100748001200000E120024C02AF025C02BF020EE63
:10075800CCF02150D9262250DA22010EDBBE07D078
:10076800010EDB5003E1C50EDE5CD8B0120020EEAE
:10077800C8F02150D9262250DA22DECF83F0DDCF0F
:1007880084F0000183512124D96E00018451222074
:10079800DA6E23C0DFFF20EEC8F02150D9262250A0
:1007A800DA22DECF1BF0DDCF1CF0000E1E6EC80E65
:1007B8001D6E37EC0BF020EEC8F02150D9262250E0
:1007C800DA221BC0DEFF1CC0DDFF20EECCF021507A
:1007D800D9262250DA22DE2A000EDD2220EEC8F0C9
:1007E8002150D9262250DA22DECF83F0DDCF84F0E3
:1007F800000183512124D96E000184512220DA6E30
:100808002AC0DFFF20EEC8F02150D9262250DA2274
:10081800DECF1BF0DDCF1CF0000E1E6EC80E1D6E65
:1008280037EC0BF020EEC8F02150D9262250DA22FE
:100838001BC0DEFF1CC0DDFF20EECCF02150D92606
:100848002250DA22DE2A000EDD2220EEC8F02150E6
:10085800D9262250DA22DECF83F0DDCF84F00001E2
:1008680083512124D96E000184512220DA6E2BC0D5
:10087800DFFF20EEC8F02150D9262250DA22DECF41
:100888001BF0DDCF1CF0000E1E6EC80E1D6E37EC7F
:100898000BF020EEC8F02150D9262250DA221BC0D6
:1008A800DEFF1CC0DDFF20EECCF02150D9262250FF
:1008B800DA22DE2A000EDD22120001D80AD0050055
:1008C800FA6E3050FD6E3150FE6EF850FF6EFA50E1
:1008D80012001EBEF2D71E5004E1040E1D5CD8A003
:1008E800ECD701D80AD00500FA6E3450FD6E3550A9
:1008F800FE6EF850FF6EFA5012000001876F01D8A3
:100908000AD00500FA6E3450FD6E3550FE6EF85070
:10091800FF6EFA5012000001886F01D80AD0050056
:10092800FA6E3450FD6E3550FE6EF850FF6EFA5078
:1009380012000001896F01D80AD00500FA6E345000
:10094800FD6E3550FE6EF850FF6EFA501200000131
:10095800856F870E1B6E000E1C6E030E1D6E7DECE0
:100968000AF00001866F0001865100018519D8A49C
:100978004ED0000E00018B6F000E8A6F00018BBFF6
:1009880008D000018B5146E1050E00018A5DD8B000
:100998001200680E1B6E000E1C6E8AC01DF0000E41
:1009A8001E6ECEEC06F04018D8A42DD0680E1B6E33
:1009B800000E1C6E8AC01DF0010E1E6ECEEC06F0F5
:1009C80000018919D8A41FD000018805D8A40BD02C
:1009D800680E1B6E000E1C6E8AC01DF0010E1E6E86
:1009E80021EC08F01200020E00018819D8A40BD0DF
:1009F800680E1B6E000E1C6E8AC01DF0020E1E6E65
:100A080021EC08F0120000018A4B8B2BB7D7284A3B
:100A1800292A120012000001886F2EC01BF02FC077
:100A28001CF0CCC11DF07DEC0AF00001896F01D8E3
:100A38000BD00500FA6E3650FD6E3750FE6EF8503A
:100A4800FF6EFA50060E120001D80BD00500FA6EA0
:100A58003650FD6E3750FE6EF850FF6EFA50850E18
:100A6800120001D80CD00500FA6E3650FD6E3750D2
:100A7800FE6EF850FF6EFA5000018851120001D83E
:100A88000BD00500FA6E3650FD6E3750FE6EF850EA
:100A9800FF6EFA503F50120001D80CD00500FA6ED4
:100AA8003650FD6E3750FE6EF850FF6EFA50010159
:100AB800CC511200000E00018B6F000E8A6F18D007
:100AC80001D813D00500FA6E3650FD6E3750FE6E11
:100AD800F850FF6EFA5000018A512E24D96E000199
:100AE8008B512F20DA6EDF50120000018A4B8B2BBE
:100AF8000101CC5100018A5D00018B51800A00017F
:100B0800876F0101CD51800A00018759D8A0D8D735
:100B180001D80CD00500FA6E3650FD6E3750FE6EC7
:100B2800F850FF6EFA50000189511200680E1B6ED2
:100B3800000E1C6E88C01DF089C01EF0000E1F6ECE
:100B4800B5EC07F0000E0001836F010E0001846F01
:100B5800000E0001866F010E856F60EC09F012002F
:100B680020EECCF02150D9262250DA22010EDBBE2D
:100B780007D0010EDB503AE1C80EDE5CD8B036D0A3
:100B880020EEC8F02150D9262250DA22DECF24F0F8
:100B9800DDCF25F024502124D96E25502220DA6E8D
:100BA80023C0DFFF20EEC8F02150D9262250DA22D8
:100BB800DECF1BF0DDCF1CF0000E1E6EC80E1D6EC2
:100BC8004CEC0BF020EEC8F02150D9262250DA2246
:100BD8001BC0DEFF1CC0DDFF20EECCF02150D92663
:100BE8002250DA22DE2A000EDD22120020EEC8F0A2
:100BF8002150D9262250DA22DECF24F0DDCF25F08D
:100C080024502124D96E25502220DA6E23C0DFFF1C
:100C180020EEC8F02150D9262250DA22DECF1BF070
:100C2800DDCF1CF0000E1E6EC80E1D6E4CEC0BF0D6
:100C380020EEC8F02150D9262250DA221BC0DEFF50
:100C48001CC0DDFF20EECAF02150D9262250DA223E
:100C5800DECF1BF0DDCF1CF0000E1E6EC80E1D6E21
:100C68004CEC0BF020EECAF02150D9262250DA22A3
:100C78001BC0DEFF1CC0DDFF120020EECCF00750C9
:100C8800D9260850DA22010EDBBE07D0010EDB5050
:100C98003AE1C80EDE5CD8B036D020EEC8F0075076
:100CA800D9260850DA22DECF0AF0DDCF0BF00A5041
:100CB8000724D96E0B500820DA6E09C0DFFF20EE3A
:100CC800C8F00750D9260850DA22DECF01F0DDCF70
:100CD80002F0000E046EC80E036E61EC0BF020EEFD
:100CE800C8F00750D9260850DA2201C0DEFF02C03A
:100CF800DDFF20EECCF00750D9260850DA22DE2A94
:100D0800000EDD22120020EEC8F00750D926085048
:100D1800DA22DECF0AF0DDCF0BF00A500724D96EB5
:100D28000B500820DA6E09C0DFFF20EEC8F007502C
:100D3800D9260850DA22DECF01F0DDCF02F0000E0E
:100D4800046EC80E036E61EC0BF020EEC8F007507D
:100D5800D9260850DA2201C0DEFF02C0DDFF20EEEE
:100D6800CAF00750D9260850DA22DECF01F0DDCFCD
:100D780002F0000E046EC80E036E61EC0BF020EE5C
:100D8800CAF00750D9260850DA2201C0DEFF02C097
:100D9800DDFF1200040E1D6402D0040E1D6E020E4B
:100DA8001E6402D0020E1E6E1D281D6E1D50030DFE
:100DB800F3CF83F0F4CF84F020EE0FF01B50D92648
:100DC8001C50DA2200018351DE5CDE50800A216E5D
:100DD80000018451800A2158D8B030D020EE0FF09D
:100DE8001B50D9261C50DA22DECF1FF0DDCF20F0B1
:100DF8001F1E201E1F4A202A000183511F260001A2
:100E0800845120221F1E201E1F4A202A0F0E1F2435
:100E18000001836F000E20200001846F1E50000126
:100E280083251F6E000E00018421206E1F501B2495
:100E3800D96E20501C20DA6EDF50120020EE0FF021
:100E48001B50D9261C50DA22DECF1FF0DDCF20F050
:100E580083C021F084C022F0211E221E214A222AAA
:100E68001E50236E246A21502326225024221F500C
:100E780023262050242223501B24D96E24501C20C2
:100E8800DA6EDF50120082AA02D0010E01D0000EE5
:100E98003B103B6E82A803D01B6A1B2A01D01B6A39
:100EA800D8901B343B103B6E83A603D01B6A1B2AC9
:100EB80001D01B6AD8901B36D8901B343B103B6E70
:100EC80083A403D01B6A1B2A01D01B6AD8901B3647
:100ED800D8901B36D8901B343B103B6E83A203D0AE
:100EE8001B6A1B2A01D01B6A1B38F00B3B103B6E98
:100EF80083A003D0200E1B6E01D01B6A1B503B1031
:100F08003B6E82A603D0400E1B6E01D01B6A1B509D
:100F18003B103B6E82A403D0800E1B6E01D01B6A6F
:100F28001B503B103B6E82A202D0010E01D0000E76
:100F38003C103C6E80AE03D01B6A1B2A01D01B6A92
:100F4800D8901B343C103C6E82A003D01B6A1B2A2D
:100F580001D01B6AD8901B36D8901B343C103C6ECD
:100F6800120020EE0FF01B50D9261C50DA22DECFDB
:100F780020F0DDCF21F020501B24D96E21501C20F9
:100F8800DA6E1DC0DFFF20EE0FF01B50D9261C5073
:100F9800DA22DE2A000EDD2220EE0FF01B50D926C1
:100FA8001C50DA22DECF20F0DDCF21F020501B24A8
:100FB800D96E21501C20DA6E1EC0DFFF20EE0FF024
:100FC8001B50D9261C50DA22DE2A000EDD2220EE24
:100FD8000FF01B50D9261C50DA22DECF20F0DDCFCF
:100FE80021F020501B24D96E21501C20DA6E1FC01E
:100FF800DFFF20EE0FF01B50D9261C50DA22DE2A24
:10100800000EDD2220EE0FF01B50D9261C50DA22EC
:10101800010EDBBE1200010EDB5004E10F0EDE5C98
:10102800D8A0120020EE0FF01B50D9261C50DA224F
:10103800000EDE6E000EDD6E1200040E1D6402D07E
:10104800040E1D6E1D281D6E1D50030DF3CF23F0D9
:10105800F4CF24F020EE0FF01B50D9261C50DA22D2
:101068002350DE5CDE50800A216E2450800A21580D
:10107800D8B02BD020EE0FF01B50D9261C50DA2206
:10108800DECF1FF0DDCF20F01F1E201E1F4A202AB2
:1010980023501F26245020221F1E201E1F4A202AAC
:1010A8000F0E1F24236E000E2020246E020E232410
:1010B8001F6E000E2420206E1F501B24D96E205056
:1010C8001C20DA6E1EC0DFFF120020EE0FF01B504E
:1010D800D9261C50DA22DECF1FF0DDCF20F023C046
:1010E80021F024C022F0211E221E214A222A1F504C
:1010F800212620502222020E2126000E22222150D3
:101108001B24D96E22501C20DA6E1EC0DFFF12008D
:1011180020EECCF02150D9262250DA22010EDBBE77
:101128003CD0010EDB5003E1DE04D8A036D020EE1F
:10113800CAF02150D9262250DA22DECF23F0DDCFA3
:1011480024F023502124D96E24502220DA6EDF5057
:10115800256E20EECAF02150D9262250DA22DECFA1
:101168001BF0DDCF1CF0000E1E6EC80E1D6E4CEC81
:101178000BF020EECAF02150D9262250DA221BC0EB
:10118800DEFF1CC0DDFF20EECCF02150D926225016
:10119800DA22DE06000EDD5A02D0000E256E25503A
:1011A800120020EECCF00750D9260850DA22010EA2
:1011B800DBBE3CD0010EDB5003E1DE04D8A036D004
:1011C80020EECAF00750D9260850DA22DECF09F0FF
:1011D800DDCF0AF009500724D96E0A500820DA6ECC
:1011E800DF500B6E20EECAF00750D9260850DA22DD
:1011F800DECF01F0DDCF02F0000E046EC80E036EE4
:1012080061EC0BF020EECAF00750D9260850DA221C
:1012180001C0DEFF02C0DDFF20EECCF00750D9266A
:101228000850DA22DE06000EDD5A02D0000E0B6EE0
:101238000B501200000E206E1EAE06D01D6C1E1E36
:10124800D8B01E2A010E206E1CAE06D01B6C1C1EC8
:10125800D8B01C2A010E201A000E226E000E216E34
:101268001D501E10D8B41CD0010E1F6E04D0D8908B
:101278001D361E361F2A1EAEFAD7D89021362236C2
:101288001D501B5C1E501C58D8A005D01D501B5E5D
:101298001E501C5A2180D8901E321D321F2EEDD7A9
:1012A8002050D8B404D0216C221ED8B0222A21C0E4
:1012B8001BF022C01CF01200000120EECCF083517C
:1012C800D9268451DA22000EDE6E000EDD6E000192
:1012D80020EEC8F08351D9268451DA22000EDE6E42
:1012E800000EDD6E000120EECAF08351D92684512C
:1012F800DA22000EDE6E000EDD6E0001855100015F
:101308008611D8B4120083C01BF084C01CF0000EF4
:101318001E6E000E1D6E000E206EC80E1F6E21EC94
:101328000BF0120004EE00F0CE0EEE6AE806FDE1C6
:1013380003EE00F0CE0EEE6AE806FDE102EE00F0E4
:10134800C80EEE6AE806FDE101EE00F0CE0EEE6A88
:10135800E806FDE100EE60F0230EEE6AE806FDE126
:1013680000EE26F01E0EEE6AE806FDE1680EF66E47
:10137800180EF76E000EF86E0900F5CF44F0459090
:101388004592000EF86E00010BEF0BF08C88000EF2
:101398000001866F080E856F000E88EC0BF0010EB9
:1013A800DDEC0BF000018C6F00018C510001856FA2
:1013B800866B010E88EC0BF0000EDDEC0BF00001E3
:1013C8008C6F00018C510001856F866B020E88ECD2
:1013D8000BF0000E1C6E090E1B6EC0EC0AF0010E1D
:1013E8000FEC05F0000E1C6E030E1B6EC0EC0AF02D
:1013F8008C981200A2EC0AF0790E0001836F000E9F
:101408000001846F0A0E0001856F080E0001866FC7
:10141800000E0001876FE60E0001886F150E0001AF
:10142800896F560E00018A6F180E00018B6FD00E5F
:1014380000018C6F170E00018D6F480E00018E6F32
:10144800180E00018F6F2AEC0AF0120083C02CF0EE
:1014580084C02DF086C03FF088C036F089C037F0D0
:101468008CC030F08DC031F08EC032F08FC033F0B8
:101478008AC034F08BC035F085C01BF01C6A000EA2
:101488001E6E020E1D6E1EEC09F01B503E6E000E05
:101498002E6E010E2F6E87C03AF0000E276E000EDA
:1014A800266E1200948A94889586958495829580F4
:1014B800948694849482928E94809288928C929648
:1014C800929695989584000E0F01386F000E0F01C3
:1014D8003A6F000E0F013B6F720ED36E040ED26E80
:1014E800000E9B6EFEEC09F0D1EC0BF097EC0BF0C4
:1014F8001200000E216E1CD01BC0D9FF1CC0DAFFE1
:10150800DF501F6E1B4A1C2A080E206E0ED0215079
:101518001F18010B1E6ED89021321E50D8B402D06D
:101528008C0E211AD8901F3220062050D8A4EFD74D
:101538001D061D28D8A4E0D7215012009D9A9D9819
:10154800480EB86E980EAB6E260EAC6E670EAF6E78
:10155800000EB06E000EAD6E000EAE6E000E236E65
:10156800030E246EA6EC0BF0000E236E040E246E00
:10157800A6EC0BF09D8A1200000E1F6E000E1E6E68
:101588000AD0060E1D6E300EE82EFED71D2EFCD793
:1015980000D01E4A1F2A1B501E5C1F50800A1D6E59
:1015A8001C50800A1D58D8B01200EBD7000E016EEF
:1015B800040E026EFEEC0BF002BE0DD0025003E1E9
:1015C8000104D8A008D0000E076E040E086ED5ECF2
:1015D80008F0AD6E1200010E446E9D9812000001D5
:1015E800836F000E216E040E226E83C023F0B4ECCC
:1015F80005F04404D8A41200000E446E000E216EBB
:10160800040E226E8CEC08F0AD6E9D88120056EC2C
:101618000AF01CEC0CF013EC0CF01EBEFAD71E50AE
:101628001D101C1004E1060E1B5CD8A0F2D78976A9
:1016380047EC07F009EC0CF0ECD71BC021F01CC0FC
:1016480022F008D021C0D9FF22C0DAFF1DC0DFFF79
:10165800214A222A1F06D8A020061F28F3E12028A5
:10166800D8B41200EFD7010E1B241F6E000E1C20E9
:10167800206E1D501F5C1E502058D8A004D0000EAC
:10168800206E000E1F6E1FC01BF020C01CF0120041
:10169800010E1B241F6E000E1C20206E1D501F5CA7
:1016A8001E502058D8A004D0000E206E000E1F6EC9
:1016B8001FC01BF020C01CF01200010E0124056E93
:1016C800000E0220066E0350055C04500658D8A090
:1016D80004D0000E066E000E056E05C001F006C0AF
:1016E80002F0120020EECAF01B50D9261C50DA2254
:1016F800DECF1DF0DDCF1EF01D501B24D96E1E500D
:101708001C20DA6EDF5012000001876F000E216E78
:10171800010E226E87C023F085C024F086C025F014
:10172800A7EC03F01200940ED56ECF0ED76E2C0ED8
:10173800D66ECF0E396E2C0E386EF294F28A32ECD9
:101748000CF0120023C01BF024C01CF0000E1E6E0B
:10175800000E1D6E000E206ECE0E1F6E21EC0BF0DB
:101768001200ABA202D0AB98AB88AECF0CF0000E43
:10177800076E030E086E0CC009F041EC06F012006B
:101788003950D76E38C0D6FF010E00016027000E11
:10179800612362236323F2941200F28CF28ED09EAE
:1017A8009F9A9F98F294F28A9F9C9F96A2969F92E6
:1017B80012001B6E1B04D8A402D03B5012001B5011
:1017C800D8A412003C501200000E1B6E030E1C6EB3
:1017D800F3EC0BF01BC01DF01CC01EF0120020EE35
:1017E800CCF01B50D9261C50DA22DECF1BF0DDCFFF
:1017F8001CF0120020EECCF00150D9260250DA225B
:10180800DECF01F0DDCF02F01200000E0001606FA4
:10181800000E616F000E626F000E636F120060C0F1
:101828001BF061C01CF062C01DF063C01EF0120006
:1018380052EC00F00009D8B41200CAEC09F012000A
:10184800000E1B6E030E1C6E76EC0BF01200000EE1
:10185800216E030E226E8CEC08F01200D58E120059
:01186800017E
:020000040020DA
:08000000FFFFFFFFFFFFFFFF00
:020000040030CA
:0E000000FF081F3CFFBF81FF0FC00FE00F4045
:00000001FF
