:020000040000fa
:080000000002040000000000f2
:020000040000fa
:100008001a0300001a0300001a0300001a03000074
:100018001a0300001a0300001a0300001a03000064
:100028001a0300001a0300001a0300009c61000074
:100038001a0300001a0300001a0300001c620000e3
:100048001a0300001a0300001a0300007458000085
:10005800a45800001a0300001a0300001a03000045
:100068001a0300001a0300001a0300001a03000014
:100078001a0300001a0300001a0300001a03000004
:100088001a0300001a0300001a0300001a030000f4
:100098001a0300001a03000054560000845600009a
:1000a8001a0300001a0300001a0300001a030000d4
:1000b8001a0300001a0300001a0300001a030000c4
:1000c8001a0300001a0300001a0300001a030000b4
:1000d8001a0300001a0300001a0300001a030000a4
:1000e8001a0300001a0300001a0300001a03000094
:1000f8001a0300001a0300001a0300001a03000084
:100108001a0300001a0300001a0300001a03000073
:100118001a0300001a0300001a0300001a03000063
:100128001a0300001a0300001a0300001a03000053
:100138001a0300001a0300001a0300001a03000043
:100148001a0300001a0300001a0300001a03000033
:100158001a0300001a0300001a0300001a03000023
:100168001a0300001a030000325400006254000011
:100178001a0300001a0300001a0300001a03000003
:10018800945a0000c45a00001a0300001a03000021
:100198001a0300001a0300001a0300001a030000e3
:1001a8001a0300001a0300001a0300001a030000d3
:1001b8001a0300001a0300001a0300001a030000c3
:1001c8001a0300001a0300001a0300001a030000b3
:1001d8001a0300001a0300001a0300001a030000a3
:1001e8001a0300001a0300001a0300001a03000093
:1001f8001a0300001a0300001a0300001a03000083
:100208001a0300001a0300001a0300001a03000072
:100218001a0300001a0300001a0300001a03000062
:100228001a0300001a0300001a0300001a03000052
:100238001a0300001a0300001a0300001a03000042
:100248001a0300001a0300001a0300001a03000032
:100258001a0300001a0300001a0300001a03000022
:100268001a0300001a0300001a0300001a03000012
:0c0278001a0300001a0300001a03000023
:020000040000fa
:10040000ef6122000eff28000e01880000000000ae
:10041000000020000000e000020032000001200087
:10042000200288000c000700c0fd2400010020000d
:100430000f000700000020000000e0000200320072
:100440000000020000000000cc6402000000000078
:100450000040da000000fe00007920000000e0000b
:1004600002003200002020009001880000000600f9
:10047000a1028800800078000000eb001a0037001d
:10048000e280400054a0b4009101ba00e280400034
:1004900054a0b4009102ba00e280400054a0b4001d
:1004a0000002eb00472bde00f507b200a601880032
:1004b000602ce10008003a000049eb000201e8006e
:1004c000020039003420ec0002f0a0008301e900b2
:1004d000f9ff3e00040037006128e100010032000e
:1004e0000082eb00040007001101ba000200e000e6
:1004f000e3ff3a000000060004d0a300e20f490029
:100500001c003900810278003549ba000201e80078
:10051000020039003420ec0002f0a0008301e90061
:100520000f0032002549ba000201e800020039003c
:100530003420ec0002f0a0008301e9000800320042
:100540000400e0000600320015c9ba000201e8000c
:10055000020039003420ec0002f0a0008301e90021
:100560008180e80054a0b4000300e000e2ff3a00fc
:10057000000006009102ba00055978008301e900e5
:10058000f7ff3200c82ade00055978008301e90030
:10059000f3ff32000400e000f1ff320011d9ba008d
:1005a000eeff370024580400000000003258040019
:1005b0000000000040580400000000004e580400f5
:1005c0000000000004560400000000001256040061
:1005d0000000000020560400000000002e56040019
:1005e00000000000445a040000000000525a0400b9
:1005f00000000000605a0400000000006e5a040071
:1006000000000000da290400000000000e2a0400a7
:1006100000000000422a040000000000962a0400a6
:1006200000000000e62a0400000000000e2b040079
:10063000000000000040da000000fe0003f0a2000d
:10064000889fbe008a9fbe008c1f78007f00070035
:10065000860033006450e1004f0032006420e10066
:100660005200320003826c0007003b000905d000f5
:100670000306d000820f54000c065d000200390012
:100680000200320089017800030678008582550057
:1006900004003d000003fd008103fd008502ea0027
:1006a0008b854200840f720002003b006000100046
:1006b000e08018006011b8000005eb007a28e10026
:1006c0000a00390006007800c75ddd00f707b200b8
:1006d000878075002d003700828171000a01780043
:1006e000610560008180d1000080d3008502e900af
:1006f000f9ff3b00060440008784480002003b00ed
:1007000060041400e0841c000988a3000700320084
:100710008a81710082817100610164008904d100c5
:100720000884d3008b05e800170037000978a30080
:1007300013003a000b00e000130034008b05e900c1
:100740000804440089844c000a4474000978a3001a
:100750000d003a000b00e000070034008b05e900b3
:100760000804440089844c0001003a000b0020007a
:100770000978a300f7ff32000001eb000200370008
:10078000828171000a0178000a0007000cf0a700be
:1007900001f0a0003e0037006420e10002003a00b2
:1007a000838f6c003e0033000801be000200be00d3
:1007b0003700370081002000618055000b003d00ac
:1007c0000b00200061fe2f000100e1001d0034003d
:1007d00082817100610164008904d1000884d30022
:1007e0000000e800faff3a00710020006100640098
:1007f0000300700002006000090032006104440040
:10080000e0844c000988a500050032008b05e80053
:100810006808e10002003a008904d1000884d3008e
:10082000f20f20000258e10005003d00c75ddd0029
:10083000f907b20089807500080078000000060002
:100840000bf827008b007800000005000004be00b4
:10085000160007000003be000405be000200be0033
:1008600012000700844f7500000006000200be0061
:100870006450e100050036006420e100020036000b
:100880000968a30001003a000800be000160a00052
:100890004f0678004f05be004f04be000000060062
:1008a000f0ff2f00f1ff2700f9ff3700c70ade0035
:1008b000f107b200f50fb20008003200e1cf4200ac
:1008c000020032000170a00024000500810f7000ba
:1008d000010032000408050044000500810f70008b
:1008e00002003a00140005008502e9000000400003
:1008f00081c04800fcff3b000170a00024000500ff
:100900000000fa000002780002003700015a780067
:100910000201e900e00f5100fcff3a000080fa00fc
:10092000000006000000fa00889fbe000004be0020
:10093000050037000000fb00890078002100070057
:10094000e10f40000400320038407800e04f5000d2
:10095000f8ff3a000000eb004f04be000080fa00f0
:1009600000000600c14622000000fa00881f78003f
:10097000ecff0700c146220000047800a000200020
:1009800010000700080078004f0478000080fa008b
:1009900000000600c14622000000fa00090007001e
:1009a0000080fa0000000600c04622000000fa00a5
:1009b00068015700ceb89700f90007000080fa00e0
:1009c000000006000000fa00889fbe0001047800c5
:1009d0008084eb0038029000e20262003b003200ab
:1009e00004037800980290000620b20002003a004a
:1009f000e08f520035003a000490a0008004780097
:100a000034049800f90fb200e08f520002003a005f
:100a1000a8029000050c7800ea8f540005003a0007
:100a20000408b20003003a0088007800d0002000db
:100a3000e4ff070018029000d8029000850f5200d2
:100a40000b0032000402e80015c0b3001404980043
:100a500018027800094a7800040ce800044f2200cc
:100a6000054a7800ea8f540018003a000500370064
:100a70000940780088007800260707008004780085
:100a800012003700380290000410b2000f0032004c
:100a900018019000a800900048009000420f070045
:100aa00018029000840f50000400320038029000b9
:100ab0000403b300340498008084eb000002eb00d0
:100ac0001404980028029000040c780009007800b3
:100ad0004f04be000080fa0000000600d4c6b30038
:100ae0000800fa00889fbe000084fb008a9fbe00b9
:100af000844f50002c003600c92822004b062000ed
:100b0000110009000b84d800720040004300dd0092
:100b100000804400810578006022b80006002000b3
:100b200007fe2300aa0020005001be004000be00c6
:100b3000fb0807000002be000203be00110009000e
:100b40008a85d800049fbe000697be008005780005
:100b5000e9854500c35ddd008b8544003e00be0095
:100b60002e01be003b02be002b03be00ec080700b6
:100b70000002be000203be00110009000a84d80072
:100b8000049fbe000697be00010478004344dd00c8
:100b9000888444003e00be002e01be003902be0023
:100ba0002903be001d003700ea4f50001300360035
:100bb000aa002000c9282200110009000a84d800d8
:100bc00001057800690440004355dd004344dd0021
:100bd000088444008a8444006022b8000600200093
:100be00007fe23003800be002801be00cc08070025
:100bf0003902be002903be0008003700c4282200c5
:100c00004344dd00080442006022b80006002000d2
:100c100007fe23003800be002801be00c008070000
:100c20004f05be004f04be000080fa000000060021
:100c3000d4c6b3000800fa00889fbe008a9fbe0099
:100c4000e04f500022003d000040ea000004fb009d
:100c5000844f50000a00340044062000a900200000
:100c6000110009000404d800ca282200110009005c
:100c70008900d800e9004000c308dd0020003700eb
:100c8000ea4f50000f003400a400200011000900ba
:100c90000404d800c4282200690040004300dd009d
:100ca00000004200430cdd00080242005001be007b
:100cb0004000be005403be004402be009808070076
:100cc000330037004344dd00c42822002d003700e4
:100cd0000004fb00844f50001f0034004406200035
:100ce000a9002000110009000404d800ca1d220038
:100cf000110009008900d800e9004000c308dd00a8
:100d0000810045008b0920008a8545003102be0024
:100d10002103be003b00be002b01be00800807007f
:100d20000002be000203be00110009000904d80041
:100d3000049fbe000697be00010478004344dd0016
:100d4000080545003e00be002e01be003a02be006e
:100d50002a03be00d9ff3700ea4f500007003400d5
:100d6000a4002000110009000404d800c41d2200c2
:100d7000690040004300dd00c9ff37004344dd0047
:100d8000c41d2200080442003800be002801be0035
:100d90004f05be004f04be000080fa0000000600b0
:100da0005a00fa00889fbe00111798008a9fbe0063
:100db000721798008c9fbe00000678006000b80093
:100dc0006011b8002017980031179800421798005a
:100dd000531798008000eb00412798004206370027
:100de0001e11900054c2b3000201e80012179800cf
:100df000844f500006003a00820378008002eb0026
:100e000000c3b30001c2b300b2c2b3001000370088
:100e10003c0290000404b200040032001c0278007e
:100e2000004a7800040ee800050037000000fb00cf
:100e30008c007800e3fe0700e10f40002a06320034
:100e4000ce2190008301e800432798002606370052
:100e500007027800d3c2b30037437800834f5300b2
:100e60000900320005003c00814f530008003200a9
:100e7000824f53000c003a0007003700804f5300a8
:100e800009003a00060037000530a000f0ff3700e7
:100e90000500a000eeff37000510a000ecff3700b2
:100ea0000520a000eaff3700e28362000100320063
:100eb0000500a100e8836200010032000520a100c6
:100ec0008603fb000703b100e98f53000d003e00cd
:100ed0000403780007002000ea3ab900b603fb00db
:100ee0000703b1001600fb00848343000003b10038
:100ef00006027800e90f5000f7ff36000727980038
:100f00000a0037008003eb0007279800a7c2b30050
:100f1000874f530005003a007e1090000402e8005d
:100f2000c00078007017980001279800e6c2b3004f
:100f3000944f13001b003a0005e0a00055279800cd
:100f4000a5c2b300d4cf1200040032000001eb00b0
:100f500084027800820378000b003700fe119000b5
:100f60000402e800c302780073179800451f980038
:100f700004037800c5c6b3005e2090000e00370061
:100f8000ea3ab90084034300050278003503fb0008
:100f90000603b100e90f5300f9ff3600471f980020
:100fa000f3ff370005c0a0000003eb0055279800b1
:100fb000461f9800eeff370086037800374278001e
:100fc00007037800854f52002e003200502798000a
:100fd00017179800c5c6b300854f520014003c0097
:100fe000e8c25200854f52002400320009003c0044
:100ff000ecc25200854f520033003200ebc2420077
:10100000854f5200b3003200e04f5200bb05320062
:10101000d100370065c6b300854f52002000320072
:10102000e3c24200854f5200cb003a001300370064
:1010300035c7b300854f52002a00320007003c003c
:10104000e4c25200854f52001a0032008542e80087
:10105000854f5200c0003a001b00370055c7b3004f
:10106000854f5200c0003200e3c24200854f52005b
:10107000b9003a00044f780017003700044f780099
:10108000bd003700f00360000401200001003200c1
:10109000040028000002720004007800c6ff370038
:1010a000de239000044f780007a0a0005727980087
:1010b000b10037005e249000044f78000860a00063
:1010c00058279800ac0037005e209000044f78004d
:1010d0000050a00050279800de2090000170a00072
:1010e000a40037007e119000044f7800420278007f
:1010f0007217980004047800e00f520001003a00d3
:10110000e8352200080378000002eb0001003700f8
:101110000402e800840243008041eb0095cf1100f7
:10112000fbff3a00840478004e1a9000e00f520052
:1011300003003200890f520001003100840478005e
:101140008006eb008e229000898f5200010036004d
:10115000898652005e23900068036300562798003a
:1011600036003a00481f9800591f98006a1f9800df
:101170007b1f980004c2b300ce24900010003700fb
:10118000bc0290000504b200040032009c0278000a
:10119000844a7800050ee80007003700442f9800c5
:1011a0008c0078000002200006fe07004e2a900006
:1011b000e10f4000010032008904e8008d06e900db
:1011c000e08f5600eeff3a00492798008086eb003a
:1011d0004e1c9000de1c90006e1d9000fe1d9000c5
:1011e000160037003c0290000404b20009003200ef
:1011f000080278001c037800b4427800054b7800a0
:1012000004047800060ee800e0cf520008003a001f
:101210000a003700080278008c0078003400fb00d8
:1012200004047800e7fd0700e10f400003003200ee
:10123000ce2090008100e800412798000902780044
:101240008404e900e00f5200e6ff3a005e219000be
:10125000e00f5100240532005827980069279800b4
:101260007a2798000b2f980004c2b300ce24900078
:1012700010003700bc0290000504b20004003200e8
:101280009c027800844a7800050ee80007003700c9
:10129000442f98008c00780000022000c9fd070050
:1012a0004e2a9000e10f4000010032008904e8005e
:1012b0008d06e900e08f5600eeff3a0049279800be
:1012c0005e249000ee2490007e2590008e2d9000ec
:1012d00005053700fe1090005e2390004102780063
:1012e000f00263007117980004007800cf80de00e0
:1012f0000101780082017800001f9800111f9800fa
:10130000221f9800331f98004800de00480add00c5
:1013100000007200004f7800e08f52000900320098
:10132000e04f500007003200e14f4000050032005e
:101330008e739000104798002747980029002000de
:10134000030037000e70900019002000104798002d
:101350000e04e80074ff3700044f78000e04780094
:101360001900200070ff3700044f7800de20900045
:10137000010cb30051279800047020005e219000fa
:1013800004026100910232000400210004026100a5
:101390000200320063002000431f9800de2290000c
:1013a00070826200090032007e1290004401be008b
:1013b0004400be0074179800001f9800111f980089
:1013c000221f9800331f98000a003700fe12900079
:1013d0004500be0075179800390607000002be00e0
:1013e0000203be00041f9800151f9800261f9800d6
:1013f000371f98006022b8006033b8000e189000c4
:101400009e1890002e199000be1990007e050700ce
:10141000e00f50000c003d000e1890009e18900048
:101420002e199000be19900003f0a200001f980032
:10143000111f9800221f9800331f9800de20900093
:101440003100b300512798000002eb000e18900005
:101450009e1890002e199000be1990002407980045
:101460006022b8006033b800cb050700e00f5000e1
:1014700033003200640247000e1890009e1890005e
:101480002e199000be199000880607002e009000cb
:10149000a40020000000e900e300b90011000900e9
:1014a0000400d80020079800e00f500002003d0023
:1014b0000000e900200798002e0490000840ea0090
:1014c000dbfd07000e1a90009e1a90002e1b900064
:1014d000be1b9000920607000002be000203be0081
:1014e000241798003517980046179800571798004a
:1014f0006022b8000600200007ff23004205070015
:10150000e00f500002003d000804e9000b00370026
:101510006022b80006002000470224002e10900030
:10152000be1090004e119000de1190003b050700a8
:10153000e00f5000020035000804e800280798007a
:10154000ce1a9000f88f52000f003c000540780042
:1015500062fd07000002be000203be000e189000ec
:101560009e1890002e199000be199000a904070043
:101570000002be000203be00041f9800151f980061
:10158000261f9800371f98002e049000e90f540082
:1015900015003c006022b8006033b8000e189000bf
:1015a0009e1890002e199000be1990007a05070031
:1015b000e00f5000320032000e1890009e1890008c
:1015c0002e199000be199000dc050700e00f5000b6
:1015d000e08f5800e00f5900e08f590028003a00d2
:1015e000e10f5400260034000400200005002e0006
:1015f000b6e02200170124002e109000be109000cb
:101600004e119000de119000ff040700e00f500023
:1016100002003d00730454000100370072045400be
:10162000280798004e40900081fd07000002be0090
:101630000203be000e1890009e1890002e19900014
:10164000be19900024179800351798004617980087
:1016500057179800f6040700b80507000205be00fa
:101660000004be006000b8006011b800001f9800c0
:10167000111f9800221f9800331f98001700370091
:101680000e1890009e1890002e199000be19900020
:10169000aa0507000205be000004be00d805070029
:1016a0000002be000203be000e1890009e189000bb
:1016b0002e199000be1990008e0607000002be0091
:1016c0000203be00041f9800151f9800261f9800f3
:1016d000371f98000002eb0024079800e136220033
:1016e00010c0b300080037003102be003103be0055
:1016f0000440e10005c8e10006d0e10007d8e100a0
:10170000030039000040e800f44f5000f6ff3a00b3
:101710008e229000004f78002e0290004e1b900009
:10172000048252000000fb0006025200000052003a
:1017300000279800e00f5300020032000000e9008b
:1017400000279800de2390006382630003003200cc
:101750000e2090000000e90000279800de20900095
:10176000648260005100320062826000e1826000a9
:10177000e00f5200170032003c0290000404b20057
:10178000080032001c037800b4c2b300e08f52009e
:101790000100320004c2e800044b7800060ee800a5
:1017a00008003700b0022000e08f52000100320034
:1017b0000080e8008c00780082fc0700e10f400008
:1017c000300032004e2190000201e80042279800cc
:1017d0002c003700e08f52002a0032003c029000bb
:1017e0000404b200050032009c02780004c2b30079
:1017f000844a7800050ee800050037008c00780068
:10180000000220006ffc0700e10f40001d003200c5
:10181000ce2190008301e80043279800190037008b
:101820003c0090000004b200040032001c0078006c
:101830000d487800000ee8000d003700442f980096
:10184000352f9800162f9800272f98008c007800cd
:10185000000320005bfc07004e2a9000be2a900087
:101860001e2b9000ae2b9000e10f400003003200d1
:101870004e2490000804e800482798008904e900f5
:10188000040037000802be000a03be008e24900048
:101890000dc3b300e08f5400e1ff3c00092798001e
:1018a0000605be000404be00800037005e209000e4
:1018b0006802600023003a00190037003c009000e5
:1018c0000004b200040032001c0078000d487800cb
:1018d000000ee8000d003700442f9800352f9800c7
:1018e000162f9800272f98008c0078000002200007
:1018f00034fc07004e2a9000be2a90001e2b900058
:10190000ae2b9000e10f400003003200ce2090008b
:101910008100e800412798008904e90004003700ad
:101920000802be000a03be008e2490000dc2b30060
:10193000e08f5400e1ff3c00092798000605be0037
:101940000404be005e21900062026100e1026100b9
:10195000e00f5200170032003c0290000404b20075
:10196000080032001c037800b4c2b300e08f5200bc
:101970000100320004c2e800044b7800060ee800c3
:1019800008003700b0022000e08f52000100320052
:101990000080e8008c0078000afc0700e10f40009e
:1019a00042003200ce2190008301e80043279800d6
:1019b0003e003700e08f52003c0032003c029000b5
:1019c0000404b200050032009c02780004c2b30097
:1019d000844a7800050ee800050037008c00780086
:1019e00000022000f7fb0700e10f40002f0032004b
:1019f0004e2290000402e800442798002b00370094
:101a00003c0290008502fb000404b2001100320089
:101a100066362200c32add00850243009c0678005a
:101a20005503be004502be000800be000a01be000c
:101a300067060700a4002000050020006033b800fe
:101a40006c06070007c3b300874e40000d0ee80088
:101a50001300370060362200c32add0085024000f3
:101a60000800be000a01be005503be004502be00cc
:101a700057060700a4002000050020006033b800ce
:101a80005c0607008c00780004032000000242007e
:101a900004007800cbfb0700e10f40000300320098
:101aa000ce2090008100e800412798001e42780077
:101ab0008442e900054f7800e04f5200d0ff3a0021
:101ac000110037003c0290000404b2000400320010
:101ad0001c027800084a7800040ee8000500370070
:101ae0008c00780000032000b6fb0700e10f4000e7
:101af000010032008904e8002e0290000402e9008f
:101b00002407980002003700ce24900008c3b300d9
:101b10002e029000e00f5200eaff3c004927980097
:101b20004e199000f20f51000300340024c1b3009d
:101b3000044f7800020037008e799000034f780040
:101b40004e1b90009e4278000502fb0004025300e9
:101b5000441f9800e0cf5200100032003c02900079
:101b60000404b200050032001c027800e5c2b30094
:101b7000054a7800040ee800050037008c00780064
:101b8000e00220008ffb0700e10f4000030032005d
:101b9000ce2390008703e800472798001e40780076
:101ba00023fc07000002be000203be000e189000d6
:101bb0009e1890002e199000be199000d8040700be
:101bc0005e040700340037003c0290008502fb00f1
:101bd0000404b2001100320060362200c32add0086
:101be000850240009c0678005503be004502be00f9
:101bf0000800be000a01be00f5050700a400200091
:101c0000050020006033b800fa05070004c3b300e4
:101c1000844e40000d0ee8001300370066362200a7
:101c2000c32add00850243000800be000a01be0091
:101c30005503be004502be00e5050700a4002000d4
:101c4000050020006033b800ea0507008c0078002a
:101c500004032000000242000400780059fb070042
:101c6000e10f400003003200ce2390008703e8001c
:101c700047279800603622001e02fb004322dd0049
:101c8000040240000800be000a01be005403be006a
:101c90004402be00d70507001e4278000205be00c0
:101ca0000004be008442e900054f7800e04f520076
:101cb000c5ff3a00190037003c0090000004b20054
:101cc000040032001c0078000d487800000ee80087
:101cd0000d003700442f9800352f9800162f9800dc
:101ce000272f98008c0078000003200035fb0700a8
:101cf0004e2a9000be2a90001e2b9000ae2b900022
:101d0000e10f400003003200ce2090008100e80087
:101d1000412798008904e90004003700ce1c900098
:101d20000dc3b3000203be000002be00e08f5400ea
:101d3000e1ff3a000605be000404be005e219000eb
:101d400068026100680232008e219000e08f51002d
:101d5000650234000802be000a03be000dc2b300d3
:101d6000830478003c0090000004b20004003200bc
:101d70001c0078000d487800000ee8000d003700c8
:101d8000442f9800352f9800162f9800272f980081
:101d90008c007800000220000afb07004e2a900009
:101da000be2a90001e2b9000ae2b9000e10f400049
:101db000030032004e2490000804e80048279800f1
:101dc0008904e900e7ff3a0045023700de2290006f
:101dd000050cb2002e003a005e209000e00f50008b
:101de00005003d00fe1090004105be004104be000c
:101df00071179800170037005e2190007002610093
:101e00000e0032007e1390004602be00140f9800b0
:101e1000250f980076179800160290004fa2de005a
:101e2000340f9800440f98001e0c9000ae0c9000e8
:101e30003e0d9000ce0d9000060037007e10900001
:101e40004004780070179800cfc4de0009057800c0
:101e50008a057800e00f5400e08f5c00e00f5d0021
:101e6000e08f5d0027003d00de2090006022b8007a
:101e70006033b8003100b3000804520089845a006e
:101e80000a055b008b855b00512798001d00370019
:101e90005e219000e00f510005003d00fe11900012
:101ea0004305be004304be007317980015003700b9
:101eb0005e239000f00263000c0032007e1190005f
:101ec0004200be0074079800500798006107980010
:101ed000040f9800721798005e049000ee049000c2
:101ee0007e0590008e0d9000060037007e12900057
:101ef0004404780074179800090020000a002000ac
:101f00000b002000ce1a9000e08f520009003a002a
:101f100016002000461f9800e00f5400e08f5c0080
:101f2000e00f5d00e08f5d00020032008003eb00f7
:101f3000471f98005e20900004042000000cb200af
:101f4000001f9800840f50002c00320003003c005a
:101f5000e00f5000080032003c0037000408200069
:101f60008e189000848f500010003200040c200066
:101f7000848f500035003a00e536220014c0b300cb
:101f80003500be003501be000040e10001c8e1009f
:101f900002d0e10003d8e1002b0039000442e80040
:101fa000f44f5200f6ff3a002700370014c0b30088
:101fb00000012000010020006011b8000040e10095
:101fc00001c8e10002d0e10003d8e1001e003900a1
:101fd000450020000000d0008180d2000281d200a4
:101fe0008381d2008502e900faff3a000442e8004a
:101ff000f04f5200f1ff3a001300370014c0b30055
:1020000080002000010020006011b8000040e100c5
:1020100001c8e10002d0e10003d8e1000a00390064
:10202000360020000000d0008180d2000281d20062
:102030008381d2000603e900faff3a000442e80077
:10204000f54f5200f1ff3a00044f78001e02fb00ea
:10205000ce1b9000870f520002003d00074f780012
:10206000040037004e189000840f500001003d001e
:10207000441f98008e209000e08f50000500320031
:102080005e21900063026100020032008100e900dd
:102090000127980004002400de21900004826100e2
:1020a000090032000e229000ce1a9000850f5200d7
:1020b0000300340005025200042798000200370094
:1020c0000003eb00062798008003eb001e02fb00d4
:1020d000671798000e209000840f50000200340013
:1020e0000402500064179800de20900064826000b3
:1020f00051003200e282600061826000e08f520095
:1021000017003200bc0290000504b2000800320043
:102110001c037800b5c2b300e00f5200010032008a
:1021200085c2e800054b7800060ee800080037007d
:10213000b0022000e00f5200010032000080e800f1
:102140008c0078001ffa0700e10f400016003200f3
:102150004e2190000201e80042279800120037004b
:10216000e00f5200100032003c0290000404b20064
:10217000050032001c02780005c2b300054a780051
:10218000040ee800050037008c00780000022000f3
:102190000cfa0700e10f400003003200ce2190004e
:1021a0008301e800432798006e129000e00f520070
:1021b000750032000802be000a03be00ee14900053
:1021c0000dc3b3003c0090000004b20004003200d4
:1021d0001c0078000d487800000ee8000d00370064
:1021e000442f9800352f9800162f9800272f98001d
:1021f0008c00780000032000f2f907004e2a9000be
:10220000be2a90001e2b9000ae2b9000e10f4000e4
:10221000030032004e2490000804e800482798008c
:102220008904e900e7ff3a00691798000605be0037
:102230000404be00540037006e109000e00f500000
:1022400023003200de2090006882600020003a0007
:102250000802be000a03be000dc2b300800478006d
:102260003c0090000004b200040032001c00780022
:102270000d487800000ee8000d003700442f98004c
:10228000352f9800162f9800272f98008c00780083
:1022900000022000cbf907004e2a9000be2a9000d1
:1022a0001e2b9000ae2b9000e10f40000300320087
:1022b0004e2190000201e800422798008904e900bd
:1022c000e7ff3a00691798000605be000404be0047
:1022d000de219000e282610061826100e08f5200a5
:1022e00017003200bc0290000504b2000800320062
:1022f0001c037800b5c2b300e00f520001003200a9
:1023000085c2e800054b7800060ee800080037009b
:10231000b0022000e00f5200010032000080e8000f
:102320008c007800a7f90700e10f4000160032008a
:102330004e2290000402e800442798001200370063
:10234000e00f5200100032003c0290000404b20082
:10235000050032001c02780005c2b300054a78006f
:10236000040ee800050037008c0078000002200011
:1023700094f90700e10f400003003200ce229000e4
:102380008502e800452798004e1b90006436220025
:102390008602e900de239000c32add00f08363009b
:1023a0005e209000848642000002b2004707980039
:1023b0003007980008279800192798002a279800c6
:1023c0003b2798009c003700ce1a90000e1b90000f
:1023d0008502e90007042000451f9800870f53007d
:1023e0007100320003003c00e00f5300080032008f
:1023f0007e003700040820000e1c9000840f54005b
:1024000053003200040c2000840f540077003a007f
:102410005e209000e00f50001e003d003d04be0015
:102420002d05be000e2090009e2090002e219000d1
:10243000be2190000802be000a03be00e4030700ac
:102440000802be000a03be00004f78000000fb0037
:10245000cf80de0001017800820178004d04070082
:102460000e2290009e2290002e239000be2390000a
:102470000002520081825a0002035b0083835b00ea
:1024800004279800152798002627980037279800da
:102490002c003700ce029000e08f52002100320065
:1024a0000e2290009e2290003d04be002d05be002d
:1024b0000400be000801be00442f9800352f98008c
:1024c0000e0307000801be00004f78000004eb0077
:1024d0000000fb00cf80de00180307004e2a9000aa
:1024e000be2a9000081798000003520081835a000a
:1024f000560f9800670f98008003eb00770f980045
:102500005e089000ee0890007e0990008e11900009
:102510000027980011279800222798003327980059
:10252000080037001d0278000e21900011000900fc
:102530000481d800a4002000110009000480d80004
:10254000014f780003c3b3001ecf410027003700be
:10255000d4342200be029000e08f5200010032000d
:10256000c43322004e1b90000e2090009e2090004d
:102570002e219000be219000c232dd008502e900cc
:10258000050033008301d1000281d3008180d30094
:102590000080d300f9ff37006f00600000004200a8
:1025a000104f780011003700ce1b90000e209000d5
:1025b0009e2090002e219000be219000e33ab900a9
:1025c000040478000804e900050033008301d10009
:1025d0000281d3008180d3000080d300f9ff37004f
:1025e0006742600000c3b300004f42003c0290000d
:1025f0000404b200070032009c0278001e427800fa
:10260000844a7800050ee800e04f520006003a00c8
:10261000080037001e00fb008c007800e9f8070076
:10262000e10f400003003200ce2090008100e8005e
:1026300041279800e88656004e199000e00f51009f
:1026400061ff3a00de2190000e2490009e2490004d
:102650002e259000be259000688261002200320085
:102660006e129000e00f52001f0034000802be00fe
:102670000a03be00ee1490000dc2b3003c009000af
:102680000004b200040032001c0078000d487800fd
:10269000000ee8000d003700442f9800352f9800f9
:1026a000162f9800272f98008c0078000002200039
:1026b000c4f807004e2a9000be2a90001e2b9000fe
:1026c000ae2b9000e10f4000030032004e2490003a
:1026d0000804e800482798008904e900e7ff3a0069
:1026e0000605be000404be009e1090001140780054
:1026f000004f7800e04f5000b9f93a004f06be0095
:102700004e2090004f05be004f04be000080fa002e
:10271000000006000200fa00889fbe000104780055
:10272000004f780038029000840278000504b2005f
:10273000020032000000fb0033003700e2026200ba
:1027400005003a000403b30015049800340498000f
:102750000080eb002c003700d8049000e08f54007c
:1027600006003a00120020008e0078004800900019
:102770000d0807001904980022003700a8029000f5
:10278000e08f520008003a00354f22000430a000cc
:1027900025049800050c78003404980025002000da
:1027a000550498001504980018019000a8009000a6
:1027b00048009000fc070700280290008082eb0090
:1027c000150498001e4a7800040ce800a4c0b30069
:1027d0009e4f12000b003a00380290000410b20025
:1027e0000800320018019000a800900048009000f6
:1027f000ed0707000002eb00140498002802900087
:10280000040c78001e00fb004f04be000080fa009c
:10281000000006002800fa00889fbe008a9fbe00c4
:102820008c9fbe0007067800878669000c003b007d
:10283000030478008704780008f0a10009f0a100e3
:10284000840f5000858f5800860f5900890f5c0057
:10285000030033000cf0a20001003a000cf0a100cc
:10286000fe0007006400e1005f00320078014700cd
:102870006408e100610032006c0147007485570074
:102880003200be001201be003a04be001a05be00ae
:102890001e039000be0a90008503530006003d0011
:1028a0000004fd008104fd000205fd008305fd001c
:1028b0008703ea00050378000df8a3000400320046
:1028c00060041400e0841c0060051d00e0851d000c
:1028d0006022b8007d0320000d38e1008006eb0087
:1028e0000b0039004433dd00f300b20083017300b4
:1028f00039003700848272000d027800e10664001e
:102900008b85d1000a85d3008984d3000884d30045
:102910008703e900f7ff3b0008004000898048007a
:102920000a0149008b81490004003b00600010004f
:10293000e080180060011900e08119000358a3002d
:10294000090032008d827200848272006102600090
:102950008301d1000281d3008180d3000080d300a5
:102960000603e8001b0037000348a30017003a00e5
:102970000600e000170034000603e9000d00a30084
:10298000000048008180480002014900838149001d
:102990000348a3000f003a000600e00009003400dd
:1029a0000603e90000004000818048000201490060
:1029b0008381490001003a000003eb000348a300b3
:1029c000f5ff32006022b8000200370084827200f6
:1029d000618266007500070003f0a1000cf0a700fb
:1029e00003f0a000b1003700640147006408e10073
:1029f00002003a000df8a300a9003a003200be0020
:102a00001201be00a90037008f1fd1000c03070080
:102a10008f87e9000000e00000000600809feb00c7
:102a2000070307008f87e9000000e00000000600b0
:102a30002800fa00889fbe008a9fbe008c9fbe00bf
:102a400003866b00850007006400e100440032004b
:102a50006408e1004a0032006100e10046003200f3
:102a60006108e10049003200ec0647006000b80050
:102a70003d02be003d03be00f48657006011b80061
:102a80003d04be003d05be007d0320000b00370065
:102a90000000a0008d06e90013003200040242008d
:102aa00085824a0006034b0087834b0000004000ec
:102ab00081804800020149008381490008025200d8
:102ac00089825a000a035b008b835b00f0ff3b00a6
:102ad0000802420089824a000a034b008b834b00a4
:102ae0008d06e900edff3a00848272008682720052
:102af000f707b20087827200010032001500200043
:102b00001e0490003e0b900006035400e63fb00008
:102b10000368a300070032000000a7000500a00022
:102b20008301d1000281d3008180d3000080d300d3
:102b30000603e8008301d1000281d3008180d30025
:102b40000080d3000002eb000482d20017000700cf
:102b500003f0a1000cf0a70003f0a0005300370021
:102b6000640247006408e1004d0032003400be00fa
:102b70003401be00f6ff37006108e1004800320072
:102b80006011b8006000b800f1ff370003ff2700b4
:102b900002002000fbff3700801feb00a8020700a7
:102ba0008f87e9000000e000000006001800200008
:102bb00057002000080453000d003d0006002000cf
:102bc00097fc2f000740e1001e0034008482720051
:102bd000610260008301d1000281d3008180d300b3
:102be0000080d3000804e800f8ff3a004700200006
:102bf0006104600005047400040464000d003200e8
:102c000061004000e080480060014900e081490027
:102c100003b8a500070032000603e8006538e100ac
:102c200004003a008301d1000281d3008180d300e7
:102c30000080d300f87f20000830e1000300350059
:102c4000080378006000b8006011b8004433dd006c
:102c5000f300b2008301730000000600680447001f
:102c60000294be000094be00fc0447008694be009f
:102c70008494be0009007800ba02070008007800ba
:102c8000b802070099007800814f70000b003b00ec
:102c90000800be00930207004f00b1000300370098
:102ca000f3ff2700f2ff2f006110b9004f06be00ae
:102cb0004f05be004f04be000080fa000000060071
:102cc00081037800f9f607000001be006000b8003b
:102cd0000478a30013003a006220e10015003e00d2
:102ce0000d0039008301d1000281d3008180d3001f
:102cf0008301d1000281d3008180d3008301d10000
:102d00000281d3008180d3000538b000c42add00e1
:102d1000f300b2008381720007f0a70003f0a00067
:102d200000000600f3ff2700f2ff2f006110b9003a
:102d3000fbff370003ff2700f7ff37001400fa00fe
:102d4000889fbe008a9fbe008c9fbe000004be000c
:102d50000205be00680047000a90be000890be0051
:102d6000800207000070a7000bf0a1000bf8a30081
:102d700020003a009e0990000e099000fe0090008d
:102d80006e0090009e029000344320008482520026
:102d9000c6ff32000a003c00b4fc2f000428e1000a
:102da000140034008301d1000281d3008180d3005c
:102db0000080d3008502e800faff3a00bbff37002d
:102dc000b40020000428e10007003c00000040009f
:102dd0008180480002014900838149008502e900a1
:102de000faff3a00b1ff370003002800020020007c
:102df000010037006011b8006000b800abff370079
:102e0000889fbe000082700004027100048271007d
:102e10002400320036432000c50020008383cf0009
:102e20000a0039000541b1008283cf000700390054
:102e30000541b1008183cf00040039000541b10094
:102e40008083cf00010039000541b10085c35300e4
:102e50006022b800120032000a003b008482720037
:102e6000610260008301d1000281d3008180d30020
:102e70000080d3000603e8008743e800f7ff3a002c
:102e8000070037000000400081804800020149002f
:102e9000838149000603e9008743e900f9ff3a000e
:102ea00042ff07004f04be00000006001400fa00b5
:102eb000889fbe008a9fbe008c9fbe0004067800db
:102ec0000004be000205be00680047000a90be0074
:102ed0000890be00230207006200e1000800be0067
:102ee0000a01be00040020000b003a001e02900000
:102ef000e43fb1006e009000fe0090000e099000cb
:102f00009e099000f300b20005fe23008581710048
:102f10000bf0a70003f0a000040e780063ff370059
:102f20002800fa00889fbe008a9fbe008c9fbe00ca
:102f300003866b0049ff07000028a30064003a00e5
:102f40000128a30067003a000008a30062003a00cd
:102f50000108a30065003a001e009000be08900022
:102f600081064000ed3fb100f4805700ee01900073
:102f7000111ab8008e099000311bb8009e0990000c
:102f8000311cb800511db800f485570046000700f9
:102f9000fe0190003a0007008b85e8003e00070024
:102fa0008e09900040000700ee01900034000700f9
:102fb0008b85e800380007008e099000400007006c
:102fc0009e0990001b18b800890440000a8548003b
:102fd000fe019000340007008b85e80038000700f0
:102fe000ee019000300007008e0990001b18b80019
:102ff000890440000a8548000a98a30008003a00a6
:103000000402420085824a0006034b0087834b007e
:1030100008044c0089844c000a054d008d06e90027
:1030200084827200850273004c3add0085027200d2
:103030000100320015002000443ade001400b20006
:103040004538de00cb45dd000b007000c540de00da
:10305000cb4ddd008b8070004549de00cb55dd0097
:103060000b017100c551de000d037800cffe070093
:1030700003f0a1000cf0a70003f0a0000bff370045
:103080001b18b8008502400006834800e0834b000f
:1030900060044c00070037001b18b800060340000e
:1030a00087834800faff37001b18b80087034000e9
:1030b00008844800e0844c0060054d0000000600d4
:1030c0001b18b8000804400089844800faff370044
:1030d0000108a300f2fe3a005800be005801be00ed
:1030e000e3ff37000008a300edfe3a000904780072
:1030f000f9ff370007f0a200c6fd37006022b800d4
:10310000060220000000d0008180d2000482d2009c
:103110008582d2000000a0000202520083825a0081
:10312000030031000202420083824a000000a10035
:103130000603e900f3ff3a0000000600020ab900a6
:10314000001bb9000200b80081004200810043006a
:10315000000006000000fa00889fbe008a9fbe00a3
:103160003004be002005be000404440085844c00e9
:1031700006054d0087854d000898be000a90be00e8
:103180000440e10005c8e10006d0e10007d8e100f5
:1031900002003100680040001008e8004f05be0042
:1031a0004f04be000080fa00000006001000fa0084
:1031b000889fbe008a9fbe000605be000404be00b4
:1031c0003002be002003be00049fbe000697be0072
:1031d000110020000802520089825a000a035b0095
:1031e0008b835b004407980055079800660798009a
:1031f000770798000498be000698be003e02be0005
:103200002e03be000820e10009a8e1000ab0e10099
:103210000bb8e100010039008000eb004f05be0053
:10322000108810004f04be000080fa000000060065
:103230001400fa00889fbe005b0007008a9fbe0052
:103240008c9fbe000006eb004c0798003c079800de
:103250002c0798001c0798000c0f78000605be008c
:103260000404be000d0420004e039000be02900036
:10327000860343002e029000e00f530003003d0040
:103280002a000700b3ff07000200370027000700ed
:10329000c6ff0700ce029000150f9800e08f520085
:1032a000090035004500070014002000050020003b
:1032b0006033b80000007200818072000201730068
:1032c00083817300380007000c06e8008d0f56005c
:1032d000e5ff3a001e0a9000e00f520004003d0096
:1032e0000802be000a03be000e00780099ff070026
:1032f0004eba9700e00f520006003a003e04be00ae
:103300002e05be0058079800690798007a079800b4
:103310000b0f98004f06be00280007004f05be00a7
:103320004f04be000080fa00000006004f2bde00b4
:103330002200070086837300858242004f23de004f
:103340004707980086827200040242003507980001
:103350009e0290004f2bde00858242000602720022
:10336000240798001e0278004f23de00040242006a
:1033700086827200150798004f18de00000f720059
:103380000e0007000802be000a03be000000400055
:103390008180480002014900838149000200070042
:1033a0000e007800000006005007980061079800a2
:1033b00072079800030f9800000006005e0090005e
:1033c000ee0090007e0190008e0990000000060043
:1033d0000000fa00881f780018002000881f78007d
:1033e00093ff07008f87e9004f0478000080fa0000
:1033f000000006000000fa00801feb008cff0700b1
:103400008f87e9000080fa00000006000000fa0043
:10341000889fbe008a9fbe00e00f5000e08f5800da
:10342000e00f5900e08f59000c003d006044b800e7
:103430006055b8000000540081805c0002015d000e
:1034400083815d00180020001600070008003d0081
:10345000190007000004eb00050037000004eb0032
:103460001000070002003d001300070018002000b4
:10347000d7ff0700e00f5400060032006022b800ba
:103480006033b8000000520081805a0002015b00e6
:1034900083815b004f05be004f04be000080fa0030
:1034a00000000600e00f5200e08f5a00e00f5b00c2
:1034b000e08f5b00000006006044b8006055b80073
:1034c0000402540085825c0006035d0087835d0072
:1034d000000006000000fa00889fbe008a9fbe0020
:1034e0008c1f7800e00f5000e08f5800e00f59006b
:1034f000e08f59000d003d006044b8006055b800f1
:103500001c0020000000540081805c0002015d006e
:1035100083815d000820e10009a8e1000ab0e10014
:103520000bb8e1000d003d00080037000006eb007d
:10353000e00f5200e08f5a00e00f5b00e08f5b006d
:1035400006003d006044b8006055b8000402540015
:1035500085825c0006035d0087835d00a5ff070090
:10356000e00f5600060032006022b8006033b80059
:103570000000520081805a0002015b0083815b00e1
:103580004f0678004f05be004f04be000080fa00d1
:10359000000006000000fa00889fbe008a9fbe005f
:1035a0008c1f78000006eb00e00f5000e08f580001
:1035b000e00f5900e08f590007003d006044b8005b
:1035c0006055b8001c0020000000540081805c00a1
:1035d00002015d0083815d00e00f5200e08f5a0020
:1035e000e00f5b00e08f5b0007003d006044b80027
:1035f0006055b8000c00a2000402540085825c00f3
:1036000006035d0087835d007d000700e00f560024
:10361000060032006022b8006033b800000052009b
:1036200081805a0002015b0083815b004f067800b5
:103630004f05be004f04be000080fa0000000600e7
:10364000889fbe008a9fbe008c9fbe000404be00ff
:103650000605be00809fbe00829fbe002f000700af
:10366000040678000800be000a01be002b00070017
:10367000840678004f03be004f02be008d4f7600d7
:103680007fb0970013003300f0ff2f008b8f6b008b
:1036900006003b000d0666000c00a7000a0037007c
:1036a00007f0a600100020000a003700880f520023
:1036b000898f5a008a0f5b008b8f5b0003003900f3
:1036c0001000200001003e000000200007f0a700cd
:1036d0000000ea004f06be004f05be004f04be00ca
:1036e00000000600e48240001078a30007003200ca
:1036f000640240001178a3003400be001401be0033
:10370000040032000330a700000006003500be00b0
:103710001501be000330a0000000060005ff2700d1
:1037200005826100070032000428e1000100320038
:10373000240005000600070001003a0044000500cf
:103740000408050002000700f9ff3a001400050014
:103750006f82610081027000850271008502720033
:1037600000000600800078005002be005003be003a
:103770004439de00f700b200f37f2000030161004e
:10378000090032000218e10016003a0085017200bb
:1037900083017300838173000008200015003a0044
:1037a0004000200013003700850172008301730080
:1037b0008381730005003a0004a8be0006a8be007d
:1037c000100020000b0037000201e9000402420053
:1037d00085824a0006034b0087834b000748a300fd
:1037e000f9ff32000740a00004a8be0006a8be00f2
:1037f0002000200080009800920098000000060041
:10380000889fbe008a9fbe008c9fbe000404b80043
:103810000506b8008904460060854e000606b8001b
:103820000a054600e0854e000706b8008b054600f5
:10383000040eb800890446000a854e00e0854d005c
:10384000050eb8000a0546008b854e00060eb8002e
:103850008b0546000416b8000a0546008b854e000d
:103860000516b8008b054600041eb8008b054600ff
:103870000800be000a01be004f06be004f05be0094
:083880004f04be000000060029
:020000040000fa
:103888000a2d00002d2d00002d2d00005468000089
:10389800726f0000747400006c6500002042000024
:1038a800726100006b650000205200006177000023
:1038b8002044000065620000756700002d2d00009f
:1038c8002d2d000000540000687200006f74000085
:1038d800746c0000653100003a20000020200000d0
:1038e8002020000020250000640a00000054000089
:1038f800687200006f740000746c0000653200008c
:103908003a20000020200000202000002025000090
:10391800640a000000420000726100006b6500004c
:103928003a20000020200000202000002020000075
:103938002020000020250000640a00000a00000082
:103948000a2d00002d2d00002d2d000054680000c8
:10395800726f0000747400006c6500002042000063
:10396800726100006b650000205300006967000069
:103978006e6100006c200000446500006275000064
:10398800672d00002d2d00002d0000004272000060
:10399800616b0000653a0000202000002020000034
:1039a80020200000202000002020000025640000c6
:1039b8000a0000000a200000426100007474000040
:1039c8006572000079200000696e0000666f0000d3
:1039d8003a0000000a2000004261000074740000f0
:1039e8006572000079200000436500006c6c0000df
:1039f8002068000069670000682000002564000056
:103a080020560000203d000020250000663a0000f6
:103a18000a0000000a2000004261000074740000df
:103a28006572000079200000436500006c6c00009e
:103a3800206c00006f770000202500006420000043
:103a4800562000003d200000256600003a0a0000cc
:103a5800000a000020420000617400007465000044
:103a680072790000205300005444000020440000f4
:103a780049560000203d000020250000663a00005d
:103a88000a0000000a20000043750000727200005e
:103a9800656e0000742000004120000025330000fe
:103aa8002e30000032660000204200002025000071
:103ab800332e000030320000662000004320000052
:103ac800253300002e30000032660000200a000076
:103ad800000a000020540000656d000070200000fe
:103ae8004d410000582000002566000020200000fd
:103af800462000004d4900004e20000025660000c9
:103b08002046000020410000564700002025000004
:103b180066200000460000000a2d00002d2d000040
:103b28002d5300006c610000766500002023000022
:103b38002564000020420000617400002054000049
:103b4800656d000070200000496e0000666f00007f
:103b58002d2d00002d2d0000200a0000004200003d
:103b6800313a000020250000644600002042000091
:103b7800323a0000202000002564000046200000a2
:103b8800423300003a20000020250000644600006f
:103b980020420000343a0000202000002564000084
:103ba800460a000000420000353a000020250000c7
:103bb8006446000020420000363a00002020000041
:103bc8002564000046200000423700003a2000002b
:103bd800202500006446000020420000383a00001a
:103be8002020000025640000460a00000042000072
:103bf800393a0000202500006446000020420000f9
:103c0800313000003a200000256400004620000002
:103c1800202000002020000020200000202000009c
:103c2800202000002020000020200000202000008c
:103c3800200a0000000a00002d2d00002d2d000094
:103c4800424d00004d200000506f000077650000d5
:103c58007220000053690000676e0000616c00006c
:103c68002044000065620000756700002d2d0000eb
:103c78002d2d0000004300007572000072650000e1
:103c88006e74000020500000616300006b2000008b
:103c9800313a000020200000256400000a000000de
:103ca8004375000072720000656e00007420000009
:103cb80050610000636b0000203200003a200000d1
:103cc80020250000640a000000430000757200000f
:103cd800726500006e7400002050000061630000ef
:103ce8006b200000333a000020200000256400000b
:103cf8000a0000000a2d00002d2d00002d460000ae
:103d0800617500006c7400002052000065700000ae
:103d18006f720000746900006e6700002f52000087
:103d2800656300006f76000065720000792000006e
:103d38004d6f0000646500002d2d00002d2d000042
:103d4800000a00002d2d00002d2d00004d4300001d
:103d580053200000464100004c550000542d00003f
:103d68002d2d00002d0000004c6f00007720000072
:103d7800566f00006c740000616700006520000049
:103d880046610000756c0000742000006f6e000032
:103d9800204200004d4d0000004600006175000003
:103da8006c740000696e000067200000426100002a
:103db80074740000657200007920000069730000c7
:103dc8003a200000256400000a000000486900004d
:103dd8006768000020540000656d000070650000f1
:103de80072610000747500007265000020460000d2
:103df800617500006c740000206f00006e200000e8
:103e0800424d00004d000000436f00006d6d000042
:103e1800756e00006963000061740000696f00003e
:103e28006e73000020460000617500006c7400008d
:103e3800206f00006e200000424d00004d00000081
:103e480046610000756c0000746900006e67000030
:103e5800204d00006f640000756c000065200000b4
:103e6800697300003a200000256400000a00000081
:103e78000a2d00002d2d00002d5300004153000095
:103e880020460000414c0000555400002d2d000034
:103e98002d2d0000000a00002d2d00002d2d000002
:103ea80054480000524f0000545400004c45000094
:103eb8005f530000414e000049540000595f000064
:103ec80043480000454300004b2d00002d2d000005
:103ed8002d0000000a2d00002d2d00002d5400009b
:103ee800485200004f540000544c0000455f000049
:103ef80042520000414b0000455f0000434800006b
:103f0800454300004b2d00002d2d00002d00000022
:103f18000a2d00002d2d00002d4400004453000000
:103f280020460000414c0000555400002d2d000093
:103f38002d2d0000000a00002d2d00002d2d000061
:103f48005044000055200000464100004c55000038
:103f5800542d00002d2d00002d000000537400008a
:103f680061740000652000004f6e000020450000cd
:103f78004355000020530000746100007465000080
:103f8800204d000061630000686900006e65000054
:103f980000540000686500002043000075720000ae
:103fa800726500006e740000205300007461000008
:103fb800746500002049000073200000256400009b
:103fc8000a00000046610000756c000074200000c3
:103fd800566100006c750000652000004f6e0000ff
:103fe800205300007461000074650000204d00003b
:103ff80061630000686900006e65000000540000fd
:1040080068650000204300007572000072650000ba
:104018006e74000020460000617500006c7400009a
:10402800204f00006e20000054680000652000004a
:104038005374000061740000652000004d610000a9
:1040480063680000696e0000652000004973000085
:1040580020250000640a0000005400006865000084
:10406800207200006573000065740000207600006f
:10407800616c000075650000206900007320000075
:10408800256400000a000000436f00006d6d000009
:10409800733a0000004e00006f200000424d0000ff
:1040a8004d200000636f00006d6d0000730000007c
:1040b8004e6f0000204400004453000020630000bd
:1040c8006f6d00006d730000004e00006f2000004f
:1040d8005341000053200000636f00006d6d000025
:1040e800730000004e6f0000204d00004353000095
:1040f800206300006f6d00006d7300000042000037
:1041080075740000746f00006e20000025640000c4
:10411800203a0000202500006400000062610000d1
:10412800636b000020310000006200006163000042
:104138006b200000320000007c2d00002d2d0000b7
:104148002d2d00004d610000696e0000204d00001b
:10415800656e0000752d00002d2d00002d2d00002e
:104168002d7c0000200000003129000020540000b0
:10417800687200006f740000746c00006520000015
:104188004d6500006e750000003200002920000017
:1041980042720000616b0000652000004d65000060
:1041a8006e750000003300002920000053650000f0
:1041b80074740000696e000067730000204d0000f1
:1041c800656e0000750000003429000020420000e0
:1041d80061740000746500007279000020490000d5
:1041e8006e6600006f0000003529000020430000c3
:1041f8006f6d00004275000073200000496e0000da
:10420800666f00000036000029200000447200009c
:104218006976000065720000204300006f6e0000a0
:1042280066690000670000002a2a00002a2a0000a8
:104238002a2a00004e4f0000204d00006174000043
:10424800636800002a2a00002a2a00002a000000c9
:104258007c2d00002d2d000054680000726f0000b6
:10426800747400006c650000204d0000656e00004d
:10427800752d00002d2d00002d7c00000031000060
:104288002920000054680000726f00007474000058
:104298006c6500002044000069730000706c000029
:1042a80061790000003200002920000054680000f5
:1042b800726f0000747400006c650000204d0000ef
:1042c800617800002053000065740000003300008e
:1042d8002920000054680000726f00007474000008
:1042e8006c650000204d0000696e0000205300003e
:1042f80065740000007c00002d2d00002d2d0000ad
:104308002d420000726100006b650000204d000026
:10431800656e0000752d00002d2d00002d2d00006c
:104328007c0000003129000020420000726100007a
:104338006b6500002044000069730000706c000089
:10434800617900000032000029200000427200005c
:10435800616b0000652000004d61000078200000be
:10436800536500007400000033290000204200005b
:10437800726100006b650000204d0000696e00004e
:104388002053000065740000007c00002d2d000003
:104398002d53000065740000746900006e6700000a
:1043a800732000004d6500006e7500002d2d000083
:1043b8002d2d00007c00000031290000205600004f
:1043c80065720000626f0000736500000032000033
:1043d8002920000052650000736500007420000069
:1043e800566100006c75000065000000332900006c
:1043f80020410000626f000075740000007c00001e
:104408002d2d00002d42000061740000746500002d
:1044180072790000204900006e6600006f2d0000d0
:104428002d2d00007c0000003129000020560000de
:104438006f6c0000746100006765000000320000c6
:10444800292000004375000072720000656e0000ac
:10445800740000003329000020540000656d00003e
:10446800700000003429000020530000617400002f
:1044780027730000004200006174000074650000aa
:1044880072790000207300007461000074650000f8
:10449800007c00002d2d00002d4300006f6d0000f2
:1044a8004275000073200000496e0000666f00002e
:1044b8002d2d00002d7c0000003100002920000077
:1044c800426f00006172000064730000204f00001a
:1044d8006e000000322900002045000072720000c2
:1044e8006f72000020520000617400006500000037
:1044f800332900002044000061740000612000009e
:104508005261000074650000007c00002d2d000041
:104518002d440000726900007665000072200000da
:10452800436f00006e660000696700002d2d0000d3
:104538002d7c00000031000029200000447200009a
:10454800697600006572000020530000656c000069
:104558006563000074000000322900002044000058
:10456800726900007665000072200000436f000049
:104578006e66000069670000007c00002d2d0000b9
:104588002d4400007269000076650000722000006a
:104598004c690000737400002d2d00002d7c000074
:1045a80000310000292000004472000069760000f4
:1045b8006572000020310000202d0000204e000010
:1045c8006174000065200000412e000000320000e8
:1045d800292000004472000069760000657200001e
:1045e80020320000202d0000204a00006f650000e6
:1045f80079200000442e000000330000292000002c
:1046080044720000697600006572000020330000e3
:10461800202d0000204100006e640000726500003b
:1046280077200000452e00000034000029200000fb
:1046380044720000697600006572000020340000b2
:10464800202d000020420000656e0000204200007e
:104658002e00000035290000204400007269000087
:104668007665000072200000352000002d20000033
:104678005472000065760000696e00002048000052
:104688002e0000001b5b0000324a0000001b0000e7
:104698005b480000000000002020000020200000ef
:1046a8002e2d00002e2000002020000020000000f9
:1046b8002e200000202800002f5e00005c2900004a
:1046c80020200000002e000020200000285c0000b0
:1046d800202f000029200000200000002e200000cc
:1046e800202e00002d2700002d2e00002020000085
:1046f800200000002e2000002f2800005f49000045
:104708005f2900005c200000002e0000205c0000f3
:104718002029000020280000202f00002020000071
:10472800200000002e200000202f00002020000084
:10473800205c000020200000002e00002020000047
:104748005c2000007c2000002f20000020200000ba
:10475800002e000020200000205c00007c2f0000bc
:104768002020000020200000200000002e20000053
:10477800202000002f7c00005c200000202000008a
:10478800200000002e200000202000002f590000eb
:104798002020000020200000202000000000000051
:020000040000fa
:1047a8000800fa00100798002107980032079800bf
:1047b8000002eb00040f7800080037002e0290007a
:1047c80014427800ae0290008502e80025079800a0
:1047d800044078000e1807001e0fe8009e027800bb
:1047e8003e029000848f5200f4ff39003e02900090
:1047f800040078000080fa00000006000200fa00b9
:10480800889fbe008a9fbe00b5258100843e200097
:10481800848f52002e023600642481000500200097
:10482800b600200007002000860f5200878f5a002c
:1048380019023e00040601000b0037001200370081
:1048480041003700b90037001a0137003501370039
:1048580093013700a5013700b7013700c5013700bc
:10486800ea01370086013700242581008402780098
:1048780064248100848f5200fe0132006424810088
:104888002425890004023700242581008402780049
:1048980064248100848f5200020032006424810065
:1048a8002425890040c429002cf00700e426810053
:1048b800841f780074c62900841f780038f0070028
:1048c800e4875700f4268100841f7800b4c72900c4
:1048d800841f780032f00700e4875700042781001e
:1048e800841f7800f4c82900841f78002cf0070082
:1048f800e487570040ca290018f00700b426810051
:10490800841f780074c62900841f780024f00700eb
:10491800e4875700c4268100841f7800b4c72900a3
:10492800841f78001ef00700e4875700d426810012
:10493800841f7800a4cc2900841f780018f0070091
:10494800e4875700d40137002425810084027800c9
:1049580064248100848f52000400320064248100a2
:10496800242589000002eb0034258900e0cd2900c8
:10497800faef070034248100c222dd0064432200dc
:10498800048242001402be00325c2f008307240018
:104998000400be0028ef07000002be00849fbe008e
:1049a800c4082000841f7800e4ce2900841f780002
:1049b800fbef0700e887570034248100c222dd009e
:1049c80064432200048242001402be0012ae270093
:1049d800430724000400be0017ef07000002be00d2
:1049e800849fbe00d4022000841f7800e4d02900f0
:1049f800841f7800eaef0700e88757003424810015
:104a0800c222dd0064432200048242001402be0078
:104a1800c274230093d823000400be0006ef0700e9
:104a28000002be00849fbe00d4d22900841f7800f3
:104a3800dbef0700e68757006022b800849fbe00be
:104a48006022b800849fbe006022b800849fbe0028
:104a580064d42900841f7800d1ef0700ee8757003f
:104a6800342481000402e800c222dd0064432200ed
:104a7800048242001402be000401be0000002000af
:104a8800612e2400ebee07000002be000405be0004
:104a9800342481000402e900c222dd0064432200bc
:104aa800048242001402be0002002000c32d24002c
:104ab8000400be00e0ee07000002be000404be00d1
:104ac800342481000482e800c222dd00644322000d
:104ad800048242001402be000401be00000020004f
:104ae800012f2400d3ee07000002be008a9fbe00fb
:104af800889fbe00849fbe00d4d62900841f7800fa
:104b0800a7ef0700ee875700342481000402e8006d
:104b18003424890034248100e50f52005701340001
:104b28000002eb00342489005b0137002425810052
:104b38008402780064248100848f520004003200cb
:104b480064248100242589000002eb0044258900a3
:104b5800442581000402e800841f780004d9290054
:104b6800841f78008eef0700e487570044258100f2
:104b7800f422b900e6024200243e210004824200e9
:104b88009403780044258100f422b900e40242002d
:104b9800243e210004824200140378004425810049
:104ba800f422b9008482e800243e210004824200f5
:104bb8009402780044258100f420b900243e2100a5
:104bc8000402400014027800871f7800861f7800ce
:104bd800851f7800841f780034db2900841f780043
:104be8006fef0700ea87570044258100f422b900d7
:104bf800ee024200243e2100048242009403780021
:104c080044258100f422b900ec024200243e210030
:104c1800048242001403780044258100f422b9007c
:104c2800ea024200243e21000482420094027800f5
:104c380044258100f422b90068004200243e210086
:104c48000402400014027800871f7800861f78004d
:104c5800851f7800841f780074dd2900841f780080
:104c68004fef0700ea87570044258100f422b90076
:104c7800f2024200243e210004824200940278009d
:104c880044258100f422b90070034200243e21002b
:104c98000402430014027800851f7800841f7800fe
:104ca800b4df2900841f78003def0700e68757002e
:104cb800f9003700242581008402780064248100eb
:104cc800848f520002003200642481002425890068
:104cd800f0e1290021ef0700d4a78000841f7800a5
:104ce800f4e32900841f78002def0700e4875700bc
:104cf800e4a78000841f780044e52900841f780019
:104d080027ef0700e4875700e4a78000841f780096
:104d180094e62900841f780021ef0700e4875700f4
:104d2800dd00370024258100840278006424810096
:104d3800848f5200040032006424810024258900f5
:104d48000002eb0074218900e0e7290003ef070067
:104d580054208100e00f52000200320050ea29007e
:104d6800feee070074208100e00f52002800320098
:104d780074208100cfa2de0036002000070020004a
:104d8800860f5200878f5a0021003e00040601005a
:104d98001e003700020037000a00370012003700f3
:104da80080eb2900edee070004a88000841f78003e
:104db80014ed2900841f7800f9ee0700e4875700f6
:104dc80013003700a0ee2900e4ee070004a88000d5
:104dd800841f780014ed2900841f7800f0ee070086
:104de800e48757000a00370080f02900dbee07004f
:104df80004a88000841f780044f22900841f7800ea
:104e0800e7ee0700e48757000100370000000000c4
:104e180064208100e00f52000e003200c0f3290028
:104e2800ceee070064208100e10f5200030032003b
:104e3800e20f52000400320006003700f0f42900a7
:104e4800c6ee070003003700e0f62900c3ee0700ae
:104e58000000000044208100e00f520002003200f0
:104e6800c0f82900bdee070084208100e00f520041
:104e780084003200f0f92900b8ee070086003700f8
:104e8800242581008402780064248100848f5200e4
:104e98007e00320064248100242589007e003700ca
:104ea800242581008402780064248100848f5200c4
:104eb8000200320064248100242589008310070041
:104ec800000278004424890020fb2900a3ee070093
:104ed80044248100841f7800d4fc2900841f7800b2
:104ee800afee0700e48757006b00370024258100e8
:104ef8008402780064248100848f5200020032000a
:104f080064248100242589007510070000027800b8
:104f18005424890060fe290090ee07005424810083
:104f2800841f780034002a00841f78009cee070054
:104f3800e487570058003700242581008402780050
:104f480064248100848f52000200320064248100ae
:104f5800242589008d1a070000027800841f780034
:104f680014032a00841f78008dee0700e487570099
:104f780049003700242581008402780064248100d8
:104f8800848f5200020032006424810024258900a5
:104f980080042a0071ee070054422200144278006f
:104fa8000404a200e04f520002003200f0042a007c
:104fb8006aee070024422200144278000404a2008a
:104fc800e04f520002003200c0052a0063ee0700dd
:104fd80044422200144278000404a200e04f520028
:104fe8000200320090062a005cee070034422200dc
:104ff800144278000404a200e04f52002500320059
:1050080060072a0055ee0700230037002425810099
:105018008402780064248100848f520002003200e8
:1050280064248100242589000002eb00040f780025
:105038000c0037001e02780084024200244c220033
:105048000482420014027800841f78009e1f7800b2
:1050580034082a00841f780051ee0700e6875700bd
:105068001e0fe8001e027800e70f5200f1ff34001f
:1050780009003700000000000700370000000000aa
:1050880005003700000000000300370000000000a2
:105098000100370000000000e448220014427800b4
:1050a800e04f52000800320080010700b42481005c
:1050b8008442780094248100044278008540780076
:1050c800044078006c0007000002eb00b42589005a
:1050d800c115070000027800e00f5200620032009c
:1050e800f448220014427800e04f52004e003a0083
:1050f800c01507000042780005492200844a78005c
:10510800e445220014427800e04f520005003200c6
:1051180004492200144278000402fb0004007800cd
:105128001aee0700044922009442780024c6b3000e
:1051380084cf520021003a000002eb006424890069
:105148009449220014427800e04f52000a003200cd
:10515800b4248100e00f5200070034000002eb0085
:10516800b424890024092a00841f78000cee070063
:105178008f87e900290037009449220014427800fb
:10518800e04f520022003200b4248100e00f5200a8
:1051980021003a00954922000042eb00844a780039
:1051a80094092a00841f7800fded07008f87e90025
:1051b8000002eb009424890018003700944922006b
:1051c800144278000404a200e04f520006003200a6
:1051d80004492200144278000402fb000403b100d1
:1051e800942489000d003700944922001442780065
:1051f800e04f5200090032000449220014427800ae
:105208000402fb000403b100b42489000300370042
:10521800000000000100370000000000e5482200ff
:1052280014c0b300844a7800f4482200144278007d
:10523800e04f52000c003200f4482200144278007b
:10524800e44f520008003a00a824810069150700bd
:1052580000427800a549220088824200844a7800ea
:105268000802e800a42489004f05be004f04be00d0
:105278000080fa00000006000200fa00004f7800e3
:10528800114798001e02fb00cfa2de006600200036
:1052980007002000860f5200878f5a003b003e000f
:1052a8000406010006003700140037001900370013
:1052b8001e00370023003700280037002d00370074
:1052c800000a2a00a5ed0700800b2a00a3ed0700bd
:1052d800900c2a00a1ed0700700d2a009fed070031
:1052e800800e2a009ded0700800f2a009bed070025
:1052f80070102a0099ed070027003700a59d2200ad
:105308001e4290000402fb00040078000500010022
:1053180021003700e5a022001e4290000402fb0095
:1053280004007800050001001b00370025a42200b6
:105338001e4290000402fb000400780005000100f2
:105348001500370065a922001e4290000402fb00e8
:1053580004007800050001000f00370065ae220048
:105368001e4290000402fb000400780005000100c2
:1053780009003700e5b022001e4290000402fb003d
:1053880004007800050001000300370080112a009e
:1053980072ed070000000000e54822000042eb0023
:1053a800844a78000080fa00000006000200fa0033
:1053b800004f78009549220014c0b300844a780051
:1053c800c0122a0065ed070030142a0063ed0700bb
:1053d80070152a0061ed0700b0162a005fed07007e
:1053e8001e427800e14f520003003a0014002000ea
:1053f80064248900050037001e427800e24f5200fd
:1054080002003a000002eb00642489000080fa00e0
:10541800000006000200fa00004f780095492200bb
:1054280014c0b300844a7800f0172a004bed070037
:1054380060192a0049ed0700701a2a0047ed070095
:10544800801b2a0045ed07001e427800e14f5200fc
:1054580003003a0014002000642489000500370086
:105468001e427800e24f520002003a000002eb00b0
:10547800642489000080fa00000006000200fa0097
:10548800004f78009549220014c0b300844a780080
:10549800901c2a0031ed0700001e2a002fed07009e
:1054a800b01e2a002ded0700a41f2a00841f7800d3
:1054b8003bed07008f87e9001e427800e14f52005c
:1054c80003003a000002eb00b424890013003700ff
:1054d8001e427800e24f52000a003a002b190700da
:1054e80000027800841f780014032a00841f7800c3
:1054f8002bed0700e48757000002eb00b424890075
:10550800060037001e427800e34f520003003a00bd
:105518005c1b07000002eb00b42489000080fa003d
:10552800000006000200fa00004f780095492200aa
:1055380014c0b300844a780030202a0007ed070021
:1055480080212a0005ed070030222a0003ed07001c
:10555800e0222a0001ed070060232a00ffec070083
:105568001e427800e14f520003003a002400200058
:1055780064248900110037001e427800e24f52006f
:1055880003003a0044002000642489000b0037001f
:105598001e427800e34f520003003a003400200016
:1055a80064248900050037001e427800e44f520049
:1055b80002003a00f0232a00e8ec07000080fa0015
:1055c800000006000200fa00004f7800954922000a
:1055d80014c0b300844a7800d0242a00dfec070006
:1055e80010262a00ddec0700e0262a00dbec070085
:1055f800c0272a00d9ec07001e427800e14f52006c
:1056080002003a0094002000642489000080fa0017
:10561800000006000200fa00004f780095492200b9
:1056280014c0b300844a780090282a00cbec070005
:10563800f0292a00c9ec0700002b2a00c7ec070054
:105648001e427800e14f52000f003a00102c2a0049
:10565800c2ec0700502d2a00c0ec0700b02e2a002b
:10566800beec070010302a00bcec070090312a007d
:10567800baec0700e0322a00b8ec0700f54822002f
:1056880044c0b300844a78000080fa000000060095
:105698000000fa00a449220014427800044078006f
:1056a800d91c07000080fa00000006000000fa007c
:1056b80064342a00841f7800b9ec07008f87e9005a
:1056c800b4342a00841f7800b5ec07008f87e900fe
:1056d8000080fa00000006000200fa000002eb0059
:1056e800040f78000002eb00040f78000500370073
:1056f800847521009e0242000042eb00844a780033
:105708001e0fe800940f20009e027800848f52003c
:10571800f7ff34000080fa00000006000e00fa00cf
:10572800000f7800214798003247980043479800b7
:1057380034079800450798005607980067079800af
:105748001e027800c4c2880054852100be42900021
:10575800054a78003e02900084ba8800de02900074
:10576800a5ba88006e029000b4ba8800ce029000f4
:1057780095ba88002e4290000482fb000402d100f2
:105788000442780075852100844a780084862100c7
:10579800d4c28800c4852100ce429000054a780012
:1057a8000002eb00f4c288000080fa000000060046
:1057b8000800fa0020079800614798000042eb00b3
:1057c800044f7800200037002e02900094427800a1
:1057d800154798002e0290000402e800240798005c
:1057e80084c0b30024479800140037001e4290007c
:1057f8001e426a0061426200344798009e42780067
:105808000582fb000402d100044f78003e4290005c
:10581800e04f520002003200c4c8b3001e4f6a00b5
:105828001e4290000482fb000402d1001447980035
:105838002e4290000442e900244798002e4290002e
:10584800e04f5200e9ff3a006e4290000482fb00ec
:105858000402ea004f22de0004427800ee42900083
:105868008542e90065479800e04f5200d6ff3a00ac
:105878001e427800044078000080fa00000006000c
:105888000600fa0040479800a4c980000442780046
:10589800d5c280008440780005007800c4ff070066
:1058a800004278002447980084ba800060c0b300a2
:1058b8000400010084ba800050c8b300040001004d
:1058c80084ba80004e4090000400010085ba800030
:1058d8005485210014427800044078000500010036
:1058e80085ba8000a4c9800004427800044078008a
:1058f800050001000002eb00040f780008003700e3
:1059080085ba8000d6c280001e02780004024300d7
:105918001442780004407800050001001e0fe800da
:10592800a4c980009e0f5200f5ff3c0084ba800095
:105938002e409000040001008041eb002e419000b1
:10594800ce409000809321002c0207001100200017
:1059580080862100d10107000080fa0000000600bf
:105968000a00fa00889fbe004451220014427800c1
:105978000404a200e04f52004c013200348521009b
:1059880014427800e04f52003a003a00a4ba80006e
:105998000400010000027800e40f520035003400d2
:1059a8000a003700f4c280000402e800f4c288004c
:1059b800a4ba80000400010000027800e40f52003d
:1059c80002003c000042eb003c01370094ba800022
:1059d8000400010000427800e64f5200f1ff3a004f
:1059e80094ba8000040001000042780055c8b30052
:1059f800854f52001f003a0094ba8000040001004d
:105a08000042780065862100844a780094ba8000b4
:105a1800040001000042780065852100844a78006e
:105a280094ba800004000100004278003585210006
:105a3800844a7800648621009442780054852100c5
:105a48001442780084cf52000a00320014c3800048
:105a58000402e80014c3880094ba8000040001001e
:105a6800358521000042eb00844a78000042eb00b3
:105a7800120137003485210014427800e04f5200ab
:105a8800080132002485210014427800e04f5200ba
:105a980023003a0000000000a4ba800004000100be
:105aa80000027800e00f5200fbff3400b4ba800017
:105ab8000400010000427800e14f42001a003a0059
:105ac80055020700358521000042eb00844a780022
:105ad800258521000042eb00844a7800fefe07007d
:105ae8009fff070000427800f4003700248521005a
:105af800144478008884fb0094ba800004000100f4
:105b0800004278008575210089824200844a780025
:105b18000842e80025852100844a78000300370000
:105b2800000000000100370000000000a4ba800057
:105b38000400010000027800e00f52000600320065
:105b4800248521009442780034852100144278008d
:105b580084cf5200e5ff36003485210014427800d6
:105b68008482fb0024852100144278000482fb0013
:105b78000402e900848f5200ca003a0034852100eb
:105b880014427800844078008075210008ff0700df
:105b98000042780045852100844a78002485210048
:105ba800144278000482fb000402e9008575210094
:105bb800048242009442780044852100144278000f
:105bc80084cf52006f003a000002eb00040f780007
:105bd80022003700847521001e024200944278009a
:105be800748521001442780084cf520016003100d9
:105bf8001e02e800857521000482420014427800e4
:105c080065932100844a78001e82e800857521008a
:105c1800048242001442780075932100844a780077
:105c2800c5c28000847521001e024200144278001b
