:020000040000fa
:080000000002040000000000f2
:020000040000fa
:1000080002030000020300000203000002030000d4
:1000180002030000020300000203000002030000c4
:1000280002030000020300000203000088590000d8
:10003800020300000203000002030000d25a00007d
:100048000203000002030000020300003a5000000f
:100058006a500000020300000203000002030000cf
:100068000203000002030000020300000203000074
:100078000203000002030000020300000203000064
:100088000203000002030000020300000203000054
:1000980002030000020300001a4e00004a4e00004e
:1000a8000203000002030000020300000203000034
:1000b8000203000002030000020300000203000024
:1000c8000203000002030000020300000203000014
:1000d8000203000002030000020300000203000004
:1000e80002030000020300000203000002030000f4
:1000f80002030000020300000203000002030000e4
:1001080002030000020300000203000002030000d3
:1001180002030000020300000203000002030000c3
:1001280002030000020300000203000002030000b3
:1001380002030000020300000203000002030000a3
:100148000203000002030000020300000203000093
:100158000203000002030000020300000203000083
:100168000203000002030000f84b0000284c0000c6
:100178000203000002030000020300000203000063
:100188005a5200008a5200000203000002030000d5
:100198000203000002030000020300000203000043
:1001a8000203000002030000020300000203000033
:1001b8000203000002030000020300000203000023
:1001c8000203000002030000020300000203000013
:1001d8000203000002030000020300000203000003
:1001e80002030000020300000203000002030000f3
:1001f80002030000020300000203000002030000e3
:1002080002030000020300000203000002030000d2
:1002180002030000020300000203000002030000c2
:1002280002030000020300000203000002030000b2
:1002380002030000020300000203000002030000a2
:100248000203000002030000020300000203000092
:100258000203000002030000020300000203000082
:100268000203000002030000020300000203000072
:0c0278000203000002030000020300006b
:020000040000fa
:100400002f4922000eff28000e0188000000000086
:10041000000020000000e000020032000001200087
:10042000200288000c000700202c2500010020007d
:100430000f000700000020000000e0000200320072
:1004400000000200000000003e6202000000000008
:100450000040da000000fe00208b20000000e000d9
:1004600002003200002020009001880000000600f9
:10047000a1028800800078000000eb001a0037001d
:10048000e280400054a0b4009101ba00e280400034
:1004900054a0b4009102ba00e280400054a0b4001d
:1004a0000002eb00472bde00f507b200a601880032
:1004b000602ce10008003a000049eb000201e8006e
:1004c000020039003420ec0002f0a0008301e900b2
:1004d000f9ff3e00040037006128e100010032000e
:1004e0000082eb00040007001101ba000200e000e6
:1004f000e3ff3a000000060004d0a300e20f490029
:100500001c003900810278003549ba000201e80078
:10051000020039003420ec0002f0a0008301e90061
:100520000f0032002549ba000201e800020039003c
:100530003420ec0002f0a0008301e9000800320042
:100540000400e0000600320015c9ba000201e8000c
:10055000020039003420ec0002f0a0008301e90021
:100560008180e80054a0b4000300e000e2ff3a00fc
:10057000000006009102ba00055978008301e900e5
:10058000f7ff3200c82ade00055978008301e90030
:10059000f3ff32000400e000f1ff320011d9ba008d
:1005a000eeff3700ea4f040000000000f84f04009f
:1005b0000000000006500400000000001450040079
:1005c00000000000ca4d040000000000d84d0400e7
:1005d00000000000e64d040000000000f44d04009f
:1005e000000000000a52040000000000185204003d
:1005f00000000000265204000000000034520400f5
:10060000000000000040da000000fe001004b1000d
:10061000070035009001b100040034007000b10003
:10062000030035009001b10001003c0010000500fe
:10063000000005006900e100040035006d00e100e4
:10064000030034000002b100010032000000050088
:10065000100005001004b100030035009001b10046
:1006600001003c001000050000000500800078003b
:100670001104b100030035009101b10001003c00fc
:100680000050a000000006000000fa000002780000
:1006900002003700015a78000201e900e00f510022
:1006a000fcff3a000080fa00000006000000fa009b
:1006b000889fbe000004be00050037000000fb005c
:1006c0008900780069020700e10f40000400320051
:1006d00038407800e04f5000f8ff3a000000eb008f
:1006e0004f04be000080fa0000000600c12e220068
:1006f0000000fa00881f7800ecff0700c12e2200de
:1007000000047800a00020005802070008007800cc
:100710004f0478000080fa0000000600c12e22007d
:100720000000fa00510207000080fa0000000600f5
:100730000c00fa00000f78002007980091020700d3
:10074000140c2000100798005007980034079800f8
:1007500068015700ceb897000e00780038000700f7
:100760000080fa00000006000000fa00881f7800f0
:10077000801c8100ba01070000047800080078009e
:10078000acff0700e00f5000f9ff3a00e10f440012
:1007900003003200811c81000800780082020700fb
:1007a0004f0478000080fa00000006000000fa0004
:1007b000889fbe00000478008a1f7800814478007a
:1007c0000205780004fd2f0008024200e90f5200e4
:1007d00002003e00040478000f0037000800780093
:1007e0009cff0700e00f500005003200e00f5500ad
:1007f00003003200080078009cff07000004780026
:100800000800780081ff070000c2eb00e00f5000f5
:10081000060032007805b1008984fb0000c2eb00bd
:10082000890f540001003d00084278004f05780010
:10083000044078004f04be000080fa00000006006b
:100840000002eb001000fa00801c8900889fbe00a7
:10085000710798008a9fbe00044478008c9fbe00f8
:100860004207980024079800484f98004901370034
:10087000fe0290000885fb008502e8000a0078006f
:10088000750798006bff0700e00f50000200320070
:10089000b5ff07003f01370054c2b300844f540036
:1008a0002f013a000044780025c0b300804478004e
:1008b000054678007e0090000005780004003700af
:1008c0004cc0b300010037002cc0b3000a00780010
:1008d0003a42780095c6b300854f5200a30032001b
:1008e0001c003e00e6c25200854f520070003200ec
:1008f00011003e00f7c25200854f52003000320016
:1009000006003e00e04f520029003200a5c2b300ad
:10091000854f520081003a002700370085c5b3009b
:10092000854f52007d003a001c4798007a079800d6
:10093000140020001b00370045c6b300854f52004d
:100940008a003200e4c24200854f520073003a0030
:10095000ddff370035c7b300854f52001c00320061
:1009600007003e00e7c25200854f520014003200db
:10097000e3c24200854f520068003a008000370011
:1009800055c7b300854f520078003200e3c24200e1
:10099000854f520061003a007a0798001c47980082
:1009a0000002eb002407980005c1b3007700370070
:1009b0004e4c90008e0037008944e800c3ff37009a
:1009c000e24f5600beff32008cc0b300bfff3700bd
:1009d0007a07980064ff0700e0cf540004003a0053
:1009e0004e029000c4027800440798003507980032
:1009f000801c81001a01070000057800e10f450006
:100a000015003a004e4c90000a007800de003700d6
:100a1000fe0290001502fb00840f550005003a000d
:100a20000c0278008502e8003407980075079800ea
:100a300017003700e0cf540001003a000a5e78004a
:100a40000844e9000d003200801c81000401070009
:100a500000057800010037003e0690000a02e80019
:100a6000e10f5200080036000a007800f1fe07008e
:100a7000e00f5000e6ff3200030037000c02780060
:100a800034079800020037008c0278003507980080
:100a9000e0cf5400bf003a004e4a9000be029000e2
:100aa0000442e800444f9800894a7800b9003700b2
:100ab0007a079800e0cf540008003a00ce02900078
:100ac0004e4a90000442e800444f980045027800e6
:100ad0004507980004057800010037003e059000a6
:100ae000801c8100de000700e10f400002003a0098
:100af0004e4c9000a4003700e0cf540001003a00b3
:100b0000005d78000844e9004240a900f4ff3c0081
:100b10008a027800350798009e0037000484fb00a5
:100b200004fd2f0008024200e90f520009003e00b8
:100b3000aa0007000a027800004478000405780043
:100b4000b402fb000503b100e98f5200fbff360041
:100b50005eff37007a079800801c8100c000070004
:100b6000800f540082003a008a003700a4c0b3000e
:100b70001c4798007a079800244798000400370023
:100b80007a0798001c47980085c0b3002547980055
:100b9000f5fe0700801c8100b10007000042eb0059
:100ba00050079800044f7800d4022000840f5000b2
:100bb00005003a00801c8100a900070015c0b300a1
:100bc00050079800054f78002e019000ae4090002d
:100bd0005e009000f5fe0700e14f40000c003a0077
:100be0004e4c9000811c81005e0090006e01070059
:100bf000e04f54006c003a00841c810034009000e7
:100c000070006000690032000080eb006700370070
:100c100004032000de029000848f520015003a0089
:100c2000801c81008e00070084072000840f500084
:100c300004003a002e029000e00f5200070032003c
:100c40000a00370084052000840f500007003a0096
:100c5000ae029000e08f520004003200801c810040
:100c60007f0007005007980002003700811c8100b8
:100c70004d0107002e4290006055b8000486fb002d
:100c80000d0020000c01be000a00be000844e9006f
:100c9000670507002e0190000005be00ae409000e1
:100ca0005e009000c1fe07000080fb0001002000f4
:100cb0000005450081854d00e04f540008003200da
:100cc000801c8100660007002e01900050079800ec
:100cd000ae409000b5fe0700e14f4000e9ff3a004a
:100ce0002e019000ae4090005e009000affe070025
:100cf000e14f400003003a00811c81005e0090003b
:100d0000290107009e427800e0cf52000200320025
:100d100060051500e0851d00e0cf54001d003a007d
:100d20004e4a9000ce0290000442e800444f9800e2
:100d30000582e9009e429000e4cf520004003a0090
:100d400044079800140278000a8abe001100370098
:100d500044079800140278000a0a78000d00370052
:100d6000801c81003e000700800f55000900320002
:100d70004e4c9000e10f400003003200811c8100c6
:100d80000901070008003700e04f540006003a0050
:100d9000060037007e02900014447800e04f5400b3
:100da000b3fe3a004e4c90000880fb004f06be0098
:100db0004f05be004f04be000080fa000000060090
:100dc000c02e22000000fa0068015700ceb897003c
:100dd000140107000080fa000000060006c2b300fc
:100de0000000fa000002780004007800b0427800a9
:100df00086cf5200fbff3200e9cf5200f9ff3200ec
:100e0000d6c2b30086cf520003003a000002780039
:100e100016c0b300050037000043eb00b7c2b300b3
:100e200087cf520001003a00000278000000eb007a
:100e300002003700ea00b90000804200b402fb0063
:100e40000503b100e98f5200faff3600e04f53006e
:100e5000010032000000ea000080fa0000000600f5
:100e60000000fa00881f7800000478003802900023
:100e7000f1026200e18f520006003a00840278001d
:100e80000520b2000800320098029000e08f520066
:100e900005003200380290000080eb000440a00002
:100ea00034049800200037000490a1003404980016
:100eb00018029000e00f5200070034000402e9001d
:100ec000140498001802780094427800040ce8009a
:100ed0000580fb0005003700380290000404b200d2
:100ee000ecff3a000800780012000700380290007a
:100ef0000408b2000c003a00fa0f500008003a0053
:100f000028029000e00f5200e2ff32001802900029
:100f1000180ce9000402e80014049800ddff370013
:100f2000ed0f5000e2ff32004f0478000080fa001d
:100f3000000006000200fa00889fbe00000478004e
:100f40000002eb008a9fbe00140498000080eb00b2
:100f50003802900061026200400032002436220014
:100f60008042eb0094cf12000f0032004b30220081
:100f70002a102000c9fd2f008b8444003902900004
:100f80002410b2008a0f520002003a0009007800d3
:100f90002b040700ec8444008b8f5400f7ff3a00c9
:100fa00024362200004aeb0058019000e00f510067
:100fb0000e003a00120498008e0078001200200003
:100fc00048009000c70d0700e10f500003003a00f1
:100fd0001e4278000480fb00200037003802900099
:100fe0000440a0003404980013003700a8009000cb
:100ff00048009000bb0d070010049800e00f50005f
:1010000003003200e10f40000d003a0003003700fa
:10101000380290000440a00002003700380290001f
:101020000403b30034049800a80290000002eb000f
:10103000050c7800140498000080eb0007003700ce
:10104000280290000000e900040c780010049800c9
:1010500094427800040ce8000580fb004f05be00b8
:101060004f04be000080fa00000006000000fa00f5
:10107000889fbe00010478008084eb003802900055
:10108000e20262003b003200040378009802900004
:101090000620b20002003a00e08f520035003a000c
:1010a0000490a0008004780034049800f90fb20086
:1010b000e08f520002003a00a8029000050c780070
:1010c000ea8f540005003a000408b20003003a0019
:1010d00088007800d0002000e4ff0700180290008c
:1010e000d8029000850f52000b0032000402e80085
:1010f00015c0b3001404980018027800094a78005b
:10110000040ce80024362200054a7800ea8f5400d7
:1011100018003a0005003700094078008800780080
:10112000f3030700800478001200370038029000b3
:101130000410b2000f00320018019000a8009000c7
:1011400048009000f609070018029000840f500034
:1011500004003200380290000403b3003404980005
:101160008084eb000002eb00140498002802900039
:10117000040c7800090078004f04be000080fa00db
:10118000000006000000fa00000278008042eb0038
:10119000b4cf1200fdff3a000080ea000080fa00a0
:1011a00000004200000006000000fa00e10f4000cd
:1011b0001a003200310290001420b200e10f5200f8
:1011c00015003a0021039000e00f53001200320096
:1011d00011029000d1029000850f52000e003200e3
:1011e00091027800868f520002003a008508e800dc
:1011f000020037000402e800940098009102e90020
:1012000031029000850878000404b20003003a001f
:10121000804a7800010037000080eb000080fa006f
:10122000000006003a00fa00889fbe0001179800ef
:101230008a9fbe00421798008c9fbe0080067800ef
:101240000000eb0060179800720337008e109000ca
:1012500054c2b3008100e80001179800844f500089
:1012600006003a00010278000006eb0001c3b3005b
:1012700000c2b300b7c2b300100037003d029000b7
:101280000404b200040032001d027800004a780015
:10129000840ee800050037000000fb008d00780098
:1012a00072ff0700e10f40005a0332006e119000f8
:1012b0000201e800621798005603370084027800a4
:1012c000d3c2b30034437800834f53000900320087
:1012d00005003c00804f530008003200874f530048
:1012e0000c003a0007003700814f530009003a0014
:1012f000060037000c30a000f0ff37000c00a00003
:10130000eeff37000c10a000ecff37000c20a0000f
:10131000eaff370062026600010032000c00a10003
:1013200068026600010032000c20a1000602fb00ea
:101330000403b100e90f52000c003e0005037800e1
:101340000002eb00b602fb00ea22b9000503b1007f
:101350009603fb00048242000703b1008602780076
:10136000e98f5300f7ff3600080037000002eb005a
:10137000a7c2b300874f530004003a004e139000f9
:101380008502e80046027800461798008003eb00cb
:10139000e6c2b30057179800954f13000c003a00af
:1013a0000ce0a00064435300d54f1300030032004b
:1013b0000503780007007800090037004e149000fc
:1013c0008502e800c804780048179800591798006b
:1013d0000503780009003700ea00b90000804300e7
:1013e00086027800b603fb000703b100e98f5300c3
:1013f000f9ff360050179800f5ff3700b642780025
:10140000cbc6b300061798008bcf520025003200e0
:101410000f003c0036c6b30086cf5200a300320056
:1014200004003c00e0cf5200ff0232006b43530047
:101430000f00370046c6b30086cf520017003200b7
:101440006543430086cf5200b6003a0013003700d0
:1014500036c7b30086cf52002000320007003c00a0
:101460006443530086cf5200150032000643e80063
:1014700086cf5200ab003a001400370056c7b300c5
:1014800086cf5200ac0032006343430086cf520047
:10149000a4003a00054f78000e003700054f780091
:1014a000a7003700f00366000501200001003200ac
:1014b000050028008c82720005067800cfff3700f7
:1014c000054f78000c60a0009d003700054f7800a4
:1014d0000c50a0000c70a000990037004e10900036
:1014e000054f7800c00278004017980075179800e3
:1014f000e08f520002003a00a214220072179800f6
:101500007e1390008002eb00010037008502e800a6
:10151000850343008041eb0097cf1100fbff3a00a9
:10152000051f9800de129000e08f52000500320087
:101530000e1b9000868f5200020031008503780058
:10154000071f98008e1a90000004eb00850f5200d0
:1015500001003600050452006806660009c2b300a7
:10156000110032002d0037003d0290000404b2004b
:10157000040032001d027800094a7800840ee80059
:10158000050037008d00780000022000b7fe07003c
:10159000e10f4000030032006e1590000a05e800dc
:1015a0006a1798000804e900e00f5400eeff3a00c3
:1015b0000084eb0019003700bd0290000504b20062
:1015c00009003200880278009d03780035437800d6
:1015d000864b780005047800870ee800e04f530042
:1015e0000a003a0012003700880278008d00780067
:1015f0003500fb00441f9800050478009bfe07009f
:101600004e1a9000e10f4000090032006e10900069
:101610000000e80060179800050037000802780015
:101620007e1490008e1c90001e1d9000ae1d900038
:10163000890278008504e900e08f5200deff3a005d
:1016400078179800091f98001a1f98002b1f980000
:1016500004047800e00f56006e02320009c2b300a5
:101660006e1690000e0037003d0290000404b20098
:10167000040032001d027800094a7800840ee80058
:10168000050037008d0078000002200077fe07007b
:10169000e10f4000010032000c06e8000804e900f8
:1016a000e00f5400f0ff3a0059023700ce109000ce
:1016b000700366004104780041179800cfc4de0033
:1016c000090578008a0578000800be000a01be00fe
:1016d0004800de00c80add0000807200004f78007c
:1016e000e00f530009003200e04f500007003200c5
:1016f000e14f40000500320026002000104798000e
:1017000028479800061f98000300370017002000a4
:10171000071f9800184798000e04e80078179800f3
:1017200080ff37001a002000054f78007e179800d0
:101730000a1f98007bff3700054f78000c0cb300a0
:101740008c027800050cb2003b003a00e00f560016
:1017500005003d00ce1290004501be004500be00d0
:10176000451798000f003700f002660012003200a3
:101770004e1490004803be00460798005707980093
:101780004817980098029000cfaade0065079800dd
:10179000750798004e009000de0090006e019000ea
:1017a000fe01900070179800011f9800121f98000a
:1017b000231f98000b003700ce109000c102780064
:1017c00005047800cfc4de00090578008a0578009a
:1017d0004117980078179800091f98001a1f980061
:1017e0002b1f98007e1090008e1890001e199000fc
:1017f000ae199000e00f5000e08f5800e00f590044
:10180000e08f590032003d006000b8006011b80060
:101810007e1490008e1c90001e1d9000ae1d900046
:101820003c00b30008045000898458000a055900a0
:101830008b85590022003700e00f560005003d005f
:10184000ce1290004501be004500be00451798002d
:101850000f003700f0026600120032004e149000b4
:101860008004eb004803be000005eb00460f980023
:10187000570f9800690f98007a0f98004e08900053
:10188000de0890006e099000fe099000481798004d
:1018900070179800011f9800121f9800231f9800ce
:1018a0000b003700ce109000c1027800411798005d
:1018b00005047800090020000a0020000b00200029
:1018c00078179800091f98001a1f98002b1f98007e
:1018d000de149000e08f54000d003a001a00200042
:1018e0007e1090008e1890001e199000ae19900086
:1018f0005a179800e00f5000e08f5800e00f590091
:10190000e08f5900020032008000eb005117980070
:101910000c01780005042000020cb2003217980078
:10192000850f51003400320003003c00e00f5100ed
:10193000080032004800370005082000be11900062
:10194000858f510014003200050c2000858f510056
:1019500041003a00a615220015c0b3003600be00b3
:101960003601be007e1490008e1c90001e1d90005b
:10197000ae1d90000040e10001c8e10002d0e1008e
:1019800003d8e100330039008542e800f4cf52006b
:10199000f2ff3a002f00370015c0b300000120000d
:1019a000010020006011b8007e1490008e1c900091
:1019b0001e1d9000ae1d90000040e10001c8e10036
:1019c00002d0e10003d8e1002200390049002000e4
:1019d0000000d0008180d2000281d2008381d20039
:1019e0008904e900faff3a008542e800f0cf52008e
:1019f000edff3a001700370015c0b300800020004b
:101a0000010020006011b8007e1490008e1c900030
:101a10001e1d9000ae1d90000040e10001c8e100d5
:101a200002d0e10003d8e1000a00390039002000ab
:101a30000000d0008180d2000281d2008381d200d8
:101a40008904e900faff3a008542e800f5cf520028
:101a5000edff3a00054f78009e02fb005e159000f6
:101a60008a8f520002003d000a4f780004003700c0
:101a7000de159000858f550001003d005517980038
:101a8000e00f520003003200e30266000100320062
:101a90000402e90005002400850266000600320009
:101aa0005e109000800f52000200340000025200cd
:101ab000010037000002eb008000eb009e02fb00fb
:101ac00021179800850f5200020034008502520051
:101ad000251798006402660045003200e2026600a5
:101ae00061026600e08f520017003200bd029000d4
:101af0000504b200080032009d027800b6c2b300af
:101b0000e00f52000100320006c3e800864a780068
:101b1000850ee80008003700b0022000e00f5200f8
:101b2000010032000080e8008d0078004ffd0700c2
:101b3000e10f4000160032006e1190000201e80033
:101b40006217980012003700e00f520010003200b8
:101b50003d0290000404b200050032001d0278002e
:101b600005c2b300054a7800840ee800050037007e
:101b70008d007800000220003cfd0700e10f4000ce
:101b800003003200ee1190008301e8006317980013
:101b90002e129000e00f52005b00320008c3b30029
:101ba000840478003d0290000404b2000400320076
:101bb0001d027800084a7800840ee800050037000e
:101bc0008d0078000003200028fd0700e10f400091
:101bd00003003200ee1290008502e80065179800bd
:101be0008904e900efff3a00291798004600370002
:101bf0002e139000e00f53001600320068026600ba
:101c000014003a0008c2b300860478003d02900038
:101c10000404b200040032001d027800084a780073
:101c2000840ee800050037008d00780000022000d7
:101c30000efd0700e10f400003003200ee1390009c
:101c40008703e800671798008904e900efff3a006e
:101c500029179800e202660061026600e08f5200d8
:101c600017003200bd0290000504b20008003200e7
:101c70009d027800b6c2b300e00f520001003200ae
:101c800006c3e800864a7800850ee80008003700a1
:101c9000b0022000e00f5200010032000080e80096
:101ca0008d007800f1fc0700e10f400016003200c3
:101cb0006e1490000804e8006817980012003700be
:101cc000e00f5200100032003d0290000404b20008
:101cd000050032001d02780005c2b300054a7800f5
:101ce000840ee800050037008d0078000002200017
:101cf000defc0700e10f400003003200ee1490000c
:101d00008904e800691798005e15900024152200e8
:101d10008a02e900f0056600c32add000c007800a5
:101d2000048242000002b200141798003b0798009a
:101d3000200798009c003700de1090003e119000b4
:101d40008100e9000304200051179800830f51001f
:101d50006f00320003003c00e00f51000800320029
:101d60007c00370004082000be129000848f5200cf
:101d700051003200040c2000848f520075003a009c
:101d8000e00f56001b003d001e1390007e109000d7
:101d90008e1890001e199000ae1990003604be00f7
:101da0002605be000802be000a03be00c5010700ea
:101db0000802be000a03be00004f78000000fb00ce
:101dc000cf80de0001017800820178002e0207003a
:101dd0007e1490008e1c90001e1d9000ae1d900081
:101de0000004540081845c0002055d0083855d0071
:101df00020003700be049000e08f54002200320023
:101e00001e1090007e1290008e1a90003004be00ca
:101e10002005be00441f98000400be000801be005b
:101e2000351f9800f20007000801be00004f78003f
:101e30000000fb00cf80de00fd0007004e1a90007e
:101e4000be1a90000001520081815a000002eb008e
:101e5000020f9800130f9800340f98008001eb00d8
:101e6000230f98000e0c90009e0c90002e0d9000f9
:101e7000be0d900078179800091f98001a1f98004f
:101e80002b1f9800090037009e1490007e159000cb
:101e900019027800110009000485d800a400200070
:101ea000110009000480d800014f78000bc3b30073
:101eb0001ecf450027003700941322002e0090000b
:101ec000e00f50000100320084122200de1090006a
:101ed000c20add007e1090008e1890001e1990003e
:101ee000ae1990008502e900050033008301d1009e
:101ef0000281d3008180d3000080d300f9ff370036
:101f0000ef02600005024200144f78001100370014
:101f10005e1190007e1490008e1c90001e1d90009b
:101f2000ae1d9000e312b90001c3b30004007800b5
:101f30000000e900050033008b05d1000a85d300bd
:101f40008984d3000884d300f9ff37006742640016
:101f5000014f42003d0290000404b200070032002d
:101f60009d0278001e427800844a7800850ee800c1
:101f7000e04f520006003a00080037001e00fb0048
:101f80008d00780039fc0700e10f400003003200ab
:101f90006e1190000201e800621798009e119000f7
:101fa000e8815100131798005e129000e00f520074
:101fb00061ff3a006806660016003200ae1290001b
:101fc000e08f5200130034006e16900008c2b30078
:101fd000850478003d0290000404b2000400320041
:101fe0001d027800084a7800840ee80005003700da
:101ff0008d007800000220001cfc0700e10f40006b
:10200000010032000c06e8008904e900f1ff3a0003
:102010006c1798000e13900016407800004f78005f
:10202000e04f500089fc3a004f06be006e10900051
:102030004f05be004f04be000080fa0000000600fd
:102040000000fa00881f7800000478003800900033
:10205000000278001420b200e10f520005003a009f
:102060000002eb001404980028029000040c780091
:102070001900370080027800242020002520b200bb
:102080000000eb00848f520016003a00a800900078
:10209000808f50001300320018019000800f510013
:1020a00010003200480090001d0607001802900042
:1020b000840f500003003200380290000403b30084
:1020c00034049800380090000002eb0014049800db
:1020d00028029000040c78000002b20001003200d7
:1020e0000080eb004f0478000080fa00000006003a
:1020f0000200fa00889fbe0001047800004f7800bb
:1021000038029000840278000504b2000200320018
:102110000000fb0033003700e202620005003a00d5
:102120000403b30015049800340498000080eb0009
:102130002c003700d8049000e08f540006003a00cd
:10214000120020008e00780048009000f40507007f
:102150001904980022003700a8029000e08f520076
:1021600008003a00553622000430a00025049800eb
:10217000050c7800340498002500200055049800d0
:102180001504980018019000a800900048009000e5
:10219000e3050700280290008082eb0015049800f8
:1021a0001e4a7800040ce800a4c0b3009e4f120041
:1021b0000b003a00380290000410b2000800320010
:1021c00018019000a800900048009000d405070076
:1021d0000002eb001404980028029000040c780020
:1021e0001e00fb004f04be000080fa000000060045
:1021f0006022b800060220000000d0008180d200da
:102200000482d2008582d2000000a00002025200a7
:1022100083825a00030031000202420083824a0096
:102220000000a1000603e900f3ff3a0000000600e9
:10223000020ab900001bb9000200b8008100420088
:1022400081004300000006000000fa00889fbe00e5
:102250008a9fbe003004be002005be000404440076
:1022600085844c0006054d0087854d000898be000a
:102270000a90be000440e10005c8e10006d0e1007c
:1022800007d8e10002003100680040001008e800b3
:102290004f05be004f04be000080fa00000006009b
:1022a0001000fa00889fbe008a9fbe000605be008f
:1022b0000404be003002be002003be00049fbe0026
:1022c0000697be00110020000802520089825a00c1
:1022d0000a035b008b835b00440798005507980056
:1022e00066079800770798000498be000698be001d
:1022f0003e02be002e03be000820e10009a8e10056
:102300000ab0e1000bb8e100010039008000eb00e9
:102310004f05be00108810004f04be000080fa0078
:10232000000006001400fa00889fbe005b00070052
:102330008a9fbe008c9fbe000006eb004c079800f1
:102340003c0798002c0798001c0798000c0f780099
:102350000605be000404be000d0420004e039000dc
:10236000be029000860343002e029000e00f53004f
:1023700003003d002a000700b3ff070002003700fa
:1023800027000700c6ff0700ce029000150f980037
:10239000e08f5200090035004500070014002000be
:1023a000050020006033b8000000720081807200d8
:1023b0000201730083817300380007000c06e800f7
:1023c0008d0f5600e5ff3a001e0a9000e00f520004
:1023d00004003d000802be000a03be000e007800a3
:1023e00099ff07004eba9700e00f520006003a002e
:1023f0003e04be002e05be005807980069079800ed
:102400007a0798000b0f98004f06be0028000700bf
:102410004f05be004f04be000080fa000000060019
:102420004f2bde0022000700868373008582420066
:102430004f23de00470798008682720004024200a4
:10244000350798009e0290004f2bde0085824200e7
:1024500006027200240798001e0278004f23de0057
:102460000402420086827200150798004f18de00b1
:10247000000f72000e0007000802be000a03be0033
:10248000000040008180480002014900838149002a
:10249000020007000e0078000000060050079800b8
:1024a0006107980072079800030f9800000006006b
:1024b0005e009000ee0090007e0190008e0990007a
:1024c000000006000000fa00881f780018002000b5
:1024d000881f780093ff07008f87e9004f0478007a
:1024e0000080fa00000006000000fa00801feb00e8
:1024f0008cff07008f87e9000080fa0000000600cb
:102500000000fa00889fbe008a9fbe00e00f5000c6
:10251000e08f5800e00f5900e08f59000c003d009b
:102520006044b8006055b8000000540081805c0031
:1025300002015d0083815d00180020001600070085
:1025400008003d00190007000004eb0005003700fb
:102550000004eb001000070002003d00130007001c
:1025600018002000d7ff0700e00f540006003200db
:102570006022b8006033b8000000520081805a0029
:1025800002015b0083815b004f05be004f04be006b
:102590000080fa0000000600e00f5200e08f5a00b1
:1025a000e00f5b00e08f5b00000006006044b800b5
:1025b0006055b8000402540085825c0006035d008b
:1025c00087835d00000006000000fa00889fbe00bf
:1025d0008a9fbe008c1f7800e00f5000e08f5800eb
:1025e000e00f5900e08f59000d003d006044b80035
:1025f0006055b8001c0020000000540081805c0081
:1026000002015d0083815d000820e10009a8e1006e
:102610000ab0e1000bb8e1000d003d0008003700f2
:102620000006eb00e00f5200e08f5a00e00f5b0065
:10263000e08f5b0006003d006044b8006055b800c4
:102640000402540085825c0006035d0087835d0000
:10265000a5ff0700e00f5600060032006022b80018
:102660006033b8000000520081805a0002015b0014
:1026700083815b004f0678004f05be004f04be000b
:102680000080fa00000006000000fa00889fbe00eb
:102690008a9fbe008c1f78000006eb00e00f500000
:1026a000e08f5800e00f5900e08f590007003d000f
:1026b0006044b8006055b8001c00200000005400c1
:1026c00081805c0002015d0083815d00e00f5200ab
:1026d000e08f5a00e00f5b00e08f5b0007003d00d9
:1026e0006044b8006055b8000c00a2000402540019
:1026f00085825c0006035d0087835d000d00070096
:10270000e00f5600060032006022b8006033b800c7
:102710000000520081805a0002015b0083815b004f
:102720004f0678004f05be004f04be000080fa003f
:1027300000000600889fbe008a9fbe008c9fbe00de
:102740000404b8000506b8008904460060854e0000
:102750000606b8000a054600e0854e000706b800e8
:102760008b054600040eb800890446000a854e0019
:10277000e0854d00050eb8000a0546008b854e0029
:10278000060eb8008b0546000416b8000a05460080
:102790008b854e000516b8008b054600041eb80058
:1027a0008b0546000800be000a01be004f06be00b1
:0c27b0004f05be004f04be0000000600f4
:020000040000fa
:1027bc000a2d00002d2d00002d2d00005468000066
:1027cc00726f0000747400006c6500002042000001
:1027dc00726100006b650000205200006177000000
:1027ec002044000065620000756700002d2d00007c
:1027fc002d2d000000540000687200006f74000062
:10280c00746c0000653100003a20000020200000ac
:10281c002020000020250000640a00000054000065
:10282c00687200006f740000746c00006532000068
:10283c003a2000002020000020200000202500006d
:10284c00640a000000420000726100006b65000029
:10285c003a20000020200000202000002020000052
:10286c002020000020250000640a00000a0000005f
:10287c000a2d00002d2d00002d2d000054680000a5
:10288c00726f0000747400006c6500002042000040
:10289c00726100006b650000205300006967000046
:1028ac006e6100006c200000446500006275000041
:1028bc00672d00002d2d00002d000000427200003d
:1028cc00616b0000653a0000202000002020000011
:1028dc0020200000202000002020000025640000a3
:1028ec000a0000000a20000042610000747400001d
:1028fc006572000079200000696e0000666f0000b0
:10290c003a0000000a2000004261000074740000cc
:10291c006572000079200000436500006c6c0000bb
:10292c002068000069670000682000005620000045
:10293c003d200000256400003a0a0000000a000057
:10294c002042000061740000746500007279000080
:10295c0020430000656c00006c2000006c6f0000d0
:10296c0077200000562000003d2000002564000068
:10297c003a0a0000000a000020540000656d0000b7
:10298c00702000004d41000058200000256400001c
:10299c0020200000462000004d4900004e20000081
:1029ac00256400002046000020410000564700002e
:1029bc002025000064200000460000000a2d0000c5
:1029cc002d2d00002d4200004d4d00002050000028
:1029dc006f770000657200002053000069670000eb
:1029ec006e6100006c200000446500006275000000
:1029fc00672d00002d2d00002d00000043750000f8
:102a0c0072720000656e00007420000050610000be
:102a1c00636b0000203100003a20000020250000ec
:102a2c00640a00000043000075720000726500002b
:102a3c006e74000020500000616300006b200000e9
:102a4c00323a000020200000256400000a0000003b
:102a5c004375000072720000656e00007420000067
:102a6c0050610000636b0000203300003a2000002e
:102a7c0020250000640a0000000a00002d2d000033
:102a8c002d2d000046610000756c000074200000c4
:102a9c0052650000706f000072740000696e0000d7
:102aac00672f000052650000636f00007665000020
:102abc0072790000204d00006f640000652d00004d
:102acc002d2d00002d0000000a2d00002d2d0000e2
:102adc002d4d00004353000020460000414c0000e7
:102aec00555400002d2d00002d2d0000004c000031
:102afc006f770000205600006f6c000074610000be
:102b0c006765000020460000617500006c740000d1
:102b1c00206f00006e200000424d00004d000000b0
:102b2c0046610000756c0000746900006e6700005f
:102b3c00204200006174000074650000727900008e
:102b4c0020690000733a000020250000640a000090
:102b5c000048000069670000682000005465000010
:102b6c006d700000657200006174000075720000e9
:102b7c006520000046610000756c000074200000a8
:102b8c006f6e0000204200004d4d0000004300001d
:102b9c006f6d00006d7500006e69000063610000d0
:102bac00746900006f6e0000732000004661000025
:102bbc00756c0000742000006f6e00002042000055
:102bcc004d4d000000460000617500006c74000063
:102bdc00696e0000672000004d6f000064750000f6
:102bec006c65000020690000733a0000202500008d
:102bfc00640a0000000a00002d2d00002d2d00009d
:102c0c005341000053200000464100004c55000089
:102c1c00542d00002d2d00002d0000000a2d000069
:102c2c002d2d00002d540000485200004f54000080
:102c3c00544c0000455f0000534100004e49000019
:102c4c00545900005f43000048450000434b00000e
:102c5c002d2d00002d2d0000000a00002d2d000050
:102c6c002d2d000054480000524f00005454000019
:102c7c004c4500005f420000524100004b450000f3
:102c8c005f43000048450000434b00002d2d000021
:102c9c002d2d0000000a00002d2d00002d2d000010
:102cac004444000053200000464100004c550000f5
:102cbc00542d00002d2d00002d0000000a2d0000c9
:102ccc002d2d00002d500000445500002046000022
:102cdc00414c0000555400002d2d00002d2d0000fe
:102cec00005300007461000074650000204f000068
:102cfc006e20000045430000552000005374000076
:102d0c0061740000652000004d61000063680000e4
:102d1c00696e00006500000054680000652000002a
:102d2c004375000072720000656e00007420000094
:102d3c0053740000617400006520000049730000aa
:102d4c0020250000640a00000046000061750000a8
:102d5c006c74000020560000616c0000756500006a
:102d6c00204f00006e2000005374000061740000be
:102d7c00652000004d61000063680000696e000072
:102d8c0065000000546800006520000043750000d9
:102d9c0072720000656e0000742000004661000035
:102dac00756c0000742000004f6e00002054000071
:102dbc006865000020530000746100007465000019
:102dcc00204d000061630000686900006e65000022
:102ddc002049000073200000256400000a00000058
:102dec0054680000652000007265000073650000e7
:102dfc0074200000766100006c75000065200000f6
:102e0c006973000020250000640a000000430000e4
:102e1c006f6d00006d7300003a0000004e6f0000f3
:102e2c00204200004d4d0000206300006f6d00003b
:102e3c006d730000004e00006f2000004444000041
:102e4c0053200000636f00006d6d000073000000e4
:102e5c004e6f00002053000041530000206300001f
:102e6c006f6d00006d730000004e00006f200000bd
:102e7c004d43000053200000636f00006d6d000097
:102e8c007300000042750000747400006f6e000047
:102e9c0020250000642000003a200000256400007a
:102eac00004100006c690000676e000020450000c6
:102ebc00727200006f72000020420000312000008e
:102ecc0025750000200a000000430000524300005a
:102edc0020450000727200006f720000204200005a
:102eec003120000025750000200a00000041000080
:102efc0064640000726500007373000020450000dc
:102f0c00727200006f72000020420000312000003d
:102f1c0025750000200a00000044000061740000c8
:102f2c006120000045720000726f000072200000ea
:102f3c004231000020250000752000000a0000002e
:102f4c00416c0000696700006e20000045720000b3
:102f5c00726f000072200000423200002025000039
:102f6c00752000000a0000004352000043200000be
:102f7c0045720000726f00007220000042320000a7
:102f8c0020250000752000000a00000044610000ac
:102f9c007461000020410000646400007265000050
:102fac007373000020450000727200006f72000005
:102fbc00204200003220000025750000200a00008d
:102fcc0000440000617400006120000045720000a4
:102fdc00726f0000722000004232000020250000b9
:102fec00752000000a000000416c000069670000b9
:102ffc006e20000045720000726f0000722000000d
:10300c004233000020250000752000000a0000005b
:10301c00435200004320000045720000726f000014
:10302c0072200000423300002025000075200000b3
:10303c000a00000041640000647200006573000027
:10304c007320000045720000726f000072200000b7
:10305c004233000020250000752000000a0000000b
:10306c004461000074610000204500007272000091
:10307c006f72000020420000332000002575000014
:10308c00200a000000250000640000007c2d0000d8
:10309c002d2d00002d2d00004d610000696e0000eb
:1030ac00204d0000656e0000752d00002d2d0000d8
:1030bc002d2d00002d7c0000200000003129000087
:1030cc0020540000687200006f740000746c0000e3
:1030dc00652000004d6500006e7500000032000098
:1030ec002920000042720000616b00006520000086
:1030fc004d6500006e7500000033000029200000b3
:10310c005365000074740000696e00006773000062
:10311c00204d0000656e0000750000003429000091
:10312c002042000061740000746500007279000098
:10313c00204900006e6600006f0000003529000079
:10314c00204300006f6d00004275000073200000ea
:10315c00496e0000666f0000003600002920000058
:10316c004472000069760000657200002043000084
:10317c006f6e000066690000670000002a2a0000dc
:10318c002a2a00002a2a00004e4f0000204d000081
:10319c0061740000636800002a2a00002a2a0000db
:1031ac002a0000007c2d00002d2d0000546800002a
:1031bc00726f0000747400006c650000204d0000fc
:1031cc00656e0000752d00002d2d00002d7c00007b
:1031dc00003100002920000054680000726f0000cc
:1031ec00747400006c6500002044000069730000da
:1031fc00706c000061790000003200002920000092
:10320c0054680000726f0000747400006c6500005c
:10321c00205400007269000070200000536500000b
:10322c007400000033290000205400006872000074
:10323c006f740000746c0000652000004d69000084
:10324c00736d00006174000063680000007c000076
:10325c002d2d00002d2d00002d420000726100006c
:10326c006b650000204d0000656e0000752d0000a0
:10327c002d2d00002d2d00007c00000031290000b8
:10328c0020420000726100006b65000020440000c9
:10329c0069730000706c000061790000003200005e
:1032ac002920000042720000616b000065200000c4
:1032bc004d61000078200000536500007400000090
:1032cc007c2d00002d2d000053650000747400004f
:1032dc00696e000067730000204d0000656e0000f1
:1032ec00752d00002d2d00002d7c000000310000fc
:1032fc002920000056650000726200006f73000008
:10330c0065000000322900002052000065730000a7
:10331c006574000020560000616c000075650000ab
:10332c000033000029200000416200006f7500008e
:10333c00740000003429000020420000726100007b
:10334c006b650000204c0000696700006874000089
:10335c00205400006872000065730000686f000064
:10336c006c640000007c00002d2d00002d4200003c
:10337c00617400007465000072790000204900003f
:10338c006e6600006f2d00002d2d00007c000000eb
:10339c0031290000205600006f6c000074610000a1
:1033ac006765000000320000292000004375000012
:1033bc0072720000656e000074000000332900007a
:1033cc0020540000656d00007000000034290000de
:1033dc002053000074610000747300000042000070
:1033ec0061740000746500007279000020730000a5
:1033fc007461000074650000002d00002042000084
:10340c006f61000072640000732000004f4b0000dd
:10341c00002d0000204300006f6d00006d270000a0
:10342c007320000055500000007c00002d2d000082
:10343c002d4300006f6d00004275000073200000ea
:10344c00496e0000666f00002d2d00002d7c0000e1
:10345c000031000029200000426f00006172000062
:10346c0064730000204f00006e0000003229000041
:10347c0020450000727200006f72000020520000a4
:10348c006174000065000000332900002044000036
:10349c00617400006120000052610000746500003e
:1034ac00007c00002d2d00002d44000072690000ee
:1034bc007665000072200000436f00006e6600000d
:1034cc00696700002d2d00002d7c000000310000ec
:1034dc00292000004472000069760000657200002b
:1034ec0020530000656c0000656300007400000050
:1034fc00322900002044000072690000766500004b
:10350c0072200000436f00006e66000069670000c7
:10351c00002d00002d2d00002d2d00002d2500006c
:10352c007320000049530000204100004354000068
:10353c0049560000452d00002d2d00002d2d0000ba
:10354c002d2d00000a0000007c2d00002d2d000008
:10355c00447200006976000065720000204c000087
:10356c0069730000742d00002d2d00007c000000fc
:10357c0025640000292000004472000069760000d8
:10358c006572000020250000642000002d20000042
:10359c00257300000a0000007c2d00002d53000054
:1035ac00656c000065630000742000006120000061
:1035bc004472000069760000657200002d2d000039
:1035cc007c0000007c2d00002d2d00002d2d000016
:1035dc00546f0000204300006f6e0000666900000d
:1035ec00672d00002d2d00002d2d00007c0000000b
:1035fc007c2d00002d420000726100006b65000004
:10360c00204c000069670000687400002054000022
:10361c006872000065730000686f00006c64000045
:10362c002d2d00007c0000007c2d00002d2d0000b5
:10363c004769000076650000207400006865000092
:10364c0020760000616c00007565000020610000b0
:10365c0073200000202d00002d2d00007c000000a8
:10366c007c2d00002d2d00002d2d00002d2d000097
:10367c002d2d000030200000746f00002031000060
:10368c00303000002d2d00002d2d00002d2d0000c0
:10369c002d2d00007c000000204200007261000013
:1036ac006b650000204c0000696700006874000026
:1036bc002053000065740000207400006f2000008f
:1036cc0025640000001b00005b3200004a00000073
:1036dc001b5b0000480000002a2a00002a2a000078
:1036ec002a2a00002a2a00002a2a00002a2a00007e
:1036fc002a2a00002a2a00002a2a00002a2a00006e
:10370c002a2a00002a2a00002a2a0000002a000087
:10371c0020200000536f00006674000077610000e9
:10372c00726500002057000072690000747400007c
:10373c00656e000020420000793a00002020000055
:10374c002a0000002a20000020200000416e00000a
:10375c00647200006577000020540000686f000060
:10376c00726e0000626f0000726f000075670000df
:10377c0068200000202a0000002a00002020000001
:10378c0020200000205200006963000068610000e6
:10379c0072640000204a00006f6800006e73000025
:1037ac006f6e000020200000202000002a00000086
:1037bc002a200000202000002020000020200000f3
:1037cc005a610000632000004b6900006c6200002d
:1037dc00757200006e2000002020000020200000e8
:1037ec00202a00000020000020200000202e0000d5
:1037fc002d2e00002020000020200000002e0000b4
:10380c0020200000282f00005e5c00002920000012
:10381c00200000002e200000202800005c2000006a
:10382c002f29000020200000002e00002020000086
:10383c002e2d0000272d00002e200000202000003f
:10384c00002e0000202f0000285f0000495f0000c0
:10385c00295c0000200000002e2000005c200000ed
:10386c0029200000282000002f200000202000002c
:10387c00002e0000202000002f200000202000003f
:10388c005c200000200000002e200000205c0000c6
:10389c00207c0000202f00002020000020000000d1
:1038ac002e200000202000005c7c00002f20000057
:1038bc002020000020200000002e0000202000000e
:1038cc00202f00007c5c0000202000002020000045
:1038dc00002e000020200000202f000059200000a6
:1038ec002020000020200000200000006565000062
:1038fc00707200006f6d00002064000061740000a5
:10390c00612000003d200000256400002f6e0000a7
:04391c0000000000a7
:020000040000fa
:103920000800fa0010079800210798003207980055
:103930000002eb00040f7800080037002e02900010
:1039400014427800ae0290008502e8002507980036
:1039500004407800931707001e0fe8009e027800cd
:103960003e029000848f5200f4ff39003e02900026
:10397000040078000080fa00000006000200fa004f
:10398000889fbe0060c0b300c01e07000002780020
:10399000853e2000850f520000023400e4158100ae
:1039a00005002000c600200007002000860f5200fe
:1039b000878f5a00dc013e00040601000c0037002e
:1039c0001300370042003700730037007a003700d9
:1039d0009b003700f7003700090137001b01370053
:1039e000290137004e01370067013700e900370031
:1039f000d416810084027800e4158100848f52007f
:103a0000be013200e4158100d4168900c6013700da
:103a1000d416810084027800e4158100848f52005e
:103a200002003200e4158100d4168900e03d29002f
:103a30002ef30700f4198100841f78001440290038
:103a4000841f7800def40700e4875700041a810021
:103a5000841f780054412900841f7800d8f407009f
:103a6000e4875700141a8100841f780094422900cb
:103a7000841f7800d2f40700e4875700e043290050
:103a80001af30700c4198100841f7800144029002c
:103a9000841f7800caf40700e4875700d419810016
:103aa000841f780054412900841f7800c4f4070063
:103ab000e4875700e4198100841f780044462900f8
:103ac000841f7800bef40700e48757009601370092
:103ad000d416810084027800e4158100848f52009e
:103ae00002003200e4158100d416890080472900c5
:103af000fef2070060c0b300ff1c07000002780060
:103b0000841f780084482900841f7800acf40700e3
:103b1000e487570070c0b300f71c0700000278006c
:103b2000841f7800544a2900841f7800a4f40700f9
:103b3000e48757000040eb00031d07008004780075
:103b400070c0b300001d07000004780060c0b3001f
:103b5000fd1c070000027800891f7800881f78008c
:103b6000841f7800144c2900841f780094f4070007
:103b7000e8875700b41581000402e800b4158900f5
:103b8000b4158100e50f52005e0134000002eb0025
:103b9000b415890064013700d416810084027800ce
:103ba000e4158100848f520058013200e415810031
:103bb000d41689005c013700d41681008402780095
:103bc000e4158100848f520002003200e415810068
:103bd000d4168900404e2900c4f2070010c0b3007b
:103be000ed1c070000027800841f78004450290073
:103bf000841f780072f40700e487570020c0b300e8
:103c0000e51c070000027800841f78009451290009
:103c1000841f78006af40700e487570030c0b300bf
:103c2000dd1c070000027800841f7800e4522900a0
:103c3000841f780062f40700e48757003a013700d8
:103c4000d416810084027800e4158100848f52002c
:103c500002003200e4158100d41689003054290096
:103c6000a2f2070004138100e00f520002003200ac
:103c7000a05629009df2070024138100e00f520096
:103c80002800320024138100cfa2de00360020007d
:103c900007002000860f5200878f5a0021003e0047
:103ca000040601001e003700020037000a0037003a
:103cb00012003700d05729008cf207003411810020
:103cc000841f780064592900841f78003cf40700a1
:103cd000e487570013003700f05a290083f20700e9
:103ce00034118100841f780064592900841f7800f2
:103cf00033f40700e48757000a003700d05c29003e
:103d00007af2070034118100841f7800945e290044
:103d1000841f78002af40700e48757000100370069
:103d20000000000014138100e00f52000e0032006a
:103d3000106029006df2070014138100e10f52009a
:103d400003003200e20f5200040032000600370088
:103d50004061290065f20700030037003063290045
:103d600062f2070000000000f4128100e00f520030
:103d700002003200106529005cf207003413810054
:103d8000e00f5200e30032004066290057f20700be
:103d9000e5003700d416810084027800e415810024
:103da000848f5200dd003200e4158100d4168900b2
:103db000dd003700d416810084027800e41581000c
:103dc000848f520002003200e4158100d41689006d
:103dd000e211070000027800c4158900706729000d
:103de00042f20700c4158100841f7800246929006d
:103df000841f7800f2f30700e4875700ca003700f9
:103e0000d416810084027800e4158100848f52006a
:103e100002003200e4158100d4168900d411070095
:103e200000027800d4158900b06a29002ff207003b
:103e3000d4158100841f7800846c2900841f7800c9
:103e4000dff30700e4875700b7003700d41681007e
:103e500084027800e4158100848f52000200320051
:103e6000e4158100d41689008d1b0700000278003c
:103e7000841f7800646f2900841f7800d0f3070046
:103e8000e4875700a8003700d41681008402780028
:103e9000e4158100848f520002003200e415810095
:103ea000d4168900d070290010f20700b427220030
:103eb000144278000404a200e04f520002003200d5
:103ec0004071290009f2070084272200144278007b
:103ed0000404a200e04f52000200320010722900d8
:103ee00002f20700a4272200144278000404a20072
:103ef000e04f520002003200e0722900fbf107009f
:103f000094272200144278000404a200e04f5200db
:103f100084003200b0732900f4f1070082003700fa
:103f2000d416810084027800e4158100848f520049
:103f300002003200e4158100d41689000002eb0073
:103f4000040f78000c0037001e0278008402420043
:103f5000443222000482420014027800841f780058
:103f60009e1f780084742900841f780094f3070052
:103f7000e68757001e0fe8001e027800e70f520088
:103f8000f1ff340068003700d41681008402780005
:103f9000e4158100848f520002003200e415810094
:103fa000d4168900c10207008205070000027800cc
:103fb000841f780074752900841f780080f307003f
:103fc000e48757008005070000027800841f78000e
:103fd000b4762900841f780079f30700e48757003e
:103fe0007e05070000027800841f7800d47729003e
:103ff000841f780072f30700e48757007c050700f0
:1040000000027800841f780034792900841f78002a
:104010006bf30700e48757005b100700000278008d
:10402000841f7800647a2900841f780064f30700f5
:10403000e48757005910070000027800841f7800b9
:10404000a47b2900841f78005df30700e4875700f4
:104050005710070000027800841f7800c47c2900f4
:10406000841f780056f30700e487570055100700b7
:1040700000027800841f7800747e2900841f780075
:104080004ff30700e4875700f608070000027800a6
:10409000841f7800a47f2900841f780048f307005c
:1040a000e4875700f408070000027800841f7800b6
:1040b000e4802900841f780041f30700e48757005b
:1040c000f208070000027800841f780004822900ab
:1040d000841f78003af30700e4875700f0080700d0
:1040e00000027800841f780064832900841f780010
:1040f00033f30700e48757000b003700000000008f
:104100000900370000000000070037000000000031
:104110000500370000000000030037000000000029
:104120000100370000000000e42b22001442780058
:10413000e04f5200080032005c0207003416810094
:10414000844278001416810004427800854078008b
:1041500004407800d4000700a42c22001442780008
:10416000e04f52000b00320050020700341681006d
:10417000844278001416810004427800854078005b
:1041800004407800c8000700a52c22000042eb0084
:10419000844a780060c0b300e01c07007315070074
:1041a00000027800e00f5200bc003200f42b220025
:1041b00014427800e04f520046003a0072150700a2
:1041c00000427800052c2200844a7800442b22000b
:1041d00014427800e04f520005003200042c220007
:1041e000144278000402fb00040078004bf1070041
:1041f000042c22009442780024c6b30084cf5200dd
:1042000019003a000002eb00e4158900942c22000a
:1042100014427800e04f520006003200341681004c
:10422000e00f5200030034000002eb003416890056
:1042300025003700942c220014427800e04f5200f1
:104240001e00320034168100e00f52001d003a00bb
:10425000952c22000042eb00844a78000002eb001b
:104260001416890018003700942c2200144278009c
:104270000404a200e04f520006003200042c220089
:10428000144278000402fb000403b10014168900f4
:104290000d003700942c220014427800e04f5200a9
:1042a00009003200042c2200144278000402fb00b2
:1042b0000403b10034168900030037000000000039
:1042c0000100370000000000e52b220014c0b300fd
:1042d000844a7800f42b220014427800e04f520008
:1042e0006e003200f42b220014427800e44f52009a
:1042f0000d003a00281681002315070000427800bf
:10430000e52c220088824200844a780030c0b30045
:104310005e010700f52b22000042eb00844a780082
:104320000002eb0024168900f42b220014427800ce
:10433000e14f520011003a002816810012150700c3
:1043400000427800e52c220088824200844a7800ee
:10435000241681000402e800241689002416810036
:10436000e10f520005003400f52b22000042eb0063
:10437000844a78000002eb0024168900f42b220006
:1043800014427800e24f520011003a0028168100d2
:10439000fd14070000427800e52c220088824200cc
:1043a000844a7800241681000402e800241689005b
:1043b00024168100e10f520005003400f52b220085
:1043c0000042eb00844a78000002eb0024168900ca
:1043d000f42b220014427800e34f520011003a00ff
:1043e00028168100e814070000427800e52c22001e
:1043f00088824200844a7800241681000402e80082
:104400002416890024168100e10f520005003400b3
:10441000f52b22000042eb00844a78000002eb00fa
:1044200024168900f42b220014427800e64f520033
:104430001a003a0028168100d314070000427800c1
:10444000e52c220088824200844a780024168100ec
:104450000402e8002416890024168100e20f5200ad
:104460000e003400c42c2200841f7800948429009c
:10447000841f7800e02c2200adf00700e48757008d
:1044800010c0b30065010700f52b22000042eb00cd
:10449000844a78000002eb00241689004f04be0015
:1044a0000080fa00000006000200fa00004f7800c9
:1044b000114798001e02fb00cfa2de00660020001c
:1044c00007002000860f5200878f5a0029003e0007
:1044d00004060100060037001400370016003700fc
:1044e000180037001a0037001c0037001e00370084
:1044f000c08429007df00700408629007bf007007a
:104500005087290079f007003088290077f00700ec
:104510004089290075f00700408a290073f00700e0
:10452000308b290071f00700190037001e40900001
:104530001c000700160037001e4090003b000700db
:10454000130037001e409000510007001000370094
:104550001e409000870007000d0037001e409000ad
:10456000b00007000a0037001e409000c700070097
:1045700007003700408c29005cf007000002eb00c8
:104580001416890080bb2000b51b07000000000046
:10459000e52b22000042eb00844a78000080fa00fc
:1045a000000006000200fa00004f7800952c22005f
:1045b00014c0b300844a7800808d29004bf00700b6
:1045c000f08e290049f007003090290047f00700dd
:1045d0008091290045f007001e427800e14f52000b
:1045e00003003a0014002000e41589000d00370094
:1045f0001e427800e24f520004003a00f52b2200e0
:1046000014c0b300844a7800060037001e427800c8
:10461000e34f520003003a00f52b220024c0b30000
:10462000844a78000080fa00000006000200fa00c8
:10463000004f7800952c220014c0b300844a780003
:10464000d092290029f007004094290027f00700a4
:104650005095290025f007001e427800e14f5200d6
:1046600003003a0014002000e4158900060037001a
:104670001e427800e24f520003003a00f52b220060
:1046800034c0b300844a78000080fa0000000600bd
:104690000200fa00004f7800952c220014c0b300ed
:1046a000844a78006096290010f00700d09729000e
:1046b0000ef00700809829000cf00700709929007f
:1046c0000af00700009a290008f007001e4278004f
:1046d000e14f520006003a00452b22000042eb0059
:1046e000844a78000002eb00341689001f0037006e
:1046f0001e427800e24f52000a003a006819070093
:1047000000027800841f7800646f2900841f7800fd
:10471000abf10700e48757000002eb003416890074
:10472000120037001e427800e34f520007003a00a3
:10473000de000700af1d070080382100481b07007e
:104740000002eb0034168900080037001e42780092
:10475000e44f520005003a00d40007000040eb008f
:10476000ae0007000002eb00341689000080fa005a
:10477000000006000200fa00004f7800952c22008d
:1047800014c0b300844a7800909b2900d7ef07003b
:10479000e09c2900d5ef0700909d2900d3ef07008a
:1047a000409e2900d1ef0700c09e2900cfef0700ef
:1047b0001e427800e14f520003003a00240020001e
:1047c000e4158900150037001e427800e24f5200c0
:1047d00003003a0044002000e41589000f00370070
:1047e0001e427800e34f520003003a0034002000dc
:1047f000e4158900090037001e427800e44f52009a
:1048000006003a00509f2900b8ef070030a02900a9
:10481000b6ef0700f0a02900b4ef07000080fa000f
:10482000000006000200fa00004f7800952c2200dc
:1048300014c0b300844a7800b0a12900abef070090
:10484000f0a22900a9ef0700c0a32900a7ef0700e5
:10485000a0a42900a5ef07001e427800e14f5200f6
:1048600003003a0094002000e41589000500370099
:104870001e427800e24f520002003a00b4002000cd
:10488000e41589000080fa00000006000600fa0026
:1048900040479800952c220014c0b300844a780049
:1048a00070a5290091ef0700d0a629008fef07001f
:1048b000e0a729008def0700d21e07000042780014
:1048c0000402fb0004007800c41e07000002780008
:1048d000841f7800f4a82900841f780038f10700ad
:1048e000e48757004e429000e14f520018003a0012
:1048f000a0aa29007def070014002000040f780013
:104900000b0037001e007800b41e0700000278007c
:10491000841f78009e1f78009e1f7800e4ab29005a
:10492000841f780026f10700e88757001e0fe80073
:10493000a51e0700000278009e0f5200f1ff3c0008
:10494000f52b220044c0b300844a780031003700c0
:104950004e429000e24f52001f003a0020ad290065
:1049600062ef070080ae290060ef0700140020000e
:10497000140798000f0037001e009000971e0700d4
:1049800000027800841f78001e029000841f7800c7
:104990001e029000841f7800e4ab2900841f780079
:1049a00007f10700e88757001e0290000402e800a4
:1049b00014079800841e0700000278009e029000f1
:1049c000850f5200ecff3c00f52b220054c0b300d1
:1049d000844a78000f0037004e429000e34f5200a7
:1049e0000c003a0031000700e42c22001442780049
:1049f0008442780004cdb30004c242000440780031
:104a0000691e070080bb2000951a07000002eb001a
:104a1000341689000080fa00000006000200fa0047
:104a2000004f78001e427800e04f520009003a0023
:104a3000e0af29002def0700a0b129002bef070000
:104a400060b3290029ef0700f52b220064c0b300f2
:104a5000844a78001e427800e14f52000b003a0071
:104a60006416810004007800fc1b070064168100b6
:104a7000841f780024b52900841f7800d0f0070037
:104a8000e487570080bb2000751a07000080fa00f9
:104a9000000006000000fa00a52c220014c0b3009c
:104aa000844a78000080fa00000006000000fa0046
:104ab00094b62900841f7800c1f007008f87e900b1
:104ac000e4b62900841f7800bdf007008f87e90055
:104ad0000080fa00000006000200fa000002eb006d
:104ae000040f78000002eb00040f78000500370087
:104af000c43f21009e0242000042eb00844a78003d
:104b00001e0fe800940f20009e027800848f520050
:104b1000f7ff34000080fa00000006000000fa00f1
:104b2000a7fe240086ff240065002500440125001f
:104b30008041eb0012c0b30081ccb300c032210031
:104b4000020007000080fa00000006000e00fa00d4
:104b5000000f78002147980032479800434798009b
:104b60003407980045079800560798006707980093
:104b70001e027800e4a78800944f2100be429000f6
:104b8000054a78003e029000a49f8800de02900053
:104b9000c59f88006e029000d49f8800ce029000ce
:104ba000b59f88002e4290000482fb000402d100d1
:104bb00004427800b54f2100844a7800c450210097
:104bc000f4a7880004502100ce429000054a7800e6
:104bd0000002eb0014a888000080fa000000060024
:104be0000800fa0020079800614798000042eb0097
:104bf000044f7800200037002e0290009442780085
:104c0000154798002e0290000402e800240798003f
:104c100084c0b30024479800140037001e4290005f
:104c20001e426a0061426200344798009e4278004a
:104c30000582fb000402d100044f78003e42900040
:104c4000e04f520002003200c4c8b3001e4f6a0099
:104c50001e4290000482fb000402d1001447980019
:104c60002e4290000442e900244798002e42900012
:104c7000e04f5200e9ff3a006e4290000482fb00d0
:104c80000402ea004f22de0004427800ee42900067
:104c90008542e90065479800e04f5200d6ff3a0090
:104ca0001e427800044078000080fa0000000600f0
:104cb0000600fa0040479800c4ae80000442780025
:104cc000f5a780008440780005007800c4ff070045
:104cd0000042780024479800a49f800060c0b30081
:104ce00004000100a49f800050c8b300040001002c
:104cf000a49f80004e40900004000100a59f80000a
:104d0000944f21001442780004407800050001000f
:104d1000a59f8000c4ae8000044278000440780063
:104d2000050001000002eb00040f780008003700c6
:104d3000a59f8000f6a780001e02780004024300b1
:104d40001442780004407800050001001e0fe800be
:104d5000c4ae80009e0f5200f5ff3c00a49f80006f
:104d60002e409000040001008041eb002e41900095
:104d7000ce409000c05d21002202070011002000fb
:104d8000c0502100c70107000080fa0000000600a3
:104d90000a00fa00889fbe00744f21001442780078
:104da000e04f52003a003a00c49f80000400010026
:104db00000027800e40f5200350034000a0037008a
:104dc00014a880000402e80014a88800c49f800092
:104dd0000400010000027800e40f520002003c00d1
:104de0000042eb0037013700b49f8000040001004f
:104df00000427800e64f5200f1ff3a00b49f800075
:104e0000040001000042780055c8b300854f5200ed
:104e10001f003a00b49f80000400010000427800a7
:104e2000a5502100844a7800b49f8000040001004e
:104e300000427800a54f2100844a7800b49f80008a
:104e40000400010000427800754f2100844a780078
:104e5000a450210094427800944f2100144278001d
:104e600084cf52000a00320034a880000402e80017
:104e700034a88800b49f800004000100754f210011
:104e80000042eb00844a78000042eb000d0137003d
:104e9000744f210014427800e04f520008013200a4
:104ea000644f210014427800e04f520023003a0082
:104eb00000000000c49f8000040001000002780090
:104ec000e00f5200fbff3400d49f8000040001007b
:104ed00000427800e14f42001a003a0050020700f9
:104ee000754f21000042eb00844a7800654f210095
:104ef0000042eb00844a7800f7fe0700a4ff070099
:104f000000427800ef003700644f2100144478001d
:104f10008884fb00b49f80000400010000427800f8
:104f2000c53f210089824200844a78000842e80097
:104f3000654f2100844a780003003700000000001c
:104f40000100370000000000c49f80000400010041
:104f500000027800e00f520006003200644f21008a
:104f600094427800744f21001442780084cf52009c
:104f7000e5ff3600744f2100144278008482fb0064
:104f8000644f2100144278000482fb000402e9000f
:104f9000848f5200ca003a00744f210014427800f6
:104fa00084407800c03f21000dff070000427800d8
:104fb000854f2100844a7800644f21001442780014
:104fc0000482fb000402e900c53f21000482420084
:104fd00094427800844f21001442780084cf52001c
:104fe0006f003a000002eb00040f78002200370047
:104ff000c43f21001e02420094427800b44f2100b9
:105000001442780084cf5200160031001e02e800de
:10501000c53f21000482420014427800a55d2100b2
:10502000844a78001e82e800c53f210004824200c5
:1050300014427800b55d2100844a7800e5a780001d
:10504000c43f21001e024200144278000482fb008b
:105050000402420004824200d5ae8000050a7800b6
:105060000300370044a880000402e80044a8880038
:105070001e027800630f4200744f21001442780032
:105080000482fb009e0f5200d9ff3c000450210017
:1050900014427800e04f52003800320000c2eb00aa
:1050a0004447980014c0b30054479800644f21004f
:1050b000144278000482fb000402e900c53f21008d
:1050c000048242001442780064479800640247005a
:1050d00031c0b30004007800c1fe07000042780030
:1050e00024479800a49f800060c0b3000400010022
:1050f000a49f800050c8b30004000100a59f800059
:10510000a44f2100144278000440780005000100fb
:10511000a59f8000944f210014427800044078003d
:1051200005000100a49f800030c0b300040001000e
:10513000a49f800000c0eb0004000100a49f800039
:1051400010c0b30004000100a59f8000644f21003f
:10515000144278000482fb000402e900c63f2100eb
:105160000402430014427800044078000500010066
:10517000a49f80002e40900004000100754f210084
:105180000042eb00844a7800654f21000042eb00aa
:10519000844a780050fe070014c0b300490037006d
:1051a00024a880000402e80024a8880004502100fc
:1051b00014427800e04f52003800320000c2eb0089
:1051c0007447980024c0b300044f9800644f210036
:1051d000144278000482fb000402e900c53f21006c
:1051e0000482420014427800144f9800670247007e
:1051f00031c0b3000400780079fe07000042780057
:1052000034479800a49f800060c0b30004000100f0
:10521000a49f800050c8b30004000100a59f800037
:10522000a44f2100144278000440780005000100da
:10523000a59f8000944f210014427800044078001c
:1052400005000100a49f800030c0b30004000100ed
:10525000a49f800000c0eb0004000100a49f800018
:1052600020c0b30004000100a59f8000644f21000e
:10527000144278000482fb000402e900c63f2100ca
:105280000402430014427800044078000500010045
:10529000a49f80003e40900004000100754f210053
:1052a0000042eb00844a7800654f21000042eb0089
:1052b000844a780008fe07000042eb000100370036
:1052c0000042eb00044078004f04be000080fa006a
:1052d000000006000400fa00004f78001107980053
:1052e0001e0190009e407800c0502100020007007f
:1052f0000080fa00000006000600fa00000f7800a7
:1053000021479800220798002e029000d4ae880012
:105310001e027800e4a29000440c2000848f52000a
:105320003e003c001e02780044a290009e027800dd
:1053300004824200ae429000054a78001e027800c6
:1053400044a29000810c2000040078006b0007004c
:1053500000027800840278001e02780045a29800be
:105360001e02780064a290008402e8001e02780009
:1053700065a298001e027800c4a29000a45d2100de
:10538000144278001e03780085024300844a7800a6
:105390001e02780044a29000810c200004007800d6
:1053a0005600070000027800840278001e02780090
:1053b00045a298001e02780064a290008402e800d2
:1053c0001e02780065a298001e027800c4a2900018
:1053d000b45d2100144278001e037800850243006a
:1053e000844a78001e02780044a29000810c2000bc
:1053f0000400780041000700000278008402780071
:105400001e02780045a298001e02780064a2900057
:105410008402e8001e02780065a298000080fa006d
:10542000000006000400fa00100798001e02900019
:1054300064a29000e00f5200140034001e0290009d
:1054400054a290009e02900004824200144f780003
:105450001e02900054a29000810c200004007800ed
:105460002600070000027800840278001e029000e7
:1054700055a298001e02900064a290008402e900e8
:105480001e02900065a29800020037000042eb0067
:10549000044f78001e427800044078000080fa0033
:1054a000000006000400fa00000f780011079800c1
:1054b0001e0278008002eb0065a298001e027800b0
:1054c0008002eb0045a298001e0278008002eb00eb
:1054d00055a298001e029000e00f52000500320015
:1054e0001e027800820c20008000eb00040078008f
:1054f00065ec07000080fa00000006000600fa00d4
:1055000010079800210798001e029000040fe80081
:105510002e0290009e027800848f52000200390013
:105520000002eb00040f78001e02780004007800ef
:105530000080fa00000006000400fa0020479800ee
:105540000002eb00040f7800130037001e02780001
:10555000044278000041eb0084407800c05d2100e7
:105560007f00070000427800ae429000854f520055
:1055700008003a001e0278000442780022c0b300fe
:1055800084407800c05d210075000700004278006b
:10559000050037001e0fe8001e027800e40f5200dd
:1055a000eaff340044c0b300044078000080fa00f1
:1055b000000006000000fa0014a880000400780033
:1055c0000080fa00000006000000fa0024a8800015
:1055d000040078000080fa00000006000000fa00d5
:1055e00034a88000040078000080fa000000060063
:1055f0000000fa0044a88000040078000080fa004f
:10560000000006000600fa00000f7800214798000d
:1056100032479800434798001e027800040a900021
:105620009e02780004824200ae429000054a780053
:105630001e027800040a90008402e8001e0278002e
:10564000050a98001e027800040a90009e02780065
:1056500004824200be429000054a78001e02780093
:10566000040a90008402e8001e027800050a9800ef
:105670001e027800040a90009e0278000482420014
:10568000ce429000054a78001e027800040a90007d
:105690008402e8001e027800050a98001e027800c5
:1056a000040a9000ee0f5200030034001e0278003e
:1056b0008002eb00050a98000080fa000000060056
:1056c0000600fa00100798004147980052479800da
:1056d0004e429000e44f52000200360044c0b30036
:1056e000444798004e4290000442e8004447980026
:1056f0004e4290000482fb00e322b900040f7800c0
:105700001e029000040a90009e0f52000a003d0005
:105710001e029000040a90001e0252006f0f420009
:105720001e82e8009e02900004824200de42900049
:10573000054a7800080037001e029000040a900015
:105740001e0252000482e8009e0290000482420081
:10575000de429000054a78000080fa000000060052
:105760000600fa0010079800414798005247980039
:105770004e429000e44f52000200360044c0b30095
:10578000444798005e429000e24f5200020036000b
:1057900024c0b300544798004e4290000442e800f1
:1057a000444798004e4290000482fb00e322b90077
:1057b000040f78001e029000040a90009e0f520011
:1057c0000b003d001e029000040a90001e025200d1
:1057d0006f0f42005e4290000482fb001e024200f6
:1057e0009e029000048242001442780009003700b3
:1057f0001e029000040a90009e0252005e42900039
:105800000482fb00048242009e0290000482420057
:1058100014427800044078000080fa00000006007e
:105820000800fa00881f780000000000c49f800074
:105830000400010000027800e30f5200fbff340077
:10584000b49f8000040001000042780044479800a3
:10585000b49f800004000100004278005447980083
:10586000b49f800004000100004278006447980063
:10587000b49f800004000100004278002447980093
:105880006402470031c0b30004007800d4fc070074
:105890000042780034479800ae4290003e429000ab
:1058a00084cf520032003a000002eb00040f78006f
:1058b0002b0037001e027800044278000041eb0004
:1058c00084407800c05d2100a5ff070000427800f9
:1058d000a54f210095427800854f52001f003a00e5
:1058e0006e4490001e0278000442780012c0b3009b
:1058f00084407800c05d210099ff070000427800d5
:10590000844f540015003a005e429000e14f52006f
:1059100007003a001e0278000442780012c0b3006b
:1059200084407800c05d210065ff07001300370048
:105930005e429000e24f520008003a001e027800da
:105940000442780022c0b30084407800c05d21008a
:105950005bff070000000000080037001e0fe80092
:105960001e027800e40f5200d2ff3400030037001b
:1059700024a880000402e80024a888004f047800ce
:105980000080fa00000006000200fa000002eb00ae
:10599000040f78000002eb00040f780005003700c8
:1059a00024a621009e0242000042eb00844a7800b7
:1059b0001e0fe800940f20009e027800848f520092
:1059c000f7ff34000080fa00000006000000fa0033
:1059d000a7202500862125006522250044232500d7
:1059e0008041eb0012c0b30081c2b30020a32100ac
:1059f000020007000080fa00000006000e00fa0016
:105a0000000f7800214798003247980043479800dc
:105a100034079800450798005607980067079800d4
:105a20001e02780014db8800f4b52100be4290000d
:105a3000054a78003e029000d4d28800de02900031
:105a4000f5d288006e02900004d38800ce02900048
:105a5000e5d288002e4290000482fb000402d100af
:105a60000442780015b62100844a780024b721004a
:105a700024db880064b62100ce429000054a7800fd
:105a80000002eb0044db88000080fa000000060002
:105a90000800fa0020079800614798000042eb00d8
:105aa000044f7800200037002e02900094427800c6
:105ab000154798002e0290000402e8002407980081
:105ac00084c0b30024479800140037001e429000a1
:105ad0001e426a0061426200344798009e4278008c
:105ae0000582fb000402d100044f78003e42900082
:105af000e04f520002003200c4c8b3001e4f6a00db
:105b00001e4290000482fb000402d100144798005a
:105b10002e4290000442e900244798002e42900053
:105b2000e04f5200e9ff3a006e4290000482fb0011
:105b30000402ea004f22de0004427800ee429000a8
:105b40008542e90065479800e04f5200d6ff3a00d1
:105b50001e427800044078000080fa000000060031
:105b60000600fa0040479800f4e180000442780003
:105b700025db80008440780005007800c4ff070022
:105b80000042780024479800d4d2800060c0b3005f
:105b900004000100d4d2800050c8b300040001000a
:105ba000d4d280004e40900004000100d5d2800085
:105bb000f4b521001442780004407800050001008b
:105bc000d5d28000f4e180000442780004407800df
:105bd000050001000002eb00040f78000800370008
:105be000d5d2800026db80001e027800040243002c
:105bf0001442780004407800050001001e0fe80000
:105c0000f4e180009e0f5200f5ff3c00d4d28000ea
:105c10002e409000040001008041eb002e419000d6
:105c2000ce40900020c42100220207001100200075
:105c300020b72100c70107000080fa00000006001d
