:020000040000fa
:080000000002040000000000f2
:020000040000fa
:100008001203000012030000120300001203000094
:100018001203000012030000120300001203000084
:100028001203000012030000120300003a4a000005
:10003800120300001203000012030000b64a000079
:10004800120300001203000012030000443f0000e6
:10005800743f0000120300001203000012030000a6
:100068001203000012030000120300001203000034
:100078001203000012030000120300001203000024
:100088001203000012030000120300001203000014
:100098001203000012030000503d0000803d0000e4
:1000a80012030000120300001203000012030000f4
:1000b80012030000120300001203000012030000e4
:1000c80012030000120300001203000012030000d4
:1000d80012030000120300001203000012030000c4
:1000e80012030000120300001203000012030000b4
:1000f80012030000120300001203000012030000a4
:100108001203000012030000120300001203000093
:100118001203000012030000120300001203000083
:100128001203000012030000120300001203000073
:100138001203000012030000120300001203000063
:100148001203000012030000120300001203000053
:100158001203000012030000120300001203000043
:1001680012030000120300005a3b00008a3b000003
:100178001203000012030000120300001203000023
:10018800384100006841000012030000120300001b
:100198001203000012030000120300001203000003
:1001a80012030000120300001203000012030000f3
:1001b80012030000120300001203000012030000e3
:1001c80012030000120300001203000012030000d3
:1001d80012030000120300001203000012030000c3
:1001e80012030000120300001203000012030000b3
:1001f80012030000120300001203000012030000a3
:100208001203000012030000120300001203000092
:100218001203000012030000120300001203000082
:100228001203000012030000120300001203000072
:100238001203000012030000120300001203000062
:100248001203000012030000120300001203000052
:100258001203000012030000120300001203000042
:100268001203000012030000120300001203000032
:0c0278001203000012030000120300003b
:020000040000fa
:10040000af4722000eff27000e0188000000000009
:10041000000020000000e000020032000001200087
:10042000200288000c000700604d2400010020001d
:100430000f000700000020000000e0000200320072
:100440000000020000000000504d0200000000000b
:100450000040da000000fe00203d20000000e00027
:1004600002003200002020009001880000000600f9
:10047000a1028800800078000000eb001a0037001d
:10048000e280400054a0b4009101ba00e280400034
:1004900054a0b4009102ba00e280400054a0b4001d
:1004a0000002eb00472bde00f507b200a601880032
:1004b000602ce10008003a000049eb000201e8006e
:1004c000020039003420ec0002f0a0008301e900b2
:1004d000f9ff3e00040037006128e100010032000e
:1004e0000082eb00040007001101ba000200e000e6
:1004f000e3ff3a000000060004d0a300e20f490029
:100500001c003900810278003549ba000201e80078
:10051000020039003420ec0002f0a0008301e90061
:100520000f0032002549ba000201e800020039003c
:100530003420ec0002f0a0008301e9000800320042
:100540000400e0000600320015c9ba000201e8000c
:10055000020039003420ec0002f0a0008301e90021
:100560008180e80054a0b4000300e000e2ff3a00fc
:10057000000006009102ba00055978008301e900e5
:10058000f7ff3200c82ade00055978008301e90030
:10059000f3ff32000400e000f1ff320011d9ba008d
:1005a000eeff3700023f0400000000000c3f040093
:1005b00000000000163f040000000000203f04007f
:1005c000000000000e3d040000000000183d040083
:1005d00000000000223d0400000000002c3d04004b
:1005e00000000000183b040000000000223b040053
:1005f000000000002c3b040000000000363b04001b
:1006000000000000f640040000000000004104006b
:10061000000000000a410400000000001441040032
:10062000000000000040da000000fe00140020007e
:1006300038003700f4ff2f00360037006011b80093
:100640004f003700889fbe008a9fbe008c1f780035
:10065000a0000700a700330003866c006450e1008f
:10066000240032006420e100270032006150e100e4
:10067000220032006120e100210032008b8542001f
:10068000eb07b1000134b800003ab800080442009a
:1006900089844a00013ab8000030b80088804000e0
:1006a00009014a0004003300000040008180480036
:1006b000020149008b05e900c909dd0083017000d2
:1006c0000100320013002000c814de004814dd00d1
:1006d0004709de001200b200c808de00088470007e
:1006e0005600070001f0a1000cf0a70001f0a000e7
:1006f000890037006120e1008b0032000801be0054
:100700000200be00f7ff37006150e100fcff3a0035
:1007100085003700889fbe008a9fbe00841f780036
:100720006c0007004f00780011003300f0ff2f002d
:10073000838f6c0006003b00040565000a00a700db
:100740000800370009f0a60010002000080037005c
:10075000820f5400838f5c000300390010002000da
:1007600001003e000000200009f0a7000000ea00a0
:100770004f05be004f04be000000e0000000060070
:10078000889fbe008a9fbe00008270000402710034
:1007900004827100260032000004be000200be0088
:1007a0006011b8006b092000950220000182cf0083
:1007b0000a0039000541b1000082cf00070039006e
:1007c0000541b1000982cf00040039000541b100a4
:1007d0000882cf00010039000541b10005425200f6
:1007e000120032000a003b00828171006101640046
:1007f0008100d1000080d3008984d3000884d30015
:100800008b05e8000442e800f7ff3a0007003700d4
:100810000804440089844c0000004800818048009e
:100820008b05e9000442e900f9ff3a0003000700e4
:100830004f05be004f04be000000060081002000ee
:10084000618055000b003d000b00200061fe2f0071
:100850000100e1001d00340082817100610164002b
:100860008904d1000884d3000000e800faff3a00b0
:10087000710020006100640003007000020060004d
:100880000900320061044400e0844c000988a5009e
:10089000050032008b05e8006808e10002003a001c
:1008a0008904d1000884d300f20f20000258e1002f
:1008b00005003d00c75ddd00f907b20089807500c5
:1008c00008007800000006000bf827008b00780075
:1008d000000005000004be00160007000003be0073
:1008e0000405be000200be0012000700844f750020
:1008f000000006000200be006450e1000500360062
:100900006420e100020036000968a30001003a00fb
:100910000800be000160a0004f0678004f05be0031
:100920004f04be0000000600f0ff2f00f1ff27007b
:10093000f9ff3700c70ade00f107b200f50fb20079
:1009400008003200e1cf4200020032000170a00036
:1009500024000500810f700001003200040805002a
:1009600044000500810f700002003a0014000500e9
:100970008502e9000000400081c04800fcff3b0008
:100980000170a000240005008001780002003700fb
:10099000815978000201e9000200e000fcff3a0002
:1009a00000000600889fbe000004be00050037005e
:1009b0000000fb008900780019000700e10f4000eb
:1009c00004003200384078000004e000f8ff3a00ec
:1009d0000000eb004f04be0000000600881f7800f6
:1009e000212e2200efff070000047800212e2200b4
:1009f000a00020000a000700080078004f047800db
:100a0000000006000000fa0068815700cfb8970088
:100a1000202e22004e0007000080fa000000060091
:100a2000889fbe0001047800b80090008084eb002d
:100a30000118a3003a003200180190000198a300a9
:100a400002003a000200e00035003a000190a000e8
:100a50003104980080047800f90fb2000200e00031
:100a600002003a0028009000000c7800ea8f540041
:100a700005003a000178a30003003a0088007800de
:100a8000d0002000e6ff070018009000d80090007a
:100a9000810f50000b0032000000e80010049800a5
:100aa0001800780009487800000ce80011c0b30075
:100ab000e034220001487800ea8f540018003a0020
:100ac00005003700880078000940780073030700ac
:100ad0008004780012003700380090000088a300de
:100ae0000f00320018019000a8009000480090000c
:100af000a016070098009000810f500004003200fb
:100b0000380090000003b300300498008084eb00ac
:100b10000000eb001004980028009000000c780002
:100b2000090078004f04be0000000600d0019000cc
:100b3000028151004240a9000300340010017800f6
:100b4000014978000208e800010078000000060072
:100b5000fe874700889fbe008a9fbe008c9fbe0014
:100b60008e1f780080067800d1af9f0092b79f005b
:100b70000007eb003d033700dfa897008100e80085
:100b8000d1af9f0051c2b300814f500003003a0023
:100b90005fa897000006eb0011003700bd00900031
:100ba0000000fb000168a300070032000e0178007e
:100bb000800078000d007800dcff07000000e000f6
:100bc00005003a00290337008d00780094ff0700e4
:100bd000e10f4000250332000e07e8002303370031
:100be0008000780030417800d3c2b300834f5100b9
:100bf0000c00320007003c00edc15100834f510052
:100c00000a003200ebc14100834f51000d003a0051
:100c10000800370003c3b300834f510009003a00b6
:100c2000060037000c30a000edff37000c00a000dc
:100c3000ebff37000c10a000e9ff37000c20a000ec
:100c4000e7ff37000c18a300010032000c00a100e0
:100c50000c38a300010032000c20a1000200fb00b0
:100c60000003b100e90f50000c003e0001017800c4
:100c70000000eb00ea00b900b200fb000103b10084
:100c800000804000820078009201fb000303b10065
:100c9000e98f5100f7ff3600080037000000eb0035
:100ca000a3c2b300834f510004003a001fb1970064
:100cb0004200780092b79f008100e8008001eb00bd
:100cc000a3b79f00e2c2b300914f11000c003a009d
:100cd0000ce0a00064415100d14f1100030032002c
:100ce0000101780003027800090037001fb2970065
:100cf000c402780094b79f00a5b79f008100e80068
:100d00000101780009003700ea22b900048241009d
:100d100082007800b201fb000303b100e98f5100ab
:100d2000f9ff3600a4b79f00f5ff3700b240780006
:100d3000d2af9f00c3c6b30083cf5000250032005e
:100d40000f003c0032c6b30082cf5000a00032003a
:100d500004003c000104e000c90232006b41510074
:100d60000f00370042c6b30082cf50001700320098
:100d70006541410082cf5000b3003a0013003700b4
:100d800032c7b30082cf50001f00320007003c0082
:100d90006441510082cf5000140032000241e8004b
:100da00082cf5000a8003a001300370052c7b300aa
:100db00082cf5000ab0032006341410082cf50002f
:100dc000a1003a00e1d79f000d003700e1d79f0056
:100dd000a6003700010120000c48a30001003200ea
:100de000010028000c867000d0ff3700e1d79f007b
:100df0000c60a0009d003700e1d79f000c50a000c0
:100e00000c70a00099003700e1d79f009fb39700b6
:100e1000c700780097b79f00b1b79f000100e000be
:100e200002003a00e91f2200b9b79f003fb19700c6
:100e30008000eb00010037008100e80081014100e3
:100e40001304e000fcff3a00c1b79f002fb59700e4
:100e50000a00e00005003200cfb597008b0f550067
:100e6000020031008a007800c1b79f00cfb0970020
:100e70000004eb00810f5000010036000104500017
:100e8000680666002b003a00110037003d00900014
:100e90000068a300070032000e0178000102200064
:100ea0000d00780021ff07000000e00006003a0076
:100eb000060037008d00780000022000d8fe0700f1
:100ec000e10f4000010032000e07e8000804e900cd
:100ed0000800e000edff3a000084eb001500370049
:100ee0003d0090000068a30009003200080078006f
:100ef000b000fb00000478000e0178000d007800bf
:100f00000aff07000000e00008003a000f00370069
:100f1000880078003100fb00010478008d00780023
:100f2000bffe0700e10f4000080032000e07e80096
:100f300006003700acb79f00080678003fb4970062
:100f4000cfb497005fb59700efb597000900780020
:100f50008004e9000000e000e1ff3a00b8b79f001c
:100f6000c9b79f00dab79f00ebb79f000c04780069
:100f70002fb697000c00e0003c0232001100370051
:100f80003d0090000068a300070032000e017800c9
:100f9000010220000d007800e4fe07000000e000e0
:100fa00006003a00060037008d007800000220009d
:100fb0009bfe0700e10f4000010032000e07e80031
:100fc0000804e9000800e000edff3a0027023700be
:100fd0009fb297004504780095b79f00cfc4de000c
:100fe000614db9000802be000a03be004822de00bf
:100ff000c828dd0004827000e4d79f000c48a300dd
:10100000090032000404e00007003200e14f420012
:1010100005003200f4d79f0088df9f0022002000e7
:10102000c2b79f0003003700f8d79f0013002000cd
:10103000c3b79f0064fd2f000f0242000402e800c6
:10104000b4b79f0081ff3700e1d79f0065fd2f00f7
:1010500085824700b5b79f0016002000c6b79f00e5
:101060007aff3700e1d79f000c0cb3008c007800aa
:10107000010cb20032003a000c00e00005003d0017
:101080009fb097004105be004104be0091b79f008c
:10109000080037000c48a3000b0032001fb2970075
:1010a0004401be0094b79f000204be004fcdde0095
:1010b0008a057800b8b79f00c9b79f00dab79f00cc
:1010c000ebb79f00090037009fb49700c900780074
:1010d00099b79f00610ab900612bb900b4b79f00ae
:1010e000c5b79f00d6b79f00e7b79f003fb49700f2
:1010f000cfb497005fb59700efb59700e00f5400ad
:10110000e08f5c00e00f5d00e08f5d0022003d009d
:101110003c00b3006022b8006033b80008045200fd
:1011200089845a000a055b008b855b00b8b79f0075
:10113000c9b79f00dab79f00ebb79f0016003700d2
:101140000c00e00004003d001fb497004803be00ff
:101150004802be00050037000c48a300050032001d
:101160001fb497004802be006033b80098b79f00d4
:10117000050037009fb49700c900780099b79f0019
:10118000610ab8006033b800b4b79f00c5b79f00cc
:10119000d6b79f00e7b79f00afb297000500e00009
:1011a0000d003a0016002000a6b79f003fb497003c
:1011b000cfb497005fb59700efb59700e00f5400ec
:1011c000e08f5c00e00f5d00e08f5d000200320008
:1011d0008004eb00a9b79f000c0578000a0cb20050
:1011e0008ab79f0001042000810f550034003200af
:1011f00003003c000a00e00008003200480037000d
:10120000010820008fb59700818f5500140032002f
:10121000010c2000818f550041003a00e22022009d
:1012200011c0b3003202be003203be003fb49700cb
:10123000cfb497005fb59700efb597000440e10089
:1012400005c8e10006d0e10007d8e100330039000d
:101250008140e800f4cf5000f2ff3a002f00370041
:1012600011c0b30004012000050020006033b80065
:101270003fb49700cfb497005fb59700efb59700e4
:101280000440e10005c8e10006d0e10007d8e10014
:1012900022003900490020000402d0008582d200db
:1012a0000683d2008783d2008904e900faff3a005e
:1012b0008140e800f0cf5000edff3a001700370002
:1012c00011c0b30084002000050020006033b80086
:1012d0003fb49700cfb497005fb59700efb5970084
:1012e0000440e10005c8e10006d0e10007d8e100b4
:1012f0000a003900390020000402d0008582d200a3
:101300000683d2008783d2008904e900faff3a00fd
:101310008140e800f5cf5000edff3a00e1d79f0093
:101320006fd597008a00fb00afb597008b8f5000f8
:1013300002003d00ebd79f00040037002fb197005b
:10134000810f510001003d00a1b79f000000e000a7
:1013500003003200e3006600010032000000e900f3
:101360000ce8a30006003200afb19700830f5000d5
:101370000200340003005000010037000000eb00c1
:101380006fd297008400fb008002eb00f5af9f0056
:10139000810f50000200340081005000f1af9f0027
:1013a0000c28a3003c003200610166000c18a30069
:1013b0000f0032003d0090000068a30006003200dc
:1013c000b10220000200e000010032008180e8004c
:1013d0000e0178000d003700b00220000200e0008e
:1013e000010032000080e8008d0078000e00370018
:1013f0000200e000100032003d0090000068a300f1
:10140000070032000e017800010220000d00780074
:10141000c6fd07000000e00006003a0006003700a5
:101420008d007800000220007dfd0700e10f4000e4
:10143000010032000e07e8007fab97000600e000d5
:1014400052003200060478003d0090000068a300be
:10145000070032000e017800010320000d00780023
:10146000b2fd07000000e00006003a000600370069
:101470008d0078000003200069fd0700e10f4000a7
:10148000010032000e07e8000804e900eeff3a0010
:10149000f8af9f003d003700ffab97000700e0006a
:1014a000160032000c38a30014003a00070478003c
:1014b0003d0090000068a300070032000e01780094
:1014c000010220000d00780098fd07000000e000f8
:1014d00006003a00060037008d0078000002200068
:1014e0004ffd0700e10f4000010032000e07e80049
:1014f0000804e900eeff3a00f8af9f0061016600c2
:101500000c18a3000f0032003d0090000068a300fb
:1015100006003200b10220000200e00001003200ab
:101520008180e8000e0178000d003700b002200035
:101530000200e000010032000080e8008d00780029
:101540000e0037000200e000100032003d00900065
:101550000068a300070032000e017800010220009d
:101560000d00780071fd07000000e00006003a0061
:10157000060037008d0078000002200028fd0700db
:10158000e10f4000010032000e07e8002fb4970081
:101590008800e900c308dd006020220000804000d0
:1015a000e0af9f0096003700afb497008904e900d0
:1015b000a9b79f00000420000fb59700800f5500c9
:1015c0006a00320003003c000a00e000080032001c
:1015d00077003700000820008fb59700808f5500f6
:1015e0004c003200000c2000808f550070003a0043
:1015f0000c00e0001e003d006fa897003004be0004
:101600002005be000802be000a03be003fb09700de
:10161000cfb097005fb19700efb197008d01070041
:10162000e0d79f000000fb00cf80de006109b90019
:101630000802be000a03be00ef0107003fb2970098
:10164000cfb297005fb39700efb39700000252004c
:1016500081825a0002035b0083835b00b4b79f0062
:10166000c5b79f00d6b79f00e7b79f00250037009a
:101670000c48a3001a0032003fb29700cfb2970087
:101680006fab97003604be002605be000801be0001
:101690000400be00f4b79f0085bf9f00be00070096
:1016a000e0d79f000000fb00cf80de000801be00f5
:1016b000c90007007fb297008fba9700000252005e
:1016c00081825a000404be006055b800b8b79f007c
:1016d000c9b79f00dab79f00ebb79f00090037003a
:1016e000efac9700190178003fb597001100090091
:1016f0000285d800a2002000110009000280d80055
:10170000e1d79f00efd597000b43b000ebd79f00c8
:1017100027003700d01e22000c58a3000100320021
:10172000c01d22002fb19700c210dd003fb297000c
:10173000cfb297005fb39700efb397008100e90045
:10174000050033008703d1000683d3008582d300d0
:101750000482d300f9ff37006f02620004024000e8
:1017600014427800e4d79f0011003700afb1970012
:10177000e318b9003fb29700cfb297005fb397006c
:10178000efb39700000478000804e9000500330077
:101790008703d1000683d3008582d3000482d3005f
:1017a000f9ff3700674062000043b000e0d79f00b8
:1017b000bd009000efd497000900fb000168a30072
:1017c000070032000e017800800078000d007800dc
:1017d000d6fc07000000e00005003a0005003700d5
:1017e0008d0078008efc0700e10f40000100320000
:1017f0000e07e8006fad970068055500eaaf9f003f
:10180000afb597000b00e00067ff3a000c38a3006b
:10181000160032007fa897000000e000130034009b
:10182000000478003d0090000068a300070032002b
:101830000e017800010220000d007800bbfc0700bb
:101840000000e00006003a00060037008d00780036
:101850000002200072fc0700e10f4000010032008e
:101860000e07e8000804e900eeff3a00dfa8970041
:1018700011407800e0d79f000004e000befc3a0071
:101880000e0078004f0778004f06be004f05be00df
:101890004f04be00ef01b100000006000200fa0094
:1018a000889fbe00a0ff9f000104780038009000d0
:1018b0000068a30033003a00e200600005003a002f
:1018c0000003b30030049800110498000080eb007e
:1018d0002e003700d80490000900e00006003a000e
:1018e00012002000e68057004800900021130700f6
:1018f0001904980023003700a80090000100e000c0
:1019000008003a001135220021049800010c7800eb
:101910002100200051049800110498000030a0001c
:101920003004980018019000a80090004800900032
:1019300010130700280090008080eb00110498002d
:10194000aff8970001487800000ce8002ff89700e6
:10195000ea4f50000b003a00380090000088a300c6
:101960000800320018019000a80090004800900084
:10197000001307000000eb0010049800a80090007e
:10198000010c7800aff897000100fb004f04be0087
:101990000080fa00000006006022b8000602200065
:1019a0000000d0008180d2000482d2008582d20063
:1019b0000000a0000202520083825a00030031009e
:1019c0000202420083824a000000a1000603e900ef
:1019d000f3ff3a0000000600020ab900001bb9003c
:1019e0000200b800810042008100430000000600b0
:1019f000889fbe008a9fbe0030044200b0844a0027
:101a000030054b0090854b006000b1000898be0087
:101a10000a90be000440e10005c8e10006d0e100e4
:101a200007d8e10002003100680040001008e8001b
:101a30004f05be004f04be0000000600889fbe0098
:101a40008a9fbe003004be002005be00041854006a
:101a500005985c0006185d0007985d0011002000e5
:101a60000440e10005c8e10006d0e10007d8e1002c
:101a7000010039008000eb00108810004f05be0007
:101a80004f04be00000006001200fa00889fbe004e
:101a90008a9fbe008c9fbe00e0b79f00f1b79f00f9
:101aa00082bf9f0093bf9f000605be000404be00d6
:101ab0000000eb00d0b79f00c0b79f00b0b79f00f9
:101ac000a0b79f0090b79f000006eb005fb19700a2
:101ad000cfb09700820141003fb097000200e000c4
:101ae00004003d00370007007e805700c0ff07005c
:101af00003003700330007007e805700cfff070048
:101b0000dfb697000d00e0000c0035006fb29700c3
:101b1000ffb297000fbb97009fbb970010002000fb
:101b2000010020006011b800000272008182720082
:101b300002037300838373001b0007000c06e80098
:101b400001042000810f5600e0ff3a000d00e00084
:101b500004003d000802be000a03be007e8057005c
:101b6000a3ff07005fa897000000e00005003a000f
:101b70001fb29700afb297003fb39700cfb3970063
:101b8000090007006fb09700ffb097000fb99700ea
:101b90009fb997004f06be004f05be004f04be0020
:101ba0000080fa00000006000100070000000600a7
:101bb000a4b79f00b5b79f00c6b79f00d7b79f00d7
:101bc000000006004f09de0082817100b3b79f005c
:101bd0004f01de008180400082807000a1b79f002d
:101be0008fb097004f09de00000040000200700037
:101bf00090b79f007fa897004f01de0081804000d2
:101c00008280700081b79f000d0007004f3ade0010
:101c10000000400004007000f0af9f0008000700c3
:101c20000402420085824a0006034b0087834b0072
:101c3000dfff07000802be000a03be000000060026
:101c40002fb29700bfb297004fb39700dfb3970052
:101c500000000600881f780018002000881f780008
:101c600089ff07008f87e9004f0478000000060015
:101c7000801feb0084ff07008f87e900000006004b
:101c8000889fbe008a9fbe00e00f5000e08f580082
:101c9000e00f5900e08f59000c003d006044b8008f
:101ca0006055b8000000540081805c0002015d00b6
:101cb00083815d00180020001500070008003d002a
:101cc000180007000004eb00050037000004eb00db
:101cd0000f00070002003d0012000700180020005e
:101ce000dcff07000800e000060032006022b800b8
:101cf0006033b8000000520081805a0002015b008e
:101d000083815b004f05be004f04be00000006004b
:101d1000e00f5200e08f5a00e00f5b00e08f5b00a5
:101d2000000006006044b8006055b800040254008a
:101d300085825c0006035d0087835d00000006006d
:101d4000889fbe008a9fbe008c1f7800e00f500065
:101d5000e08f5800e00f5900e08f59000d003d0062
:101d60006044b8006055b8000000540081805c00f9
:101d700002015d0083815d001c0020000820e1005d
:101d800009a8e1000ab0e1000bb8e1000d003d0038
:101d9000080037000006eb00e00f5200e08f5a0009
:101da000e00f5b00e08f5b0006003d006044b80080
:101db0006055b8000402540085825c0006035d0093
:101dc00087835d00aaff07000c00e00006003200d8
:101dd0006022b8006033b8000000520081805a00d1
:101de00002015b0083815b004f0678004f05be0057
:101df0004f04be0000000600889fbe008a9fbe0000
:101e00008c1f78000006eb00e00f5000e08f5800b8
:101e1000e00f5900e08f590007003d006044b80012
:101e20006055b8000000540081805c0002015d0034
:101e300083815d001c002000e00f5200e08f5a00fb
:101e4000e00f5b00e08f5b0007003d006044b800de
:101e50006055b8000402540085825c0006035d00f2
:101e600087835d000c00a2000c0007000c00e0005e
:101e7000060032006022b8006033b8000000520053
:101e800081805a0002015b0083815b004f0678006d
:101e90004f05be004f04be0000000600889fbe0034
:101ea0008a9fbe008c9fbe000404b8000506b800df
:101eb0008904460060854e000606b8000a05460003
:101ec000e0854e000706b8008b054600040eb800fa
:101ed000890446000a854e00e0854d00050eb800d5
:101ee0000a0546008b854e00060eb8008b0546009d
:101ef0000416b8000a0546008b854e000516b8008a
:101f00008b054600041eb8008b0546000800be0085
:101f10000a01be004f06be004f05be004f04be00c2
:041f200000000600b7
:020000040000fa
:101f24000a2d00002d2d00002d2d00005468000006
:101f3400726f0000747400006c65000020420000a1
:101f4400726100006b6500002052000061770000a0
:101f54002044000065620000756700002d2d00001c
:101f64002d2d000000540000687200006f74000002
:101f7400746c0000653100003a200000202000004d
:101f84002020000020250000640a00000054000006
:101f9400687200006f740000746c00006532000009
:101fa4003a2000002020000020200000202500000e
:101fb400640a000000420000726100006b650000ca
:101fc4003a200000202000002020000020200000f3
:101fd4002020000020250000640a00000a00000000
:101fe4000a2d00002d2d00002d2d00005468000046
:101ff400726f0000747400006c65000020420000e1
:10200400726100006b6500002053000069670000e6
:102014006e6100006c2000004465000062750000e1
:10202400672d00002d2d00002d00000042720000dd
:10203400616b0000653a00002020000020200000b1
:102044002020000020200000202000002564000043
:102054000a0000000a2d00002d2d0000536c000022
:102064006176000065200000232500006420000044
:102074004261000074200000566f00006c74000080
:102084006167000065200000496e0000666f000073
:102094002d2d00002d0a000000420000313a0000fe
:1020a400202500006456000020420000323a00005f
:1020b400202500006456000020420000333a00004e
:1020c400202500006456000020420000343a00003d
:1020d40020250000645600000a000000423500007c
:1020e4003a2000002564000056200000423600001b
:1020f4003a2000002564000056200000423700000a
:102104003a200000256400005620000042380000f8
:102114003a20000025640000560a00000042000036
:10212400393a0000202500006456000020420000d7
:10213400313000003a2500006456000020200000e1
:10214400202000002020000020200000202000008b
:102154002020000020200000202000000a000000b1
:102164000a4300006f6d00006d73000020770000cb
:102174006974000068200000424d00004d200000fa
:1021840061720000652000006e6f0000206c00008a
:102194006f6e000067650000722000006f6e000023
:1021a4006c6900006e650000000a00002d2d00001f
:1021b4002d2d0000536c00006176000065200000a6
:1021c4002325000064200000426100007420000008
:1021d400546500006d700000204900006e66000028
:1021e4006f2d00002d2d00002d2000000a0000009e
:1021f400423100003a20000025640000462000001f
:10220400423200003a20000020250000644600000d
:1022140020420000333a0000202000002564000022
:1022240046200000423400003a200000202500002f
:10223400644600000a000000423500003a20000015
:102244002564000046200000423600003a200000c9
:10225400202500006446000020420000373a0000b8
:1022640020200000256400004620000042380000c1
:102274003a20000020250000644600000a00000007
:10228400423900003a200000256400004620000086
:1022940042310000303a000020250000644600006e
:1022a400202000002020000020200000202000002a
:1022b400202000002020000020200000202000001a
:1022c400202000000a0000000a2d00002d2d00002f
:1022d4002d4200004d4d0000205000006f7700009b
:1022e4006572000020530000696700006e61000001
:1022f4006c2000004465000062750000672d00003a
:102304002d2d00002d000000424d00004d41000025
:10231400444300005b3000005d3a000020200000d0
:102324002020000020200000256400000a00000096
:10233400424d00004d410000444300005b31000069
:102344005d3a000020200000202000002020000032
:10235400256400000a000000424d00004d410000c9
:10236400444300005b3200005d3a0000202000007e
:102374002020000020200000256400000a00000046
:10238400424d00004d410000444300005b33000017
:102394005d3a0000202000002020000020200000e2
:1023a400256400000a0000000a2d00002d2d000005
:1023b4002d460000617500006c740000205200007e
:1023c400657000006f720000746900006e670000a1
:1023d4002f520000656300006f76000065720000f4
:1023e400792000004d6f0000646500002d2d000071
:1023f4002d2d0000000a00002d2d00002d2d0000c1
:102404004d43000053200000464100004c5500009d
:10241400542d00002d2d00002d0000004c6f0000f5
:1024240077200000566f00006c74000061670000a4
:102434006520000046610000756c000074200000f7
:102444006f6e0000204200004d4d00000046000069
:10245400617500006c740000696e00006720000064
:10246400426100007474000065720000792000006d
:10247400697300003a200000256400000a0000008f
:10248400486900006768000020540000656d000082
:1024940070650000726100007475000072650000d0
:1024a40020460000617500006c740000206f00007d
:1024b4006e200000424d00004d000000436f0000fc
:1024c4006d6d0000756e00006963000061740000aa
:1024d400696f00006e730000204600006175000003
:1024e4006c740000206f00006e200000424d00005c
:1024f4004d00000046610000756c00007469000026
:102504006e670000204d00006f640000756c0000d1
:1025140065200000697300003a2000002564000073
:102524000a0000000a2d00002d2d00002d5300008c
:102534004153000020460000414c00005554000067
:102544002d2d00002d2d0000000a00002d2d00006f
:102554002d2d00004444000053200000464100009b
:102564004c550000542d00002d2d00002d000000be
:102574000a2d00002d2d00002d50000044550000b0
:1025840020460000414c0000555400002d2d000051
:102594002d2d0000005300007461000074650000dc
:1025a400204f00006e20000045430000552000002d
:1025b4005374000061740000652000004d61000048
:1025c40063680000696e0000650000005468000044
:1025d400652000004375000072720000656e000003
:1025e4007420000053740000617400006520000032
:1025f4004973000020250000640a00000046000022
:10260400617500006c74000020560000616c0000cd
:1026140075650000204f00006e2000005374000018
:1026240061740000652000004d61000063680000d3
:10263400696e000065000000546800006520000019
:102644004375000072720000656e00007420000083
:1026540046610000756c0000742000004f6e00009d
:1026640020540000686500002053000074610000dd
:1026740074650000204d000061630000686900007b
:102684006e650000204900007320000025640000ee
:102694000a00000054680000652000007265000014
:1026a4007365000074200000766100006c75000002
:1026b400652000006973000020250000640a000002
:0426c4000000000012
:020000040000fa
:1026c8000200fa000000eb00000f78000000eb00a9
:1026d800000f780005003700000d21001e004000a3
:1026e8008040eb00014878001e0fe800900f2000a2
:1026f8009e007800808f5000f7ff34000080fa00b9
:10270800000006000e00fa00000f7800214798002c
:1027180032479800434798003407980045079800c7
:1027280056079800670798009e007800818e8800f9
:10273800d01c2100be40900001487800be009000e7
:1027480041868800de00900061868800ee009000d7
:1027580071868800ce009000518688002e40900037
:102768000080fb000000d10080407800f01c2100b0
:1027780001487800001e2100908e8800401d21002d
:10278800ce409000014878000000eb00b08e880031
:102798000080fa00000006000800fa0020079800f0
:1027a800614798000040eb00004f78001f00370099
:1027b8002e00900090407800114798002e0090005d
:1027c8000000e8002007980080c0b3002047980068
:1027d800130037001e4090001e40680061406000f2
:1027e800304798001e80fb000000d100004f7800a1
:1027f8003e4090000004e00002003200c0c8b30070
:102808001e4f68001e4090000080fb000000d100b1
:10281800104798002e4090000040e900204798009b
:102828002e4090000004e000eaff3a006e4090005d
:102838000080fb000000ea004f00de000040780046
:10284800ee4090008140e900614798000004e000f4
:10285800d7ff3a001e4078000080fa00000006000a
:102868000600fa0040479800609580008040780094
:10287800908e8000c8ff070020479800418680009e
:1028880060c0b300010001004186800050c8b30059
:1028980001000100418680004e40900001000100c7
:1028a80041868000d01c2100104078000100010002
:1028b800418680006095800000407800010001009a
:1028c8000000eb00000f7800070037004186800009
:1028d800928e80001e0078000000410010407800b1
:1028e800010001001e0fe800609580009e0f500057
:1028f800f6ff3c00418680002e4090000100010058
:102908008041eb002e419000ce409000002b21002a
:10291800f801070011002000001e2100a601070091
:102928000080fa00000006000a00fa00889fbe0036
:10293800b01c2100104078000004e00033003a0089
:102948006086800000000100e40f50002f00340072
:1029580009003700b08e80000000e800b08e8800c3
:102968006086800000000100e40f500002003c0077
:102978000040eb0022013700508680000000010073
:10298800e64f5000f3ff3a00508680000000010037
:1029980051c8b300814f50001c003a005086800097
:1029a80000000100e11d2100804878005086800069
:1029b80000000100e11c210080487800508680005a
:1029c80000000100b11c210080487800e01d2100b2
:1029d80090407800d01c21001040780080cf500033
:1029e8000a003200d08e80000000e800d08e8800f7
:1029f8005086800000000100b01c21008040eb00e0
:102a0800014878000040eb00fd003700b01c2100b1
:102a1800104078000004e000f8003200a01c2100fb
:102a2800104078000004e0001f003a000000000099
:102a380060868000000001000000e000fcff340018
:102a48007086800000000100e14f400018003a0045
:102a58002e020700b01c21008040eb0001487800de
:102a6800a01c21008040eb000148780014ff0700fb
:102a7800adff0700e2003700a01c210010447800d9
:102a88008884fb005086800000000100010d2100b1
:102a980089804000804878008840e800a01c210018
:102aa80001487800030037000000000001003700eb
:102ab8000000000060868000000001000000e000c7
:102ac80006003200a01c210090407800b01c2100b4
:102ad8001040780080cf5000e7ff3600b01c21007e
:102ae800104078008080fb00a01c21001040780076
:102af8000080fb000000e900808f5000bf003a0012
:102b0800b01c21001040780080407800000d2100a2
:102b180021ff0700c11c210080487800a01c21006b
:102b2800104078000080fb000000e900010d210042
:102b38000080400090407800c01c210010407800c0
:102b480080cf50006a003a000000eb00000f7800c8
:102b580022003700000d21001e0040009040780040
:102b6800f01c21001040780080cf50001600310082
:102b78001e00e800010d2100008040009040780010
:102b8800e02a2100014878001e80e800010d21009c
:102b98000080400090407800f02a21000148780029
:102ba800818e8000000d21001e004000104078003a
:102bb8000080fb000000400000804000719580000c
:102bc8000108780003003700e08e80000000e8006c
:102bd800e08e88009e007800638f4000b01c2100c2
:102be800104078000080fb009e0f5000d9ff3c0089
:102bf800401d2100104078000004e000330032003e
:102c080000c0eb004047980010c0b3005047980040
:102c1800a01c2100104078000080fb000000e900a3
:102c2800010d2100008040001040780060479800a6
:102c38006400470031c0b300d7fe07002047980062
:102c48004186800060c0b300010001004186800019
:102c580050c8b3000100010041868000e01c21003b
:102c6800104078000100010041868000d01c21003e
:102c780010407800010001004186800030c0b30098
:102c8800010001004186800000c0eb000100010046
:102c98004186800010c0b300010001004186800019
:102ca800a01c2100104078000080fb000000e90013
:102cb800020d2100000041001040780001000100d1
:102cc800418680002e40900001000100b01c2100c8
:102cd8008040eb0001487800a01c21008040eb00f8
:102ce8000148780076fe070010c0b30044003700a2
:102cf800c08e80000000e800c08e8800401d2100c2
:102d0800104078000004e0003300320000c0eb00ff
:102d18007047980020c0b300004f9800a01c210005
:102d2800104078000080fb000000e900010d210040
:102d38000080400010407800104f9800670047005e
:102d480031c0b30094fe07003047980041868000e8
:102d580060c0b300010001004186800050c8b30084
:102d68000100010041868000e01c2100104078002d
:102d78000100010041868000d01c2100104078002d
:102d8800010001004186800030c0b300010001004d
:102d98004186800000c0eb000100010041868000f0
:102da80020c0b3000100010041868000a01c210062
:102db800104078000080fb000000e900020d2100af
:102dc80000004100104078000100010041868000a9
:102dd8003e40900001000100b01c21008040eb0043
:102de80001487800a01c21008040eb0001487800d1
:102df80033fe07000040eb00010037000040eb0005
:102e08004f04be000080fa00000006000400fa002b
:102e1800004f7800110798001e0190009e4078002e
:102e2800001e2100020007000080fa0000000600d2
:102e38000600fa00000f7800214798002207980042
:102e4800ae009000719588001e007800e0a0900008
:102e5800400c2000808f500038003c001e00780095
:102e680040a090009e00780000804000ae40900096
:102e7800014878001e00780040a09000810c2000d6
:102e880062000700800078001e00780041a09800ca
:102e98001e00780060a090008000e8001e00780006
:102ea80061a098001e00780040a09000e12a21004f
:102eb800914078001e017800000041000148780028
:102ec8001e00780040a09000810c20004f000700f1
:102ed800800078001e00780041a098001e0078004d
:102ee80060a090008000e8001e00780061a09800b3
:102ef8001e00780040a09000f12a2100914078003f
:102f08001e01780000004100014878001e0078008a
:102f180040a09000810c20003c0007008000780051
:102f28001e00780041a098001e00780060a0900064
:102f38008000e8001e00780061a098000080fa0078
:102f4800000006000400fa00100798001e00900018
:102f580060a090000000e000120034001e00900005
:102f680050a090009e00900000804000104f780014
:102f78001e00900050a09000810c20002300070044
:102f8800800078001e00900051a098001e0090005c
:102f980060a090008000e9001e00900061a09800e9
:102fa800020037000040eb00004f78001e40780018
:102fb8000080fa00000006000400fa00000f780004
:102fc800110798001e0078008000eb0061a09800af
:102fd8001e0078008000eb0041a098001e007800d9
:102fe8008000eb0051a098001e0090000000e00057
:102ff800040032001e007800820c20008000eb00e4
:103008005ff607000080fa00000006000600fa00dc
:1030180010079800210798001e009000000fe80094
:103028002e0090009e007800808f5000020039002a
:103038000000eb00000f78001e0078000080fa0006
:10304800000006000400fa00204798000000eb008a
:10305800000f7800110037001e007800004078004b
:103068000041eb0080407800002b21007800070029
:10307800ae409000814f500007003a001e007800d3
:103088000040780022c0b30080407800002b210067
:103098006f000700050037001e0fe8001e007800cb
:1030a800e40f5000ecff340040c0b3000080fa0089
:1030b800000006000000fa00b08e80000080fa00d0
:1030c800000006000000fa00c08e80000080fa00b0
:1030d800000006000000fa00d08e80000080fa0090
:1030e800000006000000fa00e08e80000080fa0070
:1030f800000006000600fa00000f7800214798003b
:1031080032479800434798001e0078000008900056
:103118009e00780000804000ae4090000148780092
:103128001e007800000890008000e8001e0078006b
:10313800010898001e007800000890009e007800a2
:1031480000804000be409000014878001e007800d2
:10315800000890008000e8001e0078000108980030
:103168001e007800000890009e0078000080400053
:10317800ce409000014878001e00780000089000ba
:103188008000e8001e007800010898001e00780002
:1031980000089000ee0f5000030034001e00780075
:1031a8008000eb00010898000080fa00000006008b
:1031b8000600fa0010079800414798005247980007
:1031c8004e409000e44f50000200360040c0b3006b
:1031d800404798004e4090000040e8004047980063
:1031e8004e4090000080fb00e300b900000f78001b
:1031f8001e009000000890009e0f50000a003d003d
:103208001e009000000890001e0050006f0f400044
:103218001e80e8009e00900000804000de40900084
:1032280001487800080037001e0090000008900050
:103238001e0050000080e8009e00900000804000c2
:10324800de409000014878000080fa000000060087
:103258000600fa0010079800414798005247980066
:103268004e409000e44f50000200360040c0b300ca
:10327800404798005e409000e24f50000200360040
:1032880020c0b300504798004e4090000040e8002e
:10329800404798004e4090000080fb00e300b900d2
:1032a800000f78001e009000000890009e0f50004c
:1032b8000b003d001e009000000890001e0050000a
:1032c8006f0f40005e4090000080fb001e00400031
:1032d8009e009000008040001040780009003700f0
:1032e8001e009000000890009e0050005e40900074
:1032f8000080fb00008040009e009000008040009d
:10330800104078000080fa00000006000800fa006b
:10331800881f78000000000060868000000001001f
:10332800e30f5000fcff34005086800000000100cd
:1033380040479800508680000000010050479800e0
:103348005086800000000100604798005086800089
:1033580000000100204798006400470031c0b30016
:103368000dfd070030479800ae4090003e409000a9
:1033780080cf500030003a000000eb00000f7800ca
:10338800290037001e007800004078000041eb005b
:1033980080407800002b2100adff0700e11c2100d0
:1033a80091407800814f50001e003a006e44900012
:1033b8001e0078000040780012c0b30080407800fa
:1033c800002b2100a2ff0700804f540015003a008f
:1033d8005e409000e14f500007003a001e00780060
:1033e8000040780012c0b30080407800002b210014
:1033f8006fff0700130037005e409000e24f500057
:1034080008003a001e0078000040780022c0b3008f
:1034180080407800002b210065ff070000000000b5
:10342800080037001e0fe8001e007800e40f500067
:10343800d4ff340003003700c08e80000000e8008d
:10344800c08e88004f0478000080fa000000060053
:103458000200fa000000eb00000f78000000eb000b
:10346800000f780005003700605321001e0040005f
:103478008040eb00014878001e0fe800900f200004
:103488009e007800808f5000f7ff34000080fa001b
:10349800000006000e00fa00000f7800214798008f
:1034a800324798004347980034079800450798002a
:1034b80056079800670798009e007800b1b1880009
:1034c80030632100be40900001487800be009000a3
:1034d80071a98800de00900091a98800ee00900094
:1034e800a1a98800ce00900081a988002e409000f4
:1034f8000080fb000000d10080407800506321006c
:103508000148780060642100c0b18800a0632100f0
:10351800ce409000014878000000eb00e0b1880040
:103528000080fa00000006000800fa002007980052
:10353800614798000040eb00004f78001f003700fb
:103548002e00900090407800114798002e009000bf
:103558000000e8002007980080c0b30020479800ca
:10356800130037001e4090001e4068006140600054
:10357800304798001e80fb000000d100004f780003
:103588003e4090000004e00002003200c0c8b300d2
:103598001e4f68001e4090000080fb000000d10014
:1035a800104798002e4090000040e90020479800fe
:1035b8002e4090000004e000eaff3a006e409000c0
:1035c8000080fb000000ea004f00de0000407800a9
:1035d800ee4090008140e900614798000004e00057
:1035e800d7ff3a001e4078000080fa00000006006d
:1035f8000600fa004047980090b8800080407800a4
:10360800c0b18000c8ff07002047980071a980005a
:1036180060c0b3000100010071a9800050c8b30068
:103628000100010071a980004e40900001000100d6
:1036380071a980003063210010407800010001006a
:1036480071a9800090b88000004078000100010056
:103658000000eb00000f78000700370071a9800018
:10366800c2b180001e0078000000410010407800c0
:10367800010001001e0fe80090b880009e0f500066
:10368800f6ff3c0071a980002e4090000100010067
:103698008041eb002e419000ce40900060712100e7
:1036a800f80107001100200060642100a60107004e
:1036b8000080fa00000006000a00fa00889fbe0099
:1036c80010632100104078000004e00033003a0045
:1036d80090a9800000000100e40f50002f00340082
:1036e80009003700e0b180000000e800e0b1880080
:1036f80090a9800000000100e40f500002003c0087
:103708000040eb002201370080a980000000010082
:10371800e64f5000f3ff3a0080a980000000010046
:1037280051c8b300814f50001c003a0080a98000a6
:1037380000000100416421008048780080a98000d1
:1037480000000100416321008048780080a98000c2
:1037580000000100116321008048780040642100c6
:1037680090407800306321001040780080cf5000ee
:103778000a00320000b280000000e80000b28800b1
:1037880080a9800000000100106321008040eb0048
:10379800014878000040eb00fd003700106321006d
:1037a800104078000004e000f800320000632100b7
:1037b800104078000004e0001f003a0000000000fc
:1037c80090a98000000001000000e000fcff340028
:1037d800a0a9800000000100e14f400018003a0055
:1037e8002e020700106321008040eb00014878009a
:1037f800006321008040eb000148780014ff0700b7
:10380800adff0700e2003700006321001044780094
:103818008884fb0080a9800000000100615321001a
:1038280089804000804878008840e80000632100d3
:10383800014878000300370000000000010037004d
:103848000000000090a98000000001000000e000d6
:1038580006003200006321009040780010632100c8
:103868001040780080cf5000e7ff36001063210039
:10387800104078008080fb00006321001040780031
:103888000080fb000000e900808f5000bf003a0074
:1038980010632100104078008040780060532100b8
:1038a80021ff070021632100804878000063210080
:1038b800104078000080fb000000e90061532100ff
:1038c800008040009040780020632100104078007c
:1038d80080cf50006a003a000000eb00000f78002b
:1038e80022003700605321001e00400090407800fd
:1038f800506321001040780080cf5000160031003e
:103908001e00e800615321000080400090407800cc
:1039180040712100014878001e80e80061532100b1
:1039280000804000904078005071210001487800e4
:10393800b1b18000605321001e00400010407800a3
:103948000080fb000000400000804000a1b880001b
:10395800010878000300370010b280000000e8007a
:1039680010b288009e007800638f40001063210029
:10397800104078000080fb009e0f5000d9ff3c00eb
:10398800a0632100104078000004e00033003200fa
:1039980000c0eb004047980010c0b30050479800a3
:1039a80000632100104078000080fb000000e9005f
:1039b8006153210000804000104078006047980063
:1039c8006400470031c0b300d7fe070020479800c5
:1039d80071a9800060c0b3000100010071a98000d6
:1039e80050c8b3000100010071a9800040632100a4
:1039f800104078000100010071a9800030632100a7
:103a0800104078000100010071a9800030c0b300a7
:103a18000100010071a9800000c0eb000100010055
:103a280071a9800010c0b3000100010071a98000d5
:103a380000632100104078000080fb000000e900ce
:103a4800625321000000410010407800010001008d
:103a580071a980002e409000010001001063210030
:103a68008040eb0001487800006321008040eb00b3
:103a78000148780076fe070010c0b3004400370004
:103a8800f0b180000000e800f0b18800a0632100d8
:103a9800104078000004e0003300320000c0eb0062
:103aa8007047980020c0b300004f980000632100c1
:103ab800104078000080fb000000e90061532100fd
:103ac8000080400010407800104f980067004700c1
:103ad80031c0b30094fe07003047980071a98000f8
:103ae80060c0b3000100010071a9800050c8b30094
:103af8000100010071a98000406321001040780096
:103b08000100010071a98000306321001040780095
:103b18000100010071a9800030c0b300010001005c
:103b280071a9800000c0eb000100010071a98000ac
:103b380020c0b3000100010071a9800000632100ca
:103b4800104078000080fb000000e900625321006b
:103b580000004100104078000100010071a98000b8
:103b68003e40900001000100106321008040eb00fe
:103b780001487800006321008040eb00014878008c
:103b880033fe07000040eb00010037000040eb0067
:103b98004f04be000080fa00000006000400fa008e
:103ba800004f7800110798001e0190009e40780091
:103bb80060642100020007000080fa00000006008f
:103bc8000600fa00000f78002147980022079800a5
:103bd800ae009000a1b888001e007800e0a0900018
:103be800400c2000808f500038003c001e007800f8
:103bf80040a090009e00780000804000ae409000f9
:103c0800014878001e00780040a09000810c200038
:103c180062000700800078001e00780041a098002c
:103c28001e00780060a090008000e8001e00780068
:103c380061a098001e00780040a09000417121000a
:103c4800914078001e01780000004100014878008a
:103c58001e00780040a09000810c20004f00070053
:103c6800800078001e00780041a098001e007800af
:103c780060a090008000e8001e00780061a0980015
:103c88001e00780040a090005171210091407800fa
:103c98001e01780000004100014878001e007800ed
:103ca80040a09000810c20003c00070080007800b4
:103cb8001e00780041a098001e00780060a09000c7
:103cc8008000e8001e00780061a098000080fa00db
:103cd800000006000400fa00100798001e0090007b
:103ce80060a090000000e000120034001e00900068
:103cf80050a090009e00900000804000104f780077
:103d08001e00900050a09000810c200023000700a6
:103d1800800078001e00900051a098001e009000be
:103d280060a090008000e9001e00900061a098004b
:103d3800020037000040eb00004f78001e4078007a
:103d48000080fa00000006000400fa00000f780066
:103d5800110798001e0078008000eb0061a0980011
:103d68001e0078008000eb0041a098001e0078003b
:103d78008000eb0051a098001e0090000000e000b9
:103d8800040032001e007800820c20008000eb0046
:103d9800fbf207000080fa00000006000600fa00a7
:103da80010079800210798001e009000000fe800f7
:103db8002e0090009e007800808f5000020039008d
:103dc8000000eb00000f78001e0078000080fa0069
:103dd800000006000400fa00204798000000eb00ed
:103de800000f7800110037001e00780000407800ae
:103df8000041eb00804078006071210078000700e6
:103e0800ae409000814f500007003a001e00780035
:103e18000040780022c0b300804078006071210023
:103e28006f000700050037001e0fe8001e0078002d
:103e3800e40f5000ecff340040c0b3000080fa00eb
:103e4800000006000000fa00e0b180000080fa00df
:103e5800000006000000fa00f0b180000080fa00bf
:103e6800000006000000fa0000b280000080fa009e
:103e7800000006000000fa0010b280000080fa007e
:103e8800000006000600fa00000f7800214798009d
:103e980032479800434798001e00780000089000b9
:103ea8009e00780000804000ae40900001487800f5
:103eb8001e007800000890008000e8001e007800ce
:103ec800010898001e007800000890009e00780005
:103ed80000804000be409000014878001e00780035
:103ee800000890008000e8001e0078000108980093
:103ef8001e007800000890009e00780000804000b6
:103f0800ce409000014878001e007800000890001c
:103f18008000e8001e007800010898001e00780064
:103f280000089000ee0f5000030034001e007800d7
:103f38008000eb00010898000080fa0000000600ed
:103f48000600fa0010079800414798005247980069
:103f58004e409000e44f50000200360040c0b300cd
:103f6800404798004e4090000040e80040479800c5
:103f78004e4090000080fb00e300b900000f78007d
:103f88001e009000000890009e0f50000a003d009f
:103f98001e009000000890001e0050006f0f4000a7
:103fa8001e80e8009e00900000804000de409000e7
:103fb80001487800080037001e00900000089000b3
:103fc8001e0050000080e8009e0090000080400025
:103fd800de409000014878000080fa0000000600ea
:103fe8000600fa00100798004147980052479800c9
:103ff8004e409000e44f50000200360040c0b3002d
:10400800404798005e409000e24f500002003600a2
:1040180020c0b300504798004e4090000040e80090
:10402800404798004e4090000080fb00e300b90034
:10403800000f78001e009000000890009e0f5000ae
:104048000b003d001e009000000890001e0050006c
:104058006f0f40005e4090000080fb001e00400093
:104068009e00900000804000104078000900370052
:104078001e009000000890009e0050005e409000d6
:104088000080fb00008040009e00900000804000ff
:10409800104078000080fa00000006000800fa00ce
:1040a800881f78000000000090a98000000001002f
:1040b800e30f5000fcff340080a9800000000100dd
:1040c8004047980080a980000000010050479800f0
:1040d80080a98000000001006047980080a9800046
:1040e80000000100204798006400470031c0b30079
:1040f8000dfd070030479800ae4090003e4090000c
:1041080080cf500030003a000000eb00000f78002c
:10411800290037001e007800004078000041eb00bd
:104128008040780060712100adff070041632100e5
:1041380091407800814f50001e003a006e44900074
:104148001e0078000040780012c0b300804078005c
:1041580060712100a2ff0700804f540015003a004b
:104168005e409000e14f500007003a001e007800c2
:104178000040780012c0b3008040780060712100d0
:104188006fff0700130037005e409000e24f5000b9
:1041980008003a001e0078000040780022c0b300f2
:1041a800804078006071210065ff07000000000072
:1041b800080037001e0fe8001e007800e40f5000ca
:1041c800d4ff340003003700f0b180000000e8009d
:1041d800f0b188004f0478000080fa000000060063
:1041e8000200fa000000eb00000f78000000eb006e
:1041f800000f780005003700807521001e00400080
:104208008040eb00014878001e0fe800900f200066
:104218009e007800808f5000f7ff34000080fa007d
:10422800000006000e00fa00000f780021479800f1
:10423800324798004347980034079800450798008c
:1042480056079800670798009e007800c1c288004a
:1042580050852100be40900001487800be009000c3
:1042680081ba8800de009000a1ba8800ee009000b4
:10427800b1ba8800ce00900091ba88002e40900014
:104288000080fb000000d10080407800708521008c
:104298000148780080862100d0c28800c0852100ae
:1042a800ce409000014878000000eb00f0c2880082
:1042b8000080fa00000006000800fa0020079800b5
:1042c800614798000040eb00004f78001f0037005e
:1042d8002e00900090407800114798002e00900022
:1042e8000000e8002007980080c0b300204798002d
:1042f800130037001e4090001e40680061406000b7
:10430800304798001e80fb000000d100004f780065
:104318003e4090000004e00002003200c0c8b30034
:104328001e4f68001e4090000080fb000000d10076
:10433800104798002e4090000040e9002047980060
:104348002e4090000004e000eaff3a006e40900022
:104358000080fb000000ea004f00de00004078000b
:10436800ee4090008140e900614798000004e000b9
:10437800d7ff3a001e4078000080fa0000000600cf
:104388000600fa0040479800a0c9800080407800e5
:10439800d0c28000c8ff07002047980081ba80007b
:1043a80060c0b3000100010081ba800050c8b300aa
:1043b8000100010081ba80004e4090000100010018
:1043c80081ba80005085210010407800010001006a
:1043d80081ba8000a0c98000004078000100010077
:1043e8000000eb00000f78000700370081ba80005a
:1043f800d2c280001e007800000041001040780002
:10440800010001001e0fe800a0c980009e0f5000a7
:10441800f6ff3c0081ba80002e40900001000100a8
:104428008041eb002e419000ce4090008093210007
:10443800f80107001100200080862100a60107006e
:104448000080fa00000006000a00fa00889fbe00fb
:1044580030852100104078000004e00033003a0065
:10446800a0ba800000000100e40f50002f003400c3
:1044780009003700f0c280000000e800f0c28800a0
:10448800a0ba800000000100e40f500002003c00c8
:104498000040eb002201370090ba800000000100c4
:1044a800e64f5000f3ff3a0090ba80000000010088
:1044b80051c8b300814f50001c003a0090ba8000e8
:1044c80000000100618621008048780090ba8000d1
:1044d80000000100618521008048780090ba8000c2
:1044e80000000100318521008048780060862100a5
:1044f80090407800508521001040780080cf50000f
:104508000a00320010c380000000e80010c38800d1
:1045180090ba800000000100308521008040eb0047
:10452800014878000040eb00fd003700308521008d
:10453800104078000004e000f800320020852100d7
:10454800104078000004e0001f003a00000000005e
:10455800a0ba8000000001000000e000fcff340069
:10456800b0ba800000000100e14f400018003a0096
:104578002e020700308521008040eb0001487800ba
:10458800208521008040eb000148780014ff0700d7
:10459800adff0700e20037002085210010447800b5
:1045a8008884fb0090ba800000000100817521001a
:1045b80089804000804878008840e80020852100f4
:1045c80001487800030037000000000001003700b0
:1045d80000000000a0ba8000000001000000e00018
:1045e80006003200208521009040780030852100a7
:1045f8001040780080cf5000e7ff3600308521005a
:10460800104078008080fb00208521001040780051
:104618000080fb000000e900808f5000bf003a00d6
:104628003085210010407800804078008075210096
:1046380021ff07004185210080487800208521005e
:10464800104078000080fb000000e900817521001f
:10465800008040009040780040852100104078009c
:1046680080cf50006a003a000000eb00000f78008d
:1046780022003700807521001e004000904078001d
:10468800708521001040780080cf5000160031005e
:104698001e00e800817521000080400090407800ed
:1046a80060932100014878001e80e8008175210090
:1046b8000080400090407800709321000148780005
:1046c800c1c28000807521001e00400010407800a3
:1046d8000080fb000000400000804000b1c980005d
:1046e800010878000300370020c380000000e800bc
:1046f80020c388009e007800638f40003085210029
:10470800104078000080fb009e0f5000d9ff3c004d
:10471800c0852100104078000004e000330032001a
:1047280000c0eb004047980010c0b3005047980005
:1047380020852100104078000080fb000000e9007f
:104748008175210000804000104078006047980083
:104758006400470031c0b300d7fe07002047980027
:1047680081ba800060c0b3000100010081ba8000f6
:1047780050c8b3000100010081ba800060852100a3
:10478800104078000100010081ba800050852100a6
:10479800104078000100010081ba800030c0b300e9
:1047a8000100010081ba800000c0eb000100010097
:1047b80081ba800010c0b3000100010081ba8000f6
:1047c80020852100104078000080fb000000e900ef
:1047d80082752100000041001040780001000100ae
:1047e80081ba80002e409000010001003085210030
:1047f8008040eb0001487800208521008040eb00d4
:104808000148780076fe070010c0b3004400370066
:1048180000c380000000e80000c38800c0852100b4
:10482800104078000004e0003300320000c0eb00c4
:104838007047980020c0b300004f980020852100e1
:10484800104078000080fb000000e900817521001d
:104858000080400010407800104f98006700470023
:1048680031c0b30094fe07003047980081ba800039
:1048780060c0b3000100010081ba800050c8b300d5
:104888000100010081ba8000608521001040780095
:104898000100010081ba8000508521001040780095
:1048a8000100010081ba800030c0b300010001009e
:1048b80081ba800000c0eb000100010081ba8000cd
:1048c80020c0b3000100010081ba800020852100ca
:1048d800104078000080fb000000e900827521008c
:1048e80000004100104078000100010081ba8000fa
:1048f8003e40900001000100308521008040eb001f
:1049080001487800208521008040eb0001487800ac
:1049180033fe07000040eb00010037000040eb00c9
:104928004f04be000080fa00000006000400fa00f0
:10493800004f7800110798001e0190009e407800f3
:1049480080862100020007000080fa0000000600af
:104958000600fa00000f7800214798002207980007
:10496800ae009000b1c988001e007800e0a0900059
:10497800400c2000808f500038003c001e0078005a
:1049880040a090009e00780000804000ae4090005b
:10499800014878001e00780040a09000810c20009b
:1049a80062000700800078001e00780041a098008f
:1049b8001e00780060a090008000e8001e007800cb
:1049c80061a098001e00780040a09000619321002b
:1049d800914078001e0178000000410001487800ed
:1049e8001e00780040a09000810c20004f000700b6
:1049f800800078001e00780041a098001e00780012
:104a080060a090008000e8001e00780061a0980077
:104a18001e00780040a0900071932100914078001a
:104a28001e01780000004100014878001e0078004f
:104a380040a09000810c20003c0007008000780016
:104a48001e00780041a098001e00780060a0900029
:104a58008000e8001e00780061a098000080fa003d
:104a6800000006000400fa00100798001e009000dd
:104a780060a090000000e000120034001e009000ca
:104a880050a090009e00900000804000104f7800d9
:104a98001e00900050a09000810c20002300070009
:104aa800800078001e00900051a098001e00900021
:104ab80060a090008000e9001e00900061a09800ae
:104ac800020037000040eb00004f78001e407800dd
:104ad8000080fa00000006000400fa00000f7800c9
:104ae800110798001e0078008000eb0061a0980074
:104af8001e0078008000eb0041a098001e0078009e
:104b08008000eb0051a098001e0090000000e0001b
:104b1800040032001e007800820c20008000eb00a8
:104b280097ef07000080fa00000006000600fa0070
:104b380010079800210798001e009000000fe80059
:104b48002e0090009e007800808f500002003900ef
:104b58000000eb00000f78001e0078000080fa00cb
:104b6800000006000400fa00204798000000eb004f
:104b7800000f7800110037001e0078000040780010
:104b88000041eb0080407800809321007800070006
:104b9800ae409000814f500007003a001e00780098
:104ba8000040780022c0b300804078008093210044
:104bb8006f000700050037001e0fe8001e00780090
:104bc800e40f5000ecff340040c0b3000080fa004e
:104bd800000006000000fa00f0c280000080fa0021
:104be800000006000000fa0000c380000080fa0000
:104bf800000006000000fa0010c380000080fa00e0
:104c0800000006000000fa0020c380000080fa00bf
:104c1800000006000600fa00000f780021479800ff
:104c280032479800434798001e007800000890001b
:104c38009e00780000804000ae4090000148780057
:104c48001e007800000890008000e8001e00780030
:104c5800010898001e007800000890009e00780067
:104c680000804000be409000014878001e00780097
:104c7800000890008000e8001e00780001089800f5
:104c88001e007800000890009e0078000080400018
:104c9800ce409000014878001e007800000890007f
:104ca8008000e8001e007800010898001e007800c7
:104cb80000089000ee0f5000030034001e0078003a
:104cc8008000eb00010898000080fa000000060050
:104cd8000600fa00100798004147980052479800cc
:104ce8004e409000e44f50000200360040c0b30030
:104cf800404798004e4090000040e8004047980028
:104d08004e4090000080fb00e300b900000f7800df
:104d18001e009000000890009e0f50000a003d0001
:104d28001e009000000890001e0050006f0f400009
:104d38001e80e8009e00900000804000de40900049
:104d480001487800080037001e0090000008900015
:104d58001e0050000080e8009e0090000080400087
:104d6800de409000014878000080fa00000006004c
:104d78000600fa001007980041479800524798002b
:104d88004e409000e44f50000200360040c0b3008f
:104d9800404798005e409000e24f50000200360005
:104da80020c0b300504798004e4090000040e800f3
:104db800404798004e4090000080fb00e300b90097
:104dc800000f78001e009000000890009e0f500011
:104dd8000b003d001e009000000890001e005000cf
:104de8006f0f40005e4090000080fb001e004000f6
:104df8009e009000008040001040780009003700b5
:104e08001e009000000890009e0050005e40900038
:104e18000080fb00008040009e0090000080400061
:104e2800104078000080fa00000006000800fa0030
:104e3800881f780000000000a0ba80000000010070
:104e4800e30f5000fcff340090ba8000000001001e
:104e58004047980090ba8000000001005047980031
:104e680090ba8000000001006047980090ba800066
:104e780000000100204798006400470031c0b300db
:104e88000dfd070030479800ae4090003e4090006e
:104e980080cf500030003a000000eb00000f78008f
:104ea800290037001e007800004078000041eb0020
:104eb8008040780080932100adff070061852100c4
:104ec80091407800814f50001e003a006e449000d7
:104ed8001e0078000040780012c0b30080407800bf
:104ee80080932100a2ff0700804f540015003a006c
:104ef8005e409000e14f500007003a001e00780025
:104f08000040780012c0b3008040780080932100f0
:104f18006fff0700130037005e409000e24f50001b
:104f280008003a001e0078000040780022c0b30054
:104f3800804078008093210065ff07000000000092
:104f4800080037001e0fe8001e007800e40f50002c
:104f5800d4ff34000300370000c380000000e800dd
:104f680000c388004f0478000080fa0000000600a3
:104f78000200fa000000eb00000f78000000eb00d0
:104f8800000f780005003700a09721001e004000a0
:104f98008040eb00014878001e0fe800900f2000c9
:104fa8009e007800808f5000f7ff34000080fa00e0
:104fb800000006000e00fa00000f78002147980054
:104fc80032479800434798003407980045079800ef
:104fd80056079800670798009e007800d1d388008c
:104fe80070a72100be40900001487800be009000e4
:104ff80091cb8800de009000b1cb8800ee009000d5
:10500800c1cb8800ce009000a1cb88002e40900034
:105018000080fb000000d1008040780090a72100ac
:1050280001487800a0a82100e0d38800e0a721006b
:10503800ce409000014878000000eb0000d48800c2
:105048000080fa00000006000800fa002007980017
:10505800614798000040eb00004f78001f003700c0
:105068002e00900090407800114798002e00900084
:105078000000e8002007980080c0b300204798008f
:10508800130037001e4090001e4068006140600019
:10509800304798001e80fb000000d100004f7800c8
:1050a8003e4090000004e00002003200c0c8b30097
:1050b8001e4f68001e4090000080fb000000d100d9
:1050c800104798002e4090000040e90020479800c3
:1050d8002e4090000004e000eaff3a006e40900085
:1050e8000080fb000000ea004f00de00004078006e
:1050f800ee4090008140e900614798000004e0001c
:10510800d7ff3a001e4078000080fa000000060031
:105118000600fa0040479800b0da80008040780026
:10512800e0d38000c8ff07002047980091cb80009b
:1051380060c0b3000100010091cb800050c8b300eb
:105148000100010091cb80004e4090000100010059
:1051580091cb800070a72100104078000100010069
:1051680091cb8000b0da8000004078000100010097
:105178000000eb00000f78000700370091cb80009b
:10518800e2d380001e007800000041001040780043
:10519800010001001e0fe800b0da80009e0f5000e9
:1051a800f6ff3c0091cb80002e40900001000100ea
:1051b8008041eb002e419000ce409000a0b5210028
:1051c800f801070011002000a0a82100a60107008f
:1051d8000080fa00000006000a00fa00889fbe005e
:1051e80050a72100104078000004e00033003a0086
:1051f800b0cb800000000100e40f50002f00340005
:105208000900370000d480000000e80000d48800be
:10521800b0cb800000000100e40f500002003c0009
:105228000040eb0022013700a0cb80000000010005
:10523800e64f5000f3ff3a00a0cb800000000100c9
:1052480051c8b300814f50001c003a00a0cb800029
:105258000000010081a8210080487800a0cb8000d0
:105268000000010081a7210080487800a0cb8000c1
:105278000000010051a721008048780080a8210083
:105288009040780070a721001040780080cf50002f
:105298000a00320020d480000000e80020d48800f2
:1052a800a0cb80000000010050a721008040eb0047
:1052b800014878000040eb00fd00370050a72100ae
:1052c800104078000004e000f800320040a72100f8
:1052d800104078000004e0001f003a0000000000c1
:1052e800b0cb8000000001000000e000fcff3400ab
:1052f800c0cb800000000100e14f400018003a00d8
:105308002e02070050a721008040eb0001487800da
:1053180040a721008040eb000148780014ff0700f7
:10532800adff0700e200370040a7210010447800d5
:105338008884fb00a0cb800000000100a197210019
:1053480089804000804878008840e80040a7210014
:105358000148780003003700000000000100370012
:1053680000000000b0cb8000000001000000e00059
:105378000600320040a721009040780050a7210085
:105388001040780080cf5000e7ff360050a721007a
:10539800104078008080fb0040a721001040780072
:1053a8000080fb000000e900808f5000bf003a0039
:1053b80050a721001040780080407800a097210075
:1053c80021ff070061a721008048780040a721003d
:1053d800104078000080fb000000e900a197210040
:1053e800008040009040780060a7210010407800bd
:1053f80080cf50006a003a000000eb00000f7800f0
:1054080022003700a09721001e004000904078003d
:1054180090a721001040780080cf5000160031007e
:105428001e00e800a197210000804000904078000d
:1054380080b52100014878001e80e800a19721006e
:10544800008040009040780090b521000148780025
:10545800d1d38000a09721001e00400010407800a2
:105468000080fb000000400000804000c1da80009e
:10547800010878000300370030d480000000e800fd
:1054880030d488009e007800638f400050a7210028
:10549800104078000080fb009e0f5000d9ff3c00b0
:1054a800e0a72100104078000004e000330032003b
:1054b80000c0eb004047980010c0b3005047980068
:1054c80040a72100104078000080fb000000e900a0
:1054d800a1972100008040001040780060479800a4
:1054e8006400470031c0b300d7fe0700204798008a
:1054f80091cb800060c0b3000100010091cb800017
:1055080050c8b3000100010091cb800080a72100a2
:10551800104078000100010091cb800070a72100a5
:10552800104078000100010091cb800030c0b3002a
:105538000100010091cb800000c0eb0001000100d8
:1055480091cb800010c0b3000100010091cb800016
:1055580040a72100104078000080fb000000e9000f
:10556800a2972100000041001040780001000100ce
:1055780091cb80002e4090000100010050a721002f
:105588008040eb000148780040a721008040eb00f4
:105598000148780076fe070010c0b30044003700c9
:1055a80010d480000000e80010d48800e0a7210093
:1055b800104078000004e0003300320000c0eb0027
:1055c8007047980020c0b300004f980040a7210002
:1055d800104078000080fb000000e900a19721003e
:1055e8000080400010407800104f98006700470086
:1055f80031c0b30094fe07003047980091cb80007b
:1056080060c0b3000100010091cb800050c8b30016
:105618000100010091cb800080a721001040780094
:105628000100010091cb800070a721001040780094
:105638000100010091cb800030c0b30001000100df
:1056480091cb800000c0eb000100010091cb8000ed
:1056580020c0b3000100010091cb800040a72100c9
:10566800104078000080fb000000e900a2972100ac
:1056780000004100104078000100010091cb80003b
:105688003e4090000100010050a721008040eb003f
:105698000148780040a721008040eb0001487800cd
:1056a80033fe07000040eb00010037000040eb002c
:1056b8004f04be000080fa00000006000400fa0053
:1056c800004f7800110798001e0190009e40780056
:1056d800a0a82100020007000080fa0000000600d0
:1056e8000600fa00000f780021479800220798006a
:1056f800ae009000c1da88001e007800e0a090009b
:10570800400c2000808f500038003c001e007800bc
:1057180040a090009e00780000804000ae409000bd
:10572800014878001e00780040a09000810c2000fd
:1057380062000700800078001e00780041a09800f1
:105748001e00780060a090008000e8001e0078002d
:1057580061a098001e00780040a0900081b521004b
:10576800914078001e01780000004100014878004f
:105778001e00780040a09000810c20004f00070018
:10578800800078001e00780041a098001e00780074
:1057980060a090008000e8001e00780061a09800da
:1057a8001e00780040a0900091b52100914078003b
:1057b8001e01780000004100014878001e007800b2
:1057c80040a09000810c20003c0007008000780079
:1057d8001e00780041a098001e00780060a090008c
:1057e8008000e8001e00780061a098000080fa00a0
:1057f800000006000400fa00100798001e00900040
:1058080060a090000000e000120034001e0090002c
:1058180050a090009e00900000804000104f78003b
:105828001e00900050a09000810c2000230007006b
:10583800800078001e00900051a098001e00900083
:1058480060a090008000e9001e00900061a0980010
:10585800020037000040eb00004f78001e4078003f
:105868000080fa00000006000400fa00000f78002b
:10587800110798001e0078008000eb0061a09800d6
:105888001e0078008000eb0041a098001e00780000
:105898008000eb0051a098001e0090000000e0007e
:1058a800040032001e007800820c20008000eb000b
:1058b80033ec07000080fa00000006000600fa003a
:1058c80010079800210798001e009000000fe800bc
:1058d8002e0090009e007800808f50000200390052
:1058e8000000eb00000f78001e0078000080fa002e
:1058f800000006000400fa00204798000000eb00b2
:10590800000f7800110037001e0078000040780072
:105918000041eb0080407800a0b521007800070026
:10592800ae409000814f500007003a001e007800fa
:105938000040780022c0b30080407800a0b5210064
:105948006f000700050037001e0fe8001e007800f2
:10595800e40f5000ecff340040c0b3000080fa00b0
:10596800000006000000fa0000d480000080fa0061
:10597800000006000000fa0010d480000080fa0041
:10598800000006000000fa0020d480000080fa0021
:10599800000006000000fa0030d480000080fa0001
:1059a800000006000600fa00000f78002147980062
:1059b80032479800434798001e007800000890007e
:1059c8009e00780000804000ae40900001487800ba
:1059d8001e007800000890008000e8001e00780093
:1059e800010898001e007800000890009e007800ca
:1059f80000804000be409000014878001e007800fa
:105a0800000890008000e8001e0078000108980057
:105a18001e007800000890009e007800008040007a
:105a2800ce409000014878001e00780000089000e1
:105a38008000e8001e007800010898001e00780029
:105a480000089000ee0f5000030034001e0078009c
:105a58008000eb00010898000080fa0000000600b2
:105a68000600fa001007980041479800524798002e
:105a78004e409000e44f50000200360040c0b30092
:105a8800404798004e4090000040e800404798008a
:105a98004e4090000080fb00e300b900000f780042
:105aa8001e009000000890009e0f50000a003d0064
:105ab8001e009000000890001e0050006f0f40006c
:105ac8001e80e8009e00900000804000de409000ac
:105ad80001487800080037001e0090000008900078
:105ae8001e0050000080e8009e00900000804000ea
:105af800de409000014878000080fa0000000600af
:105b08000600fa001007980041479800524798008d
:105b18004e409000e44f50000200360040c0b300f1
:105b2800404798005e409000e24f50000200360067
:105b380020c0b300504798004e4090000040e80055
:105b4800404798004e4090000080fb00e300b900f9
:105b5800000f78001e009000000890009e0f500073
:105b68000b003d001e009000000890001e00500031
:105b78006f0f40005e4090000080fb001e00400058
:105b88009e00900000804000104078000900370017
:105b98001e009000000890009e0050005e4090009b
:105ba8000080fb00008040009e00900000804000c4
:105bb800104078000080fa00000006000800fa0093
:105bc800881f780000000000b0cb800000000100b2
:105bd800e30f5000fcff3400a0cb80000000010060
:105be80040479800a0cb8000000001005047980073
:105bf800a0cb80000000010060479800a0cb800087
:105c080000000100204798006400470031c0b3003d
:105c18000dfd070030479800ae4090003e409000d0
:105c280080cf500030003a000000eb00000f7800f1
