:020000040000fa
:080000000002040000000000f2
:020000040000fa
:0400080020030000d1
:020000040000fa
:04000c0020030000cd
:020000040000fa
:0400100020030000c9
:020000040000fa
:0400140020030000c5
:020000040000fa
:0400180020030000c1
:020000040000fa
:04001c0020030000bd
:020000040000fa
:0400200020030000b9
:020000040000fa
:0400240020030000b5
:020000040000fa
:0400280020030000b1
:020000040000fa
:04002c0020030000ad
:020000040000fa
:0400300020030000a9
:020000040000fa
:04003400244b000059
:020000040000fa
:0400380020030000a1
:020000040000fa
:04003c00200300009d
:020000040000fa
:040040002003000099
:020000040000fa
:04004400a04b0000cd
:020000040000fa
:040048002003000091
:020000040000fa
:04004c00200300008d
:020000040000fa
:040050002003000089
:020000040000fa
:04005400763f0000f3
:020000040000fa
:04005800a63f0000bf
:020000040000fa
:04005c00200300007d
:020000040000fa
:040060002003000079
:020000040000fa
:040064002003000075
:020000040000fa
:040068002003000071
:020000040000fa
:04006c00200300006d
:020000040000fa
:040070002003000069
:020000040000fa
:040074002003000065
:020000040000fa
:040078002003000061
:020000040000fa
:04007c00200300005d
:020000040000fa
:040080002003000059
:020000040000fa
:040084002003000055
:020000040000fa
:040088002003000051
:020000040000fa
:04008c00200300004d
:020000040000fa
:040090002003000049
:020000040000fa
:040094002003000045
:020000040000fa
:040098002003000041
:020000040000fa
:04009c00200300003d
:020000040000fa
:0400a0008c3d000093
:020000040000fa
:0400a400bc3d00005f
:020000040000fa
:0400a8002003000031
:020000040000fa
:0400ac00200300002d
:020000040000fa
:0400b0002003000029
:020000040000fa
:0400b4002003000025
:020000040000fa
:0400b8002003000021
:020000040000fa
:0400bc00200300001d
:020000040000fa
:0400c0002003000019
:020000040000fa
:0400c4002003000015
:020000040000fa
:0400c8002003000011
:020000040000fa
:0400cc00200300000d
:020000040000fa
:0400d0002003000009
:020000040000fa
:0400d4002003000005
:020000040000fa
:0400d8002003000001
:020000040000fa
:0400dc0020030000fd
:020000040000fa
:0400e00020030000f9
:020000040000fa
:0400e40020030000f5
:020000040000fa
:0400e80020030000f1
:020000040000fa
:0400ec0020030000ed
:020000040000fa
:0400f00020030000e9
:020000040000fa
:0400f40020030000e5
:020000040000fa
:0400f80020030000e1
:020000040000fa
:0400fc0020030000dd
:020000040000fa
:0401000020030000d8
:020000040000fa
:0401040020030000d4
:020000040000fa
:0401080020030000d0
:020000040000fa
:04010c0020030000cc
:020000040000fa
:0401100020030000c8
:020000040000fa
:0401140020030000c4
:020000040000fa
:0401180020030000c0
:020000040000fa
:04011c0020030000bc
:020000040000fa
:0401200020030000b8
:020000040000fa
:0401240020030000b4
:020000040000fa
:0401280020030000b0
:020000040000fa
:04012c0020030000ac
:020000040000fa
:0401300020030000a8
:020000040000fa
:0401340020030000a4
:020000040000fa
:0401380020030000a0
:020000040000fa
:04013c00200300009c
:020000040000fa
:040140002003000098
:020000040000fa
:040144002003000094
:020000040000fa
:040148002003000090
:020000040000fa
:04014c00200300008c
:020000040000fa
:040150002003000088
:020000040000fa
:040154002003000084
:020000040000fa
:040158002003000080
:020000040000fa
:04015c00200300007c
:020000040000fa
:040160002003000078
:020000040000fa
:040164002003000074
:020000040000fa
:040168002003000070
:020000040000fa
:04016c00200300006c
:020000040000fa
:040170009e3b0000b2
:020000040000fa
:04017400ce3b00007e
:020000040000fa
:040178002003000060
:020000040000fa
:04017c00200300005c
:020000040000fa
:040180002003000058
:020000040000fa
:040184002003000054
:020000040000fa
:0401880060410000d2
:020000040000fa
:04018c00904100009e
:020000040000fa
:040190002003000048
:020000040000fa
:040194002003000044
:020000040000fa
:040198002003000040
:020000040000fa
:04019c00200300003c
:020000040000fa
:0401a0002003000038
:020000040000fa
:0401a4002003000034
:020000040000fa
:0401a8002003000030
:020000040000fa
:0401ac00200300002c
:020000040000fa
:0401b0002003000028
:020000040000fa
:0401b4002003000024
:020000040000fa
:0401b8002003000020
:020000040000fa
:0401bc00200300001c
:020000040000fa
:0401c0002003000018
:020000040000fa
:0401c4002003000014
:020000040000fa
:0401c8002003000010
:020000040000fa
:0401cc00200300000c
:020000040000fa
:0401d0002003000008
:020000040000fa
:0401d4002003000004
:020000040000fa
:0401d8002003000000
:020000040000fa
:0401dc0020030000fc
:020000040000fa
:0401e00020030000f8
:020000040000fa
:0401e40020030000f4
:020000040000fa
:0401e80020030000f0
:020000040000fa
:0401ec0020030000ec
:020000040000fa
:0401f00020030000e8
:020000040000fa
:0401f40020030000e4
:020000040000fa
:0401f80020030000e0
:020000040000fa
:0401fc0020030000dc
:020000040000fa
:0402000020030000d7
:020000040000fa
:0402040020030000d3
:020000040000fa
:0402080020030000cf
:020000040000fa
:04020c0020030000cb
:020000040000fa
:0402100020030000c7
:020000040000fa
:0402140020030000c3
:020000040000fa
:0402180020030000bf
:020000040000fa
:04021c0020030000bb
:020000040000fa
:0402200020030000b7
:020000040000fa
:0402240020030000b3
:020000040000fa
:0402280020030000af
:020000040000fa
:04022c0020030000ab
:020000040000fa
:0402300020030000a7
:020000040000fa
:0402340020030000a3
:020000040000fa
:04023800200300009f
:020000040000fa
:04023c00200300009b
:020000040000fa
:040240002003000097
:020000040000fa
:040244002003000093
:020000040000fa
:04024800200300008f
:020000040000fa
:04024c00200300008b
:020000040000fa
:040250002003000087
:020000040000fa
:040254002003000083
:020000040000fa
:04025800200300007f
:020000040000fa
:04025c00200300007b
:020000040000fa
:040260002003000077
:020000040000fa
:040264002003000073
:020000040000fa
:04026800200300006f
:020000040000fa
:04026c00200300006b
:020000040000fa
:040270002003000067
:020000040000fa
:040274002003000063
:020000040000fa
:04027800200300005f
:020000040000fa
:04027c00200300005b
:020000040000fa
:040280002003000057
:020000040000fa
:10040000ef0a22000eff27000e0188000000000006
:10041000000020000000e000020032000001200087
:10042000200288000c000700e038240001002000b2
:100430000f000700000020000000e0000200320072
:100440000000020000000000904d020000000000cb
:100450000040da000000fe00203d20000000e00027
:1004600002003200002020009001880000000600f9
:10047000a1028800800078000000eb001a0037001d
:10048000e280400054a0b4009101ba00e280400034
:1004900054a0b4009102ba00e280400054a0b4001d
:1004a0000002eb00472bde00f507b200a601880032
:1004b000602ce10008003a000049eb000201e8006e
:1004c000020039003420ec0002f0a0008301e900b2
:1004d000f9ff3e00040037006128e100010032000e
:1004e0000082eb000b00070011c3ba001101ba0033
:1004f0000604e00003003a000200e000e0ff3a00da
:1005000000000600f607b200a6028800820078000c
:10051000f5ff370004d0a300e20f49001c003900aa
:10052000810278003549ba000201e8000200390072
:100530003420ec0002f0a0008301e9000f0032003b
:100540002549ba000201e800020039003420ec001d
:1005500002f0a0008301e900080032000400e0007e
:100560000600320015c9ba000201e8000200390095
:100570003420ec0002f0a0008301e9008180e80053
:1005800054a0b4000300e000e2ff3a0000000600bf
:100590009102ba00055978008301e900f7ff3200a3
:1005a000c82ade00055978008301e900f3ff320014
:1005b0000400e000f1ff320011d9ba00eeff37006d
:1005c0003a3f040000000000443f04000000000027
:1005d0004e3f040000000000583f040000000000ef
:1005e000503d0400000000005a3d040000000000df
:1005f000643d0400000000006e3d040000000000a7
:10060000623b0400000000006c3b0400000000009e
:10061000763b040000000000803b04000000000066
:1006200024410400000000002e41040000000000ee
:1006300038410400000000004241040000000000b6
:100640000040da000000fe00889fbe0080047800b1
:1006500060fd80000000e00004003a000e0007008a
:100660000084eb000000e0000800350068fd800019
:100670000900e00005003200090044000600070000
:100680000000e00001003d000084eb00080078005d
:100690004f04be0000000600800078000100e0006a
:1006a00003003a00e0fa210060fd88000000050028
:1006b0000080eb00e20a2200828f500002003e0020
:1006c00061fd88000000eb0000000600140020001f
:1006d00068003700f4ff2f00660037000001be00fd
:1006e0001b0007000470a70003f0a10003f8a3009b
:1006f00013003a006509b10010003200090035000e
:100700006928e10002003500010028000000050012
:1007100000004000818048008502e900fcff3a00ab
:1007200000000600f88f4200050035008100d1006e
:100730000080d3008502e800fcff3a0000000600bc
:100740008000eb00000005006011b8006400370075
:10075000c70ade00f107b200f50fb2000800320050
:10076000e1cf4200020032000170a0002400050029
:10077000810f7000010032000408050044000500ec
:10078000810f700002003a00140005008502e900a4
:100790000000400081c04800fcff3b000170a00049
:1007a00024000500889fbe008a9fbe008c1f780031
:1007b000a0000700a700330003866c006450e1002e
:1007c000240032006420e100270032006150e10083
:1007d000220032006120e100210032008b854200be
:1007e000eb07b1000134b800003ab8000804420039
:1007f00089844a00013ab8000030b800888040007f
:1008000009014a00040033000000400081804800d4
:10081000020149008b05e900c909dd008301700070
:100820000100320013002000c814de004814dd006f
:100830004709de001200b200c808de00088470001c
:100840005600070001f0a1000cf0a70001f0a00085
:10085000890037006120e1008b0032000801be00f2
:100860000200be00f7ff37006150e100fcff3a00d4
:1008700085003700889fbe008a9fbe00841f7800d5
:100880006c0007004f00780011003300f0ff2f00cc
:10089000838f6c0006003b00040565000a00a7007a
:1008a0000800370009f0a6001000200008003700fb
:1008b000820f5400838f5c00030039001000200079
:1008c00001003e000000200009f0a7000000ea003f
:1008d0004f05be004f04be000000e000000006000f
:1008e000889fbe008a9fbe000082700004027100d3
:1008f00004827100260032000004be000200be0027
:100900006011b8006b092000950220000182cf0021
:100910000a0039000541b1000082cf00070039000c
:100920000541b1000982cf00040039000541b10042
:100930000882cf00010039000541b1000542520094
:10094000120032000a003b008281710061016400e4
:100950008100d1000080d3008984d3000884d300b3
:100960008b05e8000442e800f7ff3a000700370073
:100970000804440089844c0000004800818048003d
:100980008b05e9000442e900f9ff3a000300070083
:100990004f05be004f04be0000000600810020008d
:1009a000618055000b003d000b00200061fe2f0010
:1009b0000100e1001d0034008281710061016400ca
:1009c0008904d1000884d3000000e800faff3a004f
:1009d00071002000610064000300700002006000ec
:1009e0000900320061044400e0844c000988a5003d
:1009f000050032008b05e8006808e10002003a00bb
:100a00008904d1000884d300f20f20000258e100cd
:100a100005003d00c75ddd00f907b2008980750063
:100a200008007800000006000bf827008b00780013
:100a3000000005000004be0045ff07000003be00e3
:100a40000405be000200be0041ff0700844f750090
:100a5000000006000200be006450e1000500360000
:100a60006420e100020036000968a30001003a009a
:100a70000800be000160a0004f0678004f05be00d0
:100a80004f04be0000000600f0ff2f00f1ff27001a
:100a9000f9ff3700889fbe008a9fbe008c9fbe0072
:100aa00041f92100a2fc80000200e0000b003a00a6
:100ab00064814000a2fc8800f2fc8800a10098003c
:100ac000e1fc8800214190000204a000a2409800af
:100ad000614190000204a000e240980067044000d9
:100ae0004244de004244dd00e4fc8000e1fa2100e3
:100af000e90a2200818454002d0020001100090021
:100b00008d04d800800678000886e8000c064600b0
:100b10008001eb0002003700130020000b02780078
:100b2000a44090000108a300020032000a00370030
:100b3000120a780014017800a24090000108a30076
:100b4000fbff320088004200810f51000200390093
:100b50000800e00041003d00940578000b00a10072
:100b6000848f5500edff3e00e18f5100eaff3a000f
:100b70008d0f540002003600890f54001300390015
:100b80006141b8006148b900b4ff2f0005002000a2
:100b90000000520081805a00800f5100818f59005f
:100ba000020035006405440009003700e0fa210026
:100bb0001a0b220000055500080545001100090028
:100bc0000985d8008985b900010037000c05780037
:100bd0000a0078009cfe0700e10f400005003a0083
:100be000640544000a00780097fe0700e10f40000a
:100bf0002b003200f1fc800080087800f1fc8000be
:100c0000e481400021419000830f50000200320037
:100c10000204a000010037000204a100a2409800d5
:100c2000640555000a0540000a087800fafc8800af
:100c300041f92100010d7800f2fc8000a2409000f3
:100c40000104a00021419800a04090000104a100ef
:100c5000214098008001eb00b0ff3700e1fc8800e4
:100c6000810f5100070036001101be0002fd88000f
:100c700013fd8800940878000041eb00e1fc80003f
:100c8000a2409800e3fc8000030a7800a440900092
:100c90000104a000214298006400420001003700d6
:100ca0000000eb004f06be004f05be004f04be0023
:100cb000000006000000e000080032006400500060
:100cc000e1fc8000810f500001003100e0fc880051
:100cd000a04090000104a1002140980000000600ff
:100ce000889fbe008a9fbe000004be000900e0008d
:100cf00007003a000000eb000800e0003600320078
:100d000008007800ebff07000000eb00320037001e
:100d10000800e00003003a00090078005dff0700ca
:100d20002d003700640054009005780068f89700a3
:100d30000008a3000200320008007800ddff070071
:100d40000900780053ff0700800478000000eb00e2
:100d50000900e00020003200888f54001b003200a0
:100d600069bd97000905550042d5de00888555000c
:100d7000c2ddde000a0178008b0f5500010036004d
:100d80000b0178004211dd0088007800090078002e
:100d900014000700888f54000e0031004255dd001a
:100da0000a854400880f55000a00360008045500e3
:100db00042c4de004244dd000884440000fd80009f
:100dc00011fd8000008cbe00020037000800780092
:100dd00001003700090078004f05be004f04be0037
:100de000000006008001780002003700b159780049
:100df0000201e9000200e000fcff3a0000000600ea
:100e00008001780002003700815978000201e90072
:100e10000200e000fcff3a0000000600889fbe00d0
:100e20000004be00050037000000fb0089007800c8
:100e300019000700e10f400004003200384078003c
:100e40000004e000f8ff3a000000eb004f04be0091
:100e500000000600881f7800a1f42100efff0700c2
:100e600000047800a1f42100a00020000a0007007f
:100e7000080078004f047800000006000000fa0027
:100e800068815700cfb89700a0f421004e000700fa
:100e90000080fa0000000600889fbe000104780070
:100ea000b80090008084eb000118a3003a003200e3
:100eb000180190000198a30002003a000200e0002f
:100ec00035003a000190a0003104980080047800b9
:100ed000f90fb2000200e00002003a002800900082
:100ee000000c7800ea8f540005003a000178a30056
:100ef00003003a0088007800d0002000e6ff0700d9
:100f000018009000d8009000810f50000b003200b4
:100f10000000e800100498001800780009487800e4
:100f2000000ce80011c0b30040fa2100014878002d
:100f3000ea8f540018003a00050037008800780056
:100f4000094078007303070080047800120037001e
:100f5000380090000088a3000f00320018019000b4
:100f6000a800900048009000cc1507009800900061
:100f7000810f500004003200380090000003b300dd
:100f8000300498008084eb000000eb00100498000f
:100f900028009000000c7800090078004f04be0083
:100fa00000000600d0019000028151004240a900db
:100fb0000300340010017800014978000208e800bd
:100fc0000100780000000600fe874700889fbe00f1
:100fd0008a9fbe008c9fbe008e1f7800800678001e
:100fe000d1af9f0092b79f000007eb003d03370091
:100ff000dfa897008100e800d1af9f0051c2b30085
:10100000814f500003003a005fa897000006eb00f4
:1010100011003700bd0090000000fb000168a30034
:10102000070032000e017800800078000d00780083
:10103000dcff07000000e00005003a00290337004c
:101040008d00780094ff0700e10f40002503320077
:101050000e07e80023033700800078003041780055
:10106000d3c2b300834f51000c00320007003c0094
:10107000edc15100834f51000a003200ebc1410025
:10108000834f51000d003a000800370003c3b3003e
:10109000834f510009003a00060037000c30a000d1
:1010a000edff37000c00a000ebff37000c10a00094
:1010b000e9ff37000c20a000e7ff37000c18a30061
:1010c000010032000c00a1000c38a3000100320026
:1010d0000c20a1000200fb000003b100e90f50004a
:1010e0000c003e00010178000000eb00ea00b900ae
:1010f000b200fb000103b1000080400082007800d4
:101100009201fb000303b100e98f5100f7ff3600a5
:10111000080037000000eb00a3c2b300834f51006a
:1011200004003a001fb197004200780092b79f0078
:101130008100e8008001eb00a3b79f00e2c2b3008a
:10114000914f11000c003a000ce0a00064415100e6
:10115000d14f110003003200010178000302780032
:10116000090037001fb29700c402780094b79f00af
:10117000a5b79f008100e800010178000900370051
:10118000ea22b9000482410082007800b201fb002b
:101190000303b100e98f5100f9ff3600a4b79f00a7
:1011a000f5ff3700b2407800d2af9f00c3c6b3004e
:1011b00083cf5000250032000f003c0032c6b30040
:1011c00082cf5000a000320004003c000104e00087
:1011d000c90232006b4151000f00370042c6b30014
:1011e00082cf5000170032006541410082cf50008d
:1011f000b3003a001300370032c7b30082cf50006b
:101200001f00320007003c006441510082cf5000b3
:10121000140032000241e80082cf5000a8003a00da
:101220001300370052c7b30082cf5000ab0032002a
:101230006341410082cf5000a1003a00e1d79f00f6
:101240000d003700e1d79f00a60037000101200004
:101250000c48a30001003200010028000c86700039
:10126000d0ff3700e1d79f000c60a0009d00370041
:10127000e1d79f000c50a0000c70a000990037002f
:10128000e1d79f009fb39700c700780097b79f00f2
:10129000b1b79f000100e00002003a0069e92100b7
:1012a000b9b79f003fb197008000eb000100370005
:1012b0008100e800810141001304e000fcff3a00d6
:1012c000c1b79f002fb597000a00e000050032006b
:1012d000cfb597008b0f5500020031008a007800cf
:1012e000c1b79f00cfb097000004eb00810f500002
:1012f0000100360001045000680666002b003a0029
:10130000110037003d0090000068a3000700320084
:101310000e017800010220000d00780021ff070077
:101320000000e00006003a00060037008d0078005b
:1013300000022000d8fe0700e10f4000010032004b
:101340000e07e8000804e9000800e000edff3a009d
:101350000084eb00150037003d0090000068a300fa
:101360000900320008007800b000fb00000478009b
:101370000e0178000d0078000aff07000000e00071
:1013800008003a000f003700880078003100fb00a9
:10139000010478008d007800bffe0700e10f4000d7
:1013a000080032000e07e80006003700acb79f00c7
:1013b000080678003fb49700cfb497005fb5970058
:1013c000efb59700090078008004e9000000e00014
:1013d000e1ff3a00b8b79f00c9b79f00dab79f0096
:1013e000ebb79f000c0478002fb697000c00e000cc
:1013f0003c023200110037003d0090000068a3005d
:10140000070032000e017800010220000d00780074
:10141000e4fe07000000e00006003a000600370086
:101420008d007800000220009bfe0700e10f4000c5
:10143000010032000e07e8000804e9000800e0009f
:10144000edff3a00270237009fb29700450478006d
:1014500095b79f00cfc4de00614db9000802be0001
:101460000a03be004822de00c828dd0004827000a6
:10147000e4d79f000c48a300090032000404e000f8
:1014800007003200e14f420005003200f4d79f0010
:1014900088df9f0022002000c2b79f0003003700b2
:1014a000f8d79f0013002000c3b79f0064fd2f00f2
:1014b0000f0242000402e800b4b79f0081ff37002a
:1014c000e1d79f0065fd2f0085824700b5b79f00db
:1014d00016002000c6b79f007aff3700e1d79f00b3
:1014e0000c0cb3008c007800010cb20032003a0002
:1014f0000c00e00005003d009fb097004105be00d4
:101500004104be0091b79f00080037000c48a300bb
:101510000b0032001fb297004401be0094b79f0039
:101520000204be004fcdde008a057800b8b79f00e8
:10153000c9b79f00dab79f00ebb79f0009003700db
:101540009fb49700c900780099b79f00610ab9005d
:10155000612bb900b4b79f00c5b79f00d6b79f00f5
:10156000e7b79f003fb49700cfb497005fb59700ef
:10157000efb59700e00f5400e08f5c00e00f5d00d6
:10158000e08f5d0022003d003c00b3006022b80007
:101590006033b8000804520089845a000a055b00d1
:1015a0008b855b00b8b79f00c9b79f00dab79f0073
:1015b000ebb79f00160037000c00e00004003d0070
:1015c0001fb497004803be004802be000500370064
:1015d0000c48a300050032001fb497004802be006b
:1015e0006033b80098b79f00050037009fb497009c
:1015f000c900780099b79f00610ab8006033b8004d
:10160000b4b79f00c5b79f00d6b79f00e7b79f004c
:10161000afb297000500e0000d003a001600200070
:10162000a6b79f003fb49700cfb497005fb597006f
:10163000efb59700e00f5400e08f5c00e00f5d0015
:10164000e08f5d00020032008004eb00a9b79f002c
:101650000c0578000a0cb2008ab79f000104200034
:10166000810f55003400320003003c000a00e00006
:101670000800320048003700010820008fb59700ad
:10168000818f550014003200010c2000818f55001d
:1016900041003a0062ea210011c0b3003202be00ec
:1016a0003203be003fb49700cfb497005fb59700f8
:1016b000efb597000440e10005c8e10006d0e10065
:1016c00007d8e100330039008140e800f4cf500032
:1016d000f2ff3a002f00370011c0b30004012000d0
:1016e000050020006033b8003fb49700cfb49700e6
:1016f0005fb59700efb597000440e10005c8e10031
:1017000006d0e10007d8e10022003900490020009e
:101710000402d0008582d2000683d2008783d200e3
:101720008904e900faff3a008140e800f0cf500058
:10173000edff3a001700370011c0b300840020000d
:10174000050020006033b8003fb49700cfb4970085
:101750005fb59700efb597000440e10005c8e100d0
:1017600006d0e10007d8e1000a0039003900200066
:101770000402d0008582d2000683d2008783d20083
:101780008904e900faff3a008140e800f5cf5000f3
:10179000edff3a00e1d79f006fd597008a00fb006c
:1017a000afb597008b8f500002003d00ebd79f0034
:1017b000040037002fb19700810f510001003d0058
:1017c000a1b79f000000e00003003200e3006600c4
:1017d000010032000000e9000ce8a300060032001e
:1017e000afb19700830f5000020034000300500097
:1017f000010037000000eb006fd297008400fb006f
:101800008002eb00f5af9f00810f50000200340012
:1018100081005000f1af9f000c28a3003c00320073
:10182000610166000c18a3000f0032003d0090001b
:101830000068a30006003200b10220000200e000b0
:10184000010032008180e8000e0178000d003700b1
:10185000b00220000200e000010032000080e80039
:101860008d0078000e0037000200e000100032000a
:101870003d0090000068a300070032000e017800d0
:10188000010220000d007800c6fd07000000e00006
:1018900006003a00060037008d00780000022000a4
:1018a0007dfd0700e10f4000010032000e07e80057
:1018b0007fab97000600e00052003200060478007b
:1018c0003d0090000068a300070032000e01780080
:1018d000010320000d007800b2fd07000000e000c9
:1018e00006003a00060037008d0078000003200053
:1018f00069fd0700e10f4000010032000e07e8001b
:101900000804e900eeff3a00f8af9f003d00370001
:10191000ffab97000700e000160032000c38a30070
:1019200014003a00070478003d0090000068a3000e
:10193000070032000e017800010220000d0078003f
:1019400098fd07000000e00006003a00060037009e
:101950008d007800000220004ffd0700e10f4000dd
:10196000010032000e07e8000804e900eeff3a002b
:10197000f8af9f00610166000c18a3000f00320051
:101980003d0090000068a30006003200b102200074
:101990000200e000010032008180e8000e017800c2
:1019a0000d003700b00220000200e000010032000c
:1019b0000080e8008d0078000e0037000200e00093
:1019c000100032003d0090000068a30007003200c4
:1019d0000e017800010220000d00780071fd070063
:1019e0000000e00006003a00060037008d00780095
:1019f0000002200028fd0700e10f40000100320036
:101a00000e07e8002fb497008800e900c308dd0046
:101a1000e0e9210000804000e0af9f009600370021
:101a2000afb497008904e900a9b79f000004200023
:101a30000fb59700800f55006a00320003003c008c
:101a40000a00e0000800320077003700000820009c
:101a50008fb59700808f55004c003200000c20009d
:101a6000808f550070003a000c00e0001e003d0021
:101a70006fa897003004be002005be000802be001b
:101a80000a03be003fb09700cfb097005fb1970048
:101a9000efb197008d010700e0d79f000000fb0029
:101aa000cf80de006109b9000802be000a03be0053
:101ab000ef0107003fb29700cfb297005fb39700e6
:101ac000efb397000002520081825a0002035b00cc
:101ad00083835b00b4b79f00c5b79f00d6b79f0054
:101ae000e7b79f00250037000c48a3001a0032001a
:101af0003fb29700cfb297006fab97003604be009d
:101b00002605be000801be000400be00f4b79f0019
:101b100085bf9f00be000700e0d79f000000fb00cc
:101b2000cf80de000801be00c90007007fb2970029
:101b30008fba97000002520081825a000404be004e
:101b40006055b800b8b79f00c9b79f00dab79f00cb
:101b5000ebb79f0009003700efac97001901780040
:101b60003fb59700110009000285d800a2002000af
:101b7000110009000280d800e1d79f00efd597003f
:101b80000b43b000ebd79f002700370050e821003f
:101b90000c58a3000100320040e721002fb197004c
:101ba000c210dd003fb29700cfb297005fb397003d
:101bb000efb397008100e900050033008703d100ef
:101bc0000683d3008582d3000482d300f9ff370057
:101bd0006f0262000402400014427800e4d79f00c4
:101be00011003700afb19700e318b9003fb297007a
:101bf000cfb297005fb39700efb39700000478006f
:101c00000804e900050033008703d1000683d300f0
:101c10008582d3000482d300f9ff37006740620059
:101c20000043b000e0d79f00bd009000efd49700c4
:101c30000900fb000168a300070032000e017800d4
:101c4000800078000d007800d6fc07000000e0005e
:101c500005003a00050037008d0078008efc070073
:101c6000e10f4000010032000e07e8006fad970061
:101c700068055500eaaf9f00afb597000b00e00084
:101c800067ff3a000c38a300160032007fa89700c7
:101c90000000e00013003400000478003d009000d4
:101ca0000068a300070032000e0178000102200046
:101cb0000d007800bbfc07000000e00006003a00c1
:101cc000060037008d0078000002200072fc07003b
:101cd000e10f4000010032000e07e8000804e900af
:101ce000eeff3a00dfa8970011407800e0d79f0090
:101cf0000004e000befc3a000e0078004f077800b8
:101d00004f06be004f05be004f04be00ef01b100fc
:101d1000000006000200fa00889fbe00a0ff9f009e
:101d200001047800380090000068a30033003a00f6
:101d3000e200600005003a000003b30030049800a0
:101d4000110498000080eb002e003700d8049000aa
:101d50000900e00006003a0012002000e68057006b
:101d6000480090004d120700190498002300370026
:101d7000a80090000100e00008003a0071fa21007c
:101d800021049800010c78002100200051049800e3
:101d9000110498000030a000300498001801900051
:101da000a8009000480090003c1207002800900016
:101db0008080eb0011049800aff89700014878008c
:101dc000000ce8002ff89700ea4f50000b003a0093
:101dd000380090000088a30008003200180190002d
:101de000a8009000480090002c1207000000eb00b3
:101df00010049800a8009000010c7800aff897003c
:101e00000100fb004f04be000080fa000000060045
:101e10006022b800060220000000d0008180d200bd
:101e20000482d2008582d2000000a000020252008b
:101e300083825a00030031000202420083824a007a
:101e40000000a1000603e900f3ff3a0000000600cd
:101e5000020ab900001bb9000200b800810042006c
:101e60008100430000000600889fbe008a9fbe00dc
:101e700030044200b0844a0030054b0090854b008e
:101e80006000b1000898be000a90be000440e10066
:101e900005c8e10006d0e10007d8e10002003100ea
:101ea000680040001008e8004f05be004f04be0067
:101eb00000000600889fbe008a9fbe003004be005e
:101ec0002005be000418540005985c0006185d004b
:101ed00007985d00110020000440e10005c8e10002
:101ee00006d0e10007d8e100010039008000eb00d6
:101ef000108810004f05be004f04be000000060011
:101f00001200fa00889fbe008a9fbe008c9fbe0010
:101f1000e0b79f00f1b79f0082bf9f0093bf9f0073
:101f20000605be000404be000000eb00d0b79f0011
:101f3000c0b79f00b0b79f00a0b79f0090b79f00a9
:101f40000006eb005fb19700cfb09700820141001f
:101f50003fb097000200e00004003d00370007009a
:101f60007e805700c0ff07000300370033000700e2
:101f70007e805700cfff0700dfb697000d00e0001e
:101f80000c0035006fb29700ffb297000fbb9700af
:101f90009fbb970010002000010020006011b800d6
:101fa0000002720081827200020373008383730057
:101fb0001b0007000c06e80001042000810f5600fa
:101fc000e0ff3a000d00e00004003d000802be0002
:101fd0000a03be007e805700a3ff07005fa897009a
:101fe0000000e00005003a001fb29700afb2970072
:101ff0003fb39700cfb39700090007006fb0970079
:10200000ffb097000fb997009fb997004f06be0029
:102010004f05be004f04be000080fa00000006001d
:102020000100070000000600a4b79f00b5b79f009d
:10203000c6b79f00d7b79f00000006004f09de001b
:1020400082817100b3b79f004f01de0081804000a4
:1020500082807000a1b79f008fb097004f09de000b
:10206000000040000200700090b79f007fa897001a
:102070004f01de00818040008280700081b79f00a8
:102080000d0007004f3ade00000040000400700021
:10209000f0af9f00080007000402420085824a005a
:1020a00006034b0087834b00dfff07000802be00da
:1020b0000a03be00000006002fb29700bfb29700cf
:1020c0004fb39700dfb3970000000600881f780029
:1020d00018002000881f780089ff07008f87e9001b
:1020e0004f04780000000600801feb0084ff07000b
:1020f0008f87e90000000600889fbe008a9fbe000f
:10210000e00f5000e08f5800e00f5900e08f5900b9
:102110000c003d006044b8006055b8000000540059
:1021200081805c0002015d0083815d001800200059
:102130001500070008003d00180007000004eb0030
:10214000050037000004eb000f00070002003d000f
:102150001200070018002000dcff07000800e00064
:10216000060032006022b8006033b8000000520060
:1021700081805a0002015b0083815b004f05be0035
:102180004f04be0000000600e00f5200e08f5a002e
:10219000e00f5b00e08f5b00000006006044b800c9
:1021a0006055b8000402540085825c0006035d009f
:1021b00087835d0000000600889fbe008a9fbe00e6
:1021c0008c1f7800e00f5000e08f5800e00f59009e
:1021d000e08f59000d003d006044b8006055b80024
:1021e0000000540081805c0002015d0083815d007d
:1021f0001c0020000820e10009a8e1000ab0e1006d
:102200000bb8e1000d003d00080037000006eb00b0
:10221000e00f5200e08f5a00e00f5b00e08f5b00a0
:1022200006003d006044b8006055b8000402540048
:1022300085825c0006035d0087835d00aaff0700be
:102240000c00e000060032006022b8006033b800e5
:102250000000520081805a0002015b0083815b0014
:102260004f0678004f05be004f04be000000060078
:10227000889fbe008a9fbe008c1f78000006eb007e
:10228000e00f5000e08f5800e00f5900e08f590038
:1022900007003d006044b8006055b80000005400dd
:1022a00081805c0002015d0083815d001c002000d4
:1022b000e00f5200e08f5a00e00f5b00e08f5b0000
:1022c00007003d006044b8006055b80004025400a7
:1022d00085825c0006035d0087835d000c00a20020
:1022e0000c0007000c00e000060032006022b8007d
:1022f0006033b8000000520081805a0002015b0088
:1023000083815b004f0678004f05be004f04be007e
:1023100000000600889fbe008a9fbe008c9fbe0002
:102320000404b8000506b8008904460060854e0024
:102330000606b8000a054600e0854e000706b8000c
:102340008b054600040eb800890446000a854e003d
:10235000e0854d00050eb8000a0546008b854e004d
:10236000060eb8008b0546000416b8000a054600a4
:102370008b854e000516b8008b054600041eb8007c
:102380008b0546000800be000a01be004f06be00d5
:0c2390004f05be004f04be000000060018
:020000040000fa
:10239c000a2d00002d2d00002d2d0000546800008a
:1023ac00726f0000747400006c6500002042000025
:1023bc00726100006b650000205200006177000024
:1023cc002044000065620000756700002d2d0000a0
:1023dc002d2d000000540000687200006f74000086
:1023ec00746c0000653100003a20000020200000d1
:1023fc002020000020250000640a0000005400008a
:10240c00687200006f740000746c0000653200008c
:10241c003a20000020200000202000002025000091
:10242c00640a000000420000726100006b6500004d
:10243c003a20000020200000202000002020000076
:10244c002020000020250000640a00000a00000083
:10245c000a2d00002d2d00002d2d000054680000c9
:10246c00726f0000747400006c6500002042000064
:10247c00726100006b65000020530000696700006a
:10248c006e6100006c200000446500006275000065
:10249c00672d00002d2d00002d0000004272000061
:1024ac00616b0000653a0000202000002020000035
:1024bc0020200000202000002020000025640000c7
:1024cc000a0000000a2d00002d2d0000536c0000a6
:1024dc0061760000652000002325000064200000c8
:1024ec004261000074200000566f00006c74000004
:1024fc006167000065200000496e0000666f0000f7
:10250c002d2d00002d0a000000420000313a000081
:10251c00202500006456000020420000323a0000e2
:10252c00202500006456000020420000333a0000d1
:10253c00202500006456000020420000343a0000c0
:10254c0020250000645600000a00000042350000ff
:10255c003a2000002564000056200000423600009e
:10256c003a2000002564000056200000423700008d
:10257c003a2000002564000056200000423800007c
:10258c003a20000025640000560a000000420000ba
:10259c00393a00002025000064560000204200005b
:1025ac00313000003a250000645600002020000065
:1025bc00202000002020000020200000202000000f
:1025cc002020000020200000202000000a00000035
:1025dc000a4300006f6d00006d730000207700004f
:1025ec006974000068200000424d00004d2000007e
:1025fc0061720000652000006e6f0000206c00000e
:10260c006f6e000067650000722000006f6e0000a6
:10261c006c6900006e650000000a00002d2d0000a2
:10262c002d2d0000536c0000617600006520000029
:10263c00232500006420000042610000742000008b
:10264c00546500006d700000204900006e660000ab
:10265c006f2d00002d2d00002d2000000a00000021
:10266c00423100003a2000002564000046200000a2
:10267c00423200003a200000202500006446000091
:10268c0020420000333a00002020000025640000a6
:10269c0046200000423400003a20000020250000b3
:1026ac00644600000a000000423500003a20000099
:1026bc002564000046200000423600003a2000004d
:1026cc00202500006446000020420000373a00003c
:1026dc002020000025640000462000004238000045
:1026ec003a20000020250000644600000a0000008b
:1026fc00423900003a20000025640000462000000a
:10270c0042310000303a00002025000064460000f1
:10271c0020200000202000002020000020200000ad
:10272c00202000002020000020200000202000009d
:10273c00202000000a0000000a2d00002d2d0000b2
:10274c002d4200004d4d0000205000006f7700001e
:10275c006572000020530000696700006e61000084
:10276c006c2000004465000062750000672d0000bd
:10277c002d2d00002d000000424d00004d410000a9
:10278c00444300005b3000005d3a00002020000054
:10279c002020000020200000256400000a0000001a
:1027ac00424d00004d410000444300005b310000ed
:1027bc005d3a0000202000002020000020200000b6
:1027cc00256400000a000000424d00004d4100004d
:1027dc00444300005b3200005d3a00002020000002
:1027ec002020000020200000256400000a000000ca
:1027fc00424d00004d410000444300005b3300009b
:10280c005d3a000020200000202000002020000065
:10281c00256400000a0000000a2d00002d2d000088
:10282c002d460000617500006c7400002052000001
:10283c00657000006f720000746900006e67000024
:10284c002f520000656300006f7600006572000077
:10285c00792000004d6f0000646500002d2d0000f4
:10286c002d2d0000000a00002d2d00002d2d000044
:10287c004d43000053200000464100004c55000021
:10288c00542d00002d2d00002d0000004c6f000079
:10289c0077200000566f00006c7400006167000028
:1028ac006520000046610000756c0000742000007b
:1028bc006f6e0000204200004d4d000000460000ed
:1028cc00617500006c740000696e000067200000e8
:1028dc0042610000747400006572000079200000f1
:1028ec00697300003a200000256400000a00000013
:1028fc00486900006768000020540000656d000006
:10290c007065000072610000747500007265000053
:10291c0020460000617500006c740000206f000000
:10292c006e200000424d00004d000000436f00007f
:10293c006d6d0000756e000069630000617400002d
:10294c00696f00006e730000204600006175000086
:10295c006c740000206f00006e200000424d0000df
:10296c004d00000046610000756c000074690000a9
:10297c006e670000204d00006f640000756c000055
:10298c0065200000697300003a20000025640000f7
:10299c000a0000000a2d00002d2d00002d53000010
:1029ac004153000020460000414c000055540000eb
:1029bc002d2d00002d2d0000000a00002d2d0000f3
:1029cc002d2d00004444000053200000464100001f
:1029dc004c550000542d00002d2d00002d00000042
:1029ec000a2d00002d2d00002d5000004455000034
:1029fc0020460000414c0000555400002d2d0000d5
:102a0c002d2d00000053000074610000746500005f
:102a1c00204f00006e2000004543000055200000b0
:102a2c005374000061740000652000004d610000cb
:102a3c0063680000696e00006500000054680000c7
:102a4c00652000004375000072720000656e000086
:102a5c0074200000537400006174000065200000b5
:102a6c004973000020250000640a000000460000a5
:102a7c00617500006c74000020560000616c000051
:102a8c0075650000204f00006e200000537400009c
:102a9c0061740000652000004d6100006368000057
:102aac00696e00006500000054680000652000009d
:102abc004375000072720000656e00007420000007
:102acc0046610000756c0000742000004f6e000021
:102adc002054000068650000205300007461000061
:102aec0074650000204d00006163000068690000ff
:102afc006e65000020490000732000002564000072
:102b0c000a00000054680000652000007265000097
:102b1c007365000074200000766100006c75000085
:102b2c00652000006973000020250000640a000085
:042b3c000000000095
:020000040000fa
:102b40000e00fa00000f78002147980032479800e5
:102b500043479800340798004507980056079800a7
:102b6000670798009e00780081808800be40900032
:102b7000d2002100014978003e01900002808800c7
:102b8000de009000218088006e0190003280880075
:102b9000ce009000118088002e4090000080fb0045
:102ba0000000d100004078000ff0b700c0402100c5
:102bb00090808800ce4090004201210001497800b9
:102bc0001630ef000080fa00000006000800fa004e
:102bd00020079800614798000040eb00004f780004
:102be0001f0037002e009000904078001147980099
:102bf0002e0090000000e8002007980080c0b3007d
:102c000020479800130037001e4090001e406800c7
:102c100061406000304798001e80fb000000d1003a
:102c2000004f78003e4090000004e00002003200b7
:102c3000c0c8b3001e4f68001e4090000080fb001b
:102c40000000d100104798002e4090000040e9009d
:102c5000204798002e4090000004e000eaff3a0070
:102c60006e4090000080fb000000ea004f00de0094
:102c700000407800ee4090008140e90061479800f4
:102c80000004e000d7ff3a001e4078000080fa0000
:102c9000000006000600fa0040479800c0a6800029
:102ca0008040780090808000c8ff0700204798008f
:102cb0000180800060c0b30001000100018080003d
:102cc00050c8b30001000100018080004e40900018
:102cd00001000100018080000dd0bf000100010053
:102ce00001808000c0a68000004078000100010043
:102cf0000000eb00000f7800070037000180800023
:102d0000928080001e007800000041001040780092
:102d1000010001001e0fe800c0a680009e0f5000b9
:102d2000f6ff3c00018080002e4090000100010071
:102d30008041eb002e419000ce409000a04d21003c
:102d4000d901070011002000c040210087010700c1
:102d50000080fa00000006000a00fa00889fbe000a
:102d60000bd0bf000004e00032003a002080800059
:102d700000000100e40f50002e003400090037006d
:102d8000b08080000000e800b080880020808000d3
:102d900000000100e40f500002003c000040eb0086
:102da000040137001080800000000100e64f500051
:102db000f3ff3a00108080000000010051c8b3000a
:102dc000814f50001b003a0010808000000001007d
:102dd0001ef0b70010808000000001000ef0b70068
:102de00010808000000001000bf0b700e10121001d
:102df000914078000dd0bf0080cf50000800320015
:102e0000d08080000000e800d08088001080800022
:102e1000000001000b70ef000040eb00e500370000
:102e20000bd0bf000080fb000000e80019f707008e
:102e3000408088000bd0bf000004e000dc003200be
:102e40000ad0bf000004e0001b003a0000000000b0
:102e500020808000000001000000e000fcff340042
:102e60003080800000000100e14f400014003a0073
:102e7000130207000b70ef000a70ef004080800023
:102e80008cf70700b4ff0700ca00370041808000bc
:102e9000a8002100184478000880fb0080844000ce
:102ea0001080800000000100804c78000840e8009d
:102eb0000af0b700030037000000000001003700ef
:102ec0000000000020808000000001000000e00001
:102ed00005003200a1002100914078000bd0bf0016
:102ee00080cf5000e9ff36000bd0bf008080fb0090
:102ef0000ad0bf000080fb000000e900808f500076
:102f0000ab003a00b1002100914078004080800081
:102f10002eff07000cf0b700418080000ad0bf00f0
:102f20000080fb000000e900008040009040780035
:102f30000cd0bf0080cf500062003a000000eb00d0
:102f4000000f780023003700418080001e007800c9
:102f500000804000904078000fd0bf0080cf50002c
:102f600017003100418080001e0078000000e8005a
:102f7000008040001040780020f0b70041808000c1
:102f80001e0078000080e8000080400010407800bb
:102f900021f0b70081808000428080001e00780010
:102fa00000004100104078000080fb00000040005d
:102fb0000080400001818000010878000300370094
:102fc000e08080000000e800e08088009e0078003b
:102fd000638f40000bd0bf000080fb009e0f5000ad
:102fe000d9ff3c0014d0bf000004e0002f003200e5
:102ff00000c0eb004047980010c0b3005047980055
:10300000418080000ad0bf000080fb000000e90082
:10301000008040001040780060479800640047003e
:1030200031c0b300e9fe070020479800018080000e
:1030300060c0b300010001000180800050c8b300ef
:1030400001000100018080000ed0bf0001000100de
:10305000018080000dd0bf000100010001808000d0
:1030600030c0b300010001000180800000c0eb000f
:10307000010001000180800010c0b30001000100c8
:1030800001808000428080000ad0bf000080fb00e9
:103090000000e9000000410010407800010001003c
:1030a000018080002e409000010001000b70ef00b5
:1030b0000a70ef0040808000fef6070010c0b300e9
:1030c0003c003700c08080000000e800c08088001d
:1030d00014d0bf000004e0002f00320000c0eb005d
:1030e0007047980020c0b300004f980041808000d6
:1030f0000ad0bf000080fb000000e9000080400013
:1031000010407800104f98006700470031c0b300ae
:10311000aefe0700304798000180800060c0b30019
:10312000010001000180800050c8b30001000100cf
:10313000018080000ed0bf000100010001808000ee
:103140000dd0bf00010001000180800030c0b3003d
:10315000010001000180800000c0eb0001000100bf
:103160000180800020c0b3000100010001808000c8
:10317000428080000ad0bf000080fb000000e90010
:103180000000410010407800010001000180800033
:103190003e409000010001000b70ef000a70ef004c
:1031a00040808000c3f607000040eb0001003700bc
:1031b0000040eb004f04be000080fa000000060053
:1031c0000400fa00004f7800110798001e019000db
:1031d0009e407800c0402100020007000080fa00f5
:1031e000000006000600fa00000f78002147980052
:1031f00022079800ae009000018188001e00780030
:10320000e0a09000400c2000808f500038003c006f
:103210001e00780040a090009e00780000804000d2
:10322000ae409000014878001e00780040a0900059
:10323000810c200062000700800078001e007800ea
:1032400041a098001e00780060a090008000e80077
:103250001e00780061a098001e00780040a0900039
:1032600001022100914078001e0178000000410019
:10327000014878001e00780040a09000810c2000da
:103280004f000700800078001e00780041a09800e1
:103290001e00780060a090008000e8001e0078000a
:1032a00061a098001e00780040a09000110221004b
:1032b000914078001e01780000004100014878002c
:1032c0001e00780040a09000810c20003c00070008
:1032d000800078001e00780041a098001e00780051
:1032e00060a090008000e8001e00780061a09800b7
:1032f0000080fa00000006000400fa0010079800a1
:103300001e00900060a090000000e0001200340059
:103310001e00900050a090009e0090000080400091
:10332000104f78001e00900050a09000810c2000eb
:1033300023000700800078001e00900051a0980034
:103340001e00900060a090008000e9001e00900028
:1033500061a09800020037000040eb00004f7800a9
:103360001e4078000080fa00000006000400fa0009
:10337000000f7800110798001e0078008000eb0015
:1033800061a098001e0078008000eb0041a098002a
:103390001e0078008000eb0051a098001e009000f5
:1033a0000000e000040032001e007800820c2000c3
:1033b0008000eb0092f607000080fa000000060093
:1033c0000600fa0010079800210798001e009000e0
:1033d000000fe8002e0090009e007800808f5000c3
:1033e000020039000000eb00000f78001e0078009a
:1033f0000080fa00000006000400fa002047980050
:103400000000eb00000f7800110037001e0078006c
:10341000004078000041eb0080407800a04d210082
:1034200078000700ae409000814f500007003a003e
:103430001e0078000040780022c0b3008040780071
:10344000a04d21006f000700050037001e0fe800a7
:103450001e007800e40f5000ecff340040c0b300c1
:103460000080fa00000006000000fa00b080800032
:103470000080fa00000006000000fa00c080800012
:103480000080fa00000006000000fa00d0808000f2
:103490000080fa00000006000000fa00e0808000d2
:1034a0000080fa00000006000600fa00000f780015
:1034b0002147980032479800434798001e00780043
:1034c000000890009e00780000804000ae40900010
:1034d000014878001e007800000890008000e80095
:1034e0001e007800010898001e0078000008900077
:1034f0009e00780000804000be40900001487800a7
:103500001e007800000890008000e8001e0078008f
:10351000010898001e007800000890009e007800c6
:1035200000804000ce409000014878001e007800e6
:10353000000890008000e8001e0078000108980054
:103540001e00780000089000ee0f500003003400c9
:103550001e0078008000eb00010898000080fa004f
:10356000000006000600fa00100798004147980086
:10357000524798004e409000e44f50000200360041
:1035800040c0b300404798004e4090000040e80023
:10359000404798004e4090000080fb00e300b900d7
:1035a000000f78001e009000000890009e0f500051
:1035b0000a003d001e009000000890001e00500010
:1035c0006f0f40001e80e8009e00900000804000c9
:1035d000de40900001487800080037001e0090008f
:1035e000000890001e0050000080e8009e0090003f
:1035f00000804000de409000014878000080fa0022
:10360000000006000600fa001007980041479800e5
:10361000524798004e409000e44f500002003600a0
:1036200040c0b300404798005e409000e24f500019
:103630000200360020c0b300504798004e40900072
:103640000040e800404798004e4090000080fb009a
:10365000e300b900000f78001e0090000008900001
:103660009e0f50000b003d001e00900000089000cf
:103670001e0050006f0f40005e4090000080fb0075
:103680001e0040009e009000008040001040780026
:10369000090037001e009000000890009e005000b6
:1036a0005e4090000080fb00008040009e00900083
:1036b00000804000104078000080fa000000060002
:1036c0000800fa00881f78000000000020808000b9
:1036d00000000100e30f5000fcff34001080800068
:1036e00000000100404798001080800000000100a9
:1036f000504798001080800000000100604798004b
:1037000010808000000001002047980064004700fe
:1037100031c0b3002dfd070030479800ae40900047
:103720003e40900080cf500030003a000000eb0097
:10373000000f7800290037001e0078000040780054
:103740000041eb0080407800a04d2100adff070054
:10375000e100210091407800814f50001e003a00a6
:103760006e4490001e0078000040780012c0b30044
:1037700080407800a04d2100a2ff0700804f540038
:1037800015003a005e409000e14f500007003a00fb
:103790001e0078000040780012c0b300804078001e
:1037a000a04d21006fff0700130037005e4090001e
:1037b000e24f500008003a001e00780000407800f8
:1037c00022c0b30080407800a04d210065ff0700b3
:1037d00000000000080037001e0fe8001e007800ff
:1037e000e40f5000d4ff340003003700c080800095
:1037f0000000e800c08088004f0478000080fa00d4
:10380000000006000e00fa00000f78002147980023
:1038100032479800434798003407980045079800be
:1038200056079800670798009e00780091818800ed
:10383000be409000f2022100014978003e01900054
:1038400012818800de009000318188006e019000b6
:1038500042818800ce009000218188002e40900097
:103860000080fb000000d1000040780031f0b7007c
:1038700040b82100a0818800ce4090006203210062
:10388000014978003830ef000080fa00000006009f
:103890000800fa0020079800614798000040eb00fc
:1038a000004f78001f0037002e00900090407800f5
:1038b000114798002e0090000000e80020079800b3
:1038c00080c0b30020479800130037001e409000ce
:1038d0001e40680061406000304798001e80fb0079
:1038e0000000d100004f78003e4090000004e0004e
:1038f00002003200c0c8b3001e4f68001e40900096
:103900000080fb000000d100104798002e4090007e
:103910000040e900204798002e4090000004e0009d
:10392000eaff3a006e4090000080fb000000ea00d1
:103930004f00de0000407800ee4090008140e9003a
:10394000614798000004e000d7ff3a001e4078006d
:103950000080fa00000006000600fa0040479800c8
:1039600080e2800080407800a0818000c8ff0700ce
:10397000204798001181800060c0b3000100010061
:103980001181800050c8b300010001001181800046
:103990004e40900001000100118180002fd0bf0037
:1039a000010001001181800080e280000040780069
:1039b000010001000000eb00000f78000700370055
:1039c00011818000a28180001e007800000041006b
:1039d00010407800010001001e0fe80080e2800026
:1039e0009e0f5000f6ff3c00118180002e40900099
:1039f000010001008041eb002e419000ce4090007c
:103a000020c52100d90107001100200040b8210085
:103a1000870107000080fa00000006000a00fa0093
:103a2000889fbe002dd0bf000004e00032003a00a5
:103a30003081800000000100e40f50002e003400af
:103a400009003700c08180000000e800c0818800c4
:103a50003081800000000100e40f500002003c00b3
:103a60000040eb00040137002081800000000100cd
:103a7000e64f5000f3ff3a00208180000000010073
:103a800051c8b300814f50001b003a0020818000d4
:103a90000000010040f0b70020818000000001001c
:103aa00030f0b70020818000000001002df0b70049
:103ab00001042100914078002fd0bf0080cf50003a
:103ac00008003200e08180000000e800e08188000a
:103ad00020818000000001002d70ef000040eb000d
:103ae000e50037002dd0bf000080fb000000e8009b
:103af000e8f30700508188002dd0bf000004e000eb
:103b0000dc0032002cd0bf000004e0001b003a00b3
:103b10000000000030818000000001000000e00093
:103b2000fcff34004081800000000100e14f4000b4
:103b300014003a00130207002d70ef002c70ef0004
:103b4000508180005bf40700b4ff0700ca00370013
:103b500051818000c8022100184478000880fb00d1
:103b6000808440002081800000000100804c7800ab
:103b70000840e8002cf0b700030037000000000008
:103b800001003700000000003081800000000100cb
:103b90000000e00005003200c102210091407800e1
:103ba0002dd0bf0080cf5000e9ff36002dd0bf00e0
:103bb0008080fb002cd0bf000080fb000000e900eb
:103bc000808f5000ab003a00d10221009140780074
:103bd000508180002eff07002ef0b7005181800039
:103be0002cd0bf000080fb000000e90000804000f6
:103bf000904078002ed0bf0080cf500062003a0085
:103c00000000eb00000f7800230037005181800096
:103c10001e007800008040009040780031d0bf0046
:103c200080cf500017003100518180001e007800c5
:103c30000000e800008040001040780042f0b7002b
:103c4000518180001e0078000080e8000080400064
:103c50001040780043f0b7009181800052818000cd
:103c60001e00780000004100104078000080fb003a
:103c700000004000008040001182800001087800b0
:103c800003003700f08180000000e800f081880028
:103c90009e007800638f40002dd0bf000080fb00a5
:103ca0009e0f5000d9ff3c0036d0bf000004e0005a
:103cb0002f00320000c0eb004047980010c0b30056
:103cc00050479800518180002cd0bf000080fb003d
:103cd0000000e90000804000104078006047980034
:103ce0006400470031c0b300e9fe07002047980098
:103cf0001181800060c0b3000100010011818000cb
:103d000050c8b300010001001181800030d0bf0015
:103d100001000100118180002fd0bf0001000100cf
:103d20001181800030c0b3000100010011818000ca
:103d300000c0eb00010001001181800010c0b30041
:103d40000100010011818000528180002cd0bf0051
:103d50000080fb000000e9000000410010407800f6
:103d600001000100118180002e409000010001003f
:103d70002d70ef002c70ef0050818000cdf3070014
:103d800010c0b3003c003700d08180000000e80084
:103d9000d081880036d0bf000004e0002f00320040
:103da00000c0eb007047980020c0b300004f98009f
:103db000518180002cd0bf000080fb000000e90092
:103dc0000080400010407800104f980067004700c6
:103dd00031c0b300aefe070030479800118180006b
:103de00060c0b300010001001181800050c8b30021
:103df000010001001181800030d0bf0001000100ee
:103e0000118180002fd0bf000100010011818000ce
:103e100030c0b300010001001181800000c0eb0040
:103e2000010001001181800020c0b30001000100e9
:103e300011818000528180002cd0bf000080fb00e7
:103e40000000e9000000410010407800010001007e
:103e5000118180003e409000010001002d70ef00b4
:103e60002c70ef005081800092f307000040eb00bf
:103e7000010037000040eb004f04be000080fa0054
:103e8000000006000400fa00004f780011079800b7
:103e90001e0190009e40780040b8210002000700fb
:103ea0000080fa00000006000600fa00000f78000b
:103eb0002147980022079800ae00900011828800e8
:103ec0001e007800e0a09000400c2000808f500081
:103ed00038003c001e00780040a090009e00780052
:103ee00000804000ae409000014878001e0078003d
:103ef00040a09000810c2000620007008000780044
:103f00001e00780041a098001e00780060a090007c
:103f10008000e8001e00780061a098001e00780074
:103f200040a0900021042100914078001e017800fb
:103f300000004100014878001e00780040a0900079
:103f4000810c20004f000700800078001e007800e0
:103f500041a098001e00780060a090008000e8005a
:103f60001e00780061a098001e00780040a090001c
:103f700031042100914078001e01780000004100ca
:103f8000014878001e00780040a09000810c2000bd
:103f90003c000700800078001e00780041a09800d7
:103fa0001e00780060a090008000e8001e007800ed
:103fb00061a098000080fa00000006000400fa00ea
:103fc000100798001e00900060a090000000e00024
:103fd000120034001e00900050a090009e0090003f
:103fe00000804000104f78001e00900050a090000c
:103ff000810c200023000700800078001e00900044
:1040000051a098001e00900060a090008000e90080
:104010001e00900061a09800020037000040eb00f5
:10402000004f78001e4078000080fa000000060073
:104030000400fa00000f7800110798001e007800b5
:104040008000eb0061a098001e0078008000eb006b
:1040500041a098001e0078008000eb0051a098005d
:104060001e0090000000e000040032001e007800f6
:10407000820c20008000eb0061f307000080fa0052
:10408000000006000600fa001007980021079800bb
:104090001e009000000fe8002e0090009e007800a7
:1040a000808f5000020039000000eb00000f780004
:1040b0001e0078000080fa00000006000400fa00ec
:1040c000204798000000eb00000f78001100370037
:1040d0001e007800004078000041eb00804078002e
:1040e00020c5210078000700ae409000814f5000ad
:1040f00007003a001e0078000040780022c0b3009c
:104100008040780020c521006f00070005003700bf
:104110001e0fe8001e007800e40f5000ecff340092
:1041200040c0b3000080fa00000006000000fa0062
:10413000c08180000080fa00000006000000fa0044
:10414000d08180000080fa00000006000000fa0024
:10415000e08180000080fa00000006000000fa0004
:10416000f08180000080fa00000006000600fa00de
:10417000000f780021479800324798004347980085
:104180001e007800000890009e007800008040002b
:10419000ae409000014878001e00780000089000b2
:1041a0008000e8001e007800010898001e007800da
:1041b000000890009e00780000804000be40900003
:1041c000014878001e007800000890008000e80098
:1041d0001e007800010898001e007800000890007a
:1041e0009e00780000804000ce409000014878009a
:1041f0001e007800000890008000e8001e00780093
:10420000010898001e00780000089000ee0f500092
:10421000030034001e0078008000eb0001089800c5
:104220000080fa00000006000600fa00100798005f
:1042300041479800524798004e409000e44f50008c
:104240000200360040c0b300404798004e40900046
:104250000040e800404798004e4090000080fb007e
:10426000e300b900000f78001e00900000089000e5
:104270009e0f50000a003d001e00900000089000b4
:104280001e0050006f0f40001e80e8009e0090004e
:1042900000804000de4090000148780008003700b0
:1042a0001e009000000890001e0050000080e800f2
:1042b0009e00900000804000de40900001487800a1
:1042c0000080fa00000006000600fa0010079800bf
:1042d00041479800524798004e409000e44f5000ec
:1042e0000200360040c0b300404798005e40900096
:1042f000e24f50000200360020c0b3005047980043
:104300004e4090000040e800404798004e4090002a
:104310000080fb00e300b900000f78001e00900051
:10432000000890009e0f50000b003d001e00900002
:10433000000890001e0050006f0f40005e4090008b
:104340000080fb001e0040009e00900000804000a6
:1043500010407800090037001e009000000890000f
:104360009e0050005e4090000080fb0000804000f6
:104370009e00900000804000104078000080fa000d
:10438000000006000800fa00881f78000000000006
:104390003081800000000100e30f5000fcff34007a
:1043a00020818000000001004047980020818000ab
:1043b00000000100504798002081800000000100ab
:1043c000604798002081800000000100204798008d
:1043d0006400470031c0b3002dfd0700304798004e
:1043e000ae4090003e40900080cf500030003a0038
:1043f0000000eb00000f7800290037001e00780055
:10440000004078000041eb008040780020c521008a
:10441000adff07000103210091407800814f50005b
:104420001e003a006e4490001e00780000407800a4
:1044300012c0b3008040780020c52100a2ff070011
:10444000804f540015003a005e409000e14f50004c
:1044500007003a001e0078000040780012c0b30048
:104460008040780020c521006fff0700130037004f
:104470005e409000e24f500008003a001e007800b5
:104480000040780022c0b3008040780020c52100a1
:1044900065ff070000000000080037001e0fe8005d
:1044a0001e007800e40f5000d4ff340003003700f2
:1044b000d08180000000e800d08188004f0478009f
:1044c0000080fa00000006000e00fa00000f7800dd
:1044d00021479800324798004347980034079800d6
:1044e0004507980056079800670798009e007800d7
:1044f000a1828800be409000120521000149780089
:104500003e01900022828800de00900041828800f7
:104510006e01900052828800ce00900031828800a7
:104520002e4090000080fb000000d1000040780089
:1045300053f0b700c0c82100b0828800ce40900080
:1045400082052100014978005a30ef000080fa000e
:10455000000006000800fa00200798006147980054
:104560000040eb00004f78001f0037002e00900045
:1045700090407800114798002e0090000000e8005d
:104580002007980080c0b300204798001300370030
:104590001e4090001e406800614060003047980057
:1045a0001e80fb000000d100004f78003e409000cc
:1045b0000004e00002003200c0c8b3001e4f6800d3
:1045c0001e4090000080fb000000d10010479800c2
:1045d0002e4090000040e900204798002e409000b7
:1045e0000004e000eaff3a006e4090000080fb000b
:1045f0000000ea004f00de0000407800ee4090002e
:104600008140e900614798000004e000d7ff3a00cc
:104610001e4078000080fa00000006000600fa0044
:1046200040479800c0ea800080407800b082800057
:10463000c8ff0700204798002182800060c0b300b7
:10464000010001002182800050c8b3000100010078
:10465000218280004e4090000100010021828000f4
:1046600051d0bf000100010021828000c0ea80001b
:1046700000407800010001000000eb00000f78000e
:104680000700370021828000b28280001e0078007f
:104690000000410010407800010001001e0fe800fa
:1046a000c0ea80009e0f5000f6ff3c00218280008f
:1046b0002e409000010001008041eb002e4190004f
:1046c000ce409000a0d52100d901070011002000a4
:1046d000c0c82100870107000080fa000000060022
:1046e0000a00fa00889fbe004fd0bf000004e0001f
:1046f00032003a004082800000000100e40f5000c8
:104700002e00340009003700d08280000000e8004d
:10471000d08288004082800000000100e40f500039
:1047200002003c000040eb000401370030828000b2
:1047300000000100e64f5000f3ff3a003082800095
:104740000000010051c8b300814f50001b003a0027
:10475000308280000000010062f0b70030828000eb
:104760000000010052f0b70030828000000001001c
:104770004ff0b700210621009140780051d0bf00d2
:1047800080cf500008003200f08280000000e80076
:10479000f082880030828000000001004f70ef003e
:1047a0000040eb00e50037004fd0bf000080fb0069
:1047b0000000e800b7f00700608288004fd0bf001b
:1047c0000004e000dc0032004ed0bf000004e00036
:1047d0001b003a0000000000408280000000010041
:1047e0000000e000fcff3400508280000000010067
:1047f000e14f400014003a00130207004f70ef0031
:104800004e70ef00608280002af10700b4ff0700bd
:10481000ca00370061828000e80421001844780053
:104820000880fb008084400030828000000001008e
:10483000804c78000840e8004ef0b70003003700d5
:1048400000000000010037000000000040828000ee
:10485000000001000000e00005003200e10421003a
:10486000914078004fd0bf0080cf5000e9ff360064
:104870004fd0bf008080fb004ed0bf000080fb0007
:104880000000e900808f5000ab003a00f1042100e5
:1048900091407800608280002eff070050f0b70042
:1048a000618280004ed0bf000080fb000000e90064
:1048b000008040009040780050d0bf0080cf500072
:1048c00062003a000000eb00000f78002300370080
:1048d000618280001e0078000080400090407800d7
:1048e00053d0bf0080cf500017003100618280009c
:1048f0001e0078000000e8000080400010407800b2
:1049000064f0b700618280001e0078000080e8003b
:10491000008040001040780065f0b700a182800060
:10492000628280001e007800000041001040780084
:104930000080fb00000040000080400021838000d8
:104940000108780003003700008380000000e800c1
:10495000008388009e007800638f40004fd0bf0026
:104960000080fb009e0f5000d9ff3c0058d0bf00d4
:104970000004e0002f00320000c0eb004047980028
:1049800010c0b30050479800618280004ed0bf0035
:104990000080fb000000e90000804000104078002b
:1049a000604798006400470031c0b300e9fe07008b
:1049b000204798002182800060c0b3000100010000
:1049c0002182800050c8b3000100010021828000d4
:1049d00052d0bf00010001002182800051d0bf00f1
:1049e000010001002182800030c0b30001000100fd
:1049f0002182800000c0eb000100010021828000c4
:104a000010c0b3000100010021828000628280009a
:104a10004ed0bf000080fb000000e9000000410014
:104a20001040780001000100218280002e4090009b
:104a3000010001004f70ef004e70ef0060828000b7
:104a40009cf0070010c0b3003c003700e0828000fb
:104a50000000e800e082880058d0bf000004e000b9
:104a60002f00320000c0eb007047980020c0b30058
:104a7000004f9800618280004ed0bf000080fb0094
:104a80000000e9000080400010407800104f9800be
:104a90006700470031c0b300aefe07003047980002
:104aa0002182800060c0b3000100010021828000eb
:104ab00050c8b300010001002182800052d0bf0025
:104ac000010001002182800051d0bf0001000100df
:104ad0002182800030c0b3000100010021828000eb
:104ae00000c0eb00010001002182800020c0b30063
:104af0000100010021828000628280004ed0bf0050
:104b00000080fb000000e900000041001040780038
:104b100001000100218280003e4090000100010060
:104b20004f70ef004e70ef006082800061f0070070
:104b30000040eb00010037000040eb004f04be00d6
:104b40000080fa00000006000400fa00004f780020
:104b5000110798001e0190009e407800c0c82100f7
:104b6000020007000080fa00000006000600fa00bc
:104b7000000f78002147980022079800ae009000af
:104b8000218388001e007800e0a09000400c2000e7
:104b9000808f500038003c001e00780040a090003c
:104ba0009e00780000804000ae40900001487800f0
:104bb0001e00780040a09000810c200062000700d9
:104bc000800078001e00780041a098001e00780048
:104bd00060a090008000e8001e00780061a09800ae
:104be0001e00780040a0900041062100914078000e
:104bf0001e01780000004100014878001e00780086
:104c000040a09000810c20004f0007008000780039
:104c10001e00780041a098001e00780060a090005f
:104c20008000e8001e00780061a098001e00780057
:104c300040a0900051062100914078001e017800ac
:104c400000004100014878001e00780040a090005c
:104c5000810c20003c000700800078001e007800d6
:104c600041a098001e00780060a090008000e8003d
:104c70001e00780061a098000080fa000000060085
:104c80000400fa00100798001e00900060a0900039
:104c90000000e000120034001e00900050a09000c0
:104ca0009e00900000804000104f78001e00900091
:104cb00050a09000810c20002300070080007800a5
:104cc0001e00900051a098001e00900060a090006f
:104cd0008000e9001e00900061a0980002003700eb
:104ce0000040eb00004f78001e4078000080fa0082
:104cf000000006000400fa00000f78001107980079
:104d00001e0078008000eb0061a098001e00780073
:104d10008000eb0041a098001e0078008000eb00ae
:104d200051a098001e0090000000e0000400320036
:104d30001e007800820c20008000eb0030f007009d
:104d40000080fa00000006000600fa001007980034
:104d5000210798001e009000000fe8002e00900030
:104d60009e007800808f5000020039000000eb00a8
:104d7000000f78001e0078000080fa000000060096
:104d80000400fa00204798000000eb00000f7800b4
:104d9000110037001e007800004078000041eb0051
:104da00080407800a0d5210078000700ae40900038
:104db000814f500007003a001e0078000040780044
:104dc00022c0b30080407800a0d521006f0007000a
:104dd000050037001e0fe8001e007800e40f5000a9
:104de000ecff340040c0b3000080fa000000060071
:104df0000000fa00d08280000080fa000000060067
:104e00000000fa00e08280000080fa000000060046
:104e10000000fa00f08280000080fa000000060026
:104e20000000fa00008380000080fa000000060005
:104e30000600fa00000f78002147980032479800da
:104e4000434798001e007800000890009e007800fc
:104e500000804000ae409000014878001e007800bd
:104e6000000890008000e8001e007800010898000b
:104e70001e007800000890009e007800008040002e
:104e8000be409000014878001e00780000089000a5
:104e90008000e8001e007800010898001e007800dd
:104ea000000890009e00780000804000ce409000f6
:104eb000014878001e007800000890008000e8009b
:104ec0001e007800010898001e007800000890007d
:104ed000ee0f5000030034001e0078008000eb004d
:104ee000010898000080fa00000006000600fa00a1
:104ef0001007980041479800524798004e40900094
:104f0000e44f50000200360040c0b3004047980014
:104f10004e4090000040e800404798004e4090000e
:104f20000080fb00e300b900000f78001e00900035
:104f3000000890009e0f50000a003d001e009000e7
:104f4000000890001e0050006f0f40001e80e80017
:104f50009e00900000804000de40900001487800f4
:104f6000080037001e009000000890001e0050004e
:104f70000080e8009e00900000804000de4090002d
:104f8000014878000080fa00000006000600fa00e0
:104f90001007980041479800524798004e409000f3
:104fa000e44f50000200360040c0b3004047980074
:104fb0005e409000e24f50000200360020c0b30077
:104fc000504798004e4090000040e800404798004d
:104fd0004e4090000080fb00e300b900000f780015
:104fe0001e009000000890009e0f50000b003d0036
:104ff0001e009000000890001e0050006f0f40003f
:105000005e4090000080fb001e0040009e0090006b
:105010000080400010407800090037001e0090001a
:10502000000890009e0050005e4090000080fb0051
:10503000008040009e0090000080400010407800fa
:105040000080fa00000006000800fa00881f7800bf
:10505000000000004082800000000100e30f5000cb
:10506000fcff3400308280000000010040479800bf
:10507000308280000000010050479800308280009c
:1050800000000100604798003082800000000100ad
:10509000204798006400470031c0b3002dfd070091
:1050a00030479800ae4090003e40900080cf5000c6
:1050b00030003a000000eb00000f780029003700b4
:1050c0001e007800004078000041eb00804078002e
:1050d000a0d52100adff07002105210091407800f7
:1050e000814f50001e003a006e4490001e00780070
:1050f0000040780012c0b30080407800a0d52100a5
:10510000a2ff0700804f540015003a005e40900057
:10511000e14f500007003a001e0078000040780080
:1051200012c0b30080407800a0d521006fff0700b7
:10513000130037005e409000e24f500008003a0034
:105140001e0078000040780022c0b3008040780044
:10515000a0d5210065ff070000000000080037000f
:105160001e0fe8001e007800e40f5000d4ff34004a
:1051700003003700e08280000000e800e082880041
:105180004f0478000080fa00000006000e00fa00cc
:10519000000f780021479800324798004347980055
:1051a000340798004507980056079800670798004d
:1051b0009e007800b1838800be4090003207210035
:1051c000014978003e01900032838800de009000a3
:1051d000518388006e01900062838800ce009000a9
:1051e000418388002e4090000080fb000000d10029
:1051f0000040780075f0b70040d92100c0838800d6
:10520000ce409000a2072100014978007c30ef00d9
:105210000080fa00000006000800fa00200798004d
:10522000614798000040eb00004f78001f003700f6
:105230002e00900090407800114798002e009000ba
:105240000000e8002007980080c0b30020479800c5
:10525000130037001e4090001e406800614060004f
:10526000304798001e80fb000000d100004f7800fe
:105270003e4090000004e00002003200c0c8b300cd
:105280001e4f68001e4090000080fb000000d1000f
:10529000104798002e4090000040e90020479800f9
:1052a0002e4090000004e000eaff3a006e409000bb
:1052b0000080fb000000ea004f00de0000407800a4
:1052c000ee4090008140e900614798000004e00052
:1052d000d7ff3a001e4078000080fa000000060068
:1052e0000600fa004047980000f3800080407800f4
:1052f000c0838000c8ff07002047980031838000ea
:1053000060c0b300010001003183800050c8b300c9
:1053100001000100318380004e4090000100010037
:105320003183800073d0bf00010001003183800011
:1053300000f3800000407800010001000000eb0055
:10534000000f78000700370031838000c28380009f
:105350001e007800000041001040780001000100ac
:105360001e0fe80000f380009e0f5000f6ff3c0087
:10537000318380002e409000010001008041eb004d
:105380002e419000ce40900020e62100d901070078
:105390001100200040d92100870107000080fa0099
:1053a000000006000a00fa00889fbe0071d0bf000e
:1053b0000004e00032003a00508380000000010049
:1053c000e40f50002e00340009003700e083800015
:1053d0000000e800e08388005083800000000100a6
:1053e000e40f500002003c000040eb0004013700d5
:1053f0004083800000000100e64f5000f3ff3a00b8
:10540000408380000000010051c8b300814f50006c
:105410001b003a00408380000000010084f0b700c8
:10542000408380000000010074f0b70040838000da
:105430000000010071f0b7004108210091407800a0
:1054400073d0bf0080cf500008003200008480007d
:105450000000e80000848800408380000000010014
:105460007170ef000040eb00e500370071d0bf0025
:105470000080fb000000e80086ed070070838800d4
:1054800071d0bf000004e000dc00320070d0bf002b
:105490000004e0001b003a00000000005083800080
:1054a000000001000000e000fcff34006083800089
:1054b00000000100e14f400014003a001302070011
:1054c0007170ef007070ef0070838000f9ed0700dd
:1054d000b4ff0700ca00370071838000080721006d
:1054e000184478000880fb008084400040838000de
:1054f00000000100804c78000840e80070f0b70020
:105500000300370000000000010037000000000029
:1055100050838000000001000000e0000500320020
:10552000010721009140780071d0bf0080cf50006a
:10553000e9ff360071d0bf008080fb0070d0bf0053
:105540000080fb000000e900808f5000ab003a00b3
:105550001107210091407800708380002eff070022
:1055600072f0b7007183800070d0bf000080fb0034
:105570000000e900008040009040780072d0bf0039
:1055800080cf500062003a000000eb00000f78006e
:1055900023003700718380001e00780000804000e7
:1055a0009040780075d0bf0080cf500017003100c8
:1055b000718380001e0078000000e8000080400039
:1055c0001040780086f0b700718380001e007800dc
:1055d0000080e800008040001040780087f0b700ad
:1055e000b1838000728380001e00780000004100bb
:1055f000104078000080fb00000040000080400068
:105600003184800001087800030037001084800096
:105610000000e800108488009e007800638f40003e
:1056200071d0bf000080fb009e0f5000d9ff3c00ee
:105630007ad0bf000004e0002f00320000c0eb0071
:105640004047980010c0b300504798007183800015
:1056500070d0bf000080fb000000e9000080400027
:1056600010407800604798006400470031c0b300e4
:10567000e9fe0700204798003183800060c0b30036
:10568000010001003183800050c8b3000100010017
:105690003183800074d0bf0001000100318380009d
