:020000040000fa
:080000000002040000000000f2
:020000040000fa
:100008001203000012030000120300001203000094
:100018001203000012030000120300001203000084
:10002800120300001203000012030000c24d00007a
:10003800120300001203000012030000424e0000e9
:100048001203000012030000120300004c430000da
:100058007c4300001203000012030000120300009a
:100068001203000012030000120300001203000034
:100078001203000012030000120300001203000024
:100088001203000012030000120300001203000014
:1000980012030000120300002c4100005c41000024
:1000a80012030000120300001203000012030000f4
:1000b80012030000120300001203000012030000e4
:1000c80012030000120300001203000012030000d4
:1000d80012030000120300001203000012030000c4
:1000e80012030000120300001203000012030000b4
:1000f80012030000120300001203000012030000a4
:100108001203000012030000120300001203000093
:100118001203000012030000120300001203000083
:100128001203000012030000120300001203000073
:100138001203000012030000120300001203000063
:100148001203000012030000120300001203000053
:100158001203000012030000120300001203000043
:1001680012030000120300000a3f00003a3f00009b
:100178001203000012030000120300001203000023
:100188006c4500009c4500001203000012030000ab
:100198001203000012030000120300001203000003
:1001a80012030000120300001203000012030000f3
:1001b80012030000120300001203000012030000e3
:1001c80012030000120300001203000012030000d3
:1001d80012030000120300001203000012030000c3
:1001e80012030000120300001203000012030000b3
:1001f80012030000120300001203000012030000a3
:100208001203000012030000120300001203000092
:100218001203000012030000120300001203000082
:100228001203000012030000120300001203000072
:100238001203000012030000120300001203000062
:100248001203000012030000120300001203000052
:100258001203000012030000120300001203000042
:100268001203000012030000120300001203000032
:0c0278001203000012030000120300003b
:020000040000fa
:10040000af4722000eff28000e0188000000000008
:10041000000020000000e000020032000001200087
:10042000200288000c00070060ac240001002000be
:100430000f000700000020000000e0000200320072
:1004400000000200000000008a51020000000000cd
:100450000040da000000fe00a04420000000e000a0
:1004600002003200002020009001880000000600f9
:10047000a1028800800078000000eb001a0037001d
:10048000e280400054a0b4009101ba00e280400034
:1004900054a0b4009102ba00e280400054a0b4001d
:1004a0000002eb00472bde00f507b200a601880032
:1004b000602ce10008003a000049eb000201e8006e
:1004c000020039003420ec0002f0a0008301e900b2
:1004d000f9ff3e00040037006128e100010032000e
:1004e0000082eb00040007001101ba000200e000e6
:1004f000e3ff3a000000060004d0a300e20f490029
:100500001c003900810278003549ba000201e80078
:10051000020039003420ec0002f0a0008301e90061
:100520000f0032002549ba000201e800020039003c
:100530003420ec0002f0a0008301e9000800320042
:100540000400e0000600320015c9ba000201e8000c
:10055000020039003420ec0002f0a0008301e90021
:100560008180e80054a0b4000300e000e2ff3a00fc
:10057000000006009102ba00055978008301e900e5
:10058000f7ff3200c82ade00055978008301e90030
:10059000f3ff32000400e000f1ff320011d9ba008d
:1005a000eeff3700fc420400000000000a43040094
:1005b000000000001843040000000000264304006f
:1005c00000000000dc40040000000000ea400400dd
:1005d00000000000f8400400000000000641040094
:1005e00000000000ba3e040000000000c83e040005
:1005f00000000000d63e040000000000e43e0400bd
:10060000000000001c450400000000002a45040012
:1006100000000000384504000000000046450400ca
:10062000000000000040da000000fe00140020007e
:1006300038003700f4ff2f00360037006011b80093
:100640004f003700889fbe008a9fbe008c1f780035
:10065000a0000700a700330003866c006450e1008f
:10066000240032006420e100270032006150e100e4
:10067000220032006120e100210032008b8542001f
:10068000eb07b1000134b800003ab800080442009a
:1006900089844a00013ab8000030b80088804000e0
:1006a00009014a0004003300000040008180480036
:1006b000020149008b05e900c909dd0083017000d2
:1006c0000100320013002000c814de004814dd00d1
:1006d0004709de001200b200c808de00088470007e
:1006e0005600070001f0a1000cf0a70001f0a000e7
:1006f000890037006120e1008b0032000801be0054
:100700000200be00f7ff37006150e100fcff3a0035
:1007100085003700889fbe008a9fbe00841f780036
:100720006c0007004f00780011003300f0ff2f002d
:10073000838f6c0006003b00040565000a00a700db
:100740000800370009f0a60010002000080037005c
:10075000820f5400838f5c000300390010002000da
:1007600001003e000000200009f0a7000000ea00a0
:100770004f05be004f04be000000e0000000060070
:10078000889fbe008a9fbe00008270000402710034
:1007900004827100260032000004be000200be0088
:1007a0006011b8006b092000950220000182cf0083
:1007b0000a0039000541b1000082cf00070039006e
:1007c0000541b1000982cf00040039000541b100a4
:1007d0000882cf00010039000541b10005425200f6
:1007e000120032000a003b00828171006101640046
:1007f0008100d1000080d3008984d3000884d30015
:100800008b05e8000442e800f7ff3a0007003700d4
:100810000804440089844c0000004800818048009e
:100820008b05e9000442e900f9ff3a0003000700e4
:100830004f05be004f04be000000060081002000ee
:10084000618055000b003d000b00200061fe2f0071
:100850000100e1001d00340082817100610164002b
:100860008904d1000884d3000000e800faff3a00b0
:10087000710020006100640003007000020060004d
:100880000900320061044400e0844c000988a5009e
:10089000050032008b05e8006808e10002003a001c
:1008a0008904d1000884d300f20f20000258e1002f
:1008b00005003d00c75ddd00f907b20089807500c5
:1008c00008007800000006000bf827008b00780075
:1008d000000005000004be00160007000003be0073
:1008e0000405be000200be0012000700844f750020
:1008f000000006000200be006450e1000500360062
:100900006420e100020036000968a30001003a00fb
:100910000800be000160a0004f0678004f05be0031
:100920004f04be0000000600f0ff2f00f1ff27007b
:10093000f9ff3700c70ade00f107b200f50fb20079
:1009400008003200e1cf4200020032000170a00036
:1009500024000500810f700001003200040805002a
:1009600044000500810f700002003a0014000500e9
:100970008502e9000000400081c04800fcff3b0008
:100980000170a000240005000000fa0000027800b9
:1009900002003700015a78000201e900e00f51001f
:1009a000fcff3a000080fa00000006000000fa0098
:1009b000889fbe000004be00050037000000fb0059
:1009c000890078001c000700e10f4000040032009d
:1009d00038407800e04f5000f8ff3a000000eb008c
:1009e0004f04be000080fa0000000600212e220005
:1009f0000000fa00881f7800ecff0700212e22007b
:100a000000047800a00020000b0007000800780018
:100a10004f0478000080fa0000000600202e22001b
:100a20000000fa0068015700ceb8970048000700a0
:100a30000080fa00000006000000fa00889fbe0057
:100a4000010478008084eb0038029000e20262002a
:100a50003b00320004037800980290000620b200a8
:100a600002003a00e08f520035003a000490a000e6
:100a70008004780034049800f90fb200e08f52002f
:100a800002003a00a8029000050c7800ea8f54009a
:100a900005003a000408b20003003a00880078001c
:100aa000d0002000e4ff070018029000d802900058
:100ab000850f52000b0032000402e80015c0b3009d
:100ac0001404980018027800094a7800040ce80021
:100ad000e4342200054a7800ea8f540018003a00f6
:100ae0000500370009407800880078009f03070060
:100af0008004780012003700380290000410b20021
:100b00000f00320018019000a800900048009000eb
:100b1000ee15070018029000840f50000400320008
:100b2000380290000403b300340498008084eb0082
:100b30000002eb001404980028029000040c7800d6
:100b4000090078004f04be000080fa000000060093
:100b50003a00fa00889fbe00011798008a9fbe00e5
:100b6000421798008c9fbe00800678000000eb00c2
:100b700060179800720337008e10900054c2b300c3
:100b80008100e80001179800844f500006003a00e9
:100b9000010278000006eb0001c3b30000c2b300fd
:100ba000b7c2b300100037003d0290000404b20049
:100bb000040032001d027800004a7800840ee8002c
:100bc000050037000000fb008d0078009aff070049
:100bd000e10f40005a0332006e1190000201e8005c
:100be000621798005603370084027800d3c2b3001e
:100bf00034437800834f53000900320005003c0065
:100c0000804f530008003200874f53000c003a0019
:100c100007003700814f530009003a0006003700f3
:100c20000c30a000f0ff37000c00a000eeff3700f2
:100c30000c10a000ecff37000c20a000eaff3700ea
:100c400062026600010032000c00a100680266002a
:100c5000010032000c20a1000602fb000403b100d9
:100c6000e90f52000c003e00050378000002eb0083
:100c7000b602fb00ea22b9000503b1009603fb00af
:100c8000048242000703b10086027800e98f530016
:100c9000f7ff3600080037000002eb00a7c2b300e0
:100ca000874f530004003a004e1390008502e8007d
:100cb00046027800461798008003eb00e6c2b300b6
:100cc00057179800954f13000c003a000ce0a00055
:100cd00064435300d54f130003003200050378002e
:100ce00007007800090037004e1490008502e800e4
:100cf000c804780048179800591798000503780031
:100d000009003700ea00b90000804300860278003d
:100d1000b603fb000703b100e98f5300f9ff36006b
:100d200050179800f5ff3700b6427800cbc6b300e5
:100d3000061798008bcf5200250032000f003c00b0
:100d400036c6b30086cf5200a300320004003c0038
:100d5000e0cf5200ff0232006b4353000f00370018
:100d600046c6b30086cf52001700320065434300e9
:100d700086cf5200b6003a001300370036c7b300e2
:100d800086cf52002000320007003c00644353002d
:100d900086cf5200150032000643e80086cf52008d
:100da000ab003a001400370056c7b30086cf52009c
:100db000ac0032006343430086cf5200a4003a00e7
:100dc000054f78000e003700054f7800a700370068
:100dd000f003660005012000010032000500280034
:100de0008c82720005067800cfff3700054f78002f
:100df0000c60a0009d003700054f78000c50a0004b
:100e00000c70a000990037004e109000054f78003c
:100e1000c00278004017980075179800e08f5200c4
:100e200002003a00e21f2200721798007e13900021
:100e30008002eb00010037008502e80085034300d3
:100e40008041eb0097cf1100fbff3a00051f98008f
:100e5000de129000e08f5200050032000e1b900061
:100e6000868f52000200310085037800071f98002a
:100e70008e1a90000004eb00850f5200010036002e
:100e8000050452006806660009c2b3001100320072
:100e90002d0037003d0290000404b200040032002f
:100ea0001d027800094a7800840ee800050037002a
:100eb0008d00780000022000dffe0700e10f4000f7
:100ec000030032006e1590000a05e8006a179800ca
:100ed0000804e900e00f5400eeff3a000084eb0044
:100ee00019003700bd0290000504b200090032006d
:100ef000880278009d03780035437800864b78009f
:100f000005047800870ee800e04f53000a003a001d
:100f100012003700880278008d0078003500fb0051
:100f2000441f980005047800c3fe07004e1a900085
:100f3000e10f4000090032006e1090000000e80050
:100f40006017980005003700080278007e149000b2
:100f50008e1c90001e1d9000ae1d9000890278002e
:100f60008504e900e08f5200deff3a007817980010
:100f7000091f98001a1f98002b1f9800040478007e
:100f8000e00f56006e02320009c2b3006e169000e8
:100f90000e0037003d0290000404b200040032004d
:100fa0001d027800094a7800840ee8000500370029
:100fb0008d007800000220009ffe0700e10f400036
:100fc000010032000c06e8000804e900e00f5400bc
:100fd000f0ff3a0059023700ce109000700366000f
:100fe0004104780041179800cfc4de00090578005d
:100ff0008a0578000800be000a01be004800de0035
:10100000c80add0000807200004f7800e00f530036
:1010100009003200e04f500007003200e14f40006d
:10102000050032002600200010479800284798004d
:10103000061f98000300370017002000071f9800c4
:10104000184798000e04e8007817980080ff3700d2
:101050001a002000054f78007e1798000a1f98009c
:101060007bff3700054f78000c0cb3008c02780032
:10107000050cb2003b003a00e00f560005003d00b1
:10108000ce1290004501be004500be0045179800f5
:101090000f003700f0026600120032004e1490007c
:1010a0004803be0046079800570798004817980065
:1010b00098029000cfaade00650798007507980097
:1010c0004e009000de0090006e019000fe01900046
:1010d00070179800011f9800121f9800231f980096
:1010e0000b003700ce109000c10278000504780094
:1010f000cfc4de00090578008a0578004117980002
:1011000078179800091f98001a1f98002b1f980045
:101110007e1090008e1890001e199000ae1990005d
:10112000e00f5000e08f5800e00f5900e08f5900a9
:1011300032003d006000b8006011b8007e149000dd
:101140008e1c90001e1d9000ae1d90003c00b30050
:1011500008045000898458000a0559008b855900fd
:1011600022003700e00f560005003d00ce1290002f
:101170004501be004500be00451798000f0037002e
:10118000f0026600120032004e1490008004eb0062
:101190004803be000005eb00460f9800570f98006b
:1011a000690f98007a0f98004e089000de089000b2
:1011b0006e099000fe09900048179800701798007b
:1011c000011f9800121f9800231f98000b00370082
:1011d000ce109000c10278004117980005047800f5
:1011e000090020000a0020000b002000781798005a
:1011f000091f98001a1f98002b1f9800de149000fa
:10120000e08f54000d003a001a0020007e1090007c
:101210008e1890001e199000ae1990005a17980071
:10122000e00f5000e08f5800e00f5900e08f5900a8
:10123000020032008000eb00511798000c0178008a
:1012400005042000020cb20032179800850f5100ef
:101250003400320003003c00e00f5100080032006f
:101260004800370005082000be119000858f51000e
:1012700014003200050c2000858f510041003a0017
:10128000e620220015c0b3003600be003601be00c5
:101290007e1490008e1c90001e1d9000ae1d9000cc
:1012a0000040e10001c8e10002d0e10003d8e10004
:1012b000330039008542e800f4cf5200f2ff3a00d3
:1012c0002f00370015c0b3000001200001002000ee
:1012d0006011b8007e1490008e1c90001e1d9000be
:1012e000ae1d90000040e10001c8e10002d0e10025
:1012f00003d8e10022003900490020000000d0009e
:101300008180d2000281d2008381d2008904e90069
:10131000faff3a008542e800f0cf5200edff3a00b4
:101320001700370015c0b300800020000100200026
:101330006011b8007e1490008e1c90001e1d90005d
:10134000ae1d90000040e10001c8e10002d0e100c4
:1013500003d8e1000a003900390020000000d00065
:101360008180d2000281d2008381d2008904e90009
:10137000faff3a008542e800f5cf5200edff3a004f
:10138000054f78009e02fb005e1590008a8f520088
:1013900002003d000a4f780004003700de1590007f
:1013a000858f550001003d0055179800e00f520051
:1013b00003003200e3026600010032000402e9008b
:1013c0000500240085026600060032005e109000d1
:1013d000800f52000200340000025200010037006a
:1013e0000002eb008000eb009e02fb00211798003a
:1013f000850f520002003400850252002517980024
:101400006402660045003200e20266006102660086
:10141000e08f520017003200bd0290000504b200b8
:10142000080032009d027800b6c2b300e00f5200ff
:101430000100320006c3e800864a7800850ee80005
:1014400008003700b0022000e00f52000100320017
:101450000080e8008d00780077fd0700e10f400074
:10146000160032006e1190000201e8006217980029
:1014700012003700e00f5200100032003d029000d1
:101480000404b200050032001d02780005c2b3005a
:10149000054a7800840ee800050037008d007800ca
:1014a0000002200064fd0700e10f4000030032004d
:1014b000ee1190008301e800631798002e1290004f
:1014c000e00f52005b00320008c3b30084047800d0
:1014d0003d0290000404b200040032001d027800b6
:1014e000084a7800840ee800050037008d00780077
:1014f0000003200050fd0700e10f40000300320010
:10150000ee1290008502e800651798008904e90052
:10151000efff3a0029179800460037002e1390007d
:10152000e00f5300160032006802660014003a0013
:1015300008c2b300860478003d0290000404b200a3
:10154000040032001d027800084a7800840ee8008a
:10155000050037008d0078000002200036fd0700ee
:10156000e10f400003003200ee1390008703e80013
:10157000671798008904e900efff3a0029179800df
:10158000e202660061026600e08f5200170032003e
:10159000bd0290000504b200080032009d027800f0
:1015a000b6c2b300e00f52000100320006c3e800eb
:1015b000864a7800850ee80008003700b002200057
:1015c000e00f5200010032000080e8008d0078003a
:1015d00019fd0700e10f4000160032006e14900064
:1015e0000804e8006817980012003700e00f520066
:1015f000100032003d0290000404b20005003200e9
:101600001d02780005c2b300054a7800840ee80088
:10161000050037008d0078000002200006fd07005d
:10162000e10f400003003200ee1490008904e8004e
:10163000691798005e159000642022008a02e90074
:10164000f0056600c32add000c0078000482420029
:101650000002b200141798003b079800200798007a
:101660009c003700de1090003e1190008100e900e0
:101670000304200051179800830f51006f003200bf
:1016800003003c00e00f5100080032007c003700ee
:1016900004082000be129000848f520051003200d6
:1016a000040c2000848f520075003a00e00f5600b1
:1016b0001b003d001e1390007e1090008e189000bd
:1016c0001e199000ae1990003604be002605be001b
:1016d0000802be000a03be00990107000802be000e
:1016e0000a03be00004f78000000fb00cf80de0040
:1016f0000101780082017800020207007e14900048
:101700008e1c90001e1d9000ae1d90000004540021
:1017100081845c0002055d0083855d002000370048
:10172000be049000e08f5400220032001e10900092
:101730007e1290008e1a90003004be002005be007c
:10174000441f98000400be000801be00351f980029
:10175000c60007000801be00004f78000000fb0033
:10176000cf80de00d10007004e1a9000be1a900014
:101770000001520081815a000002eb00020f980024
:10178000130f9800340f98008001eb00230f98008e
:101790000e0c90009e0c90002e0d9000be0d90003f
:1017a00078179800091f98001a1f98002b1f98009f
:1017b000090037009e1490007e15900019027800f1
:1017c000110009000485d800a400200011000900c0
:1017d0000480d800014f78000bc3b3001ecf450032
:1017e00027003700d41e22002e009000e00f50008a
:1017f00001003200c41d2200de109000c20add008c
:101800007e1090008e1890001e199000ae19900066
:101810008502e900050033008301d1000281d30075
:101820008180d3000080d300f9ff3700ef02600011
:1018300005024200144f7800110037005e1190003d
:101840007e1490008e1c90001e1d9000ae1d900016
:10185000e312b90001c3b300040078000000e900fe
:10186000050033008b05d1000a85d3008984d3009d
:101870000884d300f9ff370067426400014f42003b
:101880003d0290000404b200070032009d0278007f
:101890001e427800844a7800850ee800e04f52002e
:1018a00006003a00080037001e00fb008d0078009b
:1018b00061fc0700e10f4000030032006e11900050
:1018c0000201e800621798009e119000e881510023
:1018d000131798005e129000e00f520061ff3a006b
:1018e0006806660016003200ae129000e08f5200cb
:1018f000130034006e16900008c2b300850478000f
:101900003d0290000404b200040032001d02780081
:10191000084a7800840ee800050037008d00780042
:101920000002200044fc0700e10f400001003200eb
:101930000c06e8008904e900f1ff3a006c179800f2
:101940000e13900016407800004f7800e04f5000d2
:1019500089fc3a004f06be006e1090004f05be0095
:101960004f04be000080fa00000006000200fa00ea
:10197000889fbe0001047800004f78003802900074
:10198000840278000504b200020032000000fb006f
:1019900033003700e202620005003a000403b3009e
:1019a00015049800340498000080eb002c003700e8
:1019b000d8049000e08f540006003a001200200086
:1019c0008e0078004800900040120700190498002b
:1019d00022003700a8029000e08f520008003a0071
:1019e000153522000430a00025049800050c78006d
:1019f0003404980025002000550498001504980030
:101a000018019000a8009000480090002f120700d5
:101a1000280290008082eb00150498001e4a78008e
:101a2000040ce800a4c0b3009e4f12000b003a0063
:101a3000380290000410b200080032001801900033
:101a4000a800900048009000201207000002eb0060
:101a50001404980028029000040c78001e00fb007b
:101a60004f04be000080fa00000006006022b800ab
:101a7000060220000000d0008180d2000482d20043
:101a80008582d2000000a0000202520083825a0028
:101a9000030031000202420083824a000000a100dc
:101aa0000603e900f3ff3a0000000600020ab9004d
:101ab000001bb9000200b800810042008100430011
:101ac000000006000000fa00889fbe008a9fbe004a
:101ad0003004be002005be000404440085844c0090
:101ae00006054d0087854d000898be000a90be008f
:101af0000440e10005c8e10006d0e10007d8e1009c
:101b000002003100680040001008e8004f05be00e8
:101b10004f04be000080fa00000006001000fa002a
:101b2000889fbe008a9fbe000605be000404be005a
:101b30003002be002003be00049fbe000697be0018
:101b4000110020000802520089825a000a035b003b
:101b50008b835b0044079800550798006607980040
:101b6000770798000498be000698be003e02be00ab
:101b70002e03be000820e10009a8e1000ab0e10040
:101b80000bb8e100010039008000eb004f05be00fa
:101b9000108810004f04be000080fa00000006000c
:101ba0001400fa00889fbe005b0007008a9fbe00f9
:101bb0008c9fbe000006eb004c0798003c07980085
:101bc0002c0798001c0798000c0f78000605be0033
:101bd0000404be000d0420004e039000be029000dd
:101be000860343002e029000e00f530003003d00e7
:101bf0002a000700b3ff0700020037002700070094
:101c0000c6ff0700ce029000150f9800e08f52002b
:101c100009003500450007001400200005002000e1
:101c20006033b8000000720081807200020173000e
:101c300083817300380007000c06e8008d0f560002
:101c4000e5ff3a001e0a9000e00f520004003d003c
:101c50000802be000a03be000e00780099ff0700cc
:101c60004eba9700e00f520006003a003e04be0054
:101c70002e05be0058079800690798007a0798005b
:101c80000b0f98004f06be00280007004f05be004e
:101c90004f04be000080fa00000006004f2bde005b
:101ca0002200070086837300858242004f23de00f6
:101cb00047079800868272000402420035079800a8
:101cc0009e0290004f2bde008582420006027200c9
:101cd000240798001e0278004f23de000402420011
:101ce00086827200150798004f18de00000f720000
:101cf0000e0007000802be000a03be0000004000fc
:101d000081804800020149008381490002000700e8
:101d10000e00780000000600500798006107980048
:101d200072079800030f9800000006005e00900004
:101d3000ee0090007e0190008e09900000000600e9
:101d40000000fa00881f780018002000881f780023
:101d500093ff07008f87e9004f0478000080fa00a6
:101d6000000006000000fa00801feb008cff070057
:101d70008f87e9000080fa00000006000000fa00ea
:101d8000889fbe008a9fbe00e00f5000e08f580081
:101d9000e00f5900e08f59000c003d006044b8008e
:101da0006055b8000000540081805c0002015d00b5
:101db00083815d00180020001600070008003d0028
:101dc000190007000004eb00050037000004eb00d9
:101dd0001000070002003d0013000700180020005b
:101de000d7ff0700e00f5400060032006022b80061
:101df0006033b8000000520081805a0002015b008d
:101e000083815b004f05be004f04be000080fa00d6
:101e100000000600e00f5200e08f5a00e00f5b0068
:101e2000e08f5b00000006006044b8006055b80019
:101e30000402540085825c0006035d0087835d0018
:101e4000000006000000fa00889fbe008a9fbe00c6
:101e50008c1f7800e00f5000e08f5800e00f590011
:101e6000e08f59000d003d006044b8006055b80097
:101e70001c0020000000540081805c0002015d0015
:101e800083815d000820e10009a8e1000ab0e100bb
:101e90000bb8e1000d003d00080037000006eb0024
:101ea000e00f5200e08f5a00e00f5b00e08f5b0014
:101eb00006003d006044b8006055b80004025400bc
:101ec00085825c0006035d0087835d00a5ff070037
:101ed000e00f5600060032006022b8006033b80000
:101ee0000000520081805a0002015b0083815b0088
:101ef0004f0678004f05be004f04be000080fa0078
:101f0000000006000000fa00889fbe008a9fbe0005
:101f10008c1f78000006eb00e00f5000e08f5800a7
:101f2000e00f5900e08f590007003d006044b80001
:101f30006055b8001c0020000000540081805c0047
:101f400002015d0083815d00e00f5200e08f5a00c6
:101f5000e00f5b00e08f5b0007003d006044b800cd
:101f60006055b8000c00a2000402540085825c0099
:101f700006035d0087835d000d000700e00f56003b
:101f8000060032006022b8006033b8000000520042
:101f900081805a0002015b0083815b004f0678005c
:101fa0004f05be004f04be000080fa00000006008e
:101fb000889fbe008a9fbe008c9fbe000404b800ac
:101fc0000506b8008904460060854e000606b80084
:101fd0000a054600e0854e000706b8008b0546005e
:101fe000040eb800890446000a854e00e0854d00c5
:101ff000050eb8000a0546008b854e00060eb80097
:102000008b0546000416b8000a0546008b854e0075
:102010000516b8008b054600041eb8008b05460067
:102020000800be000a01be004f06be004f05be00fc
:082030004f04be000000060091
:020000040000fa
:102038000a2d00002d2d00002d2d000054680000f1
:10204800726f0000747400006c650000204200008c
:10205800726100006b65000020520000617700008b
:102068002044000065620000756700002d2d000007
:102078002d2d000000540000687200006f740000ed
:10208800746c0000653100003a2000002020000038
:102098002020000020250000640a000000540000f1
:1020a800687200006f740000746c000065320000f4
:1020b8003a200000202000002020000020250000f9
:1020c800640a000000420000726100006b650000b5
:1020d8003a200000202000002020000020200000de
:1020e8002020000020250000640a00000a000000eb
:1020f8000a2d00002d2d00002d2d00005468000031
:10210800726f0000747400006c65000020420000cb
:10211800726100006b6500002053000069670000d1
:102128006e6100006c2000004465000062750000cc
:10213800672d00002d2d00002d00000042720000c8
:10214800616b0000653a000020200000202000009c
:10215800202000002020000020200000256400002e
:102168000a0000000a2d00002d2d0000536c00000d
:10217800617600006520000023250000642000002f
:102188004261000074200000566f00006c7400006b
:102198006167000065200000496e0000666f00005e
:1021a8002d2d00002d0a000000420000313a0000e9
:1021b800202500006456000020420000323a00004a
:1021c800202500006456000020420000333a000039
:1021d800202500006456000020420000343a000028
:1021e80020250000645600000a0000004235000067
:1021f8003a20000025640000562000004236000006
:102208003a200000256400005620000042370000f4
:102218003a200000256400005620000042380000e3
:102228003a20000025640000560a00000042000021
:10223800393a0000202500006456000020420000c2
:10224800313000003a2500006456000020200000cc
:102258002020000020200000202000002020000076
:102268002020000020200000202000000a0000009c
:102278000a4300006f6d00006d73000020770000b6
:102288006974000068200000424d00004d200000e5
:1022980061720000652000006e6f0000206c000075
:1022a8006f6e000067650000722000006f6e00000e
:1022b8006c6900006e650000000a00002d2d00000a
:1022c8002d2d0000536c0000617600006520000091
:1022d80023250000642000004261000074200000f3
:1022e800546500006d700000204900006e66000013
:1022f8006f2d00002d2d00002d2000000a00000089
:10230800423100003a200000256400004620000009
:10231800423200003a2000002025000064460000f8
:1023280020420000333a000020200000256400000d
:1023380046200000423400003a200000202500001a
:10234800644600000a000000423500003a20000000
:102358002564000046200000423600003a200000b4
:10236800202500006446000020420000373a0000a3
:1023780020200000256400004620000042380000ac
:102388003a20000020250000644600000a000000f2
:10239800423900003a200000256400004620000071
:1023a80042310000303a0000202500006446000059
:1023b8002020000020200000202000002020000015
:1023c8002020000020200000202000002020000005
:1023d800202000000a0000000a2d00002d2d00001a
:1023e8002d4200004d4d0000205000006f77000086
:1023f8006572000020530000696700006e610000ec
:102408006c2000004465000062750000672d000024
:102418002d2d00002d000000424d00004d41000010
:10242800444300005b3000005d3a000020200000bb
:102438002020000020200000256400000a00000081
:10244800424d00004d410000444300005b31000054
:102458005d3a00002020000020200000202000001d
:10246800256400000a000000424d00004d410000b4
:10247800444300005b3200005d3a00002020000069
:102488002020000020200000256400000a00000031
:10249800424d00004d410000444300005b33000002
:1024a8005d3a0000202000002020000020200000cd
:1024b800256400000a0000000a2d00002d2d0000f0
:1024c8002d460000617500006c7400002052000069
:1024d800657000006f720000746900006e6700008c
:1024e8002f520000656300006f76000065720000df
:1024f800792000004d6f0000646500002d2d00005c
:102508002d2d0000000a00002d2d00002d2d0000ab
:102518004d43000053200000464100004c55000088
:10252800542d00002d2d00002d0000004c6f0000e0
:1025380077200000566f00006c740000616700008f
:102548006520000046610000756c000074200000e2
:102558006f6e0000204200004d4d00000046000054
:10256800617500006c740000696e0000672000004f
:102578004261000074740000657200007920000058
:10258800697300003a200000256400000a0000007a
:10259800486900006768000020540000656d00006d
:1025a80070650000726100007475000072650000bb
:1025b80020460000617500006c740000206f000068
:1025c8006e200000424d00004d000000436f0000e7
:1025d8006d6d0000756e0000696300006174000095
:1025e800696f00006e7300002046000061750000ee
:1025f8006c740000206f00006e200000424d000047
:102608004d00000046610000756c00007469000010
:102618006e670000204d00006f640000756c0000bc
:1026280065200000697300003a200000256400005e
:102638000a0000000a2d00002d2d00002d53000077
:102648004153000020460000414c00005554000052
:102658002d2d00002d2d0000000a00002d2d00005a
:102668002d2d000054480000524f00005454000023
:102678004c4500005f530000414e000049540000e3
:10268800595f000043480000454300004b2d0000ff
:102698002d2d00002d0000000a2d00002d2d00001a
:1026a8002d540000485200004f540000544c0000c4
:1026b800455f000042520000414b0000455f0000aa
:1026c80043480000454300004b2d00002d2d00001d
:1026d8002d0000000a2d00002d2d00002d440000c3
:1026e8004453000020460000414c000055540000af
:1026f8002d2d00002d2d0000000a00002d2d0000ba
:102708002d2d0000504400005520000046410000d7
:102718004c550000542d00002d2d00002d00000008
:102728005374000061740000652000004f6e0000c3
:10273800204500004355000020530000746100004c
:1027480074650000204d00006163000068690000a6
:102758006e6500000054000068650000204300001a
:1027680075720000726500006e740000205300004e
:1027780074610000746500002049000073200000a7
:10278800256400000a00000046610000756c000026
:1027980074200000566100006c7500006520000080
:1027a8004f6e000020530000746100007465000043
:1027b800204d000061630000686900006e6500003c
:1027c8000054000068650000204300007572000096
:1027d800726500006e7400002046000061750000fc
:1027e8006c740000204f00006e2000005468000048
:1027f800652000005374000061740000652000002b
:102808004d61000063680000696e000065200000eb
:102818004973000020250000640a000000540000ed
:102828006865000020720000657300006574000090
:1028380020760000616c00007565000020690000ca
:1028480073200000256400000a000000436f0000a8
:102858006d6d0000733a0000004e00006f2000000c
:10286800424d00004d200000636f00006d6d0000b8
:10287800730000004e6f0000204400004453000025
:10288800206300006f6d00006d730000004e0000b3
:102898006f2000005341000053200000636f0000c8
:1028a8006d6d0000730000004e6f0000204d0000a9
:1028b80043530000206300006f6d00006d7300003b
:0428c800000000000c
:020000040000fa
:1028cc000200fa000002eb00040f78000002eb009b
:1028dc00040f780005003700040d21009e02420011
:1028ec000042eb00844a78001e0fe800940f200091
:1028fc009e027800848f5200f7ff34000080fa00ab
:10290c00000006000e00fa00000f78002147980026
:10291c0032479800434798003407980045079800c1
:10292c0056079800670798001e027800848e88006e
:10293c00d41c2100be429000054a78003e02900053
:10294c0044868800de029000658688006e02900046
:10295c0074868800ce029000558688002e42900026
:10296c000482fb000402d10004427800f51c210013
:10297c00844a7800041e2100948e8800441d210096
:10298c00ce429000054a78000002eb00b48e88001d
:10299c000080fa00000006000800fa0020079800ea
:1029ac00614798000042eb00044f7800200037008c
:1029bc002e02900094427800154798002e02900049
:1029cc000402e8002407980084c0b3002447980050
:1029dc00140037001e4290001e426a0061426200e1
:1029ec00344798009e4278000582fb000402d10017
:1029fc00044f78003e429000e04f5200020032003b
:102a0c00c4c8b3001e4f6a001e4290000482fb0033
:102a1c000402d100144798002e4290000442e900b1
:102a2c00244798002e429000e04f5200e9ff3a00f4
:102a3c006e4290000482fb000402ea004f22de008a
:102a4c0004427800ee4290008542e9006547980008
:102a5c00e04f5200d6ff3a001e4278000440780046
:102a6c000080fa00000006000600fa0040479800bb
:102a7c006495800004427800958e80008440780034
:102a8c0005007800c4ff0700004278002447980036
:102a9c004486800060c0b3000400010044868000be
:102aac0050c8b30004000100448680004e409000e2
:102abc000400010045868000d41c210014427800db
:102acc000440780005000100458680006495800074
:102adc000442780004407800050001000002eb007d
:102aec00040f78000800370045868000968e800021
:102afc001e0278000402430014427800044078005f
:102b0c00050001001e0fe800649580009e0f520026
:102b1c00f5ff3c00448680002e409000040001002c
:102b2c008041eb002e419000ce409000002b210004
:102b3c002202070011002000001e2100c70107001f
:102b4c000080fa00000006000a00fa00889fbe0010
:102b5c00b41c210014427800e04f52003a003a00b5
:102b6c00648680000400010000027800e40f52002b
:102b7c00350034000a003700b48e80000402e800ef
:102b8c00b48e880064868000040001000002780086
:102b9c00e40f520002003c000042eb00370137000a
:102bac00548680000400010000427800e64f520079
:102bbc00f1ff3a00548680000400010000427800c6
:102bcc0055c8b300854f52001f003a005486800050
:102bdc000400010000427800e51d2100844a7800c1
:102bec00548680000400010000427800e51c21009e
:102bfc00844a78005486800004000100004278006a
:102c0c00b51c2100844a7800e41d21009442780010
:102c1c00d41c21001442780084cf52000a003200e8
:102c2c00d48e80000402e800d48e88005486800084
:102c3c0004000100b51c21000042eb00844a78001e
:102c4c000042eb000d013700b41c21001442780047
:102c5c00e04f520008013200a41c210014427800fd
:102c6c00e04f520023003a00000000006486800010
:102c7c000400010000027800e00f5200fbff34005a
:102c8c00748680000400010000427800e14f42008d
:102c9c001a003a0050020700b51c21000042eb005c
:102cac00844a7800a51c21000042eb00844a78007d
:102cbc0003ff0700a4ff070000427800ef00370075
:102ccc00a41c2100144478008884fb0054868000e6
:102cdc000400010000427800050d210089824200a9
:102cec00844a78000842e800a51c2100844a780038
:102cfc000300370000000000010037000000000056
:102d0c00648680000400010000027800e00f52008d
:102d1c0006003200a41c210094427800b41c21004f
:102d2c001442780084cf5200e5ff3600b41c210019
:102d3c00144278008482fb00a41c21001442780009
:102d4c000482fb000402e900848f5200ca003a009e
:102d5c00b41c21001442780084407800000d21003e
:102d6c000dff070000427800c51c2100844a780042
:102d7c00a41c2100144278000482fb000402e90028
:102d8c00050d21000482420094427800c41c2100ed
:102d9c001442780084cf52006f003a000002eb001e
:102dac00040f780022003700040d21001e0242009f
:102dbc0094427800f41c21001442780084cf520015
:102dcc00160031001e02e800050d210004824200ad
:102ddc0014427800e52a2100844a78001e82e8001b
:102dec00050d21000482420014427800f52a2100ce
:102dfc00844a7800858e8000040d21001e0242005a
:102e0c00144278000482fb00040242000482420057
:102e1c0075958000050a780003003700e48e800069
:102e2c000402e800e48e88001e027800630f420062
:102e3c00b41c2100144278000482fb009e0f520047
:102e4c00d9ff3c00441d210014427800e04f520091
:102e5c003800320000c2eb004447980014c0b300a5
:102e6c0054479800a41c2100144278000482fb00f3
:102e7c000402e900050d210004824200144278008e
:102e8c00644798006402470031c0b3000400780026
:102e9c00c1fe070000427800244798004486800059
:102eac0060c0b300040001004486800050c8b30029
:102ebc000400010045868000e41c210014427800c7
:102ecc00044078000500010045868000d41c2100d8
:102edc00144278000440780005000100448680000c
:102eec0030c0b300040001004486800000c0eb0039
:102efc00040001004486800010c0b30004000100ef
:102f0c0045868000a41c2100144278000482fb003a
:102f1c000402e900060d210004024300144278006b
:102f2c000440780005000100448680002e4090008b
:102f3c0004000100b51c21000042eb00844a78001b
:102f4c00a51c21000042eb00844a78005cfe0700bf
:102f5c0014c0b30049003700c48e80000402e8009e
:102f6c00c48e8800441d210014427800e04f5200aa
:102f7c003800320000c2eb007447980024c0b30044
:102f8c00044f9800a41c2100144278000482fb001a
:102f9c000402e900050d210004824200144278006d
:102fac00144f98006702470031c0b300040078004a
:102fbc0079fe070000427800344798004486800070
:102fcc0060c0b300040001004486800050c8b30008
:102fdc000400010045868000e41c210014427800a6
:102fec00044078000500010045868000d41c2100b7
:102ffc0014427800044078000500010044868000eb
:10300c0030c0b300040001004486800000c0eb0017
:10301c00040001004486800020c0b30004000100bd
:10302c0045868000a41c2100144278000482fb0019
:10303c000402e900060d210004024300144278004a
:10304c000440780005000100448680003e4090005a
:10305c0004000100b51c21000042eb00844a7800fa
:10306c00a51c21000042eb00844a780014fe0700e6
:10307c000042eb00010037000042eb0004407800f6
:10308c004f04be000080fa00000006000400fa00a5
:10309c00004f7800110798001e0190009e407800a8
:1030ac00001e2100020007000080fa00000006004c
:1030bc000600fa00000f78002147980022079800bc
:1030cc002e029000749588001e027800e4a29000f5
:1030dc00440c2000848f52003e003c001e027800fd
:1030ec0044a290009e02780004824200ae429000fe
:1030fc00054a78001e02780044a29000810c200042
:10310c00040078006b00070000027800840278004d
:10311c001e02780045a298001e02780064a290005e
:10312c008402e8001e02780065a298001e02780056
:10313c00c4a29000e42a2100144278001e037800f7
:10314c0085024300844a78001e02780044a2900055
:10315c00810c200004007800560007000002780063
:10316c00840278001e02780045a298001e027800a6
:10317c0064a290008402e8001e02780065a2980008
:10318c001e027800c4a29000f42a21001442780098
:10319c001e03780085024300844a78001e027800e2
:1031ac0044a29000810c200004007800410007002c
:1031bc0000027800840278001e02780045a2980074
:1031cc001e02780064a290008402e8001e027800bf
:1031dc0065a298000080fa00000006000400fa00c6
:1031ec00100798001e02900064a29000e00f52009d
:1031fc00140034001e02900054a290009e02900015
:10320c0004824200144f78001e02900054a29000d9
:10321c00810c2000040078002600070000027800d2
:10322c00840278001e02900055a298001e029000a5
:10323c0064a290008402e9001e02900065a298002e
:10324c00020037000042eb00044f78001e42780069
:10325c00044078000080fa00000006000400fa0028
:10326c00000f7800110798001e0278008002eb0016
:10327c0065a298001e0278008002eb0045a298001f
:10328c001e0278008002eb0055a298001e029000ee
:10329c00e00f5200050032001e027800820c200064
:1032ac008000eb0004007800b4f507000080fa0001
:1032bc00000006000600fa0010079800210798008d
:1032cc001e029000040fe8002e0290009e0278006f
:1032dc00848f5200020039000002eb00040f7800ca
:1032ec001e027800040078000080fa00000006003e
:1032fc000400fa00204798000002eb00040f78004d
:10330c00130037001e027800044278000041eb00e5
:10331c0084407800002b21007f00070000427800d9
:10332c00ae429000854f520008003a001e02780011
:10333c000442780022c0b30084407800002b2100a6
:10334c007500070000427800050037001e0fe800ea
:10335c001e027800e40f5200eaff340044c0b300b0
:10336c00044078000080fa00000006000000fa001b
:10337c00b48e8000040078000080fa000000060083
:10338c000000fa00c48e8000040078000080fa006f
:10339c00000006000000fa00d48e800004007800c3
:1033ac000080fa00000006000000fa00e48e8000a5
:1033bc00040078000080fa00000006000600fa0005
:1033cc00000f780021479800324798004347980037
:1033dc001e027800040a90009e02780004824200cb
:1033ec00ae429000054a78001e027800040a900054
:1033fc008402e8001e027800050a98001e0278007c
:10340c00040a90009e02780004824200be429000a2
:10341c00054a78001e027800040a90008402e80035
:10342c001e027800050a98001e027800040a90001b
:10343c009e02780004824200ce429000054a780039
:10344c001e027800040a90008402e8001e02780034
:10345c00050a98001e027800040a9000ee0f520034
:10346c00030034001e0278008002eb00050a98006d
:10347c000080fa00000006000600fa001007980011
:10348c0041479800524798004e429000e44f52003a
:10349c000200360044c0b300444798004e429000ee
:1034ac000442e800444798004e4290000482fb001e
:1034bc00e322b900040f78001e029000040a900069
:1034cc009e0f52000a003d001e029000040a90005c
:1034dc001e0252006f0f42001e82e8009e029000f6
:1034ec0004824200de429000054a78000800370052
:1034fc001e029000040a90001e0252000482e80092
:10350c009e02900004824200de429000054a780040
:10351c000080fa00000006000600fa001007980070
:10352c0041479800524798004e429000e44f520099
:10353c000200360044c0b300444798005e4290003d
:10354c00e24f52000200360024c0b30054479800ea
:10355c004e4290000442e800444798004e429000ce
:10356c000482fb00e322b900040f78001e029000d5
:10357c00040a90009e0f52000b003d001e029000aa
:10358c00040a90001e0252006f0f42005e4290002f
:10359c000482fb001e0242009e0290000482420044
:1035ac0014427800090037001e029000040a9000b3
:1035bc009e0252005e4290000482fb000482420094
:1035cc009e0290000482420014427800044078006d
:1035dc000080fa00000006000800fa00881f78003e
:1035ec0000000000648680000400010000027800e6
:1035fc00e30f5200fbff34005486800004000100ee
:10360c000042780044479800548680000400010072
:10361c000042780054479800548680000400010052
:10362c000042780064479800548680000400010032
:10363c0000427800244798006402470031c0b30070
:10364c0004007800d4fc070000427800344798004e
:10365c00ae4290003e42900084cf520032003a00bd
:10366c000002eb00040f78002b0037001e027800dc
:10367c00044278000041eb0084407800002b2100cc
:10368c00a5ff070000427800e51c21009542780058
:10369c00854f52001f003a006e4490001e027800c5
:1036ac000442780012c0b30084407800002b210043
:1036bc0099ff070000427800844f540015003a002f
:1036cc005e429000e14f520007003a001e02780063
:1036dc000442780012c0b30084407800002b210013
:1036ec0065ff0700130037005e429000e24f520066
:1036fc0008003a001e0278000442780022c0b30091
:10370c0084407800002b21005bff070000000000c4
:10371c00080037001e0fe8001e027800e40f52006c
:10372c00d2ff340003003700c48e80000402e8008e
:10373c00c48e88004f0478000080fa000000060058
:10374c000200fa000002eb00040f78000002eb000c
:10375c00040f780005003700645321009e024200dc
:10376c000042eb00844a78001e0fe800940f200002
:10377c009e027800848f5200f7ff34000080fa001c
:10378c00000006000e00fa00000f78002147980098
:10379c003247980043479800340798004507980033
:1037ac0056079800670798001e027800b4b188008d
:1037bc0034632100be429000054a78003e0290001e
:1037cc0074a98800de02900095a988006e02900012
:1037dc00a4a98800ce02900085a988002e429000f2
:1037ec000482fb000402d1000442780055632100de
:1037fc00844a780064642100c4b18800a463210069
:10380c00ce429000054a78000002eb00e4b188003b
:10381c000080fa00000006000800fa00200798005b
:10382c00614798000042eb00044f780020003700fd
:10383c002e02900094427800154798002e029000ba
:10384c000402e8002407980084c0b30024479800c1
:10385c00140037001e4290001e426a006142620052
:10386c00344798009e4278000582fb000402d10088
:10387c00044f78003e429000e04f520002003200ac
:10388c00c4c8b3001e4f6a001e4290000482fb00a5
:10389c000402d100144798002e4290000442e90023
:1038ac00244798002e429000e04f5200e9ff3a0066
:1038bc006e4290000482fb000402ea004f22de00fc
:1038cc0004427800ee4290008542e900654798007a
:1038dc00e04f5200d6ff3a001e42780004407800b8
:1038ec000080fa00000006000600fa00404798002d
:1038fc0094b8800004427800c5b180008440780000
:10390c0005007800c4ff07000042780024479800a7
:10391c0074a9800060c0b3000400010074a9800089
:10392c0050c8b3000400010074a980004e40900000
:10393c000400010075a98000346321001442780052
:10394c00044078000500010075a9800094b880003f
:10395c000442780004407800050001000002eb00ee
:10396c00040f78000800370075a98000c6b18000ec
:10397c001e027800040243001442780004407800d0
:10398c00050001001e0fe80094b880009e0f520045
:10399c00f5ff3c0074a980002e409000040001004b
:1039ac008041eb002e419000ce40900060712100d0
:1039bc00220207001100200060642100c7010700eb
:1039cc000080fa00000006000a00fa00889fbe0082
:1039dc001463210014427800e04f52003a003a0080
:1039ec0094a980000400010000027800e40f52004a
:1039fc00350034000a003700e4b180000402e8000e
:103a0c00e4b1880094a98000040001000002780051
:103a1c00e40f520002003c000042eb00370137007b
:103a2c0084a980000400010000427800e64f520097
:103a3c00f1ff3a0084a980000400010000427800e4
:103a4c0055c8b300854f52001f003a0084a980006e
:103a5c00040001000042780045642100844a78008b
:103a6c0084a9800004000100004278004563210015
:103a7c00844a780084a98000040001000042780088
:103a8c0015632100844a7800446421009442780034
:103a9c00346321001442780084cf52000a003200b3
:103aac0004b280000402e80004b2880084a98000fb
:103abc0004000100156321000042eb00844a7800e9
:103acc000042eb000d013700146321001442780012
:103adc00e04f5200080132000463210014427800c8
:103aec00e04f520023003a000000000094a980002f
:103afc000400010000027800e00f5200fbff3400cc
:103b0c00a4a980000400010000427800e14f4200ab
:103b1c001a003a0050020700156321000042eb0026
:103b2c00844a7800056321000042eb00844a780047
:103b3c0003ff0700a4ff070000427800ef003700e6
:103b4c0004632100144478008884fb0084a980005d
:103b5c000400010000427800655321008982420074
:103b6c00844a78000842e80005632100844a780002
:103b7c0003003700000000000100370000000000c7
:103b8c0094a980000400010000027800e00f5200ac
:103b9c000600320004632100944278001463210073
:103bac001442780084cf5200e5ff360014632100e4
:103bbc00144278008482fb000463210014427800d4
:103bcc000482fb000402e900848f5200ca003a0010
:103bdc001463210014427800844078006053210063
:103bec000dff07000042780025632100844a78000d
:103bfc0004632100144278000482fb000402e900f3
:103c0c006553210004824200944278002463210011
:103c1c001442780084cf52006f003a000002eb008f
:103c2c00040f780022003700645321001e0242006a
:103c3c0094427800546321001442780084cf5200df
:103c4c00160031001e02e800655321000482420078
:103c5c001442780045712100844a78001e82e800e5
:103c6c0065532100048242001442780055712100f2
:103c7c00844a7800b5b18000645321001e024200d2
:103c8c00144278000482fb000402420004824200c9
:103c9c00a5b88000050a78000300370014b2800034
:103cac000402e80014b288001e027800630f420080
:103cbc0014632100144278000482fb009e0f520012
:103ccc00d9ff3c00a463210014427800e04f52005d
:103cdc003800320000c2eb004447980014c0b30017
:103cec005447980004632100144278000482fb00be
:103cfc000402e9006553210004824200144278005a
:103d0c00644798006402470031c0b3000400780097
:103d1c00c1fe0700004278002447980074a9800077
:103d2c0060c0b3000400010074a9800050c8b30047
:103d3c000400010075a9800044632100144278003e
:103d4c00044078000500010075a98000346321004f
:103d5c0014427800044078000500010074a980002a
:103d6c0030c0b3000400010074a9800000c0eb0057
:103d7c000400010074a9800010c0b300040001000d
:103d8c0075a9800004632100144278000482fb00b2
:103d9c000402e90066532100040243001442780037
:103dac00044078000500010074a980002e409000aa
:103dbc0004000100156321000042eb00844a7800e6
:103dcc00056321000042eb00844a78005cfe07008a
:103ddc0014c0b30049003700f4b180000402e800bd
:103dec00f4b18800a463210014427800e04f520023
:103dfc003800320000c2eb007447980024c0b300b6
:103e0c00044f980004632100144278000482fb00e4
:103e1c000402e90065532100048242001442780038
:103e2c00144f98006702470031c0b30004007800bb
:103e3c0079fe0700004278003447980074a980008e
:103e4c0060c0b3000400010074a9800050c8b30026
:103e5c000400010075a9800044632100144278001d
:103e6c00044078000500010075a98000346321002e
:103e7c0014427800044078000500010074a9800009
:103e8c0030c0b3000400010074a9800000c0eb0036
:103e9c000400010074a9800020c0b30004000100dc
:103eac0075a9800004632100144278000482fb0091
:103ebc000402e90066532100040243001442780016
:103ecc00044078000500010074a980003e40900079
:103edc0004000100156321000042eb00844a7800c5
:103eec00056321000042eb00844a780014fe0700b1
:103efc000042eb00010037000042eb000440780068
:103f0c004f04be000080fa00000006000400fa0016
:103f1c00004f7800110798001e0190009e40780019
:103f2c0060642100020007000080fa000000060017
:103f3c000600fa00000f780021479800220798002d
:103f4c002e029000a4b888001e027800e4a2900013
:103f5c00440c2000848f52003e003c001e0278006e
:103f6c0044a290009e02780004824200ae4290006f
:103f7c00054a78001e02780044a29000810c2000b3
:103f8c00040078006b0007000002780084027800bf
:103f9c001e02780045a298001e02780064a29000d0
:103fac008402e8001e02780065a298001e027800c8
:103fbc00c4a2900044712100144278001e037800c2
:103fcc0085024300844a78001e02780044a29000c7
:103fdc00810c2000040078005600070000027800d5
:103fec00840278001e02780045a298001e02780018
:103ffc0064a290008402e8001e02780065a298007a
:10400c001e027800c4a29000547121001442780062
:10401c001e03780085024300844a78001e02780053
:10402c0044a29000810c200004007800410007009d
:10403c0000027800840278001e02780045a29800e5
:10404c001e02780064a290008402e8001e02780030
:10405c0065a298000080fa00000006000400fa0037
:10406c00100798001e02900064a29000e00f52000e
:10407c00140034001e02900054a290009e02900086
:10408c0004824200144f78001e02900054a290004b
:10409c00810c200004007800260007000002780044
:1040ac00840278001e02900055a298001e02900017
:1040bc0064a290008402e9001e02900065a29800a0
:1040cc00020037000042eb00044f78001e427800db
:1040dc00044078000080fa00000006000400fa009a
:1040ec00000f7800110798001e0278008002eb0088
:1040fc0065a298001e0278008002eb0045a2980091
:10410c001e0278008002eb0055a298001e0290005f
:10411c00e00f5200050032001e027800820c2000d5
:10412c008000eb000400780014f207000080fa0015
:10413c00000006000600fa001007980021079800fe
:10414c001e029000040fe8002e0290009e027800e0
:10415c00848f5200020039000002eb00040f78003b
:10416c001e027800040078000080fa0000000600af
:10417c000400fa00204798000002eb00040f7800be
:10418c00130037001e027800044278000041eb0057
:10419c0084407800607121007f00070000427800a5
:1041ac00ae429000854f520008003a001e02780083
:1041bc000442780022c0b300844078006071210072
:1041cc007500070000427800050037001e0fe8005c
:1041dc001e027800e40f5200eaff340044c0b30022
:1041ec00044078000080fa00000006000000fa008d
:1041fc00e4b18000040078000080fa0000000600a2
:10420c000000fa00f4b18000040078000080fa008d
:10421c00000006000000fa0004b2800004007800e0
:10422c000080fa00000006000000fa0014b28000c2
:10423c00040078000080fa00000006000600fa0076
:10424c00000f7800214798003247980043479800a8
:10425c001e027800040a90009e027800048242003c
:10426c00ae429000054a78001e027800040a9000c5
:10427c008402e8001e027800050a98001e027800ed
:10428c00040a90009e02780004824200be42900014
:10429c00054a78001e027800040a90008402e800a7
:1042ac001e027800050a98001e027800040a90008d
:1042bc009e02780004824200ce429000054a7800ab
:1042cc001e027800040a90008402e8001e027800a6
:1042dc00050a98001e027800040a9000ee0f5200a6
:1042ec00030034001e0278008002eb00050a9800df
:1042fc000080fa00000006000600fa001007980083
:10430c0041479800524798004e429000e44f5200ab
:10431c000200360044c0b300444798004e4290005f
:10432c000442e800444798004e4290000482fb008f
:10433c00e322b900040f78001e029000040a9000da
:10434c009e0f52000a003d001e029000040a9000cd
:10435c001e0252006f0f42001e82e8009e02900067
:10436c0004824200de429000054a780008003700c3
:10437c001e029000040a90001e0252000482e80003
:10438c009e02900004824200de429000054a7800b2
:10439c000080fa00000006000600fa0010079800e2
:1043ac0041479800524798004e429000e44f52000b
:1043bc000200360044c0b300444798005e429000af
:1043cc00e24f52000200360024c0b300544798005c
:1043dc004e4290000442e800444798004e42900040
:1043ec000482fb00e322b900040f78001e02900047
:1043fc00040a90009e0f52000b003d001e0290001c
:10440c00040a90001e0252006f0f42005e429000a0
:10441c000482fb001e0242009e02900004824200b5
:10442c0014427800090037001e029000040a900024
:10443c009e0252005e4290000482fb000482420005
:10444c009e029000048242001442780004407800de
:10445c000080fa00000006000800fa00881f7800af
:10446c000000000094a98000040001000002780004
:10447c00e30f5200fbff340084a98000040001000c
:10448c00004278004447980084a980000400010091
:10449c00004278005447980084a980000400010071
:1044ac00004278006447980084a980000400010051
:1044bc0000427800244798006402470031c0b300e2
:1044cc0004007800d4fc07000042780034479800c0
:1044dc00ae4290003e42900084cf520032003a002f
:1044ec000002eb00040f78002b0037001e0278004e
:1044fc00044278000041eb00844078006071210098
:10450c00a5ff070000427800456321009542780022
:10451c00854f52001f003a006e4490001e02780036
:10452c000442780012c0b30084407800607121000e
:10453c0099ff070000427800844f540015003a00a0
:10454c005e429000e14f520007003a001e027800d4
:10455c000442780012c0b3008440780060712100de
:10456c0065ff0700130037005e429000e24f5200d7
:10457c0008003a001e0278000442780022c0b30002
:10458c0084407800607121005bff07000000000090
:10459c00080037001e0fe8001e027800e40f5200de
:1045ac00d2ff340003003700f4b180000402e800ad
:1045bc00f4b188004f0478000080fa000000060077
:1045cc000200fa000002eb00040f78000002eb007e
:1045dc00040f780005003700847521009e0242000c
:1045ec000042eb00844a78001e0fe800940f200074
:1045fc009e027800848f5200f7ff34000080fa008e
:10460c00000006000e00fa00000f78002147980009
:10461c0032479800434798003407980045079800a4
:10462c0056079800670798001e027800c4c28800dd
:10463c0054852100be429000054a78003e0290004d
:10464c0084ba8800de029000a5ba88006e02900041
:10465c00b4ba8800ce02900095ba88002e42900021
:10466c000482fb000402d10004427800758521000d
:10467c00844a780084862100d4c28800c485210035
:10468c00ce429000054a78000002eb00f4c288008c
:10469c000080fa00000006000800fa0020079800cd
:1046ac00614798000042eb00044f7800200037006f
:1046bc002e02900094427800154798002e0290002c
:1046cc000402e8002407980084c0b3002447980033
:1046dc00140037001e4290001e426a0061426200c4
:1046ec00344798009e4278000582fb000402d100fa
:1046fc00044f78003e429000e04f5200020032001e
:10470c00c4c8b3001e4f6a001e4290000482fb0016
:10471c000402d100144798002e4290000442e90094
:10472c00244798002e429000e04f5200e9ff3a00d7
:10473c006e4290000482fb000402ea004f22de006d
:10474c0004427800ee4290008542e90065479800eb
:10475c00e04f5200d6ff3a001e4278000440780029
:10476c000080fa00000006000600fa00404798009e
:10477c00a4c9800004427800d5c28000844078002f
:10478c0005007800c4ff0700004278002447980019
:10479c0084ba800060c0b3000400010084ba8000b9
:1047ac0050c8b3000400010084ba80004e40900051
:1047bc000400010085ba8000548521001442780061
:1047cc00044078000500010085ba8000a4c980006f
:1047dc000442780004407800050001000002eb0060
:1047ec00040f78000800370085ba8000d6c280001c
:1047fc001e02780004024300144278000440780042
:10480c00050001001e0fe800a4c980009e0f520095
:10481c00f5ff3c0084ba80002e409000040001009b
:10482c008041eb002e419000ce40900080932100ff
:10483c00220207001100200080862100c70107001a
:10484c000080fa00000006000a00fa00889fbe00f3
:10485c003485210014427800e04f52003a003a00af
:10486c00a4ba80000400010000027800e40f52009a
:10487c00350034000a003700f4c280000402e8005e
:10488c00f4c28800a4ba8000040001000002780081
:10489c00e40f520002003c000042eb0037013700ed
:1048ac0094ba80000400010000427800e64f5200e8
:1048bc00f1ff3a0094ba8000040001000042780035
:1048cc0055c8b300854f52001f003a0094ba8000bf
:1048dc00040001000042780065862100844a7800bb
:1048ec0094ba800004000100004278006585210024
:1048fc00844a780094ba80000400010000427800d9
:10490c0035852100844a7800648621009442780021
:10491c00548521001442780084cf52000a003200e2
:10492c0014c380000402e80014c3880094ba800009
:10493c0004000100358521000042eb00844a780018
:10494c000042eb000d013700348521001442780041
:10495c00e04f5200080132002485210014427800f7
:10496c00e04f520023003a0000000000a4ba80007f
:10497c000400010000027800e00f5200fbff34003d
:10498c00b4ba80000400010000427800e14f4200fc
:10499c001a003a0050020700358521000042eb0056
:1049ac00844a7800258521000042eb00844a780077
:1049bc0003ff0700a4ff070000427800ef00370058
:1049cc0024852100144478008884fb0094ba80006c
:1049dc0004000100004278008575210089824200a4
:1049ec00844a78000842e80025852100844a780032
:1049fc000300370000000000010037000000000039
:104a0c00a4ba80000400010000027800e00f5200fc
:104a1c000600320024852100944278003485210060
:104a2c001442780084cf5200e5ff36003485210013
:104a3c00144278008482fb00248521001442780003
:104a4c000482fb000402e900848f5200ca003a0081
:104a5c003485210014427800844078008075210050
:104a6c000dff07000042780045852100844a78003c
:104a7c0024852100144278000482fb000402e90022
:104a8c0085752100048242009442780044852100ff
:104a9c001442780084cf52006f003a000002eb0001
:104aac00040f780022003700847521001e0242009a
:104abc0094427800748521001442780084cf52000f
:104acc00160031001e02e8008575210004824200a8
:104adc001442780065932100844a78001e82e80015
:104aec0085752100048242001442780075932100e0
:104afc00844a7800c5c28000847521001e024200e1
:104b0c00144278000482fb0004024200048242003a
:104b1c00b5c98000050a78000300370024c3800063
:104b2c000402e80024c388001e027800630f4200d0
:104b3c0034852100144278000482fb009e0f520041
:104b4c00d9ff3c00c485210014427800e04f52008c
:104b5c003800320000c2eb004447980014c0b30088
:104b6c005447980024852100144278000482fb00ed
:104b7c000402e90085752100048242001442780089
:104b8c00644798006402470031c0b3000400780009
:104b9c00c1fe0700004278002447980084ba8000c8
:104bac0060c0b3000400010084ba800050c8b30098
:104bbc000400010085ba800064852100144278004d
:104bcc00044078000500010085ba8000548521005e
:104bdc0014427800044078000500010084ba80007b
:104bec0030c0b3000400010084ba800000c0eb00a8
:104bfc000400010084ba800010c0b300040001005e
:104c0c0085ba800024852100144278000482fb00c0
:104c1c000402e90086752100040243001442780066
:104c2c00044078000500010084ba80002e409000fa
:104c3c0004000100358521000042eb00844a780015
:104c4c00258521000042eb00844a78005cfe0700b9
:104c5c0014c0b3004900370004c380000402e8000c
:104c6c0004c38800c485210014427800e04f520030
:104c7c003800320000c2eb007447980024c0b30027
:104c8c00044f980024852100144278000482fb0014
:104c9c000402e90085752100048242001442780068
:104cac00144f98006702470031c0b300040078002d
:104cbc0079fe0700004278003447980084ba8000df
:104ccc0060c0b3000400010084ba800050c8b30077
:104cdc000400010085ba800064852100144278002c
:104cec00044078000500010085ba8000548521003d
:104cfc0014427800044078000500010084ba80005a
:104d0c0030c0b3000400010084ba800000c0eb0086
:104d1c000400010084ba800020c0b300040001002c
:104d2c0085ba800024852100144278000482fb009f
:104d3c000402e90086752100040243001442780045
:104d4c00044078000500010084ba80003e409000c9
:104d5c0004000100358521000042eb00844a7800f4
:104d6c00258521000042eb00844a780014fe0700e0
:104d7c000042eb00010037000042eb0004407800d9
:104d8c004f04be000080fa00000006000400fa0088
:104d9c00004f7800110798001e0190009e4078008b
:104dac0080862100020007000080fa000000060047
:104dbc000600fa00000f780021479800220798009f
:104dcc002e029000b4c988001e027800e4a2900064
:104ddc00440c2000848f52003e003c001e027800e0
:104dec0044a290009e02780004824200ae429000e1
:104dfc00054a78001e02780044a29000810c200025
:104e0c00040078006b000700000278008402780030
:104e1c001e02780045a298001e02780064a2900041
:104e2c008402e8001e02780065a298001e02780039
:104e3c00c4a2900064932100144278001e037800f1
:104e4c0085024300844a78001e02780044a2900038
:104e5c00810c200004007800560007000002780046
:104e6c00840278001e02780045a298001e02780089
:104e7c0064a290008402e8001e02780065a29800eb
:104e8c001e027800c4a29000749321001442780092
:104e9c001e03780085024300844a78001e027800c5
:104eac0044a29000810c200004007800410007000f
:104ebc0000027800840278001e02780045a2980057
:104ecc001e02780064a290008402e8001e027800a2
:104edc0065a298000080fa00000006000400fa00a9
:104eec00100798001e02900064a29000e00f520080
:104efc00140034001e02900054a290009e029000f8
:104f0c0004824200144f78001e02900054a29000bc
:104f1c00810c2000040078002600070000027800b5
:104f2c00840278001e02900055a298001e02900088
:104f3c0064a290008402e9001e02900065a2980011
:104f4c00020037000042eb00044f78001e4278004c
:104f5c00044078000080fa00000006000400fa000b
:104f6c00000f7800110798001e0278008002eb00f9
:104f7c0065a298001e0278008002eb0045a2980002
:104f8c001e0278008002eb0055a298001e029000d1
:104f9c00e00f5200050032001e027800820c200047
:104fac008000eb000400780074ee07000080fa002b
:104fbc00000006000600fa00100798002107980070
:104fcc001e029000040fe8002e0290009e02780052
:104fdc00848f5200020039000002eb00040f7800ad
:104fec001e027800040078000080fa000000060021
:104ffc000400fa00204798000002eb00040f780030
:10500c00130037001e027800044278000041eb00c8
:10501c0084407800809321007f00070000427800d4
:10502c00ae429000854f520008003a001e027800f4
:10503c000442780022c0b3008440780080932100a1
:10504c007500070000427800050037001e0fe800cd
:10505c001e027800e40f5200eaff340044c0b30093
:10506c00044078000080fa00000006000000fa00fe
:10507c00f4c28000040078000080fa0000000600f2
:10508c000000fa0004c38000040078000080fa00dd
:10509c00000006000000fa0014c380000400780031
:1050ac000080fa00000006000000fa0024c3800013
:1050bc00040078000080fa00000006000600fa00e8
:1050cc00000f78002147980032479800434798001a
:1050dc001e027800040a90009e02780004824200ae
:1050ec00ae429000054a78001e027800040a900037
:1050fc008402e8001e027800050a98001e0278005f
:10510c00040a90009e02780004824200be42900085
:10511c00054a78001e027800040a90008402e80018
:10512c001e027800050a98001e027800040a9000fe
:10513c009e02780004824200ce429000054a78001c
:10514c001e027800040a90008402e8001e02780017
:10515c00050a98001e027800040a9000ee0f520017
:10516c00030034001e0278008002eb00050a980050
:10517c000080fa00000006000600fa0010079800f4
:10518c0041479800524798004e429000e44f52001d
:10519c000200360044c0b300444798004e429000d1
:1051ac000442e800444798004e4290000482fb0001
:1051bc00e322b900040f78001e029000040a90004c
:1051cc009e0f52000a003d001e029000040a90003f
:1051dc001e0252006f0f42001e82e8009e029000d9
:1051ec0004824200de429000054a78000800370035
:1051fc001e029000040a90001e0252000482e80075
:10520c009e02900004824200de429000054a780023
:10521c000080fa00000006000600fa001007980053
:10522c0041479800524798004e429000e44f52007c
:10523c000200360044c0b300444798005e42900020
:10524c00e24f52000200360024c0b30054479800cd
:10525c004e4290000442e800444798004e429000b1
:10526c000482fb00e322b900040f78001e029000b8
:10527c00040a90009e0f52000b003d001e0290008d
:10528c00040a90001e0252006f0f42005e42900012
:10529c000482fb001e0242009e0290000482420027
:1052ac0014427800090037001e029000040a900096
:1052bc009e0252005e4290000482fb000482420077
:1052cc009e02900004824200144278000440780050
:1052dc000080fa00000006000800fa00881f780021
:1052ec0000000000a4ba8000040001000002780055
:1052fc00e30f5200fbff340094ba8000040001005d
:10530c00004278004447980094ba800004000100e1
:10531c00004278005447980094ba800004000100c1
:10532c00004278006447980094ba800004000100a1
:10533c0000427800244798006402470031c0b30053
:10534c0004007800d4fc0700004278003447980031
:10535c00ae4290003e42900084cf520032003a00a0
:10536c000002eb00040f78002b0037001e027800bf
:10537c00044278000041eb008440780080932100c7
:10538c00a5ff070000427800658521009542780052
:10539c00854f52001f003a006e4490001e027800a8
:1053ac000442780012c0b30084407800809321003e
:1053bc0099ff070000427800844f540015003a0012
:1053cc005e429000e14f520007003a001e02780046
:1053dc000442780012c0b30084407800809321000e
:1053ec0065ff0700130037005e429000e24f520049
:1053fc0008003a001e0278000442780022c0b30074
:10540c0084407800809321005bff070000000000bf
:10541c00080037001e0fe8001e027800e40f52004f
:10542c00d2ff34000300370004c380000402e800fc
:10543c0004c388004f0478000080fa0000000600c6
:10544c000200fa000002eb00040f78000002eb00ef
:10545c00040f780005003700a49721009e0242003b
:10546c000042eb00844a78001e0fe800940f2000e5
:10547c009e027800848f5200f7ff34000080fa00ff
:10548c00000006000e00fa00000f7800214798007b
:10549c003247980043479800340798004507980016
:1054ac0056079800670798001e027800d4d388002e
:1054bc0074a72100be429000054a78003e0290007d
:1054cc0094cb8800de029000b5cb88006e02900071
:1054dc00c4cb8800ce029000a5cb88002e42900051
:1054ec000482fb000402d1000442780095a721003d
:1054fc00844a7800a4a82100e4d38800e4a7210002
:10550c00ce429000054a78000002eb0004d48800db
:10551c000080fa00000006000800fa00200798003e
:10552c00614798000042eb00044f780020003700e0
:10553c002e02900094427800154798002e0290009d
:10554c000402e8002407980084c0b30024479800a4
:10555c00140037001e4290001e426a006142620035
:10556c00344798009e4278000582fb000402d1006b
:10557c00044f78003e429000e04f5200020032008f
:10558c00c4c8b3001e4f6a001e4290000482fb0088
:10559c000402d100144798002e4290000442e90006
:1055ac00244798002e429000e04f5200e9ff3a0049
:1055bc006e4290000482fb000402ea004f22de00df
:1055cc0004427800ee4290008542e900654798005d
:1055dc00e04f5200d6ff3a001e427800044078009b
:1055ec000080fa00000006000600fa004047980010
:1055fc00b4da800004427800e5d38000844078005f
:10560c0005007800c4ff070000427800244798008a
:10561c0094cb800060c0b3000400010094cb8000e8
:10562c0050c8b3000400010094cb80004e409000a1
:10563c000400010095cb800074a72100144278006f
:10564c00044078000500010095cb8000b4da80009e
:10565c000442780004407800050001000002eb00d1
:10566c00040f78000800370095cb8000e6d380004b
:10567c001e027800040243001442780004407800b3
:10568c00050001001e0fe800b4da80009e0f5200e6
:10569c00f5ff3c0094cb80002e40900004000100ec
:1056ac008041eb002e419000ce409000a0b521002f
:1056bc002202070011002000a0a82100c70107004a
:1056cc000080fa00000006000a00fa00889fbe0065
:1056dc0054a7210014427800e04f52003a003a00df
:1056ec00b4cb80000400010000027800e40f5200eb
:1056fc00350034000a00370004d480000402e800ae
:10570c0004d48800b4cb80000400010000027800af
:10571c00e40f520002003c000042eb00370137005e
:10572c00a4cb80000400010000427800e64f520038
:10573c00f1ff3a00a4cb8000040001000042780085
:10574c0055c8b300854f52001f003a00a4cb80000f
:10575c00040001000042780085a82100844a7800ea
:10576c00a4cb8000040001000042780085a7210032
:10577c00844a7800a4cb8000040001000042780029
:10578c0055a72100844a780084a82100944278000f
:10579c0074a721001442780084cf52000a00320012
:1057ac0024d480000402e80024d48800a4cb800018
:1057bc000400010055a721000042eb00844a780048
:1057cc000042eb000d01370054a721001442780071
:1057dc00e04f52000801320044a721001442780027
:1057ec00e04f520023003a0000000000b4cb8000d0
:1057fc000400010000027800e00f5200fbff3400af
:10580c00c4cb80000400010000427800e14f42004c
:10581c001a003a005002070055a721000042eb0085
:10582c00844a780045a721000042eb00844a7800a6
:10583c0003ff0700a4ff070000427800ef003700c9
:10584c0044a72100144478008884fb00a4cb80007a
:10585c000400010000427800a597210089824200d3
:10586c00844a78000842e80045a72100844a780061
:10587c0003003700000000000100370000000000aa
:10588c00b4cb80000400010000027800e00f52004d
:10589c000600320044a721009442780054a721004e
:1058ac001442780084cf5200e5ff360054a7210043
:1058bc00144278008482fb0044a721001442780033
:1058cc000482fb000402e900848f5200ca003a00f3
:1058dc0054a721001442780084407800a09721003e
:1058ec000dff07000042780065a72100844a78006c
:1058fc0044a72100144278000482fb000402e90052
:10590c00a5972100048242009442780064a72100ec
:10591c001442780084cf52006f003a000002eb0072
:10592c00040f780022003700a49721001e024200c9
:10593c009442780094a721001442780084cf52003e
:10594c00160031001e02e800a597210004824200d7
:10595c001442780085b52100844a78001e82e80044
:10596c00a5972100048242001442780095b52100cd
:10597c00844a7800d5d38000a49721001e024200ef
:10598c00144278000482fb000402420004824200ac
:10599c00c5da8000050a78000300370034d4800093
:1059ac000402e80034d488001e027800630f420021
:1059bc0054a72100144278000482fb009e0f520071
:1059cc00d9ff3c00e4a7210014427800e04f5200bc
:1059dc003800320000c2eb004447980014c0b300fa
:1059ec005447980044a72100144278000482fb001d
:1059fc000402e900a59721000482420014427800b9
:105a0c00644798006402470031c0b300040078007a
:105a1c00c1fe0700004278002447980094cb800018
:105a2c0060c0b3000400010094cb800050c8b300e8
:105a3c000400010095cb800084a72100144278005b
:105a4c00044078000500010095cb800074a721006c
:105a5c0014427800044078000500010094cb8000cb
:105a6c0030c0b3000400010094cb800000c0eb00f8
:105a7c000400010094cb800010c0b30004000100ae
:105a8c0095cb800044a72100144278000482fb00cf
:105a9c000402e900a6972100040243001442780096
:105aac00044078000500010094cb80002e4090004b
:105abc000400010055a721000042eb00844a780045
:105acc0045a721000042eb00844a78005cfe0700e9
:105adc0014c0b3004900370014d480000402e8005d
:105aec0014d48800e4a7210014427800e04f52003f
:105afc003800320000c2eb007447980024c0b30099
:105b0c00044f980044a72100144278000482fb0043
:105b1c000402e900a5972100048242001442780097
:105b2c00144f98006702470031c0b300040078009e
:105b3c0079fe0700004278003447980094cb80002f
:105b4c0060c0b3000400010094cb800050c8b300c7
:105b5c000400010095cb800084a72100144278003a
:105b6c00044078000500010095cb800074a721004b
:105b7c0014427800044078000500010094cb8000aa
:105b8c0030c0b3000400010094cb800000c0eb00d7
:105b9c000400010094cb800020c0b300040001007d
:105bac0095cb800044a72100144278000482fb00ae
:105bbc000402e900a6972100040243001442780075
:105bcc00044078000500010094cb80003e4090001a
:105bdc000400010055a721000042eb00844a780024
:105bec0045a721000042eb00844a780014fe070010
:105bfc000042eb00010037000042eb00044078004b
:105c0c004f04be000080fa00000006000400fa00f9
:105c1c00004f7800110798001e0190009e407800fc
:105c2c00a0a82100020007000080fa000000060076
