:0400000056EF00F0C7
:100008004582FACF0DF0FBCF0EF0E9CF0FF0EACF23
:1000180010F0E1CF11F0E2CF12F0D9CF13F0DACF20
:1000280014F0F3CF15F0F4CF16F0F6CF17F0F7CFA2
:1000380018F0F8CF19F0F5CF1AF0A3BAA4AA03D094
:1000480006EC07F011D0A3B8A4A803D0D9EC06F0A9
:100058000BD09DBA9EAA03D0A8EC07F005D09DB896
:100068009EA802D0C0EC06F01AC0F5FF19C0F8FF30
:1000780018C0F7FF17C0F6FF16C0F4FF15C0F3FF4E
:1000880014C0DAFF13C0D9FF12C0E2FF11C0E1FFAC
:1000980010C0EAFF0FC0E9FF0EC0FBFF0DC0FAFF5A
:1000A800459211008DEF05F020D00001D74BD82BD9
:1000B80040500001C96FCA6B010E0001C927000E2C
:1000C800CA230001D7510001C95D0001CA51800A45
:1000D8000001CB6F0001D851800A0001CB59D8B07C
:1000E800E4D7000E406E000E12004050D8B42CD158
:1000F8003F50D8B4FFD740500001C96FCA6BFF0EFC
:100108000001CB6FFF0E0001CC6F3F500001CD6F97
:10011800CE6B0001CB510001CD270001CC5100016D
:10012800CE230001C9510001CD1905E10001CA51D2
:100138000001CE19D8A408D1000E1B6E040E1C6E47
:1001480040C01DF068EC06F0346EFF0E0001C96F68
:10015800FF0E0001CA6F3F500001CB6FCC6B00014E
:10016800C9510001CB270001CA510001CC23000E60
:100178000001CB25D96E040E0001CC21DA6E345073
:10018800DE18D8A4A9D0000E0001DA6F000ED96FCE
:100198005AD0000E0001D925D96E040E0001DA21CB
:1001A800DA6E3B50DE5CD8B041D0010E0001D92593
:1001B8000001C96F000E0001DA210001CA6F000EAC
:1001C8000001C925D96E040E0001CA21DA6EDF507C
:1001D800296E020E0001D9250001C96F000E000129
:1001E800DA210001CA6F000E0001C925D96E040E7C
:1001F8000001CA21DA6EDF502A6E000E0001D925EF
:10020800D96E040E0001DA21DA6EDF500001C96FE1
:100218000001C951020DF3502B24D96EF4502C2043
:10022800DA6E29C0DEFF2AC0DDFF03D000019E4B35
:100238009F2B030E0001D9250001D96F000E000184
:10024800DA210001DA6F40500001C96FCA6B000162
:10025800C9510001D95D0001DA51800A0001CB6F54
:100268000001CA51800A0001CB59D8A092D7335057
:10027800D8B42CD00001D169010E0001D26FFF0E55
:100288000001C96FFF0E0001CA6F3F500001CB6F1C
:10029800CC6B0001C9510001CB270001CA510001F4
:1002A800CC23000E0001CB25D96E040E0001CC2111
:1002B800DA6EDF500001D36FD10E1B6E000E1C6E7C
:1002C800030E1D6E68EC06F00001CF6F000E406E45
:1002D800000E3F6E010E120000019C4B9D2B335007
:1002E800D8B42CD00001D469020E0001D56FFF0EDE
:1002F8000001C96FFF0E0001CA6F3F500001CB6FAC
:10030800CC6B0001C9510001CB270001CA51000183
:10031800CC23000E0001CB25D96E040E0001CC21A0
:10032800DA6EDF500001D66FD40E1B6E000E1C6E05
:10033800030E1D6E68EC06F00001D06F000E406ED3
:10034800000E3F6E000E1200000E120024C029F0AD
:1003580025C02AF020EECCF02150D9262250DA22EE
:10036800010EDBBE07D0010EDB5003E1C50EDE5CDB
:10037800D8B0120020EEC8F02150D9262250DA2237
:10038800DECFC2F0DDCFC3F00001C2512124D96E07
:100398000001C3512220DA6E23C0DFFF20EEC8F02F
:1003A8002150D9262250DA22DECF1BF0DDCF1CF0F7
:1003B800000E1E6EC80E1D6E31EC07F020EEC8F060
:1003C8002150D9262250DA221BC0DEFF1CC0DDFFD7
:1003D80020EECCF02150D9262250DA22DE2A000E57
:1003E800DD2220EEC8F02150D9262250DA22DECFB5
:1003F800C2F0DDCFC3F00001C2512124D96E000143
:10040800C3512220DA6E29C0DFFF20EEC8F0215048
:10041800D9262250DA22DECF1BF0DDCF1CF0000EE9
:100428001E6EC80E1D6E31EC07F020EEC8F021508C
:10043800D9262250DA221BC0DEFF1CC0DDFF20EEC9
:10044800CCF02150D9262250DA22DE2A000EDD22F5
:1004580020EEC8F02150D9262250DA22DECFC2F091
:10046800DDCFC3F00001C2512124D96E0001C35170
:100478002220DA6E2AC0DFFF20EEC8F02150D926EC
:100488002250DA22DECF1BF0DDCF1CF0000E1E6EEC
:10049800C80E1D6E31EC07F020EEC8F02150D926A9
:1004A8002250DA221BC0DEFF1CC0DDFF20EECCF09C
:1004B8002150D9262250DA22DE2A000EDD2212002F
:1004C80020EECCF00750D9260850DA22010EDBBE08
:1004D80007D0010EDB503AE1C80EDE5CD8B036D04A
:1004E80020EEC8F00750D9260850DA22DECF0AF0ED
:1004F800DDCF0BF00A500724D96E0B500820DA6EB6
:1005080009C0DFFF20EEC8F00750D9260850DA22CC
:10051800DECF01F0DDCF02F0000E046EC80E036ED0
:1005280046EC07F020EEC8F00750D9260850DA222A
:1005380001C0DEFF02C0DDFF20EECCF00750D92657
:100548000850DA22DE2A000EDD22120020EEC8F062
:100558000750D9260850DA22DECF0AF0DDCF0BF09B
:100568000A500724D96E0B500820DA6E09C0DFFF45
:1005780020EEC8F00750D9260850DA22DECF01F065
:10058800DDCF02F0000E046EC80E036E46EC07F0D5
:1005980020EEC8F00750D9260850DA2201C0DEFF45
:1005A80002C0DDFF20EECAF00750D9260850DA2233
:1005B800DECF01F0DDCF02F0000E046EC80E036E30
:1005C80046EC07F020EECAF00750D9260850DA2288
:1005D80001C0DEFF02C0DDFF1200040E1D6402D060
:1005E800040E1D6E020E1E6402D0020E1E6E1D2821
:1005F8001D6E1D50030DF3CF25F0F4CF26F020EE2D
:100608000FF01B50D9261C50DA222550DE5CDE5034
:10061800800A216E2650800A2158D8B02AD020EEB0
:100628000FF01B50D9261C50DA22DECF1FF0DDCF89
:1006380020F01F1E201E1F4A202A25501F26265044
:1006480020221F1E201E1F4A202A0F0E1F24256E3F
:10065800000E2020266E1E5025241F6E000E262018
:10066800206E1F501B24D96E20501C20DA6EDF50DC
:10067800120020EE0FF01B50D9261C50DA22DECFD4
:100688001FF0DDCF20F025C021F026C022F0211E6A
:10069800221E214A222A1E50236E246A2150232614
:1006A800225024221F5023262050242223501B246A
:1006B800D96E24501C20DA6EDF50120020EE0FF0A5
:1006C8001B50D9261C50DA22DECF20F0DDCF21F0D6
:1006D80020501B24D96E21501C20DA6E1DC0DFFF6C
:1006E80020EE0FF01B50D9261C50DA22DE2A000E0D
:1006F800DD2220EE0FF01B50D9261C50DA22DECF67
:1007080020F0DDCF21F020501B24D96E21501C2071
:10071800DA6E1EC0DFFF20EE0FF01B50D9261C50EA
:10072800DA22DE2A000EDD2220EE0FF01B50D92639
:100738001C50DA22DECF20F0DDCF21F020501B2420
:10074800D96E21501C20DA6E1FC0DFFF20EE0FF09B
:100758001B50D9261C50DA22DE2A000EDD2220EE9C
:100768000FF01B50D9261C50DA22010EDBBE1200F6
:10077800010EDB5004E10F0EDE5CD8A0120020EE63
:100788000FF01B50D9261C50DA22000EDE6E000E28
:10079800DD6E1200040E1D6402D0040E1D6E1D28AD
:1007A8001D6E1D50030DF3CF23F0F4CF24F020EE7F
:1007B8000FF01B50D9261C50DA222350DE5CDE5085
:1007C800800A216E2450800A2158D8B02BD020EE00
:1007D8000FF01B50D9261C50DA22DECF1FF0DDCFD8
:1007E80020F01F1E201E1F4A202A23501F26245097
:1007F80020221F1E201E1F4A202A0F0E1F24236E90
:10080800000E2020246E020E23241F6E000E2420CA
:10081800206E1F501B24D96E20501C20DA6E1EC07B
:10082800DFFF120020EE0FF01B50D9261C50DA22F1
:10083800DECF1FF0DDCF20F023C021F024C022F04E
:10084800211E221E214A222A1F5021262050222200
:10085800020E2126000E222221501B24D96E22507E
:100868001C20DA6E1EC0DFFF1200FFD70001C8BFD0
:1008780008D00001C85143E1050E0001C75DD8B09A
:100888001200A60E1B6E000E1C6EC7C01DF0000ED7
:100898001E6EF1EC02F03D18D8A42DD0A60E1B6EEA
:1008A800000E1C6EC7C01DF0010E1E6EF1EC02F0AA
:1008B8000001C619D8A41FD00001C505D8A40BD0C3
:1008C800A60E1B6E000E1C6EC7C01DF0010E1E6E1C
:1008D800CEEC03F01200020E0001C519D8A40BD00B
:1008E800A60E1B6E000E1C6EC7C01DF0020E1E6EFB
:1008F800CEEC03F012000001C74BC82BB7D712008B
:1009080020EECCF00750D9260850DA22010EDBBEC3
:100918003CD0010EDB5003E1DE04D8A036D020EE37
:10092800CAF00750D9260850DA22DECF09F0DDCF09
:100938000AF009500724D96E0A500820DA6EDF50F1
:100948000B6E20EECAF00750D9260850DA22DECF07
:1009580001F0DDCF02F0000E046EC80E036E46EC07
:1009680007F020EECAF00750D9260850DA2201C055
:10097800DEFF02C0DDFF20EECCF00750D92608507C
:10098800DA22DE06000EDD5A02D0000E0B6E0B5086
:1009980012008C862350D8B41200000E0001C36FD9
:1009A800000EC26F0001C3BF08D00001C35136E179
:1009B800050E0001C25DD8B031D021C0D9FF22C0D8
:1009C800DAFFDF50246EE00E24241B6E1C6AFF0E33
:1009D8001C22000E1E6E050E1D6E83EC07F0370EEE
:1009E800256E7E0E266E1B5025261C5026220001E1
:1009F800C25125260001C351262225C0F6FF26C074
:100A0800F7FF0800F550E7EC07F0000EE7EC07F0F9
:100A1800214A222A0001C24BC32BC4D72306BAD7C6
:100A2800D1EC07F0F28EA7EC06F0E80E1B6E030E71
:100A38001C6E000E1D6E000E1E6E1CEC06F05BECAC
:100A480007F0540E0001B76F450E0001B86F530E42
:100A58000001B96F540E0001BA6F200E0001BB6F80
:100A68004C0E0001BC6F430E0001BD6F440E000127
:100A7800BE6F200E0001BF6F3AC0C0F03A2A020EC6
:100A88001C6E020E96EC07F0B70E216E000E226E59
:100A98000A0E236ECDEC04F0C8D70001C36F2DC039
:100AA8001BF02EC01CF0CCC11DF068EC06F0000154
:100AB800C46F000E0001C66F000EC56F03D00001A1
:100AC800C54BC62B0101CC510001C55D0001C651C3
:100AD800800A0001C26F0101CD51800A0001C2598C
:100AE800D8A0EDD7A60E1B6E000E1C6EC3C01DF05D
:100AF800C4C01EF0000E1F6E62EC03F0000E236EE1
:100B0800010E246E000E266E010E256EC1EC05F056
:100B1800120004EE00F0C80EEE6AE806FDE103EEEE
:100B280000F0CE0EEE6AE806FDE102EE00F0CE0E11
:100B3800EE6AE806FDE101EE00F0CE0EEE6AE80688
:100B4800FDE100EE60F0620EEE6AE806FDE100EEFF
:100B580027F01A0EEE6AE806FDE1FC0EF66E0F0E9F
:100B6800F76E000EF86E0900F5CF44F045904592F7
:100B7800000EF86E000114EF05F020EECCF02350C3
:100B8800D9262450DA22000EDE6E000EDD6E20EE2D
:100B9800C8F02350D9262450DA22000EDE6E000E4B
:100BA800DD6E20EECAF02350D9262450DA22000E3A
:100BB800DE6E000EDD6E25502610D8B4120023C05C
:100BC8001BF024C01CF0000E1E6E000E1D6E000EE1
:100BD800206EC80E1F6EF0EC06F012008B8A000E15
:100BE8000001C56F050EC46F000EB7EC07F0000ECC
:100BF8000001C56F050EC46F090EB7EC07F0050EAE
:100C08001B6E000E1C6E000E1D6E000E1E6E1CEC80
:100C180006F0010E51EC05F0030E1B6E000E1C6E63
:100C2800000E1D6E000E1E6E1CEC06F08B9A120054
:100C3800000E206E000E216E000E226E000E236E36
:100C48000ED0060E1F6E300EE82EFED71F2EFCD7D4
:100C580000D0010E2026000E2122222223221B5022
:100C6800205C1C5021581D5022582350800A1F6EAA
:100C78001E50800A1F58D8B01200E3D7000E896EA4
:100C8800070E926E070E0F01386F000E8A6EE70E80
:100C9800936E270E0F01396F000E616E000E8B6E7A
:100CA800DC0E946E140E0F013A6F000E8C6E956870
:100CB8003F0E0F013B6F000E8D6E070E966E070EEE
:100CC8000F013C6FF18E1200000E216E1CD01BC06C
:100CD800D9FF1CC0DAFFDF501F6E1B4A1C2A080E02
:100CE800206E0ED021501F18010B1E6ED890213295
:100CF8001E50D8B402D08C0E211AD8901F3220066C
:100D08002050D8A4EFD71D061D28D8A4E0D721501D
:100D18001200A39AA398480E706E900E716E260E5C
:100D2800726EA00E756E010E766E000E386E000E95
:100D3800396E080E436E000E366E000E376E000ECA
:100D4800356EA38A12008C968C90210EE7EC07F082
:100D5800C80EE7EC07F0060EE7EC07F0130EE7EC19
:100D680007F0200EE7EC07F00C0EE7EC07F05BEC61
:100D780007F06FEC07F01200000E016E030E026E12
:100D8800DCEC07F002BE0DD0025003E10104D8A04C
:100D980008D0000E076E030E086E84EC04F0AD6EEA
:100DA8001200010E446E9D981200080E436012D086
:100DB8003950010D900EF324D96E000EF420DA6E2E
:100DC800DF50736E392A070E396402D0000E396E6F
:100DD800432A1200A39812001BC021F01CC022F065
:100DE80008D021C0D9FF22C0DAFF1DC0DFFF214A89
:100DF800222A1F06D8A020061F28F3E12028D8B4ED
:100E08001200EFD771A202D0719871883650010D87
:100E1800880EF324D96E000EF420DA6E74CFDFFF4B
:100E2800362A070E366402D0000E366E352A1200B6
:100E380058EC00F00009D8B41200315000016219D2
:100E480005E1325000016319D8B404D062C031F012
:100E580063C032F0F2EC05F01200010E1B241F6E85
:100E6800000E1C20206E1D501F5C1E502058D8A05C
:100E780004D0000E206E000E1F6E1FC01BF020C095
:100E88001CF01200010E0124056E000E0220066EF1
:100E98000350055C04500658D8A004D0000E066E16
:100EA800000E056E05C001F006C002F012008C901D
:100EB8008C86000E1D6E000E1C6E1DBE06D0F80E30
:100EC8001C5C010E1D58D8B01200000EE7EC07F0AC
:100ED8001C4A1D2AF2D78C908C86000E1D6E000EBF
:100EE8001C6E1DBE06D0F80E1C5C010E1D58D8B035
:100EF8001200FF0EE7EC07F01C4A1D2AF2D71B5020
:100F08001D02F3CF1FF0F4CF20F01B501E02F35048
:100F180020261C501D02F35020261FC01BF020C0A5
:100F28001CF012001D6E8C961C5040091C6E1C5043
:100F3800E7EC07F01D50060DF35080091D6E1D509B
:100F4800E7EC07F08C861200ABA202D0AB98AB8816
:100F5800AECF0CF0000E076E020E086E0CC009F042
:100F680064EC02F01200266E000E216E010E226E55
:100F780026C023F0C4C024F0C5C025F0AAEC01F0B7
:100F88001200910ED56E0A0ED76ED6680A0E426E02
:100F98004168F294FCEC07F01200EFEC07F042EC29
:100FA80006F0F6EC07F08DEC06F0C5EC07F0120041
:100FB80020EECCF00150D9260250DA22DECF01F023
:100FC800DDCF02F012001B6E6C9E1BC06FFF6DA080
:100FD800FED76F501200700ED36E040ED26E000E44
:100FE8009B6E1200D09EA59AA5989F9A9F98120072
:050FF800D58E1200017E
:107E360000000000000000002F00000007000700FF
:107E4600147F147F14242A7F2A12C4C810264636AB
:107E5600495522500005030000001C224100004144
:107E6600221C0014083E081408083E0808000050AA
:107E76003000101010101000606000002010080480
:107E8600023E5149453E00427F400042615149460B
:107E96002141454B311814127F1027454545393C81
:107EA6004A494930017109050336494949360649A7
:107EB60049291E00363600000056360000081422F6
:107EC600410014141414140041221408020151092B
:107ED60006324959513E7E1111117E7F4949493674
:107EE6003E414141227F4141221C7F494949417F10
:107EF600090909013E4149497A7F0808087F00417E
:107F06007F41002040413F017F081422417F4040CD
:107F160040407F020C027F7F0408107F3E414141B2
:107F26003E7F090909063E4151215E7F091929460E
:107F3600464949493101017F01013F4040403F1F09
:107F46002040201F3F4038403F6314081463070851
:107F56007008076151494543007F414100552A5544
:107F66002A550041417F000402010204404040407E
:107F760040000102040020545454787F4844443899
:107F86003844444420384444487F385454541808EC
:107F96007E0901020C5252523E7F080404780044C6
:107FA6007D40002040443D007F1028440000417F72
:107FB60040007C041804787C08040478384444445F
:107FC600387C14141408081414187C7C080404085B
:107FD6004854545420043F4440203C4040207C1CDC
:107FE6002040201C3C4030403C44281028440C5083
:097FF60050503C4464544C44001A
:020000040020DA
:08000000FFFFFFFFFFFFFFFF00
:020000040030CA
:0E000000FF081F3CFFBF81FF0FC00FE00F4045
:00000001FF
