:0400000056EF00F0C7
:100008005682FACF3BF0FBCF3CF0E9CF3DF0EACF88
:100018003EF0E1CF3FF0E2CF40F0D9CF41F0DACF68
:1000280042F0F3CF43F0F4CF44F0F6CF45F0F7CFEA
:1000380046F0F8CF47F0F5CF48F0A3BAA4AA03D00A
:10004800A4EC02F011D0A3B8A4A803D08DEC02F060
:100058000BD09DBA9EAA03D0CFEC02F005D09DB874
:100068009EA802D074EC02F048C0F5FF47C0F8FF24
:1000780046C0F7FF45C0F6FF44C0F4FF43C0F3FF96
:1000880042C0DAFF41C0D9FF40C0E2FF3FC0E1FFF4
:100098003EC0EAFF3DC0E9FF3CC0FBFF3BC0FAFFA2
:1000A800569211002EEF01F020EECCF03550D926F3
:1000B8003650DA22010EDBBE07D0010EDB503AE1E2
:1000C800C80EDE5CD8B036D020EEC8F03550D92640
:1000D8003650DA22DECF38F0DDCF39F0385035240B
:1000E800D96E39503620DA6E37C0DFFF20EEC8F0FF
:1000F8003550D9263650DA22DECF2FF0DDCF30F05A
:10010800000E326EC80E316EBAEC02F020EEC8F066
:100118003550D9263650DA222FC0DEFF30C0DDFF39
:1001280020EECCF03550D9263650DA22DE2A000EE1
:10013800DD22120020EEC8F03550D9263650DA22DA
:10014800DECF38F0DDCF39F038503524D96E39504C
:100158003620DA6E37C0DFFF20EEC8F03550D926DA
:100168003650DA22DECF2FF0DDCF30F0000E326EBF
:10017800C80E316EBAEC02F020EEC8F03550D92620
:100188003650DA222FC0DEFF30C0DDFF20EECAF085
:100198003550D9263650DA22DECF2FF0DDCF30F0B9
:1001A800000E326EC80E316EBAEC02F020EECAF0C4
:1001B8003550D9263650DA222FC0DEFF30C0DDFF99
:1001C800120020EECCF03550D9263650DA22010E36
:1001D800DBBE3CD0010EDB5003E1DE04D8A036D0F4
:1001E80020EECAF03550D9263650DA22DECF37F065
:1001F800DDCF38F037503524D96E38503620DA6ED6
:10020800DF50396E20EECAF03550D9263650DA2242
:10021800DECF2FF0DDCF30F0000E326EC80E316E1B
:10022800BAEC02F020EECAF03550D9263650DA2260
:100238002FC0DEFF30C0DDFF20EECCF03550D926D0
:100248003650DA22DE06000EDD5A02D0000E396E74
:100258003950120004EE00F0C80EEE6AE806FDE11F
:1002680003EE00F0CE0EEE6AE806FDE102EE00F0C5
:10027800CE0EEE6AE806FDE101EE00F0CE0EEE6A63
:10028800E806FDE100EE60F04C0EEE6AE806FDE1DE
:1002980000EE01F02E0EEE6AE806FDE13A0EF66E6B
:1002A800060EF76E000EF86E00EE49F010EE0AF03A
:1002B8000900F5CFEEFFE550E150FAE1569056926D
:1002C800000EF86E0001D4EF01F095909596959484
:1002D80010EC03F08C84640E0001AC6F000EAD6F5F
:1002E800000EAE6F000EAF6FA1EC01F08C94640E9F
:1002F8000001AC6F000EAD6F000EAE6F000EAF6F59
:10030800A1EC01F08C848C968C90210E00EC03F00B
:10031800C80E00EC03F0060E00EC03F0130E00EC20
:1003280003F0200E00EC03F00C0E00EC03F08C80C0
:1003380024EC02F03FEC02F01200000E0001B16F55
:10034800000EB26F000EB36F000EB46F10D0060E21
:100358000001B06F300EE82EFED7B02FFCD700D0CA
:10036800010E0001B127000EB223B323B42300010C
:10037800AC510001B15D0001AD510001B25900015D
:10038800AE510001B3590001B451800A0001B06FA9
:100398000001AF51800A0001B059D8B01200D7D778
:1003A800EAEC02F0F28EF28C69EC01F092961CD025
:1003B800E80E0001AC6F030EAD6F000EAE6F000EBD
:1003C800AF6FA1EC01F089BC02D0898C01D0899C67
:1003D8008BB002D08B8001D08B908BB202D08B82F5
:1003E80001D08B9289B602D08986E2D78996E0D768
:1003F800000E8A6E000E896E070E0F013C6F000E0C
:100408008D6E000E8C6E000E8B6E2F0E0F01386FE6
:100418003F0E0F01396FCC0E0F013A6F3F0E0F01DF
:100428003B6FFC0E616EF20E956E070E966EC40E53
:10043800936ED40E946E370E926EF19EF296120061
:100448008C908C86000E0001AE6F000EAD6F00011F
:10045800AEBF08D0F80E0001AD5D010E0001AE5927
:10046800D8B007D0000E00EC03F00001AD4BAE2B66
:10047800EED78C8012008C908C86000E0001AE6F37
:10048800000EAD6F0001AEBF08D0F80E0001AD5DE3
:10049800010E0001AE59D8B007D0FF0E00EC03F0F2
:1004A8000001AD4BAE2BEED78C801200A39AA39817
:1004B800480E706E900E716E260E726EA00E756EDE
:1004C800010E766E000E266E000E276E080E556E13
:1004D800000E246E000E256E000E236EA38A1200F5
:1004E800000E2F6E030E306EF5EC02F030BE0DD00C
:1004F800305003E12F04D8A008D0000E356E030E4B
:10050800366EE5EC00F0AD6E1200010E496E9D9856
:100518001200080E556012D02750010D010EF32469
:10052800D96E000EF420DA6EDF50736E272A070E9C
:10053800276402D0000E276E552A1200A3981200D5
:1005480071A202D0719871882450010D930EF32482
:10055800D96E000EF420DA6E74CFDFFF242A070E5E
:10056800246402D0000E246E232A1200010E2F24C8
:10057800336E000E3020346E3150335C32503458B4
:10058800D8A004D0000E346E000E336E33C02FF0A6
:1005980034C030F01200ABA202D0AB98AB88AECF1B
:1005A8003AF0000E356E020E366E3AC037F058EC4F
:1005B80000F01200910ED56E0A0ED76ED6680A0E9C
:1005C800546E5368F29422EC03F0120009EC03F025
:1005D800FCEC01F017EC03F05AEC02F0DEEC02F050
:1005E800120020EECCF02F50D9263050DA22DECF80
:1005F8002FF0DDCF30F012000001AC6FC69EACC00A
:10060800C9FFC7A0FED7C9501200700ED36E040EE2
:10061800D26E000E9B6E1200000EC76E320EC66EB2
:10062800000EC86E1200D09EA59AA5989F9A9F9812
:100638001200014D2C002C002C002C45D58E1200E8
:107E2C0000000000000000002F0000000700070009
:107E3C00147F147F14242A7F2A12C4C810264636B5
:107E4C00495522500005030000001C22410000414E
:107E5C00221C0014083E081408083E0808000050B4
:107E6C00300010101010100060600000201008048A
:107E7C00023E5149453E00427F4000426151494615
:107E8C002141454B311814127F1027454545393C8B
:107E9C004A494930017109050336494949360649B1
:107EAC0049291E0036360000005636000008142200
:107EBC004100141414141400412214080201510935
:107ECC0006324959513E7E1111117E7F494949367E
:107EDC003E414141227F4141221C7F494949417F1A
:107EEC00090909013E4149497A7F0808087F004188
:107EFC007F41002040413F017F081422417F4040D8
:107F0C0040407F020C027F7F0408107F3E414141BC
:107F1C003E7F090909063E4151215E7F0919294618
:107F2C00464949493101017F01013F4040403F1F13
:107F3C002040201F3F4038403F631408146307085B
:107F4C007008076151494543007F414100552A554E
:107F5C002A550041417F0004020102044040404088
:107F6C0040000102040020545454787F48444438A3
:107F7C003844444420384444487F385454541808F6
:107F8C007E0901020C5252523E7F080404780044D0
:107F9C007D40002040443D007F1028440000417F7C
:107FAC0040007C041804787C080404783844444469
:107FBC00387C14141408081414187C7C0804040865
:107FCC004854545420043F4440203C4040207C1CE6
:107FDC002040201C3C4030403C44281028440C508D
:107FEC0050503C4464544C44286E756C6C290025EC
:047FFC00730000000E
:020000040020DA
:08000000FFFFFFFFFFFFFFFF00
:020000040030CA
:0E000000FF081F3CFFBF81FF0FC00FE00F4045
:00000001FF
