:040000005CEF00F0C1
:100008004582FACF0DF0FBCF0EF0E9CF0FF0EACF23
:1000180010F0E1CF11F0E2CF12F0D9CF13F0DACF20
:1000280014F0F3CF15F0F4CF16F0F6CF17F0F7CFA2
:1000380018F0F8CF19F0F5CF1AF0A3BAA4AA03D094
:100048002AEC0CF017D0A3B8A4A803D0FAEC0AF055
:1000580011D09DBA9EAA03D085EC0BF00BD09DB8A9
:100068009EA803D042EC0BF005D0F2BAF2A402D05D
:1000780046EC0CF01AC0F5FF19C0F8FF18C0F7FFDE
:1000880017C0F6FF16C0F4FF15C0F3FF14C0DAFF5F
:1000980013C0D9FF12C0E2FF11C0E1FF10C0EAFF90
:1000A8000FC0E9FF0EC0FBFF0DC0FAFF459211001B
:1000B80049EF09F03950D8A4ACD001D80AD00500CE
:1000C800FA6E3A50FD6E3B50FE6EF850FF6EFA50D5
:1000D80012001EBE9ED01E501EE1050E1D5CD8B03B
:1000E8001AD097D00001934B942B01D80AD0050061
:1000F800FA6E3A50FD6E3B50FE6EF850FF6EFA50A5
:1001080012001EBE06D01E5006E1050E1D5CD8B0BA
:1001180002D0000E120001D80AD00500FA6E3C5039
:10012800FD6E3D50FE6EF850FF6EFA501200060A42
:10013800D8A4D8D701D80AD00500FA6E3C50FD6E75
:100148003D50FE6EF850FF6EFA501200850AD8A492
:1001580060D001D80AD00500FA6E3C50FD6E3D50C3
:10016800FE6EF850FF6EFA501200376E01D80AD0B2
:100178000500FA6E3C50FD6E3D50FE6EF850FF6E65
:10018800FA501200366E01D80AD00500FA6E3C50BB
:10019800FD6E3D50FE6EF850FF6EFA501200396E3B
:1001A80043503718D8B435D00001914B922B000E2C
:1001B8000001EA6F000EE96F0FD001D80AD00500E0
:1001C800FA6E3C50FD6E3D50FE6EF850FF6EFA50D0
:1001D80012000001E94BEA2B39500001DB6FDC6BA0
:1001E800010E0001DB27000EDC230001E9510001AC
:1001F800DB5D0001DC51800A0001DD6F0001EA517E
:10020800800A0001DD59D8B0D8D7000E396E000E2B
:1002180012003950D8B4A9D23850D8A444D001D843
:100228000AD00500FA6E3A50FD6E3B50FE6EF8504B
:10023800FF6EFA5012001EBEF2D71E5003E11D04D5
:10024800D8A0EDD701D80BD005000001FA6EF15106
:10025800FD6EF251FE6EF850FF6EFA501200FF0A62
:10026800D8A421D075EC04F0000E396E000E386E5B
:10027800000E120001D80AD00500FA6E3C50FD6E3F
:100288003D50FE6EF850FF6EFA5012000001DB6F11
:100298003850010D000EF324D96E020EF420DA6EE8
:1002A800DBC0DFFF382A01D80AD00500FA6E3A50C1
:1002B800FD6E3B50FE6EF850FF6EFA5012001D5056
:1002C8001E10D8B404D03850395CD8B0D3D73950C0
:1002D8000001DB6FDC6BFF0E0001DD6FFF0E00011C
:1002E800DE6F38500001DF6FE06B0001DD51000167
:1002F800DF270001DE510001E0230001DB5100018E
:10030800DF1905E10001DC510001E019D8A42DD264
:10031800000E1B6E020E1C6E39C01DF045EC0AF073
:100328002F6EFF0E0001DB6FFF0E0001DC6F3850EF
:100338000001DD6FDE6B0001DB510001DD270001EC
:10034800DC510001DE23000E0001DD25D96E020E0E
:100358000001DE21DA6E2F50DE18D8A43DD1000E40
:100368000001EC6F000EEB6F5DD0000E0001EB2575
:10037800D96E020E0001EC21DA6E0001F451DE5C48
:10038800D8B043D0010E0001EB250001DB6F000E51
:100398000001EC210001DC6F000E0001DB25D96EA5
:1003A800020E0001DC21DA6EDF502C6E020E000115
:1003B800EB250001DB6F000E0001EC210001DC6F72
:1003C800000E0001DB25D96E020E0001DC21DA6E79
:1003D800DF502D6E000E0001EB25D96E020E0001D4
:1003E800EC21DA6EDF500001DB6F0001DB51020DFA
:1003F800F3500001ED25D96EF4500001EE21DA6EBC
:100408002CC0DEFF2DC0DDFF03D00001974B982BD9
:10041800030E0001EB250001EB6F000E0001EC213B
:100428000001EC6F39500001DB6FDC6B0001DB5120
:100438000001EB5D0001EC51800A0001DD6F000155
:10044800DC51800A0001DD59D8A08FD70001F35193
:10045800D8B4BCD00001E169010E0001E26FFF0EC3
:100468000001DB6FFF0E0001DC6F38500001DD6F0B
:10047800DE6B0001DB510001DD270001DC510001CA
:10048800DE23000E0001DD25D96E020E0001DE21FB
:10049800DA6EDF500001E36FE10E1B6E000E1C6E7A
:1004A800030E1D6E45EC0AF00001E76F01D80BD072
:1004B8000500FA6E3E50FD6E3F50FE6EF850FF6E1E
:1004C800FA50060E120001D80BD00500FA6E3E5005
:1004D800FD6E3F50FE6EF850FF6EFA50850E12000A
:1004E80001D80BD00500FA6E3E50FD6E3F50FE6EEF
:1004F800F850FF6EFA503650120001D80BD00500A4
:10050800FA6E3E50FD6E3F50FE6EF850FF6EFA5088
:100518004350120001D80BD00500FA6E3E50FD6E14
:100528003F50FE6EF850FF6EFA50030E120001D8CD
:100538000BD00500FA6E3E50FD6E3F50FE6EF8502F
:10054800FF6EFA50FF0E120001D80BD00500FA6EAC
:100558003E50FD6E3F50FE6EF850FF6EFA50010E91
:10056800120001D825D00500FA6E3E50FD6E3F50AE
:10057800FE6EF850FF6EFA50FF0E0001DB6FFF0EA3
:100588000001DC6F38500001DD6FDE6B0001DB51CC
:100598000001DD270001DC510001DE23000E00010F
:1005A800DD25D96E020E0001DE21DA6EDF50120061
:1005B80001D80CD00500FA6E3E50FD6E3F50FE6E1D
:1005C800F850FF6EFA500001E7511200000E396E24
:1005D800000E386E010E12000001954B962B00019B
:1005E800F351D8B4BCD00001E469020E0001E56FF4
:1005F800FF0E0001DB6FFF0E0001DC6F38500001B9
:10060800DD6FDE6B0001DB510001DD270001DC51ED
:100618000001DE23000E0001DD25D96E020E000167
:10062800DE21DA6EDF500001E66FE40E1B6E000E6D
:100638001C6E030E1D6E45EC0AF00001E86F01D830
:100648000BD00500FA6E3E50FD6E3F50FE6EF8501E
:10065800FF6EFA50060E120001D80BD00500FA6E94
:100668003E50FD6E3F50FE6EF850FF6EFA50850EFC
:10067800120001D80BD00500FA6E3E50FD6E3F50B7
:10068800FE6EF850FF6EFA503650120001D80BD0AB
:100698000500FA6E3E50FD6E3F50FE6EF850FF6E3C
:1006A800FA504350120001D80BD00500FA6E3E50A4
:1006B800FD6E3F50FE6EF850FF6EFA50030E1200AA
:1006C80001D80BD00500FA6E3E50FD6E3F50FE6E0D
:1006D800F850FF6EFA50FF0E120001D80BD005003B
:1006E800FA6E3E50FD6E3F50FE6EF850FF6EFA50A7
:1006F800020E120001D825D00500FA6E3E50FD6E9C
:100708003F50FE6EF850FF6EFA50FF0E0001DB6F8F
:10071800FF0E0001DC6F38500001DD6FDE6B000159
:10072800DB510001DD270001DC510001DE23000E52
:100738000001DD25D96E020E0001DE21DA6EDF50E0
:10074800120001D80CD00500FA6E3E50FD6E3F50E5
:10075800FE6EF850FF6EFA500001E8511200000ECC
:10076800396E000E386E000E1200000E120024C002
:100778002CF025C02DF020EECCF02150D9262250A7
:10078800DA22010EDBBE07D0010EDB5003E1C50EF5
:10079800DE5CD8B0120020EEC8F02150D9262250D5
:1007A800DA22DECFD2F0DDCFD3F00001D2512124FE
:1007B800D96E0001D3512220DA6E23C0DFFF20EE6C
:1007C800C8F02150D9262250DA22DECF1BF0DDCF27
:1007D8001CF0000E1E6EC80E1D6EB0EC0BF020EE65
:1007E800C8F02150D9262250DA221BC0DEFF1CC0D7
:1007F800DDFF20EECCF02150D9262250DA22DE2A65
:10080800000EDD2220EEC8F02150D9262250DA222F
:10081800DECFD2F0DDCFD3F00001D2512124D96E42
:100828000001D3512220DA6E2CC0DFFF20EEC8F081
:100838002150D9262250DA22DECF1BF0DDCF1CF062
:10084800000E1E6EC80E1D6EB0EC0BF020EEC8F048
:100858002150D9262250DA221BC0DEFF1CC0DDFF42
:1008680020EECCF02150D9262250DA22DE2A000EC2
:10087800DD2220EEC8F02150D9262250DA22DECF20
:10088800D2F0DDCFD3F00001D2512124D96E00017E
:10089800D3512220DA6E2DC0DFFF20EEC8F02150A0
:1008A800D9262250DA22DECF1BF0DDCF1CF0000E55
:1008B8001E6EC80E1D6EB0EC0BF020EEC8F0215075
:1008C800D9262250DA221BC0DEFF1CC0DDFF20EE35
:1008D800CCF02150D9262250DA22DE2A000EDD2261
:1008E800120001D80AD00500FA6E3A50FD6E3B504E
:1008F800FE6EF850FF6EFA5012001EBEF2D71E5060
:1009080004E1040E1D5CD8A0ECD701D80AD005007C
:10091800FA6E3C50FD6E3D50FE6EF850FF6EFA5078
:1009280012000001D66F01D80AD00500FA6E3C50BB
:10093800FD6E3D50FE6EF850FF6EFA501200000139
:10094800D76F01D80AD00500FA6E3C50FD6E3D50B5
:10095800FE6EF850FF6EFA5012000001D86F01D8F1
:100968000AD00500FA6E3C50FD6E3D50FE6EF85000
:10097800FF6EFA5012000001D46FD60E1B6E000EE7
:100988001C6E030E1D6E45EC0AF00001D56F0001C8
:10099800D5510001D419D8A44ED0000E0001DA6F49
:1009A800000ED96F0001DABF08D00001DA5147E123
:1009B800050E0001D95DD8B01200C10E1B6E000EE5
:1009C8001C6ED9C01DF0000E1E6EE5EC06F0361840
:1009D800D8A42DD0C10E1B6E000E1C6ED9C01DF000
:1009E800010E1E6EE5EC06F00001D819D8A41FD040
:1009F8000001D705D8A40BD0C10E1B6E000E1C6ECB
:100A0800D9C01DF0010E1E6ECAEC07F01200020ECE
:100A18000001D719D8A40BD0C10E1B6E000E1C6E96
:100A2800D9C01DF0020E1E6ECAEC07F012000001BC
:100A3800D94BDA2BB7D70001954B962B1200120031
:100A48000001D76FEFC01BF0F0C01CF0CCC11DF047
:100A580045EC0AF00001D86F01D80BD00500FA6EFA
:100A68003E50FD6E3F50FE6EF850FF6EFA50060E77
:100A7800120001D80BD00500FA6E3E50FD6E3F50B3
:100A8800FE6EF850FF6EFA50850E120001D80CD099
:100A98000500FA6E3E50FD6E3F50FE6EF850FF6E38
:100AA800FA500001D751120001D80BD00500FA6E98
:100AB8003E50FD6E3F50FE6EF850FF6EFA504350A8
:100AC800120001D80CD00500FA6E3E50FD6E3F5062
:100AD800FE6EF850FF6EFA500101CC511200000E64
:100AE8000001DA6F000ED96F1AD001D815D00500B1
:100AF800FA6E3E50FD6E3F50FE6EF850FF6EFA5093
:100B08000001D9510001EF25D96E0001DA51000129
:100B1800F021DA6EDF5012000001D94BDA2B010107
:100B2800CC510001D95D0001DA51800A0001D66F6D
:100B38000101CD51800A0001D659D8A0D6D701D8D5
:100B48000CD00500FA6E3E50FD6E3F50FE6EF85018
:100B5800FF6EFA500001D8511200C10E1B6E000E34
:100B68001C6ED7C01DF0D8C01EF0000E1F6E5EECC4
:100B780007F0000E0001D26F010E0001D36F000EC6
:100B88000001D56F010ED46F81EC09F0120020EE40
:100B9800CCF02150D9262250DA22010EDBBE07D034
:100BA800010EDB503AE1C80EDE5CD8B036D020EE3C
:100BB800C8F02150D9262250DA22DECF24F0DDCF2A
:100BC80025F024502124D96E25502220DA6E23C026
:100BD800DFFF20EEC8F02150D9262250DA22DECFDE
:100BE8001BF0DDCF1CF0000E1E6EC80E1D6E9BECB8
:100BF8000BF020EEC8F02150D9262250DA221BC073
:100C0800DEFF1CC0DDFF20EECCF02150D92622509B
:100C1800DA22DE2A000EDD22120020EEC8F0215072
:100C2800D9262250DA22DECF24F0DDCF25F0245059
:100C38002124D96E25502220DA6E23C0DFFF20EE52
:100C4800C8F02150D9262250DA22DECF1BF0DDCFA2
:100C58001CF0000E1E6EC80E1D6E9BEC0BF020EEF5
:100C6800C8F02150D9262250DA221BC0DEFF1CC052
:100C7800DDFF20EECAF02150D9262250DA22DECF3D
:100C88001BF0DDCF1CF0000E1E6EC80E1D6E9BEC17
:100C98000BF020EECAF02150D9262250DA221BC0D0
:100CA800DEFF1CC0DDFF120020EECCF00750D92675
:100CB8000850DA22010EDBBE07D0010EDB503AE104
:100CC800C80EDE5CD8B036D020EEC8F00750D92662
:100CD8000850DA22DECF0AF0DDCF0BF00A500724E5
:100CE800D96E0B500820DA6E09C0DFFF20EEC8F07D
:100CF8000750D9260850DA22DECF01F0DDCF02F006
:100D0800000E046EC80E036EC5EC0BF020EEC8F0A2
:100D18000750D9260850DA2201C0DEFF02C0DDFFE5
:100D280020EECCF00750D9260850DA22DE2A000E31
:100D3800DD22120020EEC8F00750D9260850DA222A
:100D4800DECF0AF0DDCF0BF00A500724D96E0B5026
:100D58000820DA6E09C0DFFF20EEC8F00750D92658
:100D68000850DA22DECF01F0DDCF02F0000E046E6B
:100D7800C80E036EC5EC0BF020EEC8F00750D9265C
:100D88000850DA2201C0DEFF02C0DDFF20EECAF003
:100D98000750D9260850DA22DECF01F0DDCF02F065
:100DA800000E046EC80E036EC5EC0BF020EECAF000
:100DB8000750D9260850DA2201C0DEFF02C0DDFF45
:100DC8001200040E1D6402D0040E1D6E020E1E6475
:100DD80002D0020E1E6E1D281D6E1D50030DF3CF8E
:100DE800D2F0F4CFD3F020EE0FF01B50D9261C50D0
:100DF800DA220001D251DE5CDE50800A216E000149
:100E0800D351800A2158D8B030D020EE0FF01B50B3
:100E1800D9261C50DA22DECF1FF0DDCF20F01F1EAE
:100E2800201E1F4A202A0001D2511F260001D3513B
:100E380020221F1E201E1F4A202A0F0E1F240001D9
:100E4800D26F000E20200001D36F1E500001D22562
:100E58001F6E000E0001D321206E1F501B24D96E77
:100E680020501C20DA6EDF50120020EE0FF01B50CD
:100E7800D9261C50DA22DECF1FF0DDCF20F0D2C0F9
:100E880021F0D3C022F0211E221E214A222A1E5000
:100E9800236E246A21502326225024221F50232601
:100EA8002050242223501B24D96E24501C20DA6E93
:100EB800DF50120020EE0FF01B50D9261C50DA220A
:100EC800DECF20F0DDCF21F020501B24D96E215039
:100ED8001C20DA6E1DC0DFFF20EE0FF01B50D92654
:100EE8001C50DA22DE2A000EDD2220EE0FF01B5005
:100EF800D9261C50DA22DECF20F0DDCF21F0205099
:100F08001B24D96E21501C20DA6E1EC0DFFF20EE94
:100F18000FF01B50D9261C50DA22DE2A000EDD22E3
:100F280020EE0FF01B50D9261C50DA22DECF20F01D
:100F3800DDCF21F020501B24D96E21501C20DA6E01
:100F48001FC0DFFF20EE0FF01B50D9261C50DA22FD
:100F5800DE2A000EDD2220EE0FF01B50D9261C5091
:100F6800DA22010EDBBE1200010EDB5004E10F0E87
:100F7800DE5CD8A0120020EE0FF01B50D9261C50C2
:100F8800DA22000EDE6E000EDD6E1200040E1D6405
:100F980002D0040E1D6E1D281D6E1D50030DF3CFCB
:100FA80023F0F4CF24F020EE0FF01B50D9261C506C
:100FB800DA222350DE5CDE50800A216E2450800A3B
:100FC8002158D8B02BD020EE0FF01B50D9261C503A
:100FD800DA22DECF1FF0DDCF20F01F1E201E1F4AB1
:100FE800202A23501F26245020221F1E201E1F4A5D
:100FF800202A0F0E1F24236E000E2020246E020EBE
:1010080023241F6E000E2420206E1F501B24D96E2F
:1010180020501C20DA6E1EC0DFFF120020EE0FF0F9
:101028001B50D9261C50DA22DECF1FF0DDCF20F06E
:1010380023C021F024C022F0211E221E214A222A88
:101048001F50212620502222020E2126000E222285
:1010580021501B24D96E22501C20DA6E1EC0DFFFDF
:10106800120020EECCF02150D9262250DA22010EAF
:10107800DBBE3CD0010EDB5003E1DE04D8A036D045
:1010880020EECAF02150D9262250DA22DECF23F0F2
:10109800DDCF24F023502124D96E24502220DA6E8B
:1010A800DF50256E20EECAF02150D9262250DA22D0
:1010B800DECF1BF0DDCF1CF0000E1E6EC80E1D6EBD
:1010C8009BEC0BF020EECAF02150D9262250DA22F0
:1010D8001BC0DEFF1CC0DDFF20EECCF02150D9265E
:1010E8002250DA22DE06000EDD5A02D0000E256EEE
:1010F8002550120020EECCF00750D9260850DA22ED
:10110800010EDBBE3CD0010EDB5003E1DE04D8A0AB
:1011180036D020EECAF00750D9260850DA22DECFA2
:1011280009F0DDCF0AF009500724D96E0A500820CB
:10113800DA6EDF500B6E20EECAF00750D926085041
:10114800DA22DECF01F0DDCF02F0000E046EC80E09
:10115800036EC5EC0BF020EECAF00750D9260850F4
:10116800DA2201C0DEFF02C0DDFF20EECCF007501E
:10117800D9260850DA22DE06000EDD5A02D0000E0B
:101188000B6E0B501200000E206E1EAE06D01D6CAA
:101198001E1ED8B01E2A010E206E1CAE06D01B6C77
:1011A8001C1ED8B01C2A010E201A000E226E000E3A
:1011B800216E1D501E10D8B41CD0010E1F6E04D015
:1011C800D8901D361E361F2A1EAEFAD7D890213663
:1011D80022361D501B5C1E501C58D8A005D01D502F
:1011E8001B5E1E501C5A2180D8901E321D321F2EA5
:1011F800EDD72050D8B404D0216C221ED8B0222AB2
:1012080021C01BF022C01CF01200000E8A6E000ED6
:10121800896E070E0F013C6F000E8D6E000E8C6EEE
:10122800000E8B6E2F0E0F01386F3F0E0F01396FB6
:10123800EC0E0F013A6F3F0E0F013B6FFC0E616E13
:10124800F20E956E070E966EC40E936ED40E946EC3
:10125800370E926EF19E0F0139910F0139939390D9
:101268009392F296000E0F013A6F000E0F01386F3D
:10127800949094929494929C929E93969398939A15
:1012880095988A968A9A8A98120004EE00F0CE0EF3
:10129800EE6AE806FDE103EE00F0CE0EEE6AE8061F
:1012A800FDE102EE00F0C80EEE6AE806FDE101EE8F
:1012B80000F011EE00F0EE6AE550E150FCE1E2507A
:1012C800FAE100EE60F0720EEE6AE806FDE100EE6B
:1012D80026F0140EEE6AE806FDE1480EF66E190EC9
:1012E800F76E000EF86E0900F5CF44F04590459270
:1012F800000EF86E0001ECEF0BF0000120EECCF0D0
:10130800D251D926D351DA22000EDE6E000EDD6EE0
:10131800000120EEC8F0D251D926D351DA22000EAE
:10132800DE6E000EDD6E000120EECAF0D251D92625
:10133800D351DA22000EDE6E000EDD6E0001D451AC
:101348000001D511D8B41200D2C01BF0D3C01CF0D4
:10135800000E1E6E000E1D6E000E206EC80E1F6E53
:101368006FEC0BF012007FC01BF080C01CF081C036
:101378001DF082C01EF01B1E1C1E1D1E1E1E1B2AD9
:10138800000E1C221D221E2226501B241F6E2750D1
:101398001C20206E28501D20216E29501E20226EF0
:1013A8001F5000017B27205000017C2321500001A1
:1013B8007D23225000017E2326C07FF027C080F0C5
:1013C80028C081F029C082F01200D2C0EDF0D3C04D
:1013D800EEF0D5C043F0D7C03EF0D8C03FF0DBC038
:1013E8003AF0DCC03BF0DDC0F1F0DEC0F2F0D9C06D
:1013F8003CF0DAC03DF0D4C01BF01C6A000E1E6E33
:10140800020E1D6EC7EC08F01B500001F46F000EB1
:101418000001EF6F010E0001F06FD6C0F3F0000E6F
:101428000001946F000E936F1200CE0E0001D26F70
:10143800010E0001D36F320E0001D46F010E0001BE
:10144800D56F000E0001D66F260E0001D76F160E5D
:101458000001D86F1C0E0001D96F190E0001DA6F58
:10146800BA0E0001DB6F180E0001DC6F0E0E0001D2
:10147800DD6F190E0001DE6FE9EC09F08CEC0AF063
:101488001200000E216E1CD01BC0D9FF1CC0DAFF51
:10149800DF501F6E1B4A1C2A080E206E0ED02150EA
:1014A8001F18010B1E6ED89021321E50D8B402D0DE
:1014B8008C0E211AD8901F3220062050D8A4EFD7BE
:1014C8001D061D28D8A4E0D7215012008C88000ED4
:1014D8000001D56F070ED46F010E0CEC0CF0060E50
:1014E80024EC05F0000E1C6E030E1B6EC6EC0AF011
:1014F8008C98030E1C6EE80E1B6EC6EC0AF05EECB0
:1015080000F00009D8B402D0000E1200010E12003B
:10151800A39AA398480E706E980E716E260E726E7E
:10152800670E756E000E766E000E736E000E746E8A
:10153800000E236E030E246E1BEC0CF0000E236EBF
:10154800040E246E1BEC0CF0A38A12008C88000E8B
:101558000001D56F010ED46F000E0CEC0CF0000EDC
:101568000001D56F030ED46F010E0CEC0CF0060EC3
:1015780024EC05F0000E1C6E030E1B6EC6EC0AF080
:101588008C981200000E1F6E000E1E6E0AD0060EFA
:101598001D6E300EE82EFED71D2EFCD700D01E4A39
:1015A8001F2A1B501E5C1F50800A1D6E1C50800A8B
:1015B8001D58D8B01200EBD79D9A9D98480EB86E6A
:1015C800900EAB6E260EAC6E330EAF6E000EB06E84
:1015D800000E336E000E346E080E426E000E316E31
:1015E800000E326E000E306E9D8A1200000E016EE3
:1015F800040E026E73EC0CF002BE0DD0025003E133
:101608000104D8A008D0000E076E040E086E7EEC08
:1016180008F0736E1200010E446EA39812000001C8
:10162800D26F000E216E040E226ED2C023F0CBECD6
:1016380005F04404D8A41200000E446E000E216E7A
:10164800040E226E35EC08F0736EA3881200010EAA
:101658007EEC0CF01CBE12001C5004E1050E1B5C55
:10166800D8A0120052EC0CF0000E1C6E000E1B6E7F
:10167800010EFDEC0BF0AAEC0AF01200080E426015
:1016880012D03450010D730EF324D96E000EF420DD
:10169800DA6EDF50AD6E342A070E346402D0000EC5
:1016A800346E422A12009D981200940ED56ECF0E09
:1016B800D76E2C0ED66ED650D7CF1BF01C6A1BC027
:1016C8001CF01B6A1B10406E1C50416EF294F28A8B
:1016D800A2EC0CF012001BC021F01CC022F008D0B4
:1016E80021C0D9FF22C0DAFF1DC0DFFF214A222A0C
:1016F8001F06D8A020061F28F3E12028D8B412001E
:10170800EFD7ABA202D0AB98AB883150010D6B0E6E
:10171800F324D96E000EF420DA6EAECFDFFF312A43
:10172800070E316402D0000E316E302A1200010E0D
:101738001B241F6E000E1C20206E1D501F5C1E50A7
:101748002058D8A004D0000E206E000E1F6E1FC0B7
:101758001BF020C01CF01200010E1B241F6E000E8F
:101768001C20206E1D501F5C1E502058D8A004D08D
:10177800000E206E000E1F6E1FC01BF020C01CF054
:101788001200010E0124056E000E0220066E0350A1
:10179800055C04500658D8A004D0000E066E000E52
:1017A800056E05C001F006C002F0120020EECAF076
:1017B8001B50D9261C50DA22DECF1DF0DDCF1EF0DB
:1017C8001D501B24D96E1E501C20DA6EDF501200EB
:1017D80039EC0CF0F28EF28C8B820F0138976AECA0
:1017E8000AF00009D8A4FBD7B7EC09F02BEC0BF0F2
:1017F800FBD71D6E1D04D8A412001BC07BF01CC0B3
:101808007CF00001000E7CBFFF0E7D6F7E6F120022
:101818000001D66F000E216E010E226ED6C023F095
:10182800D4C024F0D5C025F0BBEC03F0120023C0CF
:101838001BF024C01CF0000E1E6E000E1D6E000E64
:10184800206ECE0E1F6E6FEC0BF0120071A202D04C
:101858007198718874CF0CF0000E076E030E086E35
:101868000CC009F058EC06F0120095EC0CF009ECED
:1018780009F09CEC0CF0E0EC0AF059EC0BF019ECD8
:101888000AF012004150D76E40C0D6FF010E26263E
:10189800000E272228222922F29412005EEC00F082
:1018A8000009D8B4120089B602D089861200899638
:1018B8001200000E1B6E030E1C6E68EC0CF01BC0B1
:1018C8001DF01CC01EF0120020EECCF01B50D926D3
:1018D8001C50DA22DECF1BF0DDCF1CF0120020EE08
:1018E800CCF00150D9260250DA22DECF01F0DDCF4C
:1018F80002F012001D6E1D04D8A412007BC01BF05C
:101908007CC01CF01200000E1B6E030E1C6EDAEC7D
:101918000BF01200000E216E030E226E35EC08F05B
:101928001200700ED36E040ED26E000E9B6E120063
:10193800D09EA59AA5989F9A9F981200D58E1200BE
:01194800019D
:107DE60000000000000000005F0000000700070020
:107DF600147F147F14242A7F2A1223130864623600
:107E0600495522500005030000001C224100004194
:107E1600221C0014083E081408083E0808005030CA
:107E26000000080808080800606000002010080428
:107E3600023E5149453E00427F400042615149465B
:107E46002141454B311814127F1027454545393CD1
:107E56004A494930017109050336494949360649F7
:107E660049291E0036360000005636000008142246
:107E7600410014141414140041221408020151097B
:107E860006324979413E7E1111117E7F49494936B4
:107E96003E414141227F4141221C7F494949417F60
:107EA600090909013E4149497A7F0808087F0041CE
:107EB6007F41002040413F017F081422417F40401E
:107EC60040407F020C027F7F0408107F3E41414103
:107ED6003E7F090909063E4151215E7F091929465F
:107EE600464949493101017F01013F4040403F1F5A
:107EF6002040201F3F4038403F63140814630708A2
:107F06007008076151494543007F4141000204085A
:107F160010200041417F000402010204404040401D
:107F260040000102040020545454787F48444438E9
:107F36003844444420384444487F3854545418083C
:107F46007E0901020C5252523E7F08040478004416
:107F56007D40002040443D007F1028440000417FC2
:107F660040007C041804787C0804047838444444AF
:107F7600387C14141408081414187C7C08040408AB
:107F86004854545420043F4440203C4040207C1C2C
:107F96002040201C3C4030403C44281028440C50D3
:107FA60050503C4464544C44000836410000007F65
:107FB60000000041360800100808100878464146BF
:107FC6007801000A006400E8031027436172204329
:107FD60068617267657200253033642C450A002893
:107FE6006E756C6C29004E6F20424D4D0025303366
:0A7FF600642C004D2C0025730000E0
:020000040020DA
:08000000FFFFFFFFFFFFFFFF00
:020000040030CA
:0E000000FF081F3CFFBF81FF0FC00FE00F4045
:00000001FF
