:0400000080312828FB
:1000060001347E14803120007F08FD002100911C00
:1000160012282000911C122895315C258031210080
:10002600911E1B282000911E1B289531A325803187
:100036002100111E23282000111E23289631232675
:100046007D082000FF007E10090080312A28ED017E
:10005600EE01C830840000308500203095315625E9
:1000660080312030840001308500343095315625AA
:10007600803180310320EF007E10200096310C2E57
:10008600A2302000E70067082100B7002100210800
:100096002000E800210020082000E7002100A00A37
:1000A6000319A10A20006708840068088500000873
:1000B600E90069082100C700470803190800253030
:1000C600470603196B284708953150258031492882
:1000D6002100B501B60185283615A92837088600FE
:1000E600870101082000E70067082100C7000230E9
:1000F6002000E70067082100B7074708953150251B
:1001060080314928210021082000E800210020082C
:100116002000E7002100A00A0319A10A20006708B1
:1001260084006808850000082100C700003A03190A
:10013600C62D633A03197128073A0319A928023A0A
:1001460003196F280F3A0319A928802800302100C7
:1001560035052000E7000730210036052000E800BD
:10016600670868040319F22C06302100B800003035
:10017600B900370886008701403FC400413FC500EB
:10018600423FC60003302000E70067082100B7079A
:1001960044082000A000210045082000A1002100FD
:1001A60046082000A2000030A3000030A400003062
:1001B600A5009631E3268031031800292100440862
:1001C6002000A000210045082000A10021004608CB
:1001D6002000A200953164258031200020082100EE
:1001E600C400200021082100C500200022082100AB
:1001F600C6000330B5040030B6042100BE01BF01BD
:100206004608450444040319D229C43086008701F0
:10021600403F2000E700413FE800423FE900433FFE
:10022600EA000F30EA36E90CE80CE70C890B1529D1
:10023600FF306705EB0000306805EC006B08823E76
:100246002100BE00FF3020006C3D2100BF00FF30C2
:10025600BE07FF30BF3D03302000B0000030B100C4
:1002660021003F082000B30021003E082000B20014
:1002760096315A268031200031082100BF00200027
:1002860030082100BE000A302000A7000030A80078
:1002960021003F082000AA0021003E082000A900F6
:1002A600883148208031200028082100BF00200026
:1002B60027082100BE00BF1F6429FF30BE07FF309C
:1002C600BF3D3E03FF3A8D31BA25803120004608F6
:1002D6002100C000200047082100C1002000480876
:1002E6002100C20044082000B60021004508200075
:1002F600B700210046082000B80021004008200071
:10030600B900210041082000BA002100420820005F
:10031600BB008A31F3228031200036082100C0005C
:10032600200037082100C100200038082100C20043
:1003360040082000A000210041082000A100210063
:1003460042082000A2000030A3008030A4003F3005
:10035600A5009631E32680310318B629FF30210027
:10036600BE07FF30D129210040082000A00021004F
:1003760041082000A100210042082000A200003010
:10038600A3002030A4004130A5009631E326803139
:10039600031CD22901302100BE070030BF3D2100D9
:1003A6003908803A2000E70080306702031DDE2905
:1003B6000D30210038020318072A2100380885313C
:1003C600C725803120004608D4004708D5004808D4
:1003D600D600210044082000D7002100450820004F
:1003E600D800210046082000D9008B31A723803190
:1003F600200054082100C400200055082100C50033
:10040600200056082100C60021003F08803A20003F
:10041600E70080306702031D132A0A3021003E02DE
:1004260003183E2A210046084504440403199D2A60
:1004360044082000CF00210045082000D0002100FC
:1004460046082000D100893152218031200052080F
:10045600510450044F04031D9D2A21003F08803A91
:100466002000E70080306702031D3C2A023021008D
:100476003E02031C9D2A210040082000A000210006
:1004860041082000A100210042082000A20070308F
:10049600A3008930A4004030A5009631E3268031C0
:1004A6000318572AF730582AF8302100BE07FF30C4
:1004B600BF3D3E088D31BA25803120004608210017
:1004C600C000200047082100C10020004808210084
:1004D600C20044082000A000210045082000A10019
:1004E600210046082000A200210040082000A300A9
:1004F600210041082000A400210042082000A50098
:1005060087312D278031200023082100BD002000DF
:1005160022082100BC00200021082100BB00200089
:1005260020082100BA000030C4000030C5000030A9
:10053600C600F22A210044082000CF002100450809
:100546002000D000210046082000D1008931522128
:100556008031200052082100BD00200051082100F2
:10056600BC00200050082100BB0020004F082100DD
:10057600BA003D082000AB0021003C082000AA007C
:1005860021003B082000A90021003A082000A8000D
:100596009631B926803120002808E1002908E200BA
:1005A6002A08E300210044082000E4002100450851
:1005B6002000E500210046082000E6009631762658
:1005C6008031200061082100C4002000620821005B
:1005D600C500200063082100C600BE01BF01C70197
:1005E600C70A0A30470603192F2B47082000E700E1
:1005F600E801E735E80DE735E80D003067078400C8
:100606009030683D8500003FE900013FEA00023F67
:10061600EB00033FEC006C0821003D02031D232B79
:1006260020006B0821003C02031D232B20006A08D2
:1006360021003B02031D232B2000690821003A02FA
:10064600031C2F2B01302000E70067082100C70795
:100656000A304706031DF82A033035052000E70057
:100666000030210036052000E800670868040319F9
:10067600402B2D30953150258031FF302000E7008A
:1006860067082100C707470A0319BB2B2100470843
:100696002000E700E801E735E80DE735E80D003012
:1006A600670784009030683D8500003FA000013F49
:1006B600A100023FA200033FA30021003D08200045
:1006C600A70021003C082000A60021003B082000CE
:1006D600A50021003A082000A40088319A20803124
:1006E600200023082100C300200022082100C200A8
:1006F600200021082100C100200020082100C000A0
:1007060000302000B1000030B0000030AF000A30E9
:10071600AE00210043082000B50021004208200059
:10072600B400210041082000B30021004008200049
:10073600B20097311F278031200031082100C30005
:10074600200030082100C20020002F082100C1002F
:1007560020002E082100C0004008303E3D2B3030DE
:10076600953150258031FF302100BE07FF30BF3D57
:100776003F08803A2000E70080306702031DC62B41
:10078600013021003E020318B22B21003908803ABD
:100796002000E70080306702031DD42B09302100BA
:1007A6003802031CD82B0830DA2B21003808200029
:1007B600E70067082100C70047082000E700E801B6
:1007C600E71BE80367082100B8022000680821003B
:1007D600B93B47080319F32B2E309531502580314C
:1007E600210047088D31BA258031200046082100B6
:1007F600B200200047082100B3002000480821006D
:10080600B40032082000B900210033082000BA00E5
:10081600210034082000BB00210044082000B60057
:10082600210045082000B700210046082000B80036
:100836008A31F322803120003608CF003708D000F5
:100846003808D10089315221803120005208210018
:10085600BD00200051082100BC00200050082100E6
:10086600BB0020004F082100BA00FF302000E7003F
:1008760067082100C707470A0319ED2C470820001F
:10088600E700E801E735E80DE735E80D00306707D2
:1008960084009030683D8500003FA000013FA10024
:1008A600023FA200033FA30021003D082000A7004D
:1008B60021003C082000A60021003B082000A500DE
:1008C60021003A082000A40088319A2080312000B7
:1008D60023082100C300200022082100C2002000B6
:1008E60021082100C100200020082100C00000309E
:1008F6002000B1000030B0000030AF000A30AE007A
:10090600210043082000B500210042082000B40061
:10091600210041082000B300210040082000B20059
:1009260097311F278031200031082100C3002000A5
:1009360030082100C20020002F082100C10020003D
:100946002E082100C0004008303E953150258031E8
:10095600210047082000E700E801E735E80DE73504
:10096600E80D0030670784009030683D8500003F41
:10097600AE00013FAF00023FB000033FB1002100CF
:100986003D082000B50021003C082000B4002100ED
:100996003B082000B30021003A082000B20097313E
:1009A6001F278031200031082100BD0020003008BB
:1009B6002100BC0020002F082100BB0020002E08CB
:1009C600362C3030953150258031FF302100B80764
:1009D600FF30B93D3808390403194928E42C2100B1
:1009E600370886008701403F2000E700413FE800C6
:1009F60067082100BA00200068082100BB00890DA5
:100A0600893B8909BC00BD0002302000E700670869
:100A16002100B707BD1F1E2D0330B5040030B604F4
:100A2600BA09BB09BC09BD09BA0A0319BB0A0319ED
:100A3600BC0A0319BD0AC701C70A0A3047060319CB
:100A46005B2D47082000E700E801E735E80DE735AC
:100A5600E80D0030670784009030683D8500003F50
:100A6600E900013FEA00023FEB00033FEC006C089F
:100A760021003D02031D4F2D20006B0821003C0282
:100A8600031D4F2D20006A0821003B02031D4F2D38
:100A96002000690821003A02031C5B2D013020006A
:100AA600E70067082100C7070A304706031D242D03
:100AB600033035052000E700003021003605200010
:100AC600E8006708680403196C2D2D309531502510
:100AD600803121004708B800B901B81BB903FF30BF
:100AE6002100B807FF30B93D380A0319390A03193E
:100AF600492800302000B1000030B0000030AF00BF
:100B06000A30AE0021003908850038088400843593
:100B1600850D8435850D003084079030853D003F76
:100B26002000A000013FA100023FA200033FA30056
:100B360021003D082000A70021003C082000A60057
:100B460021003B082000A50021003A082000A4004F
:100B560088319A20803120002308B5002208B4008D
:100B66002108B3002008B20097311F2780312000EA
:100B76002E08303EE70067082100C7004708953178
:100B860050258031722D08002000D3006E305302AC
:100B9600031C882E0A30A7000030A8005308C9009D
:100BA600CA014908A2004A08A3006430A000003028
:100BB600A10088310220853120002108AA002008E2
:100BC600A90088314820853120002708093EB00059
:100BD6000030283DB1000330B2000030B30096313A
:100BE6005A268531200031088500300884002830D7
:100BF60084079030853D003FB600013FB700023FB5
:100C0600B8006430A7000030A8005308CB00CC0120
:100C16004B08A9004C08AA008831482085312000DD
:100C26002708123EB0000030283DB1000330B20064
:100C36000030B30096315A268531200031088500F0
:100C460030088400283084079030853D003FB90085
:100C5600013FBA00023FBB008A31F32285312000F2
:100C66003608D0003708D1003808D2005308C9002A
:100C7600CA014908A2004A08A3000A30A0000030B1
:100C8600A10088310220853120002108B10020080A
:100C9600B0000330B2000030B30096315A268531D9
:100CA6002000310885003008840028308407903001
:100CB600853D003FB600013FB700023FB80050082F
:100CC600B9005108BA005208BB008A31F3228531B7
:100CD60020003608CD003708CE003808CF00003097
:100CE600B6000030B7003F30B8004D08B9004E08D6
:100CF600BA004F08BB008A31F32220003608C6002E
:100D06003708C7003808C80008000B305302031C18
:100D1600002F5308C900CA014908A2004A08A300C7
:100D26000A30A0000030A100883102208531200061
:100D36002108B1002008B0000330B2000030B30033
:100D460096315A2685312000310885003008840006
:100D5600283084079030853D003FB600013FB7003C
:100D6600023FB8000A30A7000030A8005308CB00A5
:100D7600CC014B08A9004C08AA00883148208531CF
:100D860020002708093EB0000030283DB10003309E
:100D9600B2000030B30096315A2685312000310862
:100DA600850030088400283084079030853D003F58
:100DB600B900013FBA00023FBB008A31F3228531F8
:100DC60020003608D0003708D1003808D20000309D
:100DD600B6000030B7003F30B8005008B9005108DF
:100DE600BA005208BB008A31F32220003608C6003A
:100DF6003708C7003808C80008000030B6000030C1
:100E0600B7003F30B8005308C900CA014908B0000E
:100E16004A08B1000330B2000030B30096315A26BA
:100E26008531200031088500300884002830840789
:100E36009030853D003FB900013FBA00023FBB003C
:100E46008A31F32220003608C6003708C700380862
:100E5600C800080020002008A6002108A7002208D4
:100E6600A8000310270D280DA9002908AF002F0898
:100E7600031D462F0030A3000030A2000030A10061
:100E86000030A00008002308A6002408A7002508B3
:100E9600A8000310270D280DA9002908AE002E086A
:100EA600031D5E2F0030A3000030A2000030A10019
:100EB6000030A0000800A117FF30A005FF30A105F3
:100EC6000030A205A417FF30A305FF30A4050030AB
:100ED600A5050030AD000030AC000030AB0000309E
:100EE600AA007F30AF0298302E07A6002608AF0270
:100EF6001830A6002608AE000130AA35AB0DAC0DA1
:100F0600AD0D890B802F25082202031D902F240882
:100F16002102031D902F23082002031C992F23086A
:100F2600A0022408A13B2508A23B2A140130A035C3
:100F3600A10DA20D890B9A2F0130AE02031D7F2F42
:100F4600AF1FC12F2F08803A973E0318B32F0030EA
:100F5600A3000030A2000030A1000030A00008006D
:100F66000130AD36AC0CAB0CAA0C890BB42F01309A
:100F7600A6002608AF070319DA2FB32F18302F0261
:100F8600031CD72F0030A3000030A2000030A100C0
:100F96000030A00008000130AA35AB0DAC0DAD0D38
:100FA600890BCF2F0130AF022F08031DCE2F2D083E
:100FB600A3002C08A2002B08A1002A08A000080004
:100FC6002000A301A4012408803AA2002108803A47
:100FD6002202031DF02F2008230203180800F9300F
:100FE6002000A2000000A20BF52F00320000013005
:0A0FF6002000A3070030A43DE62F01
:101004002000A601A31F0D28A209A309A20A0319FF
:10101400A30AA601A60AA11F1428A009A109A00ACF
:101024000319A10A2008210403193B28A501A50AD4
:10103400A11B26280130A035A10D890B1D280130E4
:10104400A4002408A5071A2821082302031D2C281C
:1010540020082202031C32282008A2022108A33BF4
:101064000130A136A00C890B33280130A502031DE1
:101074002628260803194328A209A309A20A03194A
:10108400A30A2308A1002208A00008002000AD0143
:10109400A81F5328A709A809A70A0319A80AAD017C
:1010A400AD0AAA1F5E28A909AA09A90A0319AA0A4E
:1010B4000130AB002B08AD06AE01AF0127082804B0
:1010C40003198D28AC01AC0AA81B72280130A7357E
:1010D400A80D890B69280130AB002B08AC076628E2
:1010E4000130AE35AF0D890B732828082A02031D81
:1010F4007D2827082902031C84282708A902280818
:10110400AA3B2E140130A836A70C890B8528013080
:10111400AC02031D72282D0803199528AE09AF09E6
:10112400AE0A0319AF0A2F08A8002E08A70008006A
:1011340000302000AC000030AB000030AA000030CA
:10114400A90023082204210420040319E428AD0182
:10115400AD0AA31BB9280130A035A10DA20DA30D22
:10116400890BAE280130A8002808AD07AB28013050
:10117400A935AA0DAB0DAC0D890BBA28230827029B
:10118400031DCE2822082602031DCE28210825028D
:10119400031DCE2820082402031CD9282008A402F9
:1011A4002108A53B2208A63B2308A73B29140130AC
:1011B400A336A20CA10CA00C890BDA280130AD02D5
:1011C400031DB9282C08A3002B08A2002A08A1009B
:1011D4002908A0000800200023080319F628220883
:1011E40021042004031D07290030A0000030A100C1
:1011F4000030A20008000130A5002508A307013033
:10120400A236A10CA00C890B0229FE302205031979
:101214002029FD280130A5002508A3070130A007D7
:10122400003003180130A107003003180130A20771
:101234000130A236A10CA00C890B1B29FF3022051A
:1012440003192D290C290130A3020130A035A10D69
:10125400A20D890B2829A11B33290230230203186C
:10126400252923183B29FF30A0057F30A105FF3035
:10127400A2050310A30C2308A500A601A7011030A2
:10128400A535A60DA70D890B42292508A00426081B
:10129400A1042708A204240803190800A2170800BF
:1012A40020004F08D3005008D4005108D500031083
:1012B400540D550DD6005608DC005C08031D6B293F
:1012C4000030D2000030D1000030D0000030CF0018
:1012D40008004F08D3005008D4005108D500173037
:1012E400D536D40CD30C890B72295308D600560872
:1012F400D700D017FF30CF05FF30D0050030D1051F
:101304004F08D8005008D9005108DA00DB018E30AC
:10131400DC02DC1FA9295C08803A8F3E03189B2954
:101324000030D2000030D1000030D0000030CF00B7
:1013340008000130DB36DA0CD90CD80C890B9C2957
:101344000130D3005308DC070319C2299B29183044
:101354005C02031CBF290030D2000030D1000030F1
:10136400D0000030CF0008000130D835D90DDA0D97
:10137400DB0D890BB7290130DC025C08031DB6299B
:1013840057080319D029D809D909DA09DB09D80A79
:101394000319D90A0319DA0A0319DB0A5B08D20014
:1013A4005A08D1005908D0005808CF000800FA00A4
:1013B4007A08183E860001308700403FF700413F1D
:1013C400F8007808803AF90080307902031DEC298E
:1013D400143077020318212A7608F7007A08143E9D
:1013E40086000130870001087A07F8007808860033
:1013F40001308700770881007A08143E86000130A6
:101404008700403FF000413FF1001430F20000300B
:10141400F3009531B4257A08143E86000130870024
:101424007008C03F7108C13F7A08183E8600013039
:1014340087000130810741310318810A08007608CA
:10144400F7007A08143E86000130870001087A0705
:10145400F8007808860001308700770881007A0850
:10146400143E860001308700403FF000413FF10008
:101474001430F2000030F3009531B42589317A0834
:10148400143E8600013087007008C03F7108C13FD8
:101494007A08163E860001308700403FF000413F45
:1014A400F1001430F2000030F3009531B4257A08CD
:1014B400163E8600013087007008C03F7108C13FA6
:1014C40008002000AA002A08183E86000130870080
:1014D400403FA700413FA8002808803AA900803077
:1014E4002902031D772A143027020318AE2A20008C
:1014F4002608A7002A08143E860001308700010848
:101504002A07A800280886000130870027088100E0
:101514002A08143E860001308700403FA000413F66
:10152400A1001430A2000030A3009531DF25200073
:101534002A08143E8600013087002008C03F210895
:10154400C13F2A08183E8600013087000130810718
:1015540041310318810A080020002608A7002A0840
:10156400143E86000130870001082A07A8002808D5
:10157400860001308700270881002A08143E86006F
:1015840001308700403FA000413FA1001430A20079
:101594000030A3009531DF258A3120002A08143E4B
:1015A4008600013087002008C03F2108C13F2A0877
:1015B400163E860001308700403FA000413FA10055
:1015C4001430A2000030A3009531DF2520002A0842
:1015D400163E8600013087002008C03F2108C13F25
:1015E400080020003608BC003708BD003808BE00DB
:1015F40003103D0D3E0DBF003F08C0004008031D11
:101604000A2B0030B6000030B7000030B8000800E4
:101614003908BC003A08BD003B08BE0003103D0D6C
:101624003E0DBF003F08C5004508031D202B0030B8
:10163400B6000030B7000030B800080045087B3E13
:10164400BC003C08C0073608BC003708BD00380899
:10165400BE001030BE36BD0CBC0C890B2C2B3C08D4
:10166400BF003F08C5003908BC003A08BD003B086C
:10167400BE001030BE36BD0CBC0C890B3C2B3C08A4
:10168400BF003F08C5068030BC003C08C505B7173D
:10169400BA17FF30B905FF30BA050030BB0500307A
:1016A400C1000030C2000030C3000730BC003C0859
:1016B400C400361C632B3908C1073A08C23D3B08F5
:1016C400C33D0130B836B70CB60C890B642B01301E
:1016D400B935BA0DBB0D890B6A2B0130C402031D49
:1016E4005B2B0930BC003C08C400361C7F2B390836
:1016F400C1073A08C23D3B08C33D0130B836B70CB8
:10170400B60C890B802B0130C336C20CC10C890B7B
:10171400862B0130C402031D772B4108A000420828
:10172400A1004308A2004008BC003C08A3004508EF
:10173400BD003D08A4008831ED2020002008B6003B
:101744002108B7002208B800080020005408DA0075
:101754005508DB005608DC0003105B0D5C0DDD0052
:101764005D08E0005708DA005808DB005908DC007F
:1017740003105B0D5C0DDD005D08DF0060080319DC
:10178400CF2B5F0860020318D62B6003FF3A5F0774
:10179400DA0019305A02031CD62B5708D400580813
:1017A400D5005908D60008005F080319080060082E
:1017B4005F020318E52B5F03FF3A6007DA00193074
:1017C4005A02031808000630DA005A08DE00D61B55
:1017D400DE17D91B5E17D517FF30D405FF30D505AA
:1017E4000030D605D817FF30D705FF30D8050030B4
:1017F400D9055F0860020318212C0130D735D80DB4
:10180400D90D890B002C0130DF025F086006031933
:101814001C2C0130DE025E08073903191C2CFF2B37
:101824000130D636D50CD40C890B132C0130DA00D8
:101834005A08E00760085F060319462C122C60085A
:101844005F020318462C0130D435D50DD60D890B13
:10185400262C0130E0025F0860060319422C013097
:10186400DE025E0807390319422C252C0130D936D3
:10187400D80CD70C890B392C0130DA005A08DF0751
:1018840060085F06031D382CDE1F582CFF30D40679
:10189400FF30D506FF30D6060130D40700300318D8
:1018A4000130D507003003180130D6075E1F6A2CBB
:1018B400FF30D706FF30D806FF30D9060130D707EE
:1018C400003003180130D807003003180130D9075D
:1018D400DE015408D7075508D83D5608D93DD91F0D
:1018E400852CFF30D706FF30D806FF30D9060130EB
:1018F400D707003003180130D8070030031801302F
:10190400D907DE01DE0A5708A0005808A1005908CB
:10191400A2006008DA005A08A3005E08DB005B0836
:10192400A4008831ED2020002008D4002108D5002F
:101934002208D6000800203086008701403F20009E
:10194400A600413FA700423FA800433FA90003105F
:10195400280D290DAA002A08B3003308031DBB2C47
:101964000030A3000030A2000030A1000030A0002D
:101974000800233086008701403FA600413FA700AE
:10198400423FA800433FA9000310280D290DAA00D7
:101994002A08B2003208031DD82C0030A3000030FE
:1019A400A2000030A1000030A00008002030860012
:1019B400870100308104413100308104413180309D
:1019C4008104413100308104203086008701FF30DA
:1019D40081054131FF3081054131FF3081054131BD
:1019E40000308105233086008701003081044131B5
:1019F4000030810441318030810441310030810460
:101A0400233086008701FF3081054131FF30810595
:101A14004131FF3081054131003081050030B10092
:101A24000030B0000030AF000030AE007F30B302B1
:101A3400A0303207A6002608B3022030A6002608EC
:101A4400B2000130AE35AF0DB00DB10D890B242DB0
:101A5400233086008701403FA600413FA700423F54
:101A6400A800433FA900203086008701403FAA0018
:101A7400413FAB00423FAC00433FAD0029082D027B
:101A8400031D4E2D28082C02031D4E2D27082B0262
:101A9400031D4E2D26082A02031C6B2D23308600BD
:101AA4008701403FA600413FA700423FA800433FB3
:101AB400A9002030860087012608810241312708C9
:101AC400813B41312808813B41312908813B7D31EB
:101AD4002E1420308600870181354131810D41313A
:101AE400810D4131810D7D310130B202031D232D61
:101AF400B31F982D3308803A9F3E03188A2D003077
:101B0400A3000030A2000030A1000030A0000800B3
:101B14000130B136B00CAF0CAE0C890B8B2D0130FB
:101B2400A6002608B3070319B12D8A2D20303302ED
:101B3400031CAE2D0030A3000030A2000030A10031
:101B44000030A00008000130AE35AF0DB00DB10D6E
:101B5400890BA62D0130B3023308031DA52D3108CE
:101B6400A3003008A2002F08A1002E08A00008003E
:101B74002000CE00CE1FE02ECE09CE0A4E08803AB9
:101B8400123E031C642E0A30A7000030A8004E0841
:101B9400A200A301A21BA3036430A0000030A10093
:101BA400883102208D3120002108AA002008A900D4
:101BB400883148208D3120002708093EB0000030CC
:101BC400283DB1000330B2000030B30096315A26EC
:101BD4008D312000310885003008840028308407C6
:101BE4009030853D003FB600013FB700023FB8008A
:101BF4006430A7000030A8004E08A900AA01A91B60
:101C0400AA03883148208D3120002708123EB000F5
:101C14000030283DB1000330B2000030B3009631EB
:101C24005A268D3120003108850030088400283080
:101C340084079030853D003FB900013FBA00023F60
:101C4400BB008A31F3228D3120003608CB003708DF
:101C5400CC003808CD004E08A200A301A21BA303A8
:101C64000A30A0000030A100883102208D3120000C
:101C74002108B1002008B0000330B2000030B300E6
:101C840096315A268D3120003108850030088400B1
:101C9400283084079030853D003FB600013FB700EF
:101CA400023FB8004B08B9004C08BA004D08BB000D
:101CB4008A31F32220003608C6003708C7003808E6
:101CC400C80008004E08803A753E031CC32E4E0817
:101CD400A200A301A21BA3030A30A0000030A100AC
:101CE400883102208D3120002108B1002008B00085
:101CF4000330B2000030B30096315A268D312000F3
:101D04003108850030088400283084079030853DF0
:101D1400003FB600013FB700023FB8000A30A700F9
:101D24000030A8004E08A900AA01A91BAA03883103
:101D340048208D3120002708093EB0000030283D9E
:101D4400B1000330B2000030B30096315A268D3111
:101D54002000310885003008840028308407903042
:101D6400853D003FB900013FBA00023FBB008A3104
:101D7400F32220003608C6003708C7003808C80018
:101D840008004E08C900CA014908B0004A08B10059
:101D94000330B2000030B30096315A2620003108D7
:101DA400850030088400283084079030853D003F4A
:101DB400C600013FC700023FC80008004E08803A31
:101DC400123E031C842F0A30A7000030A8004E08DE
:101DD400A200A301A21BA3036430A0000030A10051
:101DE400883102208D3120002108AA002008A90092
:101DF400883148208D3120002708093EB00000308A
:101E0400283DB1000330B2000030B30096315A26A9
:101E14008D31200031088500300884004F3084075C
:101E24009030853D003FB600013FB700023FB80047
:101E34006430A7000030A8004E08A900AA01A91B1D
:101E4400AA03883148208D3120002708123EB000B3
:101E54000030283DB1000330B2000030B3009631A9
:101E64005A268D31200031088500300884004F3017
:101E740084079030853D003FB900013FBA00023F1E
:101E8400BB008A31F3228D3120003608CB0037089D
:101E9400CC003808CD004E08A200A301A21BA30366
:101EA4000A30A0000030A100883102208D312000CA
:101EB4002108B1002008B0000330B2000030B300A4
:101EC40096315A268D31200031088500300884006F
:101ED4004F3084079030853D003FB600013FB70086
:101EE400023FB8004B08B9004C08BA004D08BB00CB
:101EF4008A31F32220003608C6003708C7003808A4
:101F0400C80008004E08803A753E031CE32F4E08B3
:101F1400A200A301A21BA3030A30A0000030A10069
:101F2400883102208D3120002108B1002008B00042
:101F34000330B2000030B30096315A268D312000B0
:101F440031088500300884004F3084079030853D87
:101F5400003FB600013FB700023FB8000A30A700B7
:101F64000030A8004E08A900AA01A91BAA038831C1
:101F740048208D3120002708093EB0000030283D5C
:101F8400B1000330B2000030B30096315A268D31CF
:101F9400200031088500300884004F3084079030D9
:101FA400853D003FB900013FBA00023FBB008A31C2
:101FB400F32220003608C6003708C7003808C800D6
:101FC40008004E08C900CA014908B0004A08B10017
:101FD4000330B2000030B30096315A262000310895
:101FE4008500300884004F3084079030853D003FE1
:101FF400C600013FC700023FC80008000134003496
:10200400003400340A3400340034003464340034BE
:1020140000340034E83403340034003410342734FA
:1020240000340034A0348634013400344034423463
:102034000F34003480349634983400340034E1345E
:10204400F53405340034CA349A343B3400348034D3
:102054003F34CD34CC343D34D73423343C3412347F
:1020640083343A34B734D1343834C634273437342B
:10207400383486343534C034D6343334CC342B3409
:102084003234703489343034E734DB342E34E5347C
:102094003C341E344234A2340D34003480343F3492
:1020A4000034203441340034C834423400347A34A7
:1020B400443440341C3446345034C3344734243418
:1020C40074344934973418344B34BC34BE344C34EF
:1020D4006B346E344E340334153450347934AD34A7
:1020E4006034F33449347134413454342B3444343B
:1020F4004D344F34533445345434473452344F34CC
:10210400553450343D34253464342C342534663409
:102114002C34253466342C34253464342C3425345E
:1021240064342C34253464342C342534643400343D
:10213400413454342B3444344D344F3453344534C3
:1021440054344D34493443343D34253463342C34CD
:10215400253463342C34253463340034413454340A
:102164002B3444344D344F344134553454344F3487
:1021740050344F34573443344F344E34543452343F
:102184003D34253463340034413454342B344434E2
:102194004D344F3453344534543456344F344C3422
:1021A40055344D3445343D3425346334003441349E
:1021B40054342B3444344D344F3443344F344E343C
:1021C4004E34453443345434003453347434613419
:0621D40072347434003483
:102A960020008E118E120E1208002000AD002D08A7
:102AA6009531F5250800640080010131890B572D09
:102AB600003401302100DD070030DE3D200091109A
:102AC6000800200022082104200403190800803091
:102AD600A206080022001714971421009E171E1242
:102AE6009E121E171D1408008B018B1220009110D8
:102AF600210091140B118B170B17080020009C0165
:102B06001C1112309B009A019110210091140800AB
:102B1600F3007308183E860001308700403FF0003E
:102B2600413FF10008002000A7000030A000A100EE
:102B36001A30A2000030A300270896313E2608006E
:102B460023009D1CA82D1D121D161908FB007B08CD
:102B5600FC007C08FB007B08F60020308931D92177
:102B660008007008013EF4000030713DF50073085E
:102B76007502031DC02D72087402031CC42DF401D6
:102B8600F5017508F1007408F000080021009112A3
:102B96001112003023009C0067309B0090309D008E
:102BA60020309E0020309531962595313A3095316A
:102BB600962521009116080020002008013EA40059
:102BC6000030213DA50023082502031DEC2D220817
:102BD6002402031CF02DA401A5012508A100240848
:102BE600A00008002000AC002C08AB002B08A600B3
:102BF6003A308A316322953120006F03031D0800A5
:102C0600EF013A309731AF2723009A0021001116C1
:102C1600080096319426963195314B259631E7304A
:102C26002100A0009030A10080314320963164300D
:102C36002000A0000030A1008731E3279631122E34
:102C46003A3095318B2596317108803AFB008030F9
:102C56007B02031D302E01307002031C382E3A30E1
:102C66009731622723009A0008002000EF01EF0A3F
:102C76002100111208002000A5002508A400240840
:102C8600A6000130A2020030A33B220A0319230A40
:102C9600031908002008A4002608860001308700D2
:102CA600240881000130A4002408A607442E200031
:102CB600B401B501301C632E3208B4073308B53DA4
:102CC6000130B235B30D890B642E0130B136B00C2C
:102CD600890B692E30083104031D5D2E3508B100BD
:102CE6003408B00008002000630862046104031978
:102CF6007E2E8030E3066408D4006508D500660899
:102D0600D6006108D7006208D8006308D9008B3165
:102D1600A72320005408E1005508E2005608E30006
:102D26000800210019088739683899001908FC3904
:102D36000238990099138E130E138E120E128E11ED
:102D46000C150E148E1423000E108E100C118E11FD
:102D56000E138E1395316D2596319531C925963111
:102D66009531772596319531812508008E302000E2
:102D7600AC002C08AD00FF302B050319CE2E013018
:102D8600AB36AA0CA90CA80C890BC32E0130AC00DB
:102D96002C08AD07BE2E2808A0002908A1002A0885
:102DA600A2002D08AC002C08A300A4018831ED2058
:102DB60020002008A8002108A9002208AA0008006F
:102DC6002000A21FFA2E2009A6002109A700220929
:102DD600A800A60A0319A70A0319A80A003026079D
:102DE600A0000030273DA1008030283DA200A51F8D
:102DF600102F2309A6002409A7002509A800A60A62
:102E06000319A70A0319A80A00302607A3000030F1
:102E1600273DA4008030283DA5008030A2068030E2
:102E2600A50625082202031D080024082102031D09
:102E360008002308200208002000310830042F046F
:102E46002E040319592FB701B70AB11B362F0130CB
:102E5600AE35AF0DB00DB10D890B2B2F0130B6007D
:102E66003608B707282F31083502031D442F3008CE
:102E76003402031D442F2F083302031D442F2E084E
:102E86003202031C4E2F2E08B2022F08B33B300825
:102E9600B43B3108B53B0130B136B00CAF0CAE0CCB
:102EA600890B4F2F0130B702031D362F3508B100AD
:102EB6003408B0003308AF003208AE000800FA004C
:102EC6007A08183E860001308700403FF600413FF1
:102ED600F7007708803AF80080307802031D752FD6
:102EE60001307602031CAC2F7A08163E86000130AC
:102EF600870001087A07F600760886000130870009
:102F06000108F7007708F9007A08163E86000130B6
:102F16008700403FF000413FF1001430F2000030DE
:102F2600F3009531B42597317A08163E86000130B4
:102F360087007008C03F7108C13F7A08183E8600B6
:102F460001308700FF3081074131FF30813D7F31FD
:102F5600AD2FF901790808002000AA002A08183EBA
:102F6600860001308700403FA600413FA7002708A2
:102F7600803AA80080302802031DC32F01302602A4
:102F8600031CFC2F20002A08163E8600013087000D
:102F960001082A07A60026088600013087000108D6
:102FA600A7002708A9002A08163E860001308700D8
:102FB600403FA000413FA1001430A2000030A30012
:102FC6009531DF25973120002A08163E860001300C
:102FD60087002008C03F2108C13F2A08183E860006
:102FE60001308700FF3081074131FF30813D7F315D
:0A2FF600FE2F2000A90129080800A1
:020000040001F9
:04000E0044C6FCFEEA
:00000001FF
