:0400000044EF00F0D9
:100008005182FACF3BF0FBCF3CF0E9CF3DF0EACF8D
:100018003EF0E1CF3FF0E2CF40F0D9CF41F0DACF68
:1000280042F0F3CF43F0F4CF44F0F6CF45F0F7CFEA
:1000380046F0F8CF47F0F5CF48F09DBC9EAC02D013
:10004800EAEC03F048C0F5FF47C0F8FF46C0F7FFE9
:1000580045C0F6FF44C0F4FF43C0F3FF42C0DAFFD7
:1000680041C0D9FF40C0E2FF3FC0E1FF3EC0EAFF08
:100078003DC0E9FF3CC0FBFF3BC0FAFF51921100B5
:1000880037EF02F04FBE0AD04F5004E1210E4E5C0C
:10009800D8A004D0000E4F6E200E4E6E4FBE05D075
:1000A8004F5007E14E04D8B004D0000E4F6E000E3A
:1000B8004E6E4EC0D3F04FC0D4F08A9A0001D3518F
:1000C800235C2450800A0001CD6F0001D451800ABE
:1000D8000001CD59D8B016D08A8623C0CDF024C0EF
:1000E800CEF00001CD1FCE1FCD4BCE2B0001D3513A
:1000F8000001CD250001CF6F0001D4510001CE21B0
:100108000001D06F23500001D35D0001D451800A53
:100118000001CD6F2450800A0001CD59D8B014D009
:100128008A96D3C0CDF0D4C0CEF00001CD1FCE1F2B
:10013800CD4BCE2B23500001CD250001CF6F24508D
:100148000001CE210001D06F010E496E000E4A6EEB
:10015800000E4B6E000E4C6ECBEC02F0000E000150
:10016800D26F000ED16F19D08A88010E496E000E29
:100178004A6E000E4B6E000E4C6ECBEC02F08A9865
:10018800010E496E000E4A6E000E4B6E000E4C6E4C
:10019800CBEC02F00001D14BD22B0001CF51000172
:1001A800D15D0001D251800A0001CD6F0001D0510C
:1001B800800A0001CD59D8A0D7D78A8AD3C023F0A6
:1001C800D4C024F01200010E496E000E4A6E000ED3
:1001D8004B6E000E4C6ECBEC02F08A9A010E496E03
:1001E800000E4A6E000E4B6E000E4C6ECBEC02F009
:1001F8008A96010E496E000E4A6E000E4B6E000E76
:100208004C6ECBEC02F0000E4F6E000E4E6E4FBEE1
:1002180006D04F5021E1200E4E5CD8B01DD08A8800
:10022800010E496E000E4A6E000E4B6E000E4C6EAB
:10023800CBEC02F08A98010E496E000E4A6E000E51
:100248004B6E000E4C6ECBEC02F04E4A4F2A4FBE5E
:10025800E6D74F5001E1DFD78A88010E496E000EBC
:100268004A6E000E4B6E000E4C6ECBEC02F08A8A82
:10027800000E246E000E236E010E496E000E4A6EAB
:10028800000E4B6E000E4C6ECBEC02F01200000E0E
:100298004D6E000E4C6E4DBE06D04D5011E10C0E49
:1002A8004C5CD8B00DD00D0E4C24D96E000E4D20EC
:1002B800DA6E4C50D1EC03F0DF6E4C4A4D2AEBD786
:1002C8000E500DC04AF04B6A4AC04BF04A6A4A10B9
:1002D800016E4B50026E10500FC04AF04B6A4AC074
:1002E8004BF04A6A4A10036E4B50046E125011C00C
:1002F8004AF04B6A4AC04BF04A6A4A10056E4B50A6
:10030800066E145013C04AF04B6A4AC04BF04A6A52
:100318004A10076E4B50086E165015C04AF04B6ACB
:100328004AC04BF04A6A4A10096E4B500A6E185080
:1003380017C04AF04B6A4AC04BF04A6A4A100B6E23
:100348004B500C6E1200000E0001CE6F000ECD6FE8
:10035800000E0001D06F170ECF6F0001D0BF23D061
:100368008C9E880E0001CF25D96E000E0001D02189
:10037800DA6EDF504E6E4E500001CD6FCE6B00012D
:10038800CD050001CE11D8A402D08C8806D000017A
:10039800CD510001CE11D8B48C988C8E0001CF07B6
:1003A800D8A0D007DAD78C9E010E496E000E4A6E8F
:1003B800000E4B6E000E4C6ECBEC02F08C8C010ED6
:1003C800496E000E4A6E000E4B6E000E4C6ECBEC62
:1003D80002F08C9C12000001CB6F30D0010E496EE8
:1003E800C9C04AF0020E22EC03F01200010E496E59
:1003F800C9C04AF0010E22EC03F01200060E496E45
:10040800C9C04AF0010E22EC03F01200060E496E34
:10041800C9C04AF0020E22EC03F01200060E496E23
:10042800C9C04AF0030E22EC03F01200010E496E17
:10043800C9C04AF0030E22EC03F012000001CB51B0
:10044800010AD8B4E3D7030AD8B4D8D7010AD8B474
:10045800C5D7070AD8B4CAD7010AD8B4DFD7030A60
:10046800D8A41200E3D704EE00F0C80EEE6AE8063E
:10047800FDE103EE00F0CE0EEE6AE806FDE102EEC5
:1004880000F0CE0EEE6AE806FDE101EE00F0CE0EB9
:10049800EE6AE806FDE100EE60F0690EEE6AE80635
:1004A800FDE100EE01F03A0EEE6AE806FDE1D80E35
:1004B800F66E070EF76E000EF86E0900F5CF50F0D5
:1004C80051905192000EF86E000179EF03F08C8A7A
:1004D8008A80020E496E000E4A6E000E4B6E000EA8
:1004E8004C6ECBEC02F08C9A020E496E000E4A6EEE
:1004F800000E4B6E000E4C6ECBEC02F08A90020E92
:10050800496E000E4A6E000E4B6E000E4C6ECBEC20
:1005180002F08C8A020E496E000E4A6E000E4B6E77
:10052800000E4C6ECBEC02F08A805FEC03F01200F8
:100538006BEC02F0000E0001CA6F010EC96F030ECA
:10054800EFEC01F0000E0001CA6F010EC96F010E39
:10055800EFEC01F0000E0001CA6F000EC96F020E29
:10056800EFEC01F0000E0001CA6F000EC96F040E17
:10057800EFEC01F0000E0001CA6F000EC96F050E06
:10058800EFEC01F0E5EC03F04BEC01F01200000E8B
:100598000001C96F000ECA6F000ECB6F000ECC6F42
:1005A8000FD0060E4D6E300EE82EFED74D2EFCD71E
:1005B80000D0010E0001C927000ECA23CB23CC238B
:1005C80049500001C95D4A500001CA594B50000109
:1005D800CB590001CC51800A4D6E4C50800A4D58C1
:1005E800D8B01200DED7000E8A6E000E896E030E98
:1005F8000F013C6F000E8D6E000E8C6E000E8B6E20
:10060800270E0F01386F060E0F01396FDC0E0F0130
:100618003A6FED0E0F013B6FC60E616E0D0E956EB3
:10062800070E966EC60E936EDF0E946EE70E926EF0
:1006380093969398939AF18EF29612004F6EF80E55
:100648004B6EFF0E4C6E49504FC04DF04E6AD8901D
:100658004D364E36D8904D364E36D8904D364E36AD
:100668004D26000E4E224B504D264C504E22880EE1
:100678004D24D96E000E4E20DA6E4AC0DFFF1200FC
:1006880049C04BF04AC04CF0D8904C324B32D8900D
:100698004C324B324B500F01586F49C04BF0030E90
:1006A8004B164B3AF00E4B160F015751CF0B4B1010
:1006B8000F01576F1200000E0001D26F170ED16F95
:1006C8000001D2BF0FD0880E0001D125D96E000ECF
:1006D8000001D221DA6E000EDF6E0001D107D8A02A
:1006E800D207EED7A7EC01F01200A0EC03F09CECC7
:1006F80002F091EC03F0F28EF28CE80E496E030ED4
:100708004A6E000E4B6E000E4C6ECBEC02F089B6B2
:1007180002D08986F2D78996F0D7E7EC00F0000E70
:100728004F6E0F0E4E6E46EC00F0020E4A6EBC0E77
:10073800496E44EC03F01200E2EC03F0F7EC02F02F
:10074800DBEC03F0AEEC03F0C7EC03F0BBEC03F01A
:100758008A8812003C0E0F01576F7C0E0F01586FEC
:10076800000E0F01596FFC0E0F0148171200010E01
:10077800C26E000EC16E0D0EC06E000EC36E000E6E
:10078800C46E9D8C1200290EBA6EF90EBB6E000E57
:10079800BC6E9E92E8EC03F01200496E49C0A9FFB6
:1007A800A69CA69EA68000F000F0A8501200700E2D
:1007B800D36E040ED26E000E9B6E1200D09E9F9CCC
:1007C8001200A7EC01F01200BA8412009E9C1200DD
:0207D80001001E
:020000040020DA
:08000000FFFFFFFFFFFFFFFF00
:020000040030CA
:0E000000FF281F3CFFBF81FF0FC00FE00F4025
:00000001FF
