:0400000068EF00F0B5
:100008004582FACF0DF0FBCF0EF0E9CF0FF0EACF23
:1000180010F0E1CF11F0E2CF12F0D9CF13F0DACF20
:1000280014F0F3CF15F0F4CF16F0F6CF17F0F7CFA2
:1000380018F0F8CF19F0F5CF1AF09DBA9EAA03D0A0
:1000480012EC17F023D09DB89EA803D024EC16F02C
:100058001DD0F2BAF2A403D0EEEC15F017D09DB281
:100068009EA203D0A2EC17F011D09DBC9EAC03D089
:10007800ADEC17F00BD09DB69EA603D00DEC04F0A6
:1000880005D0A0B6A1A602D0B0EC17F01AC0F5FFB3
:1000980019C0F8FF18C0F7FF17C0F6FF16C0F4FF25
:1000A80015C0F3FF14C0DAFF13C0D9FF12C0E2FF76
:1000B80011C0E1FF10C0EAFF0FC0E9FF0EC0FBFF4F
:1000C8000DC0FAFF45921100AAEF12F024BE06D027
:1000D80024500FE10C0E235CD8B00BD023C01BF0CA
:1000E80024C01CF0000E1E6E040E1D6E2AEC12F0C9
:1000F8000CD0F40E23241B6EFF0E24201C6E000E61
:100108001E6E040E1D6E2AEC12F01BC027F01CC0D8
:1001180028F0030E2314296E2A6A24BE0AD024501C
:1001280004E10C0E235CD8A004D0040E2926000E8E
:100138002A2225042610D8A47DD029C039F1010E21
:1001480001013A6F000E01013B6F0101392B04D008
:10015800D89001013A373B370101392FF9D73AC115
:100168003CF13BC13DF1000E01013DBFFF0E3E6F6A
:100178003F6F600E0101406F000E0101416FD89082
:100188002734D96E2834DA6ED890D936DA36010198
:100198004051D92601014151DA2201013C51DE12B8
:1001A8003D51DE123E51DE123F51DE1229C039F1B7
:1001B800080E01013927010E01013A6F000E0101F5
:1001C8003B6F0101392B04D0D89001013A373B37F6
:1001D8000101392FF9D701013A1D01013C6F0101D5
:1001E8003B1D01013D6F01013E6B01013DBF3E0713
:1001F80001013E5101013F6F600E0101406F000E89
:100208000101416FD8902734D96E2834DA6ED8901E
:10021800D936DA3601014051D92601014151DA2295
:1002280001013C51DE163D51DE163E51DE163F51AE
:10023800DE161200020E25182610D8A45AD029C09E
:1002480039F1080E01013927010E01013A6F000E3C
:1002580001013B6F0101392B04D0D89001013A37D5
:100268003B370101392FF9D729C03CF1010E0101B3
:100278003D6F000E01013E6F01013C2B04D0D89068
:1002880001013D373E3701013C2FF9D701013A51B1
:1002980001013D1101013F6F01013B5101013E1177
:1002A8000101406F0101416B010140BF410701019C
:1002B80041510101426F600E0101436F000E0101BF
:1002C800446FD8902734D96E2834DA6ED890D9364E
:1002D800DA3601014351D92601014451DA220101DC
:1002E8003F51DE124051DE124151DE124251DE1200
:1002F800120025502610D8A46AD029C039F1080E5A
:1003080001013927010E01013A6F000E01013B6F0F
:100318000101392B04D0D89001013A373B3701014C
:10032800392FF9D701013A1D01013C6F01013B1D2D
:1003380001013D6F29C03EF1010E01013F6F000E22
:100348000101406F01013E2B04D0D89001013F37D5
:10035800403701013E2FF9D701013F1D0101416FCF
:100368000101401D0101426F01013C51010141158C
:100378000101436F01013D51010142150101446F23
:100388000101456B010144BF4507010145510101C8
:10039800466F600E0101476F000E0101486FD8904B
:1003A8002734D96E2834DA6ED890D936DA36010176
:1003B8004751D92601014851DA2201014351DE167D
:1003C8004451DE164551DE164651DE161200030E64
:1003D80025182610D8A4120029C039F1080E0101E9
:1003E8003927010E01013A6F000E01013B6F01012F
:1003F800392B04D0D89001013A373B370101392F06
:10040800F9D73AC13CF13BC13DF1000E01013DBFB6
:10041800FF0E3E6F3F6F600E0101406F000E01013D
:10042800416FD8902734D96E2834DA6ED890D936EF
:10043800DA3601014051D92601014151DA22010180
:100448003C51DE123D51DE123E51DE123F51DE12AA
:1004580029C039F1010E01013A6F000E01013B6F0D
:100468000101392B04D0D89001013A373B370101FB
:10047800392FF9D701013A1D01013C6F01013B1DDC
:1004880001013D6F01013E6B01013DBF3E070101C6
:100498003E5101013F6F600E0101406F000E0101E6
:1004A800416FD8902734D96E2834DA6ED890D9366F
:1004B800DA3601014051D92601014151DA22010100
:1004C8003C51DE163D51DE163E51DE163F51DE161A
:1004D80012003E50D8A4A8D001D80AD00500FA6E60
:1004E8002F50FD6E3050FE6EF850FF6EFA5012001D
:1004F8001EBE9AD01E501EE1050E1D5CD8B01AD043
:1005080093D00001C94BCA2B01D80AD00500FA6E56
:100518002F50FD6E3050FE6EF850FF6EFA501200EC
:100528001EBE06D01E5006E1050E1D5CD8B002D0D6
:10053800000E120001D80AD00500FA6E3150FD6E87
:100548003250FE6EF850FF6EFA501200060AD8A418
:10055800D8D701D80AD00500FA6E3150FD6E325056
:10056800FE6EF850FF6EFA501200850AD8A45CD0CF
:1005780001D80AD00500FA6E3150FD6E3250FE6E79
:10058800F850FF6EFA5012003C6E01D80AD00500F0
:10059800FA6E3150FD6E3250FE6EF850FF6EFA5012
:1005A80012003B6E01D80AD00500FA6E3150FD6E7C
:1005B8003250FE6EF850FF6EFA5012003E6E3A50FE
:1005C8003C18D8B431D00001C74BC82B000E276E99
:1005D800000E266E0ED001D80AD00500FA6E3150F2
:1005E800FD6E3250FE6EF850FF6EFA501200264A29
:1005F800272A3E500001F26FF36B010E0001F2272B
:10060800000EF32326500001F25D0001F351800A29
:100618000001F46F2750800A0001F459D8B0DBD7E5
:10062800000E3E6E000E12003E50D8A41AD0EFD035
:1006380001D80AD00500FA6E3150FD6E3250FE6EB8
:10064800F850FF6EFA5012000001F26F3D50010D94
:10065800000EF324D96E050EF420DA6EF2C0DFFF27
:100668003D2A01D80AD00500FA6E2F50FD6E305091
:10067800FE6EF850FF6EFA5012001D501E10D8B4CE
:1006880004D03D503E5CD8B0D3D73E500001F26F45
:10069800F36BFF0E0001F46FFF0E0001F56F3D5084
:1006A8000001F66FF76B0001F4510001F627000115
:1006B800F5510001F7230001F2510001F61905E197
:1006C8000001F3510001F719D8A4A1D0000E1B6E48
:1006D800050E1C6E3EC01DF00BEC15F0376EFF0EBC
:1006E8000001F26FFF0E0001F36F3D500001F46F3F
:1006F800F56B0001F2510001F4270001F3510001EC
:10070800F523000E0001F425D96E050E0001F52130
:10071800DA6E3750DE18D8A46FD0000E296E000E9E
:10072800286E50D0000E2824D96E050E2920DA6EC6
:100738003950DE5CD8B03DD0010E28240001F26F9C
:10074800000E29200001F36F000E0001F225D96E7A
:10075800050E0001F321DA6EDF502B6E020E2824FD
:100768000001F26F000E29200001F36F000E000156
:10077800F225D96E050E0001F321DA6EDF502C6EDA
:10078800000E2824D96E050E2920DA6EDF500001EC
:10079800F26F0001F251020DF3500001D725D96E16
:1007A800F4500001D821DA6E2BC0DEFF2CC0DDFF2B
:1007B80003D00001CD4BCE2B030E2824286E000E4B
:1007C8002920296E3E500001F26FF36B0001F251AF
:1007D800285C2950800A0001F46F0001F351800A57
:1007E8000001F459D8A09ED7000E3E6E000E3D6E53
:1007F800D2EC15F0010E12000001CB4BCC2B000EF1
:100808003E6E000E3D6ED2EC15F0000E1200000E8A
:1008180012009E96C6AE4AD1C69E000E386E0001E2
:1008280020EE03F0D551D926D651DA22DECF04F0D6
:10083800DDCF05F004C0D9FF05C0DAFF010EDF6E79
:10084800000E0001D56F000E0001D66F12000001E6
:10085800BCB31200BAC0D5F0BBC0D6F0BAC0D9FF3D
:10086800BBC0DAFFDF50046E04500001D16FD26BB9
:10087800000120EE01F0BA51D926BB51DA22DECFB1
:100888002DF0DDCF2EF0050E0001BA27000EBB2398
:10089800F00E0001BA190BE1000E0001BB19D8A433
:1008A80006D0EB0E0001BA6F000E0001BB6F00010D
:1008B800BC910001B8510001BA1908E10001B95111
:1008C8000001BB19D8A402D00001BC83C580020E68
:1008D800386E1200C582020E386E1200C5AC06D002
:1008E8000001BE2B040E75EC15F01200D8904130B3
:1008F800056E4030046E0450C96E40A003D00B0E44
:10090800386E1200030E386E1200C5AC06D0000116
:10091800BE2B040E75EC15F01200C58240C004F021
:1009280041C005F005C004F0056A060E0416000E65
:100938000516F00E0410406E0550416E4080010E01
:10094800356E020E386E12003504D8B41ED02DC094
:10095800D9FF2EC0DAFFDECF40F0DDCF41F020EE28
:1009680003F02D50D9262E50DA22DECFC1F0DDCF8C
:10097800C2F020EE02F02D50D9262E50DA22DF5098
:10098800046E04500001BF6FC06B40C0C9FF40A097
:1009980003D0050E386E1200030E386E1200C5AC77
:1009A80007D00001BE2BC59C050E75EC15F0120092
:1009B8000001BF51046E0001C051056E010E000117
:1009C800BF5F000E0001C05B04500510D8A416D00C
:1009D800050E2D26000E2E220001D107D8A0D20721
:1009E8000001D1510001D211D8A404D0000E75EC39
:1009F80015F01200C582020E386E1200C1C0F6FF53
:100A0800C2C0F7FFF86A050EF76403D00800F55076
:100A180005D0F6CFE9FFF7CFEAFFEF50C96E000126
:100A2800C14BC22B1200C5AC07D00001BE2B040E6F
:100A380075EC15F0C59C1200C586080E386E1200BC
:100A4800080E386EC5861200C1C0F6FFC2C0F7FF97
:100A5800F86A050EF76404D0C9CFF5FF0C0006D07C
:100A6800F6CFE9FFF7CFEAFFC9CFEFFF0001C14B8F
:100A7800C22B0001BF07D8A0C0070001BF51000169
:100A8800C011D8B404D0C59A060E386E03D0C58AF2
:100A9800BDEC16F0C5881200000E75EC15F01200BA
:100AA8000001BE2B060E75EC15F012003850000A36
:100AB800D8B4CDD6010AD8B40DD7030AD8B444D7D0
:100AC800010AD8B46CD7070AD8B4E6D7010AD8B453
:100AD800AAD7030AD8B4B4D7010AD8B4DDD70F0A05
:100AE800D8B4B2D7020AD8B4F9D6010AD8B40DD707
:100AF800D7D738D121042210D8A40DD0000E1C6EEF
:100B0800000E1B6E06EC0EF08B82000E0001896F42
:100B1800010E886F120021502210D8A40DD0000EAB
:100B28001C6E000E1B6E06EC0EF08B92000E000180
:100B3800896F000E886F1200020E21182210D8A4A7
:100B480012008B92000E1C6E000E1B6E6BEC0EF0EA
:100B5800000E0001896F020E886F12002104221016
:100B6800D8A40DD0000E1C6E010E1B6E06EC0EF004
:100B7800898C000E00018B6F010E8A6F12002150C4
:100B88002210D8A40DD0000E1C6E010E1B6E06ECB0
:100B98000EF0899C000E00018B6F000E8A6F120008
:100BA800020E21182210D8A41200899C000E1C6E77
:100BB800010E1B6E6BEC0EF0000E00018B6F020E27
:100BC8008A6F120021042210D8A40DD0000E1C6ECA
:100BD800020E1B6E06EC0EF0898E000E00018D6F62
:100BE800010E8C6F120021502210D8A40DD0000ED7
:100BF8001C6E020E1B6E06EC0EF0899E000E0001A4
:100C08008D6F000E8C6F1200020E21182210D8A4CE
:100C18001200899E000E1C6E020E1B6E6BEC0EF00D
:100C2800000E00018D6F020E8C6F1200210422103D
:100C3800D8A40DD0000E1C6E030E1B6E06EC0EF031
:100C48008D84000E00018F6F010E8E6F12002150EF
:100C58002210D8A40DD0000E1C6E030E1B6E06ECDD
:100C68000EF08D94000E00018F6F000E8E6F120033
:100C7800020E21182210D8A412008D94000E1C6EAA
:100C8800030E1B6E6BEC0EF0000E00018F6F020E50
:100C98008E6F120021042210D8A40DD0000E1C6EF5
:100CA800040E1B6E06EC0EF08D82000E0001916F93
:100CB800010E906F120021502210D8A40DD0000E02
:100CC8001C6E040E1B6E06EC0EF08D92000E0001D9
:100CD800916F000E906F1200020E21182210D8A4F6
:100CE80012008D92000E1C6E040E1B6E6BEC0EF043
:100CF800000E0001916F020E906F12002104221065
:100D0800D8A40DD0000E1C6E050E1B6E06EC0EF05E
:100D18008D80000E0001936F010E926F120021501A
:100D28002210D8A40DD0000E1C6E050E1B6E06EC0A
:100D38000EF08D90000E0001936F000E926F12005E
:100D4800020E21182210D8A412008D90000E1C6EDD
:100D5800050E1B6E6BEC0EF0000E0001936F020E79
:100D6800926F12001FC023F020C024F02450000A04
:100D7800D8A412002350000AD8B4BCD6010AD8B4AB
:100D8800EDD6030AD8B41ED7010AD8B44FD7070A3C
:100D9800D8B480D7010AD8A41200B0D7000E046EC8
:100DA800000E036EC3D0D8900334D96E0434DA6EC3
:100DB800980ED926000EDA22DE04DE10D8B498D0B8
:100DC800AFD08BB202D08B823BD08B9239D089BC0A
:100DD80002D0898C35D0899C33D089BE02D0898EC7
:100DE8002FD0899E2DD08DB402D08D8429D08D949A
:100DF80027D08DB202D08D8223D08D9221D08DB094
:100E080002D08D801DD08D901BD003C001F004C08E
:100E180002F00250000AD8A413D00150000AD8B436
:100E2800D0D7010AD8B4D3D7030AD8B4D6D7010A81
:100E3800D8B4D9D7070AD8B4DCD7010AD8B4DFD7D1
:100E4800D8900334D96E0434DA6EA40ED926000E75
:100E5800DA22010E49D08BB202D08B823BD08B9222
:100E680039D089BC02D0898C35D0899C33D089BED1
:100E780002D0898E2FD0899E2DD08DB402D08D843A
:100E880029D08D9427D08DB202D08D8223D08D9217
:100E980021D08DB002D08D801DD08D901BD003C085
:100EA80001F004C002F00250000AD8A413D0015087
:100EB800000AD8B4D0D7010AD8B4D3D7030AD8B413
:100EC800D6D7010AD8B4D9D7070AD8B4DCD7010ACB
:100ED800D8B4DFD7D8900334D96E0434DA6EA40EB0
:100EE800D926000EDA22000EDE6E000EDD6E18D056
:100EF800D8900334D96E0434DA6EA40ED926000EC5
:100F0800DA22DECF01F0DDCF02F00250000AD8A4C9
:100F180007D00150000AD8B478D7010AD8B4BFD78F
:100F2800010E0324036E000E0420046E04BE3BD79A
:100F3800045004E1060E035CD8A035D70001FE5129
:100F48000001FF11D8B4120001D8120005000001F9
:100F5800FA6EFE51FD6EFF51FE6EF850FF6EFA50AC
:100F6800120024C02BF025C02CF020EECCF021502C
:100F7800D9262250DA22010EDBBE07D0010EDB5043
:100F880003E1C50EDE5CD8B0120020EEC8F0215097
:100F9800D9262250DA22DECF26F0DDCF27F02650E0
:100FA8002124D96E27502220DA6E23C0DFFF20EEDD
:100FB800C8F02150D9262250DA22DECF1BF0DDCF2F
:100FC8001CF0000E1E6EC80E1D6E6AEC16F020EEA8
:100FD800C8F02150D9262250DA221BC0DEFF1CC0DF
:100FE800DDFF20EECCF02150D9262250DA22DE2A6D
:100FF800000EDD2220EEC8F02150D9262250DA2238
:10100800DECF26F0DDCF27F026502124D96E2750D9
:101018002220DA6E2BC0DFFF20EEC8F02150D9263F
:101028002250DA22DECF1BF0DDCF1CF0000E1E6E40
:10103800C80E1D6E6AEC16F020EEC8F02150D926B5
:101048002250DA221BC0DEFF1CC0DDFF20EECCF0F0
:101058002150D9262250DA22DE2A000EDD2220EE87
:10106800C8F02150D9262250DA22DECF26F0DDCF73
:1010780027F026502124D96E27502220DA6E2CC062
:10108800DFFF20EEC8F02150D9262250DA22DECF29
:101098001BF0DDCF1CF0000E1E6EC80E1D6E6AEC34
:1010A80016F020EEC8F02150D9262250DA221BC0B3
:1010B800DEFF1CC0DDFF20EECCF02150D9262250E7
:1010C800DA22DE2A000EDD221200F4C026F0276A9A
:1010D800286A0001F335263601E3278026500001EF
:1010E800F86F0001F851D8A40AD0000E0001F26F81
:1010F800000E0001F36F000E0001F46F1200F7C03C
:1011080026F0276A286A0001F635263601E327808B
:1011180026500001FD6F0001FD51D8A40AD0000E31
:101128000001F26F000E0001F36F000E0001F46F72
:1011380012000001FD517B0F0001F827F4C0FDF0FB
:101148000001F7510001FD1B800E0001FD17000191
:10115800F38F0001F68FFF0E0001F517FF0E000157
:10116800F617000E0001F717000E0001F96F000EC8
:101178000001FA6F000E0001FB6F070E0001FC6F03
:101188000001F2A10CD00001F5510001F92700017E
:10119800F6510001FA230001F7510001FB23000179
:1011A800D890F433F333F2330001D890F537F6379B
:1011B800F7370001FC2FE4D7090E0001FC6F00018E
:1011C800F2A10CD00001F5510001F9270001F651F8
:1011D8000001FA230001F7510001FB230001D89018
:1011E800F433F333F2330001D890FB33FA33F93395
:1011F8000001FC2FE4D7F9C01BF0FAC01CF0FBC0BB
:101208001DF0F8C01EF0FDC01FF026EC0FF01BC04B
:10121800F2F01CC0F3F01DC0F4F0120001014D6F94
:10122800000E0101396F020E0101506F000E01011D
:101238004F6F000E4E6F2FD0390E0001F26F010E66
:101248000001F36F000E0001F56F010EF46F4DC140
:10125800F6F00001F76B500E0001F86F010E000167
:10126800F96FB6EC14F0020E01015019D8B4FBD78F
:10127800010150510101D8B412D0040E01014E19D8
:1012880001014F11D8B40BD001015005D8B407D0D3
:1012980001014E4B4F2B01015005D8A4CDD7020EAA
:1012A8000101506F000E0101396F60C03AF161C051
:1012B8003BF164C03CF165C03DF168C03EF169C0D6
:1012C8003FF16CC040F16DC041F170C042F171C096
:1012D80043F174C044F175C045F178C046F179C056
:1012E80047F17CC048F17DC049F180C04AF181C016
:1012F8004BF1000E01014F6F000E4E6F2FD0390ECB
:101308000001F26F010E0001F36F000E0001F56F8E
:10131800110EF46F4DC1F6F00001F76B500E00018D
:10132800F86F010E0001F96FB6EC14F0020E01011E
:101338005019D8B4FBD7010150510101D8B412009B
:10134800040E01014E1901014F11D8B41200010118
:101358005005D8B4120001014E4B4F2B0101500526
:10136800D8B41200CCD70001F26FD9C01BF0DAC094
:101378001CF0CCC21DF00BEC15F00001F36F01D886
:101388000BD00500FA6E3350FD6E3450FE6EF850E7
:10139800FF6EFA50060E120001D80BD00500FA6E47
:1013A8003350FD6E3450FE6EF850FF6EFA50850EC5
:1013B800120001D80CD00500FA6E3350FD6E34507F
:1013C800FE6EF850FF6EFA500001F251120001D87B
:1013D8000BD00500FA6E3350FD6E3450FE6EF85097
:1013E800FF6EFA503A50120001D80CD00500FA6E80
:1013F8003350FD6E3450FE6EF850FF6EFA50020105
:10140800CC511200000E0001F56F000EF46F1AD0D7
:1014180001D815D00500FA6E3350FD6E3450FE6EBB
:10142800F850FF6EFA500001F4510001D925D96E29
:101438000001F5510001DA21DA6EDF5012000001D7
:10144800F44BF52B0201CC510001F45D0001F5517C
:10145800800A276E0201CD51800A2758D8A0D8D714
:1014680001D80CD00500FA6E3350FD6E3450FE6E74
:10147800F850FF6EFA500001F3511200280E1B6E4F
:10148800010E1C6EF2C01DF0F3C01EF0000E1F6EA0
:101498009AEC0DF0000E236E020E246E000E266EDE
:1014A800010E256E2AEC14F012003BC13DF101013A
:1014B8003E6B3F6B01013A3501013D3701E33E8147
:1014C80001013D510101476F01014751D8A40AD0DC
:1014D800000E0101396F000E3A6F000E3B6F000ECF
:1014E8003C6F1200170E01013D6F39C13EF13AC140
:1014F8003FF13BC140F101013D290101416F05D098
:101508000101D89040333F333E330101412FF8D7D2
:1015180001013E510101426F01013A8FFF0E0101A5
:101528003917FF0E01013A17000E01013B1701019F
:1015380039510101436F01013A510101446F010121
:101548003B510101456F0101466B8E0E0101475F5A
:10155800010147AF1AD001014751800A8F0FD8B057
:101568000AD0000E0101396F000E3A6F000E3B6F72
:10157800000E3C6F12000101D890463345334433C6
:1015880043330101473FF7D71BD0170E01014765C9
:1015980012D0000E0101396F000E3A6F000E3B6F3A
:1015A800000E3C6F12000101D8904337443745378D
:1015B800463701014707010147510101D8A4F3D774
:1015C800010142510101D8B409D00101461F451F4C
:1015D800441F436D000E44234523462343C139F17C
:1015E80044C13AF145C13BF146C13CF1120020EE3D
:1015F800CCF02150D9262250DA22010EDBBE07D0CA
:10160800010EDB503AE1C80EDE5CD8B036D020EED1
:10161800C8F02150D9262250DA22DECF24F0DDCFBF
:1016280025F024502124D96E25502220DA6E23C0BB
:10163800DFFF20EEC8F02150D9262250DA22DECF73
:101648001BF0DDCF1CF0000E1E6EC80E1D6E7FEC69
:1016580016F020EEC8F02150D9262250DA221BC0FD
:10166800DEFF1CC0DDFF20EECCF02150D926225031
:10167800DA22DE2A000EDD22120020EEC8F0215008
:10168800D9262250DA22DECF24F0DDCF25F02450EF
:101698002124D96E25502220DA6E23C0DFFF20EEE8
:1016A800C8F02150D9262250DA22DECF1BF0DDCF38
:1016B8001CF0000E1E6EC80E1D6E7FEC16F020EE9C
:1016C800C8F02150D9262250DA221BC0DEFF1CC0E8
:1016D800DDFF20EECAF02150D9262250DA22DECFD3
:1016E8001BF0DDCF1CF0000E1E6EC80E1D6E7FECC9
:1016F80016F020EECAF02150D9262250DA221BC05B
:10170800DEFF1CC0DDFF120020EECCF00750D9260A
:101718000850DA22010EDBBE07D0010EDB503AE199
:10172800C80EDE5CD8B036D020EEC8F00750D926F7
:101738000850DA22DECF0AF0DDCF0BF00A5007247A
:10174800D96E0B500820DA6E09C0DFFF20EEC8F012
:101758000750D9260850DA22DECF01F0DDCF02F09B
:10176800000E046EC80E036E94EC16F020EEC8F05E
:101778000750D9260850DA2201C0DEFF02C0DDFF7B
:1017880020EECCF00750D9260850DA22DE2A000EC7
:10179800DD22120020EEC8F00750D9260850DA22C0
:1017A800DECF0AF0DDCF0BF00A500724D96E0B50BC
:1017B8000820DA6E09C0DFFF20EEC8F00750D926EE
:1017C8000850DA22DECF01F0DDCF02F0000E046E01
:1017D800C80E036E94EC16F020EEC8F00750D92618
:1017E8000850DA2201C0DEFF02C0DDFF20EECAF099
:1017F8000750D9260850DA22DECF01F0DDCF02F0FB
:10180800000E046EC80E036E94EC16F020EECAF0BB
:101818000750D9260850DA2201C0DEFF02C0DDFFDA
:10182800120068D0B00E0124D96E000E0220DA6EC4
:1018380083AA02D0010E01D0000EDF6E1200B00E96
:101848000124D96E000E0220DA6E81A002D0010EAA
:1018580001D0000EDF6E1200B00E0124D96E000E0A
:101868000220DA6E81A202D0010E01D0000EDF6ED6
:101878001200B00E0124D96E000E0220DA6E81A487
:1018880002D0010E01D0000EDF6E1200B00E01244E
:10189800D96E000E0220DA6E81A802D0010E01D0A6
:1018A800000EDF6E1200B00E0124D96E000E022069
:1018B800DA6E80A002D0010E01D0000EDF6E120099
:1018C800B00E0124D96E000E0220DA6E80A202D07A
:1018D800010E01D0000EDF6E1200B00E0124D96E89
:1018E800000E0220DA6E80A402D0010E01D0000E94
:1018F800DF6E120001C003F002C004F00450000AB9
:10190800D8A412000350000AD8B48CD7010AD8B45E
:1019180096D7030AD8B4A0D7010AD8B4AAD7070A19
:10192800D8B4B4D7010AD8B4BED7030AD8B4C8D734
:10193800010AD8A41200D1D7E4EC12F0F28EF28C8E
:10194800700E21EC10F0710E21EC10F08AEC17F0FB
:101958008FEC13F08986C4EC13F09EEC17F01CBED4
:10196800FAD71C5004E1030E1B5CD8A0F4D7C30EB1
:101978000001F56F750E0001F66F3E0E0001F76F5E
:1019880099EC17F01BC023F01CC024F0D1EC16F022
:1019980023C0F2F024C0F3F025C0F4F069EC08F09D
:1019A800F2C039F1F3C03AF1F4C03BF159EC0AF056
:1019B80039C149F13AC14AF1000E01014C6F010EDB
:1019C8004B6FCFEC0FF0700E12EC09F0C30E000154
:1019D800F56F750E0001F66F3E0E0001F76F94EC7F
:1019E80017F01BC023F01CC024F0D1EC16F023C064
:1019F800F2F024C0F3F025C0F4F069EC08F0F2C06E
:101A080039F1F3C03AF1F4C03BF159EC0AF039C1AD
:101A180049F13AC14AF1000E01014C6F010E4B6FBA
:101A2800CFEC0FF0710E12EC09F089B602D089865E
:101A380001D08996A6EC17F08ED70101446F1F0ECE
:101A48000101446504D07F0E0101446503D0200ED6
:101A58000101446F000E276EFF0E286E01014451EC
:101A6800296E2A6AD89029362A36D89029362A36F5
:101A7800D89029362A362750292628502A22D30ECC
:101A880029240101426F7B0E2A200101436F400E79
:101A98000101396F3A0E1B6E010E1C6E42C11DF01A
:101AA80043C11EF0000E206E080E1F6E7DEC0FF075
:101AB800020E0101456F000E0001DE6F000EDD6FA2
:101AC80030D0390E0001F26F010E0001F36F000EE5
:101AD8000001F56F090EF46F000E0001F76F3C0E60
:101AE800F66F450E0001F86F010E0001F96FB6ECB4
:101AF80014F0020E01014519D8B4FBD70101455174
:101B08000101D8B41200020E0001DD190001DE1136
:101B1800D8B4120001014505D8B412000001DD4B0C
:101B2800DE2B01014505D8B41200CBD720EE0FF00B
:101B38001B50D9261C50DA22DECF20F0DDCF21F051
:101B480020501B24D96E21501C20DA6E1DC0DFFFE7
:101B580020EE0FF01B50D9261C50DA22DE2A000E88
:101B6800DD2220EE0FF01B50D9261C50DA22DECFE2
:101B780020F0DDCF21F020501B24D96E21501C20ED
:101B8800DA6E1EC0DFFF20EE0FF01B50D9261C5066
:101B9800DA22DE2A000EDD2220EE0FF01B50D926B5
:101BA8001C50DA22DECF20F0DDCF21F020501B249C
:101BB800D96E21501C20DA6E1FC0DFFF20EE0FF017
:101BC8001B50D9261C50DA22DE2A000EDD2220EE18
:101BD8000FF01B50D9261C50DA22010EDBBE120072
:101BE800010EDB5004E10F0EDE5CD8A0120020EEDF
:101BF8000FF01B50D9261C50DA22000EDE6E000EA4
:101C0800DD6E120048D0000E0001996F000E986F2B
:101C1800000E0001A56F000EA46F8B921200000E3B
:101C280000019B6F000E9A6F000E0001A76F000E57
:101C3800A66F899C1200000E00019D6F000E9C6F1C
:101C4800000E0001A96F000EA86F899E1200000EF9
:101C580000019F6F000E9E6F000E0001AB6F000E1B
:101C6800AA6F8D941200000E0001A16F000EA06FE4
:101C7800000E0001AD6F000EAC6F8D921200000EC9
:101C88000001A36F000EA26F000E0001AF6F000EDF
:101C9800AE6F8D9012001BC01DF01CC01EF01E50B0
:101CA800000AD8A412001D50000AD8B4ACD7010A03
:101CB800D8B4B5D7030AD8B4BED7010AD8B4C7D7A1
:101CC800070AD8B4D0D7010AD8A41200D8D742D06E
:101CD800000E0001996F010E986F000E0001A56FAC
:101CE800000EA46F1200000E00019B6F010E9A6F88
:101CF800000E0001A76F000EA66F1200000E000173
:101D08009D6F010E9C6F000E0001A96F000EA86F59
:101D18001200000E00019F6F010E9E6F000E000161
:101D2800AB6F000EAA6F1200000E0001A16F010E2A
:101D3800A06F000E0001AD6F000EAC6F1200000E18
:101D48000001A36F010EA26F000E0001AF6F000E1D
:101D5800AE6F12001BC01DF01CC01EF01E50000A02
:101D6800D8A412001D50000AD8B4B2D7010AD8B4BA
:101D7800BAD7030AD8B4C2D7010AD8B4CAD7070A4F
:101D8800D8B4D2D7010AD8A41200D9D70001BCB15F
:101D980046D01FC0D9FF20C0DAFF020EDF6E000157
:101DA80020EE01F0B851D926B951DA221DC0DEFF64
:101DB8001EC0DDFFB8C0D9FFB9C0DAFF1BC0DFFF06
:101DC800000120EE03F0B851D926B951DA221FC01C
:101DD800DEFF20C0DDFF050E0001B827000EB92385
:101DE800F00E0001B8190BE1000E0001B919D8A4D2
:101DF80006D0EB0E0001B86F000E0001B96F0001AC
:101E0800BC930001B8510001BA190FE10001B951A2
:101E18000001BB19D8A409D00001BC8106D01FC09D
:101E2800D9FF20C0DAFF010EDF6E1FC0D9FF20C026
:101E3800DAFF020EDE18D8A412003850D8A4FDD755
:101E48009E8612001E50D8B405D01B501C101D10C1
:101E5800D8A40CD0000E1B6E000E1C6E000E1D6E5A
:101E680012001E2AD8901D321C321B32000E1B1481
:101E7800206E000E1C14216EFE0E1D14226E2050C2
:101E880021102210D8B40CD0ECD71E2A010E1B2624
:101E9800000E1C22000E1D22D8901D321C321B324F
:101EA800000E1B14206E000E1C14216EFF0E1D1454
:101EB800226E205021102210D8B406D0E6D71E0674
:101EC800D8901B361C361D361CBE03D0020E1E6071
:101ED800F6D71EA01C9ED8901E321E501D121F50F1
:101EE800D8A41D8E1BC01BF01CC01CF01DC01DF00B
:101EF80012001DC025F01EC026F01BC023F01CC018
:101F080024F02350255C24502658D8B02DD01F50DB
:101F18002524216E20502620226E2150235C225039
:101F28002458D8B021D01F502526205026221F50D3
:101F38002326205024222506D8A0260625C0F6FFF1
:101F480026C0F7FF2306D8A0240623C0D9FF24C043
:101F5800DAFF0800F5CFDFFF1F06D8A020061F50C4
:101F68002010D8B41200E7D71F502010D8B41200A0
:101F780025C0F6FF26C0F7FF23C0D9FF24C0DAFF2B
:101F88000800F5CFDFFF254A262A234A242A1F0600
:101F9800D8A02006E9D701014ABF0DD001014A5156
:101FA80005E1190E0101495DD8A005D0000E010117
:101FB8004A6F180E496F01014AAF05D0000E0101A2
:101FC8004A6F000E496F000E01014F6F000E4E6FF1
:101FD80001014FBF08D001014F512EE1180E010138
:101FE8004E5DD8B012000101495101014E5D010159
:101FF8004F51800A01014D6F01014A51800A0101C8
:102008004D59D8B00BD04EC123F04FC124F04BC16D
:1020180025F04CC126F06AEC00F00AD04EC123F03E
:102028004FC124F0000E266E000E256E6AEC00F0FB
:1020380001014E4B4F2BCCD712000101436F210EEB
:1020480001013E6F020E0101446F000E0101426F53
:10205800000E416F2FD03E0E0001F26F010E0001FD
:10206800F36F000E0001F56F010EF46F43C1F6F037
:102078000001F76B440E0001F86F010E0001F96FC3
:10208800B6EC14F0020E01014419D8B4FBD70101D3
:1020980044510101D8B412D0040E010141190101C3
:1020A8004211D8B40BD001014405D8B407D00101BE
:1020B800414B422B01014405D8A4CDD7000E266E12
:1020C800000E256E43C127F073EC10F0000E266E4B
:1020D8000F0E256E43C127F0C1EC10F0120026BE8A
:1020E8000AD0265004E1040E255CD8A004D0000EC6
:1020F800266E000E256E2550252481090101396FB1
:10210800020E01013D6F000E01013C6F000E3B6F96
:102118002FD0390E0001F26F010E0001F36F000E8F
:102128000001F56F010EF46F27C0F6F00001F76BA0
:102138003D0E0001F86F010E0001F96FB6EC14F0C6
:10214800020E01013D19D8B4FBD701013D5101012F
:10215800D8B41200040E01013B1901013C11D8B496
:10216800120001013D05D8B4120001013B4B3C2B84
:1021780001013D05D8B41200CCD726BE0AD026509E
:1021880004E1100E255CD8A004D0000E266E0F0EB8
:10219800256E2550E0090101396F020E01013D6FDE
:1021A800000E01013C6F000E3B6F2FD0390E00016D
:1021B800F26F010E0001F36F000E0001F56F010EC2
:1021C800F46F27C0F6F00001F76B3D0E0001F86FC1
:1021D800010E0001F96FB6EC14F0020E01013D1971
:1021E800D8B4FBD701013D510101D8B41200040E47
:1021F80001013B1901013C11D8B4120001013D0550
:10220800D8B4120001013B4B3C2B01013D05D8B469
:102218001200CCD720EECCF02150D9262250DA2259
:10222800010EDBBE3CD0010EDB5003E1DE04D8A07A
:1022380036D020EECAF02150D9262250DA22DECF3D
:1022480023F0DDCF24F023502124D96E24502220FE
:10225800DA6EDF50256E20EECAF02150D9262250C2
:10226800DA22DECF1BF0DDCF1CF0000E1E6EC80E8A
:102278001D6E7FEC16F020EECAF02150D9262250B0
:10228800DA221BC0DEFF1CC0DDFF20EECCF021509F
:10229800D9262250DA22DE06000EDD5A02D0000EC0
:1022A800256E2550120020EECCF00750D926085094
:1022B800DA22010EDBBE3CD0010EDB5003E1DE0466
:1022C800D8A036D020EECAF00750D9260850DA2216
:1022D800DECF09F0DDCF0AF009500724D96E0A5085
:1022E8000820DA6EDF500B6E20EECAF00750D926B0
:1022F8000850DA22DECF01F0DDCF02F0000E046EC6
:10230800C80E036E94EC16F020EECAF00750D926DA
:102318000850DA2201C0DEFF02C0DDFF20EECCF05B
:102328000750D9260850DA22DE06000EDD5A02D000
:10233800000E0B6E0B501200AE0E6CEC12F0A80ED5
:102348006CEC12F03F0E6CEC12F0D30E6CEC12F049
:10235800000E6CEC12F0400E6CEC12F0A00E6CEC5F
:1023680012F0A10E6CEC12F0C00E6CEC12F0C80E5C
:102378006CEC12F0DA0E6CEC12F0120E6CEC12F03F
:10238800810E6CEC12F0FF0E6CEC12F0A40E6CECEB
:1023980012F0A60E6CEC12F0D50E6CEC12F0800E5A
:1023A8006CEC12F08D0E6CEC12F0140E6CEC12F05A
:1023B800AF0E6CEC12F0200E6CEC12F0000E6CEC10
:1023C80012F012000001DF51251805E10001E0516B
:1023D8002618D8B41200000E0001F36F000EF26F39
:1023E800000E0001F36F000EF26F0001F3BF08D07A
:1023F8000001F35126E1060E0001F25DD8B021D0AC
:10240800F2C01FF0F3C020F0F2C027F025C028F07A
:1024180026C029F0272A03D0293429322832272E2A
:10242800FBD7010E2814216E226A7DEC05F000010D
:10243800F24BF32B0001F3BFE3D70001F35101E1A5
:10244800DAD725C0DFF026C0E0F01200000E206EBB
:102458001EAE06D01D6C1E1ED8B01E2A010E206EA0
:102468001CAE06D01B6C1C1ED8B01C2A010E201AEC
:10247800000E226E000E216E1D501E10D8B41CD006
:10248800010E1F6E04D0D8901D361E361F2A1EAEB0
:10249800FAD7D890213622361D501B5C1E501C5886
:1024A800D8A005D01D501B5E1E501C5A2180D89004
:1024B8001E321D321F2EEDD72050D8B404D0216C07
:1024C800221ED8B0222A21C01BF022C01CF0120004
:1024D800256E800E0001F06F25C0F1F0020E266E09
:1024E800000E0001DE6F000EDD6F2CD0F00E000133
:1024F800F26F000E0001F36F000E0001F56F020E7F
:10250800F46F000E0001F76F3C0EF66F260E000107
:10251800F86F000E0001F96FB6EC14F0020E2618E1
:10252800D8B4FCD72650D8B41200020E0001DD1929
:102538000001DE11D8B412002604D8B4120000013C
:10254800DD4BDE2B2604D8B41200D0D705EE00F000
:10255800C80EEE6AE806FDE104EE00F0CE0EEE6A63
:10256800E806FDE103EE00F0CE0EEE6AE806FDE1B6
:1025780002EE00F0CE0EEE6AE806FDE101EE00F094
:10258800390EEE6AE806FDE100EE60F0920EEE6AA2
:10259800E806FDE100EE2BF0170EEE6AE806FDE115
:1025A800620EF66E2F0EF76E000EF86E0900F5CF6C
:1025B80044F045904592000EF86E0001A0EF0CF033
:1025C80083EC17F01EEC13F073EC17F03DEC17F0EA
:1025D800F4EC16F0E3EC16F0B4EC15F0000E010183
:1025E800396F010E01013A6F280E01013B6F030E8E
:1025F80001013C6F000E01013D6F7A0E01013E6F33
:102608002C0E01013F6FF80E0101406F2E0E0101E3
:10261800416F920E0101426F2E0E0101436F000EB1
:102628000101446F000E0101456F5BEC14F096EC5C
:1026380015F01200000E896EF70E926E200E0F0133
:10264800386F000E8A6ED70E936E000E0F01396F29
:10265800000E616E180E8B6EDF0E946E000E8C6E7F
:10266800FD0E956EDD0E0F013B6F000E8D6E000E98
:10267800966E000E0F013C6FE40E0F013A6F949AAC
:102688000F013A9B8B9A949AF18E92960F01389784
:10269800949C948E0F013A9D0F013A9F929C9492BC
:1026A800899C8B921200000E276E000E266E000E7B
:1026B800296E000E286E000E296E000E286E29BEA7
:1026C80006D0295023E1080E285CD8B01FD028C0B6
:1026D80023F028C01BF029C01CF0A9EC16F0010B50
:1026E800246E256A232A03D0D89024362536232E33
:1026F800FBD726502410266E27502510276E284A0F
:10270800292A29BEE4D7295001E1DDD726C021F0C6
:1027180027C022F01200030E276E020EF8EC13F009
:10272800E30E0001FA6F7F0E0001FB6FE1EC14F07D
:10273800030E276E030EF8EC13F0FC0E0001FA6F7F
:102748007F0E0001FB6FE1EC14F0030E276E040E00
:10275800F8EC13F0F60E0001FA6F7F0E0001FB6F24
:10276800E1EC14F0030E276E050EF8EC13F0EE0EF4
:102778000001FA6F7F0E0001FB6FE1EC14F012000C
:102788006DEC02F00009D8B41200000E1C6E000EA9
:102798001B6E2FEC17F01B041C10D8A4120030EC91
:1027A80015F0000E1C6E020E1B6E2FEC17F01BC0EE
:1027B80025F01CC026F0E6EC11F0000E1C6E030E8E
:1027C8001B6E2FEC17F01BC01DF01CC01EF0000E76
:1027D8001C6E040E1B6E2FEC17F01BC01FF01CC0E4
:1027E80020F06AEC17F01200296E2950B00F6CEC3B
:1027F80012F02950B00F6CEC12F02750080DF3506E
:102808000F0B6CEC12F02750080DF3500F0B6CEC0B
:1028180012F02750080D040E286EF434F432F33207
:10282800282EFBD7F3500F0B100F6CEC12F027502B
:10283800080D040E286EF434F432F332282EFBD738
:10284800F3500F0B100F6CEC12F0120020EECCF0CE
:102858002350D9262450DA22000EDE6E000EDD6EDB
:1028680020EEC8F02350D9262450DA22000EDE6E5E
:10287800000EDD6E20EECAF02350D9262450DA224D
:10288800000EDE6E000EDD6E25502610D8B4120044
:1028980023C01BF024C01CF0000E1E6E000E1D6E1F
:1028A800000E206EC80E1F6E54EC16F0120039C1CF
:1028B800D7F03AC1D8F03CC13AF03EC133F03FC13D
:1028C80034F042C12FF043C130F044C1DBF045C1C0
:1028D800DCF040C131F041C132F03BC11BF01C6A51
:1028E800000E1E6E020E1D6E2AEC12F01B50396E81
:1028F800000E0001D96F020E0001DA6F3DC136F0FB
:10290800000E0001CA6F000EC96F1200000E000110
:10291800FB6F000EFA6F0001FB5123E1080E000166
:10292800FA5DD8B01200000E0001FD6F000EFC6FBA
:102938000001FD5112E1100E0001FC5DD8B00DD070
:10294800FCC027F00001FA51F8EC13F0200E21EC3E
:102958000DF00001FC4BFD2BEBD70001FA4BFB2BD4
:10296800DAD712000001BCB121D0E60E1B6E000EB2
:102978001C6EF2C01DF0F3C01EF0F4C01FF0F5C0CD
:1029880020F0F6C021F0F7C022F053EC15F0000E4D
:102998001C6E010E1B6EE60E1D6E000E1E6EF8C03C
:1029A8001FF0F9C020F0CAEC0EF01200F8C0D9FFF1
:1029B800F9C0DAFF010EDF6E120015D0FAC0F6FF7B
:1029C800FBC0F7FFF86A050EF76403D00800F5505E
:1029D80005D0F6CFE9FFF7CFEAFFEF5021EC0DF075
:1029E8000001FA4BFB2BFAC0F6FFFBC0F7FFF86AB1
:1029F800050EF76403D00800F55005D0F6CFE9FFBF
:102A0800F7CFEAFFEF500009D8B41200D7D7000E6D
:102A1800216E1CD01BC0D9FF1CC0DAFFDF501F6E0F
:102A28001B4A1C2A080E206E0ED021501F18010BBD
:102A38001E6ED89021321E50D8B402D08C0E211AA6
:102A4800D8901F3220062050D8A4EFD71D061D2885
:102A5800D8A4E0D7215012008B8A000E0001F36F32
:102A6800030EF26F000E21EC17F057EC13F021C0A3
:102A7800F2F022C0F3F0080E21EC17F0000E1C6EE5
:102A8800050E1B6E0AEC16F0010EB7EC09F0000EED
:102A98001C6E030E1B6E0AEC16F08B9A120021C0F6
:102AA80023F022C024F0D890233624361BC0D9FF47
:102AB8001CC0DAFF23C0DEFF24C0DDFF20EE02F0D9
:102AC8001B50D9261C50DA221FC0DFFF20EE03F06E
:102AD8001B50D9261C50DA221DC0DEFF1EC0DDFFA8
:102AE8001200036EC584000120EE03F0D551D926EB
:102AF800D651DA22DE50DE10D8B411D0000120EE13
:102B080003F0D551D926D651DA22DECF01F0DDCF38
:102B180002F001C0D9FF02C0DAFF03C0DFFF000ED8
:102B2800386E1200EB0E0001BA6F000E0001BB6F89
:102B3800EB0E0001B86F000E0001B96F0001BC83F5
:102B48000001BC91000E0001BE6F800EC76E280EFA
:102B5800C66E000ECB6E030EC86E9E969D86120042
:102B68009D9A9D98480EB86E980EAB6E260EAC6E68
:102B7800670EAF6E000EB06E000EAD6E000EAE6E3C
:102B8800000E236E030E246E03EC17F0000E236E66
:102B9800040E246E03EC17F09D8A1200000E1C6EC2
:102BA800000E1B6E000E1C6E000E1B6E1CBE06D0A7
:102BB8001C500FE1C80E1B5CD8B01200000E1B247D
:102BC800D96E050E1C20DA6E000EDF6E1B4A1C2A19
:102BD800EDD712004350D76E42C0D6FF000E066EE6
:102BE800000E056E06BE06D006500DE1080E055C07
:102BF800D8B009D005C001F006C002F015EC0CF001
:102C0800054A062AEFD73F2AF2941200000E1F6EDB
:102C1800000E1E6E0AD0060E1D6E300EE82EFED770
:102C28001D2EFCD700D01E4A1F2A1B501E5C1F50A9
:102C3800800A1D6E1C50800A1D58D8B01200EBD7B0
:102C4800000E016E040E026E5FEC17F002BE0DD08E
:102C5800025003E10104D8A008D0000E076E040E4C
:102C6800086E57EC11F0AD6E1200010E446E9D987F
:102C78001200266E000E216E040E226E26C023F06E
:102C8800FBEC0AF04404D8A41200000E446E000EB7
:102C9800216E040E226E0EEC11F0AD6E9D881200AE
:102CA8001BC021F01CC022F008D021C0D9FF22C0CF
:102CB800DAFF1DC0DFFF214A222A1F06D8A02006FE
:102CC8001F28F3E12028D8B41200EFD7010E1B24E7
:102CD8001F6E000E1C20206E1D501F5C1E502058B9
:102CE800D8A004D0000E206E000E1F6E1FC01BF06F
:102CF80020C01CF01200010E1B241F6E000E1C20A9
:102D0800206E1D501F5C1E502058D8A004D0000E05
:102D1800206E000E1F6E1FC01BF020C01CF012009A
:102D2800010E0124056E000E0220066E0350055C9C
:102D380004500658D8A004D0000E066E000E056E8A
:102D480005C001F006C002F01200FF0E1D6EFF0E56
:102D58001E6E1BC01FF01CC020F01D501F261E50E9
:102D68002022B00E1F24D96E000E2020DA6EDF500C
:102D78001200050E2D26000E2E220001D107D8A024
:102D8800D2070001D1510001D211D8A403D0040EFA
:102D9800386E1200010E386E120023C01BF024C0DA
:102DA8001CF01D6A8E0E1E6E000E1F6E26EC0FF0B4
:102DB8001BC023F01CC024F01DC025F012007E0E9D
:102DC800BA6E300EBB6E000EBC6E9E929D825E0E79
:102DD8001B6E2F0E1C6E8FEC17F0A9EC17F012006B
:102DE800940ED56ECF0ED76E2C0ED66ECF0E436EC8
:102DF8002C0E426EF294F28AABEC17F0120023C04C
:102E08001BF024C01CF0000E1E6E000E1D6E000E7E
:102E1800206ECE0E1F6E54EC16F01200ABA202D03C
:102E2800AB98AB88AECF0CF0000E076E030E086EA1
:102E38000CC009F088EC0BF012002A6E000E216E0F
:102E4800020E226E2AC023F0F2C024F0F3C025F04F
:102E5800B5EC07F01200D8901B34D96E1C34DA6E2A
:102E6800000ED926010EDA22DECF1BF0DDCF1CF0D2
:102E78001200010EC26E800EC16E050EC06E000EED
:102E8800C36E000EC46E9D8C1200000E1B6E030EE6
:102E98001C6E54EC17F01BC01DF01CC01EF0120075
:102EA80020EECCF01B50D9261C50DA22DECF1BF0C6
:102EB800DDCF1CF0120020EECCF00150D9260250D4
:102EC800DA22DECF01F0DDCF02F012001DC0C3F020
:102ED8001EC0C4F01FC0C5F020C0C6F01200D09EAE
:102EE8009F9A9F98F1949F9C9F96A2969F921200FA
:102EF800000E216E030E226E0EEC11F01200720EFF
:102F0800D36E040ED26E000E9B6E1200A0EC11F070
:102F18008AEC14F012001BC0FEF01CC0FFF0120077
:102F2800C3C01BF0C4C01CF01200C3C01BF0C4C057
:102F38001CF012003FC01BF01C6A12009E92D2ECDB
:102F480006F01200000E3F6E1200BA841200D58EF1
:0B2F580012009E9C12001200120001EB
:107BD20000000000000000000000005F0000000044
:107BE20000000007000700000000147F147F14004B
:107BF2000000242A7F2A1200000023130864620076
:107C02000000364955225000000000050300000024
:107C120000001C2241000000000041221C00000064
:107C22000000082A1C2A0800000008083E08080074
:107C32000000A0600000000000000808080808001A
:107C42000000606000000000000020100804020034
:107C520000003E5149453E00000000427F400000C6
:107C6200000062514949460000002241494936005C
:107C720000001814127F1000000027454545390006
:107C820000003C4A49493000000001710905030027
:107C920000003649494936000000064949291E00BC
:107CA2000000003636000000000000AC6C0000004E
:107CB20000000814224100000000141414141400DF
:107CC20000004122140800000000020151090600D0
:107CD2000000324979413E0000007E0909097E0018
:107CE20000007F494949360000003E4141412200DF
:107CF20000007F4141221C0000007F4949494100A8
:107D020000007F090909010000003E414151720053
:107D120000007F0808087F000000417F410000004A
:107D220000002040413F010000007F081422410072
:107D320000007F404040400000007F020C027F00B4
:107D420000007F0408107F0000003E4141413E00D8
:107D520000007F090909060000003E4151215E0032
:107D620000007F09192946000000264949493200CE
:107D7200000001017F01010000003F4040403F0040
:107D820000001F2040201F0000003F4038403F00FD
:107D92000000631408146300000003047804030065
:107DA200000061514945430000007F41410000004D
:107DB2000000020408102000000041417F00000082
:107DC2000000040201020400000080808080800024
:107DD2000000010204000000000020545454780006
:107DE20000007F4844443800000038444428000022
:107DF2000000384444487F000000385454541800AE
:107E02000000087E09020000000018A4A4A47C005F
:107E120000007F08040478000000007D00000000DC
:107E2200000080847D00000000007F1028440000D4
:107E32000000417F4000000000007C04180478002C
:107E420000007C08047C0000000038444438000034
:107E52000000FC24241800000000182424FC000068
:107E62000000007C08040000000048545424000074
:107E72000000047F4400000000003C40407C000001
:107E820000001C2040201C0000003C4030403C0010
:107E9200000044281028440000001CA0A07C000020
:107EA20000004464544C44000000083641000000C5
:107EB2000000007F000000000000413608000000C2
:107EC200000002010102010000000205050200009B
:107ED20000000000000000000000000000000000A0
:107EE200003F8000C0007FE00030001FFFF803FF6A
:107EF200F8248000A0007FE00078001FFFF8020055
:107F0200081500029000666060FC0017A3180EEED0
:107F1200E80E0101A000666061FE00132DE808EE84
:107F2200E8040500C000666060300014ADE808EEA9
:107F3200E8041501A000666060300017AD9808EEF5
:107F4200E80455029000666060300017A3E808EE6E
:107F5200E8055500A0007FE060300017AFE808EEAA
:107F6200E8055500C0007FE060300017AF180EEE44
:107F7200E800000000000003FC30001FFFF80200D0
:107F82000800000000000001F830001FFFF803FFA6
:107F9200F800000000000000F000000000000000F7
:107FA200000000000000000060000000000000006F
:107FB20000000000000000000000000000000000BF
:107FC20000000000000000000000000000000000AF
:107FD20000398000000000000000000000000000E6
:107FE20000556E6976657273697479005A49505307
:0E7FF2002D455600416B726F6E004F46000029
:020000040020DA
:08000000FFFFFFFFFFFFFFFF00
:020000040030CA
:0E000000FF081F3CFFBF81FF0FC00FE00F4045
:00000001FF
