:0400000062EF00F0BB
:100008004582FACF0DF0FBCF0EF0E9CF0FF0EACF23
:1000180010F0E1CF11F0E2CF12F0D9CF13F0DACF20
:1000280014F0F3CF15F0F4CF16F0F6CF17F0F7CFA2
:1000380018F0F8CF19F0F5CF1AF09DBA9EAA03D0A0
:100048008BEC16F01DD09DB89EA803D0A1EC15F03E
:1000580017D0F2BAF2A403D0F7EC13F011D09DBC7C
:100068009EAC03D0FCEC16F00BD09DB69EA603D038
:1000780016EC07F005D0A0B6A1A602D0FFEC16F04A
:100088001AC0F5FF19C0F8FF18C0F7FF17C0F6FF30
:1000980016C0F4FF15C0F3FF14C0DAFF13C0D9FF70
:1000A80012C0E2FF11C0E1FF10C0EAFF0FC0E9FF74
:1000B8000EC0FBFF0DC0FAFF459211001CEF13F0B4
:1000C8003F50D8A4ACD001D80AD00500FA6E2E5003
:1000D800FD6E2F50FE6EF850FF6EFA5012001EBED5
:1000E8009ED01E501EE1050E1D5CD8B01AD097D0C8
:1000F8000001C74BC82B01D80AD00500FA6E2E5054
:10010800FD6E2F50FE6EF850FF6EFA5012001EBEA4
:1001180006D01E5006E1050E1D5CD8B002D0000EB8
:10012800120001D80AD00500FA6E3050FD6E315029
:10013800FE6EF850FF6EFA501200060AD8A4D8D7FF
:1001480001D80AD00500FA6E3050FD6E3150FE6EAF
:10015800F850FF6EFA501200850AD8A460D001D872
:100168000AD00500FA6E3050FD6E3150FE6EF85020
:10017800FF6EFA5012003D6E01D80AD00500FA6EE3
:100188003050FD6E3150FE6EF850FF6EFA5012007E
:100198003C6E01D80AD00500FA6E3050FD6E315021
:1001A800FE6EF850FF6EFA5012003F6E3B503D183D
:1001B800D8B435D00001C54BC62B000E0101426FE3
:1001C800000E416F0FD001D80AD00500FA6E3050EA
:1001D800FD6E3150FE6EF850FF6EFA5012000101AC
:1001E800414B422B3F500001F56FF66B010E0001A9
:1001F800F527000EF623010141510001F55D0001CC
:10020800F651800A0001F76F01014251800A00018E
:10021800F759D8B0D8D7000E3F6E000E12003F50E5
:10022800D8B4A6D23E50D8A444D001D80AD00500EC
:10023800FA6E2E50FD6E2F50FE6EF850FF6EFA507B
:1002480012001EBEF2D71E5003E11D04D8A0EDD740
:1002580001D80BD005000001FA6ED751FD6ED851B8
:10026800FE6EF850FF6EFA501200FF0AD8A421D093
:1002780004EC09F0000E3F6E000E3E6E000E1200F8
:1002880001D80AD00500FA6E3050FD6E3150FE6E6E
:10029800F850FF6EFA5012000001F56F3E50010D44
:1002A800000EF324D96E030EF420DA6EF5C0DFFFDA
:1002B8003E2A01D80AD00500FA6E2E50FD6E2F5046
:1002C800FE6EF850FF6EFA5012001D501E10D8B482
:1002D80004D03E503F5CD8B0D3D73F500001F56FF3
:1002E800F66BFF0E0001F76FFF0E0001F86F3E502E
:1002F8000001F96FFA6B0001F7510001F9270001BD
:10030800F8510001FA230001F5510001F91905E13E
:100318000001F6510001FA19D8A42AD2000E1B6E6A
:10032800030E1C6E3FC01DF0A4EC14F0376EFF0ED8
:100338000001F56FFF0E0001F66F3E500001F76FE8
:10034800F86B0001F5510001F7270001F651000193
:10035800F823000E0001F725D96E030E0001F821DD
:10036800DA6E3750DE18D8A43BD1000E0101446F75
:10037800000E436F5CD0000E01014325D96E030EB9
:1003880001014421DA6E3A50DE5CD8B043D0010E48
:10039800010143250001F56F000E01014421000110
:1003A800F66F000E0001F525D96E030E0001F62147
:1003B800DA6EDF502C6E020E010143250001F56F45
:1003C800000E010144210001F66F000E0001F52521
:1003D800D96E030E0001F621DA6EDF502D6E000E85
:1003E80001014325D96E030E01014421DA6EDF5065
:1003F8000001F56F0001F551020DF3500001D325FE
:10040800D96EF4500001D421DA6E2CC0DEFF2DC065
:10041800DDFF03D00001CD4BCE2B030E0101432598
:100428000101436F000E010144210101446F3F5057
:100438000001F56FF66B0001F5510101435D010103
:100448004451800A0001F76F0001F651800A00014B
:10045800F759D8A090D73650D8B4BCD00101396923
:10046800010E01013A6FFF0E0001F56FFF0E00014A
:10047800F66F3E500001F76FF86B0001F55100016F
:10048800F7270001F6510001F823000E0001F725B7
:10049800D96E030E0001F821DA6EDF5001013B6FBF
:1004A800390E1B6E010E1C6E030E1D6EA4EC14F0AB
:1004B80001013F6F01D80BD00500FA6E3250FD6E76
:1004C8003350FE6EF850FF6EFA50060E120001D837
:1004D8000BD00500FA6E3250FD6E3350FE6EF850A8
:1004E800FF6EFA50850E120001D80BD00500FA6E87
:1004F8003250FD6E3350FE6EF850FF6EFA503C508D
:10050800120001D80BD00500FA6E3250FD6E335040
:10051800FE6EF850FF6EFA503B50120001D80BD017
:100528000500FA6E3250FD6E3350FE6EF850FF6EC5
:10053800FA50030E120001D80BD00500FA6E3250A3
:10054800FD6E3350FE6EF850FF6EFA50FF0E12002B
:1005580001D80BD00500FA6E3250FD6E3350FE6E96
:10056800F850FF6EFA50010E120001D825D0050090
:10057800FA6E3250FD6E3350FE6EF850FF6EFA5030
:10058800FF0E0001F56FFF0E0001F66F3E500001EF
:10059800F76FF86B0001F5510001F7270001F651DC
:1005A8000001F823000E0001F725D96E030E0001A3
:1005B800F821DA6EDF50120001D80CD00500FA6E6F
:1005C8003250FD6E3350FE6EF850FF6EFA50010146
:1005D8003F511200000E3F6E000E3E6E010E1200DB
:1005E8000001CB4BCC2B3650D8B4BCD001013C69B0
:1005F800020E01013D6FFF0E0001F56FFF0E0001B5
:10060800F66F3E500001F76FF86B0001F5510001DD
:10061800F7270001F6510001F823000E0001F72525
:10062800D96E030E0001F821DA6EDF5001013E6F2A
:100638003C0E1B6E010E1C6E030E1D6EA4EC14F016
:100648000101406F01D80BD00500FA6E3250FD6EE3
:100658003350FE6EF850FF6EFA50060E120001D8A5
:100668000BD00500FA6E3250FD6E3350FE6EF85016
:10067800FF6EFA50850E120001D80BD00500FA6EF5
:100688003250FD6E3350FE6EF850FF6EFA503C50FB
:10069800120001D80BD00500FA6E3250FD6E3350AF
:1006A800FE6EF850FF6EFA503B50120001D80BD086
:1006B8000500FA6E3250FD6E3350FE6EF850FF6E34
:1006C800FA50030E120001D80BD00500FA6E325012
:1006D800FD6E3350FE6EF850FF6EFA50FF0E12009A
:1006E80001D80BD00500FA6E3250FD6E3350FE6E05
:1006F800F850FF6EFA50020E120001D825D00500FE
:10070800FA6E3250FD6E3350FE6EF850FF6EFA509E
:10071800FF0E0001F56FFF0E0001F66F3E5000015D
:10072800F76FF86B0001F5510001F7270001F6514A
:100738000001F823000E0001F725D96E030E000111
:10074800F821DA6EDF50120001D80CD00500FA6EDD
:100758003250FD6E3350FE6EF850FF6EFA500101B4
:1007680040511200000E3F6E000E3E6E000E120049
:10077800000E120024BE06D024500FE10C0E235C9C
:10078800D8B00BD023C01BF024C01CF0000E1E6E86
:10079800040E1D6E9EEC12F00CD0F40E23241B6E7A
:1007A800FF0E24201C6E000E1E6E040E1D6E9EECA5
:1007B80012F01BC027F01CC028F0030E2314296E6A
:1007C8002A6A24BE0AD0245004E10C0E235CD8A067
:1007D80004D0040E2926000E2A2225042610D8A4A7
:1007E8007DD029C0EEF0010E0001EF6F000E000170
:1007F800F06F0001EE2B04D0D8900001EF37F037EE
:100808000001EE2FF9D7EFC0F1F0F0C0F2F0000EC2
:100818000001F2BFFF0EF36FF46F600E0001F56F79
:10082800000E0001F66FD8902734D96E2834DA6E9E
:10083800D890D936DA360001F551D9260001F6519B
:10084800DA220001F151DE12F251DE12F351DE120A
:10085800F451DE1229C0EEF0080E0001EE27010E59
:100868000001EF6F000E0001F06F0001EE2B04D0C5
:10087800D8900001EF37F0370001EE2FF9D70001CB
:10088800EF1D0001F16F0001F01D0001F26F000182
:10089800F36B0001F2BFF3070001F3510001F46F9D
:1008A800600E0001F56F000E0001F66FD890273436
:1008B800D96E2834DA6ED890D936DA360001F55177
:1008C800D9260001F651DA220001F151DE16F25163
:1008D800DE16F351DE16F451DE161200020E25184C
:1008E8002610D8A45AD029C0EEF0080E0001EE2731
:1008F800010E0001EF6F000E0001F06F0001EE2BFA
:1009080004D0D8900001EF37F0370001EE2FF9D767
:1009180029C0F1F0010E0001F26F000E0001F36F23
:100928000001F12B04D0D8900001F237F337000111
:10093800F12FF9D70001EF510001F2110001F46F16
:100948000001F0510001F3110001F56F0001F66B91
:100958000001F5BFF6070001F6510001F76F600EC0
:100968000001F86F000E0001F96FD8902734D96E96
:100978002834DA6ED890D936DA360001F851D926FB
:100988000001F951DA220001F451DE12F551DE12AC
:10099800F651DE12F751DE12120025502610D8A4A7
:1009A8006AD029C0EEF0080E0001EE27010E000102
:1009B800EF6F000E0001F06F0001EE2B04D0D8900D
:1009C8000001EF37F0370001EE2FF9D70001EF1DD6
:1009D8000001F16F0001F01D0001F26F29C0F3F072
:1009E800010E0001F46F000E0001F56F0001F32BFA
:1009F80004D0D8900001F437F5370001F32FF9D768
:100A08000001F41D0001F66F0001F51D0001F76FEC
:100A18000001F1510001F6150001F86F0001F251D3
:100A28000001F7150001F96F0001FA6B0001F9BF29
:100A3800FA070001FA510001FB6F600E0001FC6F1C
:100A4800000E0001FD6FD8902734D96E2834DA6E75
:100A5800D890D936DA360001FC51D9260001FD516B
:100A6800DA220001F851DE16F951DE16FA51DE16C7
:100A7800FB51DE161200030E25182610D8A412000A
:100A880029C0EEF0080E0001EE27010E0001EF6FFD
:100A9800000E0001F06F0001EE2B04D0D890000189
:100AA800EF37F0370001EE2FF9D7EFC0F1F0F0C0C3
:100AB800F2F0000E0001F2BFFF0EF36FF46F600E4C
:100AC8000001F56F000E0001F66FD8902734D96E3B
:100AD8002834DA6ED890D936DA360001F551D9269D
:100AE8000001F651DA220001F151DE12F251DE1254
:100AF800F351DE12F451DE1229C0EEF0010E0001AE
:100B0800EF6F000E0001F06F0001EE2B04D0D890BB
:100B18000001EF37F0370001EE2FF9D70001EF1D84
:100B28000001F16F0001F01D0001F26F0001F36B8D
:100B38000001F2BFF3070001F3510001F46F600EEA
:100B48000001F56F000E0001F66FD8902734D96EBA
:100B58002834DA6ED890D936DA360001F551D9261C
:100B68000001F651DA220001F151DE16F251DE16CB
:100B7800F351DE16F451DE16120038D1210422108A
:100B8800D8A40DD0000E1C6E000E1B6E57EC12F090
:100B98008A86000E0001896F010E886F12002150AD
:100BA8002210D8A40DD0000E1C6E000E1B6E57EC40
:100BB80012F08A96000E0001896F000E886F1200ED
:100BC800020E21182210D8A412008A96000E1C6E5C
:100BD800000E1B6E7FEC0FF0000E0001896F020EF5
:100BE800886F120021042210D8A40DD0000E1C6EAC
:100BF800010E1B6E57EC12F08A8A000E00018B6FF3
:100C0800010E8A6F120021502210D8A40DD0000EB8
:100C18001C6E010E1B6E57EC12F08A9A000E000132
:100C28008B6F000E8A6F1200020E21182210D8A4B2
:100C380012008A9A000E1C6E010E1B6E7FEC0FF0DC
:100C4800000E00018B6F020E8A6F12002104221021
:100C5800D8A40DD0000E1C6E020E1B6E57EC12F0BD
:100C68008C82000E00018D6F010E8C6F12002150D6
:100C78002210D8A40DD0000E1C6E020E1B6E57EC6D
:100C880012F08C92000E00018D6F000E8C6F120016
:100C9800020E21182210D8A412008C92000E1C6E8D
:100CA800020E1B6E7FEC0FF0000E00018D6F020E1E
:100CB8008C6F120021042210D8A40DD0000E1C6ED7
:100CC800030E1B6E57EC12F08D84000E00018F6F1F
:100CD800010E8E6F120021502210D8A40DD0000EE4
:100CE8001C6E030E1B6E57EC12F08D94000E000163
:100CF8008F6F000E8E6F1200020E21182210D8A4DA
:100D080012008D94000E1C6E030E1B6E7FEC0FF00C
:100D1800000E00018F6F020E8E6F12002104221048
:100D2800D8A40DD0000E1C6E040E1B6E57EC12F0EA
:100D38008D82000E0001916F010E906F12002150FC
:100D48002210D8A40DD0000E1C6E040E1B6E57EC9A
:100D580012F08D92000E0001916F000E906F12003C
:100D6800020E21182210D8A412008D92000E1C6EBB
:100D7800040E1B6E7FEC0FF0000E0001916F020E47
:100D8800906F120021042210D8A40DD0000E1C6E02
:100D9800050E1B6E57EC12F08D80000E0001936F4C
:100DA800010E926F120021502210D8A40DD0000E0F
:100DB8001C6E050E1B6E57EC12F08D90000E000194
:100DC800936F000E926F1200020E21182210D8A401
:100DD80012008D90000E1C6E050E1B6E7FEC0FF03E
:100DE800000E0001936F020E926F12001FC023F0D5
:100DF80020C024F02450000AD8A412002350000A6E
:100E0800D8B4BCD6010AD8B4EDD6030AD8B41ED7D4
:100E1800010AD8B44FD7070AD8B480D7010AD8A492
:100E28001200B0D79E96C6AE14D1C69E000E386E7C
:100E3800000120EE03F0CF51D926D051DA22DECFBF
:100E480004F0DDCF05F004C0D9FF05C0DAFF010EBC
:100E5800DF6E000E0001CF6F000E0001D06F120090
:100E68000001BCB31200BAC0CFF0BBC0D0F0BAC00A
:100E7800D9FFBBC0DAFFDF50396E000120EE01F068
:100E8800BA51D926BB51DA22DECFD1F0DDCFD2F06C
:100E9800050E0001BA27000EBB23EE0E0001BA1999
:100EA8000BE1000E0001BB19D8A406D0E90E000121
:100EB800BA6F000E0001BB6F0001BC910001B85170
:100EC8000001BA1908E10001B9510001BB19D8A401
:100ED80002D00001BC83C580020E386E1200C582A4
:100EE800020E386E1200C5AC06D00001BE2B040EEF
:100EF8000DEC15F01200D8904130056E4030046EAC
:100F08000450C96E40A003D00B0E386E1200030EB9
:100F1800386E1200C5AC06D00001BE2B040E0DECD5
:100F280015F01200C58240C004F041C005F005C0AC
:100F380004F0056A060E0416000E0516F00E0410DD
:100F4800406E0550416E4080010E346E020E386EC0
:100F580012003404D8B41CD0D1C0D9FFD2C0DAFFF3
:100F6800DECF40F0DDCF41F0000120EE03F0D1519B
:100F7800D926D251DA22DECFBFF0DDCFC0F0000192
:100F880020EE02F0D151D926D251DA22DF50356E47
:100F980040C0C9FF40A003D0050E386E1200030EF2
:100FA800386E1200C5AC07D00001BE2BC59C050EDB
:100FB8000DEC15F0120035063528D8A40FD0050E13
:100FC8000001D127000ED223392E04D0000E0DECDB
:100FD80015F01200C582020E386E1200BFC0D9FF8C
:100FE800C0C0DAFFDF50C96E0001BF4BC02B120032
:100FF800C5AC07D00001BE2B040E0DEC15F0C59C46
:101008001200C586080E386E1200080E386EC586A6
:101018001200BFC0D9FFC0C0DAFFC9CFDFFF00018F
:10102800BF4BC02B010E355ED8B404D0C59A060E4E
:10103800386E03D0C58A9AEC16F0C5881200000EE7
:101048000DEC15F012000001BE2B060E0DEC15F08C
:1010580012003850000AD8B403D7010AD8B43FD7D1
:10106800030AD8B476D7010AD8B49CD7070AD8B4EB
:10107800E6D7010AD8B4BCD7030AD8B4C6D7010A40
:10108800D8B4DDD70F0AD8B4C4D7020AD8B42BD73E
:10109800010AD8B43FD7D7D724C02CF025C02DF0EB
:1010A80020EECCF02150D9262250DA22010EDBBEE8
:1010B80007D0010EDB5003E1C50EDE5CD8B012008C
:1010C80020EEC8F02150D9262250DA22DECF26F0B1
:1010D800DDCF27F026502124D96E27502220DA6E42
:1010E80023C0DFFF20EEC8F02150D9262250DA2293
:1010F800DECF1BF0DDCF1CF0000E1E6EC80E1D6E7D
:10110800E7EC15F020EEC8F02150D9262250DA225B
:101118001BC0DEFF1CC0DDFF20EECCF02150D9261D
:101128002250DA22DE2A000EDD2220EEC8F02150FD
:10113800D9262250DA22DECF26F0DDCF27F026503E
:101148002124D96E27502220DA6E2CC0DFFF20EE32
:10115800C8F02150D9262250DA22DECF1BF0DDCF8D
:101168001CF0000E1E6EC80E1D6EE7EC15F020EE8A
:10117800C8F02150D9262250DA221BC0DEFF1CC03D
:10118800DDFF20EECCF02150D9262250DA22DE2ACB
:10119800000EDD2220EEC8F02150D9262250DA2296
:1011A800DECF26F0DDCF27F026502124D96E275038
:1011B8002220DA6E2DC0DFFF20EEC8F02150D9269C
:1011C8002250DA22DECF1BF0DDCF1CF0000E1E6E9F
:1011D800C80E1D6EE7EC15F020EEC8F02150D92698
:1011E8002250DA221BC0DEFF1CC0DDFF20EECCF04F
:1011F8002150D9262250DA22DE2A000EDD221200E2
:1012080001D80AD00500FA6E2E50FD6E2F50FE6EE2
:10121800F850FF6EFA5012001EBEF2D71E5004E1BD
:10122800040E1D5CD8A0ECD701D80AD00500FA6ED0
:101238003050FD6E3150FE6EF850FF6EFA501200BD
:101248000001F06F01D80AD00500FA6E3050FD6E2B
:101258003150FE6EF850FF6EFA5012000001F16F27
:1012680001D80AD00500FA6E3050FD6E3150FE6E7E
:10127800F850FF6EFA5012000001F26F01D80AD040
:101288000500FA6E3050FD6E3150FE6EF850FF6E5C
:10129800FA5012000001EE6FF00E1B6E000E1C6E6D
:1012A800030E1D6EA4EC14F00001EF6F0001EF5166
:1012B8000001EE19D8A44ED0000E0001F46F000E04
:1012C800F36F0001F4BF08D00001F45147E1050EA7
:1012D8000001F35DD8B01200280E1B6E010E1C6EC3
:1012E800F3C01DF0000E1E6E37EC0EF03C18D8A4AB
:1012F8002DD0280E1B6E010E1C6EF3C01DF0010EC2
:101308001E6E37EC0EF00001F219D8A41FD00001B0
:10131800F105D8A40BD0280E1B6E010E1C6EF3C06D
:101328001DF0010E1E6E14EC0FF01200020E0001EB
:10133800F119D8A40BD0280E1B6E010E1C6EF3C039
:101348001DF0020E1E6E14EC0FF012000001F34B9C
:10135800F42BB7D70001CB4BCC2B12001200F9C0ED
:10136800FBF00001FC6BFD6B0001F8350001FB3759
:1013780001E3FC810001FB5101013E6F01013E5177
:10138800D8A40AD0000E0001F76F000EF86F000E07
:10139800F96F000EFA6F1200170E0001FB6FF7C00D
:1013A800FCF0F8C0FDF0F9C0FEF00001FB290001D7
:1013B800FF6F05D00001D890FE33FD33FC330001E8
:1013C800FF2FF8D70001FC510101396F0001F88F98
:1013D800FF0E0001F717FF0E0001F817000E0001BD
:1013E800F9170001F75101013A6F0001F8510101A5
:1013F8003B6F0001F95101013C6F01013D6B8E0EFD
:1014080001013E5F01013EAF1AD001013E51800A41
:101418008F0FD8B00AD0000E0001F76F000EF86FDA
:10142800000EF96F000EFA6F12000101D8903D33DB
:101438003C333B333A3301013E3FF7D71BD0170EFD
:1014480001013E6512D0000E0001F76F000EF86F23
:10145800000EF96F000EFA6F12000101D8903A37AA
:101468003B373C373D3701013E0701013E51010141
:10147800D8A4F3D7010139510101D8B409D0010129
:101488003D1F3C1F3B1F3A6D000E3B233C233D2371
:101498003AC1F7F03BC1F8F03CC1F9F03DC1FAF0B0
:1014A8001200286ED5C01BF0D6C01CF0CCC21DF0AF
:1014B800A4EC14F0296E01D80BD00500FA6E325056
:1014C800FD6E3350FE6EF850FF6EFA50060E120095
:1014D80001D80BD00500FA6E3250FD6E3350FE6E07
:1014E800F850FF6EFA50850E120001D80BD0050097
:1014F800FA6E3250FD6E3350FE6EF850FF6EFA50A1
:101508002850120001D80BD00500FA6E3250FD6E3B
:101518003350FE6EF850FF6EFA503B50120001D85F
:101528000CD00500FA6E3250FD6E3350FE6EF85046
:10153800FF6EFA500201CC511200000E2B6E000E05
:101548002A6E17D001D813D00500FA6E3250FD6EFE
:101558003350FE6EF850FF6EFA502A500001D52520
:10156800D96E2B500001D621DA6EDF5012002A4ABC
:101578002B2A0201CC512A5C2B50800A276E0201CB
:10158800CD51800A2758D8A0DDD701D80BD0050047
:10159800FA6E3250FD6E3350FE6EF850FF6EFA5000
:1015A80029501200280E1B6E010E1C6E28C01DF05B
:1015B80029C01EF0000E1F6EA8EC0EF0000E236E60
:1015C800020E246E000E266E010E256EC6EC13F078
:1015D800120028C0EEF00001EF6BF06B2734000119
:1015E800EE3701E3EF810001EE510001F16F0001D8
:1015F800F151D8A407D0000E266E000E276E000EFB
:10160800286E12002BC0EEF00001EF6BF06B2A344D
:101618000001EE3701E3EF810001EE510001F66FA2
:101628000001F651D8A407D0000E266E000E276ED2
:10163800000E286E12000001F6517B0F0001F12701
:1016480028C0F6F02B500001F61B800E0001F6179B
:10165800278E2A8EFF0E2916FF0E2A16000E2B162D
:10166800000E0001F26F000E0001F36F000E000182
:10167800F46F070E0001F56F26A009D0295000016C
:10168800F2272A500001F3232B500001F423D890AD
:10169800283227322632D89029362A362B360001AE
:1016A800F52FEAD7090E0001F56F26A009D02950B9
:1016B8000001F2272A500001F3232B500001F423E4
:1016C800D8902832273226320001D890F433F333E9
:1016D800F2330001F52FE9D7F2C01BF0F3C01CF07C
:1016E800F4C01DF0F1C01EF0F6C01FF03BEC10F086
:1016F8001BC026F01CC027F01DC028F012000101F5
:101708004D6F000E0101396F020E0101506F000E7E
:1017180001014F6F000E4E6F27D0390E246E010E57
:10172800256E010E266E4DC127F0286A500E296ECF
:10173800010E2A6E7EEC14F0020E01015019D8B485
:10174800FBD7010150510101D8B412D0640E010138
:101758004E1901014F11D8B40BD001015005D8B46E
:1017680007D001014E4B4F2B01015005D8A4D5D706
:10177800020E0101506F000E0101396F60C03AF18D
:1017880061C03BF164C03CF165C03DF168C03EF109
:1017980069C03FF16CC040F16DC041F170C042F1C9
:1017A80071C043F174C044F175C045F178C046F189
:1017B80079C047F17CC048F17DC049F180C04AF149
:1017C80081C04BF1000E01014F6F000E4E6F27D004
:1017D800390E246E010E256E110E266E4DC127F0AE
:1017E800286A500E296E010E2A6E7EEC14F0020E45
:1017F80001015019D8B4FBD7010150510101D8B4E7
:101808001200640E01014E1901014F11D8B41200E3
:1018180001015005D8B4120001014E4B4F2B0101B4
:101828005005D8B41200D4D720EECCF02150D926D8
:101838002250DA22010EDBBE07D0010EDB503AE15E
:10184800C80EDE5CD8B036D020EEC8F02150D926BC
:101858002250DA22DECF24F0DDCF25F024502124D7
:10186800D96E25502220DA6E23C0DFFF20EEC8F0A3
:101878002150D9262250DA22DECF1BF0DDCF1CF012
:10188800000E1E6EC80E1D6EFCEC15F020EEC8F0A2
:101898002150D9262250DA221BC0DEFF1CC0DDFFF2
:1018A80020EECCF02150D9262250DA22DE2A000E72
:1018B800DD22120020EEC8F02150D9262250DA226B
:1018C800DECF24F0DDCF25F024502124D96E255019
:1018D8002220DA6E23C0DFFF20EEC8F02150D9267F
:1018E8002250DA22DECF1BF0DDCF1CF0000E1E6E78
:1018F800C80E1D6EFCEC15F020EEC8F02150D9265C
:101908002250DA221BC0DEFF1CC0DDFF20EECAF029
:101918002150D9262250DA22DECF1BF0DDCF1CF071
:10192800000E1E6EC80E1D6EFCEC15F020EECAF0FF
:101938002150D9262250DA221BC0DEFF1CC0DDFF51
:10194800120020EECCF00750D9260850DA22010EFA
:10195800DBBE07D0010EDB503AE1C80EDE5CD8B022
:1019680036D020EEC8F00750D9260850DA22DECF4C
:101978000AF0DDCF0BF00A500724D96E0B5008206F
:10198800DA6E09C0DFFF20EEC8F00750D9260850EC
:10199800DA22DECF01F0DDCF02F0000E046EC80EB1
:1019A800036E11EC16F020EEC8F00750D926085047
:1019B800DA2201C0DEFF02C0DDFF20EECCF00750C6
:1019C800D9260850DA22DE2A000EDD22120020EE87
:1019D800C8F00750D9260850DA22DECF0AF0DDCF4A
:1019E8000BF00A500724D96E0B500820DA6E09C094
:1019F800DFFF20EEC8F00750D9260850DA22DECFE4
:101A080001F0DDCF02F0000E046EC80E036E11EC7B
:101A180016F020EEC8F00750D9260850DA2201C087
:101A2800DEFF02C0DDFF20EECAF00750D9260850BD
:101A3800DA22DECF01F0DDCF02F0000E046EC80E10
:101A4800036E11EC16F020EECAF00750D9260850A4
:101A5800DA2201C0DEFF02C0DDFF120068D0B00E3E
:101A68000124D96E000E0220DA6E83AA02D0010E7C
:101A780001D0000EDF6E1200B00E0124D96E000EE8
:101A88000220DA6E81A002D0010E01D0000EDF6EB6
:101A98001200B00E0124D96E000E0220DA6E81A267
:101AA80002D0010E01D0000EDF6E1200B00E01242C
:101AB800D96E000E0220DA6E81A402D0010E01D088
:101AC800000EDF6E1200B00E0124D96E000E022047
:101AD800DA6E81A802D0010E01D0000EDF6E12006E
:101AE800B00E0124D96E000E0220DA6E80A002D05A
:101AF800010E01D0000EDF6E1200B00E0124D96E67
:101B0800000E0220DA6E80A202D0010E01D0000E73
:101B1800DF6E1200B00E0124D96E000E0220DA6EBC
:101B280080A402D0010E01D0000EDF6E120001C0A9
:101B380003F002C004F00450000AD8A412000350B5
:101B4800000AD8B48CD7010AD8B496D7030AD8B4F7
:101B5800A0D7010AD8B4AAD7070AD8B4B4D7010ABB
:101B6800D8B4BED7030AD8B4C8D7010AD8A412007B
:101B7800D1D78EEC13F0F28EF28C000E0101526F69
:101B8800010E516F700EE4EC10F0710EE4EC10F0E1
:101B980089868B9A6AEC15F00001DC5105E1020E8A
:101BA8000001DB5DD8A0F6D7C30E296E750E2A6E2C
:101BB8003E0E2B6ED9C023F0DAC024F04CEC16F0A0
:101BC80023C026F024C027F025C028F0EDEC0AF049
:101BD80026C0F7F027C0F8F028C0F9F0B3EC09F0F8
:101BE800F7C03FF1F8C040F1000E0101426F010E4D
:101BF800416F92EC10F0700E83EC0BF0C30E296E5F
:101C0800750E2A6E3E0E2B6EC9C023F0CAC024F092
:101C18004CEC16F023C026F024C027F025C028F08D
:101C2800EDEC0AF026C0F7F027C0F8F028C0F9F06C
:101C3800B3EC09F0F7C03FF1F8C040F1000E010124
:101C4800426F010E416F92EC10F0710E83EC0BF0B5
:101C580089B602D0898601D08996000E0001DC6F12
:101C6800000EDB6F97D7040E1D6402D0040E1D6EA4
:101C7800020E1E6402D0020E1E6E1D281D6E1D501F
:101C8800030DF3CF25F0F4CF26F020EE0FF01B5014
:101C9800D9261C50DA222550DE5CDE50800A216EDF
:101CA8002650800A2158D8B02AD020EE0FF01B50B9
:101CB800D9261C50DA22DECF1FF0DDCF20F01F1E00
:101CC800201E1F4A202A25501F26265020221F1E6C
:101CD800201E1F4A202A0F0E1F24256E000E2020CA
:101CE800266E1E5025241F6E000E2620206E1F50C3
:101CF8001B24D96E20501C20DA6EDF50120020EE13
:101D08000FF01B50D9261C50DA22DECF1FF0DDCF92
:101D180020F025C021F026C022F0211E221E214AD3
:101D2800222A1E50236E246A215023262250242260
:101D38001F5023262050242223501B24D96E2450C0
:101D48001C20DA6EDF50120020EE0FF01B50D9264F
:101D58001C50DA22DECF20F0DDCF21F020501B24EA
:101D6800D96E21501C20DA6E1DC0DFFF20EE0FF067
:101D78001B50D9261C50DA22DE2A000EDD2220EE66
:101D88000FF01B50D9261C50DA22DECF20F0DDCF11
:101D980021F020501B24D96E21501C20DA6E1EC061
:101DA800DFFF20EE0FF01B50D9261C50DA22DE2A66
:101DB800000EDD2220EE0FF01B50D9261C50DA222F
:101DC800DECF20F0DDCF21F020501B24D96E21502A
:101DD8001C20DA6E1FC0DFFF20EE0FF01B50D92643
:101DE8001C50DA22DE2A000EDD2220EE0FF01B50F6
:101DF800D9261C50DA22010EDBBE1200010EDB5080
:101E080004E10F0EDE5CD8A0120020EE0FF01B508C
:101E1800D9261C50DA22000EDE6E000EDD6E12008E
:101E2800040E1D6402D0040E1D6E1D281D6E1D506B
:101E3800030DF3CF23F0F4CF24F020EE0FF01B5066
:101E4800D9261C50DA222350DE5CDE50800A216E2F
:101E58002450800A2158D8B02BD020EE0FF01B5008
:101E6800D9261C50DA22DECF1FF0DDCF20F01F1E4E
:101E7800201E1F4A202A23501F26245020221F1EBE
:101E8800201E1F4A202A0F0E1F24236E000E20201A
:101E9800246E020E23241F6E000E2420206E1F5075
:101EA8001B24D96E20501C20DA6E1EC0DFFF1200E2
:101EB80020EE0FF01B50D9261C50DA22DECF1FF07F
:101EC800DDCF20F023C021F024C022F0211E221EE5
:101ED800214A222A1F50212620502222020E212682
:101EE800000E222221501B24D96E22501C20DA6EAB
:101EF8001EC0DFFF120042D0000E0001996F010ED4
:101F0800986F000E0001A56F000EA46F1200000E5E
:101F180000019B6F010E9A6F000E0001A76F000E63
:101F2800A66F1200000E00019D6F010E9C6F000E3F
:101F38000001A96F000EA86F1200000E00019F6F2C
:101F4800010E9E6F000E0001AB6F000EAA6F12000B
:101F5800000E0001A16F010EA06F000E0001AD6F11
:101F6800000EAC6F1200000E0001A36F010EA26FED
:101F7800000E0001AF6F000EAE6F12001BC01DF007
:101F88001CC01EF01E50000AD8A412001D50000AE2
:101F9800D8B4B2D7010AD8B4BAD7030AD8B4C2D7CA
:101FA800010AD8B4CAD7070AD8B4D2D7010AD8A424
:101FB8001200D9D7206E0001BCB146D01DC0D9FF90
:101FC8001EC0DAFF020EDF6E000120EE01F0B851EC
:101FD800D926B951DA221BC0DEFF1CC0DDFFB8C00C
:101FE800D9FFB9C0DAFF20C0DFFF000120EE03F0FF
:101FF800B851D926B951DA221DC0DEFF1EC0DDFF57
:10200800050E0001B827000EB923EE0E0001B8191D
:102018000BE1000E0001B919D8A406D0E90E0001A1
:10202800B86F000E0001B96F0001BC930001B851F0
:102038000001BA190FE10001B9510001BB19D8A478
:1020480009D00001BC8106D01DC0D9FF1EC0DAFF2F
:10205800010EDF6E1DC0D9FF1EC0DAFF020EDE18AA
:10206800D8A412003850D8A4FDD79E8612001E505E
:10207800D8B405D01B501C101D10D8A40CD0000ECD
:102088001B6E000E1C6E000E1D6E12001E2AD890CC
:102098001D321C321B32000E1B14206E000E1C1445
:1020A800216EFE0E1D14226E205021102210D8B46D
:1020B8000CD0ECD71E2A010E1B26000E1C22000E87
:1020C8001D22D8901D321C321B32000E1B14206EAC
:1020D800000E1C14216EFF0E1D14226E20502110BC
:1020E8002210D8B406D0E6D71E06D8901B361C3668
:1020F8001D361CBE03D0020E1E60F6D71EA01C9E05
:10210800D8901E321E501D121F50D8A41D8E1BC001
:102118001BF01CC01CF01DC01DF01200010140BFC7
:102128000DD00101405105E1190E01013F5DD8A014
:1021380005D0000E0101406F180E3F6F010140AF3E
:1021480005D0000E0101406F000E3F6F000E010127
:10215800456F000E446F010145BF08D0010145518C
:102168002EE1180E0101445DD8B0120001013F5163
:102178000101445D01014551800A0101436F0101DC
:102188004051800A01014359D8B00BD044C123F013
:1021980045C124F041C125F042C126F0BEEC03F050
:1021A8000AD044C123F045C124F0000E266E000E6B
:1021B800256EBEEC03F00101444B452BCCD7120031
:1021C8000001FB6F210E0001F66F020E0001FC6F8B
:1021D800000E0001FA6F000EF96F27D0F60E246E7C
:1021E800000E256E010E266EFBC027F0286AFC0E35
:1021F800296E000E2A6E7EEC14F0020E0001FC1906
:10220800D8B4FBD70001FC510001D8B412D0640E39
:102218000001F9190001FA11D8B40BD00001FC052E
:10222800D8B407D00001F94BFA2B0001FC05D8A45B
:10223800D5D7000E0001EF6F000EEE6FFBC0F0F077
:1022480030EC11F0000E0001EF6F0F0EEE6FFBC0C7
:10225800F0F07BEC11F012000001EFBF0DD000018F
:10226800EF5105E1040E0001EE5DD8A005D0000E87
:102278000001EF6F000EEE6F0001EE51EE258109AF
:102288000001F16F020E0001F56F000E0001F46FFE
:10229800000EF36F27D0F10E246E000E256E010E8E
:1022A800266EF0C027F0286AF50E296E000E2A6EF9
:1022B8007EEC14F0020E0001F519D8B4FBD700012A
:1022C800F5510001D8B41200640E0001F3190001A1
:1022D800F411D8B412000001F505D8B412000001B9
:1022E800F34BF42B0001F505D8B41200D4D7000144
:1022F800EFBF0DD00001EF5105E1100E0001EE5DBA
:10230800D8A005D0000E0001EF6F0F0EEE6F000190
:10231800EE51E0090001F16F020E0001F56F000EA9
:102328000001F46F000EF36F27D0F10E246E000E3B
:10233800256E010E266EF0C027F0286AF50E296E6C
:10234800000E2A6E7EEC14F0020E0001F519D8B4C6
:10235800FBD70001F5510001D8B41200640E00014A
:10236800F3190001F411D8B412000001F505D8B42E
:1023780012000001F34BF42B0001F505D8B412004C
:10238800D4D720EECCF02150D9262250DA22010EE3
:10239800DBBE3CD0010EDB5003E1DE04D8A036D012
:1023A80020EECAF02150D9262250DA22DECF23F0BF
:1023B800DDCF24F023502124D96E24502220DA6E58
:1023C800DF50256E20EECAF02150D9262250DA229D
:1023D800DECF1BF0DDCF1CF0000E1E6EC80E1D6E8A
:1023E800FCEC15F020EECAF02150D9262250DA2252
:1023F8001BC0DEFF1CC0DDFF20EECCF02150D9262B
:102408002250DA22DE06000EDD5A02D0000E256EBA
:102418002550120020EECCF00750D9260850DA22B9
:10242800010EDBBE3CD0010EDB5003E1DE04D8A078
:1024380036D020EECAF00750D9260850DA22DECF6F
:1024480009F0DDCF0AF009500724D96E0A50082098
:10245800DA6EDF500B6E20EECAF00750D92608500E
:10246800DA22DECF01F0DDCF02F0000E046EC80ED6
:10247800036E11EC16F020EECAF00750D92608506A
:10248800DA2201C0DEFF02C0DDFF20EECCF00750EB
:10249800D9260850DA22DE06000EDD5A02D0000ED8
:1024A8000B6E0B5012002AD0000E0001996F000E1F
:1024B800986F8A961200000E00019B6F000E9A6FAB
:1024C8008A9A1200000E00019D6F000E9C6F8C927C
:1024D8001200000E00019F6F000E9E6F8D94120077
:1024E800000E0001A16F000EA06F8D921200000E69
:1024F8000001A36F000EA26F8D9012001BC01DF08B
:102508001CC01EF01E50000AD8A412001D50000A5C
:10251800D8B4CAD7010AD8B4CED7030AD8B4D2D708
:10252800010AD8B4D6D7070AD8B4DAD7010AD8A48A
:102538001200DDD7000E206E1EAE06D01D6C1E1ECA
:10254800D8B01E2A010E206E1CAE06D01B6C1C1EB5
:10255800D8B01C2A010E201A000E226E000E216E21
:102568001D501E10D8B41CD0010E1F6E04D0D89078
:102578001D361E361F2A1EAEFAD7D89021362236AF
:102588001D501B5C1E501C58D8A005D01D501B5E4A
:102598001E501C5A2180D8901E321D321F2EEDD796
:1025A8002050D8B404D0216C221ED8B0222A21C0D1
:1025B8001BF022C01CF012000001DD51251805E1B6
:1025C8000001DE512618D8B41200000E2B6E000E42
:1025D8002A6E000E2B6E000E2A6E2BBE06D02B50D4
:1025E80022E1060E2A5CD8B01ED02AC01FF02BC0EC
:1025F80020F02AC027F025C028F026C029F0272A75
:1026080003D0293429322832272EFBD7010E28146B
:10261800216E226AC1EC05F02A4A2B2A2BBEE5D787
:102628002B5001E1DED725C0DDF026C0DEF0120018
:1026380005EE00F0CE0EEE6AE806FDE104EE00F0CD
:10264800CE0EEE6AE806FDE103EE00F0C80EEE6A73
:10265800E806FDE102EE00F0CE0EEE6AE806FDE1C6
:1026680001EE00F0390EEE6AE806FDE100EE60F0DA
:102678008E0EEE6AE806FDE100EE2CF0160EEE6A0C
:10268800E806FDE1000EF66E2E0EF76E000EF86EEF
:102698000900F5CF44F045904592000EF86E000110
:1026A800BDEF0DF0000E276E000E266E000E296E8F
:1026B800000E286E000E296E000E286E29BE06D068
:1026C800295023E1080E285CD8B01FD028C023F079
:1026D80028C01BF029C01CF026EC16F0010B246E54
:1026E800256A232A03D0D89024362536232EFBD7F3
:1026F80026502410266E27502510276E284A292A8E
:1027080029BEE4D7295001E1DDD726C021F027C032
:1027180022F01200F3EC16F056EC14F0DDEC16F093
:10272800A7EC16F06DEC16F04CEC15F0000E00015D
:10273800EE6F010E0001EF6F280E0001F06F030E1F
:102748000001F16F000E0001F26F740E0001F36FCB
:102758002B0E0001F46FD80E0001F56F2D0E00014D
:10276800F66F660E0001F76F2D0E0001F86FCA0EA6
:102778000001F96F2D0E0001FA6F27EC14F02EEC12
:1027880015F0120020EECCF02350D9262450DA227E
:10279800000EDE6E000EDD6E20EEC8F02350D92646
:1027A8002450DA22000EDE6E000EDD6E20EECAF036
:1027B8002350D9262450DA22000EDE6E000EDD6E7C
:1027C80025502610D8B4120023C01BF024C01CF0DA
:1027D800000E1E6E000E1D6E000E206EC80E1F6EBF
:1027E800D1EC15F012004350D76E42C0D6FF000E50
:1027F800066E000E056E06BE06D006500DE1080EE8
:10280800055CD8B009D005C001F006C002F032EC72
:102818000DF0054A062AEFD70001DB4BDC2B00013F
:10282800C14BC22B0001C25105E1050E0001C15D7B
:10283800D8A007D0FEEC16F0000E0001C26F000E03
:10284800C16FF2941200EEC0D3F0EFC0D4F0F1C023
:102858003BF0F3C032F0F4C033F0F7C02EF0F8C00C
:102868002FF0F9C0D7F0FAC0D8F0F5C030F0F6C0B4
:1028780031F0F0C01BF01C6A000E1E6E020E1D6EB9
:102888009EEC12F01B503A6E000E0001D56F020E3E
:102898000001D66FF2C036F0000E0001C86F000EBE
:1028A800C76F1200000E896EF70E926E200E0F0190
:1028B800386F000E8A6ED70E936E000E0F01396FB7
:1028C800000E616E180E8B6EDF0E946E040E0F01F3
:1028D8003A6F000E8C6EFD0E956EDD0E0F013B6F8C
:1028E800000E8D6E000E966E000E0F013C6F949ACE
:1028F800F18E12000001BCB11CD0E40E1B6E000E5C
:102908001C6E24C01DF025C01EF026C01FF027C075
:1029180020F028C021F0EBEC14F0E40E1B6E000E42
:102928001C6E29C01DF02AC01EF0010EDEEC0FF04F
:10293800120029C0D9FF2AC0DAFF010EDF6E12008B
:10294800000E216E1CD01BC0D9FF1CC0DAFFDF505F
:102958001F6E1B4A1C2A080E206E0ED021501F180D
:10296800010B1E6ED89021321E50D8B402D08C0EA6
:10297800211AD8901F3220062050D8A4EFD71D0660
:102988001D28D8A4E0D7215012008B8A000E2B6E88
:10299800030E2A6E000E5EEC16F056EC13F021C002
:1029A8002AF022C02BF0080E5EEC16F0000E1C6E0A
:1029B800090E1B6E87EC15F0010E55EC0AF0000E9F
:1029C8001C6E030E1B6E87EC15F08B9A120020C04C
:1029D80022F021C023F0D890223623361BC0D9FF1D
:1029E8001CC0DAFF22C0DEFF23C0DDFF20EE02F0AC
:1029F8001B50D9261C50DA221FC0DFFF20EE03F03F
:102A08001B50D9261C50DA221DC0DEFF1EC0DDFF78
:102A18001200036EC584000120EE03F0CF51D926C1
:102A2800D051DA22DE50DE10D8B411D0000120EEE9
:102A380003F0CF51D926D051DA22DECF01F0DDCF15
:102A480002F001C0D9FF02C0DAFF03C0DFFF000EA9
:102A5800386E1200E90E0001BA6F000E0001BB6F5C
:102A6800E90E0001B86F000E0001B96F0001BC83C8
:102A78000001BC91000E0001BE6F800EC76E280ECB
:102A8800C66E000ECB6E090EC86E9E969D8612000D
:102A98009D9A9D98480EB86E980EAB6E260EAC6E39
:102AA800670EAF6E000EB06E000EAD6E000EAE6E0D
:102AB800000E236E040E246E7CEC16F0000E236EBE
:102AC800050E246E7CEC16F09D8A120064EC00F072
:102AD8000009D8B41200C9EC14F004C125F005C1EE
:102AE80026F0E0EC12F006C11BF007C11CF008C18B
:102AF8001DF009C11EF0D4EC16F0000E0101016FA3
:102B0800000E006F1200000E1F6E000E1E6E0AD01F
:102B1800060E1D6E300EE82EFED71D2EFCD700D0F7
:102B28001E4A1F2A1B501E5C1F50800A1D6E1C5017
:102B3800800A1D58D8B01200EBD7000E016E050EA2
:102B4800026EC9EC16F002BE0DD0025003E101047A
:102B5800D8A008D0000E076E050E086E0EEC12F015
:102B6800AD6E1200010E446E9D981200266E000E86
:102B7800216E050E226E26C023F018EC0CF04404DA
:102B8800D8A41200000E446E000E216E050E226EAF
:102B9800C5EC11F0AD6E9D8812001BC021F01CC061
:102BA80022F008D021C0D9FF22C0DAFF1DC0DFFF04
:102BB800214A222A1F06D8A020061F28F3E1202830
:102BC800D8B41200EFD7010E1B241F6E000E1C2074
:102BD800206E1D501F5C1E502058D8A004D0000E37
:102BE800206E000E1F6E1FC01BF020C01CF01200CC
:102BF800010E1B241F6E000E1C20206E1D501F5C32
:102C08001E502058D8A004D0000E206E000E1F6E53
:102C18001FC01BF020C01CF01200010E0124056E1D
:102C2800000E0220066E0350055C04500658D8A01A
:102C380004D0000E066E000E056E05C001F006C039
:102C480002F01200FF0E1D6EFF0E1E6E1BC01FF05D
:102C58001CC020F01D501F261E502022B00E1F241D
:102C6800D96E000E2020DA6EDF50120020EECAF076
:102C78001B50D9261C50DA22DECF1DF0DDCF1EF006
:102C88001D501B24D96E1E501C20DA6EDF50120016
:102C980023C01BF024C01CF01D6A8E0E1E6E000E91
:102CA8001F6E3BEC10F01BC023F01CC024F01DC0AD
:102CB80025F012000001EE6F000E216E020E226E4A
:102CC800EEC023F02AC024F02BC025F050EC08F009
:102CD8001200940ED56ECF0ED76E2C0ED66ECF0E78
:102CE800436E2C0E426EF294F28AFAEC16F0120041
:102CF80023C01BF024C01CF0000E1E6E000E1D6EBB
:102D0800000E206ECE0E1F6ED1EC15F01200ABA295
:102D180002D0AB98AB88AECF0CF0000E076E040E55
:102D2800086E0CC009F0A5EC0CF01200050E0001AD
:102D3800D127000ED223392E03D0040E386E12008C
:102D4800010E386E1200010EC26E800EC16E050EA5
:102D5800C06E000EC36E000EC46E9D8C1200000E75
:102D68001B6E040E1C6EBEEC16F01BC01DF01CC0C2
:102D78001EF0120020EECCF01B50D9261C50DA228F
:102D8800DECF1BF0DDCF1CF0120020EECCF001509E
:102D9800D9260250DA22DECF01F0DDCF02F0120090
:102DA8001BC0D9F01CC0DAF01DC0C9F01EC0CAF0A3
:102DB8001200D09E9F9A9F98F1949F9C9F96A296EE
:102DC8001200000E1B6E040E1C6E3AEC16F0120078
:102DD800000E216E040E226EC5EC11F01200720E68
:102DE800D36E040ED26E000E9B6E1200D58E1200AA
:0A2DF8009E9C120012001200010060
:020000040020DA
:08000000FFFFFFFFFFFFFFFF00
:020000040030CA
:0E000000FF081F3CFFBF81FF0FC00FE00F4045
:00000001FF
