:020000040000fa
:080000000002040000000000f2
:020000040000fa
:040008009004000060
:020000040000fa
:04000c00900400005c
:020000040000fa
:040010009004000058
:020000040000fa
:040014009004000054
:020000040000fa
:040018009004000050
:020000040000fa
:04001c00900400004c
:020000040000fa
:040020009004000048
:020000040000fa
:040024009004000044
:020000040000fa
:040028009004000040
:020000040000fa
:04002c00900400003c
:020000040000fa
:040030009004000038
:020000040000fa
:04003400b80200000e
:020000040000fa
:040038009004000030
:020000040000fa
:04003c00900400002c
:020000040000fa
:040040009004000028
:020000040000fa
:04004400d0020000e6
:020000040000fa
:04004800f4020000be
:020000040000fa
:04004c00900400001c
:020000040000fa
:040050009004000018
:020000040000fa
:04005400ca390000a5
:020000040000fa
:04005800263a000044
:020000040000fa
:04005c00900400000c
:020000040000fa
:040060009004000008
:020000040000fa
:040064009004000004
:020000040000fa
:040068009004000000
:020000040000fa
:04006c0090040000fc
:020000040000fa
:0400700090040000f8
:020000040000fa
:0400740090040000f4
:020000040000fa
:0400780090040000f0
:020000040000fa
:04007c0090040000ec
:020000040000fa
:0400800090040000e8
:020000040000fa
:0400840090040000e4
:020000040000fa
:0400880090040000e0
:020000040000fa
:04008c0090040000dc
:020000040000fa
:0400900090040000d8
:020000040000fa
:0400940090040000d4
:020000040000fa
:0400980090040000d0
:020000040000fa
:04009c0090040000cc
:020000040000fa
:0400a00090040000c8
:020000040000fa
:0400a40090040000c4
:020000040000fa
:0400a80090040000c0
:020000040000fa
:0400ac0090040000bc
:020000040000fa
:0400b00090040000b8
:020000040000fa
:0400b40090040000b4
:020000040000fa
:0400b80090040000b0
:020000040000fa
:0400bc0090040000ac
:020000040000fa
:0400c00090040000a8
:020000040000fa
:0400c40090040000a4
:020000040000fa
:0400c80090040000a0
:020000040000fa
:0400cc00900400009c
:020000040000fa
:0400d0009004000098
:020000040000fa
:0400d4009004000094
:020000040000fa
:0400d8009004000090
:020000040000fa
:0400dc00900400008c
:020000040000fa
:0400e0009004000088
:020000040000fa
:0400e4009004000084
:020000040000fa
:0400e8009004000080
:020000040000fa
:0400ec00900400007c
:020000040000fa
:0400f0009004000078
:020000040000fa
:0400f4009004000074
:020000040000fa
:0400f8009004000070
:020000040000fa
:0400fc00900400006c
:020000040000fa
:040100009004000067
:020000040000fa
:040104009004000063
:020000040000fa
:04010800900400005f
:020000040000fa
:04010c00900400005b
:020000040000fa
:040110009004000057
:020000040000fa
:040114009004000053
:020000040000fa
:04011800900400004f
:020000040000fa
:04011c00900400004b
:020000040000fa
:040120009004000047
:020000040000fa
:040124009004000043
:020000040000fa
:04012800900400003f
:020000040000fa
:04012c00900400003b
:020000040000fa
:040130009004000037
:020000040000fa
:040134009004000033
:020000040000fa
:04013800900400002f
:020000040000fa
:04013c00900400002b
:020000040000fa
:040140009004000027
:020000040000fa
:040144009004000023
:020000040000fa
:04014800900400001f
:020000040000fa
:04014c00900400001b
:020000040000fa
:040150009004000017
:020000040000fa
:040154009004000013
:020000040000fa
:04015800900400000f
:020000040000fa
:04015c00900400000b
:020000040000fa
:040160009004000007
:020000040000fa
:040164009004000003
:020000040000fa
:04020800900400005e
:020000040000fa
:04020c00900400005a
:020000040000fa
:040210009004000056
:020000040000fa
:040214009004000052
:020000040000fa
:04021800900400004e
:020000040000fa
:04021c00900400004a
:020000040000fa
:040220009004000046
:020000040000fa
:040224009004000042
:020000040000fa
:04022800900400003e
:020000040000fa
:04022c00900400003a
:020000040000fa
:040230009004000036
:020000040000fa
:040234009004000032
:020000040000fa
:04023800900400002e
:020000040000fa
:04023c00900400002a
:020000040000fa
:040240009004000026
:020000040000fa
:040244009004000022
:020000040000fa
:04024800900400001e
:020000040000fa
:04024c00900400001a
:020000040000fa
:040250009004000016
:020000040000fa
:040254009004000012
:020000040000fa
:04025800900400000e
:020000040000fa
:04025c00900400000a
:020000040000fa
:040260009004000006
:020000040000fa
:040264009004000002
:020000040000fa
:0402680090040000fe
:020000040000fa
:04026c0090040000fa
:020000040000fa
:0402700090040000f6
:020000040000fa
:0402740090040000f2
:020000040000fa
:0402780090040000ee
:020000040000fa
:04027c0090040000ea
:020000040000fa
:0402800090040000e6
:020000040000fa
:0402840090040000e2
:020000040000fa
:0402880090040000de
:020000040000fa
:04028c0090040000da
:020000040000fa
:0402900090040000d6
:020000040000fa
:0402940090040000d2
:020000040000fa
:0402980090040000ce
:020000040000fa
:04029c0090040000ca
:020000040000fa
:0402a00090040000c6
:020000040000fa
:0402a40090040000c2
:020000040000fa
:0402a80090040000be
:020000040000fa
:0402ac0090040000ba
:020000040000fa
:0402b00090040000b6
:020000040000fa
:0402b40090040000b2
:020000040000fa
:0402b80090040000ae
:020000040000fa
:0402bc0090040000aa
:020000040000fa
:0402c00090040000a6
:020000040000fa
:0402c40090040000a2
:020000040000fa
:0402c800900400009e
:020000040000fa
:0402cc00900400009a
:020000040000fa
:0402d0009004000096
:020000040000fa
:0402d4009004000092
:020000040000fa
:0402d800900400008e
:020000040000fa
:0402dc00900400008a
:020000040000fa
:0402e0009004000086
:020000040000fa
:0402e4009004000082
:020000040000fa
:0402e800900400007e
:020000040000fa
:0402ec00900400007a
:020000040000fa
:0402f0009004000076
:020000040000fa
:0402f4009004000072
:020000040000fa
:0402f800900400006e
:020000040000fa
:0402fc00900400006a
:020000040000fa
:040300009004000065
:020000040000fa
:040304009004000061
:020000040000fa
:04030800900400005d
:020000040000fa
:04030c009004000059
:020000040000fa
:040310009004000055
:020000040000fa
:040314009004000051
:020000040000fa
:04031800900400004d
:020000040000fa
:04031c009004000049
:020000040000fa
:040320009004000045
:020000040000fa
:040324009004000041
:020000040000fa
:04032800900400003d
:020000040000fa
:04032c009004000039
:020000040000fa
:040330009004000035
:020000040000fa
:040334009004000031
:020000040000fa
:04033800900400002d
:020000040000fa
:04033c009004000029
:020000040000fa
:040340009004000025
:020000040000fa
:040344009004000021
:020000040000fa
:04034800900400001d
:020000040000fa
:04034c009004000019
:020000040000fa
:040350009004000015
:020000040000fa
:040354009004000011
:020000040000fa
:04035800900400000d
:020000040000fa
:04035c009004000009
:020000040000fa
:040360009004000005
:020000040000fa
:040364009004000001
:020000040000fa
:100400002f7321000e7f24000e01880000000000e1
:10041000000020000000e000020032000001200087
:10042000200288000c000700e0d823000100200013
:1004300011000700000020000000e0000200320070
:100440000000020000000000ba42020000000000ac
:100450000040da000000fe004440a9008041200076
:100460000000e0000300320000002000a00188002e
:100470004440a80000000600910188008000780038
:100480000000eb0015003700e280400032a0b4000d
:100490009101ba00e280400032a0b4009102ba009b
:1004a000e280400032a0b4000002eb00472bde00e7
:1004b000f507b200602ce10004003a000059eb009f
:1004c0008301e900fdff3e00040037006128e100e0
:1004d000010032000082eb000b00070011c3ba00dc
:1004e0001101ba000604e00003003a000200e00037
:1004f000e5ff3a0000000600f607b200960188000a
:1005000082007800f5ff37003159ba008301e90015
:100510000c0032002159ba008301e90008003200c2
:100520000400e00003003a00e280400032a0b40082
:10053000f5ff370011d9ba008301e900faff3a004c
:100540008100e800e180400032a0b4000000060015
:100550008e390400000000009839040000000000fb
:10056000a239040000000000ac39040000000000c3
:10057000809fbe000000fa002040800031408000d3
:1005800061004000e0804800204088003140880041
:100590008460a9000080fa004f00be000040060001
:1005a0003600f800809fbe00829fbe00849fbe0080
:1005b000869fbe000000fa0020408000314080008d
:1005c000000078007511070084e0a9000080fa009f
:1005d0004f03be004f02be004f01be004f00be00e1
:1005e0003600f900004006000000fa0084e0a9008f
:1005f0000080fa00004006000000fa0005e1a900b2
:100600000421a900200880000040a1000050a000a3
:10061000200888000021ef00c02b2000100888006f
:100620008460a9009460a80005e1a8000080fa0099
:10063000000006000000fa001061a90011e1a90005
:100640001021a90010c1a900800880000040a0006e
:100650000050a000800888000621ef000080eb0019
:100660006008880084e0a90094e0a80011e1a800d7
:100670000080fa00000006000000fa0013e1a90063
:100680001221a90012c1a900900880000040a0001a
:100690000050a000900888000a21ef000080eb00c5
:1006a000700888008500a9009500a80013e1a80043
:1006b0000080fa00000006000000fa0022408000de
:1006c00033408000a0408000b14080000001510014
:1006d000818159006040800071408000020040002c
:1006e000838048006040880071408800204080007e
:1006f00031408000a0408800b14088002240800046
:1007000033408000e0408000f14080000001510053
:1007100081815900004080001140800002004000ab
:1007200083804800004088001140880020408000fd
:1007300031408000e0408800f14088002240800085
:1007400033408000c0408000d14080000001510053
:10075000818159008040800091408000020040006b
:1007600083804800804088009140880020408000bd
:1007700031408000c0408800d14088002240800085
:100780003340800000418000114180000001510091
:1007900081815900404080005140800002004000ab
:1007a00083804800404088005140880020408000fd
:1007b0003140800000418800114188000080fa002b
:1007c000000006000200fa00004f78001e4078008a
:1007d000e14f500004003a0060408000714080000a
:1007e00000007800160037001e407800e24f5000ed
:1007f00004003a00004080001140800000007800b2
:100800000f0037001e407800e34f500004003a000c
:100810008040800091408000000078000800370090
:100820001e407800e44f500004003a004040800031
:100830005140800000007800010037000080eb008c
:100840000080fa00000006000400fa00004f780063
:10085000110798001e407800e14f500005003a0053
:100860001e009000cf80de0060408800714088004c
:10087000170037001e407800e24f500005003a0094
:100880001e009000cf80de000040880011408800ec
:100890000f0037001e407800e34f500005003a007b
:1008a0001e009000cf80de008040880091408800cc
:1008b000070037001e407800e44f500004003a0063
:1008c0001e009000cf80de0040408800514088002c
:1008d0000080fa00000006000200fa00000f780015
:1008e0001e007800cf80de008040880091408800a4
:1008f0000080fa00000006000000fa00404380007b
:100900000000e00002003200ca62a800ca62a9002a
:1009100040438000204188006828ef00ffff370037
:100920000040da000000fe000a00fa00e20f50006a
:1009300020003e00d0a98000e10f500006003200e8
:1009400080232000452320002323200004232000af
:100950000000e00004003a00802220004522200030
:100960002322200004222000060028001403630034
:1009700003003a000608780000002800140a7000fe
:1009800013a8a30001003a0013a0a0000200780001
:10099000050037001388a300feff32003102fb0080
:1009a000840a78000000e9000000e000f9ff3a0046
:1009b0000800370033002000b3bf9f00c0bf9f0076
:1009c000d1bf9f00e2bf9f006a805700410307002c
:1009d0006fb99700020078000080fa00000006005e
:1009e000889fbe0080047800e0a980000000e0003d
:1009f00004003a000e0007000084eb000000e00055
:100a000008003500e8a980000900e0000500320078
:100a100009004400060007000000e00001003d005e
:100a20000084eb00080078004f04be0000000600c0
:100a3000800078000100e00003003a00e05321004c
:100a4000e0a98800000005000080eb00227321006f
:100a5000828f500002003e00e1a988000000eb00f8
:100a60000000060003f0a200889fbe008a9fbe001f
:100a70008c1f7800fe000700050133006450e10080
:100a80004f0032006420e1005200320003826c000b
:100a900007003b000905d0000306d000820f540078
:100aa0000c065d0002003900020032008901780066
:100ab000030678008582550004003d000003fd0018
:100ac0008103fd008502ea008b854200840f7200dd
:100ad00002003b0060001000e08018006011b800c8
:100ae0000005eb007a28e1000a00390006007800d2
:100af000c75ddd00f707b200878075002d00370065
:100b0000828171000a017800610560008180d10056
:100b10000080d3008502e900f9ff3b000604400095
:100b20008784480002003b0060041400e0841c003d
:100b30000988a300070032008a8171008281710058
:100b4000610164008904d1000884d3008b05e800aa
:100b5000170037000978a30013003a000b00e000eb
:100b6000130034008b05e9000804440089844c001c
:100b70000a4474000978a3000d003a000b00e0005d
:100b8000070034008b05e9000804440089844c0008
:100b900001003a000b0020000978a300f7ff3200a3
:100ba0000001eb0002003700828171000a01780029
:100bb000740007000cf0a70001f0a000bd00370092
:100bc0006420e10002003a00838f6c00bd00330016
:100bd0000801be000200be00b6003700889fbe00bc
:100be0008a9fbe008c1f7800a1000700a800330078
:100bf00003866c006450e1002e0032006420e100a6
:100c0000330032006150e1002f0032006120e1002a
:100c10003100320085855500eb07b0000900200047
:100c200008042000050037000804440089844c00b3
:100c30000a0031000603430087834b000001530084
:100c400081815b00f8ff33000203be000800a000b2
:100c50000804440089844c00f6ff3900c639dd00e1
:100c60008301730001003200130020008904d100c9
:100c70000884d3000998a300050032000800a700eb
:100c80000300a0008904d1000884d3008b05e8008c
:100c90008904d1000884d3000001eb000281d20056
:100ca0003800070001f0a1000cf0a70001f0a0003f
:100cb000800037006420e100820032000801be009d
:100cc0000200be00f7ff37006120e1007d00320026
:100cd0006000b800f3ff37000000200001f8270093
:100ce000f0ff370014002000ad003700f4ff2f00a4
:100cf000ab0037000001be00480007000470a700e9
:100d000003f0a1006509b100160032000d003500a6
:100d10006828e10006003500f0ff2f00f1ff2700f2
:100d20000300e00013003b00010028000000050064
:100d300000004000818048008502e900fcff3a0085
:100d400008003700f88f420002003c008000eb00f2
:100d5000000005008100d1000080d3008502e8007a
:100d6000fcff3a000300e00002003b0060001000be
:100d7000e0801800000006004f89de008201780044
:100d8000a200370081002000618055000b003d006b
:100d90000b00200061fe2f000100e1001d00340067
:100da00082817100610164008904d1000884d3004c
:100db0000000e800faff3a007100200061006400c2
:100dc000030070000200600009003200610444006a
:100dd000e0844c000988a500050032008b05e8007e
:100de0006808e10002003a008904d1000884d300b9
:100df000f20f20000258e10005003d00c75ddd0054
:100e0000f907b2008980750008007800000006002c
:100e10000bf827008b00780000000500c70ade00f1
:100e2000f107b200f50fb20008003200e1cf420036
:100e3000020032000170a00024000500810f700044
:100e4000010032000408050044000500810f700015
:100e500002003a00140005008502e900000040008d
:100e600081c04800fcff3b000170a0002400050089
:100e70000004be00e9ff07000003be000405be0039
:100e80000200be00e5ff0700844f75000000060069
:100e90000200be006450e100050036006420e1005d
:100ea000020036000968a30001003a000800be00f5
:100eb0000160a0004f0678004f05be004f04be0041
:100ec00000000600f0ff2f00f1ff2700f9ff3700b8
:100ed000889fbe008a9fbe008c1f7800e4ff070039
:100ee000ebff330003866c006450e1002400320005
:100ef0006420e100270032006150e100220032004e
:100f00006120e100210032008b854200eb07b10037
:100f10000134b800003ab8000804420089844a004d
:100f2000013ab8000030b8008880400009014a004a
:100f300004003300000040008180480002014900a5
:100f40008b05e900c909dd00830170000100320052
:100f500013002000c814de004814dd004709de003d
:100f60001200b200c808de000884700085ff070088
:100f700001f0a1000cf0a70001f0a000cdff3700a8
:100f80006120e100cfff32000801be000200be0078
:100f9000f7ff37006150e100fcff3a00c9ff37005e
:100fa000889fbe008a9fbe00841f7800b0ff0700a4
:100fb0004f00780011003300f0ff2f00838f6c008a
:100fc00006003b00040565000a00a7000800370082
:100fd00009f0a6001000200008003700820f54001e
:100fe000838f5c00030039001000200001003e00e8
:100ff0000000200009f0a7000000ea004f05be0035
:101000004f04be000000e00000000600881f7800ca
:10101000030478000300e00007003d0060001000ba
:10102000e080180060011900e081190002003b0017
:1010300001f02d00030037000400070008f0a700ae
:1010400001f0a0004f04780000000600889fbe0059
:101050008a9fbe0000827000040271000482710049
:10106000260032000004be000200be006011b8007d
:101070006b092000950220000182cf000a00390090
:101080000541b1000082cf00070039000541b100e1
:101090000982cf00040039000541b1000882cf0069
:1010a000010039000541b100054252001200320032
:1010b0000a003b0082817100610164008100d1005f
:1010c0000080d3008984d3000884d3008b05e80016
:1010d0000442e800f7ff3a00070037000804440024
:1010e00089844c0000004800818048008b05e9009d
:1010f0000442e900f9ff3a0022ff07004f05be0055
:101100004f04be0000000600889fbe008a9fbe00fc
:101110008c9fbe004152210022a980000200e00005
:101120000b003a006481400022a9880072a988005f
:10113000a100980061a98800214190000204a0004c
:10114000a2409800614190000204a000e240980093
:10115000670440004244de004244dd0064a9800090
:10116000e153210029732100818454002d002000c7
:10117000110009008d04d800800678000886e80078
:101180000c0646008001eb0002003700130020002f
:101190000b027800a44090000108a3000200320076
:1011a0000a003700120a780014017800a24090006b
:1011b0000108a300fbff320088004200810f5100ac
:1011c000020039000800e00042003d00940578006c
:1011d0000b00a100848f5500edff3e00e18f510010
:1011e000eaff3a008d0f540002003600890f5400c8
:1011f000140039006141b8006148b900b4ff2f0004
:10120000050020000000520081805a00800f51002c
:10121000818f590002003500640544000a00370040
:10122000e05321005a7321000005550008054500d0
:10123000110009000985d8000980b900000578006f
:10124000010037000c0578000a007800e4fd070073
:10125000e10f400005003a00640544000a007800f0
:10126000dffd0700e10f40002b00320071a9800074
:101270008008780071a98000e4814000214190003d
:10128000830f5000020032000204a000010037006a
:101290000204a100a2409800640555000a05400020
:1012a0000a0878007aa9880041522100010d7800cf
:1012b00072a98000a24090000104a0002141980082
:1012c000a04090000104a100214098008001eb00a3
:1012d000afff370061a98800810f51000700360079
:1012e0001101be0082a9880093a9880094087800a3
:1012f0000041eb0061a98000a240980063a9800032
:10130000030a7800a44090000104a0002142980044
:1013100064004200010037000000eb004f06be00f1
:101320004f05be004f04be00000006000000e000b4
:10133000080032006400500061a98000810f500055
:101340000100310060a98800a04090000104a100c4
:101350002140980000000600889fbe008a9fbe00c2
:101360000004be000900e00007003a000000eb00a6
:101370000800e0003600320008007800ebff0700ac
:101380000000eb00320037000800e00003003a00e4
:10139000090078005cff07002d003700640054004e
:1013a0009005780068f897000008a300020032005a
:1013b00008007800ddff07000900780052ff0700f1
:1013c000800478000000eb000900e00020003200fb
:1013d000888f54001b00320069bd97000905550035
:1013e00042d5de0088855500c2ddde000a017800a6
:1013f0008b0f5500010036000b0178004211dd0013
:10140000880078000900780014000700888f5400d5
:101410000e0031004255dd000a854400880f55005a
:101420000a0036000804550042c4de004244dd00d4
:101430000884440080a9800091a98000008cbe002f
:10144000020037000800780001003700090078002a
:101450004f05be004f04be0000000600800178006a
:1014600002003700b15978000201e9000200e000f3
:10147000fcff3a00000006008001780002003700ff
:10148000815978000201e9000200e000fcff3a0007
:10149000000006000000fa0068815700cfb89700ee
:1014a000a0502100f90107000080fa0000000600aa
:1014b0000000fa0068815700cfb89700a0502100c3
:1014c000f20107000080fa0000000600889fbe00bd
:1014d00001047800b80090008084eb000118a3009c
:1014e0003a003200180190000198a30002003a006f
:1014f0000200e00035003a000190a000310498009d
:1015000080047800f90fb2000200e00002003a0007
:1015100028009000000c7800ea8f540005003a0083
:101520000178a30003003a0088007800d000200072
:10153000e6ff070018009000d8009000810f5000cf
:101540000b0032000000e80010049800180078003a
:1015500009487800000ce80011c0b3004053210096
:1015600001487800ea8f540018003a00050037005f
:101570008800780009407800170007008004780090
:1015800012003700380090000088a3000f003200de
:1015900018019000a800900048009000e2fc0700ad
:1015a00098009000810f5000040032003800900035
:1015b0000003b300300498008084eb000000eb00cf
:1015c0001004980028009000000c780009007800b2
:1015d0004f04be00000006000200fa00889fbe0013
:1015e000a0ff9f0001047800380090000068a3006d
:1015f00033003a00e200600005003a000003b30047
:1016000030049800110498000080eb002e00370091
:10161000d80490000900e00006003a001200200003
:10162000e680570048009000bffc070019049800ae
:1016300023003700a80090000100e00008003a00f5
:101640007153210021049800010c78002100200032
:1016500051049800110498000030a0003004980054
:1016600018019000a800900048009000aefc070010
:10167000280090008080eb0011049800aff89700dc
:1016800001487800000ce8002ff89700ea4f50005e
:101690000b003a00380090000088a30008003200d8
:1016a00018019000a8009000480090009efc0700e0
:1016b0000000eb0010049800a8009000010c7800d6
:1016c000aff897000100fb004f04be000080fa0055
:1016d0000000060000c0da00000006006022b8002a
:1016e000060220000000d0008180d2000482d200d7
:1016f0008582d2000000a0000202520083825a00bc
:10170000030031000202420083824a000000a1006f
:101710000603e900f3ff3a0000000600020ab900e0
:10172000001bb9000200b8008100420081004300a4
:1017300000000600889fbe008a9fbe003004420061
:10174000b0844a0030054b0090854b006000b1002a
:101750000898be000a90be000440e10005c8e10000
:1017600006d0e10007d8e100020031006800400027
:101770001008e8004f05be004f04be000000060040
:10178000889fbe008a9fbe003004be002005be00b8
:101790000418540005985c0006185d0007985d0069
:1017a000110020000440e10005c8e10006d0e1007e
:1017b00007d8e100010039008000eb00108810001c
:1017c0004f05be004f04be00000006001200fa00e4
:1017d000889fbe008a9fbe008c9fbe00e0b79f001e
:1017e000f1b79f0082bf9f0093bf9f000605be0018
:1017f0000404be000000eb00d0b79f00c0b79f00fc
:10180000b0b79f00a0b79f0090b79f000006eb0005
:101810005fb19700cfb09700820141003fb09700c1
:101820000200e00004003d00370007007e80570002
:10183000c0ff070003003700330007007e80570019
:10184000cfff0700dfb697000d00e0000c00350069
:101850006fb29700ffb297000fbb97009fbb970036
:1018600010002000010020006011b800000272008a
:101870008182720002037300838373001b000700e0
:101880000c06e80001042000810f5600e0ff3a003a
:101890000d00e00004003d000802be000a03be0087
:1018a0007e805700a3ff07005fa897000000e000bc
:1018b00005003a001fb29700afb297003fb3970000
:1018c000cfb39700090007006fb09700ffb09700f3
:1018d0000fb997009fb997004f06be004f05be0095
:1018e0004f04be000080fa0000000600010007005f
:1018f00000000600a4b79f00b5b79f00c6b79f00c1
:10190000d7b79f00000006004f09de0082817100fa
:10191000b3b79f004f01de008180400082807000dd
:10192000a1b79f008fb097004f09de000000400074
:101930000200700090b79f007fa897004f01de0063
:10194000818040008280700081b79f000d000700f9
:101950004f3ade000000400004007000f0af9f002e
:10196000080007000402420085824a0006034b007b
:1019700087834b00dfff07000802be000a03be009a
:10198000000006002fb29700bfb297004fb3970038
:10199000dfb3970000000600881f780018002000c1
:1019a000881f780089ff07008f87e9004f047800bf
:1019b00000000600801feb0084ff07008f87e9000e
:1019c00000000600889fbe008a9fbe00e00f500006
:1019d000e08f5800e00f5900e08f59000c003d00e7
:1019e0006044b8006055b8000000540081805c007d
:1019f00002015d0083815d001800200015000700d2
:101a000008003d00180007000004eb000500370047
:101a10000004eb000f00070002003d001200070069
:101a200018002000dcff07000800e000060032007c
:101a30006022b8006033b8000000520081805a0074
:101a400002015b0083815b004f05be004f04be00b6
:101a500000000600e00f5200e08f5a00e00f5b002c
:101a6000e08f5b00000006006044b8006055b800dd
:101a70000402540085825c0006035d0087835d00dc
:101a800000000600889fbe008a9fbe008c1f780061
:101a9000e00f5000e08f5800e00f5900e08f590030
:101aa0000d003d006044b8006055b80000005400cf
:101ab00081805c0002015d0083815d001c002000cc
:101ac0000820e10009a8e1000ab0e1000bb8e1003c
:101ad0000d003d00080037000006eb00e00f52004b
:101ae000e08f5a00e00f5b00e08f5b0006003d00d6
:101af0006044b8006055b8000402540085825c0060
:101b000006035d0087835d00aaff07000c00e0006c
:101b1000060032006022b8006033b80000005200b6
:101b200081805a0002015b0083815b004f067800d0
:101b30004f05be004f04be0000000600889fbe0097
:101b40008a9fbe008c1f78000006eb00e00f50005b
:101b5000e08f5800e00f5900e08f590007003d006a
:101b60006044b8006055b8000000540081805c00fb
:101b700002015d0083815d001c002000e00f520027
:101b8000e08f5a00e00f5b00e08f5b0007003d0034
:101b90006044b8006055b8000402540085825c00bf
:101ba00006035d0087835d000c00a2000c000700a7
:101bb0000c00e000060032006022b8006033b8007c
:101bc0000000520081805a0002015b0083815b00ab
:101bd0004f0678004f05be004f04be00000006000f
:101be000889fbe008a9fbe008c9fbe000404b80080
:101bf0000506b8008904460060854e000606b80058
:101c00000a054600e0854e000706b8008b05460031
:101c1000040eb800890446000a854e00e0854d0098
:101c2000050eb8000a0546008b854e00060eb8006a
:101c30008b0546000416b8000a0546008b854e0049
:101c40000516b8008b054600041eb8008b0546003b
:101c50000800be000a01be004f06be004f05be00d0
:101c60004f04be0000000600d00190000281510028
:101c70004240a900030034001001780001497800b7
:101c80000208e80001007800000006002f02b00002
:101c9000889fbe008a9fbe008c9fbe008e1f78006a
:101ca00080067800d1af9f0092b79f000007eb003d
:101cb00044033700dfa897008100e800d1af9f0000
:101cc00051c2b300814f500003003a005fa8970053
:101cd0000006eb0011003700bd0090000000fb0083
:101ce0000168a300070032000e0178008000780030
:101cf0000d007800dcff07000000e00005003a005e
:101d0000300337008d007800f0fd0700e10f400040
:101d10002c0332000e07e8002a0337008000780009
:101d200030417800d3c2b300834f51000c00320021
:101d300007003c00edc15100834f51000a00320002
:101d4000ebc14100834f51000d003a0008003700fd
:101d500003c3b300834f510009003a000600370067
:101d60000c30a000edff37000c00a000ebff3700a7
:101d70000c10a000e9ff37000c20a000e7ff37009f
:101d80000c18a300010032000c00a1000c38a300c5
:101d9000010032000c20a1000200fb000003b10092
:101da000e90f50000c003e00010178000000eb003c
:101db0006a00b900b201fb000303b10000804100da
:101dc000820078009201fb000303b100e98f51000b
:101dd000f7ff3600080037000000eb00a3c2b30095
:101de000834f510004003a001fb197004200780071
:101df00092b79f008100e8008001eb00a3b79f002d
:101e0000e2c2b300914f11000c003a000ce0a000b8
:101e100064415100d14f11000300320001017800ec
:101e200003027800090037001fb29700c40278004f
:101e300094b79f00a5b79f008100e80001017800da
:101e4000090037006a22b90004824100820078004c
:101e5000b201fb000303b100e98f5100f9ff360026
:101e6000a4b79f00f5ff3700b2407800d2af9f00c3
:101e7000c3c6b30083cf5000250032000f003c00e2
:101e800032c6b30082cf5000a000320004003c00f4
:101e90000104e000d00232006b4151000f00370016
:101ea00042c6b30082cf50001700320065414100a6
:101eb00082cf5000b3003a001300370032c7b3009e
:101ec00082cf50001f00320007003c0064415100e7
:101ed00082cf5000140032000241e80082cf50004f
:101ee000a8003a001300370052c7b30082cf500059
:101ef000ab0032006341410082cf5000a1003a00a4
:101f0000a1d79f000d003700a1d79f00a600370082
:101f1000010120000c48a30001003200010028004c
:101f20000c867000d0ff3700a1d79f000c60a00086
:101f30009d003700a1d79f000c50a0000c70a0009e
:101f400099003700a1d79f009fb39700c700780082
:101f500097b79f00b1b79f000100e00002003a0070
:101f6000293f2100b9b79f003fb197008000eb00e7
:101f7000010037008100e800e2c178000304e000be
:101f8000fcff3a00c1b79f002fb597000a00e000a0
:101f900005003200cfb597008b0f550002003100cd
:101fa0008a007800c1b79f00cfb097000004eb0013
:101fb000810f5000010036000104500068066600e1
:101fc0002b003a00110037003d0090000068a3008c
:101fd000070032000e017800010220000d00780099
:101fe00021ff07000000e00006003a00060037006d
:101ff0008d0078000002200034fd0700e10f400052
:10200000010032000e07e8000804e9000800e000c3
:10201000edff3a000084eb00150037003d00900012
:102020000068a3000900320008007800b000fb003f
:10203000000478000e0178000d0078000aff070008
:102040000000e00008003a000f0037008800780028
:102050003100fb00010478008d0078001bfd0700b3
:10206000e10f4000080032000e07e80006003700cc
:10207000acb79f00080678003fb49700cfb4970034
:102080005fb59700efb59700090078008004e9007c
:102090000000e000e1ff3a00b8b79f00c9b79f0019
:1020a000dab79f00ebb79f000c0478002fb69700bb
:1020b0000c00e00043023200110037003d009000a8
:1020c0000068a300070032000e0178000102200022
:1020d0000d007800e4fe07000000e00006003a0072
:1020e000060037008d00780000022000f7fc070092
:1020f000e10f4000010032000e07e8000804e9008b
:102100000800e000edff3a002e0237009fb2970072
:102110004504780095b79f00cfc4de00614db9003b
:102120000802be000a03be004822de00c828dd0007
:1021300004827000a4d79f000c48a300090032005d
:102140000404e00007003200e14f420005003200c5
:10215000b4d79f00c8d79f0022002000c2b79f00bd
:1021600003003700b8d79f0013002000c3b79f00bb
:1021700024fd2f000f0242000402e800b4b79f00c4
:1021800081ff3700a1d79f0025fd2f0085824700e2
:10219000b5b79f0016002000c6b79f007aff370032
:1021a000a1d79f000c0cb3008c007800010cb2008a
:1021b00032003a000c00e00005003d009fb097009f
:1021c0004105be004104be0091b79f0008003700e2
:1021d0000c48a3000b0032001fb297004401be0060
:1021e00094b79f000204be004fcdde008a05780040
:1021f000b8b79f00c9b79f00dab79f00ebb79f0041
:10220000090037009fb49700c900780099b79f0074
:10221000610ab900612bb900b4b79f00c5b79f0030
:10222000d6b79f00e7b79f003fb49700cfb49700a1
:102230005fb59700efb59700e00f5400e08f5c00aa
:10224000e00f5d00e08f5d0022003d003c00b30028
:102250006022b8006033b8000804520089845a0034
:102260000a055b008b855b00b8b79f00c9b79f006c
:10227000dab79f00ebb79f00160037000c00e000b4
:1022800004003d001fb497004803be004802be0092
:10229000050037000c48a300050032001fb497006a
:1022a0004802be006033b80098b79f0005003700b1
:1022b0009fb49700c900780099b79f00610ab800e1
:1022c0006033b800b4b79f00c5b79f00d6b79f0072
:1022d000e7b79f00afb297000500e0000d003a009d
:1022e00016002000a6b79f003fb49700cfb4970018
:1022f0005fb59700efb59700e00f5400e08f5c00ea
:10230000e00f5d00e08f5d00020032008004eb0012
:10231000a9b79f000c0578000a0cb2008ab79f008d
:1023200001042000810f55003400320003003c00fe
:102330000a00e000080032004800370001082000d1
:102340008fb59700818f550014003200010c2000da
:10235000818f550041003a002240210011c0b30096
:102360003202be003203be003fb49700cfb49700e4
:102370005fb59700efb597000440e10005c8e100a4
:1023800006d0e10007d8e100330039008140e800c1
:10239000f4cf5000f2ff3a002f00370011c0b30015
:1023a00004012000050020006033b8003fb497000e
:1023b000cfb497005fb59700efb597000440e100f8
:1023c00005c8e10006d0e10007d8e100220039008d
:1023d000490020000402d0008582d2000683d2008a
:1023e0008783d2008904e900faff3a008140e800bf
:1023f000f0cf5000edff3a001700370011c0b300d6
:1024000084002000050020006033b8003fb497002e
:10241000cfb497005fb59700efb597000440e10097
:1024200005c8e10006d0e10007d8e1000a00390044
:10243000390020000402d0008582d2000683d20039
:102440008783d2008904e900faff3a008140e8005e
:10245000f5cf5000edff3a00a1d79f002fd5970090
:102460008a00fb00afb597008b8f500002003d0043
:10247000abd79f00040037002fb19700810f5100a8
:1024800001003d00a1b79f000000e0000300320002
:10249000e3006600010032000000e9000ce8a30040
:1024a00006003200afb19700830f500002003400e5
:1024b00003005000010037000000eb002fd297000e
:1024c0008400fb008002eb00f5af9f00810f5000fd
:1024d0000200340081005000f1af9f000c28a300df
:1024e0003c003200610166000c18a3000f003200ae
:1024f0003d0090000068a30006003200b1022000f9
:102500000200e000010032008180e8000e01780046
:102510000d003700b00220000200e0000100320090
:102520000080e8008d0078000e0037000200e00017
:10253000100032003d0090000068a3000700320048
:102540000e017800010220000d007800c6fd070092
:102550000000e00006003a00060037008d00780019
:1025600000022000d9fb0700e10f4000010032000b
:102570000e07e8007fab97000600e0005200320033
:10258000060478003d0090000068a30007003200b8
:102590000e017800010320000d007800b2fd070055
:1025a0000000e00006003a00060037008d007800c9
:1025b00000032000c5fb0700e10f400001003200ce
:1025c0000e07e8000804e900eeff3a00f8af9f00ac
:1025d0003d003700ffab97000700e0001600320017
:1025e0000c38a30014003a00070478003d00900066
:1025f0000068a300070032000e01780001022000ed
:102600000d00780098fd07000000e00006003a0089
:10261000060037008d00780000022000abfb0700a9
:10262000e10f4000010032000e07e8000804e90055
:10263000eeff3a00f8af9f00610166000c18a3009e
:102640000f0032003d0090000068a3000600320039
:10265000b10220000200e000010032008180e800a9
:102660000e0178000d003700b00220000200e000eb
:10267000010032000080e8008d0078000e00370075
:102680000200e000100032003d0090000068a3004e
:10269000070032000e017800010220000d007800d2
:1026a00071fd07000000e00006003a000600370058
:1026b0008d0078000002200084fb0700e10f40003d
:1026c000010032000e07e8002fb497000800e9006f
:1026d000c204dd00c9af9f006301b90002057800a4
:1026e000baaf9f004300dd00a13f21008100400000
:1026f000e1af9f0098003700afb597008b05e90068
:10270000abb79f00000420008fb09700808f50006f
:102710006800320003003c000100e00008003200c5
:1027200073003700000820000fb19700800f5100a0
:102730004c003200000c2000800f51006c003a0069
:102740000c00e0001e003d00efa997003304be001e
:102750002305be000802be000a03be003fb097007a
:10276000cfb097005fb19700efb197008afc0700e8
:10277000a0d79f000000fb00cf80de006109b900f8
:102780000802be000a03be00ecfc07003fb297003f
:10279000cfb297005fb39700efb3970000025200eb
:1027a00081825a0002035b0083835b00b4b79f0001
:1027b000c5b79f00d6b79f00e7b79f002500370039
:1027c0000c48a3001a0032003fb29700cfb2970026
:1027d0006fab97003604be002605be000801be00a0
:1027e0000400be00f4b79f0085bf9f00bbfb07003d
:1027f000a0d79f000000fb00cf80de000801be00d4
:10280000c6fb07007fb297008fba97000002520004
:1028100081825a000404be006055b800b8b79f001a
:10282000c9b79f00dab79f00ebb79f0009003700d8
:10283000efac9700190178003fb59700110009002f
:102840000285d800a2002000110009000280d800f3
:10285000a1d79f00afd597000b43b000abd79f0027
:1028600023003700103e21000c58a3000100320065
:10287000003d21003fb29700cfb297005fb39700b1
:10288000efb39700cfa897008100e900050033005f
:102890008703d1000683d3008582d3000482d3004e
:1028a000f9ff37006f02620060427a00a4d79f00f0
:1028b0000f0037003fb09700cfb097005fb197008f
:1028c000efb197003faa97000402e900050033002a
:1028d0008301d1000281d3008180d3000080d30026
:1028e000f9ff3700674060000043b000a0d79f00a9
:1028f000bd009000afd297000500fb000168a30067
:10290000070032000e017800800078000d0078008a
:10291000d5fc07000000e00005003a000500370084
:102920008d007800e9fa0700e10f40000100320055
:102930000e07e8004fab970064035300c6af9f003b
:10294000bfab9700e3835300b7af9f006fac970016
:1029500068045400e8af9f00afb497000900e0009e
:1029600065ff3a000c38a300160032007fad9700d7
:102970000a00e000130034000a0478003d009000d3
:102980000068a300070032000e0178000102200059
:102990000d007800b4fc07000000e00006003a00db
:1029a000060037008d00780000022000c7fa0700fb
:1029b000e10f4000010032000e07e8000804e900c2
:1029c000eeff3a00dfad97001b407800a0d79f00d4
:1029d0000004e000b7fc3a000e0078004f077800d2
:1029e0004f06be004f05be004f04be002f02b100cf
:0429f00000000600dd
:020000040000fa
:1029f4000000000099c50000abce0000320b0000bf
:102a0400cfd80000561d000064160000fdd300005e
:102a140007f400009e310000ac3a000035ff0000ce
:102a2400c82c000051e9000063e20000fa2700000e
:102a340097ad00000e6800003c630000a5a60000ee
:102a440058750000c1b00000f3bb00006a7e0000ae
:102a540090590000099c00003b970000a25200001e
:102a64005f810000c6440000f44f00006d8a00003e
:102a74002e5b0000b79e0000859500001c500000ee
:102a8400e1830000784600004a4d0000d38800002e
:102a940029af0000b06a0000826100001ba400009e
:102aa400e67700007fb200004db90000d47c00003e
:102ab400b9f6000020330000123800008bfd00003e
:102ac400762e0000efeb0000dde00000442500005e
:102ad400be02000027c7000015cc00008c090000ce
:102ae40071da0000e81f0000da14000043d100008e
:102af400c5f300005c3600006e3d0000f7f80000ee
:102b04000a2b000093ee0000a1e50000382000002d
:102b1400c20700005bc2000069c90000f00c00009d
:102b24000ddf0000941a0000a61100003fd400003d
:102b3400525e0000cb9b0000f9900000605500003d
:102b44009d8600000443000036480000af8d00005d
:102b540055aa0000cc6f0000fe64000067a10000cd
:102b64009a72000003b7000031bc0000a87900008d
:102b7400eba80000726d000040660000d9a30000bd
:102b840024700000bdb500008fbe0000167b00005d
:102b9400ec5c00007599000047920000de570000cd
:102ba40023840000ba410000884a0000118f00000d
:102bb4007c050000e5c00000d7cb00004e0e0000ed
:102bc400b3dd00002a1800001813000081d60000ad
:102bd4007bf10000e2340000d03f000049fa00001d
:102be400b42900002dec00001fe70000862200003d
:102bf40013a200008a670000b86c000021a900003d
:102c0400dc7a000045bf000077b40000ee710000dc
:102c1400145600008d930000bf980000265d00004c
:102c2400db8e0000424b000070400000e98500008c
:102c3400840f00001dca00002fc10000b60400006c
:102c44004bd70000d2120000e019000079dc00002c
:102c540083fb00001a3e000028350000b1f000009c
:102c64004c230000d5e60000e7ed00007e280000bc
:102c74003df90000a43c0000963700000ff200006c
:102c8400f22100006be4000059ef0000c02a0000ac
:102c94003a0d0000a3c8000091c30000080600001c
:102ca400f5d500006c1000005e1b0000c7de0000bc
:102cb400aa54000033910000019a0000985f0000bc
:102cc400658c0000fc490000ce42000057870000dc
:102cd400ada0000034650000066e00009fab00004c
:102ce40062780000fbbd0000c9b60000507300000c
:102cf400d65100004f9400007d9f0000e45a00006c
:102d040019890000804c0000b24700002b820000ab
:102d1400d1a50000486000007a6b0000e3ae00001b
:102d24001e7d000087b80000b5b300002c760000bb
:102d340041fc0000d8390000ea32000073f70000bb
:102d44008e24000017e1000025ea0000bc2f0000db
:102d540046080000dfcd0000edc60000740300004b
:102d640089d0000010150000221e0000bbdb00000b
:102d7400f80a000061cf000053c40000ca0100003b
:102d840037d20000ae1700009c1c000005d90000db
:102d9400fffe0000663b000054300000cdf500004b
:102da40030260000a9e300009be80000022d00008b
:102db4006fa70000f6620000c46900005dac00006b
:102dc400a07f000039ba00000bb10000927400002b
:102dd40068530000f1960000c39d00005a5800009b
:102de400a78b00003e4e00000c45000095800000bb
:102df4000000000099c50000abce0000320b0000bb
:102e0400cfd80000561d000064160000fdd300005a
:102e140007f400009e310000ac3a000035ff0000ca
:102e2400c82c000051e9000063e20000fa2700000a
:102e340097ad00000e6800003c630000a5a60000ea
:102e440058750000c1b00000f3bb00006a7e0000aa
:102e540090590000099c00003b970000a25200001a
:102e64005f810000c6440000f44f00006d8a00003a
:102e74002e5b0000b79e0000859500001c500000ea
:102e8400e1830000784600004a4d0000d38800002a
:102e940029af0000b06a0000826100001ba400009a
:102ea400e67700007fb200004db90000d47c00003a
:102eb400b9f6000020330000123800008bfd00003a
:102ec400762e0000efeb0000dde00000442500005a
:102ed400be02000027c7000015cc00008c090000ca
:102ee40071da0000e81f0000da14000043d100008a
:102ef400c5f300005c3600006e3d0000f7f80000ea
:102f04000a2b000093ee0000a1e500003820000029
:102f1400c20700005bc2000069c90000f00c000099
:102f24000ddf0000941a0000a61100003fd4000039
:102f3400525e0000cb9b0000f99000006055000039
:102f44009d8600000443000036480000af8d000059
:102f540055aa0000cc6f0000fe64000067a10000c9
:102f64009a72000003b7000031bc0000a879000089
:102f7400eba80000726d000040660000d9a30000b9
:102f840024700000bdb500008fbe0000167b000059
:102f9400ec5c00007599000047920000de570000c9
:102fa40023840000ba410000884a0000118f000009
:102fb4007c050000e5c00000d7cb00004e0e0000e9
:102fc400b3dd00002a1800001813000081d60000a9
:102fd4007bf10000e2340000d03f000049fa000019
:102fe400b42900002dec00001fe700008622000039
:102ff40013a200008a670000b86c000021a9000039
:10300400dc7a000045bf000077b40000ee710000d8
:10301400145600008d930000bf980000265d000048
:10302400db8e0000424b000070400000e985000088
:10303400840f00001dca00002fc10000b604000068
:103044004bd70000d2120000e019000079dc000028
:1030540083fb00001a3e000028350000b1f0000098
:103064004c230000d5e60000e7ed00007e280000b8
:103074003df90000a43c0000963700000ff2000068
:10308400f22100006be4000059ef0000c02a0000a8
:103094003a0d0000a3c8000091c300000806000018
:1030a400f5d500006c1000005e1b0000c7de0000b8
:1030b400aa54000033910000019a0000985f0000b8
:1030c400658c0000fc490000ce42000057870000d8
:1030d400ada0000034650000066e00009fab000048
:1030e40062780000fbbd0000c9b600005073000008
:1030f400d65100004f9400007d9f0000e45a000068
:1031040019890000804c0000b24700002b820000a7
:10311400d1a50000486000007a6b0000e3ae000017
:103124001e7d000087b80000b5b300002c760000b7
:1031340041fc0000d8390000ea32000073f70000b7
:103144008e24000017e1000025ea0000bc2f0000d7
:1031540046080000dfcd0000edc600007403000047
:1031640089d0000010150000221e0000bbdb000007
:10317400f80a000061cf000053c40000ca01000037
:1031840037d20000ae1700009c1c000005d90000d7
:10319400fffe0000663b000054300000cdf5000047
:1031a40030260000a9e300009be80000022d000087
:1031b4006fa70000f6620000c46900005dac000067
:1031c400a07f000039ba00000bb100009274000027
:1031d40068530000f1960000c39d00005a58000097
:1031e400a78b00003e4e00000c45000095800000b7
:1031f40041440000433a0000202500006420000000
:103204002c20000025640000202c00002025000054
:103214006400000053740000617200007400000038
:020000040000fa
:103224000000fa00ee0607009b1307000080fa0076
:10323400000006000200fa00000f780081b32000ad
:1032440080a12000410007000080fa000000060071
:103254000000fa001000070080d720005c0007007f
:103264004043880080e02000590007004043880064
:10327400404380000000e000020032009df507009a
:103284000300370081b3200080a120008c020700d6
:103294000080fa00000006000400fa000000eb00c1
:1032a400000f780010002000100798001e0037005f
:1032b4000041eb009e0078001e009000740507009a
:1032c40012c0b3009e0078001e009000e4040700c2
:1032d4009e0078001e009000100507009e007800f4
:1032e4001e009000450507000041eb009e00780099
:1032f4001e0090004e0407009e0178001e019000fd
:1033040031052000f00420007e0407001e0fe800b1
:103314001e007800eb0f5000e5ff34001e00900003
:103324000000e800100798001e009000e20f500013
:10333400f7ff34001000200084050700200020005f
:10334400820507000080fa00000006000600fa006b
:1033540010079800210798000000eb00000f780088
:1033640081a120000000eb009a020700000f780002
:103374001e0078000000e0000300320030438000ab
:103384000000e800304388001e0078000000e000e0
:10339400f3ff3a00ae0090000000eb008d0207003e
:1033a400000f78001e0078000000e00003003200e7
:1033b400304380000000e800304388001e0078009d
:1033c4000000e000f3ff3a000080fa00000006006d
:1033d4000800fa00300798000000eb00000f7800a6
:1033e4000000eb00200798000000eb001007980095
:1033f4008000eb0020002000ab060700ed0607006c
:103404003e019000c10020000000eb004c090700c1
:10341400000f780006003700e60607003e01900022
:10342400c10020000000eb0045090700000f7800f0
:103434001e007800e10f400003003a002e009000c7
:10344400e90f5000f4ff34002e009000e90f500003
:1034540002003400f0002000100798001e007800dd
:103464000000e00005003a003e0090000b00070059
:103474004043880040438000060037002e0090003f
:10348400ea0f5000020034001e00900001003700d3
:103494000080eb000080fa00000006001e00fa0025
:1034a400881f7800600f98000000eb00000f780080
:1034b4000000eb0010079800b00137000000eb009b
:1034c400300798000000eb00400798006e08900059
:1034d4000009b00090007800310798003e00900089
:1034e400cf80de0023f6070072712b00138d2300ba
:1034f40076f6070002002000031a240073f6070082
:10350400fbf50700400798000000eb005007980007
:103514006000b80060079800710798006e0890007a
:103524000009b00090009000510798005e009000e0
:10353400cf80de000ff60700d2402700a3c523008a
:1035440062f60700020028008338240044f50700cf
:1035540060079800710798000000eb00000f9800c6
:103564000000eb00100f98006e0890000009b000f6
:10357400a0009000010f98003e009000cf80de0074
:10358400fcf5070072712b00138d23004ff6070022
:10359400d7f50700100f98001e089000cf80de00ba
:1035a400f4f5070018c0b30002002000030924004a
:1035b400cbf507000000e000010035000044eb00fb
:1035c4000804e0000c003a001e089000cf80de00e2
:1035d400e8f5070018c0b30002002000030b240024
:1035e400c1f507000000e00001003c000044eb00ce
:1035f4000804e0000200320080002000000f780080
:103604000000eb00200f98000000eb00300f980042
:103614006e0890000009b000b0009000210f9800df
:103624003e009000cf80de00d2f5070072712b00bf
:10363400138d230025f60700adf50700300f980021
:103644003e089000cf80de00caf5070018c0b30022
:10365400d2cc2c00c3022400a1f507000000e00036
:10366400010035000044eb000804e0000c003a00bf
:103674003e089000cf80de00bef5070018c0b300fe
:10368400626626006306240097f507000000e00048
:1036940001003c000044eb000804e000020032009a
:1036a40090002000000f78000000eb00400f98000d
:1036b4006e0890000009b000c0009000410f98000f
:1036c4000000eb0020079800a80037004e08900087
:1036d4000000e00007003200110020002e009000de
:1036e4000008dd000000e0000200320010002000ad
:1036f400010037000000eb00205f98002e009000ce
:10370400cf80de00f200200003002000820f500072
:10371400838f580090003e00006001000f003700c6
:1037240014003700190037001e003700230037004b
:10373400280037002d0037003200370037003700eb
:103744003c00370041003700460037004b0037008b
:1037540050003700550037005a0037002e589000ab
:103764000004e0005d00320010002000000f78002b
:10377400790037002e5890000004e0005900320010
:1037840020002000000f7800730037002e589000ae
:103794000004e0005500320010002000000f780003
:1037a4006d0037002e5890000004e00051003200f4
:1037b40020002000000f7800670037002e5890008a
:1037c4000004e0004d00320010002000000f7800db
:1037d400610037002e5890000004e00049003200d8
:1037e40020002000000f78005b0037002e58900066
:1037f4000004e0004500320010002000000f7800b3
:10380400550037002e5890000004e00041003200bb
:1038140020002000000f78004f0037002e58900041
:103824000004e0003d00320010002000000f78008a
:10383400490037002e5890000004e000390032009f
:1038440020002000000f7800430037002e5890001d
:103854000004e0003500320010002000000f780062
:103864003d0037002e5890000004e0003100320083
:1038740020002000000f7800370037002e589000f9
:103884000004e0002d00320010002000000f78003a
:10389400310037002e5890000004e0002900320067
:1038a40020002000000f78002b0037002e589000d5
:1038b4000004e0002500320010002000000f780012
:1038c400250037002e5890000004e000210032004b
:1038d40020002000000f78001f00370000000000c7
:1038e4001d003700000000001b003700000000002e
:1038f4001900370000000000170037000000000026
:10390400150037000000000013003700000000001d
:1039140011003700000000000f0037000000000015
:103924000d003700000000000b003700000000000d
:103934000900370000000000070037000000000005
:1039440005003700000000000300370000000000fd
:1039540001003700000000002e0090000000e80085
:10396400200798000040eb00205f98002e00900094
:10397400ef0f500055ff34000000eb00400f98009b
:103984006e0890000009b000c0009000410f98003c
:103994000000eb0020079800720037004e089000ea
:1039a4000000e00007003200110020002e0090000b
:1039b4000008dd000000e0000200320010002000da
:1039c400010037000000eb00305f98002e009000eb
:1039d400cf80de009200200003002000820f500000
:1039e400838f58005a003e00006001000900370030
:1039f4000e00370013003700180037001d00370091
:103a040022003700270037002c0037003100370030
:103a1400360037003e5890000004e00039003200c0
:103a240010002000000f7800490037003e58900035
:103a34000004e0003500320020002000000f780070
:103a4400430037003e5890000004e000310032008b
:103a540010002000000f78003d0037003e58900011
:103a64000004e0002d00320020002000000f780048
:103a7400370037003e5890000004e000290032006f
:103a840010002000000f7800310037003e589000ed
:103a94000004e0002500320020002000000f780020
:103aa4002b0037003e5890000004e0002100320053
:103ab40010002000000f7800250037003e589000c9
:103ac4000004e0001d00320020002000000f7800f8
:103ad4001f0037003e5890000004e0001900320037
:103ae400d0002000000f7800190037003e589000e5
:103af4000004e00015003200b0002000000f780040
:103b0400130037000000000011003700000000001f
:103b14000f003700000000000d0037000000000017
:103b24000b0037000000000009003700000000000f
:103b34000700370000000000050037000000000007
:103b440003003700000000000100370000000000ff
:103b54002e0090000000e800200798000040eb00d1
:103b6400305f98002e009000e80f50008bff340067
:103b74001e0090000000e800100798001e0090004e
:103b8400eb0f50004dfe34001e0078004f04780007
:103b94000080fa00000006000c00fa0030079800cc
:103ba40041079800520798000000eb00000f7800ce
:103bb4000000eb00100798000000eb0020079800bd
:103bc4001a0037001e0078007800b9000000780061
:103bd400de009000808040001e0090000000400045
:103be40061007800800078003e0090001600070015
:103bf400200798002e0090000000e0000200320030
:103c04002e0090000e0037001e0090000000e80017
:103c1400100798001e009000eb0f5000e9ff3400dd
:103c24000000eb00100798001e0fe8004e00900003
:103c34009e007800808f5000f6ff35002e00900023
:103c44000080fa00000006000600fa001007980041
:103c5400210798000000eb00000f78001e00900080
:103c6400e10f500009003200e20f500011003a0049
:103c740050448000ae009000808f50000a00340051
:103c840020002000000f78000a0037006044800004
:103c9400ae009000808f500005003d001000200011
:103ca400000f780003003700000000000100370017
:103cb400000000001e0078000080fa0000000600ea
:103cc4000600fa0010079800210798000000eb0096
:103cd400000f780081a120000000eb003d000700e8
:103ce400000f78001e0078000000e000030032009e
:103cf400304380000000e800304388001e00780054
:103d04000000e0000300320030438000ea0f50005e
:103d1400f0ff3400ae0090000000eb002d0007001f
:103d2400000f78001e0078000000e000030032005d
:103d3400304380000000e800304388001e00780013
:103d44000000e0000300320030438000ea0f50001e
:103d5400f0ff340030438000ea0f500003003400c9
:103d640000012000000f7800170037001e007800c3
:103d74000000e00014003a0082a12000c1002000ed
:103d84002000200084ff0700000f780082a120009b
:103d9400c1002000100020007fff0700000f780002
:103da4002e019000c1002000200020007aff0700af
:103db400000f78002e019000c100200010002000a8
:103dc40075ff0700000f78001e0078000080fa00dd
:103dd400000006000600fa0010079800210798006a
:103de4000000eb00000f78001e009000e30f50006d
:103df4003e003200e30f500007003c00e10f50008a
:103e040018003200e10f500027003c000000e000e1
:103e14000800320079003700e50f500055003200e9
:103e2400e50f500042003500e60f500062003200fa
:103e3400720037008001eb000001eb008000eb0012
:103e440020002000ef0307002c0407002e0190003f
:103e5400c10020000000eb006d040700000f780093
:103e6400660037008001eb00120020008000eb00a8
:103e740020002000e3030700200407002e01900027
:103e8400310020001000200061040700000f7800ba
:103e94002e01900031002000300020005c04070057
:103ea400000f7800550037008001eb00220020004d
:103eb4008000eb0020002000d20307000f0407005d
:103ec4002e019000c10020000000eb005004070008
:103ed400000f78002e019000c10020003000200067
:103ee4004b040700000f7800440037008001eb000a
:103ef400320020008000eb0020002000c1030700f6
:103f0400fe0307002e019000c10020000000eb001a
:103f14003f040700000f78002e019000c10020002c
:103f2400300020003a040700000f78003300370007
:103f34008001eb00420020008000eb002000200004
:103f4400b0030700ed0307002e019000c10020001c
:103f5400200020002e040700000f78002e0190009e
:103f6400c10020004000200029040700000f780051
:103f7400220037008001eb00520020008000eb009b
:103f8400200020009f030700dc0307002e0190009f
:103f9400c1002000200020001d040700000f78004d
:103fa4002e019000c10020004000200018040700ea
:103fb400000f7800110037008001eb006200200040
:103fc4008000eb00200020008e030700cb030700d5
:103fd4002e019000c1002000200020000c040700e6
:103fe400000f78002e019000c10020004000200046
:103ff40007040700000f7800000000001e0078008e
:104004000080fa00000006000600fa00100798007d
:10401400210798000000eb00000f78001e009000bc
:10402400e30f500034003200e30f500007003c005f
:10403400e10f500018003200e10f500022003c0054
:104044000000e000080032005b003700e50f50007c
:1040540041003200e50f500033003500e60f5000f8
:1040640049003200540037008001eb000001eb00ee
:104074008000eb002000200062030700b603070065
:104084002e019000c10020000000eb00090507008c
:10409400000f780048003700130020000001eb00f7
:1040a4008000eb002000200056030700aa0307004d
:1040b4002e019000c100200010002000fd04070024
:1040c400000f78003c003700230020000001eb00c3
:1040d4008000eb00200020004a0307009e03070035
:1040e4002e019000c100200010002000f104070000
:1040f400000f780030003700330020000001eb008f
:104104008000eb00200020003e030700920307001c
:104114002e019000c100200010002000e5040700db
:10412400000f780024003700430020000001eb005a
:104134008000eb0020002000320307008603070004
:104144002e019000c100200020002000d9040700a7
:10415400000f780018003700530020000001eb0026
:104164008000eb0020002000260307007a030700ec
:104174002e019000c100200020002000cd04070083
:10418400000f78000c003700630020000001eb00f2
:104194008000eb00200020001a0307006e030700d4
:1041a4002e019000c100200020002000c10407005f
:1041b400000f7800000000001e0078000080fa0064
:1041c400000006000a00fa00100798002107980072
:1041d40032079800034f98000000eb00000f7800ae
:1041e4000e4890000004e000140032003e009000ed
:1041f400e70f500008003c00110020003e00900032
:104204000008dd008040780064c8bf0000c0700072
:1042140064e8b7001e0037003e00900068005000bc
:10422400110020000008dd008040780065c8bf0050
:1042340000c0700065e8b700150037003e0090002c
:10424400e70f500009003c00110020003e009000e0
:104254000008dd000040780080c0ea0064c8bf00a8
:1042640000c0600064e8b700090037003e00900019
:1042740068005000110020000008dd0000407800b4
:1042840080c0ea0065c8bf0000c0600065e8b700f0
:104294001e009000e10f500013003a0064c8bf00f4
:1042a4008000fb00f00f2000008160002e009000d1
:1042b4006c00b9008000780000902000008040006d
:1042c4000208780065c8bf000001fb002e009000c2
:1042d4006c00b9008000780020902000008040002d
:1042e40002087800180037001e009000e20f50000a
:1042f40013003a0064c8bf008000fb00f00f2000e8
:10430400008160002e0090006c00b90080007800ed
:1043140000992000008040000208780065c8bf00b2
:104324000001fb002e0090006c00b90080007800b2
:104334002099200000804000020878000200370025
:1043440020012000000f78001e0078000080fa0091
:10435400000006001000fa0050079800610798005a
:10436400720798000000eb00000f78000000eb00db
:10437400300798000000eb00400798000000eb00b5
:1043840010079800220037000000eb002007980077
:10439400190037003e0090000000e00013003a00ce
:1043a400ce00900030062000808f500007003400bb
:1043b40013c0b3002e019000ee0090005e00900048
:1043c40080ff070010002000000f78004e009000ce
:1043d400f40f500005003c008041eb002e019000da
:1043e400ee0090005e00900076ff07002e00900023
:1043f4000000e800200798002e009000ec0f500009
:10440400e4ff34001e0090000000e800100798004c
:104414001e009000ec0f5000dbff34005e009000a3
:104424004a0107001e0078000080fa000000060020
:104434000800fa00100798002107980062479800c6
:104444000000eb00000f78006e4090000004e000d4
:1044540006003200018620009140780000c8b300b5
:1044640000c0700060e8b7000300370060c8bf00f8
:104474000074a10060e8b7001e009000e10f500036
:1044840009003a0060c8bf000001fb002e00900044
:104494006c00b90080007800808f2000008040000c
:1044a40002087800100037001e009000e20f500050
:1044b40009003a0060c8bf000001fb002e00900014
:1044c4006c00b900800078008098200000804000d3
:1044d400020878000400370020012000000f780053
:1044e4001e007800010037001e0078000080fa00ea
:1044f400000006000000fa00100020000080fa000e
:10450400000006000a00fa0010079800210798002e
:1045140032079800430798000000eb00000f780072
:104524001e0090000040780061e8b7009e009000f3
:1045340000f02000008060004880de0080407800a9
:104544002e0090004400dd000040780000c04000d0
:1045540062e8b700ae00900000ff20000080600019
:104564004480de000040780063e8b7003e0090001d
:10457400e10f500019003a0061c8bf000001fb00c0
:104584004e0090006c00b90080007800a08f2000dd
:10459400008040000208780062c8bf000001fb00f0
:1045a4004e0090006c00b90080007800c08f20009d
:1045b400008040000208780063c8bf000001fb00cf
:1045c4004e0090006c00b90080007800e08f20005d
:1045d40000804000020878001e0037003e00900072
:1045e400e20f500019003a0061c8bf000001fb004f
:1045f4004e0090006c00b90080007800a098200064
:10460400008040000208780062c8bf000001fb007f
:104614004e0090006c00b90080007800c098200023
:10462400008040000208780063c8bf000001fb005e
:104634004e0090006c00b90080007800e0982000e3
:1046440000804000020878000200370020012000aa
:10465400000f78001e0078000080fa0000000600b9
:104664000800fa0010079800210798006247980094
:104674000000eb00000f78006e4090000004e000a2
:104684000400320060c8bf000004a00060e8b70066
:10469400050037000186200091407800e0cfb30088
:1046a40000c0600060e8b7001e009000e10f5000f9
:1046b40009003a0060c8bf000001fb002e00900012
:1046c4006c00b90080007800808f200000804000da
:1046d400020878000e0037001e009000e20f500020
:1046e40009003a0060c8bf000001fb002e009000e2
:1046f4006c00b900800078008098200000804000a1
:10470400020878000200370020012000000f780022
:104714001e0078000080fa00000006000600fa007f
:1047240010079800210798000000eb00000f7800a4
:104734006468ef00518620009140780000cfb300f8
:1047440000c0600065e8b7001e009000e10f500053
:1047540011003a0064c8bf000001fb002e00900065
:104764006c00b900800078000090200000804000b8
:104774000208780065c8bf000001fb002e0090000d
:104784006c00b90080007800209020000080400078
:1047940002087800160037001e009000e20f500057
:1047a40011003a0064c8bf000001fb002e00900015
:1047b4006c00b9008000780000992000008040005f
:1047c4000208780065c8bf000001fb002e009000bd
:1047d4006c00b9008000780020992000008040001f
:1047e400020878000200370020012000000f780042
:1047f4001e0078000080fa00000006000600fa009f
:1048040010079800210798000000eb00000f7800c3
:1048140065c8bf006f40600065e8b7001e009000e7
:10482400e10f500009003a0065c8bf000001fb0019
:104834002e0090006c00b9008000780020902000c9
:1048440000804000020878000e0037001e0090002f
:10485400e20f500009003a0065c8bf000001fb00e8
:104864002e0090006c00b900800078002099200090
:104874000080400002087800020037002001200078
:10488400000f78001e0078000080fa000000060087
:104894000800fa0010079800210798006247980062
:1048a4000000eb00000f78006e4090000004e00070
:1048b4000400320060c8bf000024a00060e8b70014
:1048c400050037000186200091407800b0cfb30086
:1048d40000c0600060e8b7001e009000e10f5000c7
:1048e40009003a0060c8bf000001fb002e009000e0
:1048f4006c00b90080007800808f200000804000a8
:10490400020878000e0037001e009000e20f5000ed
:1049140009003a0060c8bf000001fb002e009000af
:104924006c00b9008000780080982000008040006e
:10493400020878000200370020012000000f7800f0
:104944001e0078000080fa00000006000400fa004f
:10495400100798000000eb00000f78001e00900084
:10496400e10f500004003a00818f2000c0002000b5
:1049740034050700090037001e009000e20f5000c4
:1049840004003a0081982000c00020002d05070093
:104994000200370020012000000f78001e0078007c
:1049a4000080fa00000006000000fa0081c4b30091
:1049b4000040eb00c20d0700cf80de00edf00700e1
:1049c400e0458800f145880081c4b30010c0b300fd
:1049d400bb0d0700cf80de00e6f00700004688002c
:1049e4001146880081c4b30020c0b300b40d070091
:1049f400cf80de00dff007002046880031468800c3
:104a040081c4b30030c0b300ad0d0700cf80de0019
:104a1400d8f007004046880051468800b1c4b3006e
:104a24000040eb00a60d0700cf80de00d1f00700a8
:104a34006046880071468800b1c4b30010c0b3005a
:104a44009f0d0700cf80de00caf007008046880073
:104a5400914688002d0007000080fa00000006003f
:104a64000000fa0021c0b30020c0b300940d070079
:104a7400cf80de00bff007006042880071428800ea
:104a840021c0b30030c0b3008d0d0700cf80de001d
:104a9400b8f007008042880091428800604280009c
:104aa4007142800002002f00f35724004af00700ef
:104ab40002002000030a240004f1070042e122005e
:104ac400e331240001f1070060428800714288004c
:104ad400804280009142800002002f00f35724009e
:104ae4003df0070002002000030a2400f7f007004d
:104af40042e12200e3312400f4f007008042880000
:104b0400914288000080fa00000006000000fa00cc
:104b1400881f78004828ef001500370048428000bd
:104b240040428000c200dd00c08b200000804000b5
:104b34001000be0002002f00f357240026f00700e7
:104b440002002000030a2400e0f0070068f00700d8
:104b54008000780008014400008b20000000410020
:104b640001087800404280000000e80040428800cc
:104b740040428000e40f5000e8ff34004f04780006
:104b84000080fa00000006000000fa008868ef00c8
:104b94000080fa00000006000200fa00889fbe00b0
:104ba400000f780088c8bf000004e000280032002d
:104bb400a8428000b9428000814580001e00780030
:104bc4000088b90000007800cf80de0069f007009b
:104bd4000001be000800be00a1ef0700a04288004b
:104be400b1428800c8428000d9428000a1458000bb
:104bf4001e0078000088b90000007800cf80de0035
:104c04005cf007000001be000800be0094ef07003e
:104c1400c0428800d1428800e8428000f942800006
:104c2400c14580001e0078000088b90000007800ab
:104c3400cf80de004ff007000001be000800be0078
:104c440087ef0700e0428800f14288002a0037001d
:104c5400914580001e0078000088b90000007800ab
:104c6400cf80de0043f007000002be00a0428000b7
:104c7400b14280000001be000400be0079ef0700cd
:104c8400a0428800b1428800b14580001e0078002f
:104c94000088b90000007800cf80de0035f00700fe
:104ca4000002be00c0428000d14280000001be006c
:104cb4000400be006bef0700c0428800d1428800a8
:104cc400d14580001e0078000088b90000007800fb
:104cd400cf80de0027f007000002be00e042800023
:104ce400f14280000001be000400be005def070039
:104cf400e0428800f14288004f04be000080fa00c0
:104d0400000006000200fa00004f780011479800e6
:104d14001e4078000004e0000f00320088c8bf0085
:104d24000004e0000600320081458000a0458000b8
:104d340080804000c045800000804000260037008d
:104d440091458000b045800080804000d0458000bf
:104d5400008040002000370088c8bf000004e00045
:104d64000e0032001e4090000000fb00e20f5000d5
:104d740006003200e30f500006003200e10f50003d
:104d840014003a008045800013003700a0458000dd
:104d940011003700c04580000f0037001e4090000e
:104da4000000fb00e20f500006003200e30f500049
:104db40006003200e10f500006003a0090458000e2
:104dc40005003700b045800003003700d04580005f
:104dd400010037000080eb000080fa0000000600ac
:104de4000000fa00f00c07008001eb000001eb006a
:104df4008000eb0020002000020007000080fa0081
:104e0400000006000a00fa00100798002107980025
:104e140032079800430798001e009000620060006b
:104e24000080d100000f78001e80e80080438800d5
:104e34001e009000c700dd00f00f2000008f60000e
:104e4400020620009e0041002e0090004400dd0078
:104e5400808040003e009000008040009043880025
:104e64001e009000620060000080d100000f7800f6
:104e74009e00780064804000a04388001e009000db
:104e8400c700dd00f00f2000008f60000206200044
:104e94009e0041004e00900000804000b043880016
:104ea4000080fa00000006000600fa0010079800cf
:104eb400210798001e009000620060000080d1006d
:104ec400000f78009e00780064804000c043880092
:104ed4001e009000c700dd00f00f2000008f60006e
:104ee400820620009e0041002e00900000804000b9
:104ef400d04388000080fa00000006000a00fa008f
:104f04008043800010079800904380002007980099
:104f14000187200020002000d9040700000f78003a
:104f24001e0078004880de00300798009e0078005c
:104f340041079800c3040700c282a9000e80e8005c
:104f44008000780040002000f4040700c282a8001a
:104f54000080fa00000006000a00fa00a043800066
:104f640010079800b0438000200798004187200074
:104f740020002000c2040700000f78001e00780003
:104f84004880de00300798009e00780041079800b2
:104f9400ac040700c282a9000e80e80080007800fb
:104fa40040002000dd040700c282a8000080fa004f
:104fb400000006000a00fa00c043800010079800b1
:104fc400d043800020079800818720002000200023
:104fd400ab040700000f78001e0078004880de0054
:104fe400300798009e007800410798009504070058
:104ff400c282a9000e80e8008000780040002000f2
:10500400c6040700c282a8000080fa00000006005f
:105014001c00fa00300f9800410f9800520f9800be
:105024000000eb00000f78000000eb001007980070
:10503400800020004007980060002000500798007e
:1050440030002000600798000000eb002007980063
:105054000000eb0030079800ce0090004e0890004e
:105064000088b900000078000000400025f0070027
:10507400700798003e0890000000e00064003a00c9
:1050840010002000000f78005d0037000000eb00e6
:10509400300798007e019000ce0890001e00780032
:1050a400bc0007006c28ef00500037000000eb0044
:1050b40010079800230037003e00900000004000d5
:1050c400fe00900000804000900078003e009000b8
:1050d4000000e800000040007e0190000000410054
:1050e400100078004800dd0000804000000f9800a8
:1050f400604380007800b90000007800de0890006a
:10510400008140009e00e9006e0090000088b90014
:10511400800078001e0090000080400000004000e5
:10512400000041008e089000010878003e009000c5
:105134000080e800300798001e0090000000e8009e
:10514400100798009e0090006e009000808f500021
:10515400d9ff35003e00900000004000fe009000a2
:105164000080400010007800c800dd003e00900080
:105174000000e800000040007e01900000004100b3
:105184001000780000804000100f980061438000f8
:105194004e0090000088b900000078000000400034
:1051a400fe00900000804000800078005e009000c7
:1051b40033040700200f98009e0890002e089000ea
:1051c400808f5000030032002e0090000000e900a0
:1051d400200798003e0090000080e8003007980007
:1051e400604380000000e800604388006143800061
:1051f4004e089000808f5000acff35001e0fe80071
:105204001e007800e40f5000a0ff34005c0037005b
:105214007e019000ce0890003e0890005d000700db
:105224006c28ef00520037000000eb0010079800d4
:10523400240037003e00900000004000fe00900073
:1052440000804000900078003e0090000000e800dc
:10525400000040007e019000000041001000780032
:105264004800dd0000804000000f9800604380008b
:105274007800b90000007800de089000008140004a
:105284003e0890008000e9006e0090000088b9009c
:10529400800078001e009000008040000000400064
:1052a400000041008e089000010878003e00900044
:1052b4000080e800300798001e0090000000e8001d
:1052c400100798009e0090006e009000808f5000a0
:1052d400d8ff35003e00900000004000fe00900022
:1052e4000080400010007800c800dd003e009000ff
:1052f4000000e800000040007e0190000000410032
:105304001000780000804000100f98006143800076
:105314004e0090000088b900800078003e0890009c
:105324000000e900000040000088b9000000780097
:10533400fe00900000804000800078005e00900035
:10534400cf030700200f98009e0890002e089000bd
:10535400808f5000030032002e0090000000e9000e
:1053640020079800604380000000e8006043880044
:10537400614380004e089000808f5000aaff3500e2
:105384007e009000e8ef07002e0090000080fa00f5
:10539400000006001000fa0050079800610798000a
:1053a400720798005e009000e10f500005003a007b
:1053b40040002000200798000000eb001007980030
:1053c400170037005e009000e20f500005003a001d
:1053d40060002000200798000000eb0010079800f0
:1053e4000f0037005e009000e30f500005003a0004
:1053f40080002000200798000000eb0010079800b0
:10540400070037005e009000e40f500004003a00eb
:10541400a0002000200798000000eb00100798006f
:10542400880307006c28ef001c00370060438000ed
:105434004300dd000008b000100798000e80e8006b
:1054440080007800200020008d030700000f780002
:105454001e0078004880de00300798009e00780027
:1054640041079800c282a900604380004400dd0027
:10547400fe009000808040000e80e8008300200041
:105484000101780041002000b8030700c282a8008f
:10549400604380000000e8006043880061438000ae
:1054a4006e009000808f5000e0ff35000080fa000d
:1054b400000006001a00fa00200f9800310f98002f
:1054c400420f9800800020004007980060002000f0
:1054d4005007980030002000600798000000eb009f
:1054e400000f78000000eb00100798000000eb00ac
:1054f400200798000040eb0060479800ce00900021
:105504003e0890000088b9000000780000004000c8
:10551400fcee0700700798002e0890000000e000e1
:1055240064003a0010002000000f78005d0037008e
:105534000000eb00200798007e019000be08900058
:105544001e007800b70007006c28ef0050003700f9
:105554000000eb0010079800210037006043800032
:105564006c00b90000007800ce0890000081400073
:105574009e00e9006e0090000088b9008000780069
:105584001e00900000804000ae009000818040002a
:10559400fe0190008180410091017800ae009000ee
:1055a4008100e800818040007e029000810042007a
:1055b40091007800c808dd008180410000004000af
