:020000040000fa
:080000000002040000000000f2
:020000040000fa
:100008009604000096040000960400009604000080
:100018009604000096040000960400009604000070
:10002800960400009604000096040000aa0200004e
:10003800960400009604000096040000c602000022
:10004800ec020000960400009604000094420000b0
:10005800f042000096040000960400009604000098
:100068009604000096040000960400009604000020
:100078009604000096040000960400009604000010
:100088009604000096040000960400009604000000
:1000980096040000960400009604000096040000f0
:1000a80096040000960400009604000096040000e0
:1000b80096040000960400009604000096040000d0
:1000c80096040000960400009604000096040000c0
:1000d80096040000960400009604000096040000b0
:1000e80096040000960400009604000096040000a0
:1000f8009604000096040000960400009604000090
:10010800960400009604000096040000960400007f
:10011800960400009604000096040000960400006f
:10012800960400009604000096040000960400005f
:10013800960400009604000096040000960400004f
:10014800960400009604000096040000960400003f
:10015800960400009604000096040000960400002f
:10016800960400009604000096040000960400001f
:10017800960400009604000096040000960400000f
:1001880096040000960400009604000096040000ff
:1001980096040000960400009604000096040000ef
:1001a80096040000960400009604000096040000df
:1001b80096040000960400009604000096040000cf
:1001c80096040000960400009604000096040000bf
:1001d80096040000960400009604000096040000af
:1001e800960400009604000096040000960400009f
:0801f8009604000096040000cb
:020000040000fa
:10020800960400009604000096040000960400007e
:10021800960400009604000096040000960400006e
:10022800960400009604000096040000aa0200004c
:10023800960400009604000096040000c602000020
:10024800ec020000960400009604000094420000ae
:10025800f042000096040000960400009604000096
:10026800960400009604000096040000960400001e
:10027800960400009604000096040000960400000e
:1002880096040000960400009604000096040000fe
:1002980096040000960400009604000096040000ee
:1002a80096040000960400009604000096040000de
:1002b80096040000960400009604000096040000ce
:1002c80096040000960400009604000096040000be
:1002d80096040000960400009604000096040000ae
:1002e800960400009604000096040000960400009e
:1002f800960400009604000096040000960400008e
:10030800960400009604000096040000960400007d
:10031800960400009604000096040000960400006d
:10032800960400009604000096040000960400005d
:10033800960400009604000096040000960400004d
:10034800960400009604000096040000960400003d
:10035800960400009604000096040000960400002d
:10036800960400009604000096040000960400001d
:10037800960400009604000096040000960400000d
:1003880096040000960400009604000096040000fd
:1003980096040000960400009604000096040000ed
:1003a80096040000960400009604000096040000dd
:1003b80096040000960400009604000096040000cd
:1003c80096040000960400009604000096040000bd
:1003d80096040000960400009604000096040000ad
:1003e800960400009604000096040000960400009d
:0803f8009604000096040000c9
:020000040000fa
:10040000af9721000e7f24000e018800000000003d
:10041000000020000000e000020032000001200087
:10042000200288000c000700007b2400010020004f
:1004300011000700000020000000e0000200320070
:100440000000020000000000ea4b02000000000073
:100450000040da000000fe004440a9008041200076
:100460000000e0000300320000002000a00188002e
:100470004440a80000000600910188008000780038
:100480000000eb0015003700e280400032a0b4000d
:100490009101ba00e280400032a0b4009102ba009b
:1004a000e280400032a0b4000002eb00472bde00e7
:1004b000f507b200602ce10004003a000059eb009f
:1004c0008301e900fdff3e00040037006128e100e0
:1004d000010032000082eb00040007001101ba00a5
:1004e0000200e000e8ff3a00000006003159ba00bf
:1004f0008301e9000c0032002159ba008301e900b0
:10050000080032000400e00003003a00e2804000ee
:1005100032a0b400f5ff370011d9ba008301e90019
:10052000faff3a008100e800e180400032a0b40008
:100530000000060044420400000000005242040093
:100540000000000060420400000000006e42040051
:1005500000000000801f7800849fbe000000fa00a9
:10056000a4b18000b5b1800061024200e0824a007f
:10057000a4b18800b5b188008460a9000080fa00a9
:100580004f02be004f007800004006003600f80021
:10059000809fbe00829fbe00849fbe00869fbe00db
:1005a0000000fa00a4b18000b5b180000402780018
:1005b000040078000215070084e0a9000080fa001a
:1005c0004f03be004f02be004f01be004f00be00f1
:1005d0003600f90000400600801f78000000fa0095
:1005e00084e0a9000080fa004f0078000040060077
:1005f0000000fa0005e1a9000421a90024088000f8
:100600000440a1000450a000240888000002eb0070
:1006100004088800c42b2000140888008460a90006
:100620009460a80005e1a8000080fa000000060020
:100630000000fa001061a90011e1a9001021a90031
:1006400010c1a900840880000440a0000450a0004c
:10065000840888000002eb00340888000082eb0068
:100660006408880084e0a90094e0a80011e1a800d3
:100670000080fa00000006000000fa0013e1a90063
:100680001221a90012c1a900940880000440a00012
:100690000450a000940888000002eb005408880071
:1006a0000082eb00740888008500a9009500a8006e
:1006b00013e1a8000080fa00000006000000fa0024
:1006c000a6b18000b7b1800024b2800035b28000ae
:1006d0000403530085835b00e4b18000f5b1800022
:1006e0000602420087824a00e4b18800f5b1880022
:1006f000a4b18000b5b1800024b2880035b2880072
:10070000a6b18000b7b1800064b2800075b28000ed
:100710000403530085835b0084b1800095b18000a1
:100720000602420087824a0084b1880095b18800a1
:10073000a4b18000b5b1800064b2880075b28800b1
:10074000a6b18000b7b1800044b2800055b28000ed
:100750000403530085835b0004b2800015b280005f
:100760000602420087824a0004b2880015b288005f
:10077000a4b18000b5b1800044b2880055b28800b1
:10078000a6b18000b7b1800084b2800095b280002d
:100790000403530085835b00c4b18000d5b18000a1
:1007a0000602420087824a00c4b18800d5b18800a1
:1007b000a4b18000b5b1800084b2880095b28800f1
:1007c0000080fa00000006000200fa00004f7800e6
:1007d0001e427800e14f520004003a00e4b180006c
:1007e000f5b1800004027800160037001e42780040
:1007f000e24f520004003a0084b1800095b18000bd
:10080000040278000f0037001e427800e34f5200c8
:1008100004003a0004b2800015b28000040278009f
:10082000080037001e427800e44f520004003a00ee
:10083000c4b18000d5b18000040278000100370007
:100840000082eb00040078000080fa00000006003f
:100850000400fa00004f7800110798001e4278004b
:10086000e14f520005003a001e029000cfa2de00c8
:10087000e4b18800f5b18800170037001e42780007
:10088000e24f520005003a001e029000cfa2de00a7
:1008900084b1880095b188000f0037001e427800af
:1008a000e34f520005003a001e029000cfa2de0086
:1008b00004b2880015b28800070037001e42780095
:1008c000e44f520004003a001e029000cfa2de0066
:1008d000c4b18800d5b188000080fa00000006008d
:1008e0000200fa00000f78001e027800cfa2de009e
:1008f00004b2880015b288000080fa0000000600eb
:100900000000fa00248c8000e00f52000200320048
:10091000ca62a800ca62a900248c8000a4b2880020
:100920000002eb00248c8800ffff37000040da0053
:100930000000fe000a00fa00e20f500022003e0014
:1009400014bc8000e10f5200060032008723200013
:10095000462320002423200005232000e08f53009d
:1009600004003a0087222000462220002422200092
:1009700005222000000028001500600003003a0056
:10098000800b780007002800958a7300054020003e
:100990009482620001003a0014a0a0008202780054
:1009a00006003700940378000710b200fdff320004
:1009b000b103fb00070b78008502e900e08f5200cd
:1009c000f8ff3a000800370034002000c0bf9f0045
:1009d000e2bf9f00b4bf9f00d1bf9f006a80570055
:1009e0003b0507006fb99700020078000080fa000d
:1009f00000000600889fbe008004780020bc8000b4
:100a0000e00f500004003a000e0007000084eb00e5
:100a1000e00f50000800350028bc8000e08f540033
:100a2000050032000900440006000700e00f5000f6
:100a300001003d000084eb00080078004f04be0078
:100a400000000600e00f500004003a006478210026
:100a500024bc880000027800060037000082eb000a
:100a6000a5972100850f500002003e0020bc8800a1
:100a70000002eb00040078000000060003f0a20072
:100a8000889fbe008a9fbe008c1f7800fe00070072
:100a9000050133006450e1004f0032006420e100a2
:100aa0005200320003826c0007003b000905d000b1
:100ab0000306d000820f54000c065d0002003900ce
:100ac0000200320089017800030678008582550013
:100ad00004003d000003fd008103fd008502ea00e3
:100ae0008b854200840f720002003b006000100002
:100af000e08018006011b8000005eb007a28e100e2
:100b00000a00390006007800c75ddd00f707b20073
:100b1000878075002d003700828171000a017800fe
:100b2000610560008180d1000080d3008502e9006a
:100b3000f9ff3b00060440008784480002003b00a8
:100b400060041400e0841c000988a3000700320040
:100b50008a81710082817100610164008904d10081
:100b60000884d3008b05e800170037000978a3003c
:100b700013003a000b00e000130034008b05e9007d
:100b80000804440089844c000a4474000978a300d6
:100b90000d003a000b00e000070034008b05e9006f
:100ba0000804440089844c0001003a000b00200036
:100bb0000978a300f7ff32000001eb0002003700c4
:100bc000828171000a017800740007000cf0a70010
:100bd00001f0a000bd0037006420e10002003a00ef
:100be000838f6c00bd0033000801be000200be0010
:100bf000b6003700889fbe008a9fbe008c1f780019
:100c0000a1000700a800330003866c006450e100d7
:100c10002e0032006420e100330032006150e10018
:100c20002f0032006120e10031003200858555003f
:100c3000eb07b00009002000080420000500370081
:100c40000804440089844c000a0031000603430074
:100c500087834b000001530081815b00f8ff330064
:100c60000203be000800a0000804440089844c0070
:100c7000f6ff3900c639dd00830173000100320040
:100c8000130020008904d1000884d3000998a30030
:100c9000050032000800a7000300a0008904d1006d
:100ca0000884d3008b05e8008904d1000884d300b0
:100cb0000001eb000281d2003800070001f0a10022
:100cc0000cf0a70001f0a000800037006420e100d4
:100cd000820032000801be000200be00f7ff3700ac
:100ce0006120e1007d0032006000b800f3ff3700b2
:100cf0000000200001f82700f0ff3700140020005a
:100d00007d023700f4ff2f007b0237000001be0098
:100d1000480007000470a70003f0a1006509b100b6
:100d2000160032000d0035006828e100060035008d
:100d3000f0ff2f00f1ff27000300e00013003b004d
:100d400001002800000005000000400081804800ec
:100d50008502e900fcff3a0008003700f88f4200e6
:100d600002003c008000eb00000005008100d10083
:100d70000080d3008502e800fcff3a000300e00099
:100d800002003b0060001000e08018000000060038
:100d90004f89de0082017800720237008100200056
:100da000618055000b003d000b00200061fe2f000c
:100db0000100e1001d0034008281710061016400c6
:100dc0008904d1000884d3000000e800faff3a004b
:100dd00071002000610064000300700002006000e8
:100de0000900320061044400e0844c000988a50039
:100df000050032008b05e8006808e10002003a00b7
:100e00008904d1000884d300f20f20000258e100c9
:100e100005003d00c75ddd00f907b200898075005f
:100e200008007800000006000bf827008b0078000f
:100e300000000500c70ade00f107b200f50fb2009e
:100e400008003200e1cf4200020032000170a00031
:100e500024000500810f7000010032000408050025
:100e600044000500810f700002003a0014000500e4
:100e70008502e9000000400081c04800fcff3b0003
:100e80000170a000240005000004be00e9ff070077
:100e90000003be000405be000200be00e5ff07001f
:100ea000844f7500000006000200be006450e1009f
:100eb000050036006420e100020036000968a30046
:100ec00001003a000800be000160a0004f06780053
:100ed0004f05be004f04be0000000600f0ff2f00cb
:100ee000f1ff2700f9ff3700889fbe008a9fbe00f0
:100ef0008c9fbe006a010700850478000005be00d3
:100f00006420e10049003e006220e100030032005d
:100f1000090035000bf8a300440032000bf8a300d1
:100f20000800320010022000d0b38800f0ff2f002c
:100f3000f1ff27003d00370001f82f0000002000de
:100f40003a0037003d000700ccfe07000006be0057
:100f50000a00be00324f200053f3230069ff070050
:100f6000060034000c00be0034000700c3fe07007a
:100f70000006be000a00be00020037008904e90036
:100f80000c00be002d0007002e0007002b000700fc
:100f9000bbfe07000001be000c00be0015ff0700ed
:100fa0000005be000001be00260007000006be00ce
:100fb000a2f32300430d2c00b1fe0700809fbe006a
:100fc0000c00be00d2e32700d3f02b001d00070069
:100fd0004f01be0007ff07000006be000a01be0069
:100fe000180007000a01be00a5fe07000006be00ab
:100ff0006148b90066ff07000005be0032082800fe
:10100000e3952b000f0007000c01be009cfe0700bb
:101010000006be000a00be000200280013f32300f1
:10102000080007000c01be0095fe07004f06be0039
:101030004f05be004f04be000000060003f0230071
:1010400002000500889fbe008a9fbe008c1f7800aa
:101050008dff070094ff330003866c006450e100ad
:10106000240032006420e100270032006150e100da
:10107000220032006120e100210032008b85420015
:10108000eb07b1000134b800003ab8000804420090
:1010900089844a00013ab8000030b80088804000d6
:1010a00009014a000400330000004000818048002c
:1010b000020149008b05e900c909dd0083017000c8
:1010c0000100320013002000c814de004814dd00c7
:1010d0004709de001200b200c808de000884700074
:1010e0002eff070001f0a1000cf0a70001f0a00006
:1010f00076ff37006120e10078ff32000801be0072
:101100000200be00f7ff37006150e100fcff3a002b
:1011100072ff37000c00fa00889fbe008a9fbe0055
:101120008c9fbe0058ff07000206be0084057800b1
:101130000200be00020020004801070005003a003e
:101140008b02b300120020004401070001003a00a6
:10115000f8856d000c01be00c60007000800be0047
:101160009b0032000b08a3009e003a000df0a70080
:101170000be0a00009f0a7000bf0a00009f0a1000f
:101180000801be00bb0007000bf0a600950032006e
:1011900001003c000bd0a0008acf7500b2003300e4
:1011a0006000b8006250e10099003900a1003e00e3
:1011b0000b28a300a2003a000bf8a300060032009f
:1011c0000b58a300a70032000801be00a9000700c9
:1011d0000800be00940032000800be00b000070006
:1011e0000004be00050578000bf0a7000b30a60038
:1011f0000bf0a1005b079800324f200053f323004f
:10120000befe070005003d000800be0012002000e1
:10121000930107000004be000a05e9004a07980090
:101220006150b900dafe0700008fbe000c01be005d
:1012300084ff0700b5fe0700300798000100e000ba
:1012400002003d0060001000e0801800f2ff27005f
:10125000820f5000e08f580064003e000c00be007a
:10126000aafe070020079800f2072000820f500016
:10127000e08f580005003c0012f82f00f3ff2f000c
:10128000820f5000838f580009003d000a00e000e3
:101290000300320001003c000201ea000205780070
:1012a0006000b800200798003a079800190037003e
:1012b0003e0090006100b900b5fe0700809fbe00af
:1012c0000c00be004109dd004811de007208b100cb
:1012d000e20007000005be001e01be0059ff070026
:1012e0004f01be00e5fd0700809fbe000c00be0060
:1012f0000a01be00e1fd07001e01be0051ff07000c
:101300004f01be00defd07008221270013f32300fa
:101310004cff07000005be002e0090006100b900e0
:101320009bfe070001f0a2000c01be00d4fd0700e7
:101330000006be000800be00ebfe07000c01be0068
:1013400040ff07000a01be00cdfd0700809fbe00e0
:101350004a0007002e0590000af0a7000a05ea00df
:10136000050037000800be000801be0035ff070079
:101370000004be000c00be000801be000a00a70069
:1013800030ff07000006be000a05d100f5ff3a0055
:101390005e01900002e0a600030037000001be00dd
:1013a0003600070013fe07000004be004f00be0019
:1013b000480007000801be0022ff07003e01900020
:1013c00027010700de0590000bf0a70001f0a20046
:1013d0004f06be004f05be004f04be000080fa005d
:1013e0000000060025000700f9ff3700270007006e
:1013f0006000b8000bd0a7000bc0a0000be0a70056
:101400000bc0a2000bc0a70001f82700f0ff3700b7
:101410000df8a300020032001e00070019000700ab
:101420000bf8a300eaff32000b30a70001f0a20086
:10143000e7ff37000df8a300f9ff3a00f7ff370088
:101440000801be000b000700e6ff320001003c006f
:101450000df0a2006000b8000df0a7000900070021
:10146000dbff37000b000700f1ff2700f0ff2f0024
:10147000d7ff37000100070020fe370001f82300e6
:101480000000050001f827000000050020022000f0
:101490000100370010022000d0b3880000000600d1
:1014a0000003be0063fe07006220e100020032007c
:1014b0000600be0005000500e507b100f107b20017
:1014c00004f023008480700007f0a70001f0a00062
:1014d00024000500889fbe008a9fbe008c9fbe002e
:1014e0000004be0053fe07000800be006420e100b7
:1014f00048003e005500320072212700132b2400c3
:1015000000fe070047003c000800be00c2ec2800b7
:10151000e32c2c00f9fd0700470035000800be0051
:1015200001f0a1000200200003382300f3fd0700b2
:10153000430035000800be00b2a32a0083fb23004d
:10154000c0fe07000200200003f0230001f0a70006
:1015500003f0a0004afd0700ecfd07000005be00f7
:101560000bfe070001f0a2000006be0002002800ea
:1015700013f32300b3fe07000801be0040fd07007f
:10158000809fbe000c00be0032082800e3952b00af
:10159000acfe07004f01be0039fd07000006be008b
:1015a0000001be00a7fe0700809fbe00424125004b
:1015b00083b82300a3fe07000200200003e82300f5
:1015c0002ffd07000c01be009efe07000006be00b6
:1015d0004f00be00f2f92b00c3d4230099fe070090
:1015e0000200200003f0230025fd07000c01be00cf
:1015f00022fd07000001be000c00be007dfd0700bb
:101600000200200003f023001dfd070061014500da
:10161000930007004f06be004f05be004f04be00fa
:101620000000060001f82700000020002202200030
:10163000d2b38800f7ff37006000b800fbff370027
:1016400001f8230000002000f2ff370009f8a30092
:10165000f0ff32006000b800eeff3700889fbe0048
:101660008a9fbe000003be00f2fd070085057800da
:1016700082815200020020006220e10004003a0052
:10168000f307b100040035007718e10004003500cd
:101690000600be00140037006000b8000f003700dd
:1016a000f50f2000faff2f008502d1000a85d30034
:1016b0008301e900fcff3b008184620000046500b7
:1016c000890f7400f2ff32008582ea000a85ea0081
:1016d0008184620000046500b0fd070007f0a700e8
:1016e00001f0a0000081eb000200e0004f05be0009
:1016f0004f04be0000000600889fbe008a9fbe0007
:10170000841f7800e0fd07004f00780011003300cf
:10171000f0ff2f00838f6c0006003b00040565007e
:101720000a00a7000800370009f0a60010002000fa
:1017300008003700820f5400838f5c0003003900db
:101740001000200001003e000000200009f0a7006a
:101750000000ea004f05be004f04be000000e0009c
:1017600000000600881f7800030478000300e000f2
:1017700007003d0060001000e080180060011900c3
:10178000e081190002003b0001f02d00030037004a
:101790000400070008f0a70001f0a0004f04780043
:1017a00000000600889fbe008a9fbe000082700075
:1017b0000402710004827100260032000004be00a1
:1017c0000200be006011b8006b09200095022000e5
:1017d0000182cf000a0039000541b1000082cf002c
:1017e000070039000541b1000982cf00040039002b
:1017f0000541b1000882cf00010039000541b10068
:1018000005425200120032000a003b008281710042
:10181000610164008100d1000080d3008984d3007d
:101820000884d3008b05e8000442e800f7ff3a0083
:10183000070037000804440089844c000000480079
:10184000818048008b05e9000442e900f9ff3a0075
:1018500052fd07004f05be004f04be000000060009
:101860000003be0073fd07006220e10002003200a9
:101870000600be000000060085024100e30f2000c4
:101880000328e10005003c00a3fe2f000328e1002f
:1018900007003d000500200001003700f50f200083
:1018a00020022000d0b388006000b8000800370094
:1018b000130020008381520005003d008100d1000b
:1018c0000080d3008301e800fcff3a0005002000ff
:1018d000c72add00f107b2008580700007f0a7007d
:1018e00001f0a00000000600c4762100e487470054
:1018f00065bb8000889fbe008a9fbe008c9fbe0093
:101900008e1f7800e08f52000b003a0024029800ee
:10191000e4024200a4bb880065bb8800b5bb880018
:10192000a44290000504a00025429800e4429000e3
:101930000504a00065429800670440006478210017
:10194000250020004244de00a99721004244dd002a
:101950008484540005074400110009008504d80060
:10196000dc972100a2bb80000406560080bf9f00c8
:101970000e0747000003eb00e4054400080646009c
:1019800002003700160020000d017800224290006e
:1019900061026200020032000a0037001509780077
:1019a000920278002542900061026200fbff320043
:1019b00008024100848f520002003900e00f5400f9
:1019c0003f003d00920678000d00a100828f560076
:1019d000edff3e00e10f5300eaff3a000fba970017
:1019e000840f540002003600890f540010003900a3
:1019f000614ab900b0ff2f00010020006143b80028
:101a00000402500085825800840f5300858f5b00cc
:101a1000020035000b0578000600370011000900b0
:101a20000986d8000982b900040578000100370052
:101a30000e0578000a007800eefb0700e10f400079
:101a400005003a000b0578000b007800e9fb070061
:101a5000e10f40002b003200b4bb8000000a780088
:101a6000b4bb800064034200a4429000860f500083
:101a7000020032000504a000010037000504a100a7
:101a80002542980064055500c47621000a054000ef
:101a90000a087800babb8800040d7800b5bb800046
:101aa0000003eb00254290000404a000a44298002b
:101ab000204290000404a10024409800b2ff3700a7
:101ac000a4bb8800848f5200070036001403be00b8
:101ad0008042eb00c6bb8800d7bb8800120a7800a2
:101ae000a4bb80002542980022429000a7bb800042
:101af0000404a00007097800244198006400410014
:101b0000010037000000eb004f0778004f06be00d1
:101b10004f05be004f04be004f00b100000006009c
:101b2000e00f50000800320064005000a4bb8000a9
:101b3000840f500001003100a0bb880020429000bb
:101b40000404a1002440980000000600889fbe0005
:101b5000000478008a9fbe0081047800e08f540062
:101b600005003a00e00f540032003200080078000f
:101b7000ebff070030003700e00f540004003a008c
:101b80000900780058ff0700800478002a00370019
:101b9000640254009405780068fa970061026200bc
:101ba0000200320008007800ddff0700090078001d
:101bb0004dff070080047800e08f54001e003200c3
:101bc000888f54001b00320069bd9700888555003e
:101bd00009055500c2ddde0042d5de000a017800ad
:101be0008b0f5500010036000b0178004211dd001b
:101bf000880078000900780013000700888f5400df
:101c00000d0031004255dd000a854400880f550063
:101c10000900360008045500c4bb8000d5bb800015
:101c200042c4de004244dd0008844400048cbe004f
:101c30000100370088047800090078004f05be00d5
:101c40004f04be00000006000002780002003700ca
:101c5000315a78000201e900e00f5100fcff3a0020
:101c6000000006000002780002003700015a7800e8
:101c70000201e900e00f5100fcff3a0000000600fd
:101c8000207521000000fa0068815700cfb8970046
:101c9000060207000080fa000000060020752100ff
:101ca0000000fa0068815700cfb89700ff010700d5
:101cb0000080fa0000000600889fbe000104780042
:101cc0008084eb0038029000e20262003b003200a8
:101cd00004037800980290000620b20002003a0047
:101ce000e08f520035003a000490a0008004780094
:101cf00034049800f90fb200e08f520002003a005d
:101d0000a8029000050c7800ea8f540005003a0004
:101d10000408b20003003a0088007800d0002000d8
:101d2000e5ff070018029000d8029000850f5200ce
:101d30000b0032000402e80015c0b3001404980040
:101d400018027800094a7800040ce800c4772100e2
:101d5000054a7800ea8f540018003a000500370061
:101d60000940780088007800170007008004780098
:101d700012003700380290000410b2000f00320049
:101d800018019000a800900048009000e9fa0700b0
:101d900018029000840f50000400320038029000b6
:101da0000403b300340498008084eb000002eb00cd
:101db0001404980028029000040c780009007800b0
:101dc0004f04be00000006000200fa00889fbe001b
:101dd00001047800a0ff9f00380290008402780080
:101de0000504b200020032000000fb00350037009d
:101df000e202620005003a000403b30015049800f3
:101e0000340498000080eb002e003700d8049000c6
:101e1000e08f540006003a0012002000e6805700d0
:101e200048009000c3fa0700190498002300370007
:101e3000a8029000e08f520008003a00f5772100d8
:101e40000430a00025049800050c780034049800a4
:101e500025002000550498001504980018019000f2
:101e6000a800900048009000b2fa070028029000f5
:101e70008082eb0015049800affa9700054a7800bd
:101e8000040ce8002ffa9700ea4f52000b003a00ca
:101e9000380290000410b2000800320018019000cf
:101ea000a800900048009000a2fa07000002eb0092
:101eb000a802900014049800050c78002ffa9700ef
:101ec0000400fb004f04be000080fa000000060082
:101ed00000c0da00000006006022b8000602200000
:101ee0000000d0008180d2000482d2008582d2001e
:101ef0000000a0000202520083825a000300310059
:101f00000202420083824a000000a1000603e900a9
:101f1000f3ff3a0000000600020ab900001bb900f6
:101f20000200b8008100420081004300000006006a
:101f3000889fbe008a9fbe003004be002005be0000
:101f40000404440085844c0006054d0087854d003f
:101f50000898be000a90be000440e10005c8e100f8
:101f600006d0e10007d8e10002003100680040001f
:101f70001008e8004f05be004f04be000000060038
:101f80001000fa00889fbe008a9fbe00110020004a
:101f90000605be000404be003002be002003be00e1
:101fa000c4b79f00d5b79f00e6b79f00f7b79f0063
:101fb0000802520089825a000a035b008b835b008f
:101fc00084bf9f0095bf9f00a6bf9f00b7bf9f0023
:101fd0000498be000698be004fb29700dfb297008b
:101fe0006fb39700ffb397000820e10009a8e10054
:101ff0000ab0e1000bb8e100010039008000eb00fd
:102000004f05be00108810004f04be000080fa008b
:10201000000006001400fa00889fbe008a9fbe00e0
:102020008c9fbe000006eb003e000700ccb79f006f
:10203000bcb79f00acb79f009cb79f008cb79f00b8
:102040000605be000404be000d0420004fb3970037
:10205000bfb29700860343002fb29700e00f5300f2
:1020600004003d003d0007000f004000b0ff0700e6
:1020700003003700390007000f004000c0ff0700d1
:10208000cfb2970095bf9f00e08f52000900350046
:102090002b00070014002000050020006033b8006a
:1020a000000072008180720002017300838173005e
:1020b0001c0007000c06e8008d0f5600e3ff3a00f5
:1020c0001fba9700e00f520005003d000802be0055
:1020d0000a03be0000fe2f000f00400094ff07001f
:1020e0004faa9700e00f520008003a000fb4970083
:1020f0009fb497002fb59700bfb59700d8b79f0042
:10210000e9b79f00fab79f008bbf9f000c00070044
:102110004f06be004f05be004f04be000080fa000f
:1021200000000600010007000000060090b79f00b5
:10213000a1b79f00b2b79f00c3b79f000000060081
:1021400001000700000006001fb09700afb0970025
:102150003fb19700cfb19700000006004f2bde0083
:10216000f9ff070086837300858242004f23de005b
:10217000a7b79f00868272000402420095b79f00b5
:10218000ffaa97004f2bde008582420006027200f4
:1021900084b79f006faa97004f23de00040242001d
:1021a00086827200f5af9f004f18de0000027200b9
:1021b000e5ff0700e4af9f00000040008180480079
:1021c00002014900838149000802be000a03be00e3
:1021d000d6ff070000fe2f0000000600881f7800d1
:1021e00018002000881f78008aff07008f87e90009
:1021f0004f04780000000600801feb0085ff0700f9
:102200008f87e90000000600889fbe008a9fbe00fd
:10221000e00f5000e08f5800e00f5900e08f5900a8
:102220000c003d006044b8006055b8000000540048
:1022300081805c0002015d0083815d001800200048
:102240001500070008003d00180007000004eb001f
:10225000050037000004eb000f00070002003d00fe
:102260001200070018002000dcff0700e00f5400f8
:10227000060032006022b8006033b800000052004f
:1022800081805a0002015b0083815b004f05be0024
:102290004f04be0000000600e00f5200e08f5a001d
:1022a000e00f5b00e08f5b00000006006044b800b8
:1022b0006055b8000402540085825c0006035d008e
:1022c00087835d0000000600889fbe008a9fbe00d5
:1022d0008c1f7800e00f5000e08f5800e00f59008d
:1022e000e08f59000d003d006044b8006055b80013
:1022f0001c0020000000540081805c0002015d0091
:1023000083815d000820e10009a8e1000ab0e10036
:102310000bb8e1000d003d00080037000006eb009f
:10232000e00f5200e08f5a00e00f5b00e08f5b008f
:1023300006003d006044b8006055b8000402540037
:1023400085825c0006035d0087835d00aaff0700ad
:10235000e00f5600060032006022b8006033b8007b
:102360000000520081805a0002015b0083815b0003
:102370004f0678004f05be004f04be000000060067
:10238000889fbe008a9fbe008c1f78000006eb006d
:10239000e00f5000e08f5800e00f5900e08f590027
:1023a00007003d006044b8006055b8001c002000e4
:1023b0000000540081805c0002015d0083815d00ab
:1023c000e00f5200e08f5a00e00f5b00e08f5b00ef
:1023d00007003d006044b8006055b8000c00a20042
:1023e0000402540085825c0006035d0087835d0063
:1023f0000c000700e00f5600060032006022b80013
:102400006033b8000000520081805a0002015b0076
:1024100083815b004f0678004f05be004f04be006d
:1024200000000600889fbe008a9fbe008c9fbe00f1
:102430000404b8000506b8008904460060854e0013
:102440000606b8000a054600e0854e000706b800fb
:102450008b054600040eb800890446000a854e002c
:10246000e0854d00050eb8000a0546008b854e003c
:10247000060eb8008b0546000416b8000a05460093
:102480008b854e000516b8008b054600041eb8006b
:102490008b0546000800be000a01be004f06be00c4
:1024a0004f05be004f04be0000000600ef03b00061
:1024b000889fbe008a9fbe008c9fbe008006780069
:1024c0008e1f78000007eb00d1af9f00a2b79f00de
:1024d00065033700dfa8970054c2b3008100e8000d
:1024e000d1af9f00844f500006003a0001027800ef
:1024f0000006eb0001c3b30000c2b300b7c2b300d3
:102500000e0037003d0290000404b20004003200c7
:102510001d027800004a7800840ee80005003700ac
:102520000000fb008d007800e3fd0700e10f400094
:102530004d0332000e07e8004b0337008402780099
:10254000d2c2b30034437800824f530009003200f6
:1025500005003c00804f530008003200874f5300b5
:102560000c003a0007003700814f530009003a0081
:10257000060037000c30a000f0ff37000c00a00070
:10258000eeff37000c10a000ecff37000c20a0007d
:10259000eaff370062026600010032000c00a10071
:1025a00068026600010032000c20a1000602fb0058
:1025b0000403b100e90f52000c003e00050378004f
:1025c0000002eb00b603fb006a22b9000703b1006a
:1025d00086027800048243009603fb000703b100e3
:1025e000e98f5300f7ff3600080037000002eb00c8
:1025f000a7c2b300874f530004003a00afb1970061
:102600008502e80043027800a3b79f000003eb00b7
:1026100096b79f00e6c2b300954f13000c003a0036
:102620000ce0a00064435300d54f130003003200b8
:10263000050378000000eb0009003700afb39700f6
:102640008502e80047047800a7b79f0098b79f006d
:1026500005037800090037006a00b90000804300d4
:1026600086027800b603fb000703b100e98f530030
:10267000f9ff360090b79f00f5ff3700b6427800ab
:10268000cac6b300d6af9f008acf520025003200e1
:102690000f003c0036c6b30086cf52009d003200ca
:1026a00004003c00e0cf5200f40232006b435300c0
:1026b0000f00370046c6b30086cf52001700320025
:1026c0006543430086cf5200b1003a001300370043
:1026d00036c7b30086cf52002000320007003c000e
:1026e0006443530086cf5200150032000643e800d1
:1026f00086cf5200a6003a001400370056c7b30038
:1027000086cf5200a90032006343430086cf5200b7
:102710009f003a00e5779f000e003700e5779f00a5
:10272000a4003700f003660005012000010032001c
:10273000050028008c82720005067800cfff370064
:10274000e5779f000c60a0009a003700e5779f00b6
:102750000c50a0000c70a00096003700afb5970099
:10276000e5779f00cb027800abb79f00b5b79f001d
:10277000e08f520002003a00e1692100b1b79f00ea
:102780003fb397008002eb00010037008502e800ac
:10279000e6c37a00e0cf5300fcff3a00c5b79f00c4
:1027a0001fb19700e00f510005003200cfb1970034
:1027b000830f51000200310082027800c5b79f00ec
:1027c000cfb297000004eb00850f520001003600e5
:1027d000050452006806660009c2b3000f0032000b
:1027e000290037003d0290000404b20004003200ca
:1027f0001d027800094a7800840ee80005003700c1
:102800008d007800000220002bfd0700e10f400042
:10281000010032000e07e8000804e900e00f540050
:10282000f0ff3a000084eb0017003700bd02900073
:102830000504b20009003200880278009d03780088
:1028400035437800864b780005047800870ee80051
:10285000e04f53000a003a00100037008802780069
:102860008d0078003500fb0084bf9f0005047800d0
:1028700011fd07000fba9700e10f4000070032007a
:102880000e07e80005003700080278003fb4970003
:10289000cfb497005fb59700efb597008902780035
:1028a0008504e900e08f5200e0ff3a00b8b79f00ce
:1028b000c9b79f00dab79f00ebb79f000404780008
:1028c00009c2b300e00f56000f003a00660237005d
:1028d0003d0290000404b200040032001d027800a2
:1028e000094a7800840ee800050037008d00780062
:1028f00000022000f0fc0700e10f40000100320060
:102900000e07e8000804e900e00f5400f0ff3a0069
:1029100055023700afb0970070036600410478009d
:10292000a1b79f00cfc4de00090578008a057800b2
:102930000800be000a01be004800de00c80add0033
:1029400000807200e0779f00e00f53000900320022
:10295000e04f500007003200e14f40000500320018
:1029600026002000f0779f00887f9f00c6b79f0059
:102970000300370017002000c7b79f00f8779f00bb
:1029800078fb2f0008844700b8b79f0084ff37000a
:1029900069fb2f001a00200089844700e5779f001b
:1029a000b9b79f00cab79f007dff3700e5779f004a
:1029b0000c0cb3008c027800050cb2003b003a000e
:1029c000e00f560005003d00afb297004501be0084
:1029d0004500be00a5b79f000f003700f00266005b
:1029e000120032002fb497004803be00f69f9f00ec
:1029f00087a79f00a8b79f0098029000cfaade008b
:102a000095a79f00a5a79f007f9897008fa097008c
:102a10001fa19700afa19700b0b79f00c1b79f005b
:102a2000d2b79f00e3b79f000b003700afb097000d
:102a3000c102780005047800cfc4de0009057800e3
:102a40008a057800a1b79f00b8b79f00c9b79f005b
:102a5000dab79f00ebb79f003fb09700cfb0970069
:102a60005fb19700efb19700e00f5000e08f580082
:102a7000e00f5900e08f590032003d006000b800bf
:102a80006011b8003fb49700cfb497005fb59700ce
:102a9000efb597003c00b30008045000898458004b
:102aa0000a0559008b85590022003700e00f5600b7
:102ab00005003d00afb297004501be004500be00d5
:102ac000a5b79f000f003700f00266001200320029
:102ad0002fb497008004eb004803be000005eb0014
:102ae00096af9f00a7af9f00b9af9f00caaf9f00ee
:102af0001fa89700afa897003fa99700cfa99700fc
:102b0000a8b79f00b0b79f00c1b79f00d2b79f0082
:102b1000e3b79f000b003700afb09700c102780009
:102b2000a1b79f0005047800090020000a002000da
:102b30000b002000b8b79f00c9b79f00dab79f000d
:102b4000ebb79f009fb49700e08f54000d003a0050
:102b50001a0020003fb09700cfb097005fb19700f8
:102b6000efb197009ab79f00e00f5000e08f580038
:102b7000e00f5900e08f5900020032008000eb00a6
:102b800091b79f000c01780005042000020cb200f0
:102b900082b79f00850f51003400320003003c00d3
:102ba000e00f5100080032004800370005082000ff
:102bb0008fb19700858f510014003200050c200062
:102bc000858f510041003a00e66a210015c0b3002c
:102bd0003600be003601be003fb49700cfb4970068
:102be0005fb59700efb597000040e10001c8e10034
:102bf00002d0e10003d8e100330039008542e8004b
:102c0000f4cf5200f2ff3a002f00370015c0b30096
:102c100000012000010020006011b8003fb49700bf
:102c2000cfb497005fb59700efb597000040e10083
:102c300001c8e10002d0e10003d8e1002200390020
:102c4000490020000000d0008180d2000281d20023
:102c50008381d2008904e900faff3a008542e80046
:102c6000f0cf5200edff3a001700370015c0b30057
:102c700080002000010020006011b8003fb49700e0
:102c8000cfb497005fb59700efb597000040e10023
:102c900001c8e10002d0e10003d8e1000a003900d8
:102ca000390020000000d0008180d2000281d200d3
:102cb0008381d2008904e900faff3a008542e800e6
:102cc000f5cf5200edff3a00e5779f006f75970052
:102cd0009fb597008a02fb008b8f520002003d00d7
:102ce000eb779f00040037001fb09700850f50005e
:102cf00001003d0095b79f00e00f52000300320035
:102d0000e3026600010032000402e900050024002d
:102d100085026600060032009fb09700810f5200c6
:102d20000200340001025200010037000002eb00f3
:102d30006f7197008001eb008202fb00f3af9f00f0
:102d4000850f52000200340085025200f5af9f004b
:102d5000640266003b003200e20266006102660027
:102d6000e08f520011003200bd0290000504b20055
:102d7000080032009d027800b6c2b300e00f520096
:102d80000100320006c3e800864a7800850ee8009c
:102d900015003700b0022000e00f520001003200a1
:102da0000080e8008d0078000c003700e00f520032
:102db0000e0032003d0290000404b2000500320013
:102dc0001d02780005c2b300054a7800840ee800b1
:102dd000050037008d00780000022000b6fb0700d8
:102de000e10f4000010032000e07e8007faa9700c3
:102df000e00f52004f00320008c3b3008404780093
:102e00003d0290000404b200040032001d0278006c
:102e1000084a7800840ee800050037008d0078002d
:102e200000032000a4fb0700e10f40000100320076
:102e30000e07e8008904e900f1ff3a00f9af9f00ae
:102e40003c003700ffaa9700e08f520014003200c8
:102e50006802660012003a0008c2b30085047800d8
:102e60003d0290000404b200040032001d0278000c
:102e7000084a7800840ee800050037008d007800cd
:102e8000000220008cfb0700e10f4000010032002f
:102e90000e07e8008904e900f1ff3a00f9af9f004e
:102ea000e202660061026600e08f5200110032000b
:102eb000bd0290000504b200080032009d027800b7
:102ec000b6c2b300e00f52000100320006c3e800b2
:102ed000864a7800850ee80015003700b002200011
:102ee000e00f5200010032000080e8008d00780001
:102ef0000c003700e00f52000e0032003d0290003f
:102f00000404b200050032001d02780005c2b300bf
:102f1000054a7800840ee800050037008d0078002f
:102f20000002200064fb0700e10f400001003200b6
:102f30000e07e8001fb39700656a21000602e9004a
:102f4000f0046600c223dd000c057800c7a79f00cf
:102f50000a02b2006323b900e99f9f0006047800cb
:102f60004322dd00b8a79f0085024200da9f9f0040
:102f7000e5af9f00a30037009fb597000fb0970003
:102f80008b05e900010420009bb79f00810f5000d2
:102f90007300320003003c00e00f500008003200d4
:102fa0007e003700040820000fb19700840f510005
:102fb00056003200040c2000840f510077003a00c4
:102fc000e00f56001f003d00efa997003304be003c
:102fd0002305be003fb09700cfb097005fb19700c8
:102fe000efb197000802be000a03be007bfc070099
:102ff0000802be000a03be00e0779f000000fb004d
:10300000cf80de000101780082017800dcfc07003f
:103010003fb29700cfb297005fb39700efb397002e
:103020000002520081825a0002035b0083835b002e
:10303000b4b79f00c5b79f00d6b79f00e7b79f0002
:103040002e003700ef9a9700e08f520022003200e6
:103050006fab97003fb29700cfb297003604be0027
:103060002605be000400be000801be0084bf9f000c
:10307000f5b79f000005eb0097fb07000801be00b5
:10308000e0779f000000fb00cf80de00a2fb07007e
:103090000fba9700ffb297008aaf9f00000452005a
:1030a00081845a00d8a79f00e9a79f008004eb0005
:1030b000f9a79f005fa09700efa097007fa197005e
:1030c0008fa99700b0b79f00c1b79f00d2b79f00ec
:1030d000e3b79f0009003700efa897003fb19700c2
:1030e00011027800110009000481d800a40020001a
:1030f000110009000480d800e1779f00ef7197006c
:103100000343b000e3779f0024003700d468210018
:10311000df9a9700e08f520001003200c46721005f
:103120003fb09700cfb097005fb19700efb1970025
:103130004fa397000603e900050033008301d10087
:103140000281d3008180d3000080d300f9ff3700d3
:103150006f00600064407800e0779f000f00370048
:103160003fb29700cfb297005fb39700efb39700dd
:103170003fa497000804e900050033008703d1004d
:103180000683d3008582d3000482d300f9ff370081
:10319000674262000443b000e4779f003d02900064
:1031a0000404b200070032009d0278006f7297009d
:1031b000844a7800850ee800e04f520007003a008c
:1031c00007003700ef7497008d0078000900fb00be
:1031d000b9fa0700e10f4000010032000e07e800d5
:1031e0004fa59700bfa597006fa8970064055500ed
:1031f000e385550068005000caa79f00bba79f0049
:10320000e0af9f009fb09700e08f50005aff3a0058
:1032100068066600140032007fa99700e00f510095
:103220001100340008c2b300820478003d0290000f
:103230000404b200040032001d027800084a78003d
:10324000840ee800050037008d00780000022000a1
:1032500099fa0700e10f4000010032000e07e80074
:103260008904e900f1ff3a00dfa9970013407800d4
:10327000e0779f00e04f500096fc3a000e00780087
:103280004f0778004f06be004f05be004f04be003a
:08329000ef03b100000006008d
:020000040000fa
:103298000000000099c50000abce0000320b000012
:1032a800cfd80000561d000064160000fdd30000b2
:1032b80007f400009e310000ac3a000035ff000022
:1032c800c82c000051e9000063e20000fa27000062
:1032d80097ad00000e6800003c630000a5a6000042
:1032e80058750000c1b00000f3bb00006a7e000002
:1032f80090590000099c00003b970000a252000072
:103308005f810000c6440000f44f00006d8a000091
:103318002e5b0000b79e0000859500001c50000041
:10332800e1830000784600004a4d0000d388000081
:1033380029af0000b06a0000826100001ba40000f1
:10334800e67700007fb200004db90000d47c000091
:10335800b9f6000020330000123800008bfd000091
:10336800762e0000efeb0000dde0000044250000b1
:10337800be02000027c7000015cc00008c09000021
:1033880071da0000e81f0000da14000043d10000e1
:10339800c5f300005c3600006e3d0000f7f8000041
:1033a8000a2b000093ee0000a1e500003820000081
:1033b800c20700005bc2000069c90000f00c0000f1
:1033c8000ddf0000941a0000a61100003fd4000091
:1033d800525e0000cb9b0000f99000006055000091
:1033e8009d8600000443000036480000af8d0000b1
:1033f80055aa0000cc6f0000fe64000067a1000021
:103408009a72000003b7000031bc0000a8790000e0
:10341800eba80000726d000040660000d9a3000010
:1034280024700000bdb500008fbe0000167b0000b0
:10343800ec5c00007599000047920000de57000020
:1034480023840000ba410000884a0000118f000060
:103458007c050000e5c00000d7cb00004e0e000040
:10346800b3dd00002a1800001813000081d6000000
:103478007bf10000e2340000d03f000049fa000070
:10348800b42900002dec00001fe700008622000090
:1034980013a200008a670000b86c000021a9000090
:1034a800dc7a000045bf000077b40000ee71000030
:1034b800145600008d930000bf980000265d0000a0
:1034c800db8e0000424b000070400000e9850000e0
:1034d800840f00001dca00002fc10000b6040000c0
:1034e8004bd70000d2120000e019000079dc000080
:1034f80083fb00001a3e000028350000b1f00000f0
:103508004c230000d5e60000e7ed00007e2800000f
:103518003df90000a43c0000963700000ff20000bf
:10352800f22100006be4000059ef0000c02a0000ff
:103538003a0d0000a3c8000091c30000080600006f
:10354800f5d500006c1000005e1b0000c7de00000f
:10355800aa54000033910000019a0000985f00000f
:10356800658c0000fc490000ce420000578700002f
:10357800ada0000034650000066e00009fab00009f
:1035880062780000fbbd0000c9b60000507300005f
:10359800d65100004f9400007d9f0000e45a0000bf
:1035a80019890000804c0000b24700002b820000ff
:1035b800d1a50000486000007a6b0000e3ae00006f
:1035c8001e7d000087b80000b5b300002c7600000f
:1035d80041fc0000d8390000ea32000073f700000f
:1035e8008e24000017e1000025ea0000bc2f00002f
:1035f80046080000dfcd0000edc60000740300009f
:1036080089d0000010150000221e0000bbdb00005e
:10361800f80a000061cf000053c40000ca0100008e
:1036280037d20000ae1700009c1c000005d900002e
:10363800fffe0000663b000054300000cdf500009e
:1036480030260000a9e300009be80000022d0000de
:103658006fa70000f6620000c46900005dac0000be
:10366800a07f000039ba00000bb10000927400007e
:1036780068530000f1960000c39d00005a580000ee
:10368800a78b00003e4e00000c450000958000000e
:103698000000000099c50000abce0000320b00000e
:1036a800cfd80000561d000064160000fdd30000ae
:1036b80007f400009e310000ac3a000035ff00001e
:1036c800c82c000051e9000063e20000fa2700005e
:1036d80097ad00000e6800003c630000a5a600003e
:1036e80058750000c1b00000f3bb00006a7e0000fe
:1036f80090590000099c00003b970000a25200006e
:103708005f810000c6440000f44f00006d8a00008d
:103718002e5b0000b79e0000859500001c5000003d
:10372800e1830000784600004a4d0000d38800007d
:1037380029af0000b06a0000826100001ba40000ed
:10374800e67700007fb200004db90000d47c00008d
:10375800b9f6000020330000123800008bfd00008d
:10376800762e0000efeb0000dde0000044250000ad
:10377800be02000027c7000015cc00008c0900001d
:1037880071da0000e81f0000da14000043d10000dd
:10379800c5f300005c3600006e3d0000f7f800003d
:1037a8000a2b000093ee0000a1e50000382000007d
:1037b800c20700005bc2000069c90000f00c0000ed
:1037c8000ddf0000941a0000a61100003fd400008d
:1037d800525e0000cb9b0000f9900000605500008d
:1037e8009d8600000443000036480000af8d0000ad
:1037f80055aa0000cc6f0000fe64000067a100001d
:103808009a72000003b7000031bc0000a8790000dc
:10381800eba80000726d000040660000d9a300000c
:1038280024700000bdb500008fbe0000167b0000ac
:10383800ec5c00007599000047920000de5700001c
:1038480023840000ba410000884a0000118f00005c
:103858007c050000e5c00000d7cb00004e0e00003c
:10386800b3dd00002a1800001813000081d60000fc
:103878007bf10000e2340000d03f000049fa00006c
:10388800b42900002dec00001fe70000862200008c
:1038980013a200008a670000b86c000021a900008c
:1038a800dc7a000045bf000077b40000ee7100002c
:1038b800145600008d930000bf980000265d00009c
:1038c800db8e0000424b000070400000e9850000dc
:1038d800840f00001dca00002fc10000b6040000bc
:1038e8004bd70000d2120000e019000079dc00007c
:1038f80083fb00001a3e000028350000b1f00000ec
:103908004c230000d5e60000e7ed00007e2800000b
:103918003df90000a43c0000963700000ff20000bb
:10392800f22100006be4000059ef0000c02a0000fb
:103938003a0d0000a3c8000091c30000080600006b
:10394800f5d500006c1000005e1b0000c7de00000b
:10395800aa54000033910000019a0000985f00000b
:10396800658c0000fc490000ce420000578700002b
:10397800ada0000034650000066e00009fab00009b
:1039880062780000fbbd0000c9b60000507300005b
:10399800d65100004f9400007d9f0000e45a0000bb
:1039a80019890000804c0000b24700002b820000fb
:1039b800d1a50000486000007a6b0000e3ae00006b
:1039c8001e7d000087b80000b5b300002c7600000b
:1039d80041fc0000d8390000ea32000073f700000b
:1039e8008e24000017e1000025ea0000bc2f00002b
:1039f80046080000dfcd0000edc60000740300009b
:103a080089d0000010150000221e0000bbdb00005a
:103a1800f80a000061cf000053c40000ca0100008a
:103a280037d20000ae1700009c1c000005d900002a
:103a3800fffe0000663b000054300000cdf500009a
:103a480030260000a9e300009be80000022d0000da
:103a58006fa70000f6620000c46900005dac0000ba
:103a6800a07f000039ba00000bb10000927400007a
:103a780068530000f1960000c39d00005a580000ea
:103a8800a78b00003e4e00000c450000958000000a
:103a980041440000433a0000202500006420000053
:103aa8002c20000025640000202c000020250000a8
:103ab800640000005374000061720000740000008c
:020000040000fa
:103ac8000000fa0061080700f71507000080fa00f7
:103ad800000006000200fa00000f780041d0200024
:103ae80040be2000450007000080fa0000000600e4
:103af8000000fa001200070040f4200060000700f0
:103b080000027800248c880040fd20005c0007003b
:103b180000027800248c8800248c8000e00f52007a
:103b28000200320074f307000300370041d0200080
:103b380040be2000d80207000080fa0000000600fe
:103b48000400fa000002eb00040f780014002000c3
:103b580014079800200037000041eb009e00780011
:103b68001e0090009c06070012c0b3009e0078005b
:103b78001e009000f40507009e0078001e009000cb
:103b8800280607009e0078001e00900067060700c0
:103b98000041eb009e0078001e0090004d050700d4
:103ba80065b3800074b380009e0178001e01900008
:103bb80085007800040078007f0507001e0fe800e4
:103bc8001e027800eb0f5200e3ff34001e02900043
:103bd8000402e800140798001e029000e20f520049
:103be800f7ff340010002000b20607002000200074
:103bf800b00607000080fa00000006000800fa007e
:103c080020079800310798000002eb00040f7800a5
:103c18000002eb001407980041be20000000eb00f2
:103c2800f002070000027800140798001e029000b6
:103c3800e00f5200010032001e0fe8001e02900043
:103c4800e00f5200f4ff3a00be0090000000eb00c5
:103c5800e402070000027800140798001e02900092
:103c6800e00f5200010032001e0fe8001e02900013
:103c7800e00f5200f4ff3a000080fa00000006004e
:103c88000800fa00300798000002eb00040f7800e3
:103c98000002eb00240798000002eb0014079800cc
:103ca8008000eb00200020001a0807005e080700cb
:103cb800070037005c0807003e019000c1002000a3
:103cc8000000eb00d10a070000027800040f78001a
:103cd8001e027800e00f5200030032002e0290000e
:103ce800e90f5200f3ff34002e029000e90f520052
:103cf80002003400f4002000140798001e02780027
:103d0800e00f520006003a003e0090000d00070048
:103d180000027800248c8800248c8000060037007c
:103d28002e029000ea0f5200020034001e0290009a
:103d3800010037000082eb00040078000080fa00e0
:103d4800000006002400fa00881f78001017980069
:103d58000002eb00040f78000002eb001407980043
:103d6800f80137000002eb00440798000002eb005e
:103d7800540798001e1290000409b00094027800bd
:103d8800450798004e029000cfa2de000400be0056
:103d9800fdf307000002be0072712b00138d230093
:103da8000400be00a5f407000002be0002002000c7
:103db800031a24000400be00a0f407000002be009d
:103dc8000400be00cff307000002be0054079800ad
:103dd8001e027800e00f52001a003a000002eb00c1
:103de800640798006022b80074079800050f9800cf
:103df8001e1290000409b000940290006507980014
:103e08006e029000cfa2de000400be00def30700c1
:103e18000002be00d2402700a3c523000400be0054
:103e280086f407000002be00020028008338240040
:103e38000400be000ff307000002be0074079800dc
:103e4800050f98001e027800e00f520038003a0073
:103e58000002eb00140f98000002eb00240f9800fa
:103e68001e1290000409b000a4029000150f9800db
:103e78004e029000cfa2de000400be00c2f307008d
:103e88000002be0072712b00138d23000400be00d7
:103e98006af407000002be000400be0099f30700a0
:103ea8000002be00240f98002e0a9000cfa2de0068
:103eb8000400be00b4f307000002be0018c0b3003f
:103ec80002002000030924000400be0089f3070053
:103ed80000027800e00f5200010035000044eb00ba
:103ee800e04f540010003a002e0a9000cfa2de00e6
:103ef8000400be00a4f307000002be0018c0b3000f
:103f080002002000030b24000400be007bf307001e
:103f180000027800e00f520001003c000044eb0072
:103f2800e04f54000200320084002000040f7800a3
:103f38001e027800e00f520038003a000002eb0041
:103f4800340f98000002eb00440f98001e129000f6
:103f58000409b000b4029000350f98004e0290009a
:103f6800cfa2de000400be0087f307000002be00f7
:103f780072712b00138d23000400be002ff407007c
:103f88000002be000400be005ef307000002be008f
:103f9800440f98004e0a9000cfa2de000400be0035
:103fa80079f307000002be0018c0b300d2cc2c0081
:103fb800c30224000400be004ef30700000278008c
:103fc800e00f5200010035000044eb00e04f5400c0
:103fd80010003a004e0a9000cfa2de000400be0096
:103fe80069f307000002be0018c0b300626626002d
:103ff800630624000400be0040f3070000027800b6
:10400800e00f520001003c000044eb00e04f540078
:104018000200320094002000040f78001e0278008d
:10402800e00f5200b9003a000002eb00540f98006c
:104038001e1290000409b000c4029000550f9800a9
:104048000002eb0024079800ad0037005e0a9000dc
:10405800e00f520007003200150020002e029000e9
:10406800042add00e00f5200020032001400200094
:10407800010037000002eb00445f98002e02900018
:10408800cfa2de00f600200007002000860f5200b5
:10409800878f5a0090003e00046001000f0037002f
:1040a80014003700190037001e00370023003700be
:1040b800280037002d00370032003700370037005e
:1040c8003c00370041003700460037004b003700fe
:1040d80050003700550037005a0037004e5a9000fc
:1040e800e04f52005d00320014002000040f7800f9
:1040f800790037004e5a9000e04f520059003200c4
:1041080024002000040f7800730037004e5a9000f6
:10411800e04f52005500320014002000040f7800d0
:104128006d0037004e5a9000e04f520051003200a7
:1041380024002000040f7800670037004e5a9000d2
:10414800e04f52004d00320014002000040f7800a8
:10415800610037004e5a9000e04f5200490032008b
:1041680024002000040f78005b0037004e5a9000ae
:10417800e04f52004500320014002000040f780080
:10418800550037004e5a9000e04f5200410032006f
:1041980024002000040f78004f0037004e5a90008a
:1041a800e04f52003d00320014002000040f780058
:1041b800490037004e5a9000e04f52003900320053
:1041c80024002000040f7800430037004e5a900066
:1041d800e04f52003500320014002000040f780030
:1041e8003d0037004e5a9000e04f52003100320037
:1041f80024002000040f7800370037004e5a900042
:10420800e04f52002d00320014002000040f780007
:10421800310037004e5a9000e04f5200290032001a
:1042280024002000040f78002b0037004e5a90001d
:10423800e04f52002500320014002000040f7800df
:10424800250037004e5a9000e04f520021003200fe
:1042580024002000040f78001f0037000000000031
:104268001d003700000000001b00370000000000a0
:104278001900370000000000170037000000000098
:104288001500370000000000130037000000000090
:1042980011003700000000000f0037000000000088
:1042a8000d003700000000000b0037000000000080
:1042b8000900370000000000070037000000000078
:1042c8000500370000000000030037000000000070
:1042d80001003700000000002e0290000402e800f0
:1042e800240798004e5a9000e04f52000200320016
:1042f8001e027800970037000042eb00445f9800e8
:104308002e029000ef0f520050ff34001e0278007a
:10431800e00f520083003a000002eb00740f98008f
:104328001e1290000409b000d4029000750f980086
:104338000002eb0034079800770037007e0a9000ef
:10434800e00f520007003200150020003e029000e6
:10435800042add00e00f52000200320014002000a1
:10436800010037000002eb00046798003e0290004d
:10437800cfa2de009600200007002000860f520022
:10438800878f5a005a003e00046001000900370078
:104398000e00370013003700180037001d003700e3
:1043a80022003700270037002c0037003100370083
:1043b800360037000e629000e04f5200390032009c
:1043c80014002000040f7800490037000e629000a6
:1043d800e04f52003500320024002000040f78001e
:1043e800430037000e629000e04f52003100320067
:1043f80014002000040f78003d0037000e62900082
:10440800e04f52002d00320024002000040f7800f5
:10441800370037000e629000e04f5200290032004a
:1044280014002000040f7800310037000e6290005d
:10443800e04f52002500320024002000040f7800cd
:104448002b0037000e629000e04f5200210032002e
:1044580014002000040f7800250037000e62900039
:10446800e04f52001d00320024002000040f7800a5
:104478001f0037000e629000e04f52001900320012
:10448800d4002000040f7800190037000e62900055
:10449800e04f520015003200b4002000040f7800ed
:1044a8001300370000000000110037000000000072
:1044b8000f003700000000000d003700000000006a
:1044c8000b00370000000000090037000000000062
:1044d800070037000000000005003700000000005a
:1044e8000300370000000000010037000000000052
:1044f8003e0290000402e800340798000e62900023
:10450800e04f5200020032001e027800110037000e
:104518000042eb00046798003e029000e80f52004a
:1045280086ff34001e0290000402e8001407980079
:104538001e027800e00f5200020032001e027800ce
:10454800040037001e029000eb0f520005fe3400f5
:104558001e027800040078004f0478000080fa00fa
:10456800000006000c00fa00300798004107980088
:10457800520798000002eb00040f78000002eb00dd
:10458800140798000002eb00240798001b0037006e
:104598001e0278007822b90004027800de0290003a
:1045a800848242001e0290000402420065027a00e2
:1045b800840078003e009000180007000002780090
:1045c800240798002e029000e00f520002003200eb
:1045d8002e0290000e0037001e0290000402e80030
:1045e800140798001e029000eb0f5200e8ff3400f9
:1045f8000002eb00140798001e0fe8004e0290001e
:104608009e027800848f5200f6ff35002e0290003b
:10461800040078000080fa00000006000600fa0096
:1046280010079800210798000002eb00040f78009b
:104638001e029000e10f520009003200e20f520002
:1046480011003a0064b38000ae029000848f5200db
:104658000a00340024002000040f78000a00370004
:1046680074b38000ae029000848f520005003d00b4
:1046780014002000040f7800030037000000000039
:1046880001003700000000001e02780004007800d6
:104698000080fa00000006000a00fa0030079800bf
:1046a800410798000002eb00040f78000002eb00bd
:1046b800240798000002eb001407980041be200070
:1046c8000000eb004700070000027800240798006c
:1046d8002e029000e00f5200010032001e0fe80089
:1046e8002e029000e00f5200030032001e027800f4
:1046f800ea0f5200f1ff34001e027800ea0f520060
:104708000200340004012000140798000002eb00a6
:10471800040f7800ce0090000000eb003100070085
:1047280000027800240798002e029000e00f520043
:10473800010032001e0fe8002e029000e00f520028
:10474800030032001e027800ea0f5200f1ff340025
:104758001e027800ea0f5200030034000401200012
:10476800140798001b0037002e029000e00f52003b
:1047780018003a0042be2000c1002000200020009e
:1047880078ff0700000278001407980042be200056
:10479800c10020001000200072ff0700000278000e
:1047a800140798004e019000c1002000200020004e
:1047b8006cff070000027800140798004e01900073
:1047c800c10020001000200066ff070000027800ea
:1047d800140798001e029000040078000080fa0078
:1047e800000006000600fa0010079800210798004c
:1047f8000002eb00040f78001e029000cfa2de003a
:104808006600200007002000860f5200878f5a009c
:1048180087003e00046001000600370012003700e0
:104828002400370036003700480037005a003700a8
:104838006c0037008001eb000001eb008000eb000a
:10484800200020000a050700470507002e019000f8
:10485800c10020000000eb008b0507000002780073
:10486800040f7800730037008001eb00120020006d
:104878008000eb0020002000fd0407003a05070037
:104888002e01900031002000100020007e05070056
:1048980000027800040f78002e01900031002000fb
:1048a800300020007805070000027800040f780027
:1048b800600037008001eb00220020008000eb0040
:1048c80020002000ea040700270507002e019000b9
:1048d800c10020000000eb006b0507000002780013
:1048e800040f78002e019000c10020003000200045
:1048f8006505070000027800040f78004d003700b6
:104908008001eb00320020008000eb002000200036
:10491800d7040700140507002e019000c1002000ed
:104928000000eb005805070000027800040f78002b
:104938002e019000c1002000300020005205070021
:1049480000027800040f78003a0037008001eb007d
:10495800420020008000eb0020002000c404070073
:10496800010507002e019000c10020002000200052
:104978004505070000027800040f78002e0190001a
:10498800c1002000400020003f0507000002780019
:10499800040f7800270037008001eb005200200048
:1049a8008000eb0020002000b1040700ee0407009f
:1049b8002e019000c10020002000200032050700d1
:1049c80000027800040f78002e019000c10020003a
:1049d800400020002c05070000027800040f780032
:1049e800140037008001eb00620020008000eb001b
:1049f800200020009e040700db0407002e01900021
:104a0800c1002000200020001f05070000027800d8
:104a1800040f78002e019000c10020004000200003
:104a28001905070000027800040f7800010037001c
:104a3800000000001e027800040078000080fa00e0
:104a4800000006000600fa001007980021079800e9
:104a58000002eb00040f78001e029000cfa2de00d7
:104a68006600200007002000860f5200878f5a003a
:104a780063003e00046001000600370012003700a2
:104a88001e0037002a003700360037004200370082
:104a98004e0037008001eb000001eb008000eb00c6
:104aa8002000200072040700c70407002e019000b0
:104ab800c10020000000eb00260607000002780075
:104ac800040f78004f003700130020000001eb00ae
:104ad8008000eb002000200065040700ba040700ee
:104ae8002e019000c10020001000200019060700c8
:104af80000027800040f78004200370023002000ed
:104b08000001eb008000eb002000200058040700a3
:104b1800ad0407002e019000c10020001000200005
:104b28000c06070000027800040f780035003700f3
:104b3800330020000001eb008000eb002000200083
:104b48004b040700a00407002e019000c1002000bc
:104b580010002000ff05070000027800040f78000d
:104b680028003700430020000001eb008000eb0024
:104b7800200020003e040700930407002e01900047
:104b8800c100200020002000f20507000002780084
:104b9800040f78001b003700530020000001eb00d1
:104ba8008000eb0020002000310407008604070085
:104bb8002e019000c100200020002000e50507001c
:104bc80000027800040f78000e0037006300200010
:104bd8000001eb008000eb00200020002404070007
:104be800790407002e019000c10020002000200059
:104bf800d805070000027800040f7800010037008c
:104c0800000000001e027800040078000080fa000e
:104c1800000006000e00fa00889fbe0050079800aa
:104c2800610798000002eb00040f78000002eb0017
:104c3800140798006e0037000002eb002407980064
:104c48006022b80034079800450798001e027800d3
:104c58006c22b90004027800ee02900084824200bf
:104c68001e0290000402420065037a00260798009d
:104c780055b380002e02900004aab900840278007f
:104c8800f65480002e0290000402530004aab900d2
:104c980004027800cfa2de000400be003af007004c
:104ca8000002be0034079800450798003e009000b7
:104cb800ce0090008af007000002be0022ae2e004f
:104cc800739823000400be00dcf007000002be0059
:104cd80072a32f00c3a523000400be0066ef0700df
:104ce8000002be000404be003e009000ce0090000a
:104cf8007bf007000002be0002002000030424002d
:104d08000400be0001f107000002be00721928006d
:104d1800934223000400be00c8f007000002be0052
:104d28000401be000800be0053ef07000002be00e9
:104d3800d4428800e54288005e029000e10f5200ec
:104d480011003a00d4428000e54280003233290045
:104d5800833824000400be0046ef07000002be00ae
:104d68001e0378006633b900860378001e0390009e
:104d780006834300c233dd00e68520000683430036
:104d8800048bbe00130037005e029000e20f520051
:104d980010003a00d4428000e542800032332900f6
:104da800833824000400be0032ef07000002be0072
:104db8001e0378006633b900860378001e0390004e
:104dc80006834300c233dd00e697200006834300d4
:104dd800048bbe001e0290000402e800140798002d
:104de8001e029000e50f520093ff34001e0fe800ea
:104df8001e027800eb0f5200f9ff34001e029000eb
:104e0800cfa2de000400be00dfef07000002be00f4
:104e18000400be004f04be000080fa000000060037
:104e28000a00fa0010079800210798003207980036
:104e3800034f98000002eb00040f78000e4a900020
:104e4800e04f52001a0032003e029000e70f520075
:104e58000b003c00150020003e029000042add00f3
:104e680084427800848520001442780004c27200cd
:104e78000002fd0058e8b7000002fd0027003700d7
:104e88003e0290006802520015002000042add004e
:104e980084427800948520001442780004c272008d
:104ea8000002fd0059e8b7000002fd001b003700b2
:104eb8003e029000e70f52000c003c001500200055
:104ec8003e029000042add000442780084c2ea0011
:104ed800848520001442780004c262000002fd00ac
:104ee80058e8b7000002fd000c0037003e029000b1
:104ef8006802520015002000042add0004427800f0
:104f080084c2ea00948520001442780004c262003a
:104f18000002fd0059e8b7000002fd001e029000e3
:104f2800e10f520015003a008485200014427800f1
:104f38008402fb00f40f2000048362002e0290001c
:104f48006c22b90084027800c4ac200004824200bc
:104f5800060a780094852000144278000403fb00b8
:104f68002e0290006c22b90084027800e4ac200084
:104f780004824200060a78001a0037001e029000d8
:104f8800e20f520015003a00848520001442780090
:104f98008402fb00f40f2000048362002e029000bc
:104fa8006c22b90084027800c4b520000482420053
:104fb800060a780094852000144278000403fb0058
:104fc8002e0290006c22b90084027800e4b520001b
:104fd80004824200060a78000200370024012000fb
:104fe800040f78001e027800040078000080fa00a0
:104ff800000006001000fa005007980061079800aa
:10500800720798000002eb00040f78000002eb0022
:10501800340798000002eb00440798000002eb00f8
:1050280014079800220037000002eb0024079800bc
:10503800190037003e029000e00f520013003a00ba
:10504800ce02900034062000848f520007003400fe
:1050580013c0b3002e019000ee0090005e00900097
:105068006fff070014002000040f78004e02900024
:10507800f40f520005003c008041eb002e01900027
:10508800ee0090005e00900065ff07002e02900081
:105098000402e800240798002e029000ec0f52004a
:1050a800e4ff34001e0290000402e8001407980090
:1050b8001e029000ec0f5200dbff34005e009000ef
:1050c8007c0107001e027800040078000080fa00c6
:1050d800000006000800fa00100798002107980051
:1050e800624798000002eb00040f78006e429000bf
:1050f800e04f5200080032004585200095427800b4
:1051080004c8b30004c272000002fd0054e8b700ee
:105118000002fd0006003700448520001442780094
:105128000474a1000002fd0054e8b7000002fd006d
:105138001e029000e10f52000a003a004485200048
:10514800144278000403fb002e0290006c22b90080
:105158008402780044ac200004824200060a7800e9
:10516800110037001e029000e20f52000a003a00b8
:1051780044852000144278000403fb002e029000ae
:105188006c22b9008402780044b5200004824200f1
:10519800060a78000400370024012000040f780074
:1051a8001e027800010037001e0278000400780013
:1051b8000080fa00000006000a00fa0010079800b4
:1051c8002107980032079800430798000002eb0077
:1051d800040f78001e029000044278000002fd00cf
:1051e80055e8b7000002fd009e02900004f0200080
:1051f8000482620048a2de00844278002e029000f9
:105208004422dd000442780004c242000002fd008e
:1052180056e8b7000002fd00ae02900004ff20002f
:105228000482620044a2de00044278000002fd000d
:1052380057e8b7000002fd003e029000e10f52005f
:105248001c003a0054852000144278000403fb0037
:105258004e0290006c22b9008402780064ac2000f1
:1052680004824200060a780064852000144278000f
:105278000403fb004e0290006c22b90084027800ff
:1052880084ac200004824200060a7800748520005d
:10529800144278000403fb004e0290006c22b9000f
:1052a80084027800a4ac200004824200060a780038
:1052b800210037003e029000e20f52001c003a0025
:1052c80054852000144278000403fb004e0290002d
:1052d8006c22b9008402780064b520000482420080
:1052e800060a780064852000144278000403fb0055
:1052f8004e0290006c22b9008402780084b5200028
:1053080004824200060a780074852000144278005e
:105318000403fb004e0290006c22b900840278005e
:10532800a4b5200004824200060a78000200370073
:1053380024012000040f78001e0278000400780081
:105348000080fa00000006000800fa001007980024
:1053580021079800624798000002eb00040f7800cc
:105368006e429000e04f5200070032004485200052
:10537800144278000404a0000002fd0054e8b700bd
:105388000002fd000700370045852000954278009f
:10539800e4cfb30004c262000002fd0054e8b70085
:1053a8000002fd001e029000e10f52000a003a00c0
:1053b80044852000144278000403fb002e0290006c
:1053c8006c22b9008402780044ac200004824200b8
:1053d800060a78000f0037001e029000e20f520004
:1053e8000a003a0044852000144278000403fb00b8
:1053f8002e0290006c22b9008402780044b5200087
:1054080004824200060a78000200370024012000c6
:10541800040f78001e027800040078000080fa006b
:10542800000006000600fa001007980021079800ff
:105438000002eb00040f78000042eb000002fd00c0
:1054480058e8b7000002fd009585200095427800d5
:1054580004cfb30004c262000002fd0059e8b7009f
:105468000002fd001e029000e10f520013003a00f6
:1054780084852000144278000403fb002e0290006b
:105488006c22b90084027800c4ac20000482420077
:10549800060a780094852000144278000403fb0073
:1054a8002e0290006c22b90084027800e4ac20003f
:1054b80004824200060a7800180037001e02900095
:1054c800e20f520013003a0084852000144278004d
:1054d8000403fb002e0290006c22b90084027800bd
:1054e800c4b5200004824200060a78009485200092
:1054f800144278000403fb002e0290006c22b900cd
:1055080084027800e4b5200004824200060a78008c
:105518000200370024012000040f78001e027800e2
:10552800040078000080fa00000006000600fa0077
:1055380010079800210798000002eb00040f78007c
:1055480094852000144278006f4262000002fd003a
:1055580059e8b7000002fd001e029000e10f52005a
:105568000a003a0094852000144278000403fb00e6
:105578002e0290006c22b90084027800e4ac20006e
:1055880004824200060a78000f0037001e029000cd
:10559800e20f52000a003a00948520001442780075
:1055a8000403fb002e0290006c22b90084027800ec
:1055b800e4b5200004824200060a780002003700a1
:1055c80024012000040f78001e02780004007800ef
:1055d8000080fa00000006000800fa001007980092
:1055e80021079800624798000002eb00040f78003a
:1055f8006e429000e04f52000700320044852000c0
:10560800144278000424a0000002fd0054e8b7000a
:105618000002fd000700370045852000954278000c
:10562800b4cfb30004c262000002fd0054e8b70022
:105638000002fd001e029000e10f52000a003a002d
:1056480044852000144278000403fb002e029000d9
:105658006c22b9008402780044ac20000482420025
:10566800060a78000f0037001e029000e20f520071
:105678000a003a0044852000144278000403fb0025
:105688002e0290006c22b9008402780044b52000f4
:1056980004824200060a7800020037002401200034
:1056a800040f78001e027800040078000080fa00d9
:1056b800000006000400fa00100798000002eb0042
:1056c800040f78001e029000e10f520004003a0017
:1056d80041ac2000c00020009a05070009003700ef
:1056e8001e029000e20f520004003a0041b520006b
:1056f800c0002000930507000200370024012000a5
:10570800040f78001e027800040078000080fa0078
:10571800000006000000fa0081c4b3000040eb005e
:10572800eb0e070000027800cfa2de000400be00e6
:1057380095ed07000002be004441880055418800ed
:1057480081c4b30010c0b300e10e07000002780066
:10575800cfa2de000400be008bed07000002be00f1
:10576800644188007541880081c4b30020c0b3003b
:10577800d70e070000027800cfa2de000400be00aa
:1057880081ed07000002be00844188009541880031
:1057980081c4b30030c0b300cd0e0700000278000a
:1057a800cfa2de000400be0077ed07000002be00b5
:1057b800a4418800b5418800b1c4b3000040eb00a3
:1057c800c30e070000027800cfa2de000400be006e
:1057d8006ded07000002be00c4418800d541880075
:1057e800b1c4b30010c0b300b90e070000027800be
:1057f800cfa2de000400be0063ed07000002be0079
:10580800e4418800f54188003f0007000080fa0065
:10581800000006000000fa0021c0b30020c0b30059
:10582800ab0e070000027800cfa2de000400be0025
:1058380055ed07000002be000442880015428800aa
:1058480021c0b30030c0b300a10e070000027800e9
:10585800cfa2de000400be004bed07000002be0030
:1058680024428800354288000442800015428000a6
:1058780002002f00f35724000400be00dbec0700f1
:105888000002be0002002000030a24000400be003b
:10589800eaed07000002be0042e12200e3312400e5
:1058a8000400be00e5ed07000002be0004428800c7
:1058b80015428800244280003542800002002f00f3
:1058c800f35724000400be00c8ec07000002be0025
:1058d80002002000030a24000400be00d7ed0700e0
:1058e8000002be0042e12200e33124000400be00b1
:1058f800d2ed07000002be0024428800354288002d
:105908000080fa00000006000000fa00881f7800f6
:105918000002eb00044088001b00370008408000ac
:1059280004408000c222dd008482200004824200fc
:105938001402be0002002f00f35724000400be002a
:10594800aaec07000002be0002002000030a24009f
:105958000400be00b9ed07000002be000400be004e
:10596800e8ec07000002be00840278000803440047
:10597800c481200004024300050a78000440800026
:105988000402e8000440880004408000e40f52004c
:10599800e2ff34004f0478000080fa00000006009f
:1059a8000000fa000042eb000400780068f6b70037
:1059b8000080fa00000006000200fa00889fbe007e
:1059c800000f78008466210014427800e04f5200ee
:1059d800310032004842800059428000e540800092
:1059e8001e02780004aab90004027800cfa2de00e3
:1059f8000400be00e4ec07000002be000401be0083
:105a08000800be001bec07000002be0044428800ec
:105a18005542880068428000794280000541800034
:105a28001e02780004aab90004027800cfa2de00a2
:105a38000400be00d4ec07000002be000401be0052
:105a48000800be000bec07000002be00644288009c
:105a58007542880088428000994280002541800074
:105a68001e02780004aab90004027800cfa2de0062
:105a78000400be00c4ec07000002be000401be0022
:105a88000800be00fbeb07000002be00844288004d
:105a98009542880030003700f54080001e027800eb
:105aa80004aab90004027800cfa2de000400be00f8
