:020000040000fa
:080000000002040000000000f2
:020000040000fa
:04000800540400009c
:020000040000fa
:04000c005404000098
:020000040000fa
:040010005404000094
:020000040000fa
:040014005404000090
:020000040000fa
:04001800540400008c
:020000040000fa
:04001c005404000088
:020000040000fa
:040020005404000084
:020000040000fa
:040024005404000080
:020000040000fa
:04002800540400007c
:020000040000fa
:04002c005404000078
:020000040000fa
:040030005404000074
:020000040000fa
:04003400b80200000e
:020000040000fa
:04003800540400006c
:020000040000fa
:04003c005404000068
:020000040000fa
:040040005404000064
:020000040000fa
:04004400d0020000e6
:020000040000fa
:04004800540400005c
:020000040000fa
:04004c005404000058
:020000040000fa
:040050005404000054
:020000040000fa
:04005400683b000005
:020000040000fa
:04005800c43b0000a5
:020000040000fa
:04005c005404000048
:020000040000fa
:040060005404000044
:020000040000fa
:040064005404000040
:020000040000fa
:04006800540400003c
:020000040000fa
:04006c005404000038
:020000040000fa
:040070005404000034
:020000040000fa
:040074005404000030
:020000040000fa
:04007800540400002c
:020000040000fa
:04007c005404000028
:020000040000fa
:040080005404000024
:020000040000fa
:040084005404000020
:020000040000fa
:04008800540400001c
:020000040000fa
:04008c005404000018
:020000040000fa
:040090005404000014
:020000040000fa
:040094005404000010
:020000040000fa
:04009800540400000c
:020000040000fa
:04009c005404000008
:020000040000fa
:0400a0005404000004
:020000040000fa
:0400a4005404000000
:020000040000fa
:0400a80054040000fc
:020000040000fa
:0400ac0054040000f8
:020000040000fa
:0400b00054040000f4
:020000040000fa
:0400b40054040000f0
:020000040000fa
:0400b80054040000ec
:020000040000fa
:0400bc0054040000e8
:020000040000fa
:0400c00054040000e4
:020000040000fa
:0400c40054040000e0
:020000040000fa
:0400c80054040000dc
:020000040000fa
:0400cc0054040000d8
:020000040000fa
:0400d00054040000d4
:020000040000fa
:0400d40054040000d0
:020000040000fa
:0400d80054040000cc
:020000040000fa
:0400dc0054040000c8
:020000040000fa
:0400e00054040000c4
:020000040000fa
:0400e40054040000c0
:020000040000fa
:0400e80054040000bc
:020000040000fa
:0400ec0054040000b8
:020000040000fa
:0400f00054040000b4
:020000040000fa
:0400f40054040000b0
:020000040000fa
:0400f80054040000ac
:020000040000fa
:0400fc0054040000a8
:020000040000fa
:0401000054040000a3
:020000040000fa
:04010400540400009f
:020000040000fa
:04010800540400009b
:020000040000fa
:04010c005404000097
:020000040000fa
:040110005404000093
:020000040000fa
:04011400540400008f
:020000040000fa
:04011800540400008b
:020000040000fa
:04011c005404000087
:020000040000fa
:040120005404000083
:020000040000fa
:04012400540400007f
:020000040000fa
:04012800540400007b
:020000040000fa
:04012c005404000077
:020000040000fa
:040130005404000073
:020000040000fa
:04013400540400006f
:020000040000fa
:04013800540400006b
:020000040000fa
:04013c005404000067
:020000040000fa
:040140005404000063
:020000040000fa
:04014400540400005f
:020000040000fa
:04014800540400005b
:020000040000fa
:04014c005404000057
:020000040000fa
:040150005404000053
:020000040000fa
:04015400540400004f
:020000040000fa
:04015800540400004b
:020000040000fa
:04015c005404000047
:020000040000fa
:040160005404000043
:020000040000fa
:04016400540400003f
:020000040000fa
:04020800540400009a
:020000040000fa
:04020c005404000096
:020000040000fa
:040210005404000092
:020000040000fa
:04021400540400008e
:020000040000fa
:04021800540400008a
:020000040000fa
:04021c005404000086
:020000040000fa
:040220005404000082
:020000040000fa
:04022400540400007e
:020000040000fa
:04022800540400007a
:020000040000fa
:04022c005404000076
:020000040000fa
:040230005404000072
:020000040000fa
:04023400540400006e
:020000040000fa
:04023800540400006a
:020000040000fa
:04023c005404000066
:020000040000fa
:040240005404000062
:020000040000fa
:04024400540400005e
:020000040000fa
:04024800540400005a
:020000040000fa
:04024c005404000056
:020000040000fa
:040250005404000052
:020000040000fa
:04025400540400004e
:020000040000fa
:04025800540400004a
:020000040000fa
:04025c005404000046
:020000040000fa
:040260005404000042
:020000040000fa
:04026400540400003e
:020000040000fa
:04026800540400003a
:020000040000fa
:04026c005404000036
:020000040000fa
:040270005404000032
:020000040000fa
:04027400540400002e
:020000040000fa
:04027800540400002a
:020000040000fa
:04027c005404000026
:020000040000fa
:040280005404000022
:020000040000fa
:04028400540400001e
:020000040000fa
:04028800540400001a
:020000040000fa
:04028c005404000016
:020000040000fa
:040290005404000012
:020000040000fa
:04029400540400000e
:020000040000fa
:04029800540400000a
:020000040000fa
:04029c005404000006
:020000040000fa
:0402a0005404000002
:020000040000fa
:0402a40054040000fe
:020000040000fa
:0402a80054040000fa
:020000040000fa
:0402ac0054040000f6
:020000040000fa
:0402b00054040000f2
:020000040000fa
:0402b40054040000ee
:020000040000fa
:0402b80054040000ea
:020000040000fa
:0402bc0054040000e6
:020000040000fa
:0402c00054040000e2
:020000040000fa
:0402c40054040000de
:020000040000fa
:0402c80054040000da
:020000040000fa
:0402cc0054040000d6
:020000040000fa
:0402d00054040000d2
:020000040000fa
:0402d40054040000ce
:020000040000fa
:0402d80054040000ca
:020000040000fa
:0402dc0054040000c6
:020000040000fa
:0402e00054040000c2
:020000040000fa
:0402e40054040000be
:020000040000fa
:0402e80054040000ba
:020000040000fa
:0402ec0054040000b6
:020000040000fa
:0402f00054040000b2
:020000040000fa
:0402f40054040000ae
:020000040000fa
:0402f80054040000aa
:020000040000fa
:0402fc0054040000a6
:020000040000fa
:0403000054040000a1
:020000040000fa
:04030400540400009d
:020000040000fa
:040308005404000099
:020000040000fa
:04030c005404000095
:020000040000fa
:040310005404000091
:020000040000fa
:04031400540400008d
:020000040000fa
:040318005404000089
:020000040000fa
:04031c005404000085
:020000040000fa
:040320005404000081
:020000040000fa
:04032400540400007d
:020000040000fa
:040328005404000079
:020000040000fa
:04032c005404000075
:020000040000fa
:040330005404000071
:020000040000fa
:04033400540400006d
:020000040000fa
:040338005404000069
:020000040000fa
:04033c005404000065
:020000040000fa
:040340005404000061
:020000040000fa
:04034400540400005d
:020000040000fa
:040348005404000059
:020000040000fa
:04034c005404000055
:020000040000fa
:040350005404000051
:020000040000fa
:04035400540400004d
:020000040000fa
:040358005404000049
:020000040000fa
:04035c005404000045
:020000040000fa
:040360005404000041
:020000040000fa
:04036400540400003d
:020000040000fa
:10040000cf6921000e7f24000e018800000000004b
:10041000000020000000e000020032000001200087
:10042000200288000c00070020e2230001002000c9
:1004300011000700000020000000e0000200320070
:10044000000002000000000024460200000000003e
:100450000040da000000fe004440a90040432000b4
:100460000000e0000300320000002000a00188002e
:100470004440a80000000600910188008000780038
:100480000000eb0015003700e280400032a0b4000d
:100490009101ba00e280400032a0b4009102ba009b
:1004a000e280400032a0b4000002eb00472bde00e7
:1004b000f507b200602ce10004003a000059eb009f
:1004c0008301e900fdff3e00040037006128e100e0
:1004d000010032000082eb000b00070011c3ba00dc
:1004e0001101ba000604e00003003a000200e00037
:1004f000e5ff3a0000000600f607b200960188000a
:1005000082007800f5ff37003159ba008301e90015
:100510000c0032002159ba008301e90008003200c2
:100520000400e00003003a00e280400032a0b40082
:10053000f5ff370011d9ba008301e900faff3a004c
:100540008100e800e180400032a0b4000000060015
:100550002c3b040000000000363b040000000000bb
:10056000403b0400000000004a3b04000000000083
:10057000809fbe000000fa002040800031408000d3
:1005800061004000e0804800204088003140880041
:100590008460a9000080fa004f00be000040060001
:1005a0003600f800809fbe00829fbe00849fbe0080
:1005b000869fbe000000fa0020408000314080008d
:1005c00000007800c517070084e0a9000080fa0049
:1005d0004f03be004f02be004f01be004f00be00e1
:1005e0003600f900004006000000fa0005e1a9000d
:1005f0000421a900200880000040a1000050a000b4
:10060000200888000021ef00c02b2000100888007f
:100610008460a9009460a80005e1a8000080fa00a9
:10062000000006000000fa001061a90011e1a90015
:100630001021a90010c1a900800880000040a0007e
:100640000050a000800888000621ef000080eb0029
:100650006008880084e0a90094e0a80011e1a800e7
:100660000080fa00000006000000fa00224080002e
:1006700033408000a0408000b14080000001510064
:10068000818159006040800071408000020040007c
:1006900083804800604088007140880020408000ce
:1006a00031408000a0408800b14088002240800096
:1006b00033408000e0408000f140800000015100a4
:1006c00081815900004080001140800002004000fc
:1006d000838048000040880011408800204080004e
:1006e00031408000e0408800f140880022408000d6
:1006f00033408000c0408000d140800000015100a4
:1007000081815900804080009140800002004000bb
:10071000838048008040880091408800204080000d
:1007200031408000c0408800d140880022408000d5
:1007300033408000004180001141800000015100e1
:1007400081815900404080005140800002004000fb
:10075000838048004040880051408800204080004d
:100760003140800000418800114188000080fa007b
:10077000000006000200fa00004f78001e407800da
:10078000e14f500004003a0060408000714080005a
:1007900000007800160037001e407800e24f50003d
:1007a00004003a0000408000114080000000780002
:1007b0000f0037001e407800e34f500004003a005d
:1007c00080408000914080000000780008003700e1
:1007d0001e407800e44f500004003a004040800082
:1007e0005140800000007800010037000000370011
:1007f0000080fa00000006000400fa00004f7800b4
:10080000110798001e407800e14f500005003a00a3
:100810001e009000cf80de0060408800714088009c
:10082000170037001e407800e24f500005003a00e4
:100830001e009000cf80de0000408800114088003c
:100840000f0037001e407800e34f500005003a00cb
:100850001e009000cf80de0080408800914088001c
:10086000070037001e407800e44f500004003a00b3
:100870001e009000cf80de0040408800514088007c
:100880000080fa00000006000200fa00000f780065
:100890001e007800cf80de008040880091408800f4
:1008a0000080fa00000006000040da000000fe00b0
:1008b0000a00fa00e20f500020003e0020a5800050
:1008c000e10f500006003200802320004523200065
:1008d00023232000042320000000e00004003a004d
:1008e0008022200045222000232220000422200014
:1008f000060028001403630003003a00060878008d
:1009000000002800140a700013a8a30001003a0098
:1009100013a0a00002007800050037001388a30090
:10092000feff32003102fb00840a78000000e9007b
:100930000000e000f9ff3a00080037003300200013
:10094000b3bf9f00c0bf9f00d1bf9f00e2bf9f0009
:100950006a8057004a0307006fb9970002007800c9
:100960000080fa0000000600889fbe008004780026
:1009700030a580000000e00004003a000e000700ef
:100980000084eb000000e0000800350038a580007e
:100990000900e000050032000900440006000700dd
:1009a0000000e00001003d000084eb00080078003a
:1009b0004f04be0000000600800078000100e00047
:1009c00003003a00804a210030a58800000005009d
:1009d0000080eb00c2692100828f500002003e00bf
:1009e00031a588000000eb000000060006a2a90067
:1009f0000682a800000006000602ab00feff3a00d7
:100a00000642ab00fcff3a000662ab00faff3a0078
:100a10000622ab00f8ff3a000682ab00f6ff3a0070
:100a200009c2ab00f4ff3a00000006000662a8000d
:100a30000662ab00feff3a0008c2a9000010800069
:100a4000000006008040780000c0eb008180fb00c1
:100a50001110880008e2ab0007003a0009c2ab00a1
:100a6000feff3a00e4ff07000040eb000802e2004e
:100a700001003d00e0cfb300000006000602a80020
:100a8000000006000642a8000000060003f0a200d5
:100a9000889fbe008a9fbe008c1f7800fa00070066
:100aa000010133006450e1004f0032006420e10096
:100ab0005200320003826c0007003b000905d000a1
:100ac0000306d000820f54000c065d0002003900be
:100ad0000200320089017800030678008582550003
:100ae00004003d000003fd008103fd008502ea00d3
:100af0008b854200840f720002003b0060001000f2
:100b0000e08018006011b8000005eb007a28e100d1
:100b10000a00390006007800c75ddd00f707b20063
:100b2000878075002d003700828171000a017800ee
:100b3000610560008180d1000080d3008502e9005a
:100b4000f9ff3b00060440008784480002003b0098
:100b500060041400e0841c000988a3000700320030
:100b60008a81710082817100610164008904d10071
:100b70000884d3008b05e800170037000978a3002c
:100b800013003a000b00e000130034008b05e9006d
:100b90000804440089844c000a4474000978a300c6
:100ba0000d003a000b00e000070034008b05e9005f
:100bb0000804440089844c0001003a000b00200026
:100bc0000978a300f7ff32000001eb0002003700b4
:100bd000828171000a017800700007000cf0a70004
:100be00001f0a000b90037006420e10002003a00e3
:100bf000838f6c00b90033000801be000200be0004
:100c0000b2003700889fbe008a9fbe008c1f78000c
:100c10009d000700a400330003866c006450e100cf
:100c20002e0032006420e100330032006150e10008
:100c30002f0032006120e10031003200858555002f
:100c4000eb07b00009002000080420000500370071
:100c50000804440089844c000a0031000603430064
:100c600087834b000001530081815b00f8ff330054
:100c70000203be000800a0000804440089844c0060
:100c8000f6ff3900c639dd00830173000100320030
:100c9000130020008904d1000884d3000998a30020
:100ca000050032000800a7000300a0008904d1005d
:100cb0000884d3008b05e8008904d1000884d300a0
:100cc0000001eb000281d2003400070001f0a10016
:100cd0000cf0a70001f0a0007c0037006420e100c8
:100ce0007e0032000801be000200be00f7ff3700a0
:100cf0006120e100790032006000b800f3ff3700a6
:100d00000000200001f82700f0ff37000001be00be
:100d1000480007000470a70003f0a1006509b100b6
:100d2000160032000d0035006828e100060035008d
:100d3000f0ff2f00f1ff27000300e00013003b004d
:100d400001002800000005000000400081804800ec
:100d50008502e900fcff3a0008003700f88f4200e6
:100d600002003c008000eb00000005008100d10083
:100d70000080d3008502e800fcff3a000300e00099
:100d800002003b0060001000e08018000000060038
:100d90004f89de0082017800870037008100200043
:100da000618055000b003d000b00200061fe2f000c
:100db0000100e1001d0034008281710061016400c6
:100dc0008904d1000884d3000000e800faff3a004b
:100dd00071002000610064000300700002006000e8
:100de0000900320061044400e0844c000988a50039
:100df000050032008b05e8006808e10002003a00b7
:100e00008904d1000884d300f20f20000258e100c9
:100e100005003d00c75ddd00f907b200898075005f
:100e200008007800000006000bf827008b0078000f
:100e300000000500c70ade00f107b200f50fb2009e
:100e400008003200e1cf4200020032000170a00031
:100e500024000500810f7000010032000408050025
:100e600044000500810f700002003a0014000500e4
:100e70008502e9000000400081c04800fcff3b0003
:100e80000170a000240005000004be00e9ff070077
:100e90000003be000405be000200be00e5ff07001f
:100ea000844f7500000006000200be006450e1009f
:100eb000050036006420e100020036000968a30046
:100ec00001003a000800be000160a0004f06780053
:100ed0004f05be004f04be0000000600f0ff2f00cb
:100ee000f1ff2700f9ff3700889fbe008a9fbe00f0
:100ef0008c1f7800e4ff0700ebff330003866c00d3
:100f00006450e100240032006420e1002700320038
:100f10006150e100220032006120e1002100320036
:100f20008b854200eb07b1000134b800003ab800ed
:100f30000804420089844a00013ab8000030b80031
:100f40008880400009014a0004003300000040008e
:100f500081804800020149008b05e900c909dd00d4
:100f6000830170000100320013002000c814de006d
:100f70004814dd004709de001200b200c808de0098
:100f80000884700085ff070001f0a1000cf0a700a5
:100f900001f0a000cdff37006120e100cfff32005b
:100fa0000801be000200be00f7ff37006150e100fb
:100fb000fcff3a00c9ff3700881f7800030478005f
:100fc0000300e00007003d0060001000e080180012
:100fd00060011900e081190002003b0001f02d00c2
:100fe000030037000400070008f0a70001f0a0008c
:100ff0004f04780000000600889fbe008a9fbe0054
:101000000082700004027100048271002600320028
:101010000004be000200be006011b8006b09200091
:10102000950220000182cf000a0039000541b1007d
:101030000082cf00070039000541b1000982cf00ce
:10104000040039000541b1000882cf0001003900d9
:101050000541b10005425200120032000a003b0077
:1010600082817100610164008100d1000080d300a1
:101070008984d3000884d3008b05e8000442e8008b
:10108000f7ff3a00070037000804440089844c0049
:1010900000004800818048008b05e9000442e90017
:1010a000f9ff3a003dff07004f05be004f04be00a8
:1010b00000000600889fbe008a9fbe008c9fbe0075
:1010c000e148210072a480000200e0000b003a0019
:1010d0006481400072a48800c2a48800a100980026
:1010e000b1a48800214190000204a000a240980011
:1010f000614190000204a000e240980067044000b3
:101100004244de004244dd00b4a48000814a210054
:10111000c9692100818454002d00200011000900bc
:101120008d04d800800678000886e8000c0646008a
:101130008001eb0002003700130020000b02780052
:10114000a44090000108a300020032000a0037000a
:10115000120a780014017800a24090000108a30050
:10116000fbff320088004200810f5100020039006d
:101170000800e00042003d00940578000b00a1004b
:10118000848f5500edff3e00e18f5100eaff3a00e9
:101190008d0f540002003600890f540014003900ee
:1011a0006141b8006148b900b4ff2f00050020007c
:1011b0000000520081805a00800f5100818f590039
:1011c00002003500640544000a003700804a21000f
:1011d000fa692100000555000805450011000900c5
:1011e0000985d8000980b9000005780001003700a2
:1011f0000c0578000a007800dbfd0700e10f4000d5
:1012000005003a00640544000a007800d6fd070096
:10121000e10f40002b003200c1a48000800878005c
:10122000c1a48000e481400021419000830f500060
:10123000020032000204a000010037000204a100f5
:10124000a2409800640555000a0540000a0878008d
:10125000caa48800e1482100010d7800c2a48000e2
:10126000a24090000104a00021419800a0409000fd
:101270000104a100214098008001eb00afff37007e
:10128000b1a48800810f5100070036001101be0093
:10129000d2a48800e3a48800940878000041eb0001
:1012a000b1a48000a2409800b3a48000030a780093
:1012b000a44090000104a000214298006400420074
:1012c000010037000000eb004f06be004f05be00d6
:1012d0004f04be00000006000000e00008003200dd
:1012e00064005000b1a48000810f50000100310063
:1012f000b0a48800a04090000104a1002140980003
:1013000000000600889fbe008a9fbe000004be0049
:101310000900e00007003a000000eb000800e000d0
:101320003600320008007800ebff07000000eb00f9
:10133000320037000800e00003003a00090078009e
:101340005cff07002d003700640054009005780012
:1013500068f897000008a300020032000800780037
:10136000ddff07000900780052ff070080047800c5
:101370000000eb000900e00020003200888f5400dc
:101380001b00320069bd97000905550042d5de00fb
:1013900088855500c2ddde000a0178008b0f5500fc
:1013a000010036000b0178004211dd008800780052
:1013b0000900780014000700888f54000e003100e7
:1013c0004255dd000a854400880f55000a003600aa
:1013d0000804550042c4de004244dd000884440095
:1013e000d0a48000e1a48000008cbe000200370081
:1013f0000800780001003700090078004f05be00a2
:101400004f04be0000000600800178000200370093
:10141000b15978000201e9000200e000fcff3a0047
:101420000000060080017800020037008159780032
:101430000201e9000200e000fcff3a0000000600a3
:101440000000fa0068815700cfb89700404721009c
:10145000620507000080fa00000006000000fa00a4
:1014600068815700cfb89700404721005b0507000f
:101470000080fa0000000600889fbe00010478008a
:10148000b80090008084eb000118a3003a003200fd
:10149000180190000198a30002003a000200e00049
:1014a00035003a000190a0003104980080047800d3
:1014b000f90fb2000200e00002003a00280090009c
:1014c000000c7800ea8f540005003a000178a30070
:1014d00003003a0088007800d0002000e6ff0700f3
:1014e00018009000d8009000810f50000b003200cf
:1014f0000000e800100498001800780009487800ff
:10150000000ce80011c0b300e04921000148780058
:10151000ea8f540018003a00050037008800780070
:101520000940780017000700800478001200370097
:10153000380090000088a3000f00320018019000ce
:10154000a800900048009000d9fc07009800900087
:10155000810f500004003200380090000003b300f7
:10156000300498008084eb000000eb001004980029
:1015700028009000000c7800090078004f04be009d
:10158000000006000200fa00889fbe00a0ff9f0036
:1015900001047800380090000068a30033003a008e
:1015a000e200600005003a000003b3003004980038
:1015b000110498000080eb002e003700d804900042
:1015c0000900e00006003a0012002000e680570003
:1015d00048009000b6fc070019049800230037006b
:1015e000a80090000100e00008003a00114a210024
:1015f00021049800010c780021002000510498007b
:10160000110498000030a0003004980018019000e8
:10161000a800900048009000a5fc0700280090005a
:101620008080eb0011049800aff897000148780023
:10163000000ce8002ff89700ea4f50000b003a002a
:10164000380090000088a3000800320018019000c4
:10165000a80090004800900095fc07000000eb00f7
:1016600010049800a8009000010c7800aff89700d3
:101670000100fb004f04be000080fa0000000600dd
:1016800000c0da00000006002800fa00889fbe00b3
:101690008a9fbe008c9fbe0007067800878669007f
:1016a0000c003b00030478008704780008f0a100d8
:1016b00009f0a100840f5000858f5800860f590053
:1016c000890f5c00030033000cf0a20001003a0017
:1016d0000cf0a100fe0007006400e1005f00320092
:1016e000780147006408e100610032006c014700a6
:1016f000748557003200be001201be003a04be00dd
:101700001a05be001e039000be0a90008503530018
:1017100006003d000004fd008104fd000205fd00ff
:101720008305fd008703ea00050378000df8a30098
:101730000400320060041400e0841c0060051d00f9
:10174000e0851d006022b8007d0320000d38e10017
:101750008006eb000b0039004433dd00f300b200db
:101760008301730039003700848272000d02780013
:10177000e10664008b85d1000a85d3008984d300fb
:101780000884d3008703e900f7ff3b00080040000e
:10179000898048000a0149008b81490004003b0010
:1017a00060001000e080180060011900e08119005d
:1017b0000358a300090032008d82720084827200f7
:1017c000610260008301d1000281d3008180d300d7
:1017d0000080d3000603e8001b0037000348a30085
:1017e00017003a000600e000170034000603e90085
:1017f0000d00a3000000480081804800020149005c
:10180000838149000348a3000f003a000600e0006e
:10181000090034000603e900000040008180480010
:10182000020149008381490001003a000003eb00f6
:101830000348a300f5ff32006022b8000200370021
:1018400084827200618266007500070003f0a100c7
:101850000cf0a70003f0a000b100370064014700be
:101860006408e10002003a000df8a300a9003a0064
:101870003200be001201be00a90037008f1fd10048
:10188000fc0207008f87e9000000e000000006006e
:10189000809feb00f70207008f87e9000000e0005f
:1018a000000006002800fa00889fbe008a9fbe0044
:1018b0008c9fbe0003866b00850007006400e1007a
:1018c000440032006408e1004a0032006100e10097
:1018d000460032006108e10049003200ec06470092
:1018e0006000b8003d02be003d03be00f486570014
:1018f0006011b8003d04be003d05be007d03200020
:101900000b0037000000a0008d06e9001300320034
:101910000402420085824a0006034b0087834b0085
:101920000000400081804800020149008381490095
:101930000802520089825a000a035b008b835b0015
:10194000f0ff3b000802420089824a000a034b0074
:101950008b834b008d06e900edff3a008482720014
:1019600086827200f707b20087827200010032009f
:10197000150020001e0490003e0b9000060354004a
:10198000e63fb0000368a300070032000000a70094
:101990000500a0008301d1000281d3008180d30023
:1019a0000080d3000603e8008301d1000281d30048
:1019b0008180d3000080d3000002eb000482d200bb
:1019c0001700070003f0a1000cf0a70003f0a0002f
:1019d00053003700640247006408e1004d00320004
:1019e0003400be003401be00f6ff37006108e1009c
:1019f000480032006011b8006000b800f1ff370005
:101a000003ff270002002000fbff3700801feb00d0
:101a1000980207008f87e9000000e0000000060040
:101a20001800200057002000080453000d003d005e
:101a30000600200097fc2f000740e1001e00340044
:101a400084827200610260008301d1000281d300b0
:101a50008180d3000080d3000804e800f8ff3a003a
:101a60004700200061046000050474000404640061
:101a70000d00320061004000e08048006001490034
:101a8000e081490003b8a500070032000603e80022
:101a90006538e10004003a008301d1000281d300df
:101aa0008180d3000080d300f87f20000830e1005f
:101ab00003003500080378006000b8006011b8002a
:101ac0004433dd00f300b200830173000000060020
:101ad000680447000294be000094be00fc04470066
:101ae0008694be008494be0009007800aa02070014
:101af00008007800a802070099007800814f700064
:101b00000b003b000800be00830207004f00b1003d
:101b100003003700f3ff2700f2ff2f006110b90028
:101b20004f06be004f05be004f04be000080fa0005
:101b30000000060081037800befc07000001be0023
:101b40006000b8000478a30013003a006220e100ae
:101b500015003e000d0039008301d1000281d30041
:101b60008180d3008301d1000281d3008180d30022
:101b70008301d1000281d3008180d3000538b000f9
:101b8000c42add00f300b2008381720007f0a700d1
:101b900003f0a00000000600f3ff2700f2ff2f0073
:101ba0006110b900fbff370003ff2700f7ff370084
:101bb0001400fa00889fbe008a9fbe008c9fbe0062
:101bc0000004be000205be00680047000a90be0087
:101bd0000890be00700207000070a7000bf0a10083
:101be0000bf8a30020003a009e0990000e09900017
:101bf000fe0090006e0090009e0290003443200092
:101c000084825200c6ff32000a003c00b4fc2f0060
:101c10000428e100140034008301d1000281d300c4
:101c20008180d3000080d3008502e800faff3a00eb
:101c3000bbff3700b40020000428e10007003c008f
:101c40000000400081804800020149008381490072
:101c50008502e900faff3a00b1ff370003002800cf
:101c600002002000010037006011b8006000b800d9
:101c7000abff3700889fbe00008270000402710035
:101c8000048271002400320036432000c500200089
:101c90008383cf000a0039000541b1008283cf0061
:101ca000070039000541b1008183cf0004003900ed
:101cb0000541b1008083cf00010039000541b1002a
:101cc00085c353006022b800120032000a003b00b6
:101cd00084827200610260008301d1000281d3001e
:101ce0008180d3000080d3000603e8008743e8002a
:101cf000f7ff3a00070037000000400081804800ed
:101d000002014900838149000603e9008743e90095
:101d1000f9ff3a0042ff07004f04be000000060032
:101d20001400fa00889fbe008a9fbe008c9fbe00f0
:101d3000040678000004be000205be0068004700eb
:101d40000a90be000890be00130207006200e10086
:101d50000800be000a01be00040020000b003a008b
:101d60001e029000e43fb1006e009000fe00900063
:101d70000e0990009e099000f300b20005fe2300ba
:101d8000858171000bf0a70003f0a000040e78001d
:101d900063ff37002800fa00889fbe008a9fbe00bc
:101da0008c9fbe0003866b0049ff07000028a3003c
:101db00064003a000128a30067003a000008a3006d
:101dc00062003a000108a30065003a001e0090007e
:101dd000be08900081064000ed3fb100f48057003e
:101de000ee019000111ab8008e099000311bb80066
:101df0009e099000311cb800511db800f4855700b1
:101e000046000700fe0190003a0007008b85e800bd
:101e10003e0007008e09900040000700ee01900090
:101e2000340007008b85e800380007008e09900019
:101e3000400007009e0990001b18b800890440006c
:101e40000a854800fe019000340007008b85e800f9
:101e500038000700ee019000300007008e09900066
:101e60001b18b800890440000a8548000a98a3009e
:101e700008003a000402420085824a0006034b0033
:101e800087834b0008044c0089844c000a054d00f0
:101e90008d06e90084827200850273004c3add00f1
:101ea000850272000100320015002000443ade0075
:101eb0001400b2004538de00cb45dd000b00700099
:101ec000c540de00cb4ddd008b8070004549de0053
:101ed000cb55dd000b017100c551de000d0378000c
:101ee000cffe070003f0a1000cf0a70003f0a00054
:101ef0000bff37001b18b80085024000068348001e
:101f0000e0834b0060044c00070037001b18b8004a
:101f10000603400087834800faff37001b18b8000b
:101f20008703400008844800e0844c0060054d00b1
:101f3000000006001b18b80008044000898448000f
:101f4000faff37000108a300f2fe3a005800be0075
:101f50005801be00e3ff37000008a300edfe3a0081
:101f600009047800f9ff370007f0a200c6fd37002a
:101f70006022b800060220000000d0008180d2005c
:101f80000482d2008582d2000000a000020252002a
:101f900083825a00030031000202420083824a0019
:101fa0000000a1000603e900f3ff3a00000006006c
:101fb000020ab900001bb9000200b800810042000b
:101fc0008100430000000600889fbe008a9fbe007b
:101fd00030044200b0844a0030054b0090854b002d
:101fe0006000b1000898be000a90be000440e10005
:101ff00005c8e10006d0e10007d8e1000200310089
:10200000680040001008e8004f05be004f04be0005
:1020100000000600889fbe008a9fbe003004be00fc
:102020002005be000418540005985c0006185d00e9
:1020300007985d00110020000440e10005c8e100a0
:1020400006d0e10007d8e100010039008000eb0074
:10205000108810004f05be004f04be0000000600af
:102060001200fa00889fbe008a9fbe008c9fbe00af
:10207000e0b79f00f1b79f0082bf9f0093bf9f0012
:102080000605be000404be000000eb00d0b79f00b0
:10209000c0b79f00b0b79f00a0b79f0090b79f0048
:1020a0000006eb005fb19700cfb0970082014100be
:1020b0003fb097000200e00004003d003700070039
:1020c0007e805700c0ff0700030037003300070081
:1020d0007e805700cfff0700dfb697000d00e000bd
:1020e0000c0035006fb29700ffb297000fbb97004e
:1020f0009fbb970010002000010020006011b80075
:1021000000027200818272000203730083837300f5
:102110001b0007000c06e80001042000810f560098
:10212000e0ff3a000d00e00004003d000802be00a0
:102130000a03be007e805700a3ff07005fa8970038
:102140000000e00005003a001fb29700afb2970010
:102150003fb39700cfb39700090007006fb0970017
:10216000ffb097000fb997009fb997004f06be00c8
:102170004f05be004f04be000080fa0000000600bc
:102180000100070000000600a4b79f00b5b79f003c
:10219000c6b79f00d7b79f00000006004f09de00ba
:1021a00082817100b3b79f004f01de008180400043
:1021b00082807000a1b79f008fb097004f09de00aa
:1021c000000040000200700090b79f007fa89700b9
:1021d0004f01de00818040008280700081b79f0047
:1021e0000d0007004f3ade000000400004007000c0
:1021f000f0af9f00080007000402420085824a00f9
:1022000006034b0087834b00dfff07000802be0078
:102210000a03be00000006002fb29700bfb297006d
:102220004fb39700dfb3970000000600881f7800c7
:1022300018002000881f780089ff07008f87e900b9
:102240004f04780000000600801feb0084ff0700a9
:102250008f87e90000000600889fbe008a9fbe00ad
:10226000e00f5000e08f5800e00f5900e08f590058
:102270000c003d006044b8006055b80000005400f8
:1022800081805c0002015d0083815d0018002000f8
:102290001500070008003d00180007000004eb00cf
:1022a000050037000004eb000f00070002003d00ae
:1022b0001200070018002000dcff07000800e00003
:1022c000060032006022b8006033b80000005200ff
:1022d00081805a0002015b0083815b004f05be00d4
:1022e0004f04be0000000600e00f5200e08f5a00cd
:1022f000e00f5b00e08f5b00000006006044b80068
:102300006055b8000402540085825c0006035d003d
:1023100087835d0000000600889fbe008a9fbe0084
:102320008c1f7800e00f5000e08f5800e00f59003c
:10233000e08f59000d003d006044b8006055b800c2
:102340000000540081805c0002015d0083815d001b
:102350001c0020000820e10009a8e1000ab0e1000b
:102360000bb8e1000d003d00080037000006eb004f
:10237000e00f5200e08f5a00e00f5b00e08f5b003f
:1023800006003d006044b8006055b80004025400e7
:1023900085825c0006035d0087835d00aaff07005d
:1023a0000c00e000060032006022b8006033b80084
:1023b0000000520081805a0002015b0083815b00b3
:1023c0004f0678004f05be004f04be000000060017
:1023d000889fbe008a9fbe008c1f78000006eb001d
:1023e000e00f5000e08f5800e00f5900e08f5900d7
:1023f00007003d006044b8006055b800000054007c
:1024000081805c0002015d0083815d001c00200072
:10241000e00f5200e08f5a00e00f5b00e08f5b009e
:1024200007003d006044b8006055b8000402540045
:1024300085825c0006035d0087835d000c00a200be
:102440007c0007000c00e000060032006022b800ab
:102450006033b8000000520081805a0002015b0026
:1024600083815b004f0678004f05be004f04be001d
:1024700000000600889fbe008a9fbe008c9fbe00a1
:102480000404be000605be00809fbe00829fbe0001
:102490002f000700040678000800be000a01be00f5
:1024a0002b000700840678004f03be004f02be00d9
:1024b0008d4f76007fb0970013003300f0ff2f00a0
:1024c0008b8f6b0006003b000d0666000c00a7001a
:1024d0000a00370007f0a600100020000a003700ad
:1024e000880f5200898f5a008a0f5b008b8f5b0028
:1024f000030039001000200001003e000000200011
:1025000007f0a7000000ea004f06be004f05be001e
:102510004f04be0000000600e48240001078a300d3
:1025200007003200640240001178a3003400be00ae
:102530001401be00040032000330a70000000600b2
:102540003500be001501be000330a00000000600eb
:1025500005ff270005826100070032000428e10022
:1025600001003200240005000600070001003a00c7
:10257000440005000408050002000700f9ff3a00c6
:10258000140005006f8261008102700085027100f5
:102590008502720000000600800078005002be0034
:1025a0005003be004439de00f700b200f37f200084
:1025b00003016100090032000218e10016003a0030
:1025c000850172008301730083817300000820007d
:1025d00015003a004000200013003700850172000a
:1025e000830173008381730005003a0004a8be00d4
:1025f00006a8be00100020000b0037000201e90011
:102600000402420085824a0006034b0087834b0088
:102610000748a300f9ff32000740a00004a8be004d
:1026200006a8be00200020008000980092009800bc
:1026300000000600889fbe008a9fbe008c9fbe00df
:102640000404b8000506b8008904460060854e0001
:102650000606b8000a054600e0854e000706b800e9
:102660008b054600040eb800890446000a854e001a
:10267000e0854d00050eb8000a0546008b854e002a
:10268000060eb8008b0546000416b8000a05460081
:102690008b854e000516b8008b054600041eb80059
:1026a0008b0546000800be000a01be004f06be00b2
:1026b0004f05be004f04be00000006000800fa00ef
:1026c000889fbe008a9fbe000084fb00d1c6b30075
:1026d000814f5000340036004b06200011000900e5
:1026e0000b84d80081057800720040004300dd00b3
:1026f000c91b2100008044006022b80006002000b1
:1027000007fe23005001be004000be00a1fd0700ef
:102710000002be000203be0084bf9f0095bf9f0061
:10272000a6bf9f00b7bf9f00aa00200011000900ac
:102730008a85d80080057800e9854500c35ddd0005
:102740008b8544003b02be002b03be000fb89700f0
:102750009fb897002fb99700bfb997008dfd07006c
:102760000002be000203be0084bf9f0095bf9f0011
:10277000a6bf9f00b7bf9f00110009000a84d800c0
:10278000010478004344dd00888444003902be001f
:102790002903be000fb897009fb897002fb9970084
:1027a000bfb997001d003700ea4f500013003600f4
:1027b000aa002000110009000a84d8000105780051
:1027c000690440004344dd00c91b21000884440023
:1027d0006022b8000600200007fe23003800be007b
:1027e0002801be006bfd07004355dd008a844400cc
:1027f0003902be002903be00080037004344dd0053
:10280000c01b2100080440006022b8000600200020
:1028100007fe23003800be002801be005dfd070052
:102820004f05be004f04be000080fa000000060005
:102830000800fa00889fbe008a9fbe00d1c6b30080
:102840000004e00023003d000040ea000004fb001b
:10285000814f50000a003400420620001100090098
:102860000204d800a9002000110009008900d80046
:10287000e9004000c308dd00ca1b21002100370029
:10288000ea4f500010003400a2002000110009009f
:102890000204d80001017800690040004300dd0017
:1028a000c11b2100008040004311dd0082804000f8
:1028b0003102be002103be005001be004000be0038
:1028c00034fd0700380037004344dd00c01b210001
:1028d000320037000004fb00814f50002300340019
:1028e00042062000110009000204d800a9002000bf
:1028f000110009008900d800e9004000c308dd008c
:10290000ca102100810045003102be002103be0033
:102910008b0920008a8545003b00be002b01be00cc
:102920001cfd07000002be000203be0084bf9f0022
:1029300095bf9f00a6bf9f00b7bf9f001100090071
:102940000904d800010478004344dd00080545006f
:102950003a02be002a03be000fb897009fb8970046
:102960002fb99700bfb99700d5ff3700ea4f500045
:1029700008003400a2002000110009000204d80061
:1029800001017800690040004300dd00c110210012
:10299000c4ff37004344dd00c0102100080440009c
:1029a0003800be002801be004f05be004f04be0027
:1029b0000080fa0000000600d00190000281510062
:1029c0004240a9000300340010017800014978005a
:1029d0000208e80001007800000006006f03b00064
:1029e000889fbe008a9fbe008c9fbe008e1f78000d
:1029f00000067800c1a79f0092af9f006000b8005a
:102a00006011b800d0a79f00e1a79f00f2a79f0028
:102a100083af9f008006eb00e8043700cfa097004b
:102a20008100e800c1a79f0051c2b300814f500050
:102a300003003a00cfa197008000eb00110037009f
:102a4000bc0090000000fb000168a30007003200fa
:102a50000d017800800078000c007800d6ff070098
:102a60000000e00005003a00d40437008c00780034
:102a700081fa0700e10f4000d00432008d06e80023
:102a8000ce0437000300780033417800d4c2b3008d
:102a9000844f51000c00320007003c006d42520090
:102aa000844f51000a0032006b424200844f5100b3
:102ab0000d003a000800370004c3b300844f5100f2
:102ac00009003a00060037000130a000edff370092
:102ad0000100a000ebff37000110a000e9ff370064
:102ae0000120a000e7ff37000118a3000100320019
:102af0000100a1000138a300010032000120a10063
:102b00008201fb000303b100e98f51000e003e007b
:102b1000000178008001eb00e3af9f006a1ab90062
:102b2000b201fb000303b100848141000200780080
:102b30001202fb000403b100e90f5200f7ff360058
:102b4000e3af9f000a0037000002eb00e4af9f00f4
:102b5000a3c2b300834f510005003a009faa97001b
:102b60004503780095af9f00e6af9f000000e800a6
:102b7000e2c2b300904f110016003a0001e0a0003d
:102b800064415100d04f1100030032000001780071
:102b90000002eb00090037001fa99700c20178006e
:102ba00092af9f00a3b79f000000e80000017800eb
:102bb0000c0037006a22b90004824100020078004c
:102bc000b201fb000303b100e98f5100f9ff3600a9
:102bd0000200370001c0a0000002eb00a4b79f0074
:102be000f2ff370032407800c2a79f00c3c6b3008f
:102bf000834f50001400320009003c0032c6b3007d
:102c0000824f50008000320063414100824f5000eb
:102c1000130032000004e0006d0432009900370018
:102c200052c7b300824f50009b0032006341410005
:102c3000824f50000d00320065415100824f50001c
:102c400090003a000c003700000120000148a3006a
:102c5000010032000000280081007000e1ff370011
:102c6000e07f9f0001a0a0008d003700e07f9f0063
:102c70000170a0008a003700e07f9f001fab970023
:102c80004600780096af9f00000478000000e00046
:102c900001003a00c8342100080178000000eb0070
:102ca000010037000000e800e24178000304e00082
:102cb000fcff3a0080047800afb397000700e00003
:102cc00003003200898f530001003100870478002f
:102cd0000007eb006fa99700890f51000100360033
:102ce00009075100e8806000b1b79f002a003a0050
:102cf000110037003c0090000068a300070032007c
:102d00000d017800010220000c0078002aff070066
:102d10000000e00006003a00060037008c00780052
:102d200000022000d4f90700e10f4000010032004a
:102d30008d06e8000e07e9000e00e000edff3a0006
:102d40000087eb00140037003c0090000068a300ef
:102d50000900320008007800b000fb000004780091
:102d60000d0178000c00780013ff07000000e00060
:102d700008003a0008003700880078003100fb00a6
:102d8000010478008c007800bbf90700e10f4000d7
:102d9000010032008d06e800090078008004e90097
:102da0000000e000e8ff3a00bfb197000300e00038
:102db00002043200110037003c0090000068a300bc
:102dc000070032000d017800010220000c0078009d
:102dd000f9fe07000000e00006003a000600370098
:102de0008c00780000022000a3f90700e10f4000ea
:102df000010032008d06e8000e07e9000e00e00039
:102e0000edff3a00ed0337001faa97004400780059
:102e100094af9f006102b900612bb900b4b79f0065
:102e2000c5b79f00d6b79f00e7b79f004822de00d6
:102e30004828dd0004027000e47f9f000148a300e1
:102e4000090032000404e00007003200e14f4200b4
:102e500005003200f47f9f006fe1970082c79f005a
:102e60002900200003003700efe19700f37f9f0067
:102e700019002000e4fb2f000f0242000404e800c8
:102e80008dff3700e07f9f00e8fb2f000f04440018
:102e90001900200088ff3700e07f9f00010cb3007d
:102ea000b1b79f0000702000bfb2970000806200a1
:102eb0003d02320005c8a300020032006600200077
:102ec000a6b79f00bfb397000748a30009003200d0
:102ed0001faa97004401be004400be0094af9f00ab
:102ee000a0af9f00b1af9f00c2af9f00d3af9f00c4
:102ef0000a0037009faa97004500be0095af9f00cb
:102f00000cfb07000002be000203be00a4af9f003e
:102f1000b5af9f00c6af9f00d7af9f006022b8003b
:102f20006033b8002fa89700bfa897004fa997005b
:102f3000dfa9970051fa07000000e0000c003d00f7
:102f40002fa89700bfa897004fa99700dfa9970067
:102f500003f0a200a0af9f00b1af9f00c2af9f00df
:102f6000d3af9f00bfb097003100b300b1b79f004f
:102f70000000eb0090a79f006022b8006033b8000b
:102f80002fa89700bfa897004fa99700dfa9970027
:102f90009efa07000000e0003400320024fc2f00fd
:102fa0000f0242002fa89700bfa897004fa99700d3
:102fb000dfa997005afb07001fa097000000e90057
:102fc0006302b900a2002000110009000202d8002b
:102fd00090a79f000000e00002003d000000e90013
:102fe00090a79f001fa497000840ea0010fe07006a
:102ff0002faa9700bfaa97004fab9700dfab9700af
:1030000064fb07000002be000203be00d4a79f00bd
:10301000e5a79f00f6a79f0087af9f006022b8003a
:103020000600200007ff230014fa07000000e0005c
:1030300002003d000804e9000b0037006022b800e0
:1030400006002000470224005fa09700efa0970031
:103050007fa197008fa997000dfa07000000e000fc
:10306000020035000804e80098a79f00afb297005f
:10307000f88f52000f003c00054078008ffd0700dc
:103080000002be000203be002fa89700bfa8970051
:103090004fa99700dfa997007bf907000002be0047
:1030a0000203be00a4af9f00b5af9f00c6af9f0054
:1030b000d7af9f001fa49700e90f540015003c00f4
:1030c0006022b8006033b8002fa89700bfa897000f
:1030d0004fa99700dfa997004cfa07000000e00015
:1030e000320032002fa89700bfa897004fa9970081
:1030f000dfa99700aefa0700e00f5000e08f5800fc
:10310000e00f5900e08f590028003a00e10f540009
:10311000260034000400200005002e00b6e0220046
:10312000170124005fa09700efa097007fa19700f0
:103130008fa99700d1f907000000e00002003d00d0
:1031400073045400010037007204540098a79f00d4
:103150002fc09700b6fd07000002be000203be00ac
:10316000d4a79f00e5a79f00f6a79f0087af9f0009
:103170002fa89700bfa897004fa99700dfa9970035
:10318000c8f907008afa07000205be000004be0065
:103190006000b8006011b800a0af9f00b1af9f0001
:1031a000c2af9f00d3af9f00170037002fa8970032
:1031b000bfa897004fa99700dfa997007cfa0700e6
:1031c0000205be000004be00aafa07000002be000d
:1031d0000203be002fa89700bfa897004fa9970031
:1031e000dfa9970060fb07000002be000203be00db
:1031f000a4af9f00b5af9f00c6af9f00d7af9f00a1
:103200000000eb0090a79f00c536210014c0b3005a
:10321000080037003500be003501be000040e10067
:1032200001c8e10002d0e10003d8e1000300390049
:103230000442e800f44f5200f6ff3a00e47f9f009a
:103240001fa09700efaa9700008052002fb39700ad
:10325000060050000402fb00040750000600e000d6
:10326000010032000e07e900bfb3970063806300de
:10327000010032000e07e9003fb097000028a300cc
:1032800039003200610160000018a3000f00320015
:103290003c0090000068a30006003200b10220004c
:1032a0000200e000010032008180e8000d0178009a
:1032b0000d003700b00220000200e00001003200e3
:1032c0000080e8008c0078000e0037000200e0006b
:1032d000220032003c0090000068a300070032008a
:1032e0000d017800010220000c007800b2fd0700fb
:1032f0000000e00006003a00180037008c0078005b
:10330000000220005cf80700e10f400013003200cb
:103310008d06e800110037003c0090000068a30013
:10332000070032000d017800010320000c00780036
:10333000a1fd07000000e00006003a00060037008b
:103340008c007800000320004bf80700e10f4000dc
:10335000010032008d06e8000e07e9000e00e000d3
:10336000edff3c005f003700bfb097000138a300bd
:1033700014003a00110037003c0090000068a300e0
:10338000070032000d017800010220000c007800d7
:1033900089fd07000000e00006003a000600370043
:1033a0008c0078000002200033f80700e10f400095
:1033b000010032008d06e8000e07e9000e00e00073
:1033c000edff3c00bfb19700618161000318a300cd
:1033d0000e0032003c0090000068a300050032009f
:1033e000b10220000200e000250032008180e800e8
:1033f00023003700b00220000200e000010032008c
:103400000080e8008c007800320037000200e00005
:10341000340032003c0090000068a300030032003a
:103420000d01780001022000160037008c007800a2
:1034300000022000270037003c0190008100fb00c3
:10344000403621000268a30013003200c308dd00eb
:10345000010040003002be002003be000800be0094
:103460000a01be0071fb0700a40020000500200037
:103470006033b80074fb0700010320008080400027
:103480000d0178000c0078004bfd07000000e00003
:1034900013003a0013003700c308dd0001004000ac
:1034a0003002be002003be000800be000a01be00bc
:1034b0005efb0700a4002000050020006033b80078
:1034c00061fb070002032000000141008c0078002e
:1034d00002007800e8f70700e10f40000100320029
:1034e0008d06e8006f7897008040e900e17f9f003b
:1034f0000004e000d0ff3a00130037003c009000c9
:103500000068a300070032000d01780001032000cd
:103510000c00780028fd07000000e00006003a00db
:10352000060037008c00780000032000d2f7070067
:10353000e10f4000010032008d06e8001fa0970057
:103540000000e90090a79f001fa097000000e00086
:10355000eaff3c002fb29700f20f52000300340044
:1035600020c1b300e07f9f0002003700cfe2970048
:10357000e57f9f006f7897008000fb002fb39700d6
:1035800081005300a1b79f000004e000100032004a
:103590003c0090000068a300070032000d01780095
:1035a000e10220000c00780003fd07000000e000ad
:1035b00006003a00060037008c007800e002200088
:1035c000adf70700e10f4000010032008d06e80072
:1035d0006f78970096fc07000002be000203be0051
:1035e0002fa89700bfa897004fa99700dfa99700c1
:1035f000e8f907006ef90700330037003c0190003e
:10360000413621000000fb000268a30013003200d5
:103610004300dd00008040003002be002003be00f9
:103620000800be000a01be0000fb0700a400200045
:10363000050020006033b80003fb07000003b00062
:103640000d017800800078000c007800dafc07009b
:103650000000e00011003a00110037004300dd00d7
:10366000008040003002be002003be000800be0003
:103670000a01be00edfa0700a400200005002000aa
:103680006033b800f0fa07000003b0008c00780047
:1036900079f70700e10f4000010032008d06e800d5
:1036a000ef7b97000700fb004300dd00413621005f
:1036b000008040003002be002003be000800be00b3
:1036c0000a01be00e0fa07000205be000004be00c9
:1036d000ef7897000140e900e07f9f000104e000df
:1036e000c6ff3a00e8af9f00f9af9f008ab79f007e
:1036f0009bb79f00afb49700110037003c009000cb
:103700000068a300070032000d01780001032000cb
:103710000c007800a8fc07000000e00006003a005a
:10372000060037008c0078000003200052f70700e5
:10373000e10f4000010032008d06e8008904e90035
:103740000900e000edff3a00bfb097000138a30088
:103750009a0132000e00e000980134003c00900015
:103760000068a300070032000d017800010220006c
:103770000c00780090fc07000000e00006003a0012
:10378000060037008c007800000220003af707009e
:10379000e10f4000010032008d06e8000e07e9004d
:1037a000eeff3a00850137003fb197000200e000cc
:1037b00005003d009fa997004305be004304be00dd
:1037c00093af9f000d0037003fb297000448a3005d
:1037d000050032009faa97004504be006055b8005e
:1037e00095af9f00050037001fab97004604780097
:1037f00096af9f008004eb006055b800afb3970010
:103800000700e00009003a0010002000a0b79f0068
:10381000e00f5400e08f5c00e00f5d00e08f5d0082
:10382000020032008000eb00a1b79f003fb197007b
:10383000020cb200a2af9f0000082000800f5100d0
:1038400010003200000c2000800f510021003a00cf
:10385000c136210010c0b3003102be003103be00ea
:103860000440e10005c8e10006d0e10007d8e1000e
:10387000170039000040e800f44f5000f6ff3a000e
:103880001300370010c0b300040120000500200021
:103890006033b8000440e10005c8e10006d0e10053
:1038a00007d8e1000a003900430020000402d000dc
:1038b0008582d2000683d2008783d2008301e9008b
:1038c000faff3a000040e800f04f5000f1ff3a00e4
:1038d000e07f9f006f7a97000400fb00afb2970073
:1038e000850f500002003d00e57f9f000400370077
:1038f0002fb39700800f530001003d00a0b79f0039
:10390000efab97000700e00005003200bfb0970062
:1039100063806000020032008703e900e7af9f0088
:103920003fb1970002e8a30009003200efa9970019
:103930002fb29700848f510003003400848151001e
:10394000e3af9f00020037008002eb00e5af9f006d
:103950006f7b97000600fb000007eb00efab9700c2
:10396000808f530001003400008753003fb0970060
:103970000028a30038003200610160000018a30095
:103980000f0032003c0090000068a30006003200e7
:10399000b10220000200e000010032008180e80056
:1039a0000d0178000d003700b00220000200e00099
:1039b000010032000080e8008c0078000e00370023
:1039c0000200e000100032003c0090000068a300fc
:1039d000070032000d017800010220000c00780081
:1039e000f5fb07000000e00006003a000600370083
:1039f0008c007800000220009ff60700e10f4000d5
:103a0000010032008d06e8000e00e0004e0032009a
:103a10003c0090000068a300070032000d01780010
:103a2000010320000c007800e3fb07000000e00029
:103a300006003a00060037008c00780000032000e2
:103a40008df60700e10f4000010032008d06e8000e
:103a50000e07e900ecff37000e00e0001500320011
:103a6000bfb097000138a30012003a003c0090005c
:103a70000068a300070032000d0178000102200059
:103a80000c007800ccfb07000000e00006003a00c4
:103a9000060037008c0078000002200076f6070050
:103aa000e10f4000010032008d06e8000e07e9003a
:103ab000eeff3a00bfb19700618161000318a300d7
:103ac0000f0032003c0090000068a30006003200a6
:103ad000b10220000200e000010032008180e80015
:103ae0000d0178000d003700b00220000200e00058
:103af000010032000080e8008c0078000e003700e2
:103b00000200e000100032003c0090000068a300ba
:103b1000070032000d017800010220000c0078003f
:103b2000a5fb07000000e00006003a000600370091
:103b30008c007800000220004ff60700e10f4000e3
:103b4000010032008d06e8002fb297008400e900e2
:103b5000c20add00b5a79f00c308dd004036210082
:103b6000008040000e037800a6a79f0000077800a1
:103b7000e8af9f00f9af9f008ab79f009bb79f00f7
:103b800073003700afb097008100e900a1b79f0034
:103b9000000820002fa99700800f51004700320035
:103ba000000c2000800f510054003a00bfb1970074
:103bb0000300e00019003d003e04be002e05be00db
:103bc0000802be000a03be006fa89700ffa8970076
:103bd0000fb197009fb1970094f90700e07f9f0015
:103be0000000fb00cf80de006109b9000802be00c2
:103bf0000a03be00f6f907006faa9700ffaa970014
:103c00000fb397009fb397000002520081825a00c1
:103c100002035b0083835b0017003700bfb297008d
:103c20000548a300190032006faa9700ffaa970069
:103c30003e04be002e05be000801be000400be000a
:103c4000f4b79f0085bf9f00c9f80700e07f9f0081
:103c50000000fb00cf80de000801be00d4f80700a2
:103c60007fb297008fba97000000520081805a00ff
:103c70000002be006033b800e4af9f00f5af9f00c4
:103c800086b79f0097b79f00080037001e01780095
:103c9000efaa9700110009008282d800a20020003c
:103ca000110009000280d800e17f9f006f7b970020
:103cb0000643b000e67f9f00100037006fa8970012
:103cc000ffa897000fb197009fb19700bfa397007f
:103cd0008703e900050033008301d1000281d3008e
:103ce0008180d3000080d300f9ff37006f006000af
:103cf0003135210061407800e07f9f00bc009000da
:103d00006f7997000200fb000168a30007003200f2
:103d10000d017800800078000c00780026fb070079
:103d20000000e00005003a00050037008c00780034
:103d3000d1f50700e10f4000010032008d06e800d8
:103d4000bfa19700e4815100b3a79f006807570007
:103d50002fb297000400e0008aff3a002fa79700d7
:103d6000bfb297000538a300140032000e00e00037
:103d7000120034003c0090000068a30007003200ed
:103d80000d017800010220000c0078000afb0700fa
:103d90000000e00006003a00060037008c007800c2
:103da00000022000b4f50700e10f400001003200de
:103db0008d06e8000e07e900eeff3a004fa39700da
:103dc00016407800e07f9f000004e00013fb3a00fb
:103dd0000d0078004f0778004f06be004f05be006b
:0c3de0004f04be006f03b100000006009d
:020000040000fa
:103dec000000000099c50000abce0000320b0000b3
:103dfc00cfd80000561d000064160000fdd3000053
:103e0c0007f400009e310000ac3a000035ff0000c2
:103e1c00c82c000051e9000063e20000fa27000002
:103e2c0097ad00000e6800003c630000a5a60000e2
:103e3c0058750000c1b00000f3bb00006a7e0000a2
:103e4c0090590000099c00003b970000a252000012
:103e5c005f810000c6440000f44f00006d8a000032
:103e6c002e5b0000b79e0000859500001c500000e2
:103e7c00e1830000784600004a4d0000d388000022
:103e8c0029af0000b06a0000826100001ba4000092
:103e9c00e67700007fb200004db90000d47c000032
:103eac00b9f6000020330000123800008bfd000032
:103ebc00762e0000efeb0000dde000004425000052
:103ecc00be02000027c7000015cc00008c090000c2
:103edc0071da0000e81f0000da14000043d1000082
:103eec00c5f300005c3600006e3d0000f7f80000e2
:103efc000a2b000093ee0000a1e500003820000022
:103f0c00c20700005bc2000069c90000f00c000091
:103f1c000ddf0000941a0000a61100003fd4000031
:103f2c00525e0000cb9b0000f99000006055000031
:103f3c009d8600000443000036480000af8d000051
:103f4c0055aa0000cc6f0000fe64000067a10000c1
:103f5c009a72000003b7000031bc0000a879000081
:103f6c00eba80000726d000040660000d9a30000b1
:103f7c0024700000bdb500008fbe0000167b000051
:103f8c00ec5c00007599000047920000de570000c1
:103f9c0023840000ba410000884a0000118f000001
:103fac007c050000e5c00000d7cb00004e0e0000e1
:103fbc00b3dd00002a1800001813000081d60000a1
:103fcc007bf10000e2340000d03f000049fa000011
:103fdc00b42900002dec00001fe700008622000031
:103fec0013a200008a670000b86c000021a9000031
:103ffc00dc7a000045bf000077b40000ee710000d1
:10400c00145600008d930000bf980000265d000040
:10401c00db8e0000424b000070400000e985000080
:10402c00840f00001dca00002fc10000b604000060
:10403c004bd70000d2120000e019000079dc000020
:10404c0083fb00001a3e000028350000b1f0000090
:10405c004c230000d5e60000e7ed00007e280000b0
:10406c003df90000a43c0000963700000ff2000060
:10407c00f22100006be4000059ef0000c02a0000a0
:10408c003a0d0000a3c8000091c300000806000010
:10409c00f5d500006c1000005e1b0000c7de0000b0
:1040ac00aa54000033910000019a0000985f0000b0
:1040bc00658c0000fc490000ce42000057870000d0
:1040cc00ada0000034650000066e00009fab000040
:1040dc0062780000fbbd0000c9b600005073000000
:1040ec00d65100004f9400007d9f0000e45a000060
:1040fc0019890000804c0000b24700002b820000a0
:10410c00d1a50000486000007a6b0000e3ae00000f
:10411c001e7d000087b80000b5b300002c760000af
:10412c0041fc0000d8390000ea32000073f70000af
:10413c008e24000017e1000025ea0000bc2f0000cf
:10414c0046080000dfcd0000edc60000740300003f
:10415c0089d0000010150000221e0000bbdb0000ff
:10416c00f80a000061cf000053c40000ca0100002f
:10417c0037d20000ae1700009c1c000005d90000cf
:10418c00fffe0000663b000054300000cdf500003f
:10419c0030260000a9e300009be80000022d00007f
:1041ac006fa70000f6620000c46900005dac00005f
:1041bc00a07f000039ba00000bb10000927400001f
:1041cc0068530000f1960000c39d00005a5800008f
:1041dc00a78b00003e4e00000c45000095800000af
:1041ec000000000099c50000abce0000320b0000af
:1041fc00cfd80000561d000064160000fdd300004f
:10420c0007f400009e310000ac3a000035ff0000be
:10421c00c82c000051e9000063e20000fa270000fe
:10422c0097ad00000e6800003c630000a5a60000de
:10423c0058750000c1b00000f3bb00006a7e00009e
:10424c0090590000099c00003b970000a25200000e
:10425c005f810000c6440000f44f00006d8a00002e
:10426c002e5b0000b79e0000859500001c500000de
:10427c00e1830000784600004a4d0000d38800001e
:10428c0029af0000b06a0000826100001ba400008e
:10429c00e67700007fb200004db90000d47c00002e
:1042ac00b9f6000020330000123800008bfd00002e
:1042bc00762e0000efeb0000dde00000442500004e
:1042cc00be02000027c7000015cc00008c090000be
:1042dc0071da0000e81f0000da14000043d100007e
:1042ec00c5f300005c3600006e3d0000f7f80000de
:1042fc000a2b000093ee0000a1e50000382000001e
:10430c00c20700005bc2000069c90000f00c00008d
:10431c000ddf0000941a0000a61100003fd400002d
:10432c00525e0000cb9b0000f9900000605500002d
:10433c009d8600000443000036480000af8d00004d
:10434c0055aa0000cc6f0000fe64000067a10000bd
:10435c009a72000003b7000031bc0000a87900007d
:10436c00eba80000726d000040660000d9a30000ad
:10437c0024700000bdb500008fbe0000167b00004d
:10438c00ec5c00007599000047920000de570000bd
:10439c0023840000ba410000884a0000118f0000fd
:1043ac007c050000e5c00000d7cb00004e0e0000dd
:1043bc00b3dd00002a1800001813000081d600009d
:1043cc007bf10000e2340000d03f000049fa00000d
:1043dc00b42900002dec00001fe70000862200002d
:1043ec0013a200008a670000b86c000021a900002d
:1043fc00dc7a000045bf000077b40000ee710000cd
:10440c00145600008d930000bf980000265d00003c
:10441c00db8e0000424b000070400000e98500007c
:10442c00840f00001dca00002fc10000b60400005c
:10443c004bd70000d2120000e019000079dc00001c
:10444c0083fb00001a3e000028350000b1f000008c
:10445c004c230000d5e60000e7ed00007e280000ac
:10446c003df90000a43c0000963700000ff200005c
:10447c00f22100006be4000059ef0000c02a00009c
:10448c003a0d0000a3c8000091c30000080600000c
:10449c00f5d500006c1000005e1b0000c7de0000ac
:1044ac00aa54000033910000019a0000985f0000ac
:1044bc00658c0000fc490000ce42000057870000cc
:1044cc00ada0000034650000066e00009fab00003c
:1044dc0062780000fbbd0000c9b6000050730000fc
:1044ec00d65100004f9400007d9f0000e45a00005c
:1044fc0019890000804c0000b24700002b8200009c
:10450c00d1a50000486000007a6b0000e3ae00000b
:10451c001e7d000087b80000b5b300002c760000ab
:10452c0041fc0000d8390000ea32000073f70000ab
:10453c008e24000017e1000025ea0000bc2f0000cb
:10454c0046080000dfcd0000edc60000740300003b
:10455c0089d0000010150000221e0000bbdb0000fb
:10456c00f80a000061cf000053c40000ca0100002b
:10457c0037d20000ae1700009c1c000005d90000cb
:10458c00fffe0000663b000054300000cdf500003b
:10459c0030260000a9e300009be80000022d00007b
:1045ac006fa70000f6620000c46900005dac00005b
:1045bc00a07f000039ba00000bb10000927400001b
:1045cc0068530000f1960000c39d00005a5800008b
:1045dc00a78b00003e4e00000c45000095800000ab
:1045ec0041440000433a0000202500002e3000001a
:1045fc00662000002c200000252e000030660000f4
:10460c00202c0000202500002e3000006620000029
:10461c002c200000252e000030660000202c00000d
:10462c00202500002e300000662000002c25000004
:10463c002e300000662000000000000053740000c3
:08464c0061720000740000001f
:020000040000fa
:104654000000fa00891007008001eb000001eb0064
:104664008000eb0020002000020007000080fa0018
:10467400000006000a00fa001007980021079800bd
:1046840032079800430798001e0090006200600003
:104694000080d100000f78001e80e800604388008d
:1046a4001e009000c700dd00f00f2000008f6000a6
:1046b400020620009e0041002e0090004400dd0010
:1046c400808040003e0090000080400070438800dd
:1046d4001e009000620060000080d100000f78008e
:1046e4009e00780064804000804388001e00900093
:1046f400c700dd00f00f2000008f600002062000dc
:104704009e0041004e0090000080400090438800cd
:104714000080fa00000006000600fa001007980066
:10472400210798001e009000620060000080d10004
:10473400000f78009e00780064804000a043880049
:104744001e009000c700dd00f00f2000008f600005
:10475400820620009e0041002e0090000080400050
:10476400b04388000080fa00000006000a00fa0046
:104774006043800010079800704380002007980071
:10478400c186200020002000c5030700000f780028
:104794001e0078004880de00300798009e007800f4
:1047a40041079800af030700c202a9000e80e80089
:1047b4008000780040002000e0030700c202a80047
:1047c4000080fa00000006000a00fa00804380001e
:1047d400100798009043800020079800018720006c
:1047e40020002000ae030700000f78001e007800b0
:1047f4004880de00300798009e007800410798004a
:1048040098030700c202a9000e80e8008000780027
:1048140040002000c9030700c202a8000080fa007b
:10482400000006000a00fa00a04380001007980068
:10483400b04380002007980041872000200020001a
:1048440097030700000f78001e0078004880de0000
:10485400300798009e007800410798008103070004
:10486400c202a9000e80e800800078004000200009
:10487400b2030700c202a8000080fa00000006008c
:104884001c00fa00300f9800410f9800520f980056
:104894000000eb00000f78000000eb001007980008
:1048a4008000200040079800600020005007980016
:1048b40030002000600798000000eb0020079800fb
:1048c4000000eb0030079800ce0090004e089000e6
:1048d4000088b9000000780000004000f4f10700ef
:1048e400700798003e0890000000e00064003a0061
:1048f40010002000000f78005d0037000000eb007e
:10490400300798007e019000ce0890001e007800c9
:10491400bc0007006828ef00500037000000eb00df
:1049240010079800230037003e009000000040006c
:10493400fe00900000804000900078003e0090004f
:104944000000e800000040007e01900000004100eb
:10495400100078004800dd0000804000000f98003f
:10496400404380007800b90000007800de08900021
:10497400008140009e00e9006e0090000088b900ac
:10498400800078001e00900000804000000040007d
:10499400000041008e089000010878003e0090005d
:1049a4000080e800300798001e0090000000e80036
:1049b400100798009e0090006e009000808f5000b9
:1049c400d9ff35003e00900000004000fe0090003a
:1049d4000080400010007800c800dd003e00900018
:1049e4000000e800000040007e019000000041004b
:1049f4001000780000804000100f980041438000b0
:104a04004e0090000088b9000000780000004000cb
:104a1400fe00900000804000800078005e0090005e
:104a24001f030700200f98009e0890002e08900096
:104a3400808f5000030032002e0090000000e90037
:104a4400200798003e0090000080e800300798009e
:104a5400404380000000e800404388004143800058
:104a64004e089000808f5000acff35001e0fe80008
:104a74001e007800e40f5000a0ff34005c003700f3
:104a84007e019000ce0890003e0890005d00070073
:104a94006828ef00520037000000eb001007980070
:104aa400240037003e00900000004000fe0090000b
:104ab40000804000900078003e0090000000e80074
:104ac400000040007e0190000000410010007800ca
:104ad4004800dd0000804000000f98004043800043
:104ae4007800b90000007800de08900000814000e2
:104af4003e0890008000e9006e0090000088b90034
:104b0400800078001e0090000080400000004000fb
:104b1400000041008e089000010878003e009000db
:104b24000080e800300798001e0090000000e800b4
:104b3400100798009e0090006e009000808f500037
:104b4400d8ff35003e00900000004000fe009000b9
:104b54000080400010007800c800dd003e00900096
:104b64000000e800000040007e01900000004100c9
:104b74001000780000804000100f9800414380002e
:104b84004e0090000088b900800078003e08900034
:104b94000000e900000040000088b900000078002f
:104ba400fe00900000804000800078005e009000cd
:104bb400bb020700200f98009e0890002e0890006a
:104bc400808f5000030032002e0090000000e900a6
:104bd40020079800404380000000e800404388001c
:104be400414380004e089000808f5000aaff35009a
:104bf4007e009000b7f107002e0090000080fa00bc
:104c0400000006001000fa005007980061079800a1
:104c1400720798005e009000e10f500005003a0012
:104c240040002000200798000000eb0010079800c7
:104c3400170037005e009000e20f500005003a00b4
:104c440060002000200798000000eb001007980087
:104c54000f0037005e009000e30f500005003a009b
:104c640080002000200798000000eb001007980047
:104c7400070037005e009000e40f500004003a0083
:104c8400a0002000200798000000eb001007980007
:104c9400740207006828ef001c00370040438000be
:104ca4004300dd000008b000100798000e80e80003
:104cb400800078002000200079020700000f7800af
:104cc4001e0078004880de00300798009e007800bf
:104cd40041079800c202a900404380004400dd005f
:104ce400fe009000808040000e80e80083002000d9
:104cf4000101780041002000a4020700c202a800bc
:104d0400404380000000e8004043880041438000a5
:104d14006e009000808f5000e0ff35000080fa00a4
:104d2400000006001a00fa00200f9800310f9800c6
:104d3400420f980080002000400798006000200087
:104d44005007980030002000600798000000eb0036
:104d5400000f78000000eb00100798000000eb0043
:104d6400200798000040eb0060479800ce009000b8
:104d74003e0890000088b900000078000000400060
:104d8400cbf00700700798002e0890000000e000a8
:104d940064003a0010002000000f78005d00370026
:104da4000000eb00200798007e019000be089000f0
:104db4001e007800b70007006828ef005000370095
:104dc4000000eb00100798002100370040438000ea
:104dd4006c00b90000007800ce089000008140000b
:104de4009e00e9006e0090000088b9008000780001
:104df4001e00900000804000ae00900081804000c2
:104e0400fe0190008180410091017800ae00900085
:104e14008100e800818040007e0290008100420011
:104e240091007800c808dd00818041000000400046
:104e340000004100010878002e0090000080e80086
:104e4400200798001e0090000000e800100798005a
:104e54009e0090006e009000808f5000dbff3500b4
:104e64002e00900000004000fe00900000804000f2
:104e740010007800c800dd002e0090000000e8005b
:104e8400000040007e019000000041001000780006
:104e940000804000000f9800414380004e009000c5
:104ea4000088b900800078001e00e900000040007e
:104eb4000088b90000007800fe00900000804000e7
:104ec400800078005e009000f5010700100f980044
:104ed4008e0890001e089000808f5000020032005f
:104ee40000c0eb00604798002e0090000080e800ae
:104ef40020079800404380000000e80040438800f9
:104f0400414380003e089000808f5000acff350084
:104f14001e0fe8001e007800e20f5000a0ff3400ce
:104f2400560037007e019000be0890002e089000c5
:104f3400580007006828ef004c0037000000eb0021
:104f44001007980022003700404380006c00b9002d
:104f540000007800ce089000008140002e089000e8
:104f64008000e9006e0090000088b900800078009d
:104f74001e00900000804000ae0090008180400040
:104f8400fe0190008180410091017800ae00900004
:104f94008100e800818040007e0290008100420090
:104fa40091007800c808dd008180410000004000c5
:104fb40000004100010878002e0090000080e80005
:104fc400200798001e0090000000e80010079800d9
:104fd4009e0090006e009000808f5000daff350034
:104fe4002e00900000004000fe0090000080400071
:104ff40010007800c800dd002e0090000000e800da
:10500400000040007e019000000041001000780084
:1050140000804000000f980040438000c400dd0081
:105024002e0890000000e9000088b9000000780014
:10503400fe009000008040008000780060002000a6
:1050440097010700100f98008e0890001e0890002a
:10505400808f50000200320000c0eb0060479800cf
:10506400404380000000e800404388004143800042
:105074003e089000808f5000b0ff35007e00900005
:1050840094f007006e4090000000fb000080fa00de
:10509400000006001000fa0050079800610798000d
:1050a400720798005e009000e10f500005003a007e
:1050b400c0002000200798000000eb0010079800b3
:1050c4000c0037005e009000e20f500005003a002b
:1050d400e0002000200798000000eb001007980073
:1050e40004003700c0002000200798000000eb00f7
:1050f400100798000e80e80080007800200020004f
:1051040067010700000f78001e0078004880de0069
:10511400300798009e00780041079800510107006d
:105124006828ef001c003700404380004300dd0086
:105134000008b000100798000e80e8008000780096
:105144002000200056010700000f78001e007800a0
:105154004880de00300798009e00780041079800e0
:10516400c202a900404380004400dd00fe0090001c
:10517400808040000e80e800830020000101780058
:105184004100200081010700c202a80040438000c2
:105194000000e80040438800414380006e00900016
:1051a400808f5000e0ff35000080fa000000060008
:1051b4000a00fa0070002000100798001001200077
:1051c400200798000e80e80080007800200020006e
:1051d40033010700000f78001e0078004880de00cd
:1051e400300798009e007800410798001d010700d1
:1051f400c202a9000e80e8008001eb000001eb0070
:105204004100200061010700c202a8000080fa00ea
:10521400000006000a00fa00700020001007980041
:1052240020012000200798000e80e800800078000c
:10523400200020001a010700000f78001e007800eb
:105244004880de00300798009e00780041079800ef
:1052540004010700c202a900c202a8000080fa00eb
:10526400000006000e00fa0050079800610798003d
:1052740060002000100798005e0090004300dd00ed
:1052840064004000200798002e00900000004000b9
:1052940087ef0700300798003e0090008000eb0085
:1052a400010878003e0090000080e8001100200012
:1052b400010878003e00900064004000d103200003
:1052c400010878003e00900066004000e1062000de
:1052d4000108780040002000000f7800de009000f4
:1052e40041438800340037006a28ef001200370079
:1052f4001e00780000004000be00900000814000c5
:10530400404380000000e9006c00b9000000780010
:10531400ee00900080804000504380000000400078
:1053240061007800000978001e0fe80050438000f7
:105334000000e80050438800514380001e009000a4
:10534400808f5000eaff3500404380000000e900f0
:105354006c00b90000007800ee009000008040006e
:10536400800078001e009000cd00070040079800e0
:105374001e00780000004000be0090000080400045
:10538400ce009000c888de00010878001e00780076
:105394000000e80000004000be00900000804000d3
:1053a400ce009000010878001e8fe8004043800082
:1053b4000000e90040438800404380000000e00012
:1053c400c9ff3c00a70007006828ef00230037004e
:1053d400404380004300dd0001082000808040003d
:1053e4003e00900001087800be00900020002000dc
:1053f400ab000700400798003e00900064004000a6
:10540400ce009000c888de00010878003e009000bd
:1054140066004000ce00900001087800c202a90096
:10542400be00900040002000c400070040438000fc
:105434004400dd0068004000be0090000080400091
:105444008000780080002000bc000700c202a80091
:10545400404380000000e80040438800414380004e
:105464005e009000808f5000d9ff35003e00900010
:1054740098ef07000080fa00000006001600fa000a
:10548400100f9800210f980080002000100798004a
:105494000040eb00004f78001e0890004400dd003f
:1054a40003ef0700200798000000eb005007980066
:1054b4002000200060079800b002200070079800c8
:1054c400a0002000000f9800660007006828ef0085
:1054d4001c003700404380004300dd000008b0009a
:1054e400500798006a0047008000780020002000e0
:1054f4006b000700300798003e0090004880de00f3
:1055040070079800be009000010f9800c202a90025
:10551400404380004400dd00ae00900080804000e5
:105524006a00470083002000010178004100200048
:1055340096000700c202a800404380000000e80073
:1055440040438800414380001e089000808f500033
:10555400e0ff35006828ef00390037006a28ef00c3
:1055640015003700404380004400dd00ae08900081
:105574008081400052438000414380001e0090001f
:105584000088b9008000780050438000008040000b
:1055940000004000ae0090000080400090007800c1
:1055a400020041000080410001087800504380005f
:1055b4000000e80050438800514380001e00900022
