:020000040000fa
:080000000002040000000000f2
:020000040000fa
:100008005204000052040000520400005204000090
:100018005204000052040000520400005204000080
:10002800520400005204000052040000aa0200001a
:10003800520400005204000052040000c6020000ee
:10004800520400005204000052040000f43300007f
:100058005034000052040000520400005204000012
:100068005204000052040000520400005204000030
:100078005204000052040000520400005204000020
:100088005204000052040000520400005204000010
:100098005204000052040000520400005204000000
:1000a80052040000520400005204000052040000f0
:1000b80052040000520400005204000052040000e0
:1000c80052040000520400005204000052040000d0
:1000d80052040000520400005204000052040000c0
:1000e80052040000520400005204000052040000b0
:1000f80052040000520400005204000052040000a0
:10010800520400005204000052040000520400008f
:10011800520400005204000052040000520400007f
:10012800520400005204000052040000520400006f
:10013800520400005204000052040000520400005f
:10014800520400005204000052040000520400004f
:10015800520400005204000052040000520400003f
:10016800520400005204000052040000520400002f
:10017800520400005204000052040000520400001f
:10018800520400005204000052040000520400000f
:1001980052040000520400005204000052040000ff
:1001a80052040000520400005204000052040000ef
:1001b80052040000520400005204000052040000df
:1001c80052040000520400005204000052040000cf
:1001d80052040000520400005204000052040000bf
:1001e80052040000520400005204000052040000af
:0801f800520400005204000053
:020000040000fa
:10020800520400005204000052040000520400008e
:10021800520400005204000052040000520400007e
:10022800520400005204000052040000aa02000018
:10023800520400005204000052040000c6020000ec
:10024800520400005204000052040000f43300007d
:100258005034000052040000520400005204000010
:10026800520400005204000052040000520400002e
:10027800520400005204000052040000520400001e
:10028800520400005204000052040000520400000e
:1002980052040000520400005204000052040000fe
:1002a80052040000520400005204000052040000ee
:1002b80052040000520400005204000052040000de
:1002c80052040000520400005204000052040000ce
:1002d80052040000520400005204000052040000be
:1002e80052040000520400005204000052040000ae
:1002f800520400005204000052040000520400009e
:10030800520400005204000052040000520400008d
:10031800520400005204000052040000520400007d
:10032800520400005204000052040000520400006d
:10033800520400005204000052040000520400005d
:10034800520400005204000052040000520400004d
:10035800520400005204000052040000520400003d
:10036800520400005204000052040000520400002d
:10037800520400005204000052040000520400001d
:10038800520400005204000052040000520400000d
:1003980052040000520400005204000052040000fd
:1003a80052040000520400005204000052040000ed
:1003b80052040000520400005204000052040000dd
:1003c80052040000520400005204000052040000cd
:1003d80052040000520400005204000052040000bd
:1003e80052040000520400005204000052040000ad
:0803f800520400005204000051
:020000040000fa
:10040000ef5421000e7f24000e0188000000000040
:10041000000020000000e000020032000001200087
:10042000200288000c000700a0a12300010020008a
:1004300011000700000020000000e0000200320070
:1004400000000200000000004e3e0200000000001c
:100450000040da000000fe004440a9008041200076
:100460000000e0000300320000002000a00188002e
:100470004440a80000000600910188008000780038
:100480000000eb0015003700e280400032a0b4000d
:100490009101ba00e280400032a0b4009102ba009b
:1004a000e280400032a0b4000002eb00472bde00e7
:1004b000f507b200602ce10004003a000059eb009f
:1004c0008301e900fdff3e00040037006128e100e0
:1004d000010032000082eb00040007001101ba00a5
:1004e0000200e000e8ff3a00000006003159ba00bf
:1004f0008301e9000c0032002159ba008301e900b0
:10050000080032000400e00003003a00e2804000ee
:1005100032a0b400f5ff370011d9ba008301e90019
:10052000faff3a008100e800e180400032a0b40008
:1005300000000600a433040000000000b2330400f1
:1005400000000000c033040000000000ce330400af
:1005500000000000801f7800849fbe000000fa00a9
:10056000749080008590800061024200e0824a0021
:1005700074908800859088008460a9000080fa004b
:100580004f02be004f007800004006003600f80021
:10059000809fbe00829fbe00849fbe00869fbe00db
:1005a0000000fa00749080008590800004027800ba
:1005b000040078006e13070084e0a9000080fa00b0
:1005c0004f03be004f02be004f01be004f00be00f1
:1005d0003600f900004006000000fa0005e1a9001d
:1005e0000421a900240880000440a1000450a000b8
:1005f000240888000002eb0004088800c42b2000b7
:10060000140888008460a9009460a80005e1a8008f
:100610000080fa00000006000000fa001061a90046
:1006200011e1a9001021a90010c1a90084088000cf
:100630000440a0000450a000840888000002eb00e1
:10064000340888000082eb006408880084e0a90078
:1006500094e0a80011e1a8000080fa000000060064
:100660000000fa007690800087908000f49080006f
:10067000059180000403530085835b00b4908000e3
:10068000c59080000602420087824a00b49088002c
:10069000c59088007490800085908000f490880058
:1006a00005918800769080008790800034918000ca
:1006b000459180000403530085835b0054908000c3
:1006c000659080000602420087824a0054908800ac
:1006d0006590880074908000859080003491880037
:1006e000459188007690800087908000149180006a
:1006f000259180000403530085835b00d490800023
:10070000e59080000602420087824a00d49088006b
:10071000e590880074908000859080001491880096
:100720002591880076908000879080005491800009
:10073000659180000403530085835b0094908000e2
:10074000a59080000602420087824a0094908800ab
:10075000a590880074908000859080005491880056
:10076000659188000080fa00000006000200fa008f
:10077000004f78001e427800e14f520004003a001a
:10078000b4908000c5908000040278001600370005
:100790001e427800e24f520004003a00549080005c
:1007a00065908000040278000f0037001e42780038
:1007b000e34f520004003a00d4908000e59080009e
:1007c00004027800080037001e427800e44f52000f
:1007d00004003a0094908000a59080000402780004
:1007e0000100370000003700040078000080fa00a4
:1007f000000006000400fa00004f7800110798007e
:100800001e427800e14f520005003a001e0290009f
:10081000cfa2de00b4908800c59088001700370092
:100820001e427800e24f520005003a001e0290007e
:10083000cfa2de0054908800659088000f0037003a
:100840001e427800e34f520005003a001e0290005d
:10085000cfa2de00d4908800e59088000700370022
:100860001e427800e44f520004003a001e0290003d
:10087000cfa2de0094908800a59088000080fa0046
:10088000000006000200fa00000f78001e02780047
:10089000cfa2de00d4908800e59088000080fa00a6
:1008a000000006000040da000000fe000a00fa0026
:1008b000e20f500022003e00b49a8000e10f520087
:1008c0000600320087232000462320002423200036
:1008d00005232000e08f530004003a008722200007
:1008e00046222000242220000522200000002800ab
:1008f0001500600003003a00800b78000700280014
:10090000958a7300054020009482620001003a003d
:1009100014a0a0008202780006003700940378003b
:100920000710b200fdff3200b103fb00070b780097
:100930008502e900e08f5200f8ff3a000800370016
:1009400034002000c0bf9f00e2bf9f00b4bf9f00e3
:10095000d1bf9f006a805700590307006fb9970005
:10096000020078000080fa0000000600889fbe00a8
:1009700080047800c09a8000e00f500004003a0024
:100980000e0007000084eb00e00f50000800350067
:10099000c89a8000e08f540005003200090044002e
:1009a00006000700e00f500001003d000084eb004e
:1009b000080078004f04be0000000600e00f500061
:1009c00004003a00a4352100c49a8800000278008f
:1009d000060037000082eb00e5542100850f50002f
:1009e00002003e00c09a88000002eb00040078007c
:1009f0000000060006a2a9000682a800000006006a
:100a0000040024000602ab00feff3a000642ab00e1
:100a1000fcff3a000662ab00faff3a000622ab0088
:100a2000f8ff3a000682ab00f6ff3a00461080005d
:100a300086026200e08f5200f2ff3a0000000600da
:100a40000662a8000662ab00feff3a0008c2a900d9
:100a500000108000000006000080fb0010108800dd
:100a6000441080000408b20000c0eb000b003a0004
:100a7000040024004610800086026200e08f5200cd
:100a8000fcff3a00deff0700000028000802b60065
:100a9000e00f500001003200e0cfb300000006007c
:100aa0000602a800000006000642a800000006009a
:100ab00003f0a200889fbe008a9fbe008c1f7800b2
:100ac000fa000700010133006450e1004f003200da
:100ad0006420e1005200320003826c0007003b00fa
:100ae0000905d0000306d000820f54000c065d00fb
:100af0000200390002003200890178000306780004
:100b00008582550004003d000003fd008103fd00c7
:100b10008502ea008b854200840f720002003b00d0
:100b200060001000e08018006011b8000005eb00c4
:100b30007a28e1000a00390006007800c75ddd0070
:100b4000f707b200878075002d00370082817100a1
:100b50000a017800610560008180d1000080d30027
:100b60008502e900f9ff3b00060440008784480045
:100b700002003b0060041400e0841c000988a3000c
:100b8000070032008a817100828171006101640076
:100b90008904d1000884d3008b05e80017003700d2
:100ba0000978a30013003a000b00e00013003400a2
:100bb0008b05e9000804440089844c000a44740051
:100bc0000978a3000d003a000b00e0000700340094
:100bd0008b05e9000804440089844c0001003a00b8
:100be0000b0020000978a300f7ff32000001eb00a2
:100bf00002003700828171000a017800700007004e
:100c00000cf0a70001f0a000b90037006420e1005b
:100c100002003a00838f6c00b90033000801be0067
:100c20000200be00b2003700889fbe008a9fbe004f
:100c30008c1f78009d000700a400330003866c0021
:100c40006450e1002e0032006420e10033003200e5
:100c50006150e1002f0032006120e10031003200dc
:100c600085855500eb07b00009002000080420002e
:100c7000050037000804440089844c000a00310054
:100c80000603430087834b000001530081815b0012
:100c9000f8ff33000203be000800a000080444006f
:100ca00089844c00f6ff3900c639dd0083017300ea
:100cb00001003200130020008904d1000884d30011
:100cc0000998a300050032000800a7000300a00057
:100cd0008904d1000884d3008b05e8008904d10081
:100ce0000884d3000001eb000281d2003400070029
:100cf00001f0a1000cf0a70001f0a0007c0037007b
:100d00006420e1007e0032000801be000200be0047
:100d1000f7ff37006120e100790032006000b80081
:100d2000f3ff37000000200001f82700f0ff370034
:100d30000001be00480007000470a70003f0a100f6
:100d40006509b100160032000d0035006828e10089
:100d500006003500f0ff2f00f1ff27000300e00040
:100d600013003b00010028000000050000004000c7
:100d7000818048008502e900fcff3a000800370046
:100d8000f88f420002003c008000eb0000000500ec
:100d90008100d1000080d3008502e800fcff3a000a
:100da0000300e00002003b0060001000e08018003b
:100db000000006004f89de008201780087003700be
:100dc00081002000618055000b003d000b002000d9
:100dd00061fe2f000100e1001d00340082817100de
:100de000610164008904d1000884d3000000e80098
:100df000faff3a00710020006100640003007000f7
:100e0000020060000900320061044400e0844c00ec
:100e10000988a500050032008b05e8006808e1009c
:100e200002003a008904d1000884d300f20f2000a8
:100e30000258e10005003d00c75ddd00f907b20082
:100e40008980750008007800000006000bf8270074
:100e50008b00780000000500c70ade00f107b20031
:100e6000f50fb20008003200e1cf4200020032006c
:100e70000170a00024000500810f70000100320005
:100e80000408050044000500810f700002003a00cc
:100e9000140005008502e9000000400081c0480000
:100ea000fcff3b000170a000240005000004be0010
:100eb000e9ff07000003be000405be000200be00fb
:100ec000e5ff0700844f7500000006000200be0029
:100ed0006450e100050036006420e10002003600a5
:100ee0000968a30001003a000800be000160a000ec
:100ef0004f0678004f05be004f04be0000000600fc
:100f0000f0ff2f00f1ff2700f9ff3700889fbe0098
:100f10008a9fbe008c1f7800e4ff0700ebff3300c0
:100f200003866c006450e100240032006420e1007c
:100f3000270032006150e100220032006120e10010
:100f4000210032008b854200eb07b1000134b8006c
:100f5000003ab8000804420089844a00013ab80007
:100f60000030b8008880400009014a0004003300c6
:100f70000000400081804800020149008b05e90023
:100f8000c909dd0083017000010032001300200058
:100f9000c814de004814dd004709de001200b2006c
:100fa000c808de000884700085ff070001f0a1007a
:100fb0000cf0a70001f0a000cdff37006120e10098
:100fc000cfff32000801be000200be00f7ff37006d
:100fd0006150e100fcff3a00c9ff3700881f78002c
:100fe000030478000300e00007003d0060001000eb
:100ff000e080180060011900e081190002003b0048
:1010000001f02d00030037000400070008f0a700de
:1010100001f0a0004f04780000000600889fbe0089
:101020008a9fbe0000827000040271000482710079
:10103000260032000004be000200be006011b800ad
:101040006b092000950220000182cf000a003900c0
:101050000541b1000082cf00070039000541b10011
:101060000982cf00040039000541b1000882cf0099
:10107000010039000541b100054252001200320062
:101080000a003b0082817100610164008100d1008f
:101090000080d3008984d3000884d3008b05e80046
:1010a0000442e800f7ff3a00070037000804440054
:1010b00089844c0000004800818048008b05e900cd
:1010c0000442e900f9ff3a003dff07004f05be006a
:1010d0004f04be000000060004342100e4874700ee
:1010e000059a8000889fbe008a9fbe008c9fbe002c
:1010f0008e1f7800e08f52000b003a002402980007
:10110000e4024200449a8800059a8800559a8800b3
:10111000a44290000504a00025429800e4429000fb
:101120000504a0006542980067044000a435210032
:10113000250020004244de00e95421004244dd0045
:101140008484540005074400110009008504d80078
:101150001c552100429a80000406560080bf9f0063
:101160000e0747000003eb00e405440008064600b4
:1011700002003700160020000d0178002242900086
:1011800061026200020032000a003700150978008f
:10119000920278002542900061026200fbff32005b
:1011a00008024100848f520002003900e00f540011
:1011b0003f003d00920678000d00a100828f56008e
:1011c000edff3e00e10f5300eaff3a000fba97002f
:1011d000840f540002003600890f540010003900bb
:1011e000614ab900b0ff2f00010020006143b80040
:1011f0000402500085825800840f5300858f5b00e5
:10120000020035000b0578000600370011000900c8
:101210000986d8000982b90004057800010037006a
:101220000e0578000a007800d0fd0700e10f4000ad
:1012300005003a000b0578000b007800cbfd070095
:10124000e10f40002b003200549a8000000a780021
:10125000549a800064034200a4429000860f50001c
:10126000020032000504a000010037000504a100bf
:101270002542980064055500043421000a05400009
:101280000a0878005a9a8800040d7800559a800060
:101290000003eb00254290000404a000a442980043
:1012a000204290000404a10024409800b2ff3700bf
:1012b000449a8800848f5200070036001403be0051
:1012c0008042eb00669a8800779a8800120a7800bc
:1012d000449a80002542980022429000479a80005c
:1012e0000404a0000709780024419800640041002c
:1012f000010037000000eb004f0778004f06be00ea
:101300004f05be004f04be004f00b10000000600b4
:10131000e00f50000800320064005000449a800042
:10132000840f500001003100409a88002042900054
:101330000404a1002440980000000600889fbe001d
:10134000000478008a9fbe0081047800e08f54007a
:1013500005003a00e00f5400320032000800780027
:10136000ebff070030003700e00f540004003a00a4
:101370000900780058ff0700800478002a00370031
:10138000640254009405780068fa970061026200d4
:101390000200320008007800ddff07000900780035
:1013a0004dff070080047800e08f54001e003200db
:1013b000888f54001b00320069bd97008885550056
:1013c00009055500c2ddde0042d5de000a017800c5
:1013d0008b0f5500010036000b0178004211dd0033
:1013e000880078000900780013000700888f5400f7
:1013f0000d0031004255dd000a854400880f55007c
:101400000900360008045500649a8000759a80002f
:1014100042c4de004244dd0008844400048cbe0067
:101420000100370088047800090078004f05be00ed
:101430004f04be00000006000002780002003700e2
:10144000315a78000201e900e00f5100fcff3a0038
:10145000000006000002780002003700015a780000
:101460000201e900e00f5100fcff3a000000060015
:10147000603221000000fa0068815700cfb8970061
:10148000060207000080fa0000000600603221001a
:101490000000fa0068815700cfb89700ff010700ed
:1014a0000080fa0000000600889fbe00010478005a
:1014b0008084eb0038029000e20262003b003200c0
:1014c00004037800980290000620b20002003a005f
:1014d000e08f520035003a000490a00080047800ac
:1014e00034049800f90fb200e08f520002003a0075
:1014f000a8029000050c7800ea8f540005003a001d
:101500000408b20003003a0088007800d0002000f0
:10151000e5ff070018029000d8029000850f5200e6
:101520000b0032000402e80015c0b3001404980058
:1015300018027800094a7800040ce80004352100fc
:10154000054a7800ea8f540018003a000500370079
:1015500009407800880078001700070080047800b0
:1015600012003700380290000410b2000f00320061
:1015700018019000a800900048009000cbfc0700e4
:1015800018029000840f50000400320038029000ce
:101590000403b300340498008084eb000002eb00e5
:1015a0001404980028029000040c780009007800c8
:1015b0004f04be00000006000200fa00889fbe0033
:1015c00001047800a0ff9f00380290008402780098
:1015d0000504b200020032000000fb0035003700b5
:1015e000e202620005003a000403b300150498000b
:1015f000340498000080eb002e003700d8049000df
:10160000e08f540006003a0012002000e6805700e8
:1016100048009000a5fc070019049800230037003b
:10162000a8029000e08f520008003a0035352100f2
:101630000430a00025049800050c780034049800bc
:10164000250020005504980015049800180190000a
:10165000a80090004800900094fc07002802900029
:101660008082eb0015049800affa9700054a7800d5
:10167000040ce8002ffa9700ea4f52000b003a00e2
:10168000380290000410b2000800320018019000e7
:10169000a80090004800900084fc07000002eb00c6
:1016a000a802900014049800050c78002ffa970007
:1016b0000400fb004f04be000080fa00000006009a
:1016c00000c0da00000006006022b8000602200018
:1016d0000000d0008180d2000482d2008582d20036
:1016e0000000a0000202520083825a000300310071
:1016f0000202420083824a000000a1000603e900c2
:10170000f3ff3a0000000600020ab900001bb9000e
:101710000200b80081004200810043000000060082
:10172000889fbe008a9fbe003004be002005be0018
:101730000404440085844c0006054d0087854d0057
:101740000898be000a90be000440e10005c8e10010
:1017500006d0e10007d8e100020031006800400037
:101760001008e8004f05be004f04be000000060050
:101770001000fa00889fbe008a9fbe001100200062
:101780000605be000404be003002be002003be00f9
:10179000c4b79f00d5b79f00e6b79f00f7b79f007b
:1017a0000802520089825a000a035b008b835b00a7
:1017b00084bf9f0095bf9f00a6bf9f00b7bf9f003b
:1017c0000498be000698be004fb29700dfb29700a3
:1017d0006fb39700ffb397000820e10009a8e1006c
:1017e0000ab0e1000bb8e100010039008000eb0015
:1017f0004f05be00108810004f04be000080fa00a4
:10180000000006001400fa00889fbe008a9fbe00f8
:101810008c9fbe000006eb003e000700ccb79f0087
:10182000bcb79f00acb79f009cb79f008cb79f00d0
:101830000605be000404be000d0420004fb397004f
:10184000bfb29700860343002fb29700e00f53000a
:1018500004003d003d0007000f004000b0ff0700fe
:1018600003003700390007000f004000c0ff0700e9
:10187000cfb2970095bf9f00e08f5200090035005e
:101880002b00070014002000050020006033b80082
:101890000000720081807200020173008381730076
:1018a0001c0007000c06e8008d0f5600e3ff3a000d
:1018b0001fba9700e00f520005003d000802be006d
:1018c0000a03be0000fe2f000f00400094ff070037
:1018d0004faa9700e00f520008003a000fb497009b
:1018e0009fb497002fb59700bfb59700d8b79f005a
:1018f000e9b79f00fab79f008bbf9f000c0007005d
:101900004f06be004f05be004f04be000080fa0027
:1019100000000600010007000000060090b79f00cd
:10192000a1b79f00b2b79f00c3b79f000000060099
:1019300001000700000006001fb09700afb097003d
:101940003fb19700cfb19700000006004f2bde009b
:10195000f9ff070086837300858242004f23de0073
:10196000a7b79f00868272000402420095b79f00cd
:10197000ffaa97004f2bde0085824200060272000c
:1019800084b79f006faa97004f23de000402420035
:1019900086827200f5af9f004f18de0000027200d1
:1019a000e5ff0700e4af9f00000040008180480091
:1019b00002014900838149000802be000a03be00fb
:1019c000d6ff070000fe2f0000000600881f7800e9
:1019d00018002000881f78008aff07008f87e90021
:1019e0004f04780000000600801feb0085ff070011
:1019f0008f87e90000000600889fbe008a9fbe0016
:101a0000e00f5000e08f5800e00f5900e08f5900c0
:101a10000c003d006044b8006055b8000000540060
:101a200081805c0002015d0083815d001800200060
:101a30001500070008003d00180007000004eb0037
:101a4000050037000004eb000f00070002003d0016
:101a50001200070018002000dcff0700e00f540010
:101a6000060032006022b8006033b8000000520067
:101a700081805a0002015b0083815b004f05be003c
:101a80004f04be0000000600e00f5200e08f5a0035
:101a9000e00f5b00e08f5b00000006006044b800d0
:101aa0006055b8000402540085825c0006035d00a6
:101ab00087835d0000000600889fbe008a9fbe00ed
:101ac0008c1f7800e00f5000e08f5800e00f5900a5
:101ad000e08f59000d003d006044b8006055b8002b
:101ae0001c0020000000540081805c0002015d00a9
:101af00083815d000820e10009a8e1000ab0e1004f
:101b00000bb8e1000d003d00080037000006eb00b7
:101b1000e00f5200e08f5a00e00f5b00e08f5b00a7
:101b200006003d006044b8006055b800040254004f
:101b300085825c0006035d0087835d00aaff0700c5
:101b4000e00f5600060032006022b8006033b80093
:101b50000000520081805a0002015b0083815b001b
:101b60004f0678004f05be004f04be00000006007f
:101b7000889fbe008a9fbe008c1f78000006eb0085
:101b8000e00f5000e08f5800e00f5900e08f59003f
:101b900007003d006044b8006055b8001c002000fc
:101ba0000000540081805c0002015d0083815d00c3
:101bb000e00f5200e08f5a00e00f5b00e08f5b0007
:101bc00007003d006044b8006055b8000c00a2005a
:101bd0000402540085825c0006035d0087835d007b
:101be0000c000700e00f5600060032006022b8002b
:101bf0006033b8000000520081805a0002015b008f
:101c000083815b004f0678004f05be004f04be0085
:101c100000000600889fbe008a9fbe008c9fbe0009
:101c20000404b8000506b8008904460060854e002b
:101c30000606b8000a054600e0854e000706b80013
:101c40008b054600040eb800890446000a854e0044
:101c5000e0854d00050eb8000a0546008b854e0054
:101c6000060eb8008b0546000416b8000a054600ab
:101c70008b854e000516b8008b054600041eb80083
:101c80008b0546000800be000a01be004f06be00dc
:101c90004f05be004f04be0000000600ef03b00079
:101ca000889fbe008a9fbe008c9fbe008006780081
:101cb0008e1f78000007eb00d1af9f00a2b79f00f6
:101cc00065033700dfa8970054c2b3008100e80025
:101cd000d1af9f00844f500006003a000102780007
:101ce0000006eb0001c3b30000c2b300b7c2b300eb
:101cf0000e0037003d0290000404b20004003200e0
:101d00001d027800004a7800840ee80005003700c4
:101d10000000fb008d007800e3fd0700e10f4000ac
:101d20004d0332000e07e8004b03370084027800b1
:101d3000d2c2b30034437800824f5300090032000e
:101d400005003c00804f530008003200874f5300cd
:101d50000c003a0007003700814f530009003a0099
:101d6000060037000c30a000f0ff37000c00a00088
:101d7000eeff37000c10a000ecff37000c20a00095
:101d8000eaff370062026600010032000c00a10089
:101d900068026600010032000c20a1000602fb0070
:101da0000403b100e90f52000c003e000503780067
:101db0000002eb00b603fb006a22b9000703b10082
:101dc00086027800048243009603fb000703b100fb
:101dd000e98f5300f7ff3600080037000002eb00e0
:101de000a7c2b300874f530004003a00afb1970079
:101df0008502e80043027800a3b79f000003eb00d0
:101e000096b79f00e6c2b300954f13000c003a004e
:101e10000ce0a00064435300d54f130003003200d0
:101e2000050378000000eb0009003700afb397000e
:101e30008502e80047047800a7b79f0098b79f0085
:101e400005037800090037006a00b90000804300ec
:101e500086027800b603fb000703b100e98f530048
:101e6000f9ff360090b79f00f5ff3700b6427800c3
:101e7000cac6b300d6af9f008acf520025003200f9
:101e80000f003c0036c6b30086cf52009d003200e2
:101e900004003c00e0cf5200f40232006b435300d8
:101ea0000f00370046c6b30086cf5200170032003d
:101eb0006543430086cf5200b1003a00130037005b
:101ec00036c7b30086cf52002000320007003c0026
:101ed0006443530086cf5200150032000643e800e9
:101ee00086cf5200a6003a001400370056c7b30050
:101ef00086cf5200a90032006343430086cf5200d0
:101f00009f003a00e5779f000e003700e5779f00bd
:101f1000a4003700f0036600050120000100320034
:101f2000050028008c82720005067800cfff37007c
:101f3000e5779f000c60a0009a003700e5779f00ce
:101f40000c50a0000c70a00096003700afb59700b1
:101f5000e5779f00cb027800abb79f00b5b79f0035
:101f6000e08f520002003a0021272100b1b79f0004
:101f70003fb397008002eb00010037008502e800c4
:101f8000e6c37a00e0cf5300fcff3a00c5b79f00dc
:101f90001fb19700e00f510005003200cfb197004c
:101fa000830f51000200310082027800c5b79f0004
:101fb000cfb297000004eb00850f520001003600fd
:101fc000050452006806660009c2b3000f00320023
:101fd000290037003d0290000404b20004003200e2
:101fe0001d027800094a7800840ee80005003700d9
:101ff0008d007800000220002bfd0700e10f40005b
:10200000010032000e07e8000804e900e00f540068
:10201000f0ff3a000084eb0017003700bd0290008b
:102020000504b20009003200880278009d037800a0
:1020300035437800864b780005047800870ee80069
:10204000e04f53000a003a00100037008802780081
:102050008d0078003500fb0084bf9f0005047800e8
:1020600011fd07000fba9700e10f40000700320092
:102070000e07e80005003700080278003fb497001b
:10208000cfb497005fb59700efb59700890278004d
:102090008504e900e08f5200e0ff3a00b8b79f00e6
:1020a000c9b79f00dab79f00ebb79f000404780020
:1020b00009c2b300e00f56000f003a006602370075
:1020c0003d0290000404b200040032001d027800ba
:1020d000094a7800840ee800050037008d0078007a
:1020e00000022000f0fc0700e10f40000100320078
:1020f0000e07e8000804e900e00f5400f0ff3a0082
:1021000055023700afb097007003660041047800b5
:10211000a1b79f00cfc4de00090578008a057800ca
:102120000800be000a01be004800de00c80add004b
:1021300000807200e0779f00e00f5300090032003a
:10214000e04f500007003200e14f40000500320030
:1021500026002000f0779f00887f9f00c6b79f0071
:102160000300370017002000c7b79f00f8779f00d3
:1021700078fb2f0008844700b8b79f0084ff370022
:1021800069fb2f001a00200089844700e5779f0033
:10219000b9b79f00cab79f007dff3700e5779f0062
:1021a0000c0cb3008c027800050cb2003b003a0026
:1021b000e00f560005003d00afb297004501be009c
:1021c0004500be00a5b79f000f003700f002660073
:1021d000120032002fb497004803be00f69f9f0004
:1021e00087a79f00a8b79f0098029000cfaade00a3
:1021f00095a79f00a5a79f007f9897008fa09700a5
:102200001fa19700afa19700b0b79f00c1b79f0073
:10221000d2b79f00e3b79f000b003700afb0970025
:10222000c102780005047800cfc4de0009057800fb
:102230008a057800a1b79f00b8b79f00c9b79f0073
:10224000dab79f00ebb79f003fb09700cfb0970081
:102250005fb19700efb19700e00f5000e08f58009a
:10226000e00f5900e08f590032003d006000b800d7
:102270006011b8003fb49700cfb497005fb59700e6
:10228000efb597003c00b300080450008984580063
:102290000a0559008b85590022003700e00f5600cf
:1022a00005003d00afb297004501be004500be00ed
:1022b000a5b79f000f003700f00266001200320041
:1022c0002fb497008004eb004803be000005eb002c
:1022d00096af9f00a7af9f00b9af9f00caaf9f0006
:1022e0001fa89700afa897003fa99700cfa9970014
:1022f000a8b79f00b0b79f00c1b79f00d2b79f009b
:10230000e3b79f000b003700afb09700c102780021
:10231000a1b79f0005047800090020000a002000f2
:102320000b002000b8b79f00c9b79f00dab79f0025
:10233000ebb79f009fb49700e08f54000d003a0068
:102340001a0020003fb09700cfb097005fb1970010
:10235000efb197009ab79f00e00f5000e08f580050
:10236000e00f5900e08f5900020032008000eb00be
:1023700091b79f000c01780005042000020cb20008
:1023800082b79f00850f51003400320003003c00eb
:10239000e00f510008003200480037000508200017
:1023a0008fb19700858f510014003200050c20007a
:1023b000858f510041003a002628210015c0b30046
:1023c0003600be003601be003fb49700cfb4970080
:1023d0005fb59700efb597000040e10001c8e1004c
:1023e00002d0e10003d8e100330039008542e80063
:1023f000f4cf5200f2ff3a002f00370015c0b300af
:1024000000012000010020006011b8003fb49700d7
:10241000cfb497005fb59700efb597000040e1009b
:1024200001c8e10002d0e10003d8e1002200390038
:10243000490020000000d0008180d2000281d2003b
:102440008381d2008904e900faff3a008542e8005e
:10245000f0cf5200edff3a001700370015c0b3006f
:1024600080002000010020006011b8003fb49700f8
:10247000cfb497005fb59700efb597000040e1003b
:1024800001c8e10002d0e10003d8e1000a003900f0
:10249000390020000000d0008180d2000281d200eb
:1024a0008381d2008904e900faff3a008542e800fe
:1024b000f5cf5200edff3a00e5779f006f7597006a
:1024c0009fb597008a02fb008b8f520002003d00ef
:1024d000eb779f00040037001fb09700850f500076
:1024e00001003d0095b79f00e00f5200030032004d
:1024f000e3026600010032000402e9000500240046
:1025000085026600060032009fb09700810f5200de
:102510000200340001025200010037000002eb000b
:102520006f7197008001eb008202fb00f3af9f0008
:10253000850f52000200340085025200f5af9f0063
:10254000640266003b003200e2026600610266003f
:10255000e08f520011003200bd0290000504b2006d
:10256000080032009d027800b6c2b300e00f5200ae
:102570000100320006c3e800864a7800850ee800b4
:1025800015003700b0022000e00f520001003200b9
:102590000080e8008d0078000c003700e00f52004a
:1025a0000e0032003d0290000404b200050032002b
:1025b0001d02780005c2b300054a7800840ee800c9
:1025c000050037008d00780000022000b6fb0700f0
:1025d000e10f4000010032000e07e8007faa9700db
:1025e000e00f52004f00320008c3b30084047800ab
:1025f0003d0290000404b200040032001d02780085
:10260000084a7800840ee800050037008d00780045
:1026100000032000a4fb0700e10f4000010032008e
:102620000e07e8008904e900f1ff3a00f9af9f00c6
:102630003c003700ffaa9700e08f520014003200e0
:102640006802660012003a0008c2b30085047800f0
:102650003d0290000404b200040032001d02780024
:10266000084a7800840ee800050037008d007800e5
:10267000000220008cfb0700e10f40000100320047
:102680000e07e8008904e900f1ff3a00f9af9f0066
:10269000e202660061026600e08f52001100320023
:1026a000bd0290000504b200080032009d027800cf
:1026b000b6c2b300e00f52000100320006c3e800ca
:1026c000864a7800850ee80015003700b002200029
:1026d000e00f5200010032000080e8008d00780019
:1026e0000c003700e00f52000e0032003d02900057
:1026f0000404b200050032001d02780005c2b300d8
:10270000054a7800840ee800050037008d00780047
:102710000002200064fb0700e10f400001003200ce
:102720000e07e8001fb39700a52721000602e90065
:10273000f0046600c223dd000c057800c7a79f00e7
:102740000a02b2006323b900e99f9f0006047800e3
:102750004322dd00b8a79f0085024200da9f9f0058
:10276000e5af9f00a30037009fb597000fb097001b
:102770008b05e900010420009bb79f00810f5000ea
:102780007300320003003c00e00f500008003200ec
:102790007e003700040820000fb19700840f51001d
:1027a00056003200040c2000840f510077003a00dc
:1027b000e00f56001f003d00efa997003304be0054
:1027c0002305be003fb09700cfb097005fb19700e0
:1027d000efb197000802be000a03be007bfc0700b1
:1027e0000802be000a03be00e0779f000000fb0065
:1027f000cf80de000101780082017800dcfc070058
:102800003fb29700cfb297005fb39700efb3970046
:102810000002520081825a0002035b0083835b0046
:10282000b4b79f00c5b79f00d6b79f00e7b79f001a
:102830002e003700ef9a9700e08f520022003200fe
:102840006fab97003fb29700cfb297003604be003f
:102850002605be000400be000801be0084bf9f0024
:10286000f5b79f000005eb0097fb07000801be00cd
:10287000e0779f000000fb00cf80de00a2fb070096
:102880000fba9700ffb297008aaf9f000004520072
:1028900081845a00d8a79f00e9a79f008004eb001d
:1028a000f9a79f005fa09700efa097007fa1970076
:1028b0008fa99700b0b79f00c1b79f00d2b79f0004
:1028c000e3b79f0009003700efa897003fb19700da
:1028d00011027800110009000481d800a400200032
:1028e000110009000480d800e1779f00ef71970084
:1028f0000343b000e3779f00240037001426210033
:10290000df9a9700e08f5200010032000425210079
:102910003fb09700cfb097005fb19700efb197003d
:102920004fa397000603e900050033008301d1009f
:102930000281d3008180d3000080d300f9ff3700eb
:102940006f00600064407800e0779f000f00370060
:102950003fb29700cfb297005fb39700efb39700f5
:102960003fa497000804e900050033008703d10065
:102970000683d3008582d3000482d300f9ff370099
:10298000674262000443b000e4779f003d0290007c
:102990000404b200070032009d0278006f729700b5
:1029a000844a7800850ee800e04f520007003a00a4
:1029b00007003700ef7497008d0078000900fb00d6
:1029c000b9fa0700e10f4000010032000e07e800ed
:1029d0004fa59700bfa597006fa897006405550005
:1029e000e385550068005000caa79f00bba79f0061
:1029f000e0af9f009fb09700e08f50005aff3a0071
:102a000068066600140032007fa99700e00f5100ad
:102a10001100340008c2b300820478003d02900027
:102a20000404b200040032001d027800084a780055
:102a3000840ee800050037008d00780000022000b9
:102a400099fa0700e10f4000010032000e07e8008c
:102a50008904e900f1ff3a00dfa9970013407800ec
:102a6000e0779f00e04f500096fc3a000e0078009f
:102a70004f0778004f06be004f05be004f04be0052
:082a8000ef03b10000000600a5
:020000040000fa
:102a88000000000099c50000abce0000320b00002a
:102a9800cfd80000561d000064160000fdd30000ca
:102aa80007f400009e310000ac3a000035ff00003a
:102ab800c82c000051e9000063e20000fa2700007a
:102ac80097ad00000e6800003c630000a5a600005a
:102ad80058750000c1b00000f3bb00006a7e00001a
:102ae80090590000099c00003b970000a25200008a
:102af8005f810000c6440000f44f00006d8a0000aa
:102b08002e5b0000b79e0000859500001c50000059
:102b1800e1830000784600004a4d0000d388000099
:102b280029af0000b06a0000826100001ba4000009
:102b3800e67700007fb200004db90000d47c0000a9
:102b4800b9f6000020330000123800008bfd0000a9
:102b5800762e0000efeb0000dde0000044250000c9
:102b6800be02000027c7000015cc00008c09000039
:102b780071da0000e81f0000da14000043d10000f9
:102b8800c5f300005c3600006e3d0000f7f8000059
:102b98000a2b000093ee0000a1e500003820000099
:102ba800c20700005bc2000069c90000f00c000009
:102bb8000ddf0000941a0000a61100003fd40000a9
:102bc800525e0000cb9b0000f990000060550000a9
:102bd8009d8600000443000036480000af8d0000c9
:102be80055aa0000cc6f0000fe64000067a1000039
:102bf8009a72000003b7000031bc0000a8790000f9
:102c0800eba80000726d000040660000d9a3000028
:102c180024700000bdb500008fbe0000167b0000c8
:102c2800ec5c00007599000047920000de57000038
:102c380023840000ba410000884a0000118f000078
:102c48007c050000e5c00000d7cb00004e0e000058
:102c5800b3dd00002a1800001813000081d6000018
:102c68007bf10000e2340000d03f000049fa000088
:102c7800b42900002dec00001fe7000086220000a8
:102c880013a200008a670000b86c000021a90000a8
:102c9800dc7a000045bf000077b40000ee71000048
:102ca800145600008d930000bf980000265d0000b8
:102cb800db8e0000424b000070400000e9850000f8
:102cc800840f00001dca00002fc10000b6040000d8
:102cd8004bd70000d2120000e019000079dc000098
:102ce80083fb00001a3e000028350000b1f0000008
:102cf8004c230000d5e60000e7ed00007e28000028
:102d08003df90000a43c0000963700000ff20000d7
:102d1800f22100006be4000059ef0000c02a000017
:102d28003a0d0000a3c8000091c300000806000087
:102d3800f5d500006c1000005e1b0000c7de000027
:102d4800aa54000033910000019a0000985f000027
:102d5800658c0000fc490000ce4200005787000047
:102d6800ada0000034650000066e00009fab0000b7
:102d780062780000fbbd0000c9b600005073000077
:102d8800d65100004f9400007d9f0000e45a0000d7
:102d980019890000804c0000b24700002b82000017
:102da800d1a50000486000007a6b0000e3ae000087
:102db8001e7d000087b80000b5b300002c76000027
:102dc80041fc0000d8390000ea32000073f7000027
:102dd8008e24000017e1000025ea0000bc2f000047
:102de80046080000dfcd0000edc6000074030000b7
:102df80089d0000010150000221e0000bbdb000077
:102e0800f80a000061cf000053c40000ca010000a6
:102e180037d20000ae1700009c1c000005d9000046
:102e2800fffe0000663b000054300000cdf50000b6
:102e380030260000a9e300009be80000022d0000f6
:102e48006fa70000f6620000c46900005dac0000d6
:102e5800a07f000039ba00000bb100009274000096
:102e680068530000f1960000c39d00005a58000006
:102e7800a78b00003e4e00000c4500009580000026
:102e88000000000099c50000abce0000320b000026
:102e9800cfd80000561d000064160000fdd30000c6
:102ea80007f400009e310000ac3a000035ff000036
:102eb800c82c000051e9000063e20000fa27000076
:102ec80097ad00000e6800003c630000a5a6000056
:102ed80058750000c1b00000f3bb00006a7e000016
:102ee80090590000099c00003b970000a252000086
:102ef8005f810000c6440000f44f00006d8a0000a6
:102f08002e5b0000b79e0000859500001c50000055
:102f1800e1830000784600004a4d0000d388000095
:102f280029af0000b06a0000826100001ba4000005
:102f3800e67700007fb200004db90000d47c0000a5
:102f4800b9f6000020330000123800008bfd0000a5
:102f5800762e0000efeb0000dde0000044250000c5
:102f6800be02000027c7000015cc00008c09000035
:102f780071da0000e81f0000da14000043d10000f5
:102f8800c5f300005c3600006e3d0000f7f8000055
:102f98000a2b000093ee0000a1e500003820000095
:102fa800c20700005bc2000069c90000f00c000005
:102fb8000ddf0000941a0000a61100003fd40000a5
:102fc800525e0000cb9b0000f990000060550000a5
:102fd8009d8600000443000036480000af8d0000c5
:102fe80055aa0000cc6f0000fe64000067a1000035
:102ff8009a72000003b7000031bc0000a8790000f5
:10300800eba80000726d000040660000d9a3000024
:1030180024700000bdb500008fbe0000167b0000c4
:10302800ec5c00007599000047920000de57000034
:1030380023840000ba410000884a0000118f000074
:103048007c050000e5c00000d7cb00004e0e000054
:10305800b3dd00002a1800001813000081d6000014
:103068007bf10000e2340000d03f000049fa000084
:10307800b42900002dec00001fe7000086220000a4
:1030880013a200008a670000b86c000021a90000a4
:10309800dc7a000045bf000077b40000ee71000044
:1030a800145600008d930000bf980000265d0000b4
:1030b800db8e0000424b000070400000e9850000f4
:1030c800840f00001dca00002fc10000b6040000d4
:1030d8004bd70000d2120000e019000079dc000094
:1030e80083fb00001a3e000028350000b1f0000004
:1030f8004c230000d5e60000e7ed00007e28000024
:103108003df90000a43c0000963700000ff20000d3
:10311800f22100006be4000059ef0000c02a000013
:103128003a0d0000a3c8000091c300000806000083
:10313800f5d500006c1000005e1b0000c7de000023
:10314800aa54000033910000019a0000985f000023
:10315800658c0000fc490000ce4200005787000043
:10316800ada0000034650000066e00009fab0000b3
:1031780062780000fbbd0000c9b600005073000073
:10318800d65100004f9400007d9f0000e45a0000d3
:1031980019890000804c0000b24700002b82000013
:1031a800d1a50000486000007a6b0000e3ae000083
:1031b8001e7d000087b80000b5b300002c76000023
:1031c80041fc0000d8390000ea32000073f7000023
:1031d8008e24000017e1000025ea0000bc2f000043
:1031e80046080000dfcd0000edc6000074030000b3
:1031f80089d0000010150000221e0000bbdb000073
:10320800f80a000061cf000053c40000ca010000a2
:1032180037d20000ae1700009c1c000005d9000042
:10322800fffe0000663b000054300000cdf50000b2
:1032380030260000a9e300009be80000022d0000f2
:103248006fa70000f6620000c46900005dac0000d2
:10325800a07f000039ba00000bb100009274000092
:1032680068530000f1960000c39d00005a58000002
:10327800a78b00003e4e00000c4500009580000022
:1032880041440000433a000020250000642000006b
:103298002c20000025640000202c000020250000c0
:1032a80064000000537400006172000074000000a4
:020000040000fa
:1032b8000000fa00751107008001eb000001eb0027
:1032c8008000eb0020002000020007000080fa00c8
:1032d800000006000a00fa0010079800210798006d
:1032e80032079800430798001e02900062026200ad
:1032f8000482d100040f78001e82e800a49188009f
:103308001e029000c722dd00f40f2000048f620027
:10331800040620009e0242002e0290004422dd0096
:10332800848242003e02900004824200b4918800e8
:103338001e029000620262000482d100040f78002d
:103348009e02780064824200c49188001e029000a8
:10335800c722dd00f40f2000048f6200040620005d
:103368009e0242004e02900004824200d4918800de
:103378000080fa00000006000600fa001007980016
:10338800210798001e029000620262000482d100a8
:10339800040f78009e02780064824200e49188005d
:1033a8001e029000c722dd00f40f2000048f620087
:1033b800840620009e0242002e02900004824200f1
:1033c800f49188000080fa00000006000a00fa0064
:1033d800a491800014079800b491800024079800f5
:1033e8004123210020002000ef030700000278009d
:1033f800040f78001e02780048a2de003407980007
:103408001e02780044079800d8030700c202a900ea
:103418000e82e80084007800400020000b040700ba
:10342800c202a8000080fa00000006000a00fa00a4
:10343800c491800014079800d49180002407980054
:103448008123210020002000d70307000002780014
:10345800040f78001e02780048a2de0034079800a6
:103468001e02780044079800c0030700c202a900a2
:103478000e82e8008400780040002000f303070073
:10348800c202a8000080fa00000006000a00fa0044
:10349800e491800014079800f491800024079800b4
:1034a800c123210020002000bf030700000278008c
:1034b800040f78001e02780048a2de003407980046
:1034c8001e02780044079800a8030700c202a9005a
:1034d8000e82e8008400780040002000db0307002b
:1034e800c202a8000080fa00000006001c00fa00d2
:1034f800300f9800410f9800520f98000002eb001f
:10350800040f78000002eb001407980084002000e4
:1035180044079800640020005407980034002000f5
:10352800640798000002eb00240798000002eb00f3
:1035380034079800ce0290004e0a900004aab90001
:10354800040278000402420004007800e0f6070054
:1035580000027800740798003e0a9000e00f5200bd
:1035680066003a0014002000040f78005f0037005e
:103578000002eb00340798007e019000ce0890000e
:103588001e007800c10007000002eb00849188004b
:10359800510037000002eb001407980023003700a1
:1035a8003e02900004024200fe02900004824200a3
:1035b800940278003e0290000402e80004024200ef
:1035c8007e03900004024300140278004822dd00c4
:1035d80004824200040f9800849180007822b90088
:1035e80004027800de0a9000048342009e02e9008b
:1035f8006e02900004aab900840278001e029000ae
:103608000482420004024200040243008e0a900031
:10361800050a78003e0290000482e800340798000a
:103628001e0290000402e800140798009e02900011
:103638006e029000848f5200d9ff35003e02900040
:1036480004024200fe029000048242001402780044
:10365800c822dd003e0290000402e8000402420095
:103668007e039000040243001402780004824200a2
:10367800140f9800859180004e02900004aab900aa
:103688000402780004024200fe0290000482420014
:10369800840078005e009000430307000002780071
:1036a800240f98009e0a90002e0a9000848f5200e2
:1036b800030032002e0290000402e900240798005b
:1036c8003e0290000482e80034079800849180004c
:1036d8000402e80084918800859180004e0a9000d9
:1036e800848f5200abff35001e0fe8001e027800e1
:1036f800e40f52009eff34005e0037007e01900008
:10370800ce0890003e089000600007000002eb0021
:1037180084918800530037000002eb0014079800da
:10372800240037003e02900004024200fe0290008e
:1037380004824200940278003e0290000402e800ed
:10374800040242007e039000040243001402780041
:103758004822dd0004824200040f98008491800012
:103768007822b90004027800de0a9000048342003f
:103778003e0a90008402e9006e02900004aab90093
:10378800840278001e029000048242000402420073
:10379800040243008e0a9000050a78003e02900059
:1037a8000482e800340798001e0290000402e80032
:1037b800140798009e0290006e029000848f5200b9
:1037c800d8ff35003e02900004024200fe0290003d
:1037d8000482420014027800c822dd003e029000f4
:1037e8000402e800040242007e0390000402430041
:1037f8001402780004824200140f9800859180001a
:103808004e02900004aab900840278003e0a900093
:103818000402e9000402420004aab9000402780084
:10382800fe02900004824200840078005e0090004e
:10383800dd02070000027800240f98009e0a90001d
:103848002e0a9000848f5200030032002e0290004e
:103858000402e90024079800849180000402e8002b
:1038680084918800859180004e0a9000848f5200d0
:10387800a9ff35007e009000a3f607002e029000f5
:10388800040078000080fa00000006001000fa002a
:103898005007980061079800720798005e02900030
:1038a800e10f520005003a00440020002407980068
:1038b8000002eb0014079800170037005e02900022
:1038c800e20f520005003a00640020002407980027
:1038d8000002eb00140798000f0037005e0290000a
:1038e800e30f520005003a008400200024079800e6
:1038f8000002eb0014079800070037005e029000f2
:10390800e40f520004003a00a400200024079800a5
:103918000002eb0014079800940207000002eb0075
:10392800849188001e003700849180004322dd00c6
:103938000408b000140798000e82e800840078009c
:10394800200020009802070000027800040f780089
:103958001e02780048a2de00340798001e02780094
:1039680044079800c202a900849180004422dd0027
:10397800fe029000848242000e82e800830020004c
:10398800050178004100200004007800c502070006
:10399800c202a800849180000402e8008491880093
:1039a800859180006e029000848f5200deff350002
:1039b8000080fa00000006001a00fa00200f9800a4
:1039c800310f9800420f98008400200044079800a7
:1039d8006400200054079800340020006407980011
:1039e8000002eb00040f78000002eb0014079800b7
:1039f8000002eb00240798000042eb00644798009f
:103a0800ce0290003e0a900004aab9000402780091
:103a18000402420004007800adf5070000027800b7
:103a2800740798002e0a9000e00f520066003a00d2
:103a380014002000040f78005f0037000002eb003c
:103a4800240798007e019000be0890001e007800b0
:103a5800bc0007000002eb00849188005100370089
:103a68000002eb00140798002100370084918000c1
:103a78006c22b90004027800ce0a90000483420048
:103a88009e02e9006e02900004aab9008402780040
:103a98001e02900004824200ae029000858242001d
:103aa800fe0390008582430095037800ae029000e3
:103ab8008502e800858242007e0090008502400071
:103ac80095027800c82add0085824300040242007e
:103ad80004024300050a78002e0290000482e800e0
:103ae800240798001e0290000402e80014079800ba
:103af8009e0290006e029000848f5200dbff35001a
:103b08002e02900004024200fe029000048242004d
:103b180014027800c822dd002e0290000402e8009a
:103b2800040242007e03900004024300140278005d
:103b380004824200040f9800859180004e02900094
:103b480004aab900840278001e02e90004024200b7
:103b580004aab90004027800fe0290000482420020
:103b6800840078005e0090000f02070000027800d1
:103b7800140f98008e0a90001e0a9000848f52003d
:103b88000200320000c2eb00644798002e02900049
:103b98000482e80024079800849180000402e80069
:103ba80084918800859180003e0a9000848f52009d
:103bb800abff35001e0fe8001e027800e20f52002e
:103bc8009eff3400580037007e019000be08900028
:103bd8002e0890005b0007000002eb00849188002b
:103be8004d0037000002eb00140798002200370050
:103bf800849180006c22b90004027800ce0a9000fb
:103c0800048342002e0a90008402e9006e029000ac
:103c180004aab900840278001e02900004824200bf
:103c2800ae02900085824200fe0390008582430028
:103c380095037800ae0290008502e8008582420074
:103c48007e0090008502400095027800c82add00b9
:103c5800858243000402420004024300050a7800fa
:103c68002e0290000482e800240798001e029000ab
:103c78000402e800140798009e0290006e0290006b
:103c8800848f5200daff35002e02900004024200b1
:103c9800fe0290000482420014027800c822dd006f
:103ca8002e0290000402e800040242007e03900005
:103cb800040243001402780004824200040f9800b2
:103cc80084918000c422dd002e0a90000402e900dd
:103cd80004aab90004027800fe029000048242009f
:103ce8008400780060002000af010700000278001f
:103cf800140f98008e0a90001e0a9000848f5200bc
:103d08000200320000c2eb006447980084918000f2
:103d18000402e80084918800859180003e0a9000a2
:103d2800848f5200afff35007e00900076f50700c3
:103d38006e4290000402fb00040078000080fa0044
:103d4800000006001000fa0050079800610798006c
:103d5800720798005e029000e10f520005003a00d9
:103d6800c4002000240798000002eb001407980004
:103d78000c0037005e029000e20f520005003a0086
:103d8800e4002000240798000002eb0014079800c4
:103d980004003700c4002000240798000002eb004c
:103da800140798000e82e8008400780020002000a4
:103db8007d01070000027800040f78001e027800d9
:103dc80048a2de00340798001e02780044079800d5
:103dd800660107000002eb00849188001e0037008e
:103de800849180004322dd000408b0001407980085
:103df8000e82e80084007800200020006a01070095
:103e080000027800040f78001e02780048a2de0045
:103e1800340798001e02780044079800c202a900df
:103e2800849180004422dd00fe02900084824200da
:103e38000e82e80083002000050178004100200080
:103e48000400780097010700c202a800849180004e
:103e58000402e80084918800859180006e02900039
:103e6800848f5200deff35000080fa000000060053
:103e78000a00fa00740020001407980014012000ba
:103e8800240798000e82e8008400780020002000b3
:103e98004501070000027800040f78001e02780030
:103ea80048a2de00340798001e02780044079800f4
:103eb8002e010700c202a9000e82e8008001eb0073
:103ec8000001eb00410020000400780075010700a4
:103ed800c202a8000080fa00000006000a00fa00ea
:103ee800740020001407980024012000240798007b
:103ef8000e82e80084007800200020002a010700d4
:103f080000027800040f78001e02780048a2de0044
:103f1800340798001e027800440798001301070030
:103f2800c202a900c202a8000080fa000000060030
:103f38000e00fa00500798006107980064002000fe
:103f4800140798005e0290004322dd0064024200dc
:103f5800240798002e029000040242000400780012
:103f68005bf4070000027800340798003e029000d6
:103f78008002eb00050a78003e0290000482e80007
:103f880015002000050a78003e02900064024200f5
:103f9800d5032000050a78003e0290006602420020
:103fa800e5062000050a780044002000040f780088
:103fb8005e02900084918800360037000002eb0012
:103fc80094918800120037001e0278000402420013
:103fd800be02900004834200849180000402e9003c
:103fe8006c22b90004027800ee029000848242003c
:103ff800949180000402420065027a00040b780064
:104008001e0fe800949180000402e8009491880053
:10401800959180001e029000848f5200eaff3500bf
:10402800849180000402e9006c22b900040278003f
:10403800ee02900004824200840078001e00900086
:10404800d900070000027800440798001e02780093
:1040580004024200be02900004824200ce02900098
:10406800c8aade00050a78001e0278000402e800eb
:1040780004024200be02900004824200ce02900078
:10408800050a78001e8fe800849180000402e90088
:104098008491880084918000e00f5200c7ff3c00a3
:1040a800b20007000002eb0084918800240037006a
:1040b800849180004322dd000508200084824200ac
:1040c8003e029000050a7800be0090002000200003
:1040d800b500070000027800440798003e029000ef
:1040e80064024200ce029000c8aade00050a7800e9
:1040f8003e02900066024200ce029000050a780057
:10410800c202a900be00900040002000cf000700b6
:10411800849180004422dd0068024200be029000c3
:10412800048242008400780080002000c700070055
:10413800c202a800849180000402e80084918800eb
:10414800859180005e029000848f5200d8ff350070
:104158003e0090006cf407000080fa0000000600a2
:104168001600fa00100f9800210f98008400200014
:10417800140798000042eb00044f78001e0a9000d4
:104188004422dd0004007800d1f307000002780023
:10419800240798000002eb00540798002400200030
:1041a80064079800b402200074079800a400200057
:1041b800040f98006d0007000002eb00849188004e
:1041c8001e003700849180004322dd000408b000ff
:1041d800540798006a0247008400780020002000f5
:1041e8007100070000027800340798003e02900032
:1041f80048a2de00740798003e029000040f980061
:10420800c202a900849180004422dd00ae02900021
:10421800848242006a02470083002000050178007a
:1042280041002000040078009e000700c202a80098
:10423800849180000402e8008491880085918000c0
:104248001e0a9000848f5200deff35000002eb004a
:10425800849188003b0037000002eb0094918800ad
:1042680015003700849180004422dd00ae0a9000da
:104278008483420096918000859180001e02900000
:1042880004aab90084027800949180000482420054
:1042980004024200ae0290000482420094027800b8
:1042a8000602430004824300050a780094918000c6
:1042b8000402e80094918800959180001e02900005
:1042c800848f5200e7ff3500849180004422dd008e
:1042d800ae0a90000482420064029000c822dd0009
:1042e800849180004422dd002e0b900004024300dc
:1042f800740290000482420044079800ae0a9000bd
:10430800849180004422dd00048242008400780009
:10431800600020002400070000027800340798009d
:10432800ce0290003e029000848f520002003200bc
:1043380000c2eb00044f7800849180000402e8007a
:1043480084918800859180001e0a9000848f520015
:10435800c1ff35002e009000ebf307001e02fb00a2
:10436800040078000080fa00000006000000fa004f
:10437800c202a90000e4270051002000370e070000
:10438800c202a8000080fa00000006000000fa003f
:10439800c202a90010002000cf0b0700c202a8002b
:1043a8000080fa00000006000800fa0020079800c4
:1043b8003107980004012000040f78000002eb0088
:1043c80074918800180037001e027800c7a2de002a
:1043d80074918000040242003e03900004024300ee
:1043e8001402780084826a00f40f200004826200bc
:1043f800140798001e0278004822dd008402780025
:104408001e029000040342004454290004024300a1
:104418001402780004826a00040f78007491800006
:104428000402e80074918800759180002e029000c3
:10443800848f5200e4ff35001e0278000402420017
:10444800040078000080fa00000006000400fa006a
:10445800000f7800110798000002eb0074918800a3
:104468000b00370074918000040242009e02900005
:104478000482420014027800044278000440780064
:104488000b0d0700749180000402e8007491880005
:10449800749180009e0f5200f2ff35000080fa00f0
:1044a800000006000800fa00881f7800000f780056
:1044b8001107980022079800330798000002eb00c4
:1044c8007491880011003700749180000402420042
:1044d800ae029000048442007491800004024200fd
:1044e8001e0242001402780004427800044078005a
:1044f800ef0c0700004278000482fb00040c7800ef
:10450800749180000402e80074918800759180001d
:104518001e029000848f5200ebff35004f04780094
:104528000080fa00000006000000fa0060fb0700a7
:104538008f0c07000080fa00000006000200fa0055
:10454800000f7800e1b12000e09f2000080007007c
:104558000080fa00000006000000fa00e1b1200027
:10456800e09f2000270007000080fa0000000600f6
:104578000600fa0010079800210798000002eb00d7
:10458800040f7800e49f2000840078000000eb000e
:104598004100070000027800040f78001e0278002e
:1045a800e00f520003003200f46a80000402e800c1
:1045b800f46a88001e027800e00f5200f1ff3a000a
:1045c8002e029000840078000000eb003200070003
:1045d80000027800040f78001e027800e00f5200f5
:1045e80003003200f46a80000402e800f46a8800dc
:1045f8001e027800e00f5200f1ff3a000080fa0036
:10460800000006000600fa0010079800210798002d
:104618000002eb00040f7800e49f2000840078007b
:104628000000eb001c00070000027800040f78006f
:104638001e027800e00f520003003200f46a800086
:104648000402e800f46a88001e027800e00f5200b5
:10465800f1ff3a002e029000840078000000eb0081
:104668000d00070000027800040f78001e02780091
:10467800e00f520003003200f46a80000402e800f0
:10468800f46a88001e027800e00f5200f1ff3a0039
:104698000080fa00000006000600fa0010079800e3
:1046a800210798000002eb00040f78001e0290001a
:1046b800cfa2de006600200007002000860f52000f
:1046c800878f5a0094003e000460010006003700fe
:1046d80013003700270037003b0037004f00370032
:1046e80063003700770037008001eb000001eb0022
:1046f8008000eb0020002000f6fa070033fb0700db
:104708002e02900004017800310020000000eb0028
:1047180076fb070000027800040f78007f0037005e
:104728008001eb00120020008000eb002000200038
:10473800e8fa070025fb07002e0290000401780024
:10474800310020001000200068fb070000027800fc
:10475800040f78002e029000040178003100200038
:104768003000200061fb070000027800040f780089
:104778006a0037008001eb00220020008000eb0077
:1047880020002000d3fa070010fb07002e0290003b
:1047980004017800310020000000eb0053fb070003
:1047a80000027800040f78002e02900004017800bf
:1047b80031002000300020004cfb07000002780088
:1047c800040f7800550037008001eb00320020000c
:1047d8008000eb0020002000befa0700fbfa07006b
:1047e8002e02900004017800310020000000eb0048
:1047f8003efb070000027800040f78002e029000ac
:1048080004017800310020003000200037fb070049
:1048180000027800040f7800400037008001eb00a8
:10482800420020008000eb0020002000a9fa0700c9
:10483800e6fa07002e0290000401780031002000fb
:104848002000200029fb070000027800040f7800f0
:104858002e02900004017800310020004000200062
:1048680022fb070000027800040f78002b003700b5
:104878008001eb00520020008000eb0020002000a7
:1048880094fa0700d1fa07002e029000040178007c
:10489800310020002000200014fb070000027800ef
:1048a800040f78002e0290000401780031002000e7
:1048b800400020000dfb070000027800040f78007c
:1048c800160037008001eb00620020008000eb003a
:1048d800200020007ffa0700bcfa07002e02900093
:1048e800040178003100200020002000fffa0700b2
:1048f80000027800040f78002e029000040178006e
:104908003100200040002000f8fa0700000278007b
:10491800040f780001003700000000001e02780034
:10492800040078000080fa00000006000600fa0083
:1049380010079800210798000002eb00040f780088
:104948001e029000cfa2de006600200007002000b3
:10495800860f5200878f5a006a003e0004600100eb
:104968000600370013003700200037002d003700fd
:104978003a00370047003700540037008001eb0049
:104988000001eb008000eb002000200051fa070036
:10499800a6fa07002e0290000401780031002000da
:1049a8000000eb0004fc070000027800040f780008
:1049b80055003700130020000001eb008000eb00d9
:1049c8002000200043fa070098fa07002e02900002
:1049d800040178003100200010002000f6fb0700d9
:1049e80000027800040f78004700370023002000f9
:1049f8000001eb008000eb002000200035fa0700e2
:104a08008afa07002e029000040178003100200085
:104a180010002000e8fb070000027800040f78006f
:104a280039003700330020000001eb008000eb0064
:104a38002000200027fa07007cfa07002e029000c9
:104a4800040178003100200010002000dafb070084
:104a580000027800040f78002b0037004300200084
:104a68000001eb008000eb002000200019fa07008d
:104a78006efa07002e029000040178003100200031
:104a880020002000ccfb070000027800040f78000b
:104a98001d003700530020000001eb008000eb00f0
:104aa800200020000bfa070060fa07002e02900091
:104ab800040178003100200020002000befb070020
:104ac80000027800040f78000f0037006300200010
:104ad8000001eb008000eb0020002000fdf907003a
:104ae80052fa07002e0290000401780031002000dd
:104af80020002000b0fb070000027800040f7800b7
:104b080001003700000000001e0278000400780051
:104b18000080fa00000006000800fa00000f780084
:104b28001107980022079800634798006e4290008a
:104b3800e04f52001a0032002e029000e70f520098
:104b48000b003c00150020002e029000042add0016
:104b580084427800848520001442780004c27200e0
:104b68000002fd0058e8b7000002fd0026003700eb
:104b78002e0290006802520015002000042add0071
:104b880084427800948520001442780004c27200a0
:104b98000002fd0059e8b7000002fd001a003700c6
:104ba8002e029000e70f52000c003c001500200078
:104bb8002e029000042add000442780084c2ea0034
:104bc800848520001442780004c262000002fd00bf
:104bd80058e8b7000002fd000b0037002e029000d5
:104be8006802520015002000042add000442780003
:104bf80084c2ea00948520001442780004c262004e
:104c08000400780059e8b7001e0290004322dd0036
:104c1800e403420084852000144278008402fb00eb
:104c2800f40f2000048362009e027800040620002e
:104c380004aab90004027800070242008402420074
:104c4800e487200004824200060a78001e029000d1
:104c58004322dd00e50342009485200014427800d9
:104c68000403fb009e0278000406200004aab90091
:104c7800040278000702420084024200e487200010
:104c880004824200060a78000080fa00000006004c
:104c98001000fa0050079800610798007207980002
:104ca8000002eb00040f78000002eb0034079800c4
:104cb8000002eb00440798000002eb00140798007c
:104cc800220037000002eb00240798001900370083
:104cd8003e029000e00f520013003a00ce0290000e
:104ce80034062000848f52000700340013c0b3003c
:104cf8002e019000ee0090005e00900086ff0700f5
:104d080014002000040f78004e029000f40f5200a7
:104d180005003c008041eb002e019000ee00900061
:104d28005e0090007cff07002e0290000402e8005d
:104d3800240798002e029000ec0f5200e4ff340084
:104d48001e0290000402e800140798001e0290005a
:104d5800ec0f5200dbff34005e009000d500070026
:104d68001e027800040078000080fa0000000600a7
:104d78000600fa00000f78001107980042479800d3
:104d88004e429000e04f5200070032004485200058
:104d9800144278000444a0000002fd0054e8b70063
:104da8000002fd0006003700458520009542780086
:104db800f4ceb30004c262000400780054e8b700df
:104dc8001e029000c323dd004485200014427800b1
:104dd8000403fb009e0278000406200004aab90020
:104de800040278000702420084024200e48720009f
:104df80004824200060a78000080fa0000000600db
:104e08000000fa0014002000040078000080fa0076
:104e1800000006000400fa00000f7800110798004f
:104e28001e027800044278000002fd0055e8b70031
:104e38000002fd0004f020001e02620048a2de000d
:104e4800844278001e0290004422dd00044278006b
:104e580004c242000002fd0056e8b7000002fd004f
:104e68009e02900004ff20000482620044a2de003b
:104e7800044278000002fd0057e8b7000002fd0078
:104e88000002eb0004408800390037000002eb0004
:104e9800144088003000370005408000144080002e
:104ea8004322dd008403e800548520001442780082
:104eb8000403fb000406200004aab90004027800d9
:104ec8000702420084024200e48720000482420074
:104ed800060a780005408000144080004322dd0067
:104ee8008483e80064852000144278000403fb00f2
:104ef8000406200004aab900040278000702420050
:104f080084024200e487200004824200060a7800f6
:104f180005408000144080004322dd00e303420086
:104f280074852000144278000403fb000406200066
:104f380004aab90004027800070242008402420071
:104f4800e487200004824200060a780014408000aa
:104f58000402e8001440880014408000eb0f52005f
:104f6800cdff3400044080000402e80004408800bb
:104f780004408000e10f5200c4ff34000080fa00b2
:104f8800000006000600fa00000f780011079800dc
:104f9800424798004e429000e04f5200070032000e
:104fa80084852000144278000404a0000002fd005b
:104fb80054e8b7000002fd000600370045852000d0
:104fc80095427800e4cfb30004c262000400780080
:104fd80054e8b7001e029000c323dd00448520007a
:104fe800144278000403fb009e02780004062000a7
:104ff80004aab900040278000702420084024200b1
:10500800e487200004824200060a78000080fa0043
:10501800000006000600fa00000f7800110798004b
:10502800424798004e429000e04f5200070032007d
:1050380084852000144278000424a0000002fd00aa
:1050480054e8b7000002fd0006003700458520003f
:1050580095427800b4cfb30004c26200040078001f
:1050680054e8b7001e029000c323dd0044852000e9
:10507800144278000403fb009e0278000406200016
:1050880004aab90004027800070242008402420020
:10509800e487200004824200060a78000080fa00b3
:1050a800000006000200fa00000f78000080fa00f5
:1050b800000006000200fa00000f78000080fa00e5
:1050c800000006000000fa0081c4b3000040eb00b5
:1050d800b109070000027800cfa2de000400be007c
:1050e80032ef07000002be004441880055418800a5
:1050f80081c4b30010c0b300a709070000027800fc
:10510800cfa2de000400be0028ef07000002be00a8
:10511800644188007541880081c4b30020c0b30091
:105128009d09070000027800cfa2de000400be003f
:105138001eef07000002be008441880095418800e8
:1051480081c4b30030c0b30093090700000278009f
:10515800cfa2de000400be0014ef07000002be006c
:10516800a4418800b5418800b1c4b3000040eb00f9
:105178008909070000027800cfa2de000400be0003
:105188000aef07000002be00c4418800d54188002c
:10519800b1c4b30010c0b3007f0907000002780053
:1051a800cfa2de000400be0000ef07000002be0030
:1051b800e4418800f54188003f0007000080fa00bc
:1051c800000006000000fa0021c0b30020c0b300b0
:1051d8007109070000027800cfa2de000400be00bb
:1051e800f2ee07000002be00044288001542880063
:1051f80021c0b30030c0b30067090700000278007f
:10520800cfa2de000400be00e8ee07000002be00e8
:1052180024428800354288000442800015428000fc
:1052280002002f00f35724000400be007cee0700a4
:105238000002be0002002000030a24000400be0091
:1052480030ef07000002be0042e12200e3312400f3
:105258000400be002bef07000002be0004428800d5
:1052680015428800244280003542800002002f0049
:10527800f35724000400be0069ee07000002be00d8
:1052880002002000030a24000400be001def0700ee
:105298000002be0042e12200e33124000400be0007
:1052a80018ef07000002be0024428800354288003b
:1052b8000080fa00000006000000fa00881f78004d
:1052c8000002eb00044088001b0037000840800003
:1052d80004408000c222dd00848220000482420053
:1052e8001402be0002002f00f35724000400be0081
:1052f8004bee07000002be0002002000030a240053
:105308000400be00ffee07000002be000400be005d
:1053180085ee07000002be008402780008034400fe
:10532800c481200004024300050a7800044080007c
:105338000402e8000440880004408000e40f5200a2
:10534800e2ff34004f0478000080fa0000000600f5
:105358000000fa000042eb000400780040f2b700b9
:105368000080fa00000006000200fa00889fbe00d4
:10537800000f78000424210014427800e04f520006
:10538800310032004842800059428000e5408000e8
:105398001e02780004aab90004027800cfa2de0039
:1053a8000400be0081ee07000002be000401be003a
:1053b8000800be00bced07000002be0044428800a1
:1053c800554288006842800079428000054180008b
:1053d8001e02780004aab90004027800cfa2de00f9
:1053e8000400be0071ee07000002be000401be000a
:1053f8000800be00aced07000002be006442880051
:1054080075428800884280009942800025418000ca
:105418001e02780004aab90004027800cfa2de00b8
:105428000400be0061ee07000002be000401be00d9
:105438000800be009ced07000002be008442880000
:105448009542880030003700f54080001e02780041
:1054580004aab90004027800cfa2de000400be004e
:1054680052ee07000003be0044428000554280000f
:105478000401be000600be008ced07000002be005d
:105488004442880055428800154180001e02780079
:1054980004aab90004027800cfa2de000400be000e
:1054a80042ee07000003be0064428000754280009f
:1054b8000401be000600be007ced07000002be002d
:1054c8006442880075428800354180001e027800d9
:1054d80004aab90004027800cfa2de000400be00ce
:1054e80032ee07000003be0084428000954280002f
:1054f8000401be000600be006ced07000002be00fd
:1055080084428800954288004f04be000080fa005b
:10551800000006000200fa00004f780011479800ca
:105528001e427800e04f520010003200042421008f
:1055380014427800e04f520006003200e540800037
:105548000441800084824200244180000482420099
:1055580027003700f5408000144180008482420013
:1055680034418000048242002100370004242100d5
:1055780014427800e04f52000e0032001e429000a4
:105588000402fb00e20f520006003200e30f520053
:1055980006003200e10f520014003a00e440800097
:1055a80013003700044180001100370024418000b7
:1055b8000f0037001e4290000402fb00e20f520069
:1055c80006003200e30f520006003200e10f5200dd
:1055d80006003a00f44080000500370014418000be
:1055e8000300370034418000010037000082eb00df
:1055f800040078000080fa00000006000e00fa009f
:10560800000f7800214798003247980043479800d8
:1056180034079800450798005607980067079800d0
:105628001e007800408588003e409000a5f0b70035
:105638003e029000c48488005e009000e0848800e8
:105648006e029000f48488004e009000d084880098
:105658002e4290000482fb000402d100044278002c
:1056680004007800a7f0b700840b21005485880057
:105678004e409000acf0b7000002eb007485880043
:105688000080fa00000006000800fa0020079800d1
:10569800614798000042eb00044f78002000370073
:1056a8002e02900094427800154798002e02900030
:1056b8000402e8002407980084c0b3002447980037
:1056c800140037001e4290001e426a0061426200c8
:1056d800344798009e4278000582fb000402d100fe
:1056e800044f78003e429000e04f52000200320022
:1056f800c4c8b3001e4f6a001e4290000482fb001b
:105708000402d100144798002e4290000442e90098
:10571800244798002e429000e04f5200e9ff3a00db
:105728006e4290000482fb000402ea004f22de0071
:1057380004427800ee4290008542e90065479800ef
:10574800e04f5200d6ff3a001e427800044078002d
:105758000080fa00000006000600fa0040479800a2
:10576800cae2a800248c8000044278005585800095
:105778008440780005007800c3ff070000427800e5
:1057880024479800c484800060c0b300040001006e
:10579800c484800050c8b30004000100c4848000a1
:1057a8004e40900004000100c5848000540a210086
:1057b800144278000440780005000100c584800088
:1057c800248c800004427800044078000500010021
:1057d8000002eb00040f780008003700c584800041
:1057e800568580001e0278000402430014427800a7
:1057f80004407800050001001e0fe800248c80009a
:105808009e0f5200f5ff3c00c48480002e4090009b
:105818000400010010002000af060700cae2a9003a
:105828008041eb002e419000ce409000801821006e
:105838003902070011002000800b2100de0107005b
:105848000080fa00000006000a00fa00889fbe00e7
:10585800340a210014427800e04f520046003a0012
:10586800e48480000400010000027800e40f520084
:10587800410034000a003700748580000402e80003
:1058880074858800e4848000040001000002780028
:10589800e40f520002003c000042eb0052013700c6
:1058a800d48480000400010000427800e64f5200d2
:1058b800f1ff3a00d484800004000100004278001f
:1058c80055c8b300854f52002b003a00d48480009d
:1058d80004000100004278000002fd00b6f0b700a5
:1058e8000002fd00d484800004000100004278001a
:1058f8000002fd00a6f0b7000002fd00d48480007d
:1059080004000100004278000002fd00a3f0b70087
:105918000002fd00650b210095427800540a210021
:105928001442780084cf52000b0032009485800026
:105938000402e80094858800d484800004000100f3
:105948000042eb000002fd00a3f0b7000002fd00da
:105958000042eb0024013700340a21001442780089
:105968000482fb000402e80004007800d8ed070078
:105978000002780004858800340a21001442780067
:10598800e04f520017013200240a21001442780027
:10599800e04f520026003a0000000000e484800036
:1059a8000400010000027800e00f5200fbff340001
:1059b800f48480000400010000427800e14f4200b6
:1059c8001d003a00560207000042eb000400780070
:1059d800a3f0b7000042eb0004007800a2f0b70083
:1059e800048580000400780047ee070096ff070052
:1059f80000427800fc00370005858000280a210055
:105a0800184478000882fb0084844200d484800013
:105a18000400010000427800844c78000842e80045
:105a28000002fd00a2f0b7000002fd0003003700ed
:105a3800000000000100370000000000e48480003e
:105a48000400010000027800e00f52000600320056
:105a5800250a210095427800340a21001442780072
:105a680084cf5200e4ff3600340a21001442780043
:105a78008482fb00240a2100144278000482fb007f
:105a88000402e900848f5200d6003a00340a21004b
:105a9800144278000585800084407800050078006d
:105aa800f9fe0700004278000002fd00a4f0b700ec
