:020000040000fa
:080000000002040000000000f2
:020000040000fa
:10000800e2020000e2020000e2020000e202000058
:10001800e2020000e2020000e2020000e202000048
:10002800e2020000e2020000e202000004410000d7
:10003800e2020000e2020000e20200002c4100009f
:10004800e2020000e2020000e202000000380000c4
:1000580030380000e2020000e2020000e202000084
:10006800e2020000e2020000e2020000e2020000f8
:10007800e2020000e2020000e2020000e2020000e8
:10008800e2020000e2020000e2020000e2020000d8
:10009800e2020000e20200001c3a00004c3a0000b4
:1000a800e2020000e2020000e2020000e2020000b8
:1000b800e2020000e2020000e2020000e2020000a8
:1000c800e2020000e2020000e2020000e202000098
:1000d800e2020000e2020000e2020000e202000088
:1000e800e2020000e2020000e2020000e202000078
:1000f800e2020000e2020000e2020000e202000068
:10010800e2020000e2020000e2020000e202000057
:10011800e2020000e2020000e2020000e202000047
:10012800e2020000e2020000e2020000e202000037
:10013800e2020000e2020000e2020000e202000027
:10014800e2020000e2020000e2020000e202000017
:10015800e2020000e2020000e2020000e202000007
:10016800e2020000e2020000383c0000683c0000a7
:10017800e2020000e2020000e2020000e2020000e7
:10018800e235000012360000e2020000e202000040
:10019800e2020000e2020000e2020000e2020000c7
:1001a800e2020000e2020000e2020000e2020000b7
:1001b800e2020000e2020000e2020000e2020000a7
:1001c800e2020000e2020000e2020000e202000097
:1001d800e2020000e2020000e2020000e202000087
:1001e800e2020000e2020000e2020000e202000077
:1001f800e2020000e2020000e2020000e202000067
:10020800e2020000e2020000e2020000e202000056
:10021800e2020000e2020000e2020000e202000046
:10022800e2020000e2020000e2020000e202000036
:10023800e2020000e2020000e2020000e202000026
:10024800e2020000e2020000e2020000e202000016
:10025800e2020000e2020000e2020000e202000006
:10026800e2020000e2020000e2020000e2020000f6
:0c027800e2020000e2020000e2020000ce
:020000040000fa
:100400006f0f22000eff28000e0188000000000080
:10041000000020000000e000020032000001200087
:10042000200288000c00070000ca23000100200001
:100430000f000700000020000000e0000200320072
:1004400000000200000000008e41020000000000d9
:100450000040da000000fe00a01f20000000e000c5
:1004600002003200002020009001880000000600f9
:10047000a1028800800078000000eb001a0037001d
:10048000e280400054a0b4009101ba00e280400034
:1004900054a0b4009102ba00e280400054a0b4001d
:1004a0000002eb00472bde00f507b200a601880032
:1004b000602ce10008003a000049eb000201e8006e
:1004c000020039003420ec0002f0a0008301e900b2
:1004d000f9ff3e00040037006128e100010032000e
:1004e0000082eb00040007001101ba000200e000e6
:1004f000e3ff3a000000060004d0a300e20f490029
:100500001c003900810278003549ba000201e80078
:10051000020039003420ec0002f0a0008301e90061
:100520000f0032002549ba000201e800020039003c
:100530003420ec0002f0a0008301e9000800320042
:100540000400e0000600320015c9ba000201e8000c
:10055000020039003420ec0002f0a0008301e90021
:100560008180e80054a0b4000300e000e2ff3a00fc
:10057000000006009102ba00055978008301e900e5
:10058000f7ff3200c82ade00055978008301e90030
:10059000f3ff32000400e000f1ff320011d9ba008d
:1005a000eeff3700b037040000000000be37040043
:1005b00000000000cc37040000000000da3704001f
:1005c000000000000040da000000fe001004b1004e
:1005d000070035009001b100040034007000b10044
:1005e000030035009001b10001003c00100005003f
:1005f000000005006900e100040035006d00e10025
:10060000030034000002b1000100320000000500c8
:10061000100005001004b100030035009001b10086
:1006200001003c001000050000000500800078007b
:100630001104b100030035009101b10001003c003c
:100640000050a000000006000a00fa00e20f50006f
:1006500022003e0084078100e10f520006003200b4
:100660008723200046232000242320000523200088
:10067000e08f530004003a00872220004622200029
:100680002422200005222000000028001500600020
:1006900003003a00800b780007002800958a730059
:1006a000054020009482620001003a0014a0a000de
:1006b0008202780006003700940378000710b20029
:1006c000fdff3200b103fb00070b78008502e90053
:1006d000e08f5200f8ff3a00080037003400200095
:1006e0001007980032079800040f7800210798003f
:1006f0000e007800450c07003e01900002007800d3
:100700000080fa00000006000001be003a00070069
:100710000470a70003f0a1006509b10016003200c3
:100720000d0035006828e10006003500f0ff2f00bd
:10073000f1ff27000300e00013003b000100280048
:100740000000050000004000818048008502e900ab
:10075000fcff3a0008003700f88f420002003c001e
:100760008000eb00000005008100d1000080d30074
:100770008502e800fcff3a000300e00002003b00b5
:1007800060001000e0801800000006000001be00bc
:10079000190007000470a70003f0a10003f8a300ec
:1007a00013003a006509b10010003200090035005d
:1007b0006928e10002003500010028000000050062
:1007c00000004000818048008502e900fcff3a00fb
:1007d00000000600f88f4200050035008100d100be
:1007e0000080d3008502e800fcff3a00000006000c
:1007f0008000eb0000000500c70ade00f107b20030
:10080000f50fb20008003200e1cf420002003200d2
:100810000170a00024000500810f7000010032006b
:100820000408050044000500810f700002003a0032
:10083000140005008502e9000000400081c0480066
:10084000fcff3b000170a000240005006022b800fe
:10085000060220000000d0008180d2000482d20075
:100860008582d2000000a0000202520083825a005a
:10087000030031000202420083824a000000a1000e
:100880000603e900f3ff3a0000000600efff07004f
:100890000400be00000006000000fa00000278001c
:1008a00002003700015a78000201e900e00f510010
:1008b000fcff3a000080fa00000006000000fa0089
:1008c000889fbe000004be00050037000000fb004a
:1008d00089007800e5030700e10f400004003200c2
:1008e00038407800e04f5000f8ff3a000000eb007d
:1008f0004f04be000080fa0000000600010d220037
:100900000000fa00881f7800ecff0700010d2200ac
:1009100000047800a0002000d4030700080078003d
:100920004f0478000080fa00000006000000fa0082
:100930000b00370030427800e04f520003003200d5
:100940000201e900b14f5200050032000480fb00b3
:10095000954278008582fb000500500004003700b6
:1009600081027800e00f5100f2ff3a0002007800a7
:100970000080fa00000006000c00fa00000f78006a
:1009800020079800ff030700140c200010079800b0
:10099000500798003407980068015700ceb89700b8
:1009a0000e007800380007000080fa000000060002
:1009b0000000fa00881f78009007810028030700d4
:1009c00000047800080078000aff0700e00f5000dc
:1009d000f9ff3a00e10f4400030032009107810063
:1009e00008007800f00307004f0478000080fa0048
:1009f000000006000000fa00889fbe000004780096
:100a00008a1f7800814478000205780004fd2f00d9
:100a100008024200e90f520002003e000404780080
:100a20000f00370008007800fafe0700e00f5000c2
:100a300005003200e00f5500030032000800780086
:100a4000fafe07000004780008007800dffe0700c7
:100a500000c2eb00e00f5000060032007805b10044
:100a60008984fb0000c2eb00890f540001003d00a7
:100a7000084278004f057800044078004f04be001b
:100a80000080fa00000006000002eb004c00fa00b3
:100a900090078900889fbe00412798008a9fbe006a
:100aa000322798008c9fbe00741f98000444780081
:100ab000c7013700ce2290000985fb008502e800bf
:100ac0000a00780045279800cafe0700e00f500092
:100ad00002003200b6ff0700bd01370054c2b30068
:100ae00084cf5400ae013a008044780024c0b300a3
:100af00000c79800044678004e209000000578005a
:100b0000040037004cc0b300010037002cc0b30014
:100b10000a0078003a42780075c6b300854f52004b
:100b200020003e0085c2e900854f520037003100a9
:100b3000f9c25200854f5200af0032000e003e0055
:100b4000e7c25200854f52003000320006003e00de
:100b5000e04f520037013200fbc25200854f520075
:100b600000013a002500370075c4b300854f5200dc
:100b7000fc003a002500370035c6b300854f52000f
:100b8000df0032000b013e00ebc25200854f5200e5
:100b9000f4003a004cc798004a279800140020003f
:100ba0009c003700f5c6b300854f520006013200a5
:100bb00008003e00e6c25200854f5200fd003200a0
:100bc000d2ff3900e3c24200854f5200e5003a00ef
:100bd0008900370055c7b300854f5200f500320039
:100be000e3c24200854f520087003200e5c2520046
:100bf000854f5200db003a00890037000ec290009a
:100c00000442e80004c79800c1ff37004cc79800b1
:100c10004a27980066ff0700e0cf540001003a0021
:100c2000b9c3b300900781008d020700d4022000f1
:100c3000840f500007003a00004f78008944e90013
:100c400090078100860207008e02e8005527980071
:100c5000010037005e2798000045eb00ec02200001
:100c600009003700de229000805a7800552798004e
:100c70008c0f500001003a000a45e8008944e90061
:100c80009007810076020700e0cf54000400320094
:100c900004fd2f0000024200e90f5200f1ff360070
:100ca000e04f550002003a008c0f5000edff32007b
:100cb000e0cf54002c00320054062000840f500076
:100cc0000300320054042000840f500026003a0034
:100cd0005e2290008944e900005a78005427980069
:100ce000900781005e020700e0cf5400120032003e
:100cf000d4022000840f5000030032000482e90077
:100d0000840f50000c003a00de2290008944e90074
:100d1000805a7800552798009007810050020700fc
:100d200005003700005d78008944e90090078100e4
:100d30004b020700010037005e259000e0cf540011
:100d40000700320004fd2f0000024200e90f5200ac
:100d5000f4ff36000a02780054279800020037009a
:100d60008a027800552798005e229000004aeb0026
:100d7000e10f400002003200910781000a030700e2
:100d8000de2290008e8f5200aa0032000ec2900028
:100d9000e04f52000e013a00be2290000844e800e5
:100da0000582e900cec29000e2cf52000900320075
:100db000342798008000eb00940478000e0078003f
:100dc000fd010700020c0700809cbe008294be005b
:100dd000ff003700342798008000eb00940478006f
:100de0000e0078000b010700cf80de004c0c0700de
:100df000808cbe00f6003700e24f560041ff320003
:100e00008cc0b30042ff37004a2798004cc79800b7
:100e10000002eb00741f980005c1b3006d0037009d
:100e20004a279800e2fe07000ec29000e04f5200f1
:100e300004003a00be229000450278003527980051
:100e400054279800900781000502070000057800ec
:100e5000e10f450015003a000a007800d90037007c
:100e6000ce2290001502fb00840f550005003a00c9
:100e70000c0278008502e800542798004527980066
:100e8000180037008ec29000e0cf520001003a00f7
:100e90000a5e78008944e9000d0032009007810065
:100ea000ef01070000057800010037005e26900082
:100eb0000a02e800e10f5200080036000a0078003c
:100ec000ccfd0700e00f5000e5ff320003003700c3
:100ed0008c02780055279800020037000c02780039
:100ee000542798008ec29000e0cf5200b8003a001c
:100ef0005e2290000844e800054a7800b4003700fc
:100f00004a2798008ec29000e0cf520006003a00b7
:100f10003e2290000844e800c4027800342798007c
:100f200005057800010037005e25900090078100dc
:100f3000cb010700e10f4000a20032000ec290007a
:100f4000e04f520001003a00005d78008944e9005a
:100f50004240a900f5ff3c008a027800552798001e
:100f60009b0037008484fb0004fd2f00090242002f
:100f7000e90f520009003e00980107000a027800bc
:100f80008044780004057800b402fb000503b1003a
:100f9000e98f5200fbff3600ddfe37004a2798003c
:100fa00090078100ae010700808f540080003a0056
:100fb00087003700a4c0b3004cc798004a279800a8
:100fc000547f9800040037004a2798004cc79800c7
:100fd00085c0b300557f980075fe0700900781001b
:100fe0009f0107000042eb0010279800447f980003
:100ff000d4022000840f500005003a0090078100c1
:10100000970107001027980015c0b300457f98008e
:101010007e199000de7890001e20900075fe07007b
:10102000e14f40000b003a00910781001e20900024
:101030005d020700e04f540069003a009407810008
:101040003400900070006000660032000080eb0009
:1010500064003700040320009e229000848f520019
:1010600015003a00900781007d01070084072000e9
:10107000840f500004003a007e1a9000e00f5200e6
:10108000070032000a00370084052000840f50005a
:1010900007003a00fe1a9000e08f52000400320070
:1010a000900781006e0107001027980002003700aa
:1010b000910781003c0207005e7a90006055b800fd
:1010c0000486fb000d0020000c01be000a00be00db
:1010d0008944e900c60c07007e1990000005be0097
:1010e000de7890001e20900042fe07000080fb008a
:1010f000010020000005450081854d00e0cf54002f
:101100000800320090078100550107007e19900009
:1011100010279800de78900036fe0700e14f40006f
:10112000e9ff3a007e199000de7890001e209000c2
:1011300030fe0700e14f400003003a0091078100b4
:101140001e20900018020700ce7a9000e0cf5200d7
:101150000200320060051500e0851d000ec29000ff
:10116000e04f52001a003a00be2290000844e80006
:101170000582e900cec29000e4cf520004003a009c
:1011800034279800140278000a8abe001000370045
:1011900034279800140278000a0a78000c003700ff
:1011a000900781002e010700800f550008003200d3
:1011b000e10f40000300320091078100fa010700af
:1011c00007003700e04f540005003a0005003700e3
:1011d0004e22900094447800e0cf540035fe3a004f
:1011e0000880fb004f06be004f05be004f04be0046
:1011f0000080fa0000000600000d22000000fa0046
:1012000068015700ceb89700b70207000080fa00c7
:10121000000006000400fa00889fbe008a9fbe00fe
:101220008c9fbe0001067800e00f560001003200de
:10123000000e780080047800090578008a047800a0
:10124000b905fb000b007800eafc0700e00f500036
:10125000f9ff3a00d4022000848f550003003a00c1
:101260000905780018c0b300050037000044780075
:10127000b4022000848f550001003a00090578006f
:101280008004eb006000b800090278000dcdb300c7
:10129000e5c2b300010037000a05e8000a03780040
:1012a000f003640004003a009acf120002003a00f2
:1012b0000844a000f8ff37009a4578008b03fb0034
:1012c0000703b100e98f530019003e000814a00085
:1012d0000803fb00e98f5400110032007003630023
:1012e000010032000402e90014079800050f78009d
:1012f000a2002000030020008904e8003c0c070045
:101300000dc345001e0290000683fb00070020006d
:101310009e0278000000430081804b00deff370012
:1013200070036300dcff3a000402e800daff3700d4
:1013300055c6b30085cf5500040032008004eb0091
:1013400055c4b30085cf55002e003a00da4278002c
:10135000d6c2b30086cf520002003a000834a00083
:1013600003003700b6c2b30086cf520001003a0036
:101370000a05e80002c3b3000a03780006057800f6
:1013800005c3b300ba43780082cf5300faff32009e
:101390000701fb008004eb000203b100e90f5100dc
:1013a00015003e000a03780085c453009643780078
:1013b0008984fb000701fb000203b100e90f510023
:1013c0000d003e00ea49b90085c45300d6437800b9
:1013d0008984fb00828444000701fb000203b10002
:1013e000e90f510004003e00ea49b90085c25300ec
:1013f0008582fb0085044100e802640001003200a0
:101400008904ea00e00f560003003200e2026400a3
:1014100001003200060e780014079800c00a070089
:101420006011b8000005be000006be00870a070074
:101430001e029000800278006000b800e08f520029
:10144000580032008484440034f82f00848f540004
:1014500003003d0024022000a4078900510037004a
:1014600004082000848f5400070034002402200068
:1014700061046400a40789004500320000002000d8
:1014800001f82f0047003700e08f54001b003d009b
:101490008904ea00060037000a00be00922f2000ef
:1014a00053012500ea845400bd0907000005be0071
:1014b000e98f5400f8ff3c00060037000a00be0028
:1014c00002002000031224008904e900b409070087
:1014d0000005be00e08f5400f8ff3a000a06be0087
:1014e00002002000030820000a00be00570a07007f
:1014f000e00f500021003d001b003700e08f54003a
:1015000007003a001d0037000a00be00922f20009d
:1015100053012500ea8454007f0b07000005be003c
:10152000e9cf5400f8ff3e00060037000a00be0075
:1015300002002000031224008904e900760b070052
:101540000005be00e08f5400f8ff3a000a06be0016
:10155000f2ff2f00f3f727000a00be003d0a070044
:10156000e00f500005003400610464000b003200fd
:1015700000002000010828000a0037006104640010
:10158000010032000df0a2000c00be000500370083
:101590000000200001f827000200370000002000b2
:1015a000010820004f06be004f05be004f04be00dc
:1015b0000080fa00000006000000fa0015ff070096
:1015c0000080fa00000006008000eb000000fa0036
:1015d00010ff07000080fa000000060006c2b300fa
:1015e0000000fa000002780004007800b0427800a1
:1015f00086cf5200fbff3200e9cf5200f9ff3200e4
:10160000d6c2b30086cf520003003a000002780031
:1016100016c0b300050037000043eb00b7c2b300ab
:1016200087cf520001003a00000278000000eb0072
:1016300002003700ea00b90000804200b402fb005b
:101640000503b100e98f5200faff3600e04f530066
:10165000010032000000ea000080fa0000000600ed
:101660000000fa00881f780000047800380290001b
:10167000f1026200e18f520006003a008402780015
:101680000520b2000800320098029000e08f52005e
:1016900005003200380290000080eb000440a000fa
:1016a00034049800200037000490a100340498000e
:1016b00018029000e00f5200070034000402e90015
:1016c000140498001802780094427800040ce80092
:1016d0000580fb0005003700380290000404b200ca
:1016e000ecff3a0008007800120007003802900072
:1016f0000408b2000c003a00fa0f500008003a004b
:1017000028029000e00f5200e2ff32001802900021
:10171000180ce9000402e80014049800ddff37000b
:10172000ed0f5000e2ff32004f0478000080fa0015
:10173000000006000200fa00889fbe000004780046
:101740000002eb008a9fbe00140498000080eb00aa
:10175000380290006102620040003200a40e2200b4
:101760008042eb0094cf12000f0032008b0e22005b
:101770002a102000c9fd2f008b84440039029000fc
:101780002410b2008a0f520002003a0009007800cb
:10179000b2070700ec8444008b8f5400f7ff3a0037
:1017a000a40e2200004aeb0058019000e00f510007
:1017b0000e003a00120498008e00780012002000fb
:1017c0004800900053090700e10f500003003a0061
:1017d0001e4278000480fb00200037003802900091
:1017e0000440a0003404980013003700a8009000c3
:1017f000480090004709070010049800e00f5000cf
:1018000003003200e10f40000d003a0003003700f2
:10181000380290000440a000020037003802900017
:101820000403b30034049800a80290000002eb0007
:10183000050c7800140498000080eb0007003700c6
:10184000280290000000e900040c780010049800c1
:1018500094427800040ce8000580fb004f05be00b0
:101860004f04be000080fa00000006000000fa00ed
:10187000889fbe00010478008084eb00380290004d
:10188000e20262003b0032000403780098029000fc
:101890000620b20002003a00e08f520035003a0004
:1018a0000490a0008004780034049800f90fb2007e
:1018b000e08f520002003a00a8029000050c780068
:1018c000ea8f540005003a000408b20003003a0011
:1018d00088007800d0002000e4ff07001802900084
:1018e000d8029000850f52000b0032000402e8007d
:1018f00015c0b3001404980018027800094a780053
:10190000040ce800a40e2200054a7800ea8f540077
:1019100018003a0005003700094078008800780078
:101920007a07070080047800120037003802900020
:101930000410b2000f00320018019000a8009000bf
:101940004800900040fb070018029000840f5000f0
:1019500004003200380290000403b30034049800fd
:101960008084eb000002eb00140498002802900031
:10197000040c7800090078004f04be000080fa00d3
:10198000000006000000fa00000278008042eb0030
:10199000b4cf1200fdff3a000080ea000080fa0098
:1019a00000004200000006000000fa00e10f4000c5
:1019b0001a003200310290001420b200e10f5200f0
:1019c00015003a0021039000e00f5300120032008e
:1019d00011029000d1029000850f52000e003200db
:1019e00091027800868f520002003a008508e800d4
:1019f000020037000402e800940098009102e90018
:101a000031029000850878000404b20003003a0017
:101a1000804a7800010037000080eb000080fa0067
:101a200000000600d4c6b3000800fa00889fbe007c
:101a30000084fb008a9fbe00844f50002c003600bb
:101a4000a9f421004b062000110009000b84d800e6
:101a5000720040004300dd000080440081057800f2
:101a60006022b8000600200007fe2300aa00200024
:101a70005001be004000be00b20907000002be00d7
:101a80000203be00110009008a85d800049fbe0031
:101a90000697be0080057800e9854500c35ddd003e
:101aa0008b8544003e00be002e01be003b02be00fe
:101ab0002b03be00a30907000002be000203be0004
:101ac000110009000a84d800049fbe000697be00da
:101ad000010478004344dd00888444003e00be00d9
:101ae0002e01be003902be002903be001d003700d2
:101af000ea4f500013003600aa002000a9f421008c
:101b0000110009000a84d80001057800690440002a
:101b10004355dd004344dd00088444008a844400ca
:101b20006022b8000600200007fe23003800be0037
:101b30002801be00830907003902be002903be0048
:101b400008003700a4f421004344dd0008044200eb
:101b50006022b8000600200007fe23003800be0007
:101b60002801be00770907004f05be004f04be00e4
:101b70000080fa0000000600d4c6b3000800fa0096
:101b8000889fbe008a9fbe00e04f500022003d00ab
:101b90000040ea000004fb00844f50000a003400bb
:101ba00044062000a9002000110009000404d80008
:101bb000aaf42100110009008900d800e9004000c2
:101bc000c308dd0020003700ea4f50000f0034004a
:101bd000a4002000110009000404d800a4f421008e
:101be000690040004300dd0000004200430cdd00be
:101bf000080242005001be004000be005403be0077
:101c00004402be004f090700330037004344dd00a3
:101c1000a4f421002d0037000004fb00844f500085
:101c20001f00340044062000a90020001100090014
:101c30000404d800aae92100110009008900d80095
:101c4000e9004000c308dd00810045008b09200049
:101c50008a8545003102be002103be003b00be0064
:101c60002b01be00370907000002be000203be00c0
:101c7000110009000904d800049fbe000697be00a9
:101c8000010478004344dd00080545003e00be0025
:101c90002e01be003a02be002a03be00d9ff370063
:101ca000ea4f500007003400a40020001100090092
:101cb0000404d800a4e92100690040004300dd00cd
:101cc000c9ff37004344dd00a4e9210008044200b5
:101cd0003800be002801be004f05be004f04be0004
:101ce0000080fa00000006005a00fa00889fbe003b
:101cf000111798008a9fbe00721798008c9fbe0033
:101d0000000678006000b8006011b8002017980045
:101d10003117980042179800531798008000eb0085
:101d200041279800420637001e11900054c2b300ac
:101d30000201e80012179800844f500006003a0094
:101d4000820378008002eb0000c3b30001c2b3003d
:101d5000b2c2b300100037003c0290000404b2008d
:101d6000040032001c027800004a7800040ee800eb
:101d7000050037000000fb008c007800bbfe070068
:101d8000e10f40002a063200ce2190008301e800d6
:101d9000432798002606370007027800d3c2b30015
:101da00037437800834f53000900320005003c00a0
:101db000814f530008003200824f53000c003a005c
:101dc00007003700804f530009003a000600370033
:101dd0000530a000f0ff37000500a000eeff37003f
:101de0000510a000ecff37000520a000eaff370037
:101df000e2836200010032000500a100e883620076
:101e0000010032000520a1008603fb000703b1009a
:101e1000e98f53000d003e00040378000700200006
:101e2000ea3ab900b603fb000703b1001600fb0055
:101e3000848343000003b10006027800e90f5000dc
:101e4000f7ff3600072798000a0037008003eb00f1
:101e500007279800a7c2b300874f530005003a0038
:101e60007e1090000402e800c0007800701798000f
:101e700001279800e6c2b300944f13001b003a00fc
:101e800005e0a00055279800a5c2b300d4cf1200ea
:101e9000040032000001eb00840278008203780025
:101ea0000b003700fe1190000402e800c302780026
:101eb00073179800451f980004037800c5c6b30047
:101ec0005e2090000e003700ea3ab9008403430018
:101ed000050278003503fb000603b100e90f53004b
:101ee000f9ff3600471f9800f3ff370005c0a00038
:101ef0000003eb0055279800461f9800eeff3700bf
:101f0000860378003742780007037800854f520037
:101f10002e0032005027980017179800c5c6b3004e
:101f2000854f520014003c00e8c25200854f520019
:101f30002400320009003c00ecc25200854f5200e0
:101f400033003200ebc24200854f5200b300320032
:101f5000e04f5200bb053200d100370065c6b30028
:101f6000854f520020003200e3c24200854f5200ec
:101f7000cb003a001300370035c7b300854f52003d
:101f80002a00320007003c00e4c25200854f520094
:101f90001a0032008542e800854f5200c0003a0026
:101fa0001b00370055c7b300854f5200c0003200f8
:101fb000e3c24200854f5200b9003a00044f780056
:101fc00017003700044f7800bd003700f0036000b1
:101fd0000401200001003200040028000002720009
:101fe00004007800c6ff3700de239000044f78001d
:101ff00007a0a00057279800b10037005e2490008a
:10200000044f78000860a00058279800ac00370003
:102010005e209000044f78000050a00050279800e8
:10202000de2090000170a000a40037007e11900017
:10203000044f780042027800721798000404780078
:10204000e00f520001003a00c801220008037800a6
:102050000002eb00010037000402e80084024300a4
:102060008041eb0095cf1100fbff3a00840478001b
:102070004e1a9000e00f520003003200890f520008
:1020800001003100840478008006eb008e2290006d
:10209000898f520001003600898652005e2390002d
:1020a000680363005627980036003a00481f9800de
:1020b000591f98006a1f98007b1f980004c2b30044
:1020c000ce24900010003700bc0290000504b2003e
:1020d000040032009c027800844a7800050ee80073
:1020e00007003700442f98008c0078000002200081
:1020f000defd07004e2a9000e10f40000100320093
:102100008904e8008d06e900e08f5600eeff3a00f2
:10211000492798008086eb004e1c9000de1c900042
:102120006e1d9000fe1d9000160037003c029000ce
:102130000404b20009003200080278001c03780091
:10214000b4427800054b780004047800060ee800dd
:10215000e0cf520008003a000a0037000802780079
:102160008c0078003400fb0004047800bffd0700f9
:10217000e10f400003003200ce2090008100e80013
:1021800041279800090278008404e900e00f52001a
:10219000e6ff3a005e219000e00f51002405320076
:1021a00058279800692798007a2798000b2f9800e5
:1021b00004c2b300ce24900010003700bc0290008f
:1021c0000504b200040032009c027800844a7800c2
:1021d000050ee80007003700442f98008c007800b7
:1021e00000022000a1fd07004e2a9000e10f4000f0
:1021f000010032008904e8008d06e900e08f5600f6
:10220000eeff3a00492798005e249000ee249000eb
:102210007e2590008e2d900005053700fe10900061
:102220005e23900041027800f0026300711798006d
:1022300004007800cf80de00010178008201780080
:10224000001f9800111f9800221f9800331f98004c
:102250004800de00480add0000007200004f7800f0
:10226000e08f520009003200e04f500007003200ba
:10227000e14f4000050032008e7390001047980037
:102280002747980029002000030037000e709000b7
:1022900019002000104798000e04e80074ff370072
:1022a000044f78000e0478001900200070ff3700fa
:1022b000044f7800de209000010cb30051279800f5
:1022c000047020005e21900004026100910232003f
:1022d00004002100040261000200320063002000bb
:1022e000431f9800de2290007082620009003200d5
:1022f0007e1290004401be004400be007417980096
:10230000001f9800111f9800221f9800331f98008b
:102310000a003700fe1290004500be0075179800b5
:10232000ab0607000002be000203be00041f9800b7
:10233000151f9800261f9800371f98006022b800cc
:102340006033b8000e1890009e1890002e1990006f
:10235000be199000ae050700e00f50000c003d00d4
:102360000e1890009e1890002e199000be19900033
:1023700003f0a200001f9800111f9800221f980070
:10238000331f9800de2090003100b30051279800e1
:102390000002eb000e1890009e1890002e1990007d
:1023a000be199000240798006022b8006033b8007e
:1023b0003d060700e00f5000330032006402470082
:1023c0000e1890009e1890002e199000be199000d3
:1023d000270707002e009000a40020000000e9005d
:1023e000e300b900110009000400d800200798009c
:1023f000e00f500002003d000000e90020079800b7
:102400002e0490000840ea00dbfd07000e1a900041
:102410009e1a90002e1b9000be1b900049070700db
:102420000002be000203be00241798003517980072
:1024300046179800571798006022b8000600200041
:1024400007ff230072050700e00f500002003d0067
:102450000804e9000b0037006022b80006002000e5
:10246000470224002e109000be1090004e119000e4
:10247000de1190006b050700e00f500002003500f0
:102480000804e80028079800ce1a9000f88f520040
:102490000f003c000540780062fd07000002be000e
:1024a0000203be000e1890009e1890002e19900096
:1024b000be199000d90407000002be000203be004e
:1024c000041f9800151f9800261f9800371f9800ba
:1024d0002e049000e90f540015003c006022b80063
:1024e0006033b8000e1890009e1890002e199000ce
:1024f000be199000ec050700e00f500032003200da
:102500000e1890009e1890002e199000be19900091
:1025100052060700e00f5000e08f5800e00f59000e
:10252000e08f590028003a00e10f540026003400e3
:102530000400200005002e00b6e022001701240050
:102540002e109000be1090004e119000de119000f1
:102550002f050700e00f500002003d0073045400f7
:102560000100370072045400280798004e40900084
:1025700081fd07000002be000203be000e1890009d
:102580009e1890002e199000be19900024179800f4
:10259000351798004617980057179800260507002a
:1025a0002e0607000205be000004be006000b80051
:1025b0006011b800001f9800111f9800221f98009a
:1025c000331f9800170037000e1890009e189000d7
:1025d0002e199000be199000200607000205be00cb
:1025e0000004be00510607000002be000203be0048
:1025f0000e1890009e1890002e199000be199000a1
:10260000790707000002be000203be00041f980005
:10261000151f9800261f9800371f98000002eb0036
:1026200024079800c102220010c0b3000800370040
:102630003102be003103be000440e10005c8e100e4
:1026400006d0e10007d8e100030039000040e800af
:10265000f44f5000f6ff3a008e229000004f7800b1
:102660002e0290004e1b9000048252000000fb00de
:10267000060252000000520000279800e00f5300ad
:10268000020032000000e90000279800de239000dd
:1026900063826300030032000e2090000000e90016
:1026a00000279800de209000648260005100320014
:1026b00062826000e1826000e00f52001700320089
:1026c0003c0290000404b200080032001c037800b1
:1026d000b4c2b300e08f52000100320004c2e8002f
:1026e000044b7800060ee80008003700b002200016
:1026f000e08f5200010032000080e8008c0078007a
:102700005afc0700e10f4000300032004e219000db
:102710000201e800422798002c003700e08f5200a9
:102720002a0032003c0290000404b200050032008e
:102730009c02780004c2b300844a7800050ee800c9
:10274000050037008c0078000002200047fc0700dd
:10275000e10f40001d003200ce2190008301e8000f
:1027600043279800190037003c0090000004b20095
:10277000040032001c0078000d487800000ee800cc
:102780000d003700442f9800352f9800162f980021
:10279000272f98008c0078000003200033fc0700ee
:1027a0004e2a9000be2a90001e2b9000ae2b900067
:1027b000e10f4000030032004e2490000804e800be
:1027c000482798008904e900040037000802be0089
:1027d0000a03be008e2490000dc3b300e08f5400a6
:1027e000e1ff3c00092798000605be000404be0076
:1027f000800037005e2090006802600023003a00ed
:10280000190037003c0090000004b20004003200c0
:102810001c0078000d487800000ee8000d0037001d
:10282000442f9800352f9800162f9800272f9800d6
:102830008c007800000220000cfc07004e2a90005b
:10284000be2a90001e2b9000ae2b9000e10f40009e
:1028500003003200ce2090008100e800412798005c
:102860008904e900040037000802be000a03be0024
:102870008e2490000dc2b300e08f5400e1ff3c00b5
:10288000092798000605be000404be005e219000e2
:1028900062026100e1026100e00f520017003200a5
:1028a0003c0290000404b200080032001c037800cf
:1028b000b4c2b300e08f52000100320004c2e8004d
:1028c000044b7800060ee80008003700b002200034
:1028d000e08f5200010032000080e8008c00780098
:1028e000e2fb0700e10f400042003200ce219000e1
:1028f0008301e800432798003e003700e08f520034
:102900003c0032003c0290000404b200050032009a
:102910009c02780004c2b300844a7800050ee800e7
:10292000050037008c00780000022000cffb070074
:10293000e10f40002f0032004e2290000402e80018
:10294000442798002b0037003c0290008502fb00d2
:102950000404b2001100320046022200c32add0046
:10296000850243009c0678005503be004502be0068
:102970000800be000a01be0042070700a4002000b4
:10298000050020006033b8004707070007c3b30005
:10299000874e40000d0ee800130037004002220071
:1029a000c32add00850240000800be000a01be0007
:1029b0005503be004502be0032070700a4002000f8
:1029c000050020006033b800370707008c0078004e
:1029d000040320000002420004007800a3fb07006b
:1029e000e10f400003003200ce2090008100e8009b
:1029f000412798001e4278008442e900054f780084
:102a0000e04f5200d0ff3a00110037003c02900026
:102a10000404b200040032001c027800084a780066
:102a2000040ee800050037008c0078000003200049
:102a30008efb0700e10f4000010032008904e8002e
:102a40002e0290000402e9002407980002003700db
:102a5000ce24900008c3b3002e029000e00f520075
:102a6000eaff3c00492798004e199000f20f5100f0
:102a70000300340024c1b300044f78000200370083
:102a80008e799000034f78004e1b90009e42780094
:102a90000502fb0004025300441f9800e0cf5200df
:102aa000100032003c0290000404b2000500320025
:102ab0001c027800e5c2b300054a7800040ee80065
:102ac000050037008c007800e002200067fb07005b
:102ad000e10f400003003200ce2390008703e8009e
:102ae000472798001e40780023fc07000002be0024
:102af0000203be000e1890009e1890002e19900040
:102b0000be1990008f050700d40407003400370079
:102b10003c0290008502fb000404b2001100320068
:102b200040022200c32add00850240009c06780096
:102b30005503be004502be000800be000a01be00eb
:102b4000d0060700a4002000050020006033b80074
:102b5000d506070004c3b300844e40000d0ee80004
:102b60001300370046022200c32add00850243001d
:102b70000800be000a01be005503be004502be00ab
:102b8000c0060700a4002000050020006033b80044
:102b9000c50607008c0078000403200000024200f4
:102ba0000400780031fb0700e10f40000300320011
:102bb000ce2390008703e8004727980040022200b8
:102bc0001e02fb004322dd00040240000800be009c
:102bd0000a01be005403be004402be00b206070054
:102be0001e4278000205be000004be008442e900d7
:102bf000054f7800e04f5200c5ff3a00190037003a
:102c00003c0090000004b200040032001c00780078
:102c10000d487800000ee8000d003700442f9800a2
:102c2000352f9800162f9800272f98008c007800d9
:102c3000000320000dfb07004e2a9000be2a9000e2
:102c40001e2b9000ae2b9000e10f400003003200dd
:102c5000ce2090008100e800412798008904e90017
:102c600004003700ce1c90000dc3b3000203be0069
:102c70000002be00e08f5400e1ff3a000605be00ee
:102c80000404be005e219000680261006802320008
:102c90008e219000e08f5100650234000802be00d2
:102ca0000a03be000dc2b300830478003c0090000c
:102cb0000004b200040032001c0078000d487800c7
:102cc000000ee8000d003700442f9800352f9800c3
:102cd000162f9800272f98008c0078000002200003
:102ce000e2fa07004e2a9000be2a90001e2b9000a8
:102cf000ae2b9000e10f4000030032004e24900004
:102d00000804e800482798008904e900e7ff3a0032
:102d100045023700de229000050cb2002e003a007a
:102d20005e209000e00f500005003d00fe10900076
:102d30004105be004104be0071179800170037001e
:102d40005e219000700261000e0032007e13900040
:102d50004602be00140f9800250f980076179800c1
:102d6000160290004fa2de00340f9800440f980026
:102d70001e0c9000ae0c90003e0d9000ce0d900009
:102d8000060037007e10900040047800701798000d
:102d9000cfc4de00090578008a057800e00f5400f2
:102da000e08f5c00e00f5d00e08f5d0027003d00dc
:102db000de2090006022b8006033b8003100b3001c
:102dc0000804520089845a000a055b008b855b0069
:102dd000512798001d0037005e219000e00f510040
:102de00005003d00fe1190004305be004304be00f7
:102df00073179800150037005e239000f0026300ff
:102e00000c0032007e1190004200be007407980052
:102e10005007980061079800040f980072179800f7
:102e20005e049000ee0490007e0590008e0d9000f0
:102e3000060037007e129000440478007417980052
:102e4000090020000a0020000b002000ce1a90008c
:102e5000e08f520009003a0016002000461f98003b
:102e6000e00f5400e08f5c00e00f5d00e08f5d003c
:102e7000020032008003eb00471f98005e209000a4
:102e800004042000000cb200001f9800840f5000c2
:102e90002c00320003003c00e00f5000080032001c
:102ea0003c003700040820008e189000848f5000ea
:102eb00010003200040c2000848f500035003a00ce
:102ec000c502220014c0b3003500be003501be00ab
:102ed0000040e10001c8e10002d0e10003d8e100b8
:102ee0002b0039000442e800f44f5200f6ff3a008c
:102ef0002700370014c0b3000001200001002000ab
:102f00006011b8000040e10001c8e10002d0e1001a
:102f100003d8e1001e003900450020000000d00069
:102f20008180d2000281d2008381d2008502e90033
:102f3000faff3a000442e800f04f5200f1ff3a0075
:102f40001300370014c0b3008000200001002000ef
:102f50006011b8000040e10001c8e10002d0e100ca
:102f600003d8e1000a003900360020000000d0003c
:102f70008180d2000281d2008381d2000603e90061
:102f8000faff3a000442e800f54f5200f1ff3a0020
:102f9000044f78001e02fb00ce1b9000870f5200ea
:102fa00002003d00074f7800040037004e189000e3
:102fb000840f500001003d00441f98008e209000b7
:102fc000e08f5000050032005e2190006302610036
:102fd000020032008100e90001279800040024006b
:102fe000de21900004826100090032000e22900070
:102ff000ce1a9000850f52000300340005025200e3
:1030000004279800020037000003eb000627980011
:103010008003eb001e02fb00671798000e20900053
:10302000840f50000200340004025000641798001e
:10303000de2090006482600051003200e282600075
:1030400061826000e08f520017003200bc029000e5
:103050000504b200080032001c037800b5c2b300ba
:10306000e00f52000100320085c2e800054b7800f5
:10307000060ee80008003700b0022000e00f520002
:10308000010032000080e8008c007800f7f90700aa
:10309000e10f4000160032004e2190000201e800ce
:1030a0004227980012003700e00f52001000320053
:1030b0003c0290000404b200050032001c027800bb
:1030c00005c2b300054a7800040ee8000500370089
:1030d0008c00780000022000e4f90700e10f4000b6
:1030e00003003200ce2190008301e80043279800be
:1030f0006e129000e00f5200750032000802be0010
:103100000a03be00ee1490000dc3b3003c00900013
:103110000004b200040032001c0078000d48780062
:10312000000ee8000d003700442f9800352f98005e
:10313000162f9800272f98008c007800000320009d
:10314000caf907004e2a9000be2a90001e2b90005c
:10315000ae2b9000e10f4000030032004e2490009f
:103160000804e800482798008904e900e7ff3a00ce
:10317000691798000605be000404be00540037001d
:103180006e109000e00f500023003200de2090000f
:103190006882600020003a000802be000a03be00f8
:1031a0000dc2b300800478003c0090000004b2001f
:1031b000040032001c0078000d487800000ee80082
:1031c0000d003700442f9800352f9800162f9800d7
:1031d000272f98008c00780000022000a3f9070038
:1031e0004e2a9000be2a90001e2b9000ae2b90001d
:1031f000e10f4000030032004e2190000201e80080
:10320000422798008904e900e7ff3a00691798000f
:103210000605be000404be00de219000e2826100cb
:1032200061826100e08f520017003200bc02900002
:103230000504b200080032001c037800b5c2b300d8
:10324000e00f52000100320085c2e800054b780013
:10325000060ee80008003700b0022000e00f520020
:10326000010032000080e8008c0078007ff9070040
:10327000e10f4000160032004e2290000402e800e8
:103280004427980012003700e00f5200100032006f
:103290003c0290000404b200050032001c027800d9
:1032a00005c2b300054a7800040ee80005003700a7
:1032b0008c007800000220006cf90700e10f40004c
:1032c00003003200ce2290008502e80045279800d6
:1032d0004e1b9000440222008602e900de2390008b
:1032e000c32add00f08363005e20900084864200e4
:1032f0000002b2004707980030079800082798009e
:10330000192798002a2798003b2798009c0037002f
:10331000ce1a90000e1b90008502e90007042000e1
:10332000451f9800870f53007100320003003c00d6
:10333000e00f5300080032007e0037000408200030
:103340000e1c9000840f540053003200040c200027
:10335000840f540077003a005e209000e00f500088
:103360001e003d003d04be002d05be000e20900055
:103370009e2090002e219000be2190000802be00e9
:103380000a03be00bf0407000802be000a03be0015
:10339000004f78000000fb00cf80de0001017800c4
:1033a00082017800280507000e2290009e229000de
:1033b0002e239000be2390000002520081825a000a
:1033c00002035b0083835b000427980015279800a5
:1033d00026279800372798002c003700ce0290004f
:1033e000e08f5200210032000e2290009e229000b9
:1033f0003d04be002d05be000400be000801be0055
:10340000442f9800352f980010f507000801be00e2
:10341000004f78000004eb000000fb00cf80de00ce
:10342000f30307004e2a9000be2a90000817980068
:103430000003520081835a00560f9800670f9800ce
:103440008003eb00770f98005e089000ee08900074
:103450007e0990008e119000002798001127980097
:103460002227980033279800080037001d027800b3
:103470000e219000110009000481d800a400200052
:10348000110009000480d800014f780003c3b30085
:103490001ecf410027003700b4002200be0290007a
:1034a000e08f520001003200a4ff21004e1b90006b
:1034b0000e2090009e2090002e219000be219000b2
:1034c000c232dd008502e900050033008301d1002e
:1034d0000281d3008180d3000080d300f9ff370040
:1034e0006f00600000004200104f780011003700ac
:1034f000ce1b90000e2090009e2090002e21900068
:10350000be219000e33ab900040478000804e90001
:10351000050033008301d1000281d3008180d300f4
:103520000080d300f9ff37006742600000c3b3009a
:10353000004f42003c0290000404b2000700320039
:103540009c0278001e427800844a7800050ee8004c
:10355000e04f520006003a00080037001e00fb0052
:103560008c007800c1f80700e10f40000300320032
:10357000ce2090008100e80041279800e8865600a0
:103580004e199000e00f510061ff3a00de219000db
:103590000e2490009e2490002e259000be259000c1
:1035a00068826100220032006e129000e00f52002b
:1035b0001f0034000802be000a03be00ee14900093
:1035c0000dc2b3003c0090000004b20004003200c1
:1035d0001c0078000d487800000ee8000d00370050
:1035e000442f9800352f9800162f9800272f980009
:1035f0008c007800000220009cf807004e2a900002
:10360000be2a90001e2b9000ae2b9000e10f4000d0
:10361000030032004e2490000804e8004827980078
:103620008904e900e7ff3a000605be000404be0075
:103630009e10900011407800004f7800e04f50003d
:10364000b9f93a004f06be004e2090004f05be006b
:103650004f04be000080fa00000006000000fa00df
:10366000881f78000004780038009000000278007d
:103670001420b200e10f520005003a000002eb00f6
:103680001404980028029000040c780019003700f8
:1036900080027800242020002520b2000000eb00ea
:1036a000848f520016003a00a8009000808f5000ce
:1036b0001300320018019000800f510010003200fa
:1036c00048009000e0f3070018029000840f5000bb
:1036d00003003200380290000403b3003404980061
:1036e000380090000002eb001404980028029000bb
:1036f000040c78000002b200010032000080eb00f0
:103700004f0478000080fa00000006000200fa0072
:10371000889fbe0001047800004f780038029000b6
:10372000840278000504b200020032000000fb00b1
:1037300033003700e202620005003a000403b300e0
:1037400015049800340498000080eb002c0037002a
:10375000d8049000e08f540006003a0012002000c8
:103760008e00780048009000b7f307001904980015
:1037700022003700a8029000e08f520008003a00b3
:10378000d50e22000430a00025049800050c780016
:103790003404980025002000550498001504980072
:1037a00018019000a800900048009000a6f30700c0
:1037b000280290008082eb00150498001e4a7800d1
:1037c000040ce800a4c0b3009e4f12000b003a00a6
:1037d000380290000410b200080032001801900076
:1037e000a80090004800900097f307000002eb004b
:1037f0001404980028029000040c78001e00fb00be
:103800004f04be000080fa00000006000000fa002d
:1038100000c0da000080fa00000006002800fa006c
:10382000889fbe008a9fbe008c9fbe00070678005e
:10383000878669000c003b00030478008704780049
:1038400008f0a10009f0a100840f5000858f5800f6
:10385000860f5900890f5c00030033000cf0a200b2
:1038600001003a000cf0a100400107006400e100f3
:103870005f003200780147006408e1006100320017
:103880006c014700748557003200be001201be0073
:103890003a04be001a05be001e039000be0a900046
:1038a0008503530006003d000004fd008104fd0077
:1038b0000205fd008305fd008703ea00050378008b
:1038c0000df8a3000400320060041400e0841c0022
:1038d00060051d00e0851d006022b8007d0320000a
:1038e0000d38e1008006eb000b0039004433dd00a9
:1038f000f300b20083017300390037008482720044
:103900000d027800e10664008b85d1000a85d300a2
:103910008984d3000884d3008703e900f7ff3b00c4
:1039200008004000898048000a0149008b81490055
:1039300004003b0060001000e080180060011900e6
:10394000e08119000358a300090032008d82720043
:1039500084827200610260008301d1000281d30081
:103960008180d3000080d3000603e8001b003700ed
:103970000348a30017003a000600e00017003400d7
:103980000603e9000d00a300000048008180480004
:1039900002014900838149000348a3000f003a0057
:1039a0000600e000090034000603e90000004000c2
:1039b00081804800020149008381490001003a00ea
:1039c0000003eb000348a300f5ff32006022b800bb
:1039d000020037008482720061826600b70007002f
:1039e00003f0a1000cf0a70003f0a000f3003700e3
:1039f000640147006408e10002003a000df8a300ea
:103a0000eb003a003200be001201be00eb003700ae
:103a10008f1fd100b70307008f87e9000000e00087
:103a200000000600809feb00b20307008f87e900cb
:103a30000000e000000006002800fa00889fbe0099
:103a40008a9fbe008c9fbe0003866b00c7000700e4
:103a50006400e100440032006408e1004a003200e2
:103a60006100e100460032006108e10049003200d7
:103a7000ec0647006000b8003d02be003d03be00fa
:103a8000f48657006011b8003d04be003d05be003d
:103a90007d0320000b0037000000a0008d06e90028
:103aa000130032000402420085824a0006034b00e4
:103ab00087834b00000040008180480002014900dc
:103ac000838149000802520089825a000a035b0080
:103ad0008b835b00f0ff3b000802420089824a00b2
:103ae0000a034b008b834b008d06e900edff3a0083
:103af0008482720086827200f707b20087827200a9
:103b000001003200150020001e0490003e0b9000c2
:103b100006035400e63fb0000368a300070032002c
:103b20000000a7000500a0008301d1000281d3009e
:103b30008180d3000080d3000603e8008301d10018
:103b40000281d3008180d3000080d3000002eb000b
:103b50000482d2005900070003f0a1000cf0a70076
:103b600003f0a00095003700640247006408e100fc
:103b70008f0032003400be003401be00f6ff370073
:103b80006108e1008a0032006011b8006000b800ee
:103b9000f1ff370003ff270002002000fbff370082
:103ba000889fbe008a9fbe008c1f78004d010700d1
:103bb0005401330003866c006450e1002e00320093
:103bc0006420e100330032006150e1002f00320038
:103bd0006120e1003100320085855500eb07b0001f
:103be00009002000080420000500370008044400f4
:103bf00089844c000a0031000603430087834b0090
:103c00000001530081815b00f8ff33000203be0016
:103c10000800a0000804440089844c00f6ff390025
:103c2000c639dd008301730001003200130020005b
:103c30008904d1000884d3000998a300050032004c
:103c40000800a7000300a0008904d1000884d30065
:103c50008b05e8008904d1000884d3000001eb0043
:103c60000281d200dc00070001f0a1000cf0a700e7
:103c700001f0a0002c0137006420e1002e01320089
:103c80000801be000200be00f7ff37006120e1001e
:103c9000290132006000b800f3ff37000000200067
:103ca00001f82700f0ff3700801feb001103070029
:103cb0008f87e9000000e0000000060018002000e7
:103cc00057002000080453000d003d0006002000ae
:103cd00097fc2f000740e1001e0034008482720030
:103ce000610260008301d1000281d3008180d30092
:103cf0000080d3000804e800f8ff3a0047002000e5
:103d00006104600005047400040464000d003200c6
:103d100061004000e080480060014900e081490006
:103d200003b8a500070032000603e8006538e1008b
:103d300004003a008301d1000281d3008180d300c6
:103d40000080d300f87f20000830e1000300350038
:103d5000080378006000b8006011b8004433dd004b
:103d6000f300b200830173000000060068044700fe
:103d70000294be000094be00fc0447008694be007e
:103d80008494be000900780023030700080078002f
:103d90002103070099007800814f70000b003b0061
:103da0000800be00fc0207004f00b100030037000e
:103db000f3ff2700f2ff2f006110b9004f06be008d
:103dc0004f05be004f04be000080fa000000060050
:103dd0008103780088f207000001be006000b8008f
:103de0000478a30013003a006220e10015003e00b1
:103df0000d0039008301d1000281d3008180d300fe
:103e00008301d1000281d3008180d3008301d100de
:103e10000281d3008180d3000538b000c42add00c0
:103e2000f300b2008381720007f0a70003f0a00046
:103e300000000600f3ff2700f2ff2f006110b90019
:103e4000fbff370003ff2700f7ff370014002000b7
:103e500018033700f4ff2f00160337001400fa0090
:103e6000889fbe008a9fbe008c9fbe000004be00db
:103e70000205be00680047000a90be000890be0020
:103e8000e50207000070a7000bf0a1000bf8a300eb
:103e900020003a009e0990000e099000fe0090005c
:103ea0006e0090009e0290003443200084825200f5
:103eb000c2ff32000a003c00b4fc2f000428e100dd
:103ec000140034008301d1000281d3008180d3002b
:103ed0000080d3008502e800faff3a00b7ff370000
:103ee000b40020000428e10007003c00000040006e
:103ef0008180480002014900838149008502e90070
:103f0000faff3a00adff370003002800020020004e
:103f1000010037006011b8006000b800a7ff37004b
:103f20004f89de0082017800fd023700889fbe00c5
:103f300000827000040271000482710024003200cb
:103f400036432000c50020008383cf000a003900db
:103f50000541b1008283cf00070039000541b1005f
:103f60008183cf00040039000541b1008083cf0078
:103f7000010039000541b10085c353006022b8003b
:103f8000120032000a003b0084827200610260006d
:103f90008301d1000281d3008180d3000080d3004f
:103fa0000603e8008743e800f7ff3a000700370000
:103fb00000004000818048000201490083814900df
:103fc0000603e9008743e900f9ff3a003bff0700d9
:103fd0004f04be00000006008100200061805500f3
:103fe0000b003d000b00200061fe2f000100e100ee
:103ff0001d00340082817100610164008904d100d8
:104000000884d3000000e800faff3a0071002000a5
:1040100061006400030070000200600009003200cb
:1040200061044400e0844c000988a50005003200ca
:104030008b05e8006808e10002003a008904d1001d
:104040000884d300f20f20000258e10005003d0073
:10405000c75ddd00f907b2008980750008007800af
:10406000000006000bf827008b0078000000050018
:104070001400fa00889fbe008a9fbe008c9fbe007d
:10408000040678000004be000205be006800470078
:104090000a90be000890be005f0207006200e100c7
:1040a0000800be000a01be00040020000b003a0018
:1040b0001e029000e43fb1006e009000fe009000f0
:1040c0000e0990009e099000f300b20005fe230047
:1040d000858171000bf0a70003f0a000040e7800aa
:1040e00036ff37000004be00c3f107000003be0026
:1040f0000405be000200be00bff10700844f75003a
:10410000000006000200be006450e1000500360019
:104110006420e100020036000968a30001003a00b3
:104120000800be000160a0004f0678004f05be00e9
:104130004f04be0000000600f0ff2f00f1ff270033
:10414000f9ff37002800fa00889fbe008a9fbe0052
:104150008c9fbe0003866b0004ff07000028a300ad
:1041600064003a000128a30067003a000008a30099
:1041700062003a000108a30065003a001e009000aa
:10418000be08900081064000ed3fb100f48057006a
:10419000ee019000111ab8008e099000311bb80092
:1041a0009e099000311cb800511db800f4855700dd
:1041b00046000700fe0190003a0007008b85e800ea
:1041c0003e0007008e09900040000700ee019000bd
:1041d000340007008b85e800380007008e09900046
:1041e000400007009e0990001b18b8008904400099
:1041f0000a854800fe019000340007008b85e80026
:1042000038000700ee019000300007008e09900092
:104210001b18b800890440000a8548000a98a300ca
:1042200008003a000402420085824a0006034b005f
:1042300087834b0008044c0089844c000a054d001c
:104240008d06e90084827200850273004c3add001d
:10425000850272000100320015002000443ade00a1
:104260001400b2004538de00cb45dd000b007000c5
:10427000c540de00cb4ddd008b8070004549de007f
:10428000cb55dd000b017100c551de000d03780038
:104290008afe070003f0a1000cf0a70003f0a000c5
:1042a000c6fe37001b18b800850240000683480090
:1042b000e0834b0060044c00070037001b18b80077
:1042c0000603400087834800faff37001b18b80038
:1042d0008703400008844800e0844c0060054d00de
:1042e000000006001b18b80008044000898448003c
:1042f000faff37000108a300adfe3a005800be00e7
:104300005801be00e3ff37000008a300a8fe3a00f2
:1043100009047800f9ff3700889fbe008a9fbe001d
:104320008c1f78006fff070076ff330003866c0058
:104330006450e100240032006420e10027003200d4
:104340006150e100220032006120e10021003200d2
:104350008b854200eb07b1000134b800003ab80089
:104360000804420089844a00013ab8000030b800cd
:104370008880400009014a0004003300000040002a
:1043800081804800020149008b05e900c909dd0070
:10439000830170000100320013002000c814de0009
:1043a0004814dd004709de001200b200c808de0034
:1043b0000884700008ff070001f0a1000cf0a700be
:1043c00001f0a00058ff37006120e1005aff3200e1
:1043d0000801be000200be00f7ff37006150e10097
:1043e000fcff3a0054ff370007f0a2000bfd370036
:1043f000020ab900001bb9000200b80081004200a7
:1044000081004300000006000000fa00889fbe0003
:104410008a9fbe003004be002005be000404440094
:1044200085844c0006054d0087854d000898be0028
:104430000a90be000440e10005c8e10006d0e1009a
:1044400007d8e10002003100680040001008e800d1
:104450004f05be004f04be000080fa0000000600b9
:104460001000fa00889fbe008a9fbe000605be00ad
:104470000404be003002be002003be00049fbe0044
:104480000697be00110020000802520089825a00df
:104490000a035b008b835b00440798005507980074
:1044a00066079800770798000498be000698be003b
:1044b0003e02be002e03be000820e10009a8e10074
:1044c0000ab0e1000bb8e100010039008000eb0008
:1044d0004f05be00108810004f04be000080fa0097
:1044e000000006001400fa00889fbe005b00070071
:1044f0008a9fbe008c9fbe000006eb004c07980010
:104500003c0798002c0798001c0798000c0f7800b7
:104510000605be000404be000d0420004e039000fa
:10452000be029000860343002e029000e00f53006d
:1045300003003d002a000700b3ff07000200370018
:1045400027000700c6ff0700ce029000150f980055
:10455000e08f5200090035004500070014002000dc
:10456000050020006033b8000000720081807200f6
:104570000201730083817300380007000c06e80015
:104580008d0f5600e5ff3a001e0a9000e00f520022
:1045900004003d000802be000a03be000e007800c1
:1045a00099ff07004eba9700e00f520006003a004c
:1045b0003e04be002e05be0058079800690798000b
:1045c0007a0798000b0f98004f06be0028000700de
:1045d0004f05be004f04be000080fa000000060038
:1045e0004f2bde0022000700868373008582420085
:1045f0004f23de00470798008682720004024200c3
:10460000350798009e0290004f2bde008582420005
:1046100006027200240798001e0278004f23de0075
:104620000402420086827200150798004f18de00cf
:10463000000f72000e0007000802be000a03be0051
:104640000000400081804800020149008381490048
:10465000020007000e0078000000060050079800d6
:104660006107980072079800030f98000000060089
:104670005e009000ee0090007e0190008e09900098
:10468000000006000000fa00881f780018002000d3
:10469000881f780093ff07008f87e9004f04780098
:1046a0000080fa00000006000000fa00801feb0006
:1046b0008cff07008f87e9000080fa0000000600e9
:1046c0000000fa00889fbe008a9fbe00e00f5000e5
:1046d000e08f5800e00f5900e08f59000c003d00ba
:1046e0006044b8006055b8000000540081805c0050
:1046f00002015d0083815d001800200016000700a4
:1047000008003d00190007000004eb000500370019
:104710000004eb001000070002003d00130007003a
:1047200018002000d7ff0700e00f540006003200f9
:104730006022b8006033b8000000520081805a0047
:1047400002015b0083815b004f05be004f04be0089
:104750000080fa0000000600e00f5200e08f5a00cf
:10476000e00f5b00e08f5b00000006006044b800d3
:104770006055b8000402540085825c0006035d00a9
:1047800087835d00000006000000fa00889fbe00dd
:104790008a9fbe008c1f7800e00f5000e08f580009
:1047a000e00f5900e08f59000d003d006044b80053
:1047b0006055b8001c0020000000540081805c009f
:1047c00002015d0083815d000820e10009a8e1008d
:1047d0000ab0e1000bb8e1000d003d000800370011
:1047e0000006eb00e00f5200e08f5a00e00f5b0084
:1047f000e08f5b0006003d006044b8006055b800e3
:104800000402540085825c0006035d0087835d001e
:10481000a5ff0700e00f5600060032006022b80036
:104820006033b8000000520081805a0002015b0032
:1048300083815b004f0678004f05be004f04be0029
:104840000080fa00000006000000fa00889fbe0009
:104850008a9fbe008c1f78000006eb00e00f50001e
:10486000e08f5800e00f5900e08f590007003d002d
:104870006044b8006055b8001c00200000005400df
:1048800081805c0002015d0083815d00e00f5200c9
:10489000e08f5a00e00f5b00e08f5b0007003d00f7
:1048a0006044b8006055b8000c00a2000402540037
:1048b00085825c0006035d0087835d00d7000700ea
:1048c000e00f5600060032006022b8006033b800e6
:1048d0000000520081805a0002015b0083815b006e
:1048e0004f0678004f05be004f04be000080fa005e
:1048f00000000600889fbe008a9fbe008c9fbe00fd
:104900000404be000605be00809fbe00829fbe005c
:104910002f000700040678000800be000a01be0050
:104920002b000700840678004f03be004f02be0034
:104930008d4f76007fb0970013003300f0ff2f00fb
:104940008b8f6b0006003b000d0666000c00a70075
:104950000a00370007f0a600100020000a00370008
:10496000880f5200898f5a008a0f5b008b8f5b0083
:10497000030039001000200001003e00000020006c
:1049800007f0a7000000ea004f06be004f05be007a
:104990004f04be0000000600e48240001078a3002f
:1049a00007003200640240001178a3003400be000a
:1049b0001401be00040032000330a700000006000e
:1049c0003500be001501be000330a0000000060047
:1049d00005ff270005826100070032000428e1007e
:1049e00001003200240005000600070001003a0023
:1049f000440005000408050002000700f9ff3a0022
:104a0000140005006f826100810270008502710050
:104a10008502720000000600800078005002be008f
:104a20005003be004439de00f700b200f37f2000df
:104a300003016100090032000218e10016003a008b
:104a400085017200830173008381730000082000d8
:104a500015003a0040002000130037008501720065
:104a6000830173008381730005003a0004a8be002f
:104a700006a8be00100020000b0037000201e9006c
:104a80000402420085824a0006034b0087834b00e4
:104a90000748a300f9ff32000740a00004a8be00a9
:104aa00006a8be0020002000800098009200980018
:104ab00000000600889fbe008a9fbe00841f780009
:104ac00088fd07004f00780011003300f0ff2f0031
:104ad000838f6c0006003b00040565000a00a700f8
:104ae0000800370009f0a600100020000800370079
:104af000820f5400838f5c000300390010002000f7
:104b000001003e000000200009f0a7000000ea00bc
:104b10004f05be004f04be000000e000000006008c
:104b2000881f7800030478000300e00007003d00c0
:104b300060001000e080180060011900e081190099
:104b400002003b0001f02d000300370004000700c5
:104b500008f0a70001f0a0004f0478000000060054
:104b6000889fbe008a9fbe00008270000402710010
:104b700004827100260032000004be000200be0064
:104b80006011b8006b092000950220000182cf005f
:104b90000a0039000541b1000082cf00070039004a
:104ba0000541b1000982cf00040039000541b10080
:104bb0000882cf00010039000541b10005425200d2
:104bc000120032000a003b00828171006101640022
:104bd0008100d1000080d3008984d3000884d300f1
:104be0008b05e8000442e800f7ff3a0007003700b1
:104bf0000804440089844c0000004800818048007b
:104c00008b05e9000442e900f9ff3a00f2fc0700d5
:104c10004f05be004f04be0000000600889fbe0086
:104c20008a9fbe008c9fbe000404b8000506b80031
:104c30008904460060854e000606b8000a05460055
:104c4000e0854e000706b8008b054600040eb8004c
:104c5000890446000a854e00e0854d00050eb80027
:104c60000a0546008b854e00060eb8008b054600ef
:104c70000416b8000a0546008b854e000516b800dc
:104c80008b054600041eb8008b0546000800be00d8
:104c90000a01be004f06be004f05be004f04be0015
:044ca000000006000a
:020000040000fa
:104ca4005365000074740000696e00006720000002
:104cb400666c00006967000068740000206d0000e5
:104cc4006f640000650000004f4e0000004f0000bc
:104cd400464600000053000065740000746900003b
:104ce4006e670000207000006f770000657200009e
:104cf4002d73000061760000696e000067200000db
:104d0400257300000a00000044690000736100007c
:104d1400626c0000696e000067200000474e0000ce
:104d24005353000000470000504700004741000073
:104d340000250000662c0000256600002c250000dc
:104d4400632c0000256600002c250000632c000065
:104d5400256400002c250000642c0000256600005a
:104d64002c250000662c0000256300000044000090
:104d740061740000612d00004747000041000000fd
:104d8400483a000025690000204d00003a25000043
:104d9400690a0000004c0000415400003a2500005c
:104da400662000004c4f00004e4700003a250000ea
:104db400660a0000005300006174000020460000f1
:104dc4006978000065730000203d00002025000084
:104dd400630a0000005200004d430000002500005b
:104de4005b5e00002c5d00002c250000632c00009d
:104df400256600002c250000632c000025660000b9
:104e04002c250000632c0000255b00005e2c0000b4
:104e14005d2c000025730000004400006174000054
:104e2400612d0000524d0000430000004753000074
:104e3400560000004469000073610000626c0000c9
:104e4400696e00006720000047530000560d000003
:104e5400004700004c4c000000440000697300004f
:104e6400616200006c6900006e670000204700006a
:104e74004c4c00000d0000004753000041000000ae
:104e84004469000073610000626c0000696e0000f8
:104e94006720000047530000410d00000056000049
:104ea4005447000000440000697300006162000080
:104eb4006c6900006e670000205600005447000033
:104ec4000d000000556e00006b6e00006f7700004f
:104ed4006e2000004e4d000045410000207300008c
:104ee400656e0000746500006e630000653a0000a2
:104ef40020250000730a00000042000061640000e5
:104f04002063000068650000636b00007375000097
:104f14006d0d0000004700005053000000480000e1
:104f24003a250000752000004d3a00002575000068
:104f3400205300003a250000750a000000530000c9
:104f44006174000020460000697800006573000069
:104f5400203d000020250000640a000000b5000088
:104f6400620600000108000000f0000003000000d9
:104f740000000000000000000103000039b500003b
:104f8400620600000108000000f0000002000000ba
:104f940000000000000000000102000032b5000023
:104fa400620600000108000000f000000500000097
:104fb40000000000000000000105000047b50000eb
:104fc400620600003e2c00000000000000200000eb
:104fd40005000000081000000001000000010000ae
:104fe40001010000010300000000000000010000b6
:104ff4000103000008100000000000000001000090
:105004000105000000030000000000000001000092
:1050140001060000080e000000000000000100006e
:1050240001fc000011b5000062060000110200003e
:10503400000800000122000092b500006206000092
:105044002424000000ff0000ff060000030000000d
:105054000000000000100000270000000005000010
:1050640000fa000000fa000000640000002c0000b8
:10507400010000000000000000000000000000002b
:105084000000000000000000000000000016000006
:04509400dc0000003c
:020000040000fa
:105098000200fa000002eb00040f78000002eb00a7
:1050a800040f78000500370084cb21009e024200df
:1050b8000042eb00844a78001e0fe8003406200006
:1050c8009e027800848f5200f7ff34000080fa00b7
:1050d800000006000e00fa00000f78002147980033
:1050e80032479800434798003407980045079800ce
:1050f80056079800670798001e00780010e9880096
:105108003e4090001ffdb7003e02900084e58800f5
:105118005e009000a0e588006e029000b4e588006b
:105128004e00900090e588002e4290000482fb001b
:105138000402d100044278000400780021fdb70081
:1051480024d3210024e988004e40900026fdb700b2
:105158000002eb0044e988000080fa000000060025
:105168000800fa0020079800614798000042eb0009
:10517800044f7800200037002e02900094427800f7
:10518800154798002e0290000402e80024079800b2
:1051980084c0b30024479800140037001e429000d2
:1051a8001e426a0061426200344798009e427800bd
:1051b8000582fb000402d100044f78003e429000b3
:1051c800e04f520002003200c4c8b3001e4f6a000c
:1051d8001e4290000482fb000402d100144798008c
:1051e8002e4290000442e900244798002e42900085
:1051f800e04f5200e9ff3a006e4290000482fb0043
:105208000402ea004f22de0004427800ee429000d9
:105218008542e90065479800e04f5200d6ff3a0002
:105228001e427800044078000080fa000000060062
:105238000600fa0040479800d4ec80000442780049
:1052480025e980008440780005007800c4ff070045
:10525800004278002447980084e5800060c0b300cd
:105268000400010084e5800050c8b3000400010078
:1052780084e580004e4090000400010085e5800030
:10528800f4d12100144278000440780005000100a0
:1052980085e58000d4ec8000044278000440780062
:1052a800050001000002eb00040f78000800370039
:1052b80085e5800026e980001e027800040243008c
:1052c8001442780004407800050001001e0fe80031
:1052d800d4ec80009e0f5200f5ff3c0084e580006e
:1052e8002e409000040001008041eb002e41900008
:1052f800ce409000e0d921003002070011002000c4
:1053080020d32100d50107000080fa000000060024
:105318000a00fa00889fbe00d4d121001442780008
:10532800e04f52003e003a00a4e58000040001006e
:1053380000027800e40f5200390034000a003700f8
:1053480044e980000402e80044e98800a4e58000fc
:105358000400010000027800e40f520002003c0043
:105368000042eb004501370094e58000040001008d
:1053780000427800e64f5200f1ff3a0094e58000c1
:10538800040001000042780055c8b300854f520060
:1053980023003a0094e580000400010000427800f0
:1053a8000002fd0030fdb7000002fd0094e580001a
:1053b80004000100004278000002fd0020fdb70053
:1053c8000002fd0094e5800004000100004278001e
:1053d8000002fd001dfdb7000002fd0005d32100fd
:1053e80095427800f4d121001442780084cf52000d
:1053f8000b00320064e980000402e80064e98800d8
:1054080094e58000040001000042eb000002fd006a
:105418001dfdb7000002fd000042eb001701370038
:10542800d4d1210014427800e04f5200120132001a
:10543800c4d1210014427800e04f520026003a00ff
:1054480000000000a4e580000400010000027800cc
:10545800e00f5200fbff3400b4e5800004000100b7
:1054680000427800e14f42001d003a005a0207004e
:105478000042eb000002fd001dfdb7000002fd0028
:105488000042eb000002fd001cfdb7000002fd0019
:10549800fffe07009eff070000427800f700370074
:1054a800c8d12100184478008884fb0094e5800066
:1054b800040001000042780085cb21008582440069
:1054c800844a78000842e8000002fd001cfdb7008d
:1054d8000002fd0003003700000000000100370053
:1054e80000000000a4e5800004000100000278002c
:1054f800e00f520006003200c5d121009542780025
:10550800d4d121001442780084cf5200e4ff360041
:10551800d4d12100144278008482fb00c4d1210038
:10552800144278000482fb000402e900848f5200d0
:10553800d1003a00d4d12100144278008440780088
:1055480080cb210006ff0700004278000002fd0022
:105558001efdb7000002fd00c4d1210014427800ee
:105568000482fb008402e90084cb2100048242000b
:1055780094427800e4d121001442780084cf52008c
:1055880073003a000002eb00040f78002400370093
:1055980084cb21001e0242009442780014d22100dc
:1055a8001442780084cf5200180031009e02e800af
:1055b80084cb210004824200144278000002fd00de
:1055c8009cfdb7000002fd009e82e80084cb21000c
:1055d80004824200144278000002fd009dfdb700dd
:1055e8000002fd0015e9800084cb21001e02420064
:1055f800144278000482fb00040242000482420044
:10560800e5ec8000050a78000300370074e98000a3
:105618000402e80074e988001e027800630f420063
:10562800d4d12100144278000482fb009e0f52005e
:10563800d7ff3c0064d2210014427800e04f5200aa
:105648003800320000c2eb004447980014c0b30091
:1056580054479800c4d12100144278000482fb000a
:105668008402e90084cb21000482420014427800bd
:10567800644798006402470031c0b3000400780012
:10568800b7fe0700004278002447980084e58000b0
:1056980060c0b3000400010084e5800050c8b30076
:1056a8000400010085e5800004d22100144278003e
:1056b800044078000500010085e58000f4d1210050
:1056c80014427800044078000500010084e5800059
:1056d80030c0b3000400010084e5800000c0eb0086
:1056e8000400010084e5800010c0b300040001003c
:1056f80085e58000c4d12100144278000482fb00b3
:105708000403e90084cb210004024300144278001a
:10571800044078000500010084e580002e409000d8
:10572800040001000042eb000002fd001dfdb7006f
:105738000002fd000042eb000002fd001cfdb70066
:105748000002fd0052fe070014c0b3004b003700f2
:1057580054e980000402e80054e9880064d221007a
:1057680014427800e04f52003800320000c2eb00cb
:105778007447980024c0b300044f9800c4d1210096
:10578800144278000482fb008402e90084cb2100e3
:105798000482420014427800144f980067024700c0
:1057a80031c0b300040078006dfe070000427800a5
:1057b8003447980084e5800060c0b300040001000d
:1057c80084e5800050c8b3000400010085e580002e
:1057d80004d221001442780004407800050001003a
:1057e80085e58000f4d12100144278000440780057
:1057f8000500010084e5800030c0b300040001000a
:1058080084e5800000c0eb000400010084e580000e
:1058180020c0b3000400010085e58000c4d1210048
:10582800144278000482fb000403e90084cb2100c1
:105838000402430014427800044078000500010087
:1058480084e580003e409000040001000042eb0027
:105858000002fd001dfdb7000002fd000042eb0044
:105868000002fd001cfdb7000002fd0008fe070055
:105878000042eb00010037000042eb0004407800d2
:105888004f04be000080fa00000006000400fa0081
:10589800004f7800110798001e0190009e40780084
:1058a80020d32100020007000080fa000000060053
:1058b8000600fa00000f7800214798002207980098
:1058c8002e029000e4ec88001e027800c43290009a
:1058d80004062000848f52003e003c001e0278001f
:1058e800243290009e02780004824200ae4290006a
:1058f800054a78001e0278002432900041062000f4
:10590800040078006b000700000278008402780029
:105918001e027800253298001e027800443290005a
:105928008402e8001e027800453298001e027800c2
:10593800a4329000c4d92100144278001e037800d4
:1059480085024300844a78001e02780024329000c1
:105958004106200004007800560007000002780085
:10596800840278001e027800253298001e02780012
:10597800443290008402e8001e0278004532980004
:105988001e027800a4329000d4d921001442780075
:105998001e03780085024300844a78001e027800be
:1059a80024329000410620000400780041000700de
:1059b80000027800840278001e02780025329800e0
:1059c8001e027800443290008402e8001e0278002b
:1059d800453298000080fa00000006000400fa0032
:1059e800100798001e02900044329000e00f520009
:1059f800140034001e029000343290009e02900081
:105a080004824200144f78001e0290003432900045
:105a180041062000040078002600070000027800f4
:105a2800840278001e029000353298001e02900011
:105a3800443290008402e9001e029000453298002a
:105a4800020037000042eb00044f78001e42780045
:105a5800044078000080fa00000006000400fa0004
:105a6800000f7800110798001e0278008002eb00f2
:105a7800453298001e0278008002eb00253298001b
:105a88001e0278008002eb00353298001e0290005a
:105a9800e00f5200050032001e0278004206200086
:105aa8008000eb000400780079eb07000080fa0022
:105ab800000006000600fa00100798002107980069
:105ac8001e029000040fe8002e0290009e0278004b
:105ad800848f5200020039000002eb00040f7800a6
:105ae8001e027800040078000080fa00000006001a
:105af8000400fa00204798000002eb00040f780029
:105b0800130037001e027800044278000041eb00c1
:105b180084407800e0d921007f0007000042780027
:105b2800ae429000854f520008003a001e027800ed
:105b38000442780022c0b30084407800e0d92100f4
:105b48007500070000427800050037001e0fe800c6
:105b58001e027800e40f5200eaff340044c0b3008c
:105b6800044078000080fa00000006000000fa00f7
:105b780044e98000040078000080fa000000060074
:105b88000000fa0054e98000040078000080fa0060
:105b9800000006000000fa0064e9800004007800b4
:105ba8000080fa00000006000000fa0074e9800096
:105bb800040078000080fa00000006000600fa00e1
:105bc800000f780021479800324798004347980013
:105bd8001e027800040a90009e02780004824200a7
:105be800ae429000054a78001e027800040a900030
:105bf8008402e8001e027800050a98001e02780058
:105c0800040a90009e02780004824200be4290007e
:105c1800054a78001e027800040a90008402e80011
:105c28001e027800050a98001e027800040a9000f7
